:020000041000EA
:10C0000000200420F7C00010C3C00010C5C00010FD
:10C01000C1C00010C1C00010C1C00010C1C00010DC
:10C02000C1C00010C1C00010C1C00010C7C00010C6
:10C03000C1C00010C1C00010C9C00010CBC00010AA
:10C04000CDC00010CDC00010CDC00010CDC000107C
:10C05000CDC00010CDC00010CDC00010CDC000106C
:10C06000CDC00010CDC00010CDC00010CDC000105C
:10C07000CDC00010CDC00010CDC00010CDC000104C
:10C08000CDC00010CDC00010CDC00010CDC000103C
:10C09000CDC00010CDC00010CDC00010CDC000102C
:10C0A000CDC00010CDC00010CDC00010CDC000101C
:10C0B000CDC00010CDC00010CDC00010CDC000100C
:10C0C00000BE00BE00BE00BE00BE00BEEFF3058095
:10C0D000103800BEF2EB887108EB03103CEB031044
:10C0E00038C1001090A31AE71E481F49086006C80F
:10C0F00081F3088810471D480068002801D01948BE
:10C10000F3E70DA40ECC002902D000F012F8F9E7F5
:10C110001749184A002000E001C19142FCD116499C
:10C120008847164988471649884700BEFDE701C978
:10C1300001C29A42FBD370473CEB0310C0000020C1
:10C14000C81C002044070410000004200000042044
:10C150004407041000100420001004200000000018
:10C16000704700000000000008ED00E0000000D073
:10C17000C81C0020009B0220415302109DE50010C6
:10C1800003530210F8B5C04606480749091A8B1038
:10C19000C90FC91810B5491003D0044B002B00D0AB
:10C1A000984710BDC81C0020C81C002000000000DB
:10C1B000054B10B5002B03D00449054800E000BF33
:10C1C000FFF7E2FF10BDC04600000000943C0020D5
:10C1D000B053031030B5032910D80023002406E023
:10C1E0000268D25C55426A4114430133DBB2CAB2E1
:10C1F0009A42F5D801235C40E0B230BD0020FCE754
:10C20000094B0A4A1A6000221A719A6019000C310F
:10C21000D9621A8604325A86053A9A8600203C2151
:10C220005854DA877047C046142A00207411002041
:10C2300010B5C0218901024829F052F810BDC0464E
:10C2400000D01F0010B50100C0229201014829F062
:10C250002FF810BD00D01F0010B50800110017F016
:10C26000ABFE10BD10B5080017F0BEFE10BD10B536
:10C27000080017F08BFE10BD10B5040008008023E5
:10C280005B029C420DD221000931230009330AD2FE
:10C2900003681B689847002802D0C480012383806C
:10C2A00010BD0020FCE70020FAE70000F8B5070009
:10C2B0000D00140000280ED080235B02994210D29A
:10C2C00013689B680A000932010020009847061E87
:10C2D00008D0C5800BE0074B074A0848332119F006
:10C2E00013F8002623685B68390020009847300067
:10C2F000F8BDC046B0530310C05303107C54031064
:10C3000010B50368002B04D042688A4207D3585CFA
:10C3100010BD064B064A07482B2118F0F5FF064BC7
:10C32000034A04482C2118F0EFFFC046D8540310EC
:10C33000E45403102C5503109455031070B50400F9
:10C340000D0005E00B6823602B685B6828009847A8
:10C3500021680029F6D170BD10B5002903D003680B
:10C360000B60016010BD034B034A0448433118F0D1
:10C37000CBFFC046B05303104C560310F0550310CA
:10C3800070B50368002504E01968016011E01D0024
:10C390001B68002B12D01C0008348C42F7D19988FE
:10C3A000013989B29980002908D1002DECD0196893
:10C3B000296011684C6819001000A04770BD00008A
:10C3C00010B50068002800D010BD034B034A044894
:10C3D000272118F099FFC046AC560310C056031031
:10C3E0002C57031070B504000D000B79042B0CD0F2
:10C3F000052B17D0022B1ED1080027F05BFA256011
:10C40000606000232372200070BD0D68002D07D0EE
:10C41000280027F04FFA2560606001232372F2E7BD
:10C420000020F8E70B681A000832DB8802604360DE
:10C4300000230372E7E700230360436001330372C4
:10C44000E1E7000010B50379002B03D10623037147
:10C45000017010BD034B044AD4210448FF3118F089
:10C4600053FFC04690570310AC570310F05703100A
:10C4700010B50379002B05D1002909D005230371DC
:10C48000016010BD064B074A0748084918F03CFFF9
:10C49000074B044A89310448890018F035FFC0462B
:10C4A0009057031050580310F05703102302000058
:10C4B0003898031010B50379002B08D1402303717D
:10C4C000002303804380013B0380438010BD034B66
:10C4D000034A8E210348890018F016FF9057031075
:10C4E000BC580310F057031010B50379002B08D186
:10C4F00020230371002303804380013B038043809A
:10C5000010BD034B034A0448044918F0FDFEC04621
:10C51000905703101C590310F057031046020000F7
:10C5200010B504004168002904D003681868036846
:10C530005B689847200010BD70B50400002383603D
:10C540004368002B00D070BD056829681F20FFF7E5
:10C5500093FE002801D06060F5E701232B71FAE714
:10C5600070B504000D004068002803D0A168C3889E
:10C57000994208D06368002B04D0A268511CA160C6
:10C580009B181D7270BD2668490001313268FFF7A3
:10C590008DFE002801D06060ECE701233371FAE7DB
:10C5A00010B54B68002B0AD08A689B1800221A72BB
:10C5B0004B680833896803604160027210BD034B09
:10C5C000034A04484D2118F09FFEC04680590310CD
:10C5D00094590310F059031000B587B000900191F1
:10C5E000002804D0010003A8FFF7FCFE039807B061
:10C5F00000BD000010B50378052B03D8044A9B004A
:10C60000985810BD034B044A0448452118F07CFE9D
:10C610005C110020505A0310945A0310DC5A031086
:10C6200010B50078002802D00138C0B210BD034B0D
:10C63000034A0448132118F067FEC0464C5B031000
:10C64000585B0310E45B0310A0239B01CB189BB243
:10C650008022D20093420AD390239B01CB189BB235
:10C660008022D200934207D34160012070478905A0
:10C67000890D01800020F9E703889B028905890D57
:10C680000B43802252029446634443600120EDE74D
:10C6900010B50378022B02D1C168806810BD034B2E
:10C6A000034A0448532118F02FFEC0464C5C031087
:10C6B000705C0310D45C031010B50378032B02D117
:10C6C000C168806810BD034B034A0448582118F024
:10C6D0001BFEC046345D03105C5D0310D45C031088
:10C6E00010B50378012B01D1806810BD024B034ABD
:10C6F00003485D2118F008FEC05D0310DC5D0310E7
:10C70000D45C031010B50378042B02D1C168806893
:10C7100010BD034B034A0448632118F0F5FDC046E1
:10C720001C5E0310385E0310D45C031030B589B072
:10C730000500324B32481860C0229201290026F0D1
:10C7400005FF002843D01EF001F900240AE0200074
:10C7500014F044FE01AB18550021200014F058FEDF
:10C760000134E4B2192CF2D9FA24E400254822005D
:10C77000002116F043F916F01DF823482200290085
:10C7800016F03CF9002406E001AB195D200014F01E
:10C790003FFE0134E4B2192CF6D91EF0A9F915F0C8
:10C7A000C9FD1A4A002316F0A3FA1000190016F06A
:10C7B00097FD0022164B16F0AAFC02000B0015484C
:10C7C00018F088FF144818F055FF09B030BD15F077
:10C7D000B1FD0E4A002316F08BFA1000190016F076
:10C7E0007FFD00220A4B16F092FC02000B00094864
:10C7F00018F070FF094818F03DFFE6E758110020D7
:10C8000000D01F1031C2001045C2001040420F007E
:10C8100000408F40785E0310845E03109C5E03101E
:10C8200010B5014814F0B2FCB85E031010B5014811
:10C8300014F0ACFCD45E031010B515F07BFD0E4A6D
:10C84000002316F055FA1000190016F049FD0022D9
:10C850000A4B16F05CFC02000B00094818F03AFF86
:10C86000084818F007FF1EF071F8FA200121400077
:10C8700015F0E8FFFEE7C04640420F0000408F4041
:10C88000785E0310F05E031010B5D0231B068024E1
:10C8900064015C628020000158628021C9005962F5
:10C8A000802292015A629C61986199619A6110BDDF
:10C8B00010B50068002800D010BD034B034A04489F
:10C8C000262118F021FDC0461460031024600310D7
:10C8D0009860031010B5016082804B425941074BAC
:10C8E0009C46624453425A418A4200D110BD044BD7
:10C8F000044A0548162118F007FDC0460100FFFF55
:10C90000F4600310186103109860031010B50068FC
:10C91000002800D010BD034B034A0448262118F01C
:10C92000F3FCC04614600310E46103109860031028
:10C930007047000010B5016082804B425941074B9F
:10C940009C46624453425A418A4200D110BD044B76
:10C95000044A0548162118F0D7FCC0460100FFFF25
:10C96000F4600310686203109860031010B5016052
:10C9700082804B425941074B9C46624453425A4184
:10C980008A4200D110BD044B044A0548162118F014
:10C99000BBFCC0460100FFFFF460031040630310BE
:10C9A000986003100160426000230372704700002A
:10C9B000F0B5C64600B505000E000479002C13D171
:10C9C0004B68032B16D8022303714B689846DFB2DD
:10C9D000BC421CD221003000FFF792FC002810D08E
:10C9E00028550134E4B2F3E70D4B0E4A0E480F49C7
:10C9F00018F08AFC0E4B0B4A85210B48890018F071
:10CA000083FC0C4B074A08480B4918F07DFCFF23B8
:10CA1000424613400022EA5480BCB846F0BDC046EE
:10CA20009057031010640310F05703101302000016
:10CA3000A8640310C86403101B02000070B5141E24
:10CA400004DD0C4E002C03DD002506E00A4EF9E75C
:10CA50006442F9E764100135EDB2002C08D0E30719
:10CA6000F8D5EB00F3181A685B6816F06EFBF1E777
:10CA700070BDC04668C2031020C2031070B50C1E02
:10CA800004DD0B4E002C03DD002506E0094EF9E71E
:10CA90006442F9E764100135EDB2002C06D0E307DB
:10CAA000F8D5AB00F15817F084F8F3E770BDC04635
:10CAB00004C20310ECC1031010B504000800616843
:10CAC000002902D003685B689847002363602380D5
:10CAD000638010BD70B505000E00002407E0286AD1
:10CAE000E300C0183100FFF7E7FF0134A4B2AB8CBC
:10CAF000A342F4D80023AB84013B2B85296AA942C9
:10CB000006D033685B68300098472D620423EB84BD
:10CB100070BD10B5040001680C30FFF7DBFF002387
:10CB20002371216820000830FFF708FC10BD10B504
:10CB30000400080061686288D20003689B68984717
:10CB4000002802D060606388238010BD70B50400A7
:10CB50000D00838C002B11D1216AA1420DD0A28C33
:10CB6000E38C9A4209D0D2002B689B682800984732
:10CB7000206200280BD0A38CE38470BD006A074AB2
:10CB800094466344DB00C018FFF7D1FFE4E7044B91
:10CB9000044A0548922118F0B7FBC046FFFFFF1F6B
:10CBA000D0640310E4640310B45F031010B543882D
:10CBB0008B4203D94068C900401810BD024B034A9C
:10CBC00003484B2118F0A0FB906503109C650310EF
:10CBD0009860031010B50B4B994211D0CB097F22FE
:10CBE0001140828C9A4205D9006ADB00C018FFF719
:10CBF000DDFF10BD044B054A0548712118F084FB88
:10CC00000020F6E7FFFF000084660310986603101B
:10CC1000B45F031070B505000C000E8D0A4B9E42E8
:10CC20000CD031002000FFF7D5FF010003882385D9
:10CC300032002800FFF77EFE280070BD034B044A37
:10CC40000448992118F060FBFFFF0000846703107F
:10CC50009C670310B45F031010B582B0040000910C
:10CC600001924188084A914205D16B469B88038016
:10CC7000438002B010BD0C331800FFF7ABFF6B46CA
:10CC80009B88C3806380F4E7FFFF000070B5040059
:10CC90000368002B08D0DD880C3108002900FFF75D
:10CCA00099FF2060A58070BD024B034A0348102104
:10CCB00018F02AFB5068031058680310CC68031062
:10CCC00082B030B583B004006846009101920793AA
:10CCD000FFF7EEFD07AB9D88C58061880A4B99423E
:10CCE00008D16B469B882380658003B030BC08BCAC
:10CCF00002B0184709980C30FFF76CFF6B469B8811
:10CD0000C3806580F1E7C046FFFF000070B584B0C6
:10CD100004000D000C30FFF75DFF010002AE2A0099
:10CD20003000FFF707FE6D4608223100684617F015
:10CD300079F9A28E009B1A80AB88A38604B070BDDF
:10CD4000F0B5C64600B582B080460E00048810E0FB
:10CD500030000C302100FFF73DFF0100C7882200A2
:10CD60006846FFF7B7FD0099019A300000F031F8EE
:10CD70003C00064B9C42EBD101235B4242461380B0
:10CD8000538002B080BCB846F0BDC046FFFF000033
:10CD900070B504000D000379DB070DD42379DB06A1
:10CDA00012D4237960221A4203D029002000FFF711
:10CDB000C7FF0023237170BD016808312A6828006D
:10CDC0000830FFF7DDFAE9E721882800FFF79EFF2A
:10CDD000E7E770B586B004006D46009101926846A1
:10CDE000FFF766FD2100FFF7D3FF0098FFF7A0FDD6
:10CDF0000100AA8804AE3000FFF79CFD02AD0822B6
:10CE00003100280017F00EF9A28E029B1A80AB8821
:10CE1000A38606B070BD10B50B000279D20605D509
:10CE200001880C331800FFF7D5FE10BD0020FCE789
:10CE3000704770B504000800FFF7FAFF230026C80A
:10CE400026C3200070BD704710B504004B68002B4E
:10CE500009D04A880888824209D300232360013B15
:10CE6000A380200010BD0360013B8380F9E7501CC4
:10CE70004880D10059182000FFF75CFDF1E7000061
:10CE800030B583B005008B8C002B15D0013B9CB2D4
:10CE9000096AE300C9186846FFF7D6FF0099002920
:10CEA00010D06B469A88E401121992B22800FFF75D
:10CEB00041FD280003B030BD054B064A0648A121BC
:10CEC00018F022FA00232B60013BAB80F1E7C0464B
:10CED000306903103C690310B45F031070B504009F
:10CEE0000800E38C80229200934219D05B009DB22F
:10CEF000216AA14209D0EA0003689B689847061E90
:10CF000012D02662E584012070BDE90003681B6829
:10CF10009847061E06D02022210017F083F8F0E77C
:10CF20000020F1E70020EFE70020EDE770B50500F5
:10CF30000C00100000290AD0C90013681B6898472C
:10CF40006860002809D02C8000236B8070BD044BE2
:10CF5000044A0548332118F0D7F90024F3E7C04606
:10CF6000F0690310F86903109860031070B50400AD
:10CF70000E00828CC38C9A4211D0236AA58C681C47
:10CF800080B2A084ED005D1980239B0098420CD0F4
:10CF9000802132002800FFF7C9FF280070BDFFF78D
:10CFA0009DFF0028E9D10025F7E77F21F1E7000088
:10CFB000F0B583B007000C0016000D8D124B9D429A
:10CFC0000DD18B8C002B0FD06846FFF759FF009BCB
:10CFD000002B09D06B463A0003CB03C201E0FFF7F8
:10CFE00019FE380003B0F0BD31002000FFF7BEFF8E
:10CFF000002804D021003800FFF742FFF1E70023AA
:10D000003B60013BBB80ECE7FFFF000030B583B025
:10D0100005000C000A680C316846FFF7C9FF009B49
:10D02000002B10D06846FFF771FC011E03D00023CF
:10D030000371013BC3806B469A882800FFF74AFCC6
:10D04000280003B030BD0133237100232B60013B66
:10D05000AB80F5E770B582B005000C006846FFF7BD
:10D06000D5FF009E002E05D023003100019A280034
:10D07000FFF7F2FD300002B070BDF0B587B00500DB
:10D080000E001400110004A8FFF7C0FF049F002F3A
:10D0900010D0210002A8FFF7B9FF029B002B0CD093
:10D0A00033600194039B0093029B0499059A280026
:10D0B000FFF706FE380007B0F0BD1F00FAE730B5F5
:10D0C00083B005000C000A680C316846FFF770FF5A
:10D0D000009B002B0BD06C466846FFF717FC010045
:10D0E000A2882800FFF742FC280003B030BD0133BE
:10D0F000237100232B60013BAB80F5E782B070B554
:10D1000084B001AC01906160A2600993002816D040
:10D11000099B002B19D0029E0A9B9E421DD1002420
:10D12000B44218D2210001A8FFF7EAF80500210057
:10D1300009A8FFF7E5F8854215D10134F0E70B4B5C
:10D140000B4A0C482D2118F0DFF80B4B084A094810
:10D150002E2118F0D9F8012000E0002004B070BCA6
:10D1600008BC02B018470020F8E7C046046B031063
:10D17000146B0310806C0310E46C031030B587B09F
:10D180000D00046800E02468002C11D02100083153
:10D19000E28803A8FFF706FC04AB6A4603CB03C290
:10D1A000039B28686968AA68FFF7A8FF0028EAD0EF
:10D1B000200007B030BD0000F0B589B005000E1E9C
:10D1C00025D04468002C28D00834019487683900A1
:10D1D00001A8FEF7FFFF002825D1E41900232370E2
:10D1E0002C6805AFAA6801993800FFF7DBFB200027
:10D1F00008303900FFF7C2FF041E1FD083880133B7
:10D20000838021003000FFF733F909B0F0BD174BE0
:10D21000174A18481D2118F077F8174B144A15487B
:10D220001E2118F071F802AD3A0021002800FFF726
:10D23000B9FB29003000FFF7BBFBE6E72F68686801
:10D24000A9683A68FFF732F8041E07D0286808304A
:10D250002100FFF781F800236B60D2E701233B71C7
:10D26000064B034A03482A2118F04EF8F46C0310C9
:10D27000086D0310F059031080590310B0530310C8
:10D2800070470000F0B5DE4657464E464546E0B5CD
:10D2900087B08246884600291CD009782B291FD0E8
:10D2A0002D2923D12C398C46E0448B464146087801
:10D2B00001003039C9B2092937D92E2861D000239D
:10D2C00052461370504607B0F0BCBB46B246A94662
:10D2D000A046F0BD9F4BA04AA0486E3118F014F84C
:10D2E00001218C46E04400218B46DFE700218B467C
:10D2F000DCE79B498C4226D96346002B5AD15B461A
:10D30000002B41D080231B069D4255D801D1002C13
:10D3100052D100236242AB4102215046017082602B
:10D32000C360CFE74C4522D9E6E7002400254146FB
:10D3300009788C463039C9B289460929DCD889492F
:10D340008D42D9D8D5D0A10FAB000B43A20020004D
:10D3500029008018594100184941009001910400AA
:10D360000D004E460027F1438946691CDAD000982B
:10D3700001998019794104000D0001218C46E04497
:10D38000D5E700240025D2E70323524613709460AA
:10D39000D56097E70A2200232000290015F0A8FC99
:10D3A00004000D00013636B280235B039D42F1D2AA
:10D3B000414606E00026F7E70026F5E7013636B2DB
:10D3C00001310A781300303BDBB2092BF6D98846CD
:10D3D0002E2A0FD043461B78652B35D0452B33D0F2
:10D3E0000022B61843461B78002B7DD000235246FE
:10D3F000137067E701239C46E044B446424613E0BD
:10D40000A70FA9003943A00024184D4124196D41EC
:10D41000029300230393029E039FA4197D41664655
:10D42000013E33B29C4601321378303BDBB2092B0C
:10D4300007D84D4FBD42F6D8E2D14C4FBC42F2D88E
:10D44000DEE766469046C5E74346581C5B782D2BC1
:10D4500015D02B2B16D00027002201780B00303B73
:10D46000DBB2092B39D893009B185B0030395A186E
:10D47000B1189A235B00994208DC0130EDE70130D6
:10D480000127E9E7404602300027E5E7002F0BD0EF
:10D490005B46002B06D080221206012351460B70FA
:10D4A0008A600FE70022F8E75B46002B0ED00020D1
:10D4B0002F49FFF7E5FE0D000200802109066B18D9
:10D4C0000421504601708260C360FBE600202849B9
:10D4D000FFF7D6FE02000B00F2E7002F02D0524207
:10D4E00080467EE780467CE7330026334C2B01D80C
:10D4F000002D15D02000290015F0F2FE3200FFF7B4
:10D500009DFA04000D005B46002B03D08021090624
:10D510006B181D000423524613709460D560D1E649
:10D52000002D03D180231B049C42E3D2200029005C
:10D5300016F006FC3100FFF7A1FA5B46002B04D180
:10D540000123524613709060BCE680231B069C4664
:10D550006044F5E7706D0310786D0310D45C031020
:10D5600099999999999999199999010098999999DD
:10D570000000F07F7047000010B5FFF7FBFF006868
:10D58000002800D010BD0148FCE7C046D8BC0310FD
:10D59000704710B504000800FFF7FAFF206004236D
:10D5A0006360033B2372200010BDF0B587B0040018
:10D5B0000E00110003AD2800FFF7EBFF6B466A4633
:10D5C00083CD83C2220040C223CB23C2200007B0F8
:10D5D000F0BD704710B504000800FFF7FAFF2060A7
:10D5E00007236360063B2372200010BDF0B587B0AF
:10D5F00004000E00110003AD2800FFF7EBFF6B469F
:10D600006A4683CD83C2220040C223CB23C22000BE
:10D6100007B0F0BD704770B504000800FFF7FAFFCF
:10D62000230026C826C3200070BD82B0F0B58BB0A1
:10D63000060010921193139D131E0AD00C88280027
:10D640000C302100FFF7C6FA029002AB9C80012447
:10D650000FE00260013B838030000BB0F0BC08BCDF
:10D6600002B0184701235C40E4B2290002A8FFF78A
:10D670000DFB029B002B1ED0002CF3D002A8FEF75E
:10D680009FFE010004AF3800FEF7ACFE390007A88A
:10D69000FFF7C1FF08AB6A4603CB03C2079B109894
:10D6A0001199129AFFF72AFD0028DBD002AB320055
:10D6B00003CB03C2D0E73360013BB380CCE710B5A6
:10D6C00088B00391049205930A9B0193059B0093F4
:10D6D0000A00049B010006A8FFF7A7FF0698002890
:10D6E00004D00A9906A8FFF7D1FA069808B010BD31
:10D6F0000023FF2282425B41D8B2704710B504007C
:10D70000FFF7F6FF002801D0E0B210BD0020FCE7D3
:10D71000002806DBC30FFF22002182424B41D8B212
:10D7200070470020FCE710B50400FFF7F1FF002868
:10D7300001D0E0B210BD0020FCE70123002902D196
:10D7400002D1FF2800D90023D8B2704710B50400D9
:10D75000FFF7F3FF002801D0E0B210BD0020FCE786
:10D7600000290ADB0123002902DD0023D8B270471B
:10D770000029FBD1FF28F9D9F7E70020F7E710B51A
:10D780000400FFF7EDFF002801D0E0B210BD00203B
:10D79000FCE7000010B5041C002116F051FA002827
:10D7A00007D00549201C16F043FA002802D00120BA
:10D7B00000E0002010BDC04600007F4310B5041CEF
:10D7C000FFF7E8FF002804D0201C16F09FFAC0B233
:10D7D00010BD0020FCE7000070B504000D00002221
:10D7E000002315F00BFD002809D00022054B200076
:10D7F000290015F0FBFC002802D0012000E00020E9
:10D8000070BDC04600E06F4070B504000D00FFF72A
:10D81000E3FF002805D02000290015F049FDC0B223
:10D8200070BD0020FCE710B50378032B18D00AD890
:10D83000012B11D0022B04D1C1688068FFF79FFF34
:10D840000DE000200BE0042B04D1C1688068FFF7D5
:10D85000DBFF04E0002002E08068FFF7AFFF10BDAF
:10D86000C1688068FFF772FFF9E710B584B0010066
:10D870006846FFF707FD6846FFF7D5FF04B010BD07
:10D8800010B50400FFF7C7FA23791E2B31D89B008F
:10D89000194AD3589F4620782CE02068FFF72EFFC6
:10D8A00028E02068FFF73FFF24E041680068FFF7A9
:10D8B0004DFF1FE041680068FFF761FF1AE020009C
:10D8C000FFF7D3FF16E020680028F9D10B4B0C4A74
:10D8D00018210C48FF3117F017FD20680830EFE7DA
:10D8E0002068FFF76BFF05E041680068FFF78CFFD9
:10D8F00000E0002010BDC046D8C00310D86D031052
:10D90000E86D0310F05703102F2801D939280ED9DC
:10D910002E280ED005D9452811D0652811D164389C
:10D9200006E02B2807D02D2807D12C3800E0012055
:10D9300070470120FCE70120FAE70020F8E701200A
:10D94000F6E70020F4E7000010B50379002B04D1BE
:10D950000E2303710160012010BD034B034AED212A
:10D960000348490017F0D0FC90570310786E03105D
:10D97000F057031010B58379002B0BD103685A1CA4
:10D9800002601B78002B0BDD002B0CDB03710123E5
:10D99000437110BD054B064A0648252117F0B4FC1B
:10D9A00001228271F0E70023F0E7C046846F031084
:10D9B0008C6F03100C70031010B5040020001030A1
:10D9C000637D002B0FD0237D002B0FD0202B14D88C
:10D9D000092B12D3093BDBB20A4ADA40D2070CD535
:10D9E00000236375EAE7FFF7C5FFECE7237B002B15
:10D9F00001D1012004E0022002E001232373002072
:10DA000010BDC0461300800070B504000D0010303A
:10DA1000637D002B06D0237D9D4206D100236375D4
:10DA2000012070BDFFF7A6FFF5E70020F9E770B50C
:10DA300004000D0008E0237D002B10D02A789A42C4
:10DA40000FD10135002363752878002808D0200005
:10DA50001030637D002BEED1FFF78CFFEBE7022047
:10DA600070BD0320FCE770B505000E0000230B809D
:10DA700000240EE0FFF77EFF12E0303BDBB20F2BFD
:10DA80001CD8328812011343338000236B75013494
:10DA9000E4B2032C0ED8280010306B7D002BE9D0A7
:10DAA0002B7D002B08D0402BE7D920229343373B16
:10DAB000DBB2E4E7002070BD0220FCE70320FAE7B8
:10DAC00030B583B00D007F2811D9694600230B7053
:10DAD0003F220240803B13434B70800983B21F2BCF
:10DAE0000AD840235B4203438B70CC1C25E0C1B2B3
:10DAF0002800FEF735FD24E03F21014080225242FC
:10DB00000A4369468A709A090F2A05D820235B4286
:10DB10001343CB7001AC10E03F21114080225242F0
:10DB20000A436946CA701B0B1022524213430B7101
:10DB30004C1D02E02800FEF713FD013C217800296E
:10DB4000F8D103B030BD000070B584B0040002AB62
:10DB500000221A80039206001036437D002B03D06A
:10DB6000257D0023637526E03000FFF703FFF7E70C
:10DB70003000FFF7FFFE21E0002363756B46991D1F
:10DB80002000FFF770FF002801D004B070BD6B4685
:10DB9000D98802A8FEF758FD00280CD00398210070
:10DBA000FFF78EFF07E05978002929D0002363751D
:10DBB0002000FEF7D5FC637D002BD9D0217D00230A
:10DBC00063758D4213D0002916D05C29F0D1300046
:10DBD000FFF7D0FE227D002A10D0752ACCD00A4B48
:10DBE00019780029E0D08A42DDD00233F8E7636873
:10DBF000002B07D00020C8E70220C6E70220C4E7B8
:10DC00000320C2E70420C0E76470031070B504006D
:10DC10000E00FEF791FC2000FFF796FF051E01D0D5
:10DC2000280070BD31002000FFF7C6FAF8E7012098
:10DC3000002900D00020C0B27047000010B5006875
:10DC4000002800D010BD034B034A0448262117F0DA
:10DC50005BFBC046146003107870031098600310DB
:10DC6000F0B583B0040016001F000379002B0BD120
:10DC700010003900FFF7DBFF051E0BD00A232371CC
:10DC80002660280003B0F0BD0B4B0C4A0C487E21E7
:10DC900017F03AFB08996846FFF711FA009B002B32
:10DCA000EFD01A232371684683882380FFF7C6FFCD
:10DCB000066047600125E4E790570310F4700310F5
:10DCC00068720310F0B583B0040016001F000379DA
:10DCD000002B12D11000390015F03AFB051C16F08C
:10DCE0003DF832003B0015F073FA00280BD00E23EC
:10DCF00023712560012003B0F0BD0D4B0D4A0E4885
:10DD00004C2117F001FB08996846FFF7D8F9009BF2
:10DD1000002B0AD01E232371684683882380FFF7D7
:10DD20008DFF066047600120E5E70020E3E7C0467D
:10DD300090570310C87203106872031080221206F5
:10DD40000023801859410123002900D00023D8B2B4
:10DD500070470000F0B583B0040016001F0003797F
:10DD6000002B0BD110003900FFF7E8FF051E0BD088
:10DD70000C2323712660280003B0F0BD0B4B0C4A26
:10DD80000C48672117F0C0FA08996846FFF797F921
:10DD9000009B002BEFD01C232371684683882380CF
:10DDA000FFF74CFF066047600125E4E7905703103A
:10DDB000D473031068720310F0B5CE46474680B5A1
:10DDC00087B006008946102398468044437D002B87
:10DDD00014D0377D00243800FFF796FD002811D0BD
:10DDE0003E2C0FD800237375651CEDB234192777CC
:10DDF0004046FFF7BFFD377D2C00ECE74046FFF7BC
:10DE0000B9FDE6E734190023237731001C3102AC59
:10DE10002000FFF737FA2478032C26D013D8012CE2
:10DE200036D0022C0DD102A8FEF732FC02000B0006
:10DE3000B16900914846FFF78DFF002836D00024D5
:10DE400020E003241EE0042C0DD102A8FEF75AFCAA
:10DE500002000B00B16900914846FFF733FF00282C
:10DE600010D000240EE003240CE002A8FEF724FCEE
:10DE700002000B00B16900914846FFF7F1FE00284F
:10DE800012D00024200007B0C0BCB946B046F0BD97
:10DE900002A8FEF725FC011CB2694846FFF754FDB5
:10DEA000002805D00024EDE70424EBE70424E9E78B
:10DEB0000424E7E72F2801D9392809D95E2801D998
:10DEC0007A2807D9402807D95A2807D9002004E022
:10DED000012002E0012000E0002070470120FCE763
:10DEE00070B5040006001036437D002B09D0257D57
:10DEF000002D0AD02800FFF7DDFF002812D10320F3
:10DF000020E03000FFF736FDF1E7104B104AE22128
:10DF10001048490017F0F8F9257D2800FFF7CAFFDF
:10DF200000280CD00023637529002000FEF718FBA1
:10DF3000637D002BF0D13000FFF71CFDECE7636838
:10DF4000002B00D070BD0420FCE7C046CCA103101C
:10DF50003C7503100476031010B50400FEF7ECFACC
:10DF600020001030637D002B08D0237D272B08D0A4
:10DF7000222B06D02000FFF7B3FF05E0FFF7FAFCE5
:10DF8000F3E72000FFF7E0FD10BD0000F0B58DB015
:10DF900005000E0003AA1370DBB2002B00D17BE05A
:10DFA00010306B7D002B0CD02B7D7B2B0CD10023F4
:10DFB0006B752800FFF700FD041E0BD020000DB08C
:10DFC000F0BDFFF7D7FCEFE7344B354A3548F32176
:10DFD00017F09AF97D212800FFF716FD00282CD0B4
:10DFE000ECE7AA6905A93000FFF747F8011E4DD0FC
:10DFF0002800FFF7E1F8059C03A8FEF711FB031CBE
:10E0000000222100280000F04FF8041ED6D128007D
:10E01000FFF7D2FC041ED1D17D212800FFF7F4FCCC
:10E020000028CBD12C212800FFF7EEFC002831D0AE
:10E030002800FFF7C1FC041EC0D12800FFF78CFFA9
:10E04000041EBBD12800FFF7B7FC041EB6D13A214D
:10E050002800FFF7D9FC00281AD006AF29003800A5
:10E06000FEF79EFA09AC39002000FEF7E2FEAB692C
:10E07000009309990A9A0B9B3000FFF720FB05904B
:10E080000028AED0A969FEF783FEB4E7042495E723
:10E09000032493E7032491E705248FE764760310B4
:10E0A000787603100476031070B506000C001D1C72
:10E0B000FFF782FC00281CD130001030737D002B4C
:10E0C0000CD0337D7B2B10D85B2B0AD35B3BDAB2B1
:10E0D000202A0AD893001F4AD3589F46FFF74AFCCC
:10E0E000EFE7222B1AD0272B18D021003000FFF7A2
:10E0F00063FE70BD2000FEF7DDF901002B1C00223D
:10E10000300000F08BF8F4E72000FEF7EDF9010095
:10E110002B1C00223000FFF739FFEAE72100300016
:10E12000FFF774FDE5E701212000FEF78BF90A49AE
:10E130003000FFF77CFCDCE700212000FEF782F9CD
:10E1400006493000FFF773FCD3E705493000FFF7BD
:10E150006EFCCEE754C10310E077031094810310E6
:10E16000E877031070B504000D000022FFF79CFF54
:10E17000002806D1237D002B03D02B791B0700D567
:10E18000032070BDF0B5C64600B59AB004008846BD
:10E1900001AE328007003837FEF7BBFC00233B712D
:10E1A00003AD0394049305932B73424607926B755A
:10E1B000AB7509947378002239002800FFF7D2FF6D
:10E1C000061C2800FEF7ACF9216820000C30FEF791
:10E1D000BDFC301C1AB080BCB846F0BD10B582B092
:10E1E00004000800FFF7C6F9FFF7C6F9010001AB0C
:10E1F0000A225A701A886B461A80009A2000FFF78C
:10E20000C1FF02B010BD00B583B00191FEF71BFE47
:10E2100001A9FFF7E3FF03B000BD000070B582B0B5
:10E2200005000E0001AA1370DBB2002B43D01030A2
:10E230006B7D002B0CD02B7D5B2B0CD100236B75E1
:10E240002800FFF7B9FB041E0BD0200002B070BD00
:10E25000FFF790FBEFE71A4B1A4A1B489D2117F076
:10E2600053F85D212800FFF7CFFB0028EDD1A96905
:10E270003000FEF7EFFE041E1FD001A8FEF7D0F914
:10E28000031C002221002800FFF70EFF041EDCD132
:10E290002800FFF791FB041ED7D15D212800FFF76E
:10E2A000B3FB0028D1D12C212800FFF7ADFB0028BB
:10E2B000DDD10334C9E70524C7E70424C5E7C04618
:10E2C000F0770310047803100476031070B58AB059
:10E2D0000391049205930379202B0ED107AA03AB77
:10E2E00070CB70C2002806D00E9A00920799089A47
:10E2F000099BFFF7E4F90AB070BD0020EEE7F0B526
:10E3000087B0030002CB0800383003AAE0CBE0C29C
:10E310000B00383305D000910399049A059BFFF751
:10E32000D5FF07B0F0BD10B582B00400FFF7E7FFDE
:10E33000216800900191FEF74FF902B010BD000076
:10E3400030B57E4CA5447E4B7E4A1A60002012F008
:10E3500091FD22F079FE002819D022F023FF7A499E
:10E360000122C6208001684420F00EFF002825D13C
:10E37000764B774A774969447748684421F0E7FC4F
:10E3800000285AD10124002C5CD101251BE013F098
:10E39000D1FF724A002314F0ABFC1000190014F0F6
:10E3A0009FFF00226E4B14F0B2FE02000B006D487E
:10E3B00017F090F96C4817F05DF9CEE7022000F0F5
:10E3C000C5FB01240025C0229201002102A815F0FE
:10E3D00029FE00230193002D01D0002C46D1584B7B
:10E3E0001968C022920102A815F01CFE5F4802A91C
:10E3F000FFF709FF6B461870C3B2002B66D15C4C67
:10E400006C445C4A59492000FFF7CFF82000FFF721
:10E410008AFF5949032225F081F9002800D074E0D1
:10E42000564B01221A7048490022002020F0ACFE11
:10E43000FEF72AFA524B9D4430BD032000F086FBC4
:10E440000024A0E701224F4969444F48684420F066
:10E45000CBFE002808D0082801D12500B3E703200F
:10E4600000F074FB2500AEE72500ACE7C02201AB4D
:10E47000920102A94448684421F06CF800280AD0AF
:10E48000032000F063FB2E4B1968C022920102A802
:10E4900015F0C8FDAAE713F04DFF304A002314F031
:10E4A00027FC1000190014F01BFF00222C4B14F065
:10E4B0002EFE02000B002B4817F00CF9019933488F
:10E4C00017F008F902A8FEF731F98FE713F032FFD1
:10E4D000224A002314F00CFC1000190014F000FF75
:10E4E00000221F4B14F013FE02000B001D4817F012
:10E4F000F1F86846FEF77EF80100254B180017F08A
:10E50000E9F8032000F054FB79E7224C6C44194AE7
:10E5100016492000FFF749F82000FFF704FF1E49C5
:10E52000072225F0FBF8002803D1144B02221A70B1
:10E5300079E7124B00221A7075E7C04694C9FFFFB5
:10E540005811002000D01F107C790310807903102F
:10E55000D8BC0310083000002831000040420F00F2
:10E5600000408F40785E031068790310142A002061
:10E5700048360000CC790310D4790310E09A0220C9
:10E580006C36000022300000E83300009079031060
:10E59000B479031058360000D879031010B514F080
:10E5A0005DF817F027F813F0C5FE864A002314F033
:10E5B0009FFB1000190014F093FE0022824B14F010
:10E5C000A6FD02000B00814817F084F88048052260
:10E5D000032117F07FF800F043FAFFF7B1FE06F0D1
:10E5E000C9FF01F0ADFC7B4B1B78002B22D0012B27
:10E5F0007AD0022B00D18EE001F062F8002800D121
:10E60000C6E013F097FE6F4A002314F071FB100070
:10E61000190014F065FE00226B4B14F078FD020027
:10E620000B006A4817F056F86B4817F023F81CF0F7
:10E6300051F9FEE713F07EFE624A002314F058FB06
:10E640001000190014F04CFE00225F4B14F05FFD27
:10E6500002000B005D4817F03DF8604817F00AF81B
:10E6600000F0A0FD02F0C6F904F0B2FC02F0DCFEFE
:10E6700001F0A2FF002819D113F05CFE514A0023DB
:10E6800014F036FB1000190014F02AFE00224E4B45
:10E6900014F03DFD02000B004C4817F01BF85048E9
:10E6A00016F0E8FF012000F0CBFAA5E703F074F9BB
:10E6B0000028A1D113F03EFE424A002314F018FBBB
:10E6C0001000190014F00CFE00223F4B14F01FFD47
:10E6D00002000B003D4816F0FDFF424816F0CAFF4D
:10E6E000022000F0ADFA87E713F024FE354A00233C
:10E6F00014F0FEFA1000190014F0F2FD0022324B63
:10E7000014F005FD02000B00304816F0E3FF364818
:10E7100016F0B0FF70E713F00DFE2A4A002314F044
:10E72000E7FA1000190014F0DBFD0022264B14F06C
:10E73000EEFC02000B00254816F0CCFF2B4816F02B
:10E7400099FF00F02FFD02F055F902F06DFE10F078
:10E75000D7F901F031FF002800D04DE713F0EAFDB2
:10E76000184A002314F0C4FA1000190014F0B8FD80
:10E770000022154B14F0CBFC02000B00134816F0DE
:10E78000A9FF174816F076FF012000F059FA33E789
:10E7900013F0D0FD0B4A002314F0AAFA1000190060
:10E7A00014F09EFD0022084B14F0B1FC02000B0097
:10E7B000064816F08FFF0E4816F05CFF032000F0AD
:10E7C0003FFA1EE740420F0000408F40785E031082
:10E7D000E0790310E09A02202C7A0310F8790310F4
:10E7E000F85E0310045F0310107A03101C7A031004
:10E7F000145F031030B585B00500FFF780FD0400FD
:10E800002D6802A902904D600822684615F00AFCA6
:10E81000002C05D029002000FFF732F805B030BDEC
:10E820000020FBE770B53E4CA544050000242B5D9D
:10E83000002B05D0C0239B019C4201D20134F6E796
:10E84000002012F017FB22F0FFFB00283AD022F044
:10E85000A9FC13F0AFFF3349012268A820F094FC13
:10E86000061E46D1304B314A0AA952A821F06FFA50
:10E8700000284FD0CD26F6006E442D4A2D49300099
:10E88000FEF7B4FE3000FFF7B5FF03002A4A282147
:10E89000684616F0BBFC0A226946FFA80C3020F03F
:10E8A000A3FC061E28D1002322002900FFA80C305B
:10E8B00020F076FF061E1FD1FFA80C3021F074F95E
:10E8C000060019E013F036FD1C4A002314F010FA7C
:10E8D0001000190014F004FD0022194B14F017FC6D
:10E8E00002000B00174816F0F5FE174816F0C2FE9E
:10E8F000ADE7022000F02AF90A490022002020F0AA
:10E9000043FCFDF7C1FF73425E41F0B2CF23DB0051
:10E910009D4470BD4220684421F028FAAAE7C04611
:10E9200088F9FFFF7C79031080790310D8BC0310AD
:10E930003C7A0310142A0020447A031040420F004E
:10E9400000408F40785E03106879031010B5FDF722
:10E9500057FC10BD70B518E001210E4813F072FF8E
:10E960000D4B01221A7013F025FFD0252D068026AD
:10E97000B6046E61FA24A40020001CF069F913F0BB
:10E9800019FFAE6120001CF063F9034B1B78002BCC
:10E99000E2D0E8E788130000DC9A0220F0B5C64612
:10E9A00000B5002400E000242B4B1D78002D1ED064
:10E9B000A54214D9D0252D0640236B6180266E61B7
:10E9C000FA201CF045F9AE61FA201CF041F901343F
:10E9D000E4B2214B1B780533A342E4DBE4E7D02308
:10E9E0001B0680225A61FA201CF032F9EFE71B4B1C
:10E9F0001E78002E24D0A64218D9D02636064023F1
:10EA00009846736180277761FA201CF021F943460C
:10EA1000B361B761FA201CF01BF90134E4B20F4B6B
:10EA20001B780533A342BFDA2C00BDE7D0231B06B9
:10EA300040225A6140325A61FA201CF009F9ECE791
:10EA4000D0231B0640229A6140325A6100201CF0FC
:10EA500097F93400A8E7C046DB9A0220DA9A022030
:10EA600010B582B02D4B00221A70192012F058FBFD
:10EA7000D024240680239B0463626361072012F084
:10EA80004FFB802363626361062012F049FB402341
:10EA90006362636122492348234B0193012300935E
:10EAA000002380221BF099FD802220492048214B21
:10EAB000019302230093002352001BF08EFD13F0FC
:10EAC00039FC1D4A002314F013F91000190014F04A
:10EAD00007FC0022194B14F01AFB02000B00184C23
:10EAE000200016F0F7FD174816F0C4FD13F022FCC5
:10EAF000114A002314F0FCF81000190014F0F0FB88
:10EB000000220E4B14F003FB02000B00200016F055
:10EB1000E1FD0D4816F0AEFD02B010BDDC9A0220FA
:10EB2000987A031055E90010F8280020A47A031001
:10EB30009DE90010F428002040420F0000408F4063
:10EB4000785E0310B47A0310CC7A031010B5040079
:10EB500013F0F0FB104A002314F0CAF8100019005B
:10EB600014F0BEFB00220D4B14F0D1FA02000B0092
:10EB70000B4816F0AFFD0B48210016F0ABFD0A4B19
:10EB80001B78002B01D0002C05D1074B1C70074BC4
:10EB900018681BF04DFE10BD40420F0000408F4032
:10EBA000785E0310E87A0310DB9A0220F428002034
:10EBB000F8B5050013F0BEFB1A4A002314F098F8CC
:10EBC0001000190014F08CFB0022174B14F09FFA70
:10EBD00002000B00154816F07DFD1548290016F0BF
:10EBE00079FD002400E00024AC4212D2D026360683
:10EBF0004023736180277761FA2013F0D9FBB76156
:10EC0000FA2013F0D5FB0134E4B26B1DA342EADB1A
:10EC1000EAE7D0231B0680225A61FA2013F0C8FBD2
:10EC2000F1E7C04640420F0000408F40785E03107D
:10EC3000F47A0310014B18787047C046DB9A022023
:10EC4000F0B5C64600B5060013F074FB1C4A00235D
:10EC500014F04EF81000190014F042FB0022194B7A
:10EC600014F055FA02000B00174816F033FD174850
:10EC7000310016F02FFD002400E00024B44215D22C
:10EC8000D0252D06402398466B6180276F61FA20BE
:10EC900013F08EFB4346AB61AF61FA2013F088FBA3
:10ECA0000134E4B2731DA342E7DBE7E7D0231B0680
:10ECB00040225A6140325A61FA2013F079FBEFE7A3
:10ECC00040420F0000408F40785E03100C7B031021
:10ECD00010B504001F2112F0EFF8002200212000DF
:10ECE00012F004F90021200012F006FA10BD000015
:10ECF000F0B5DE4657464E464546E0B5A5B028225B
:10ED000000211AA815F088F96022002102A815F048
:10ED100083F901239B46002398469A46994600278B
:10ED20000193B3E02C00082C0EDC651C1AABAA0082
:10ED3000D058A200D050002114F06CFF0028F1D070
:10ED4000A4001AABE650EDE723960024002005E06E
:10ED5000A2001AABD15814F011FF0134092CF7DDD1
:10ED6000584914F010FF041C574B18607D1CADB2BD
:10ED7000E1231B019F421DD25B46002B1AD1534B4E
:10ED80001C68534B1968201C14F04CFF002805D058
:10ED90005049201C14F05CFF00283BD14E4B1968F1
:10EDA000201C14F055FF002843D14B46002B5DD0AA
:10EDB0004C4630E0019B581CC0B29F0002ABFC5097
:10EDC000182113F057FFCBB20193002501E0013564
:10EDD000EDB2172D0BD8AB0002AA9858002114F001
:10EDE00019FF0028F3D0AB0002AA9C50EFE70024E3
:10EDF0000020172C07D8A20002ABD15814F0BEFE99
:10EE00000134E4B2F5E7354914F0BDFE2F4B18602C
:10EE10000025B4E701244346002B05D1002C09D07E
:10EE200002F0C8FCA04608E003F0A6F800239846CC
:10EE300003E000244B46002B1AD1244B1E68284BBC
:10EE40001968301C14F0EEFE002814D02149301C43
:10EE500014F0FEFE00280ED05346002B0ED102F017
:10EE6000A9FC00F015FC01239A4607E04C46E1E7B7
:10EE700002F0AAFDE1E75346002B1CD1FA208000E6
:10EE80001BF0E6FEA1462F0000239B46154B0422F3
:10EE90001A60154B1B68DB05FBD5134B586880B215
:10EEA00014F0DBFE114914F084FE114914F066FEE3
:10EEB000061C002437E702F087FD00F0F5FB002375
:10EEC0009A46DBE700002041D82F0020DC2F0020ED
:10EED000801100200000A0407C1100200000C041F3
:10EEE0007811002000E0044000C00440499A103C22
:10EEF000CDCC4C3F014B18687047C046DC2F00203A
:10EF0000014B18687047C046D82F0020704710B5D5
:10EF100004000800FFF7FAFF20600A236360093B42
:10EF20002372200010BDF0B587B004000E00110060
:10EF300003AD2800FFF7EBFF6B466A4683CD83C223
:10EF4000220040C223CB23C2200007B0F0BD70478F
:10EF500010B504000800FFF7FAFF20600C2363607F
:10EF60000B3B2372200010BDF0B587B004000E00EB
:10EF7000110003AD2800FFF7EBFF6B466A4683CD17
:10EF800083C2220040C223CB23C2200007B0F0BDC1
:10EF9000704710B504000800FFF7FAFF20600F2348
:10EFA00063600E3B2372200010BDF0B587B00400F3
:10EFB0000E00110003AD2800FFF7EBFF6B466A4619
:10EFC00083CD83C2220040C223CB23C2200007B0DE
:10EFD000F0BD0120704710B5041CFFF7FAFF0028B0
:10EFE00003D0201C14F0BAFE10BD00200021FBE766
:10EFF0000120704770B505000C00FFF7F9FF0028ED
:10F0000004D02800210014F05FF970BD0020002119
:10F01000FBE70120704770B505000C00FFF7F9FF12
:10F02000002804D02800210014F05AF970BD0020F7
:10F030000021FBE70120704770B504000D00FFF7C9
:10F04000F9FF002802D02000290070BD0020002117
:10F05000FBE710B50378032B1AD00BD8012B13D084
:10F06000022B04D1C1688068FFF7C4FF0FE00020C5
:10F0700000210CE0042B04D1C1688068FFF7DCFF9D
:10F0800005E00020002102E08068FFF7A4FF10BD2A
:10F09000C1688068FFF7BFFFF9E710B584B00100D1
:10F0A0006846FEF7EFF86846FFF7D3FF04B010BDDF
:10F0B00010B50400FDF7AFFE23791E2B30D89B005E
:10F0C000194AD3589F46207814F0B2F82AE02068F5
:10F0D00014F0AEF826E0206814F0AEF822E04168A3
:10F0E000006814F0FDF81DE04168006814F0ECF8C9
:10F0F00018E02000FFF7D1FF14E020680028F9D1C4
:10F100000A4B0B4A0B48EA2116F0FEF8206808303B
:10F11000F0E7206814F022FE04E04168006801E096
:10F120000020002110BDC046B0C20310D86D0310EE
:10F13000247B0310F057031030B585B00500FFF7AE
:10F14000DEF804002D6802A902904D60082268468E
:10F1500014F068FF002C05D029002000FFF7A8FF5D
:10F1600005B030BD00200021FAE770B584B005007D
:10F170000E00FFF7C4F804002B6802A902904B6050
:10F180000822684614F04EFF002C06D023791B0796
:10F1900003D52800FFF7D0FF01E03068716804B0A4
:10F1A00070BD000030B595B019F02AFD1A20FFF7A8
:10F1B0008FFD304B1B68E022D20113402E4A1360B2
:10F1C00002AD2E4A2E4C21002800FFF7ACFE002293
:10F1D0002C4B0692079306A92800FFF7C6FF14F0F0
:10F1E000B7F8294B186008AD284A21002800FFF71E
:10F1F000BBFE274A274B0C920D930CA92800FFF762
:10F20000B4FF14F0A5F8244B18600EAD234A21007A
:10F210002800FFF7CAFE0022214B1292139312A975
:10F220002800FFF7A2FF14F093F81E4B186080220D
:10F230001D491E481E4B01930323009300235200D7
:10F240001BF0CBF913F076F81A4A002313F050FDA7
:10F250001000190014F044F80022174B13F057FF68
:10F2600002000B00154816F035FA154816F002FAA0
:10F2700015B030BD00C0044000D00440AC7B03108A
:10F28000142A00200080274080110020B87B031042
:10F2900033333333333328407C110020C87B0310D1
:10F2A0000000244078110020D87B0310F1EC0010FE
:10F2B000D42F002040420F0000408F40785E0310A2
:10F2C000E87B031030B583B004000D0000230193E8
:10F2D0000F4B1B68002B01D00F2808D0019B012B7E
:10F2E0000FD02900200011F053FE03B030BD0948B3
:10F2F00010F05AFE064B186801AA00211CF05EFBB4
:10F30000ECE7002BEDD0044B802252051A60E8E7B1
:10F31000AC2B0020B02B002004ED00E000B583B042
:10F320000448002300930F33112203490FF0B4FF68
:10F3300003B000BDB02B002000C00340F0B5C646AE
:10F3400000B584B007000E0015001C0001212A4BF7
:10F35000186849421AF05EFD00201BF0DDF9804676
:10F360000E2100201BF0E8F912F0E4FF234A0023ED
:10F3700013F0BEFC1000190013F0B2FF0022204B66
:10F3800013F0C5FE02000B001E4816F0A3F91E483C
:10F3900000942B003200390016F09CF903AA177074
:10F3A000D6705570947019480423FF2110F0EEFFB9
:10F3B000002812D0164B1B78002B15D14146002097
:10F3C0001BF0BAF90C4B18680023002200211AF038
:10F3D0007BFA04B080BCB846F0BD0530FFF7B6FB41
:10F3E0000B4B01221A70E9E70020FFF7AFFB084B37
:10F3F00000221A70E2E7C046A82B002040420F000E
:10F4000000408F40785E0310047C0310B02B002076
:10F41000EE9A022030B585B00090019102920393DC
:10F420000121274B186849421AF0F4FC00201BF018
:10F4300073F905000E2100201BF07EF912F07AFF0F
:10F44000204A002313F054FC1000190013F048FF69
:10F4500000221D4B13F05BFE02000B001B4816F050
:10F4600039F91B4816F006F91A480E236A46FF219F
:10F4700010F08CFF002810D0174B1B78002B17D1F1
:10F48000290000201BF058F90D4B186800230022BA
:10F4900000211AF019FA05B030BDD0231B06402216
:10F4A0005A610530FFF752FB0B4B01221A70E7E758
:10F4B0000020FFF74BFB084B00221A70E0E7C04624
:10F4C000A82B002040420F0000408F40785E0310C0
:10F4D000347C0310B02B0020EE9A022030B583B0AC
:10F4E00001AC20800121284B186849421AF092FC97
:10F4F00000201BF011F905000E2100201BF01CF963
:10F5000012F018FF214A002313F0F2FB100019003B
:10F5100013F0E6FE00221E4B13F0F9FD02000B0073
:10F520001C4816F0D7F8217862781B4816F0D2F8FC
:10F530001A4802232200FF2110F028FF002810D0D3
:10F54000174B1B78002B17D1290000201BF0F4F873
:10F550000D4B18680023002200211AF0B5F903B002
:10F5600030BDD0231B0640225A610530FFF7EEFA6A
:10F570000B4B01221A70E7E70020FFF7E7FA084B70
:10F5800000221A70E0E7C046A82B002040420F007E
:10F5900000408F40785E0310447C0310B02B0020A5
:10F5A000EE9A0220F0B5D6464F464646C0B58AB020
:10F5B00080460D0017009A460121294B18684942E0
:10F5C0001AF028FC00201BF0A7F881460E2100202D
:10F5D0001BF0B2F8002407E00530FFF7B7FA214B23
:10F5E00001221A702034A4B2AC4228D213F0E2F8FF
:10F5F00001AE202200216B46981D14F00DFD3770DE
:10F6000053467370434619192A1B202A00D9202219
:10F610006B46981D14F006FD1348222301AAFF2112
:10F6200010F0B4FE0028D7D00E4B1B78002BD9D099
:10F630000020FFF78BFA0B4B00221A70D2E74946E5
:10F6400000201BF079F8064B1868002300220021E7
:10F650001AF03AF90AB0E0BCBA46B146A846F0BD85
:10F66000A82B0020EE9A0220B02B002010B5044BEE
:10F67000186814F0FBFB14F017FB40B210BDC04635
:10F68000D02F0020014B18787047C046EC9A02201A
:10F6900010B5034810F008F9024B01221A7010BD92
:10F6A000B02B0020ED9A022010B5034810F000F8AE
:10F6B000024B00221A7010BDB02B0020ED9A0220E0
:10F6C00010B5034810F026F9002800D0012010BD25
:10F6D000B02B002000487047A82A0020F0B589B060
:10F6E00094464D68019502AB0C000834C4CCC4C3E9
:10F6F0001431D0C9D0C3856003000C3302A970C98E
:10F7000070C370C970C36346436209B0F0BDF8B5F9
:10F71000050014001E000F8818000C303900FDF79A
:10F7200059FA2860AF8004E031002800FDF7AEFAF6
:10F73000013C2A68002A01D0002CF5D12800F8BD30
:10F7400000B583B01300002805D00A000100684608
:10F75000FFF7DDFF009803B000BD10B5002804D00E
:10F760000379402B02D1FFF7EBFF10BD0020FAE731
:10F77000704710B504000800FFF7FAFF206005236A
:10F780006360043B2372200010BDF0B587B0040015
:10F790000E00110003AD2800FFF7EBFF6B466A4631
:10F7A00083CD83C2220040C223CB23C2200007B0F6
:10F7B000F0BD704710B504000800FFF7FAFF2060A5
:10F7C0000B2363600A3B2372200010BD704710B505
:10F7D00004000800FFF7FAFF206009236360083B7C
:10F7E0002372200010BDF0B587B004000E00110098
:10F7F00003AD2800FFF7EBFF6B466A4683CD83C25B
:10F80000220040C223CB23C2200007B0F0BDC0437A
:10F81000C00F7047012070470123002902D102D197
:10F82000002800DA0023D8B2704780221206002395
:10F83000801859410123002900D00023D8B2704715
:10F8400010B50400FDF7E7FA23791A2B17D009D871
:10F850000A2B10D00C2B03D12068FFF7DBFF0DE043
:10F8600000200BE01C2B04D141680068FFF7DDFF8E
:10F8700004E0002002E02068FFF7C9FF10BD4168E6
:10F880000068FFF7C9FFF9E700B583B00090019168
:10F89000002803D0FFF7D4FF03B000BD0020FBE732
:10F8A00010B50400FFF7B3FF002801D0200010BD01
:10F8B0000020FCE710B50400FFF7ACFF002801D0E2
:10F8C000200010BD0020FCE710B50400FFF7A4FFE6
:10F8D000002801D0200010BD0020FCE710B5040076
:10F8E000FFF7A3FF002801D0200010BD0020FCE797
:10F8F00070B504000D000022084B13F07FFC0028B7
:10F9000009D0074A074B2000290013F06FFC00289C
:10F9100002D0012000E0002070BDC0460000E0C120
:10F920000000C0FFFFFFDF4170B504000D00FFF7CE
:10F93000DFFF002804D02000290013F095FC70BDE3
:10F940000020FCE77047000010B5041CCF21090619
:10F9500014F076F900280AD00748FFF7F3FF011CDE
:10F96000201C14F065F9002803D0012000E00020DD
:10F9700010BD0020FCE7C046FFFFFF4E10B5041C81
:10F98000FFF7E2FF002803D0201C14F08DF910BD12
:10F990000020FCE710B50378032B18D00AD8012B00
:10F9A00011D0022B04D1C1688068FFF797FF0DE0EA
:10F9B00000200BE0042B04D1C1688068FFF7B4FF7E
:10F9C00004E0002002E08068FFF7D8FF10BDC168A6
:10F9D0008068FFF779FFF9E710B584B00100684649
:10F9E000FDF750FC6846FFF7D5FF04B010BD0000DE
:10F9F00010B50400FDF70FFA23791E2B31D89B00B8
:10FA0000194AD3589F4620782CE02068FFF748FF1A
:10FA100028E02068FFF74EFF24E041680068FFF708
:10FA200053FF1FE041680068FFF758FF1AE020000D
:10FA3000FFF7D2FF16E020680028F9D10B4B0C4AE3
:10FA400018210C48FF3115F05FFC20680830EFE703
:10FA50002068FFF793FF05E041680068FFF764FF47
:10FA600000E0002010BDC0462CC30310D86D031069
:10FA7000647C0310F057031030B585B00500FEF725
:10FA80003EFC04002D6802A902904D6008226846E1
:10FA900014F0C8FA002C05D029002000FFF7A8FFB9
:10FAA00005B030BD0020FBE730B583B004000D0089
:10FAB000FEF725FC216800900191FFF7E5FE002884
:10FAC00002D1286803B030BD2000FFF7D5FFF9E769
:10FAD00030B587B012F02EFC2B4A002313F008F942
:10FAE0001000190013F0FCFB0022284B13F00FFB51
:10FAF00002000B00264815F0EDFD264815F0BAFD72
:10FB000001AC254A25492000FFF76DFE9623059399
:10FB100005A92000FFF7C8FFC50F2D186D10ADB265
:10FB20001F4C0021200010F0E7F8092208212000D6
:10FB300010F09CF91B4B197820000FF0C3FB082133
:10FB400020000FF097FC184920000FF0A9FC1421A9
:10FB500020000FF019FD1549200010F013F80521C1
:10FB600020000FF057FD0921200010F07BF8012143
:10FB700020000FF0AFFB2900200010F001FA200058
:10FB80000FF096FD07B030BD40420F0000408F409F
:10FB9000785E0310EC7C0310007D0310142A002013
:10FBA000B02B0020EC9A022000C0644420A1070082
:10FBB000F0B5D7B010AB03221A7302325A7364E166
:10FBC00055226A441278B44909788A4202D0FF2A41
:10FBD00000D089E01698149056236B44197801F0F0
:10FBE0003FFFAE4B1868002114F014F8002807D02E
:10FBF000AB480FF069FBA94C14F034F8206022E008
:10FC0000A7480FF061FB14F02DF8002113F0D1FF8D
:10FC1000A24C216813F0B2FF206014E055226A4420
:10FC200012789D4909788A4201D0FF2A5ED110AC32
:10FC30000E2216A9200014F0F5F910981199129AC5
:10FC4000139B01F07DFB12F075FB964A002313F025
:10FC50004FF81000190013F043FB0022924B13F0F1
:10FC600056FA02000B00914815F034FD8C480FF055
:10FC70002BFB01008E4B180015F02CFD56236B4416
:10FC80001C788C4B1B5D002B02D18A4B01221A552C
:10FC900012F050FB884BE4001B1918605960804833
:10FCA0000FF02CFD002863D016ADFF2200212800A4
:10FCB00014F0B2F9002355226A44137056226A44A4
:10FCC000137057246C44FF3323707548AA3B6B4470
:10FCD00000931300220029000FF02EFD12F06AFDA0
:10FCE0002378042B00D16BE70E2B97D0022B27D063
:10FCF000222BA8D133336B441B78674A1478A34274
:10FD000001D0FF2B9FD106AD222216A9280014F0A6
:10FD100089F92B789C4296D12C0056236B441B7892
:10FD200005930AAB6A4623CB23C2196811609B88EE
:10FD3000938006986168A268E36804F06DFE82E72C
:10FD400055226A441278544909788A4201D0FF2A20
:10FD5000CED10FAB16AA12881A801B78994200D018
:10FD600071E756236B4419780F9801F011FA6AE78E
:10FD70004B4810F0FBF807240440631FDBB2012B53
:10FD800008D9032C06D0072C04D04C4A1378013331
:10FD9000137002E0494B00221A70484B1B780A2B63
:10FDA00001D8002443E012F0C5FA3E4A002312F0C5
:10FDB0009FFF1000190013F093FA00223A4B13F042
:10FDC000A6F902000B00394D280015F083FC3C48D1
:10FDD000210015F07FFC32480FF066FDFFF778FE3A
:10FDE00012F0A8FA2F4A002312F082FF1000190027
:10FDF00013F076FA00222C4B13F089F902000B0065
:10FE0000280015F067FC2F4815F034FCC9E7294B92
:10FE100000225A55284BEA009B181E685F6812F0B2
:10FE200089FA801BB941002918DB0134A4B2FE2CE9
:10FE30001CD825001F4B1B5D002BEBD01E4BE20096
:10FE40009B181E685F6812F075FA801BB941012982
:10FE5000DDDCDFD11C4B9842DCD9D8E712F06AFA1E
:10FE6000154BED005B1918605960DEE70A4B1A78F4
:10FE7000104B012199540122FA239B000093002387
:10FE80005242002100201BF069FC104B1B78002B14
:10FE900000D104E7EFE7C046EC9A0220D02F002003
:10FEA000B02B002040420F0000408F40785E0310CE
:10FEB0004C8E0310A82A0020301E0020EA9A02204F
:10FEC0000C7D0310247D0310FFFC7045ED9A022089
:10FED000F0B587B004000430FEF711FA616803AA98
:10FEE00023001433E0CBE0C2002805D00091039931
:10FEF000049A059BFEF7EAF907B0F0BD10B50400BF
:10FF00000430FFF7E5FF616AA268FFF726FC10BD29
:10FF100030B585B00500FFF7F1FF0400AD6802A918
:10FF200002904D600822684614F07CF8002C05D041
:10FF300029002000FDF7A4FC05B030BD0020FBE740
:10FF4000F0B5A5B05548FF22002114F065F85448DB
:10FF5000FF22D200002114F05FF815AD514A524C37
:10FF600021002800FDF742FB2800FEF743FC4F4E1E
:10FF700030704F4A210019A8FFF707FC199F2097FE
:10FF800021AB1AAA13CA13C315004A491000FFF780
:10FF900011FC0BAC230007CD07C303A94F6005ABD1
:10FFA00021AAA1CAA1C32200A1CAA1C30022200084
:10FFB000FFF794FB2000FFF7ABFF3F4B18700120C9
:10FFC00019F054FD3D4B18603D4C3E49200018F09F
:10FFD000DFFD0121102010F06FFF0121122010F031
:10FFE0006BFF0121132010F067FF636802221340AA
:10FFF00035490A60216805325140C8320A40334908
:020000041001E9
:100000000A60334A13600F2011F08AF8D0231B06D0
:10001000802212029A622F4B012208210F2011F038
:1000200007F8FFF755FD12F085F92B4A002312F06F
:100030005FFE1000190013F053F90022274B13F054
:1000400066F802000B00264C200015F043FB3178C7
:10005000244815F03FFBA02223492448244B019358
:100060000D230093002392001AF0B7FA12F062F900
:10007000194A002312F03CFE1000190013F030F969
:100080000022164B13F043F802000B00200015F07D
:1000900021FB184815F0EEFA25B0F0BDA82A002083
:1000A000301E00203C7A0310142A0020EC9A022013
:1000B000307D0310387D0310EB9A0220A82B00201E
:1000C00000C00340404B4C0004F0034000D003400C
:1000D00004E00340C5F2001040420F0000408F4092
:1000E000785E0310447D0310507D0310B1FB0010B7
:1000F000AC2B00205C7D031010B5FFF70FF910BD8D
:10010000D0B5DAE012F016F9744B22019B18986012
:10011000D9602EE0714B22019B185B79002B01D036
:10012000002847D06D4B22019B181B79002B04D16E
:100130006A4B9B189B79002B51D1684B22019B186D
:100140009E68DF6812F0F6F8801BB941002900DADA
:10015000A4E00134072C00DDA8E0E1B260480022F1
:100160000EF012FE5D4B22019B189871DB799842CC
:10017000C8D15A4B220199188879C871D35C012BD8
:10018000C8D0032BC6D0022BC4D0043BDBB2042B57
:1001900005D8524B22019B181B79984247D14F4BEF
:1001A0002201D35C002BC8D14C4B22019B189A79B9
:1001B0001A71C2E7494B9B189E68DF6812F0BAF8C3
:1001C000801BB941002903DCACD1464B9842A9D928
:1001D000424B22019B1800225A711A71ADE73F4B26
:1001E0009B189E68DF6812F0A5F8801BB9410029B2
:1001F00003DCA2D13C4B98429FD9384B220199187D
:1002000001200871D35C022B06D1344BCA7812014D
:100210009B181B79002B06D1304B22019B18587874
:1002200001F0F0FA89E7887801F0ECFA85E72B4BCA
:100230009B189E68DF6812F07DF8801BB941002989
:1002400003DCACD1294B9842A9D9244B2201D35CC1
:10025000042B07D0214B22019B189A791A7100F0C8
:1002600079FF6AE712F066F8214A002312F040FD98
:100270001000190013F034F800221E4B12F047FF53
:1002800002000B001C4815F025FA144B22019B18A4
:100290009A791A48210015F01DFADBE712F04AF8A6
:1002A0000E4B22019B189860D96052E70C48FF2141
:1002B0000EF00BFD05201AF0CBFC0121104C20683C
:1002C000494219F0A7FD06480EF026FD20680023DC
:1002D0000022002119F0F8FA00243BE7C81C002096
:1002E000C028002007A507006F17000037C70000CF
:1002F00040420F0000408F40785E0310747D031071
:10030000D428002010B50949094820220EF0DAFC53
:100310000721084B06E000221A715A719A71DA71AE
:10032000013910330029F6DA10BDC04670150020DF
:10033000C0280020C81C0020014B18687047C04628
:10034000D428002010B50249802213F06BFE10BDA6
:10035000C81C0020002301E00133DBB2072B12D8B8
:10036000094A19018A5C013AD2B2012AF4D8064A34
:10037000521852788242EFD1034A5218012111716A
:1003800000215171E8E77047C81C0020002301E0FC
:100390000133DBB2072B10D8084A19018A5C032A03
:1003A000F6D1064A521852788242F1D1034A5218C5
:1003B0000121117100215171EAE77047C81C00202A
:1003C00030B500230AE0114AAA5C8A420FD10F4AD5
:1003D00024011219012454710133DBB2072B13D805
:1003E0001C000A4A1D01521952788242EBD0074A7A
:1003F0002501AA5C8A42EFD10229EDD1034A5219A4
:1004000092788242E8D1E2E730BDC046C81C0020A5
:1004100070B505000023002014E01F4C1E01A41934
:100420006478AC4216D11C4A0C0112191479002CC4
:1004300006D0194A090152185279002A00D1200029
:100440000133DBB2072B25D81900134A1C01A25C2B
:10045000012AE2D0022AF3D10F4A0C011219527874
:10046000AA420ED00C4A0C0112199278AA42E7D186
:10047000094A1419E478240112191279002ADFD0EC
:10048000D1E7054A1419E478240112191279002AD7
:10049000C9D0E7E770BDC046C81C002010B50400F5
:1004A000002301E00133DBB2072B14D80B4A1901FA
:1004B0008A5C032AF6D1094A52185278A242F1D135
:1004C000064A521810790028ECD0044A5218527982
:1004D000002AE7D100E0002010BDC046C81C002063
:1004E00010B50400002301E00133DBB2072B14D860
:1004F0000B4A19018A5C052AF6D1094A521852782A
:10050000A242F1D1064A521810790028ECD0044AD0
:1005100052185279002AE7D100E0002010BDC046F1
:10052000C81C002010B50400002301E00133DBB239
:10053000072B14D80B4A19018A5C062AF6D1094AFE
:1005400052185278A242F1D1064A52181079002866
:10055000ECD0044A52185279002AE7D100E000207A
:1005600010BDC046C81C002010B50400002301E0E7
:100570000133DBB2072B14D80B4A19018A5C072A16
:10058000F6D1094A52185278A242F1D1064A5218BD
:1005900010790028ECD0044A52185279002AE7D189
:1005A00000E0002010BDC046C81C0020014B187898
:1005B0007047C046D39A022010B50248FF210EF0C2
:1005C00084FB10BDC028002010B5002300240020AB
:1005D00001E00133DBB2072B0DD8074A19018A5C11
:1005E000082AF6D1044A52181279A2401043C0B228
:1005F0000134E4B2EDE710BDC81C0020704770B5AF
:1006000004000800FFF7FAFF0568002D08D0280055
:1006100023F050F92560606000232372200070BD34
:100620000020F7E7F0B58BB005000B00110005AC1A
:10063000220041CB41C216001000FCF7AAFF6A4617
:100640006B4603CC03C319003000D0C8D0C1291DAC
:1006500011CA11C12A000C3213CB13C228000BB0EF
:10066000F0BDF0B58BB005000B00110005AC220009
:1006700041CB41C216001000FFF77BF86A466B467B
:1006800003CC03C319003000D0C8D0C1291D11CA42
:1006900011C12A000C3213CB13C228000BB0F0BDDD
:1006A000F0B58BB005000B00110005AC220041CB6A
:1006B00041C216001000FCF78DFF6A466B4603CC62
:1006C00003C319003000D0C8D0C1291D11CA11C1FF
:1006D0002A000C3213CB13C228000BB0F0BD00B5BA
:1006E00085B0010001A8FFF78AFF019B002B02D013
:1006F000002005B000BD0120FBE7000082B0F0B58E
:10070000CE46474680B585B001AC01906160A260DD
:100710000D93002819D00D9B002B1CD0029B9946ED
:100720000E9B984699451CD24F460024BC4223D2CA
:10073000210001A8FBF7E4FD050021000DA8FBF74F
:10074000DFFD85420FD10134F0E7104B104A11480C
:10075000142114F0D9FD104B0D4A0E48152114F048
:10076000D3FD1F00E1E7281A05B0C0BCB946B0466A
:10077000F0BC08BC02B01847C14502D304D8002021
:10078000F2E701204042EFE70120EDE7046B0310A0
:10079000887D0310806C0310E46C031030B58DB0BD
:1007A00003AD03910492059306AC01002000FFF70E
:1007B00026FF290009A8FCF73CFB0AAB6A4603CBDD
:1007C00003C2099B06980799089AFFF797FF00282C
:1007D00005DB02DC01200DB030BD0420FBE7022068
:1007E000F9E710B50B00006809685A689B68FFF7C5
:1007F000D5FF10BD30B591B004000D001100FCF71D
:100800000AFB2379202B25D8052B11D2032B4BD0A3
:10081000042B2BD0022B17D1200023F04BF801A979
:100820000194486000230B722800FFF7DAFF0FE005
:10083000053BDBB201229A401300204A13423BD110
:10084000DA0724D41B010CD428680021FFF747FFE6
:1008500011B030BD402BF7D16B680C940D93002084
:10086000F6E76B680E940F930020F1E72468002CE4
:100870000BD0200023F01EF804A904944860012343
:100880000B722800FFF7ADFFE2E70020F4E72368D2
:100890001A000832DB8807A907924B6000230B720D
:1008A0002800FFF79EFFD3E723681A000832DB8891
:1008B0000A920B930020CBE70020C9E7A202A00216
:1008C00000B585B000900191002808D0019B02A9D5
:1008D00002924B601A00FFF78DFF05B000BD0021AA
:1008E0001000FFF7FCFEF8E700B585B0009001911D
:1008F0001268039203AAFFF7E3FF05B000BDF0B54D
:1009000087B003004068996803AA0C33E0CBE0C2CB
:10091000002805D000910399049A059BFDF7D6FCA9
:1009200007B0F0BD10B5FFF7EAFF002804D000794A
:1009300043425841C0B210BD0120FCE730B585B03C
:100940000500FFF7DCFF0400AD6802A902904D60CE
:100950000822684613F066FB002C05D02900200011
:10096000FCF78EFF05B030BD0020FBE770B584B00A
:1009700004000E000800FFF7C2FF0500B66802A9D8
:1009800002904E600822684613F04CFB25606660BA
:10099000200004B070BD10B584B0019102AC01001C
:1009A0002000FFF7E3FF01AA02980399FFF79CFFDD
:1009B000013843425841C0B204B010BD70B584B094
:1009C00005000E000800FDF79AFC0400366802A935
:1009D00002904E600822684613F024FB002C02D0DF
:1009E0002379202B04D12C606E60280004B070BDE8
:1009F0000024F8E7F0B5C64600B5D14CA544D14A6D
:100A0000D14C210012A8FCF7D0FD12A902A8FFF7D3
:100A1000D5FFCE4A210016A8FCF7C7FD16A904A8E9
:100A2000FFF7CCFFCA4A21001AA8FCF7BEFD1AA99D
:100A300006A8FFF7C3FFC74A21001EA8FCF7B5FDB3
:100A40001EA908A8FFF7BAFFC34A210022A8FCF795
:100A5000ACFD22A90AA8FFF7B1FFC04A210026A8D1
:100A6000FCF7A3FD26A90CA8FFF7A8FFBC4A2100AC
:100A70002AA8FCF79AFD2AA90EA8FFF79FFFB94AFA
:100A800021002EA8FCF791FD2EA910A8FFF796FFD4
:100A9000012018F0EBFFB44B1860B448B44917F0CC
:100AA0009FFF0321042010F007FA0321052010F016
:100AB00003FA00220121042010F018FA002201217B
:100AC000052010F013FAAB48FF210EF0FEF80024C9
:100AD00024E050AEA84A29003000FFF7A3FDA74943
:100AE0003000FFF758FF002862D0A54E27010323EE
:100AF000BB5556AB9846A34A29001800FFF792FD54
:100B00004046FFF71BFFF6197070013870709C4B60
:100B100022019B1800225A711A710134072C00DD42
:100B2000E7E0E30002AA9B58002BF6D0E300D518BB
:100B3000914A290032A8FFF775FD934932A8FFF7C3
:100B40002AFF0028C5D08E4E27010123BB558F4AAE
:100B5000290038A8FFF785FD38A8FFF7EFFEF61942
:100B60007070013870708A4A29003EA8FFF779FD3D
:100B70003EA8FFF7D7FE0028C9D1814E0223BB55FE
:100B8000834A290044A8FFF76CFD44A8FFF7D6FE6E
:100B9000F619B0700138B0707E4A29004AA8FFF7F4
:100BA0007FFD4AA8FFF7CAFEF0700138F070AEE78B
:100BB0005CAE714A29003000FFF734FD7549300002
:100BC000FFF7E9FE002804D06D4B22010421D15427
:100BD0009DE762AE684A29003000FFF723FD6E49A9
:100BE0003000FFF7D8FE00281BD0654E27010523F3
:100BF000BB5568AB9846634A29001800FFF712FD01
:100C00004046FFF79BFEF6197070644B1B788342D9
:100C100001D2624B18705A4B22019B180138587050
:100C200075E76EAE544A29003000FFF7FBFC5C49C3
:100C30003000FFF7B0FE00281BD0514E27010623DD
:100C4000BB5574AB98464F4A29001800FFF7EAFCE1
:100C50004046FFF773FEF6197070504B1B788342C5
:100C600001D24E4B1870464B22019B180138587028
:100C70004DE77AAE404A29003000FFF7D3FC4949DE
:100C80003000FFF788FE00281BD03D4E27010723C8
:100C9000BB5580AB98463B4A29001800FFF7C2FCC1
:100CA0004046FFF74BFEF61970703C4B1B788342B1
:100CB00001D23A4B1870324B22019B180138587000
:100CC00025E786AE2C4A29003000FFF7ABFC3649F9
:100CD0003000FFF760FE002804D0294B22010821D4
:100CE000D15414E7264B22019B18FF225A709A70A8
:100CF0000DE780222D492E480023019306330093EF
:100D00000023520019F069FC11F014FB184A00236B
:100D100011F0EEFF1000190012F0E2FA0022254B4C
:100D200012F0F5F902000B00234814F0D3FC23481D
:100D300014F0A0FC8C239B009D4480BCB846F0BD01
:100D4000D0FDFFFFF07E0310142A0020F87E031070
:100D5000007F0310087F0310107F0310187F03101B
:100D6000207F0310287F0310D42800207015002056
:100D700040420F00C0280020CC790310487F0310A8
:100D8000C81C0020507F0310307F0310307D0310FB
:100D9000387F0310407F0310587F0310D39A02203E
:100DA000647F0310707F0310787F0310847F03102B
:100DB0000101011000408F40785E03108C7F03100A
:100DC00010B5FFF79FFA10BDF0B5DE4657464E4608
:100DD0004546E0B5E1B05CAB03221A7302325A73A8
:100DE00007213CAB06E000221A715A719A71DA7140
:100DF000013910330029F6DA07211CAB06E0002286
:100E00001A715A719A71DA71013910330029F6DAC0
:100E10004746F2E01A013CAFBC4662441279002A10
:100E200012D019017A18517801228A401443E4B291
:100E30000133DBB2072B29D819001A013CAD555DEF
:100E40006A1ED2B2012AE5D9032D10D0042DEFD1AC
:100E500009013CAA52181279002AE9D001228240E5
:100E600049461143CAB291460130C0B2E0E70A01D7
:100E70003CAFBC4662441279002AE7D009017A18D7
:100E8000517801228A401643F6B2D1E74746FEF771
:100E900031F81390A54B1B78002B02D1A44B0022F4
:100EA0001A70A34B1B78002B00D11CE1A14B1B78BF
:100EB000002B00D019E1A04B1F785CAB1F709F4B3B
:100EC0001B78002B00D1A3E000200DF0C7FD5CAC27
:100ED000607001200DF0C2FDA07002200DF0BEFD7B
:100EE000E07003200DF0BAFD2071FFF76DFB60711B
:100EF0000023A371E37123720DF0CAFD6081904954
:100F0000139812F056FE12F029FF12F093FA12F025
:100F1000CFF9C0B25CAC60723B0914936378984619
:100F2000A3789B46E37815932279169265791795F5
:100F3000A6791896E379199308256557EB17ED18EC
:100F40005D40EAB21A9206091B966689330B9946F0
:100F5000330A9A4632090F231F40BC4605271197D2
:100F60000027109703210F910E970F373E400D96E3
:100F70003A400C9251460F400B9749460A9118404F
:100F800009901B9808902B4007931A9F3B110693DA
:100F900019980590189E0496179D0395169A02922B
:100FA000159B01935B46009343466246149965483E
:100FB00014F090FB5C985D995E9A5F9BFEF72AFAAD
:100FC000614A13780133DBB21370604A127893429E
:100FD0003AD8139F80223CA91CA813F023F8544B45
:100FE0001B78002B00D09CE00122594B009300237A
:100FF0005242002100201AF0B1FB3CA8FFF7A2F9F1
:10100000002300200022914600260024B84611E764
:10101000002000F023FC5CAD6870012000F01EFC95
:10102000A870022000F01AFCE870032000F016FC03
:1010300028716C71AE714B46EB71FEF717FB28728D
:1010400000F030FC68815AE73F4B00221A70384BA1
:101050001A70002614E060000019344A8018013428
:10106000610009198918032212F0DCFFE4B2062C92
:10107000F1D92E4B00225A759A75DA750136F6B2FF
:10108000072E1DD83100294B720092199B189B78AE
:10109000002B06D1254B720092199B185A78013A01
:1010A0005A70224B4A005218D35C002BE6D01F4BDB
:1010B0004A0052189B185B78002BDFD13400D6E72A
:1010C000139F87E70133DBB2072B10D81A013CA925
:1010D000891808791CA98A1812799042F2D0144A0A
:1010E00001211170EEE70023EEE70023ECE7391C45
:1010F000139C201C12F03DFDFA21890512F0A8FD79
:1011000000280AD1211C381C12F033FDFA21890570
:1011100012F09EFD002800D15CE7054B01221A70F9
:1011200058E7FA20400019F093FD66E7DC2800201C
:10113000D49A0220D79A0220D59A0220D89A022067
:1011400000002041A07F0310D69A0220D99A0220E5
:101150008813000000B583B0074B01221A70074BBB
:1011600000221A70064B18680092022300211AF020
:101170006BFB03B000BDC046D49A0220D69A022071
:10118000D8280020014B18707047C046D79A02201B
:1011900070B58AB001AB18800D00002019F0BCFAC0
:1011A00004005D4B1B68002B69D00023072B12D86D
:1011B00019005A4A5800C018825CAA4204D0002A7A
:1011C00002D00133DBB2F1E7544B4A005218D55438
:1011D0009B1803225A7001AB58780C284FD8830013
:1011E0004F4AD3589F46420012189B1801229A700A
:1011F0000AE00130C0B2072813D80100474B420073
:101200001218D65CAE42EED0444B4A0052189B18DE
:101210009B78002BEDD1002EEBD01C00E9E70124D8
:10122000E9E7002C04D03F4B00221A703E4B1A70A5
:1012300011F080F83D4A002311F05AFD100019000A
:1012400012F04EF800223A4B11F061FF02000B0041
:10125000384814F03FFA38482200290014F03AFACE
:101260000DE0FFF777FF0AE000F0AEFB07E0033880
:10127000C4B22000FFF76EF8200000F0C3FA0AB0F5
:1012800070BD0738C4B22000FFF780F8200000F0DE
:10129000B9FAF4E711F04EF8244A002311F028FDC2
:1012A0001000190012F01CF80022214B11F02FFF42
:1012B00002000B001F4814F00DFA204814F0DAF970
:1012C0000E21002019F038FA19F040FB00250AE041
:1012D000280010F083F803AB58550021280010F0C7
:1012E00097F80135EDB2192DF2D9FAF7A1FF0025D3
:1012F00006E003AB595D280010F08AF80135EDB225
:10130000192DF6D92100002019F016FA19F0F0FB7A
:10131000B5E7FBF791FAB2E7D8280020DC280020D7
:10132000B8C30310D49A0220D69A022040420F007C
:1013300000408F40785E0310D07F0310F47F0310CD
:10134000F0B5DE4657464E464546E0B5A1B01CAC6A
:101350001C901D911E921F93314B1B78002B06D0C1
:1013600021B0F0BCBB46B246A946A046F0BD2278EB
:10137000110963789C46A3781493E0781590257939
:10138000169566791796A7791897E3791993082324
:10139000E356D8171D18454013956B464C201B1873
:1013A00018781A90657A2E091B966089070BB84643
:1013B000070AB9460309267B3709BA46677B3C0909
:1013C000A3460F242240274011975F4610972640DE
:1013D0000F9657460E970F2630400D9033400C93D2
:1013E0004F463E400B9647460A97254009951B9E5F
:1013F0000896139D2C4007941A9C23110693199C60
:101400000594189F0497179E0396169D02951598AC
:101410000190149B00936346024814F05BF99FE728
:10142000D79A0220A07F031070B58CB003AD264A76
:10143000264C21002800FCF7D9F82800FDF7DAF93E
:10144000234D287007AE234A21003000FCF7CEF868
:101450000A230B930BA93000FEF726FB1E4B1870D6
:101460001E4B00221A701E4B2978197003215970E7
:101470009A701C4B1B78022B22D080221A491B48E1
:101480001B4B0193052300930023920019F0A5F84C
:1014900010F050FF174A002311F02AFC1000190029
:1014A00011F01EFF0022144B11F031FE02000B0060
:1014B000124814F00FF9124814F0DCF80CB070BDAB
:1014C000104B01321A70D8E73C7A0310142A00201E
:1014D000D59A022004800310D99A0220D69A0220BD
:1014E000DC280020E09A02200C800310C90D0110B6
:1014F000D828002040420F0000408F40785E031043
:1015000018800310D89A022010B5002904D008686A
:1015100003685B69024998470020002110BDC0465E
:1015200000007F4310B503490348044B01220DF02E
:101530008BFC10BD70150020882A002000806542B9
:1015400010B50C1E08D0086803689B6898470228ED
:1015500005D120230022E2540020002110BD10F00C
:10156000E9FE0E4A002311F0C3FB1000190011F030
:10157000B7FE00220A4B11F0CAFD02000B00094819
:1015800014F0A8F8084814F075F8206803685B6840
:1015900000219847FFF7DEFDDBE7C04640420F0021
:1015A00000408F40785E031030800310F0B5D646BF
:1015B0004F464646C0B584B080468A4617001E0096
:1015C0000CAB1B78994610F0B5FE04000D00FA2212
:1015D000920000235046002112F0AEFA02000B00E8
:1015E00012196B41002B0CDB4946029101960097C2
:1015F000404610F0AFFC04B0E0BCBA46B146A84685
:10160000F0BD01225242014BEEE7C046FFFFFF7FD3
:10161000F0B583B004000D0016001F0010F032FC7E
:10162000009733002A002100FFF7C0FF03B0F0BD90
:10163000F8B507000D00032912D80024002608E0A1
:1016400021003800FAF75CFE43425841064301345A
:10165000E4B2EBB2A342F3D801235E40F0B2F8BD8E
:101660000020FCE7F0B585B001AC01906160A2609C
:101670001E000A9F8F4201D300240CE0084B094A48
:101680000948422113F040FE3519210001A8FAF75C
:1016900037FE28700134BC42F6D305B0F0BDC04619
:1016A0004080031050800310806C031010B5037944
:1016B000002B05D1002909D004230371016010BD5E
:1016C000064B074A0748084913F01EFE074B044A19
:1016D00083310448890013F017FEC0469057031069
:1016E000DC800310F05703100B0200003898031041
:1016F000F8B504000E001100002508E02C4BE200B4
:10170000121BD2009B185B190122DA720135284B9B
:10171000E000001BC0001B181F79AF4209DD244BFD
:10172000E200121BD2009B185B195B79B342EDD12A
:10173000E4E70020002500E00130874211DD1C4B6A
:10174000E200121BD2009B181B18DB7A002BF3D18E
:10175000174BC200121AD2009B1800229A7401255E
:10176000EAE7002D22D14B1EDBB2012B04D9200069
:10177000FEF726FE002111E001212000FEF720FEE9
:1017800002212000FEF71CFEF4E7094BE200121BC9
:10179000D2009B185B180022DA720131044BE20080
:1017A000121BD2009B181B798B42EEDCF8BDC046A1
:1017B000501D002010B5002400E00134032C0BDC88
:1017C0000C4AE3001B1BD90088580028F5D0036899
:1017D0001B6804219847F0E7074B1978FF2903D1CC
:1017E000064B00221A7010BD054800220DF070FB58
:1017F000F6E7C046501D0020E49A0220E69A022037
:10180000882A002000B583B0124AC3001B1ADB00EF
:101810009B58002B1BD0002108E00E4BC200121A6F
:10182000D2009B185B180022DA7201310529F4DD21
:10183000084BC200121AD2009B1800229A74064B61
:101840008000C05800920223002119F0FDFF03B070
:1018500000BDC046501D0020582A002010B5104A77
:10186000C300181AC000805800280FD003689B6876
:10187000984702280CD005D800280BD001280BD19E
:10188000403004E0032809D1493000E04F2010BD6A
:101890005220FCE74720FAE74F20F8E74F20F6E711
:1018A000501D002070B5FEF747FD0121494218F098
:1018B000B1FA22480DF094FBFEF73EFD0023002212
:1018C000002118F001F81E4B1B78002B06D10025D3
:1018D0001C4B1B78002B1AD1280070BD17480DF047
:1018E0000BFC002810D10025F2E70134E4B20F2CE4
:1018F000EED8124821000DF041FB0128F5D101235B
:10190000A3401D43ADB2F0E700240025EFE70B48EC
:101910000DF004FC0028DFD0002401E00134E4B223
:101920000F2CD9D8054821000DF028FB0228F5D14D
:101930000123A3401D43ADB2F0E7C046882A002032
:10194000E29A0220E39A022070B5FEF7F5FC01212D
:10195000494218F05FFA0D480DF042FBFEF7ECFC2F
:1019600000230022002117F0AFFF0024002508E02B
:10197000064821000DF002FB630098400543013446
:10198000E4B20F2CF4D9280070BDC046882A00208C
:1019900000487047682A002010B502480DF0F1FA9F
:1019A00010BDC046882A002010B5054AC300181A89
:1019B000C000805803681B690249984710BDC046A3
:1019C000501D002000007F4310B51F4B1B78002BDB
:1019D00003D01E4B1B78002B30D01D480DF0EAFBC6
:1019E000002400E00134032C19DC1A4AE3001B1B1D
:1019F000DB009B58002BF5D0E0B2FFF7D5FF124B70
:101A00001B78002BEED1134AE3001B1BDB00985818
:101A100003681B6800219847FFF79CFBE2E70E4B29
:101A20001978FF290BD1084B01221A70074B0022AD
:101A30001A7010F07FFC094B1860596010BD044803
:101A4000FF220DF045FAEEE7E69A0220E79A02201F
:101A5000882A0020501D0020E49A0220481D002002
:101A6000F0B5D6464F464646C0B582B001900D004F
:101A7000FDF708FE814600240023009300272CE098
:101A8000B74AE3001B1BDB009B58002B02D05346D8
:101A9000009301270136B24BE200121BD2009B18C3
:101AA0001B79B34218DD002F16D1AD4BE200121B9B
:101AB000D2009B189B195B79AB42EBD1E3B29A46FB
:101AC0001800FEF7A5FC0028DAD101ABDB78412B2A
