:020000041000EA
:1000000000B5324B212058609868022188439860DF
:10001000D860186158612E4B002199600221596106
:100020000121F02299502B49196001219960352056
:1000300000F044F80222904214D00621196600F024
:1000400034F8196E01211966002018661A6600F04E
:100050002CF8196E196E196E052000F02FF8012189
:100060000842F9D1002199601B49196000215960AB
:100070001A491B48016001219960EB211966A021F2
:10008000196600F012F800219960164914480160C1
:100090000121996001BC002800D000471248134993
:1000A000086003C880F30888084703B5996A0420EC
:1000B0000142FBD001200142F8D103BD02B5186610
:1000C0001866FFF7F2FF186E186E02BD00000240BE
:1000D000000000180000070000035F00212200005C
:1000E000F4000018222000A00001001008ED00E03C
:1000F00000000000000000000000000074B24E7A12
:1001000000200420F7010010C3010010C5010010F9
:10011000C1010010C1010010C1010010C101001097
:10012000C1010010C1010010C1010010C701001081
:10013000C1010010C1010010C9010010CB01001065
:10014000CD010010CD010010CD010010CD01001037
:10015000CD010010CD010010CD010010CD01001027
:10016000CD010010CD010010CD010010CD01001017
:10017000CD010010CD010010CD010010CD01001007
:10018000CD010010CD010010CD010010CD010010F7
:10019000CD010010CD010010CD010010CD010010E7
:1001A000CD010010CD010010CD010010CD010010D7
:1001B000CD010010CD010010CD010010CD010010C7
:1001C00000BE00BE00BE00BE00BE00BEEFF3058054
:1001D000103800BEF2EB8871FCA700102CA80010AC
:1001E0003802001090A31AE71E481F49086006C88D
:1001F00081F3088810471D480068002801D019487D
:10020000F3E70DA40ECC002902D000F012F8F9E7B4
:100210001749184A002000E001C19142FCD116495B
:100220008847164988471649884700BEFDE701C937
:1002300001C29A42FBD370472CA80010C0000020D6
:10024000FC0F002068B7001000000420000004200C
:1002500068B7001000100420001004200000000007
:10026000704700000000000008ED00E0000000D032
:1002700000100020B4250020295B0010CD090010DB
:10028000E95A0010F8B5C04606480749091A8B100C
:10029000C90FC91810B5491003D0044B002B00D06A
:1002A000984710BDFC0F0020FC0F0020000000004C
:1002B000054B10B5002B03D00449054800E000BFF2
:1002C000FFF7E2FF10BDC046000000003823002009
:1002D0007890001070B504000D000F2804D029009C
:1002E000200001F02DFF70BD014801F0C9FAF6E7CA
:1002F000981100200268EFF3108172B61368002B8A
:10030000FCD0BFF35F8F41607047000000B583B041
:100310000448002300930F331122034900F068FCC6
:1003200003B000BD9811002000C00340074B1A6ABB
:10033000074B9A4201D000207047044B5A6A054B84
:100340009A4201D00020F7E70120F5E70080054040
:100350000DF005B1F20FFA4E10B5084C0848210017
:1003600005F046FD642002F0ADFE201C0549086042
:1003700003C880F30888084710BDC04600C00010BD
:100380007890001008ED00E0F0B5DE4657464E4686
:100390004546E0B5B64CA5440700002398469A466A
:1003A0009B4699460024002631E1D02212064021C6
:1003B000916144E1D0231B0680229A6146E144AB5F
:1003C0009B78402B44D9373BDBB21B010D226A449A
:1003D000137044ABDB78402B41D9373BDBB21B01B8
:1003E000DBB20D226A4411785B1813700D236B4445
:1003F0001B78A04A926A934201D0FF2B51D19E48AC
:1004000005F0C7FC9D4C2000FFF774FFC0209C49FD
:10041000000208F0E9FD22686368BFF35F8F0024E3
:10042000146083F3108804AB2A221A7017325A70B2
:100430009448022304AAFF2101F0F6FB924B1C8092
:10044000924B1C80924B1C80924B934A1A6028E07E
:10045000303BDBB21B010D226A441370B9E7303B1D
:10046000DBB21B01DBB20D226A4411785B181370FA
:10047000BCE744AB99780902DB78C91889B2824B92
:100480001A88864805F0B4FC7A4B854A1A62854A78
:100490005A620121844803F037F802F0EDFFFFF7BC
:1004A0005BFF784800F0BEFD051E00D1ACE00F23D5
:1004B0006B44FF221A7073480D236B4400930E2384
:1004C0006B44F03A6A4444A900F0CAFD44AB1B787F
:1004D0002A2BE6D144AB5B78442B00D192E0452B2C
:1004E00000D16CE7432BDCD1694B1B88002BC0D0BB
:1004F0006E4805F04EFC614D2800FFF7FBFE8022A0
:100500006B49644B1868F0231B069C4660445200FC
:1005100008F04AFD2A686B68BFF35F8F0021116005
:1005200083F31088A5E744AAD25C3A2A1DD101249E
:100530001BE044AAD25C9146721CD2B24946B9551E
:1005400000294FD00139C9B28B46160002240CE0B5
:1005500044AAD15C721CD2B2B9554946002901D1D6
:10056000042C43D00134E4B216000133DBB2FF2B7C
:1005700097D04246002A94D1082CF6D8A2004D49C3
:100580008A58974644AAD15C721CD2B2B9555946D2
:100590000139C9B2584600282BD08B461600E4E733
:1005A00044AAD25C701CC0B2BA550022002104E0FB
:1005B000BE5C7118C9B20132D2B28242F8D30029AE
:1005C0001BD106000724D0E744AAD25C120292464F
:1005D0000824CAE744AAD25C524492B29246A84682
:1005E0000024C2E7CB4616000224BEE7160006240C
:1005F000BBE78B4616000624B7E7A8460600002294
:100600009246B2E70223B2E7052002F05BFD4346C3
:10061000002B22D1284A1378591C1170272B00D89F
:100620003FE7130000221A70244B1878244B1B5C00
:10063000002B00D0B9E6D022120640215161002BD8
:1006400000D0B7E6D0231B0680225A6101300E216C
:1006500003F0B4F9194B197023E7504685239B002A
:100660009D44F0BCBB46B246A946A046F0BDC0467C
:10067000ECFDFFFF008005409C90001090110020D1
:1006800000501E0098110020A2250020A625002061
:10069000A4250020780D002000C00010B0900010AC
:1006A0000DF005B1F20FFA4E88130000AC90001067
:1006B000B4150020089F0010A9250020A8250020BF
:1006C0002C9F0010014B18787047C046B4160020CC
:1006D000024B587800029B78C0187047B41600206F
:1006E000014BD8787047C046B4160020024B1879E9
:1006F00000025B79C0187047B4160020F0B5C646FA
:1007000000B582B00400FFF7EBFF0500012800D11F
:10071000A7E0042800D1E6E0002800D0A8E02000EF
:10072000FFF7D0FF019007007A4B1E6836042000C7
:10073000FFF7CEFF3618784B9E421CD9774B1B88AB
:10074000774A11685A18B2421AD1019A9446634402
:1007500080225200934253DC704B1B88002B00D048
:100760007CE0FF3333426AD16D4B1E606D4831002F
:1007700005F03EFB72E06C48310005F039FB77E094
:100780006A48310005F034FB644B1B88002B0CD108
:10079000624B00221A80FF2333422DD1604B1E6032
:1007A0006048310005F024FB23E0614B98461800B7
:1007B000FFF7A0FD80225F49594B1868F0231B0604
:1007C0009C466044520008F0EFFB43461A685B68A1
:1007D000BFF35F8F0021116083F31088D8E72B1DD2
:1007E000E15C4E4A1388581C1080524AD15401359E
:1007F000EDB2BD42F3D33BE0512005F0BCFA37E047
:100800004D4805F0F5FA4A4B98461800FFF772FD7F
:1008100080224849424B1868F0231B069C466044DE
:10082000520008F0C1FB434619685A68BFF35F8F56
:1008300000230B6082F31088384A13808CE73F480E
:10084000310005F0D5FA13E02B1DE15C334A138823
:10085000581C1080374AD1540135EDB2BD42F3D354
:1008600006E02E4B1B88002B21D15A2005F083FA7D
:100870002000FFF727FF32490B883A339BB20B80E9
:100880002278657852199B189BB20B80A278E57884
:10089000521925795219657952199B189BB20B8010
:1008A000A279E57952199B180B8000232AE01C4E8F
:1008B0003168214805F09CFA1D4D2800FFF71AFD0C
:1008C00080221C493068F0231B069C46604452007D
:1008D00008F06AFB2A686B68BFF35F8F0021116024
:1008E00083F31088C1E72000FFF700FF094B186071
:1008F000BEE71A000832A25C11490D8852190A801D
:100900000133DBB242009342F3DB02B080BCB84655
:10091000F0BDC0468C110020FFBF0010A4250020B0
:10092000780D0020F0900010C8900010D4900010B6
:1009300090110020B4150020009100100C910010BF
:10094000A225002010B5C0B01C48FFF71DFD25E012
:100950001B4A013313801948FFF7D0FE2E2005F003
:100960000AFA12E001339BB26A462A21117024313F
:100970005170190A9170D37012480423FF2101F0BD
:1009800053F91148210005F033FA0C4C30220021B4
:10099000200003F0A3FF2000FFF7F6FC002804D09E
:1009A000074B1B885A1C9042D2D00400044B1B8872
:1009B0005A1C9042D6DC0028E7D1D3E7B4160020B9
:1009C000A6250020981100201891001030B583B0A2
:1009D00001F098FA05F0C8F9514805F0DAF9FFF787
:1009E000A5FC01004F4B1C6822786378A078E5785D
:1009F0004D4C01950090200005F0FAF9FFF796FCA8
:100A000000281DD1474B1B681A78F22A18D15A7852
:100A1000EB2A15D19A78882A12D1DB78712B0FD165
:100A2000424B434A1A62434A5A620121424802F049
:100A30006BFD02F021FDFFF78FFC002003B030BDFD
:100A40003E4805F0A6F9072001F02EFCD02424062C
:100A5000802363626361062001F026FC4023636209
:100A60006361374D3749280008F0FCF90121102057
:100A700001F028FB0121122001F024FB01211320A9
:100A800001F020FB6A6802231A402F490B60296895
:100A900005334B40CF210B402C490B602C4B1A6087
:100AA0000F2001F001FC80231B02A362294B0122CD
:100AB00008210F2001F094FB274C200000F094FD4A
:100AC00009220821200000F045FE184B996AC9B29E
:100AD000200000F0A3F80821200000F05FF91F4972
:100AE000200000F071F91421200000F0E1F91C4908
:100AF000200000F0BFFC0521200000F01FFA0921B2
:100B0000200000F027FD0121200000F089F84B2192
:100B1000200000F09FFE200000F05EFAFFF712FFB9
:100B2000209100107C0D00203C91001000800540B9
:100B30000DF005B1F20FFA4EC420000064910010D0
:100B400000C00340404B4C0004F0034000D0034081
:100B500004E00340D50200109811002000C0644456
:100B600020A1070010B5FFF7D1FB10BDF0B5D646A8
:100B70004F464646C0B584B080468A4617001E00E0
:100B80000CAB1B78994602F091FB04000D00FA2291
:100B9000920000235046002103F086FD02000B0066
:100BA00012196B41002B0CDB49460291019600970C
:100BB000404602F0A1F904B0E0BCBA46B146A846EE
:100BC000F0BD01225242014BEEE7C046FFFFFF7F1E
:100BD000F0B583B004000D0016001F0002F024F9E8
:100BE000009733002A002100FFF7C0FF03B0F0BDDB
:100BF00010B502AC2478416002724372C4720023C3
:100C00008372FF22034942540349425403704370E4
:100C100010BDC0461504000016040000C1727047E4
:100C20000173704710B504000120002102F046FB5B
:100C3000227A01239340D0221206936101200021E1
:100C400002F03CFB10BD10B504000120002102F0B1
:100C500035FB227A01239340D022120693610120B2
:100C6000002102F02BFB10BD10B504000120002173
:100C700002F024FB227A01239340D0221206536112
:100C80000120002102F01AFB10BD000070B586B0F3
:100C9000060005AC812323707A3B6370FFF7C2FF27
:100CA00070680222210008F0AFF93000FFF7DCFF86
:100CB000C0232370403B63703000FFF7B3FF7068C0
:100CC0000222210008F0A0F93000FFF7CDFF062333
:100CD000B372304B0022F25402F0E8FA0090019116
:100CE000002400250AE0012002F01EFB02F0DEFADB
:100CF000009B019CC01AA14104000D00B37A062B91
:100D00000FD1FA22920000232000290002F07CFE7D
:100D10008323DB00F25A00238B42E4DC01D18242C0
:100D2000E1D8B37A062B1FD002F0C0FA02900391EB
:100D300000200021B37A022B21D0FA229200002356
:100D400002F062FE8323DB00F25A93009B1800221C
:100D50008A4210DD012002F0E7FA02F0A7FA029BB6
:100D6000039CC01AA141E5E70B4822002B0005F0C7
:100D70003FF801200CE08A4201D18342EAD8B37ADD
:100D8000022B02D0034B0022F254024BF05CC0B2A3
:100D900006B070BD140400008891001030B583B017
:100DA000040001ADA0232B700B0A6B70A970FFF734
:100DB00039FF60680322290008F026F92000FFF7B8
:100DC00053FF03B030BD0000F0B5C64600B582B099
:100DD00004000D1C3149281C03F0B0FC002855D03C
:100DE0002F49281C03F0A2FC002801D100204EE06E
:100DF000281C03F0B1FC00222A4B03F04AF8002221
:100E0000294B03F028F803F0EFF8070CFFB2030AB0
:100E1000DBB29846C6B201AD86232B706F70434695
:100E2000AB70EE702000FFF7FDFE60680422290021
:100E300008F0EAF82000FFF717FF0A2002F074FA22
:100E40006D4606232B702000FFF7ECFE6068012240
:100E5000694608F0D9F8606803236A460132002128
:100E600008F08AF82000FFF7FFFE6978B94205D143
:100E7000AB78434502D1EB78B3420CD06B469A78FD
:100E8000DB780A4804F0B4FF002000E0002002B044
:100E900080BCB846F0BD0120F9E7C046008061443F
:100EA0000000684480842E4180844E40A891001048
:100EB00070B582B005000C00142903D8012902D8AE
:100EC000022402E01424112C25D801AECD23337066
:100ED000C93B73702800FFF7A5FE68680222310045
:100EE00008F092F82800FFF7BFFE01AE89233370A7
:100EF000023CE4B20A3BFF3B234373702800FFF738
:100F000091FE68680222310008F07EF82800FFF7A1
:100F1000ABFE02B070BD01AECD233370C63B737023
:100F20002800FFF77FFE68680222310008F06CF8A5
:100F30002800FFF799FE033CE4B2D6E770B582B013
:100F40000400062904D007292CD02DD8022600E061
:100F5000042601AD1D232B702000FFF763FE60689F
:100F60000122290008F050F8606801236A46053222
:100F7000332108F001F82000FFF776FE9D232B7047
:100F80006B780E22934333436B702000FFF74AFEC9
:100F900060680222290008F037F82000FFF764FE9D
:100FA00002B070BD0626D4E70826D2E730B583B07C
:100FB000040001AD81232B70803B6B70FFF732FE84
:100FC00060680222290008F01FF82000FFF74CFE9D
:100FD0000223A37203B030BD30B583B0040001AD6D
:100FE00081232B707C3B6B70FFF71CFE6068022234
:100FF000290008F009F82000FFF736FEC0232B7007
:1010000000236B702000FFF70DFE606802222900AC
:1010100007F0FAFF2000FFF727FE0423A37203B0B6
:1010200030BD000010B50400837A042B02D0837A0F
:10103000032B09D18223DB00E05C084BE35CC01A80
:10104000431E9841C0B210BDFFF7B0FF0A2002F066
:101050006BF92000FFF7C0FFECE7C0461104000069
:10106000F0B583B004000F0015000193FFF7DAFF1D
:10107000002850D0002F46D0002D44D02A782C4B89
:10108000E35CE3182B498C4663441B78043B9A428B
:1010900039DB274BE35CE31863441B78033B9A423C
:1010A00006DB234BE35CE31863441B78043B2B70A3
:1010B0001F4EA35D1902C91A103161182A78043134
:1010C000380003F011FCA25D13029B1AE3185B7C4D
:1010D000019A1370A25D13029B1AE3181B7C089AF5
:1010E0001370A35D1802C01A10302018FF220021CF
:1010F00003F0F4FBA35DDBB2022B0ED8A35D01333A
:10110000DBB20B4AA3542000FFF78CFF002802D16A
:101110002378002B03D003B0F0BD0023F1E706498C
:10112000013322003C30FFF753FD01232370F2E727
:10113000110400000C0400004118001030B583B009
:10114000040001AD81232B707B3B6B70FFF76AFDC0
:1011500060680222290007F057FF2000FFF784FD96
:10116000C0232B7000236B702000FFF75BFD6068CD
:101170000222290007F048FF2000FFF775FD052334
:10118000A37203B030BD70B582B0040001AD8123FD
:101190002B7003266E70FFF745FD60680222290060
:1011A00007F032FF2000FFF75FFDC0232B70803B6C
:1011B0006B702000FFF736FD60680222290007F0FF
:1011C00023FF2000FFF750FDA67202B070BD0000A3
:1011D00030B583B0040001AD81232B70013B6B70EF
:1011E000FFF720FD60680222290007F00DFF2000B4
:1011F000FFF73AFD0A2002F097F801232B70200038
:10120000FFF710FD60680122290007F0FDFE60680D
:1012100001236A460532DD2107F0AEFE2000FFF70C
:1012200023FD6978802903D10123A37203B030BD67
:10123000014804F0DDFDF7E7E491001070B582B0DD
:1012400004000D0001AE1E233370FFF7EBFC606855
:101250000122310007F0D8FE606801236A4605329A
:10126000002107F089FE2000FFF7FEFC002D13D0BF
:10127000737804210B43737001AD9E232B70200003
:10128000FFF7D0FC60680222290007F0BDFE2000B5
:10129000FFF7EAFC02B070BD01AA537804218B432A
:1012A0005370E9E770B582B0040015007F230B404E
:1012B00001AE337066237370FFF7B4FC60680122DF
:1012C000310007F0A1FE606801236A460132662101
:1012D00007F052FE2000FFF7C7FC6B465B782B70CF
:1012E00002B070BD10B582B001AC22000121FFF741
:1012F000D9FF2178024804F07BFD02B010BDC04642
:101300000092001010B504000120002101F0D6FF6A
:10131000227A01239340D02212065361012000213A
:1013200001F0CCFF10BD0000F0B5CE46474680B5B9
:101330008DB004000BAD1D232B70FFF773FC6068AC
:101340000122290007F060FE2D236B449846606857
:1013500001234246EE2107F00FFE2000FFF784FC38
:101360006E78330999461E232B702000FFF75AFC34
:1013700060680122290007F047FE606801234246A9
:10138000012107F0F9FD2000FFF76EFC68780309E2
:101390009C4601A9354B0A00C1CBC1C2C1CBC1C219
:1013A000C1CBC1C21B6813604B469E00735899465F
:1013B000022360465840C0B202F0DAFD00222C4BF6
:1013C00002F067FD06000F00484603F0C5F9020071
:1013D0000B003000390002F03EFD02F011FE061C49
:1013E00026232B702000FFF71DFC606801222900D6
:1013F00007F00AFE606801234246022107F0BCFDA7
:101400002000FFF731FC6F7808233A009A4390469A
:101410008321C905301C03F099F9002814D0A623B4
:101420002B7008233B436B702000FFF7FBFB6068C9
:101430000222290007F0E8FD2000FFF715FC0DB09F
:10144000C0BCB946B046F0BD0BADA6232B704346D9
:101450006B702000FFF7E6FB60680222290007F0AE
:10146000D3FD2000FFF700FCE9E7C046449F0010D1
:1014700000408F4070B582B004002D4B994219DDB9
:101480002C4B994243DD2C4B994242DD2B4B994228
:1014900041DD2B4B994240DD2A4B99423FDD2A4BDF
:1014A00099423EDD294B99423DDD294B99423CDC76
:1014B000802600E0002601AD1D232B702000FFF7E1
:1014C000B1FB60680122290007F09EFD60680123DE
:1014D0006A460532442107F04FFD2000FFF7C4FBA8
:1014E0009D232B706A788E3B134033436B70200032
:1014F000FFF798FB60680222290007F085FD2000B5
:10150000FFF7B2FB2000FFF70FFF02B070BD1026FF
:10151000D1E72026CFE73026CDE74026CBE750267F
:10152000C9E76026C7E77026C5E79026C3E7C0462F
:10153000781E0000A0280000F03C00004051000090
:10154000127A0000E4A2000024F4000048E8010040
:1015500090D0030070B582B004000D0006290CD9AC
:10156000072937D0082937D0092937D00A2937D099
:101570000B2937D002D9C02500E0602501AE1E231B
:1015800033702000FFF74EFB60680122310007F046
:101590003BFD606801236A460532222107F0ECFC1E
:1015A0002000FFF761FB9E23337072788F3B13405E
:1015B0001D4375702000FFF735FB60680222310083
:1015C00007F022FD2000FFF74FFB2000FFF7ACFEE5
:1015D00002B070BD7025D1E78025CFE79025CDE71B
:1015E000A025CBE7B025C9E770B582B00400002381
:1015F0008222D2008354514A8354514A8354514A1F
:1016000083548323DB00FA225200C2520126067360
:1016100040684D4907F026FC607A00F045FE207ACC
:1016200000F042FE637A32009A40D0231B069A6291
:10163000227A3100914059622000FFF715FB01AD7D
:1016400081232B70013B6B702000FFF7EBFA606881
:101650000222290007F0D8FC2000FFF705FB0A2032
:1016600001F062FE2E702000FFF7DCFA60680122B4
:10167000290007F0C9FC606801236A460532DD21B4
:1016800007F07AFC2000FFF7EFFA6978802905D08F
:101690002E4804F0ADFB002002B070BD01AD8E23DA
:1016A0002B7000236B70AB702000FFF7BBFA6068F3
:1016B0000322290007F0A8FC2000FFF7D5FA8C23AD
:1016C0002B706C3B6B702000FFF7ACFA6068022255
:1016D000290007F099FC2000FFF7C6FA92232B702F
:1016E0006D336B702000FFF79DFA606802222900BD
:1016F00007F08AFC2000FFF7B7FA7D212000FFF7F2
:10170000B9FE05212000FFF719FC07212000FFF793
:1017100021FF08212000FFF741FB0D492000FFF7C2
:1017200053FB0D212000FFF7C3FB01212000FFF731
:1017300085FD2000FFF73AFC0120ADE71104000011
:10174000120400001304000020A10700E49100101F
:1017500000C06444F0B5C64600B50400114B98467D
:10176000C154114FC255C05CC0B200F09DFD43464C
:10177000E35C01252A009A40D02636067262434671
:10178000E35C2A009A407261E05DC0B200F08CFD1B
:10179000E35D2A009A407262E35D9D40756180BC02
:1017A000B846F0BD1504000016040000064BC35CEB
:1017B000DBB2FF2B06D0044BC25C01239340D02246
:1017C000120693617047C04616040000064BC35CC6
:1017D000DBB2FF2B06D0044BC25C01239340D02226
:1017E000120693617047C04615040000064BC35CA7
:1017F000DBB2FF2B06D0044BC25C01239340D02206
:10180000120653617047C0461604000010B50C0064
:101810000800FFF7EBFF002363700020002110BDDC
:10182000064BC35CDBB2FF2B06D0044BC25C01232A
:101830009340D022120653617047C0461504000041
:1018400010B50C000800FFF7EBFF00232370002009
:10185000002110BD8323DB00C152704710B5002A60
:101860000BD10020C04380B210BDCC5C201880B2E8
:101870000133DBB29342F8D3F4E700230020F9E709
:10188000F0B5C64600B582B0040001AD12232B703E
:10189000FFF7D9F960680122290007F0B5FB6B4614
:1018A0005E1D606801233200772107F065FB200090
:1018B000FFF728FD6F781C232B702000FFF7C3F97A
:1018C00060680122290007F09FFB60680123320055
:1018D000882107F051FB2000FFF714FD6E782A00E5
:1018E00001212000FFF7DEFCA37A042B21D0A37A8C
:1018F000042B2ED0A37A052B2BD0A37A032B00D157
:1019000063E1A37A062B00D172E101AD92232B7023
:101910006D336B702000FFF796F960680222290092
:1019200007F072FB2000FFF7EDFC02B080BCB84668
:10193000F0BD5B333A009A4301D17606D7D48223B7
:10194000DB00E35CE318B34A9446634400221A7058
:10195000DBE77B06D1D52000FFF738FF01AD13236D
:101960002B702000FFF76FF960680122290007F053
:101970004BFB6B465F1D606801233A00992107F01D
:10198000FBFA2000FFF7BEFC6A788226F600A35D12
:10199000E318A0498C4663441A7010232B70200072
:1019A000FFF751F960680122290007F02DFB6068FC
:1019B00001233A00AA2107F0DFFA2000FFF7A2FC7A
:1019C0008D232B702000FFF73EF96068022229006A
:1019D00007F01AFB2000FFF795FC00232B70A35D96
:1019E000E3188C4A944663441F78FFB22000FFF747
:1019F0002AF960680122290007F006FB002513E0A0
:101A0000606801236A460532002107F0B5FA01AB90
:101A100059788223DB00E25C13029B1AE3185B19FE
:101A200019740135EDB237007E1EF6B2002FE7D1F2
:101A30002000FFF767FC01AD19232B702000FFF792
:101A400002F960680122290007F0DEFA05236B44E1
:101A50009846606801234246BB2107F08DFA2000BA
:101A6000FFF750FC6B789B086B4EA3551A232B7025
:101A70002000FFF7E8F860680122290007F0C4FAA7
:101A8000606801234246CC2107F076FA2000FFF778
:101A900039FC0122AA56614BE254A35D5BB2002BD4
:101AA00075DB5E4D605D40B200010F2101F05EFF0D
:101AB00040B26055594AA35C63335BB2A35482239E
:101AC000DB00E35CE318534A944663441B78DBB2C3
:101AD000032B42D90432A15C0B025B1AE3181B7C76
:101AE000DBB26373A15C0B025B1AE3185B7CDBB2B5
:101AF000A373A35C1902C91A14316118A35CE3181B
:101B000063441A78043AD2B22000FFF7A7FE627B42
:101B1000E37A9A4243D0637BDBB2FF2B3FD0822132
:101B2000C900625C13029B1AE3189A7C615C0B0289
:101B30005B1AE318DB7C1B02D318002B41D18223F4
:101B4000DB00E35CDBB2022B04D88223DB00E75C22
:101B50000137FFB28223DB00E75401AD90232B70E5
:101B600000236B702000FFF76EF8606802222900E6
:101B700007F04AFA2000FFF7C5FBA37A052B00D037
:101B8000C3E6033BA372264B0022E254BDE6A25DEE
:101B900052B22249635C9B185BB263548AE782228B
:101BA000D200A15C0B025B1AE3189B7CA15C0A02C9
:101BB000521AA218D27C12029B189BB28342AED159
:101BC000BDE72000FFF72CFEC7E73B0700D498E6EF
:101BD0006378002B03D02000FFF7FEF995E611494A
:101BE000013322001420FEF7F3FF01236370F2E7B4
:101BF0007B0700D489E6FF07FF0F094BE754E35C3E
:101C0000002B03D02000FFF799FA7EE62000FFF7B3
:101C1000CDF97AE60C040000130400001204000061
:101C2000140400000D180010F0B5D646474680B5E4
:101C300087B00600039192461F001A005146FFF735
:101C40000DFE804601F032FB04000D003000FFF76E
:101C5000ADFDB37A022B2ED0B37A042B2BD0B37AFE
:101C6000052B28D001F022FB001BA941FA2292008B
:101C7000002301F0C9FE8323DB00F35A9B000022FE
:101C80008A42E6DC01D18342E3D8B17AC9B2504836
:101C900004F0AEF87378002B04D03000FFF786F91B
:101CA00000208FE04B49013332001420FEF790FFF3
:101CB00001237370F1E73000FFF778F901F0F6FACD
:101CC00000900191009C019D3000FEF7DFFF00288D
:101CD0003BD001F0EBFA001BA941FA22920000234D
:101CE00001F092FE8323DB00F25A93009B1800223E
:101CF0008A4209DD07F0EEF8642101F037FE481C46
:101D0000C11701F0DBFADFE78A4201D18342F1D843
:101D10003000FFF7E7FA012001F006FB2E4804F03F
:101D200038F83000FFF754FA7378002B04D03000F5
:101D3000FFF73CF9002045E026490133320014202A
:101D4000FEF746FF01237370F1E704AC8D23237087
:101D5000002363703000FEF765FF706802222100E7
:101D600007F052F93000FEF77FFF80232370039BBA
:101D70006370F37AA3704346E3701B0A237130004B
:101D8000FEF750FF70680522210007F03DF97068EA
:101D90003A00514607F038F93000FEF765FFA223FC
:101DA00023703B1D63703000FEF73CFF7068022219
:101DB000210007F029F93000FEF756FF3000FFF749
:101DC000E2F9012007B0C0BCBA46B046F0BDC0463B
:101DD000149200100D1800102C92001010B5052060
:101DE00000F08AF8014B186010BDC0468811002031
:101DF00010B5FFF7F3FF10BDF8B5D646474680B5DE
:101E000006000D001700984644002418A400294B32
:101E10009C4664446368089A934200D26260331F10
:101E2000DBB29A46012B2ED980221201C0239B01DE
:101E3000E3181A60204BB200D158002907D0586926
:101E400001F0BCFD013043001B18033BFDD27F01B4
:101E500023685F40E0233B4080225201A2181360B8
:101E60005346012B1AD980239B01E31880221201CB
:101E70001A60089B6360104BB6004246F250C0BC2B
:101E8000BA46B046F8BD012DCED10322C0239B0136
:101E9000E3181A60A368DB07FCD5D8E7216869401E
:101EA00003230B401360A3680122AA401A42FAD010
:101EB000D9E7C04600800040D41E0020F0B583B0B2
:101EC00005000E0017001800089901F077FD0300C7
:101ED000089A140200943A0031002800FFF78CFFA2
:101EE00003B0F0BD10B582B0802464000094FFF709
:101EF00083FF02B010BD0000014B8000C058704746
:101F0000D41E002010B5084C230001220121052019
:101F1000FFF7E8FF054801F0ABFA2300002200219B
:101F20000620FFF7DFFF10BD006CDC0200800240DE
:101F300010B58023DB05186803051B0D0B4A93427F
:101F400007D10B4B034080229201934207D1000F2F
:101F500010BD084B084A0948222103F0C9FD084B6F
:101F6000054A0648232103F0C3FDC04627090000A7
:101F700000F0FF0F389200106C9F00105C92001070
:101F8000A49200100FB400B583B0084803F001FF1D
:101F9000049B002B07D005A90191180003F008FF4E
:101FA000034803F0F6FE012003F09CFDB8920010F8
:101FB00014910010EFF3108072B6034B1B68002BD6
:101FC000FBD0BFF35F8F70472C0100D0BFF35F8F52
:101FD000024B00221A6080F3108870472C0100D059
:101FE000F8B506000C001500FFF7E4FFE308F7184A
:101FF000F15C07222240012393400B4205D1DBB262
:102000000B433B70FFF7E2FFF8BD21002800FFF70C
:10201000B9FFF0B583B00600019114001F00FFF76F
:10202000C9FF00E00134BC420CD8E308F518F35CAA
:102030000721214001228A401A42F3D1D2B21A4329
:102040002A7001E001246442FFF7C0FF002C02DB8C
:10205000200003B0F0BD019B002BF9D00898FFF7DA
:1020600091FF0000054A1078431CDBB21370172B58
:1020700002D9130010221A707047C046800D00204C
:1020800010B582B00100054C054B00931F231822A8
:102090002000FFF7BEFF02B010BDC046CC1E0020DE
:1020A000C8920010002307E0054A9A189200BFF377
:1020B0005F8F0021116001331F2BF5D97047C04697
:1020C0004000003410B58300084A9A181468402272
:1020D000544080322240064CA44663441A60C0003B
:1020E000044B9C466044416010BDC04604C00140A2
:1020F00004D001400040014070B50400D0231B060D
:102100001D680D4BAA00D358002B0AD0002803D01D
:10211000094BAD00EC5070BD08490D2000F0DAFA13
:10212000F6E70028F7D0044BAD00E8500349002241
:102130000D2000F0C3F9EEE7B41E002009220010C4
:10214000072303409B00C00899403C308000014BAE
:10215000C150704700400140F8B507000D0016005F
:102160001C00FFF7EDFFFB089B00E4180720384038
:1021700080008540002E05D080239B019C4664444E
:102180002560F8BDC0239B019C4664442560F8E7A8
:1021900070B506000D00141E0BD1D0231B061B6862
:1021A000002B11D0094B220029003000FFF7D4FF8B
:1021B00070BD0D2000F03AF90028EED1044B054A1D
:1021C0000548BD2103F094FC044BECE7304101408D
:1021D00058930010809F00101093001000410140A0
:1021E00070B505000E0014001800FFF785FF2200EF
:1021F00031002800FFF7CCFF002C00D170BD012179
:102200000D2000F0F9F8F9E7F0B5D6464F464646FE
:10221000C0B5D0231B061F681F4BBA00D358984681
:10222000002F03D01D4B9946002626E01C4B9946F3
:10223000FAE7EB40DB0714D524090135002C1BD04D
:1022400033000833AB4217D90F231A0022409246BD
:102250002342F1D0134BBA00D358202DE9D40023E8
:10226000E8E751462800FFF76BFF4346002BE3D019
:1022700051462800C047DFE708361D2E06D8F30870
:1022800008339B004A469C583500D7E7E0BCBA4665
:10229000B146A846F0BDC046B41E00203041014002
:1022A000004101406823002010B501238340D02263
:1022B0001206936293610521FFF704FF10BD000031
:1022C000074B9B68103080001950BFF35F8FBFF33E
:1022D0005F8F044B0021196082F310887047C0465D
:1022E00000ED00E0240100D00048704700E400E069
:1022F00010B5FFF7F9FF002302E0034A04C00133E1
:10230000072BFAD910BDC0468080808010B50388A5
:10231000DA0A1C2A05D15B055B1502335B00C01885
:1023200010BD034B034A16210348FF3103F0E0FBC5
:1023300084930010E49F00109C93001010B5091ABC
:102340000B1F0A4A88180A4A904208D8C90706D4BF
:102350005B105B055B0D0748184380B210BD064B50
:10236000064A08210648FF3103F0C2FBFC070000C3
:10237000FE0F000000E0FFFFE4930010D89F001064
:102380009C93001010B5091A04394A08090B08D1AA
:102390004905490D064B0B430380064B134343800D
:1023A00010BD054B054A10210548FF3103F0A0FB85
:1023B00000F0FFFF00F8FFFF14940010B49F00101E
:1023C0009C93001001238340034A10681840431E69
:1023D0009841C0B27047C04600E100E0002A05D035
:1023E000044BC0225200995019607047014A802363
:1023F000D150FAE700E100E010B50A001F230340C6
:10240000012199404009FFF7E9FF10BD01238340F6
:10241000014A13607047C04600E200E0024B9B682F
:1024200010308000C058704700ED00E010B5FFF795
:10243000F5FF002806D0044B984201D0012010BDC2
:102440000020FCE70020FAE7CD01001010B5FFF7EF
:10245000E5FF044BC31A00202F229A424041C0B22C
:1024600010BDC046840D002070B504000D00EFF3D0
:10247000108672B60C4B1B68002BFBD0BFF35F8F2E
:102480002000FFF7CBFF094B984201D0A84205D1AD
:10249000320029002000FFF713FF70BD044B054AEE
:1024A0000548E72103F024FB240100D0CD010010F2
:1024B000249400100CA000109C930010F0B5DE4690
:1024C00057464E464546E0B589B081460191150014
:1024D000EFF3108B72B66F4B1B68002BFBD0BFF372
:1024E0005F8F6D4B00269E57002E40DB7400A419B1
:1024F000A4006A4824180622A256674B1A70684B3B
:102500009A684B4610339B00D35898461B1A2F2BC2
:102510003BD9644B984531D105AF634B3B80634950
:1025200073009A46981980005C4B984640440230EC
:10253000FFF704FF78805E4BBB80FF23BB71FD710A
:10254000019B0793330053449B00434407CF07C3C9
:1025500001231C43A0465A4641464846FFF7B0FEB9
:1025600009B0F0BCBB46B246A946A046F0BD514BEF
:10257000514A74215148FF3103F0BAFA504B4E4A88
:10258000BD214E48490003F0B3FA012342469A4365
:102590009246101A0C2101F011FA00290FD153466E
:1025A0000027DA79AA4212D90621595600290DDBF3
:1025B0004A005218920039491F008B18F1E7414B2D
:1025C0003D4A8C213D48FF3103F092FA1F00002F55
:1025D0002ED005AB3C4A1A80813A5A800623FB561E
:1025E0000293002B17DA394805AB9A469880029A75
:1025F0009A71DD71019A0792381D2100FFF79EFE46
:10260000B880BE71254B7200921992009B185246F9
:1026100013CA13C39FE7381DFFF778FE010070004F
:10262000801980001D4BC0180430FFF787FEDBE7E0
:1026300005AF1D4B3B801D49730002939B199B0006
:10264000164A90461A0042440392901CFFF776FE09
:102650007880039A101D5146FFF770FEB8801C4B1E
:1026600052464146521A524153431B0DBB71FD71F4
:10267000019A0792029B9B199B00434407CF07C313
:10268000114B52461380813B538001231C43A046CB
:1026900061E7C046240100D0AE250020840D002053
:1026A00000ED00E0CD01001000A1FFFFB40D0020FF
:1026B00001BDFFFF5C940010F49F00109C9300107C
:1026C00084940010AC9400100148000001BD00008B
:1026D000AAAA0000F0B5CE46474680B583B00600F2
:1026E0000D00EFF3108872B64F4B1B68002BFBD028
:1026F000BFF35F8F4D4B9A6834001034A300D75856
:102700004B4B9F4207D0AF4200D18AE00197494B23
:10271000FB1A2F2B09D9424639003000FFF7D0FDB4
:1027200003B0C0BCB946B046F0BD3000FFF74AFE6A
:10273000814600213000FFF75FFEBFF35F8FEFF3AC
:102740000581002901D08C4211D10123019C9C43B9
:102750000020A3689D4212D00622A256002A0DDB5B
:1027600053009B189B00334A2000D418F1E7324BEA
:10277000324AFA213248FF3103F0BAF920009D4273
:1027800049D106256557002D2BDB2A4B6A005219CB
:1027900092009B189A68A260DA79E2719B795BB229
:1027A000A371002B0FDA2748A080224B6A00521930
:1027B00092009B18244A117899711570494630008F
:1027C000FFF71AFEA7E7680040198000194BC018F0
:1027D0000430FFF79BFD0100231D1800FFF7AEFD3D
:1027E000E2E7002912D100280ED0FF238371174B96
:1027F000838015490B78A3710E4A154BA41A6441C6
:1028000063431B0D0B70D9E7094FF2E71149201DF7
:10281000FFF7B8FDD2E7104B084A09480F4903F00B
:1028200067F9034F77E7C046240100D000ED00E0D0
:10283000CD010010840D002030950010C49F0010C1
:102840009C93001001BD0000AE25002001BDFFFFDC
:10285000AAAA0000BE0D0020649500103B020000F3
:10286000F8B5012202432D4BD31A2F2B28D8EFF3B2
:102870000583002B2BD0EFF3108472B6284909682A
:102880000029FBD0BFF35F8F244D26490600761B3D
:1028900076417143090D4DB2234989689B00C9589F
:1028A00091421AD00021032931D81C4B4A005218FA
:1028B00092009B189B795BB2AB421ED00131F2E7CC
:1028C0001A4B1B4A9D211B48890003F011F91A4B32
:1028D000174A1848194903F00BF9134A9268184926
:1028E000D150184B1A7882711D70BFF35F8F0C4B5B
:1028F00000221A6084F31088F8BD084B4A0056186D
:10290000B6009E19FF27B7710F4AB280E9E70F4B57
:10291000074AA2210748890003F0EAF8840D002045
:10292000240100D0AAAA000000ED00E06C95001080
:10293000989F00109C93001094950010770200005F
:10294000CD010010AE25002001BDFFFFA0950010B5
:1029500010B582B00100074C074B009305230022FD
:102960002000FFF756FB002801DB1F23181A02B0D6
:1029700010BDC046B2250020A8950010024B9C4611
:1029800061448900016070474000003410B50400C4
:10299000FFF768FB01002000FFF7F0FFFF23237122
:1029A000BFF35F8F10BD10B50400FFF75BFB0100A4
:1029B0002000FFF7E3FFFF23237100236371BFF3C0
:1029C0005F8F10BD10B50D4C09E00D4B0D4A0E4840
:1029D0001A2103F08DF82000FFF7D8FF08340B4BC5
:1029E0009C4209D22368002BF5D0012BEDD12000A9
:1029F000FFF7D9FF0834F2E710BDC046A80F00204A
:102A0000C49500104CA00010E4950010B00F0020F9
:102A1000034B9C46614489000160BFF35F8F7047A0
:102A20004000003410B504000120FFF729FB01002D
:102A30002000FFF7EDFF10BD30B5846A151B0B1D9C
:102A40009B001B581B1B9D4204D3046A01238B402F
:102A5000234202D1043189000A5030BD00040843EA
:102A6000704700000A4B1968EFF3108372B60A68CA
:102A7000002AFCD0BFF35F8F054A1268BFF35F8F57
:102A80000021116083F3108840BF002000217047AF
:102A90007C250020F0B5DE4657464E464546E0B55B
:102AA00087B0EFF3058303221A409246AE4B9200A3
:102AB000D7583B78534507D1012352469340994656
:102AC000AA4B4A461A6025E1A94BAA4AAA48922174
:102AD00003F00EF87A6973009B19DB009046984466
:102AE00043469C68DD68A54800F0AEFB001BA94189
:102AF000002900DA16E1002D74DB43461B699B4672
:102B00009F4B9B454FD00823F85E4346598889B2B6
:102B1000FFF7A4FF43465969D847029003910299F1
:102B2000039A0B00100013435CD013000A00002826
:102B300047DAA41A9D41009401954346009C019DEB
:102B40009C60DD600021595E002900DAEAE07869C6
:102B50004B005B18DB00C3189A68DB68A41A9D4120
:102B6000002D00DADEE039813D000835844604910D
:102B70002A000597B346009E019F049B002B2ADB89
:102B80000023D45E63001B19DB0063449C68DD688E
:102B900030003900001BA94100291CDB1A0000216C
:102BA000595E0491E9E743465B699B461B695846B9
:102BB0009847002816D05B461A685B680292039318
:102BC000ADE76E4800F040FB029B039C1B184C4194
:102BD00000930194B1E70499059F5E46434619802E
:102BE00016809FE0434600229B5E3B813A69EFF3EB
:102BF000108372B611680029FCD0BFF35F8F0221E9
:102C00007A5E41460A807E803A69BFF35F8F002179
:102C1000116083F3108885E03969EFF3108372B691
:102C20000A68002AFCD0BFF35F8FB88800B2012287
:102C30005242BA803A69BFF35F8F0021116083F37B
:102C400010880500BC461CE0049300229A5E002A0E
:102C50000EDB049B0021595E4B005B18DB006344D4
:102C60009868D96834003D00241A8D41002DEBDAB4
:102C700004995D46009B9C4644460D800023E55E1A
:102C80002280002D12DB634658696C006419E40051
:102C90000419A668E7686146083108229A5EAB46C7
:102CA000049163460093A0468446D0E767463EE021
:102CB0000023BB71390008310823F85E0EE00124BF
:102CC0006442E5179460D56008243B5F834204D0DA
:102CD0000E8008243B5F138038813000431C29D0CC
:102CE0007C6943001B18DB00E218E65E53881BB2C8
:102CF000002BE4DB1100F0E722002B0051461F48B7
:102D0000FFF79AFE1D4800F09FFA241A8D41002D0E
:102D100022DC1FD0194B4A465A630823FE5E002E60
:102D200000DBD7E6BB881BB2002B00DB74E7BB7966
:102D3000002BBDD10823FA5E002A0DDB7969530010
:102D40009B18DB00CB189C68DD68631CD4D16B1C1E
:102D5000D8D0D1E7002CDDD040BF07B0F0BCBB46D7
:102D6000B246A946A046F0BD582300203C7005405D
:102D70007C96001078A00010A89600100040054036
:102D8000952A001070B504000D0011000126AE4018
:102D900006622800FFF768FB01212800FFF72CFBE3
:102DA000024B9C466444266070BDC046382000003B
:102DB000F8B5CE46474680B50600894690461F00C6
:102DC000C160FFF74FF9154B9C46604480003061AD
:102DD00043463370BBB27381D022120612787270F0
:102DE000012252423281B2809B187380002406E097
:102DF000621E736965002D19ED005A530134BC42FF
:102E0000F6D3074B42469200D650064A4146484602
:102E1000FFF7B8FFC0BCB946B046F8BD400000346B
:102E200058230020952A001010B5064B1B69002B73
:102E300001D0044810BD044B044A0548652102F046
:102E400057FEC046CC0D0020E896001060A0001090
:102E5000A8960010F8B504000569EFF3108072B66B
:102E600029680029FCD0BFF35F8F0221665E656987
:102E700071008919C9006D18002E02DB0027E95F77
:102E800061802169BFF35F8F00270F6080F3108896
:102E9000002E2CDB0699296107996961AA60EB6015
:102EA0006B8801335B04590C002B00D10121698030
:102EB0003000FFF7D3FD2169EFF3108372B60A6883
:102EC000002AFCD0BFF35F8FA2882A80A6802269E7
:102ED000BFF35F8F0021116083F31088E3682178CE
:102EE00001228A4003498C4663441A60F8BD0120E0
:102EF0004042FBE73C20000070B582B006001400A1
:102F00001D0008AB1B78002B07D100F0CFF9220081
:102F10002B00121A8B41002B0ADB079B0193069BA7
:102F2000009322002B003000FFF794FF02B070BD29
:102F30000020FBE7F0B5C64600B584B00500884622
:102F400016001F000AAB1C78FFF76EFF0294019772
:102F500000962A004346FFF7CFFF04B080BCB84676
:102F6000F0BD000030B504000A1443899A422EDAFD
:102F7000406953009B18DB00C3182569EFF31082EA
:102F800072B628680028FCD0BFF35F8F588885B2DE
:102F90000904090C884212D000202369BFF35F8F17
:102FA0000021196082F31088002811D0E36821788D
:102FB00001228A4007498C4663441A6008E00649AA
:102FC000294389B259800123A3710120E5E700203C
:102FD00030BDC0463C2000000080FFFF10B504005B
:102FE000FFF722FF2100FFF7BDFF10BD40787047BB
:102FF000F0B583B006000F00EFF30583002B1AD164
:1030000006246442E517A4197D418D4202D803D1FC
:10301000844201D90024002500F048F922002B0049
:10302000121A8B41002B0BDC08D03000390000F065
:1030300083F903B0F0BD1648FEF7A4FF002AF4D0D0
:10304000144A0023009320002900FFF773FF002893
:1030500013DAEAE7104B1968EFF3108372B60A68C7
:10306000002AFCD0BFF35F8F0B4A1268BFF35F8F5B
:103070000021116083F3108820BF084B5B6A9D42DA
:10308000E8D80649896AA142CFD29D42CDD1E1E775
:103090000C970010652A00107C2500200040054098
:1030A00070B504000D0000F001F900196941002914
:1030B00002DBFFF79DFF70BD012040420049F8E7A9
:1030C000FFFFFF7F10B5FA2292000023002101F0DC
:1030D000EBFAFFF7E5FF10BDF0B5CE46474680B5E9
:1030E00083B005000C00EFF30583002B15D03F4B98
:1030F0005B6A8B4209D33D4A926A82420BD28B4271
:1031000001D0012002E0002000E0002003B0C0BC9C
:10311000B946B046F0BD0120F8E7FFF785FEC36869
:103120009946037898462E002700484600F08CF810
:1031300002000B00B61A9F41434604339B004A46E7
:103140009B581B1A0022BA420FDC0CD020BF274B21
:103150005B6A9C422DD8254A926AAA422BD29C4295
:1031600025D00120D2E7B342F0D9214A00230093B1
:1031700028002100FFF7DEFE00281EDD1B4B5B6AE6
:103180009C4205D8194A926AAA4202D29C4200D1B6
:1031900020BFFFF723FF154B5B6A9C4221D8134ADF
:1031A000926AAA421FD29C4219D00120AEE70020A9
:1031B000ACE70020AAE70120A8E70C4B5B6A9C4221
:1031C00009D80A4A926AAA4207D29C4201D0012039
:1031D0009CE700209AE7002098E7012096E700206E
:1031E00094E7002092E7012090E7C04600400540A8
:1031F000652A0010004870470040054010B50B4B91
:103200001B69002B04D00A480A21FFF7B7FB10BD49
:10321000FFF7F0FF0400032100F00CF8034810232F
:1032200003222100FFF7C4FDEDE7C046CC0D0020CE
:103230007C25002010B5024A0248FEF7D1FE10BDE1
:103240005C970010D01E00200200436A906A1900AB
:10325000536A9942FAD17047416A00E0416A994243
:10326000FCD300E0416A994202D1816A9142F9D3CC
:103270007047F0B5C64600B5804614001D00FFF744
:10328000E3FF06000F0022002B0092197B419942B8
:1032900002D804D1904202D901225242D3174046AB
:1032A000FFF7DAFF80BCB846F0BD000010B5024859
:1032B000FFF7CAFF10BDC0460040054010B5020030
:1032C0000B000248FFF7D5FF10BDC0460040054087
:1032D00010B5002905DB826A836A9B1A8B42FBD3F7
:1032E00010BD08000021FFF7E9FFF9E710B5040061
:1032F00008000C4B994208D84901091A890009189D
:10330000C9002000FFF7E4FF10BDFA22920000235D
:10331000002101F0C9F902000B002000FFF7A9FF0E
:10332000F2E7C0469BC4200010B501000148FFF73A
:10333000DDFF10BD0040054010B502000B00024843
:10334000FFF78AFF10BDC04600400540F0B5C646F5
:1033500000B504000E0017001D00374800F02EFBDA
:103360008046364BFA18364B9A4239D8010038005D
:1033700000F024FB0200103A98235B009A4235D8F3
:103380006B1E062B38D8069B013B062B34D83F0911
:10339000474537D32D04069B1B031D432368002B91
:1033A00036DB284B9C4244D00C2201239340264A12
:1033B0001360264A1360264A1268190091430A1EB8
:1033C000F9D12660A060234BE31821321A602268ED
:1033D000002AFCDAE56008221A6080BCB846F0BD1D
:1033E0001D4B1E4A1E48112102F082FB1D4B1B4A39
:1033F0001B48192102F07CFB1B4B184A18481C2162
:1034000002F076FB194B154A1548232102F070FB98
:1034100022683F231340B342C3D1A3681B051B0D91
:103420008342BED1E368EE22D2021340AB42B8D150
:10343000D3E70D22B9E7C046001BB70080E84BD3A5
:1034400080F8A93200C0024000E0004000F00040D7
:1034500008C00040043000008097001090A00010C9
:10346000D097001018980010349800108098001021
:103470002D23436070470000024B1A68024B5A60CC
:103480007047C046302300200080054010B5184B1F
:103490008022D2051A60174B174A1A6000290AD0F9
:1034A000164BE022D2041A60002809D1134B802267
:1034B00012061A6010BD0E4BE022D2041A60F3E728
:1034C00043011B1A9B001A18D2000D490A601818F4
:1034D0000001086080235B04984201D3094A0A6016
:1034E000FFF7CAFF054B8022D2051A60E2E7C0460B
:1034F00000B0054008200140FCFF010000A005408D
:1035000030230020FFFFFF0010B5034B034ADA61B0
:10351000FFF7BCFF10BDC046008005402131B76AEF
:1035200010B5030010000C4A8024E4051460002B41
:103530000DD001221343094A094CD461094C5C4067
:103540001462516293620021FFF7A0FF10BD034B8C
:103550000022DA61F7E7C04600B005400080054070
:10356000D3C007B02D3FF84F80239B000B43014A87
:10357000D36270470080054010B5010018231B88F6
:1035800014221088984710BD10B5010018231B881D
:1035900016221088984710BDF0B5C64600B5070042
:1035A0000E0000250123984600E00135B5420AD2FD
:1035B000AC003C192068FFF7DFFF20600028F4D141
:1035C00000239846F1E7404680BCB846F0BD0000B5
:1035D00070B504000D000648FFF7CEFF0300002C75
:1035E00003DB0120A040290098470020FBE7C046EC
:1035F00055420000074BAA2212011A608D22520088
:10360000DA60054B054A1A60024B5B68002BFBDA57
:103610007047C046004002400060024000B0FA001F
:10362000074B98420AD0162301229A40054B1A6094
:10363000054B1B6811009943FAD170471723F3E734
:103640000080034000F0004008C0004070B5046BEB
:10365000E30701D4200070BD0B4BC3180B4A1A605E
:10366000456A836AAD01ED18AD020620FEF744FC01
:10367000074900F0A3F90100280000F09FF900219C
:10368000FFF71CFEE6E7C0463030000001030000F3
:103690004E0E000070B504000E001500FFF7D6FFB7
:1036A000E36A5E403540024BE3181D60206370BD45
:1036B0002C10000070B505000C000620FEF71CFC65
:1036C000C000210000F07AF90130C60907D00E4B86
:1036D0009E4215D8400834003F26064000E00124F1
:1036E0006C62AE62002200212800FFF7D3FF0620A3
:1036F000FEF702FC8000A101891900F05FF970BD9E
:103700000026024CECE7C046FEFF0000FFFF000071
:10371000002909D00A22064B9C4660444342584186
:10372000044B4000C252704780225200F3E7C0466B
:103730000080FCBF8825002070B504000D00062025
:10374000FEF7DAFB00281ED0104B9C421CD016223C
:10375000012393400E4A13602000FFF761FF002110
:103760002000FFF7D5FF29002000FFF7A3FFE26A42
:1037700070235A400E331340064AA2181360064BBA
:1037800023630323A36470BD1722E1E70080034095
:1037900000E000402C1000000103000010B5040000
:1037A00001E008CC9847024B9C42FAD310BDC046BA
:1037B000EC0F00207047000010B50248FFF7EEFF45
:1037C00010BDC046B00F0020054B064A1A60064BDC
:1037D000064A1A60064B1A68044B9343FAD17047A5
:1037E00000E00040BFCDFBFE00F00040FE7F3C004B
:1037F00008C00040044BDB6C002B03D1034B80223C
:10380000D2021A607047C046000011504C2011507F
:10381000044B054A1A60054B1B68DB43DB01FAD1F8
:103820007047C04600F00040FFFFFF0108C00040A5
:10383000034B40229A675A671A67DA667047C04698
:1038400000F0014010B5FEF72DFC10BD70B5044D21
:10385000A968044CC022200001F046F8AC6070BD9D
:1038600000ED00E00000002070B50420FEF744FBEE
:10387000064900F0A3F805000024002C00DD70BD0F
:10388000E0B22900FFF770FE0134F6E740420F0076
:1038900030B583B0274B00229A67FFF7ABFE264B6B
:1038A00001221A60234B5B6C012BFBD1234B0322BB
:1038B0001A60204B9B6B012BFBD101330093043327
:1038C0001F4A01211F48FFF741FD052300931E4AAF
:1038D00001211E48FFF73AFD1D4B00220221042062
:1038E000FEF700FB1B4D2B00002201210520FEF7F7
:1038F000F9FA194C2300002200210720FEF7F2FA02
:103900002300002200210820FEF7ECFA8023DB00D0
:1039100000932300002200210920FEF7CFFA2B009C
:10392000002200210620FEF7DDFAFFF79DFF03B01D
:1039300030BDC046008000403CB0004030B0004088
:10394000002F685900800240008C864700C002406A
:10395000001BB70040597307006CDC0201480421CA
:10396000014B1847F00D002099350010124A936F53
:103970009B0815D29066D166002905D0FFE7FFE7C6
:10398000FFE7516F106F704704B580210906C21719
:103990005140002800D0C84305F00EFB002104BDB3
:1039A000F0B5146E556E576F166FFFF7E3FF146690
:1039B000556657671667F0BD000000D0114A936F37
:1039C0009B0813D210665166002905D0FFE7FFE778
:1039D000FFE7516F106F704704B5002801D0002039
:1039E000C04305F0E9FA002104BDC046F0B5146EED
:1039F000556E576F166FFFF7E5FF146655665767EC
:103A00001667F0BD000000D094464A4A926F9208B3
:103A1000624601D228E0C046F0B5464E346E756E5F
:103A2000776F366F00F020F89446424A1466556668
:103A3000576716676246F0BD94463E4A926F9208F9
:103A4000624601D254E0C046F0B53A4E346E756E0F
:103A5000776F366F00F04CF89446364A1466556618
:103A6000576716676246F0BD002B24DB11D0002992
:103A70003EDA00B5C943404200D1013100F038F8C8
:103A8000C943404200D10131DB43524200D10133EE
:103A900000BD002AEBD1002801D1002905D000206B
:103AA000C90FC90701D1C043410800B505F074FA38
:103AB0000022002300BD00B500290ADBDB4352428F
:103AC00000D1013300F014F8C943404200D1013164
:103AD00000BDC943404200D10131DB43524200D115
:103AE000013300F005F8DB43524200D1013300BD41
:103AF000002923D1002B18D1002A0CD0BC460D4F31
:103B000038667A6600210023FFE7FFE7FFE77A6F58
:103B1000386F67467047002801D00748010000B59C
:103B200005F03AFA0022002300BD02000B0000203D
:103B300000217047000000D0FFFFFFFF002B00D0E6
:103B4000BFE0130C28D1002AE7D080B4114F3966AA
:103B50007A66FFE7FFE730B4040C7B6F396F1B0414
:103B600023433B667A66FFE7FFE7FFE7C04684B280
:103B70007B6F3D6F1B0423433B667A66FFE7FFE7DD
:103B8000C04600232C042D0C7A6F386F0019694150
:103B9000B0BC7047000000D0F0B594460025140E6C
:103BA00001D112020835140F01D112010435940F0E
:103BB00001D192000235D40F01D152000135D40B4E
:103BC0000134254F7C66254C3C660E0C93B2FFE712
:103BD000FFE7FFE73C6F6643360C7703BE4673434F
:103BE000DF0B5B04C01AB941130C7343DB18C91A0D
:103BF000CE086643360CB64493B273431F0F1B01C5
:103C0000C01AB941130C73431F0B1B05C01AB941ED
:103C1000860D8F023E436643360C092D24DB520A83
:103C20007243801A7703460A6643360C16235B1BE1
:103C3000DE40DF40BF1964466643821B7046043590
:103C400006330100D940A840C01900D30131A24277
:103C500006D20023F0BD0000000000D0FFFFFFFFF0
:103C6000121B0130F3D3F1E709277F1BFE406446A6
:103C7000A2B27243801A00D20139220C7243130C93
:103C80001204821A99410B00704604351337010063
:103C9000F940A840801900D30131002B02D1A24283
:103CA0000AD2F0BD013000D30131121BFAD2013B20
:103CB000F8D1A24200D2F0BD013000D30131121B75
:103CC000F7E7F0B51C0C00D080E00CB400251C0A0E
:103CD00004D11B02160E3343120208351C0B04D10B
:103CE0001B01160F3343120104359C0B04D19B00BA
:103CF000960F334392000235DC0B02D192185B41E0
:103D000001351C00971864410134464F7C66464CCF
:103D10003C660E0CFFE7FFE7FFE7C0463C6F6643DB
:103D2000360C7703BE4697B27743C01B00D20139E9
:103D3000C01B00D201399FB27743C91BC91B170CA6
:103D400077437E04FF0B801BB941CE086643360CD7
:103D50000C2D33DBB644120B1F053A431B0B97B2F5
:103D60007743C01B00D201399FB27743C91B170CA0
:103D700077433E043F0C801BB941860D8F023E43C2
:103D8000664329277F1BFE400C3D7746AF40BF1995
:103D900030BCA2B2ABB272437343801A9941220C79
:103DA0007243130C1204801A994102000B00013770
:103DB000001BA941F9D2781E0021F0BD0C277F1B02
:103DC000FE4077467F0BAF40FF19E0E700245D1C03
:103DD00007D0144F7D663966FFE7FFE7FFE7FFE78F
:103DE0003C6F95B29EB265436643401BB141150CD2
:103DF0001E0C6543664336042F0C3E432D04401BC6
:103E0000B141994204D202000B0020000021F0BD14
:103E100001D19042F7D3801A994101349942F2D3EB
:103E2000F6E70000000000D0FFFFFFFF48404140E0
:103E3000484018B41B4B5B68FC46019308BD04DF87
:103E40001F41001018B4174B1B68FC46019308BDB6
:103E500000DF294100109446134A926F920809D25C
:103E6000624618B40F4BDB68FC46019308BD0CDFBB
:103E7000E14300100C4AF0B5146E556E576F166F83
:103E80006246FFF7EEFF084A1466556657671667E5
:103E9000F0BD18B4034B9B68FC46019308BD08DFD6
:103EA0008542001078230020000000D0FFB550406C
:103EB0004240504059404B40594000E0FFB5154F3B
:103EC0004C00640D03D0BC4204D10C0314D8002074
:103ED000090D09055C00640D03D0BC4204D11C032C
:103EE0000AD800221B0D1B0501264B4009D44B406C
:103EF00003D58B4200D18242FFBD9942FCD1904252
:103F0000FFBD0B43DB1803431343F5D0C9434918E6
:103F1000FFBD0000FF07000000B5FFF7CFFF8041A5
:103F200000BDC04600B5FFF7C9FF01D9002000BDA4
:103F3000012000BD00B5FFF7B9FF01D9002000BD89
:103F4000012000BD00B5FFF7B1FF804100BD012099
:103F500040054A00121804D85A00121801D800204F
:103F600070470120704700000021002805D17047EC
:103F7000C1174840401AFAD0C90713B5064B1B6851
:103F800098470CBC441CA2401005120B0349091BA6
:103F900009051943114310BD782400201F040000B7
:103FA00010B54C00620D8023D218DB00D21A5B05DD
:103FB0007E2A10DD9E3A13DACC170903490819430B
:103FC0005242D140640001341532202A05DAD04033
:103FD0000843604310BD002010BD0846604310BD7B
:103FE000C80FC018013810BD18B4044B5B6AFC46FA
:103FF000019308BD24DF91450010000078230020C4
:1040000018B4044BDB6FFC46019308BD7CDF1146FE
:10401000001000007823002070B513231C78012CB9
:1040200012D0012C12DC214B214A93642148FFF766
:10403000A3FA214B186070BD1C491D4A980081509D
:1040400001331F2BF8D9ECE70023FAE71B48FFF7F1
:104050009BFA05001A48FFF797FA023803789B008D
:104060007F2B09DD12488022290000F03DFC022C44
:1040700008D0022CDADCD6E7124B134A134833215E
:1040800001F036FD124B1A88B5231B029A4209D162
:10409000104B1A88104B9A4204D1104B1A88104BBF
:1040A0009A42E6D00020FDF76DFFC046E5400010C3
:1040B000782300204C330000782400205344000073
:1040C000534600009C9800109CA00010E09800103F
:1040D00054380000D8380000494600009C380000E1
:1040E0005946000007B56046002800D100BE01888F
:1040F0000A0A0230DF2AFAD1C9B2820804D3028840
:1041000040880004104300E00068024A50500390C9
:1041100007BD0000782300200FB403BC0CBCF0B531
:104120000124E407634000E0F0B50C0DCF0F661EDC
:104130003605891B640503D3C943404200D30131CE
:10414000640D03D0661CF60A07D0E41B00207F0034
:10415000791C89078912803C24031D0DDF0F6E1E18
:1041600036059B1B6D0503D3DB43524200D301335D
:104170006D0D03D06E1CF60A07D0ED1B00227F00E8
:104180007B1C9B079B12803D2D032F1B661B58D465
:10419000A446202E46DA20371400BC401D00BD4046
:1041A000F24033412A4380185941CB0F05D0C9430F
:1041B000C043002264425041514162464D0D28D116
:1041C0000D0D07D100281FD0241940414941013A63
:1041D0000D0DF9D0640006D3013000D30131002C5D
:1041E00001D140084000013A0BD4941CE40A04D1E8
:1041F00012051144DB071944F0BDD907204B1943C0
:1042000000E0D9070020F0BD0029DDD1002CDBD172
:10421000F0BD0132C6074008CD0728434908002EEB
:10422000E1D0D9E73C2E29DA203E40371400BC40CB
:1042300000D00124F24014431A00BB401C43D317A2
:10424000ACE7AC46202F08DA20360400B4400D005D
:10425000B540F84039412843A5E73C2F0CDA203F10
:1042600040360400B44000D00124F8400443080064
:10427000B1400C43C117EAE710001900002494E78D
:104280000000F07FF0B50C0D661E3605891BE60AAE
:104290006405640D02D0651CED0A04D000200121E4
:1042A0000905803C2403A4461C0D671E3F05DB1B4B
:1042B000E70A6405640D02D0651CED0A04D00022F3
:1042C00001231B05803C24037740644497B484B2E7
:1042D00096B27443070C7E43150C6F4380B268435B
:1042E000361802D3012000043F183004350C0019A1
:1042F0007D41844688B29AB250430C0C62431F0C35
:104300007C438EB27E43921902D301263604A4194F
:104310001604170C3618674101BC81B29AB251439A
:10432000040C62431B0C5C4380B25843121802D346
:104330000120000424181004130C401863412D18A8
:104340005E410020474106BC88B293B258430C0C32
:104350006343120C544389B251435B1802D30121C9
:104360000904641819041A0C091862416D185641A1
:104370000020474118BCF902720D1143F0026A0D8A
:104380001043ED020A0D03D16D1940414941013B33
:10439000124E9B1B7600B3420ED26D0007D3013044
:1043A000002671416646354301D1400840001B0597
:1043B000C918E4072144F0BD0BDA013306D10130FE
:1043C00004D101314F0D01D04908F2E7E107002087
:1043D000F0BD013631050020EBE70000FF030000CF
:1043E000F0B51C0D671E3F05DB1BE70A6405640D75
:1043F00002D0661CF60A04D0002201231B05803C73
:104400002403D0252D060026F6432E661E096E666F
:10441000CE0FF619B44649004F0D02D07E1CF60AA5
:1044200003D000200021403F3F033E1BB600B444B0
:10443000013F7F05C91B49082E6F013676089C0293
:10444000950D25437543ED137543AD1301356D107F
:10445000F603761B0CB4CC02450D2C43A2B2B3B2CA
:104460005A43270C7B43350C6F43A4B26C431B1992
:1044700002D3012424043F191C041D0CA4187D41FF
:1044800024196D41009A91B2ACB26143170C7C4380
:104490002B0C5F4392B25A43A41802D30122120498
:1044A000BF182204230C52187B41019C6C431B193A
:1044B000520ED9010A434401A01A81B2B2B251434B
:1044C00003145A43360C734387B27743D617D21975
:1044D00000277E4136049B191704160C7F185E4195
:1044E0007316ED18F301002680337541A90F06D12C
:1044F0006400690AE8055B0A184309D22FE0042228
:10450000944480337541A90AA8059B0A184326D311
:10451000404149412404009A019B0D005543641B0E
:104520004343E41A95B286B27543170C7E43030CDD
:104530005F4392B25A43B61802D301221204BF1845
:104540003204330C52197B4152429C41002C02D45C
:104550000022013051414008CA071043490802B007
:104560006246D7079210084BD218084B9A4203D2E2
:1045700012058918C919F0BD0020002A01DC390094
:10458000F0BD01331905F5E7FD030000FE0700004B
:10459000002200B5203200F004F8080000BD000041
:1045A00000220B150AD410B5944600F05FF81414DD
:1045B000013400DA0021CB17144C204700200021E1
:1045C00070476244343A0CD40C2A07DA0400914054
:1045D000904052422032D440214310BDD843D943A9
:1045E00010BD203207D40C46944052422032114173
:1045F000D040204310BD0800C917203203D45242D6
:104600002032104110BD1800190010BDC345001024
:104610004A00520D144BD21A13DDFF2A1EDAD205BE
:10462000CB0FDB071A43C300400F0903490A0843B5
:1046300010435B0001D301D0013070474308FBD227
:10464000704702D0C80FC00770470A031213013227
:10465000F8D1420F072AF5D1012200E0FF22C80F4E
:1046600000028018C0057047800300000A0DCC0FBF
:10467000531E1B05C91A520503D3C943404200D338
:104680000131520D03D0531CDB0A07D0121B00204E
:104690006400611C89078912803A1203014BD21A07
:1046A00070470000FF03000051434343C9188C4684
:1046B000110C83B24B4310B4040C614392B280B22C
:1046C000504362431C041B0C001910BC59411304D5
:1046D000120CC018514161447047000007B54840B2
:1046E0004140484001E0C04607B54200120E03D0E9
:1046F000FF2A03D1420218D8C00DC0054A00120E8D
:1047000003D0FF2A03D14A020FD8C90DC9050122DF
:10471000414005D4414001D5814207BD884207BDD3
:104720000143491801D0C043001807BD00B5FFF789
:10473000DBFF01D9002000BD012000BD00B5FFF75F
:10474000CDFF01D9002000BD012000BD00B5FFF75D
:10475000C5FF804100BD0000034BDB6FFC461847DE
:104760007CDF9D48001000007C24002070B51323DE
:104770001E782A48FEF708FF0500012E11D0012EF1
:1047800009DDAB1E1B789B007F2B40DD2448802277
:10479000290000F0A9F82348FEF7EEFE224B18602E
:1047A00070BD1F485422290000F09EF81F4B1A8844
:1047B0001F4B9A421CD1A7239B011A881D4B9A427A
:1047C00016D11D4B1A881D4B9A4211D11C4B1A88C9
:1047D00094239B019A420BD11A4B1A881A4B9A4286
:1047E00006D11A4B1A681A4B9A4201D1152307E0D9
:1047F0001848FDF7C7FB184C094A99008C50013343
:104800001F2BF8D9144B064A1362D361B7E7134B39
:10481000134A1448422101F06BF9C0465346000088
:104820007C2400204C33000078240020EE29000076
:10483000C40F0000C20D0000962B0000C0B50000A0
:10484000182B0000CC2A000010B50000FC2C000042
:1048500051ED8764089100106948001038990010E4
:10486000B0A000106C99001007B56046002800D178
:1048700000BE01880A0A0230DF2AFAD1C9B28208D2
:1048800004D3028840880004104300E00068024A14
:104890005050039007BD00007C240020C30FDB07AD
:1048A00041000A0E07D0FF2A08D00909054A8918D5
:1048B0001943400770471900002070470249C91882
:1048C000FAE70000000000380000F07F01480421F2
:1048D000014B1847000E002099350010014B1B6852
:1048E00018470000000E0020014B5B6818470000CD
:1048F000000E0020704710B5002802D00B684968F0
:10490000984710BD0100002007E083001B185B00E2
:10491000501C08601078C01830380A681378303B93
:10492000DBB2092BF1D97047F0B5DE4657464E464B
:104930004546E0B583B093461F000C9B9A460D9CFC
:104940000E9B99460F9B9B0717D0B8460F00060099
:1049500022E0551C4B4641462020B84701342A002E
:10496000B442F6D33D004F465C46019B9B46B146A0
:104970004646B84637002E000EE00192A346884610
:104980004E46B9460700EBE7013C551C5346185DFF
:1049900043463900B0472A00002CF5D135003E00CF
:1049A00047460F9B9B0711D4100003B0F0BCBB46D9
:1049B000B246A946A046F0BD541C4B4641462020B5
:1049C000B8472200531BB342F6D3EDE7B0464E463C
:1049D000B9462F005D46F5E7F0B5CE46474680B5AF
:1049E00085B0944698460C9D0D9C0EAB1B7899465D
:1049F000109A119B129EB7071CD4002B0CD0F707FE
:104A00000AD54F46002F02D10C37374204D0013B64
:104A100002E030272F550134944201D21F2CF8D9DF
:104A2000F70707D59C4205D21F2C03D830272F55F6
:104A30000134F5E7F70612D5770505D4002C03D02D
:104A4000944221D09C421FD00F9A102A2FD00F9A47
:104A5000022A36D01F2C0AD830222A5501341F2CA6
:104A600005D84A46002A32D02D222A550134039611
:104A700002930194009543466246FFF755FF05B047
:104A8000C0BCB946B046F0BD621E012C17D00F9FC6
:104A9000102F0BD014000F9A102AD8D1B206D6D5F9
:104AA0001F2CD4D858222A550134D3E7023CB20631
:104AB000F1D41F2CEFD878222A550134CAE714000C
:104AC000C2E71F2CD3D860322A550134C2E77207DF
:104AD00003D52B222A550134C9E73207C7D5202236
:104AE0002A550134C3E7F0B5DE4657464E464546E3
:104AF000E0B593B081468A46089209931CAB10CB6F
:104B00001B789B461E9D219B9846002C03D11023A9
:104B100042469A4390468023DB0046461E4042466A
:104B20001A4218D0002C22D0002614E042469206E9
:104B30001BD54121C918C9B20A39C9B2771C0AABC1
:104B4000995529002000FEF739FFAC4210D31F2FE2
:104B50000ED83E00040029002000FEF72FFFCBB244
:104B6000092BE3D83033D9B2E8E76121E2E7270027
:104B700043460693209B05931F9B049303955B4636
:104B8000029301970AAB0093099B089A5146484645
:104B9000FFF722FF13B0F0BCBB46B246A946A046C1
:104BA000F0BDF0B5DE4657464E464546E0B597B0F7
:104BB0000A900B910C929A46209B9946219F22AA1B
:104BC00013789B46249B0993259C289B98464A462C
:104BD0003A4302D11032934398468022D200454690
:104BE0001540434613420AD04A463A4341D0002575
:104BF0002E0053460D934D46099B9A4621E02E0008
:104C000053460D934D46099B9A461AE0424692063A
:104C100023D54122D218D2B20A3AD2B2731C994695
:104C20000EAB9A555246230028003900FEF704FFC8
:104C3000BC4220D813D04B461F2B16D84E46050039
:104C40000F005246230028003900FEF7F5FED3B2CC
:104C5000092BDBD83033DAB2E0E76122DAE7AA4584
:104C6000E9D94E460D9B9A4608E04E460D9B9A4662
:104C700004E0002602E04E460D9B9A46434606930A
:104C8000279B0593269B0493099B03935B46029302
:104C900001960EAB009353460C9A0B990A98FFF7B6
:104CA0009BFE17B0F0BCBB46B246A946A046F0BD7D
:104CB000F0B5DE4657464E464546E0B591B08046D3
:104CC00089460C929A461A9C1B9D22002B002000BC
:104CD0002900FFF73CF9002800D0F2E001225242FF
:104CE000D54B20002900FFF72DF9002800D0E8E07F
:104CF00001225242D14B20002900FFF70DF9002874
:104D000000D0DEE00022002320002900FFF704F994
:104D1000002800D0EAE0069407958023DB001E9A65
:104D20001A400D921E9A1A4201D106231C9306982E
:104D3000079902000B000892099303000A0002433E
:104D400000D1DFE0080D4005400DBD4EB446604483
:104D5000079E3203120B1E00BA4B13431F00FFF7CE
:104D600007F9B94AB94BFFF794F8B94AB94BFFF7BD
:104D700069F8089009910022B74B30003900FFF71D
:104D800058F8B64AB64BFFF784F802000B000898B3
:104D90000999FFF757F8FFF703F98346FFF7E8F89B
:104DA00006000F00AF4AB04BFFF773F80022AF4B7D
:104DB000FFF748F8FFF7F4F80890AD4AAD4B300024
:104DC0003900FFF766F806000F000898FFF7D0F8E3
:104DD000A94AAA4BFFF75DF802000B00300039002A
:104DE000FFF727F806000F0002000B00FFF751F84D
:104DF0000A900B91089BA24A94466344002100222A
:104E0000089109921B0509930023089332003B0087
:104E100030003900FFF716F80E900F9132003B007A
:104E200000208021C905FFF704F806000F000022CA
:104E3000944B0A980B99FFF70EF80022924BFFF75C
:104E400001F802000B000A980B99FFF704F8002202
:104E50008E4BFEF7F7FF02000B000A980B99FEF746
:104E6000FAFF02000B0030003900FEF7EBFF0200F2
:104E70000B000E980F99FEF7EEFF0022714BFEF724
:104E8000E1FF089A099BFFF704F806000F00089657
:104E90000997069A079BFFF755F800280BD00123C6
:104EA0005B429C46E3440022774B30003900FEF71A
:104EB000D2FF089009915B466333C62B45D8042680
:104EC00023E01E9B04931D9B03931C9B0293009461
:104ED000019553460C9A4946404600F0FBF811B044
:104EE000F0BCBB46B246A946A046F0BD0021002258
:104EF00006910792069480231B069C46AC446346A9
:104F000007930AE700239B4604261E9B1B0528D512
:104F1000089A099B190011430FD05D4A5D4B069812
:104F20000799FFF707F800287AD000225A4B069815
:104F30000799FEF7F1FF002872D01C9B5B4506DD48
:104F40005A469B1A013B1C9303E00526DDE700232C
:104F50001C938023DB001E9A1A431E920026002316
:104F60009B461D9B9E4265D29F1B02231E9A1A40A0
:104F70000A921E9A134202D0002E00D000275B46F0
:104F8000002B07D0089A099B06980799FEF763FF44
:104F9000069007910022002320002900FEF7BCFFA5
:104FA000002800D07CE03D4B1E9A134004930397E9
:104FB0001C9B0293069B079C0093019453460C9AFA
:104FC0004946404600F086F8002E00D187E71E9B38
:104FD0009B0671D54525441C5346020049462800CE
:104FE000C0475A46D317D2185A4005230593013EAD
:104FF0000496002303930A3302935B46DB0F01936D
:1050000000925346220049464046FFF76CFD0A9B3A
:10501000002B00D163E7020047460C9E1D9D53E024
:105020001C9B002B9DD00D9B002B9AD01C9B013B01
:105030001C9396E7002798E7FFFFEF7FFFFFEFFF46
:1050400001FCFFFF0000F03FFB799F501344D33F6A
:10505000B3C8608B288AC63F0000F83F61436F6386
:10506000A787D23F71A379094F930A400000E03F20
:105070001655B5BBB16B0240EF39FAFE422EE63F42
:10508000FF03000000002C400000244000001840F6
:105090002D431CEBE2361A3F80842E41FFF7FFFFC1
:1050A000069C079D2200290080200006844661445A
:1050B0000B000692079376E765258CE7541C534650
:1050C00049462020B8472200931BAB42F6D310007C
:1050D00005E7C046F0B5DE4657464E464546E0B5C4
:1050E00095B00690079193469946209F1E9A1F9B64
:1050F00010001900FEF72BFF002831D10122524287
:10510000BC4B1E981F99FEF707FF002837D10122DC
:105110005242B94B1E981F99FEF714FF00283DD14B
:105120000022B64B1E981F99FEF70CFF00284AD1AB
:105130000022B34B1E981F99FEF7EEFE002842D1C5
:10514000002200231E981F99FEF7E6FE00284AD190
:1051500000239846229B5B0500D4B0E0002452E077
:10516000229B0393219B029303230193A54B00935E
:105170004B465A4607990698FFF7D6FB08E1229B53
:105180000393219B0293042301939F4B00934B466F
:105190005A4607990698FFF7C7FBF9E0229B5B0781
:1051A0000ED59A4B042222990391219902910192E2
:1051B00000934B465A4607990698FFF7B5FBE7E080
:1051C000934B0322EFE7229B0493219B03930297C7
:1051D0001E9B1F9C009301944B465A4607990698C4
:1051E000FFF766FDD4E01E9A1F9B00200021FEF70A
:1051F00020FE1E901F9101239846ABE70CAB302296
:105200001A55013F01341F2C01D8092FF6D81E98DA
:105210001F99FEF7C5FE0500FEF7AAFE02000B006F
:105220001E981F99FEF705FE7A4BFA009B181A6824
:105230005B680A920B93FEF72CFE08900991FEF72B
:10524000D3FE0600FEF790FE02000B0008980999B5
:10525000FEF7EFFD0890099100226F4BFEF772FEFA
:1052600000282ED001363000FEF77EFE02000B0033
:105270000A980B99FEF756FE002801D0013500264A
:10528000002F2CD12800FEF773FE02000B001E98A1
:105290001F99FEF7CEFD06000F0000225E4BFEF7C1
:1052A0003BFE002846D100225B4B30003900FEF760
:1052B00049FE00283ED1EB073CD501353AE00627F0
:1052C0004CE70022544B08980999FEF725FE002868
:1052D000D6D1002E01D0F307D2D50136D0E7AA46A9
:1052E0001F2C11D8013F0A213000FEF767FB651C17
:1052F00030310CAB19550A213000FEF75FFB092E47
:105300000ED906002C00EBE755461F2C0CD87B1E4F
:10531000002F09D00CAA302111551F000134F4E7E9
:105320002B0055461C00F0E71F2C03D80CAB2E2297
:105330001A5501341F2C10D80A212800FEF716FB3D
:10534000661C30310CAB19550A212800FEF70EFB04
:10535000051E01D03400EDE734000323229A1340E8
:10536000012B1CD01F2C06D84346002B32D00CAB8F
:105370002D221A550134229B0393219B0293019401
:105380000CAB00934B465A4607990698FFF7CCFAA8
:1053900015B0F0BCBB46B246A946A046F0BD219B65
:1053A000002B13D04346002B02D10C3313420FD0F5
:1053B000219B013B2193190003E00CAB30221A55CD
:1053C00001348C42CED21F2CF7D9CBE72199F8E7D4
:1053D0002199F6E7229B5B0704D50CAB2B221A55CB
:1053E0000134C8E7229B1B07C5D50CAB20221A55F8
:1053F0000134C0E7FFFFEFFFFFFFEF7F65CDCD4139
:1054000065CDCDC1109A0010149A0010049A0010B6
:105410000C9A0010B8A200100000E03FF0B5DE4684
:1054200057464E464546E0B593B007008A46934638
:105430001193002900D12CE3002508E06C1C5B4689
:105440002A005146B847119B013311932500119B47
:105450001878002800D11EE32528EFD101331193DD
:105460000023180020E00123184301321192012487
:1054700018E00223184301321192012412E00423A0
:1054800018430132119201240CE008231843013221
:105490001192012406E010231843013211920124D5
:1054A00000E00024002C09D0119A1378203BD9B2D7
:1054B0001029F6D88B00C449CB589F468146119BD2
:1054C0001A781300303BDBB2092B10D92A2A13D0EB
:1054D0000B94119B1A782E2A20D0119A1378683BCE
:1054E000D9B2122965D88B00B849CB589F4611A86C
:1054F000FFF708FA0B90ECE71C9B1A1D1C921B6827
:10550000002B04DB0B93119B01331193E1E7022283
:105510000100114389465B420B93F4E78022D200DD
:105520004946114389465A1C11925A781300303B60
:10553000DBB2092B0BD92A2ACFD11C9B1A1D1C9236
:105540001C68002C08DB119B01331193C5E711A8DF
:10555000FFF7D8F90400C0E70024F4E780235B00DC
:1055600049460B43511C119151786C2901D0994641
:105570001FE0C0239B00494619438946023211921D
:1055800017E0802349460B43511C1191517868293B
:1055900001D099460DE0C02349461943894602329D
:1055A000119206E080235B00494619438946013287
:1055B0001192119B187867281CD8252800D25EE22A
:1055C0000300253BDAB2422A00D958E29300804A10
:1055D000D3589F4680239B00494619438946013290
:1055E0001192E6E780235B00494619438946013260
:1055F0001192DEE7782800D941E2692800D23EE224
:105600000200693AD2B201239340724A134210D188
:105610001A0600D50CE25B0500D430E21C9B1A1D73
:105620001C921E68002C00D0BAE1012252423300C5
:1056300096E16F2842D005D8582841D0622803D17E
:10564000022606E078283DD010234A469A43914628
:105650000A26582838D0692805D0642803D00C229F
:105660004B46934399464B465A0502D50122934334
:10567000994669282DD064282BD04B469A0500D531
:10568000AAE0DA0500D5C2E05A0600D4D3E01C9A9D
:10569000111D1C911168FF220A404B4605930B9B7C
:1056A0000493039402960023019300925B462A0020
:1056B00051463800FFF717FA05002AE00826C8E728
:1056C0001026C6E71026C4E720224B46134399460E
:1056D000C1E74B469A0520D4DA0551D45A0666D55F
:1056E0001C9A111D1C911168FF220A40D017111835
:1056F00041404B4605930B9B049303940296D20FB3
:10570000019200915B462A0051463800FFF7EBF901
:105710000500119B0133119399E61C9A073207216A
:105720008A43110008311C91116853689C46DB17AD
:105730000C930D930C9A0D9B100048400E900D9BFE
:1057400061464B400F930E980F990C9A0D9B801A4F
:1057500099410E900F914B4608930B9B079306942B
:105760000496002305936346DA0F0292009001919C
:105770005B462A0051463800FFF713FA0500C8E7D8
:105780001C9A111D1C911268D017111841400593E5
:105790000B9B049303940296D20F019200915B46F7
:1057A0002A0051463800FFF79EF90500B1E71A06B6
:1057B00005D51C9A111D1C910023D25E96E71C9AF8
:1057C000111D1C91126891E718A100105CA1001036
:1057D000A8A10010419000001C9A073207218A43BB
:1057E000110008311C9108930B9B079306940496B3
:1057F00000230593029353681268009201935B465D
:105800002A0051463800FFF7CCF9050081E71C9AC1
:10581000111D1C9105930B9B049303940296002386
:105820000193136800935B462A0051463800FFF746
:105830005AF905006DE71A0606D51C9A111D1C9130
:1058400012681204120C28E71C9A111D1C91126890
:1058500023E746281AD01C9B0733072293431A00DC
:1058600008321C924A4604920B9A039202941A68D8
:105870005B68009201935B462A0051463800FFF7AF
:1058800029FC0500119B01331193E0E520234A46D2
:105890001A439146DFE7672801D0472804D18023C7
:1058A0001B014A461A439146452801D0472803D197
:1058B00020234A461A4391461C9B073307229343F1
:1058C0001A0008321C924A4604920B9A03920294E0
:1058D0001A685B68009201935B462A0051463800C3
:1058E000FFF7E6F90500119B01331193AFE50223A1
:1058F0004E461E404A4613421ED001241C9B1A1DD0
:105900001C926A1C904618785B462A005146B8479C
:10591000002E14D1119B01331193454697E5551C78
:105920005B4651462020B84723002A005C1C0B9997
:105930009942F4D81500E1E701232A00F6E7424630
:1059400006E0561C5B4651462020B8472C0032002A
:10595000651C0B9BA342F4D89046DBE701330A0099
:105960001978002902D0511E002AF7D19B1B8022F2
:10597000D2004946114088464946114202D0A3420E
:1059800000D92300022249461140109149460A429B
:1059900008D02A00250099463B004746984626E055
:1059A000220044E6A1462A005146B2460E0006E017
:1059B000551C5B4631002020B84723002A005C1CA0
:1059C0000B999942F4D8150022004C4633005646F4
:1059D0009A4691462A0025003B004746984606E035
:1059E0001D000136541C5B465146C04722003078EA
:1059F000002804D0002FF4D06B1E002DF0D115002C
:105A00004B464746109A002A03D1119B013311934C
:105A10001DE50B9E2A0006E0551C5B4651462020E2
:105A2000B84723002A005C1C9E42F5D81500ECE71D
:105A300021234A461A4313001C9A111D1C91126817
:105A400005930823049303940833029300230193DE
:105A500000925B462A0051463800FFF744F80500E3
:105A6000119B01331193F2E46C1C5B462A005146F2
:105A70002520B847119B013311932500E7E46C1CE6
:105A80005B462A005146B847119B0133119325000C
:105A9000DDE40A4FD0E45D450DD35B465A1E5B46FC
:105AA00051460020B847280013B0F0BCBB46B246B0
:105AB000A946A046F0BD2A00F1E7C046F54800100F
:105AC00010B584B00C0002A902904C600124044877
:105AD000009313006242FFF7A1FC04B010BDC04662
