:020000041000EA
:1000000000B5324B212058609868022188439860DF
:10001000D860186158612E4B002199600221596106
:100020000121F02299502B49196001219960352056
:1000300000F044F80222904214D00621196600F024
:1000400034F8196E01211966002018661A6600F04E
:100050002CF8196E196E196E052000F02FF8012189
:100060000842F9D1002199601B49196000215960AB
:100070001A491B48016001219960EB211966A021F2
:10008000196600F012F800219960164914480160C1
:100090000121996001BC002800D000471248134993
:1000A000086003C880F30888084703B5996A0420EC
:1000B0000142FBD001200142F8D103BD02B5186610
:1000C0001866FFF7F2FF186E186E02BD00000240BE
:1000D000000000180000070000035F00212200005C
:1000E000F4000018222000A00001001008ED00E03C
:1000F00000000000000000000000000074B24E7A12
:1001000000200420F7010010C3010010C5010010F9
:10011000C1010010C1010010C1010010C101001097
:10012000C1010010C1010010C1010010C701001081
:10013000C1010010C1010010C9010010CB01001065
:10014000CD010010CD010010CD010010CD01001037
:10015000CD010010CD010010CD010010CD01001027
:10016000CD010010CD010010CD010010CD01001017
:10017000CD010010CD010010CD010010CD01001007
:10018000CD010010CD010010CD010010CD010010F7
:10019000CD010010CD010010CD010010CD010010E7
:1001A000CD010010CD010010CD010010CD010010D7
:1001B000CD010010CD010010CD010010CD010010C7
:1001C00000BE00BE00BE00BE00BE00BEEFF3058054
:1001D000103800BEF2EB8871A8FB0110DCFB0110A7
:1001E0003402001090A31AE700201F49086006C8D7
:1001F00081F3088810471D48006800282FD10DA4FE
:100200000ECC002902D000F012F8F9E71849194A7B
:10021000002000E001C19142FCD1174988471749ED
:1002200088471749884700BEFDE701C901C29A42C5
:10023000FBD37047DCFB0110C0000020081E00202B
:1002400024190210000004200000042024190210C8
:10025000001004200010042000000000704709482E
:100260000FF02AFF0047000008ED00E0000000D07A
:10027000081E0020F83300201DEE001041820010FF
:10028000D9ED00105756000006005250ABB3605332
:10029000D8E0011006005250861C0302E8E001106D
:1002A000060052505422A29DF4E001100500525065
:1002B000DE65F46824190210F8B5C04610B5064C86
:1002C0002378002B07D1054B002B02D0044800E017
:1002D00000BF0123237010BD60200020000000003B
:1002E00090A50110044B10B5002B03D0034904481E
:1002F00000E000BF10BDC0460000000064200020E8
:1003000090A5011010B5002904D008680368DB68C7
:10031000024998470020002110BDC04600007F43DD
:1003200070B504000D000F2804D0290020000CF047
:10033000C3FB70BD01480BF0BDFEF6E75C2D00204D
:1003400010B50800110010F0B3FF10BD10B5080083
:1003500010F0C0FF10BD10B5080010F097FF10BDE1
:1003600010B582B0012801D002B010BD134B9942E4
:10037000FAD1134B02221A735A730721114B06E06C
:1003800000221A715A719A71DA71103301390029F9
:10039000F6DA0D4C202221000C480AF0A9FB0C4B88
:1003A000012221000B480AF09EFC002300930F332A
:1003B0001122094909480AF00FFFD5E7FFFF0000A5
:1003C000A8330020C01F002088150020042D002025
:1003D00000806542302D002000C003405C2D0020CD
:1003E00010B504000DF06AFE002903DB2060616097
:1003F000200010BD024B034A3F2103480EF0F0FCE1
:1004000090A50110ACA50110E4A5011010B50C1EBB
:1004100008D0086803685B689847022805D1202344
:100420000022E2540020002110BD0DF047FE0029FB
:100430001CDB114A00230FF0D1FE1000190010F050
:10044000C7F900220D4B10F0D8F802000B000C4841
:1004500011F018F90B4811F0E5F8206803681B68E3
:1004600000219847084B01221A70D8E7074B084A29
:100470003F2108480EF0B4FC40420F0000408F407E
:100480002CA6011038A60110E333002090A501101E
:10049000ACA50110E4A5011010B50B490B4813F0F1
:1004A000D7FE032104200CF0A1FA032105200CF053
:1004B0009DFA0022012104200CF0B0FA0022012153
:1004C00005200CF0ABFA10BD40420F00881500204B
:1004D00070B5134C1349200013F0A2FF0121102026
:1004E0000CF084FA012112200CF080FA0121132073
:1004F0000CF07CFA626802231A400B4DC02189017E
:1005000029430B60206807214140CF20084080210B
:1005100049010C43206080239B012B431A6070BD6E
:1005200000C00340404B4C0004C00340F0B589B00C
:1005300005000C00037ADB0709D42B7A60221A42EB
:1005400000D1B9E0002D00D1B6E02B8863E002684D
:1005500008320868896800260029EED00B000833AD
:100560009A4202D00E000968F6E78B88013B9BB2E5
:100570008B80002BE1D1002E05D00B68336003681F
:100580005B689847D9E70B68A360F8E74B4B4C4A88
:1005900062214C480EF024FC4B4B4C4A30214C4815
:1005A0000EF01EFC00224CE04A4B4B4A16214B48F1
:1005B0000EF016FC4A4B4B4A222148480EF010FC24
:1005C0008B88013B9BB28B80002B06D1002F60D023
:1005D0000B683B6003685B689847009F002F5BD007
:1005E00021003800FFF7A2FF3B7A7F2293433B7242
:1005F000773A694602A810F07FFE082202A904A8F3
:1006000010F07AFE049B002B4CD0A28E5A8104ABD2
:100610009B88A3863300344A934249D020000C3093
:100620009342BFD09A093F211940868CB242ADD285
:10063000006AD200821850888142ADD25268090106
:1006400052185689069206A98B8051424A41D2B26D
:1006500026498C46634459424B41DBB29A42A3D1AE
:10066000082206A9684610F047FE009B002BA1D087
:1006700008229A56002AB0DADA682068A1680027B2
:100680000029AAD00B0008339A4299D00F000968BC
:10069000F6E70B68A3609DE7114B124A22210F4831
:1006A0000EF09EFB0E4B0F4A22210C480EF098FBD9
:1006B00001235B422B806B8009B0F0BD48A601107E
:1006C0005CA60110ECA6011050A701105CA7011058
:1006D000E8A701104CA8011074A80110FCA8011093
:1006E0005CA9011070A90110FFFF00000100FFFFCD
:1006F000F0B5D6464F464646C0B586B005000E005A
:10070000140017000C3713689946928EC84B9A4212
:100710003ED1BB8C002B00D1D9E000D19EE0013B43
:100720009BB29846D9003B6A9C4661444A68002ABD
:1007300000D199E04B880888834200D29AE00023D8
:10074000029302AB012252429A80029A002A00D1FF
:10075000B1E002AB9B88414688011B189BB2009216
:1007600069468B8051424A41D2B2B2498C466344B9
:1007700059424B41DBB29A4200D0A2E0009B002BD1
:1007800000D1A4E00822694604A810F0B5FD2DE0D0
:100790003A8D9A4248D0A64B9A4257D093093F21AE
:1007A0001140B88C834245D2DB00386A84466344EA
:1007B0005888814244D25B6809015B1859893985A0
:1007C000002B05D000211972012040425881D960C8
:1007D000049304A98A8059424B41DBB295498C4667
:1007E000624451424A41D2B2934231D1049B002B20
:1007F00000D166E1049B002B00D165E172888C4931
:100800008A4200D064E104AA92883280728004AAED
:1008100092882B60AA805B89EB80280006B0E0BC40
:10082000BA46B146A846F0BD834B844A4521844868
:100830000EF0D6FA834B844A622184480EF0D0FA37
:10084000834B844A30217E480EF0CAFA0023B5E774
:10085000814B824A162182480EF0C2FA814B824AAD
:1008600088217A480EF0BCFA0023029302AB013AC9
:100870009A806AE7581C488019015218002A05D04E
:1008800000211172012040425081D160029202A9E0
:100890008B8051424A41D2B266498C4663445942E8
:1008A0004B41DBB29A4200D14FE76B4B6B4A1621AA
:1008B0006B480EF095FA00230093013B6A46938043
:1008C0005CE7654B654A162165480EF089FABA8CDB
:1008D000FB8C9A425AD0BA8C531C9BB2BB84D20078
:1008E000396A884690448022D200934200D180E049
:1008F00040239A465346002B00D17DE04B461B68AF
:100900001B685246110148469847434658600028E4
:1009100078D0434652461A800023424653804346CD
:10092000002B72D0BB8C002B75D0013B98B2396A7A
:10093000C300C9184A68002A73D04B880F88BB428D
:1009400000D297E00023029302AB012252429A8028
:10095000029A002A00D1AEE002AB9B8880011B18EE
:100960009BB2049204A98B8051424A41D2B23149D0
:100970008C46634459424B41DBB29A4200D135E781
:10098000354B364A162136480EF02AFA8022D2001C
:10099000934228D05B009BB29846396AB94213D083
:1009A0004B461B689B684246D200484698478246A1
:1009B00000281CD053463B624346FB840123002B96
:1009C00089D100239846AAE74B461B681B6842461C
:1009D000D100484698478246002806D02022390098
:1009E00010F08AFCE6E70023E9E70023E7E70023AD
:1009F000E5E73F239A467DE71C4B1D4A0D21104831
:100A00000EF0EEF900239A4683E7049304AB01222B
:100A100052429A80EAE6134B134A88210B480EF0A3
:100A2000DFF90023029302AB013A9A8090E7C046B7
:100A3000FFFF00000100FFFFD4A90110ECA9011085
:100A4000E8A7011048A601105CA60110ECA6011051
:100A500050A701105CA701104CA8011074A8011048
:100A6000FCA8011058AA011064AA0110D0AA011014
:100A7000D8AA01105F1C4F8019015218002A05D016
:100A80000021117201277F425781D160029202A991
:100A90008B8051424A41D2B220498C46634459422C
:100AA0004B41DBB29A4200D152E71D4B1D4A162141
:100AB0001D480EF095F90023049304AB013A9A8087
:100AC00094E60133237195E62B60013BAB80A4E6ED
:100AD0000C348A421FD090093F210A40A18C8842E1
:100AE0000DD2216AC0000918488882420DD2496897
:100AF00012018A1804A989885181718087E60B4BFD
:100B00000B4A62210B480EF06BF90B4B0B4A30215C
:100B10000B480EF065F90022ECE7C0460100FFFF2C
:100B20004CA8011074A80110FCA8011048A60110DF
:100B30005CA60110ECA6011050A701105CA70110E3
:100B4000E8A7011010B51400114A1070D17054704C
:100B500093700423FF210F480BF042F9002809D1BC
:100B6000D0231B0640225A6140329A610A4B7F3AD9
:100B70001A7010BD084B1B78002BFAD0D0231B062F
:100B800040229A6140325A61034B00221A70F0E70A
:100B9000B83300205C2D0020F333002000B585B071
:100BA00000900191029203930DF088FA002926DB50
:100BB0001D4A00230FF012FB100019000FF008FE71
:100BC00000221A4B0FF019FD02000B00184810F01C
:100BD00059FD184810F026FD0E236A46FF211648DD
:100BE0000BF0FEF8002810D1D0231B0640225A61DA
:100BF00040329A61114B7F3A1A7005B000BD104B1C
:100C0000104A3F2110480EF0EBF80C4B1B78002BDC
:100C1000F3D0D0231B0640229A6140325A61074B21
:100C200000221A70E9E7C04640420F0000408F40A2
:100C30002CA601105CAB01105C2D0020F3330020CA
:100C400090A50110ACA50110E4A5011000B583B07A
:100C500001AB18800DF032FA002929DB1E4A00236F
:100C60000FF0BCFA100019000FF0B2FD00221B4B70
:100C70000FF0C3FC02000B00194810F003FD6B4697
:100C800019795A79174810F0FDFC022301AAFF21B7
:100C900015480BF0A5F8002810D1D0231B064022E0
:100CA0005A6140329A61114B7F3A1A7003B000BD0D
:100CB0000F4B104A3F2110480EF092F80B4B1B7857
:100CC000002BF3D0D0231B0640229A6140325A6198
:100CD000064B00221A70E9E740420F0000408F40A7
:100CE0002CA601106CAB01105C2D0020F33300200A
:100CF00090A50110ACA50110E4A5011070B5002568
:100D000000E0013583001B18DB00344CE3181C792C
:100D1000AC420EDD83001B18DC00304B1B195B1945
:100D20005B798B42EDD12D4B1B195B190124DC72D1
:100D3000E7E70025002600E00135AC4211DD830025
:100D40001B18D900254B5B185B19DB7A002BF3D1FC
:100D5000AB005B19DB002149CB18002199740126F7
:100D6000EAE7002E39D1002311E029001C4D495D2E
:100D7000914214D11D011A49491901254D7199005B
:100D8000C918C900154D691800258D740133072B4A
:100D900016DC1D011249491949788142E5D0022A21
:100DA000F4D11D010E49491989788142EED10C49CF
:100DB0004D19ED782D01491909790029E6D0D9E7B7
:100DC00000218C4209DD83001B18DA00034B9B18BD
:100DD0005B180022DA720131F3E770BD201F00209A
:100DE000C01F002070B5040029482A4B1860C0229B
:100DF0009201210018F012FF00282AD0C026B60167
:100E0000254D3100280019F05BFB3200210028003D
:100E100019F03EFB0DF052F9002914DB1F4A0023A4
:100E20000FF0DCF9100019000FF0D2FC00221C4B6F
:100E30000FF0E3FB02000B001A4810F023FC1A48E5
:100E400010F0F0FB70BD194B194A3F2119480DF005
:100E5000C7FF0DF033F9002914DB104A00230FF00F
:100E6000BDF9100019000FF0B3FC00220C4B0FF07D
:100E7000C4FB02000B000B4810F004FC0E4810F0FD
:100E8000D1FBDFE7094B0A4A3F210A480DF0A8FFD2
:100E900000D01F108C11002000D01F0040420F0016
:100EA00000408F402CA601108CAB011090A50110C2
:100EB000ACA50110E4A50110A4AB011010B50A4BBC
:100EC00004221A60094B1B68DB05FBD5074B5868E9
:100ED00080B210F0B4F810F013F9054A054B0FF08A
:100EE000AAFB0FF081FC10BD00E0044000C00440EC
:100EF000BF102B4AE323833F10B582B001AB1880AB
:100F00005A780A2A08D893005C49CB589F46002398
:100F10005B4A13705B4A137002B010BD584B01223C
:100F20001A70584B00221A70F6E7574B1B78002BAB
:100F300005D0564B1B78002B4CD0002439E0544888
:100F40000AF0E6F8002400E00134032C1EDCA300C4
:100F50001B19DB004F4A98580028F5D00368DB685E
:100F60004D499847A3001B19DB004A4A985803686B
:100F70005B6898470428E7D1A3001B19DB00454AAA
:100F8000985803681B6800219847DDE7434B1978A0
:100F90000F2908D901233A4A13703B4A13703B4B7F
:100FA00000221A7016E0FF22394809F0EBFEF1E743
:100FB0000134032C0BDCA3001B19DB00354A9858C5
:100FC0000028F5D00368DB6833499847F0E72F4BDA
:100FD00000221A700DF072F8002903DB304B186004
:100FE000596099E72F4B304A3F2130480DF0F8FE09
:100FF00001AB19782E4B1B78994200D08CE7002367
:1010000001E00133DBB2072B00D985E71901294C38
:10101000095D0139C9B20129F3D81C012549091913
:101020004C78D11E8C42ECD11801224908180121BC
:10103000017100214171E4E701AB19781C4B1B7869
:10104000994200D068E7002301E00133DBB2072BAF
:1010500000D961E719011748095C0329F5D1180186
:10106000144909184878D11F8842EED11C01114952
:101070000C190121217100216171E6E7C0AB01105B
:10108000E3330020E733002090110020E9330020F3
:10109000302D0020201F002000007F4388110020F9
:1010A000181F002090A50110ACA50110E4A50110A7
:1010B000DD330020C01F002070B505001E4C20004D
:1010C0000AF09CFD0922082120000AF049FE2900AF
:1010D00020000AF097F8082120000AF04FF917497C
:1010E00020000AF061F9142120000AF0D3F9144914
:1010F00020000AF0C7FC052120000AF011FA09219E
:1011000020000AF02FFD012120000AF083F82000C2
:101110000AF055FA0B4B00221A700CF0CFFF002991
:1011200003DB094B1860596070BD084B084A3F212A
:1011300008480DF055FEC0465C2D002000C06444F8
:1011400020A10700F23300204820002090A50110C4
:10115000ACA50110E4A50110016042607047704722
:101160000B6803604B6843600B7A013B5A42534162
:10117000037270477047000010B584B0029003916D
:1011800000920193002808D0009B002B0BD00398FD
:10119000019B98423AD1002324E01F4B1F4A312182
:1011A0001F480DF01DFE1F4B1C4A32211C480DF03C
:1011B00017FE1D4B1D4A73211D480DF011FE1D4BDE
:1011C0001A4A74211A480DF00BFE174B174A732167
:1011D00017480DF005FE174B144A742114480DF002
:1011E000FFFD0133834214D2029A002AE1D0039911
:1011F0008B42E4D8D15C009A002AE6D0019CA3423D
:10120000E9D8D25C8A42ECD0002000E0002004B093
:1012100010BD0120FBE7C046ECAB0110FCAB011098
:10122000D4AD011038AE011048AE011054AE01101B
:10123000A0AE011008AF0110F0B5CE46474680B50C
:1012400085B005004368002B1FD082689446634434
:1012500000221A72046841680831866832006846C4
:10126000FFF77AFFA468002C15D021000831E2882E
:1012700002A8FFF771FF029A039B00980199FFF7FC
:101280007BFF002807D12468EDE7284B284A1D2161
:1012900028480DF0A5FD002C08D0A3880133A380B9
:1012A000200005B0C0BCB946B046F0BD2B689946D9
:1012B0006B6898464B461F684346002B0ED0802330
:1012C0005B029E4210D23B689B6832000932414665
:1012D00038009847041E07D0C6800AE0164B174A0C
:1012E000312117480DF07CFD3B685B6841463800B2
:1012F0009847002C09D0002C0BD02B680FD09A688F
:1013000022609C6000236B60CAE701234A46137188
:10131000F1E7094B064A222106480DF061FD064B14
:10132000084A462108480DF05BFDC04614AF011085
:1013300028AF011088AF0110E8AF0110F8AF01101D
:10134000B0B001100CB101106CB101107047000079
:10135000F0B5DE4657464E464546E0B587B0814675
:101360008B46011E09D001782B290CD02D2910D1D4
:101370002C398C46E1448A460DE0BD4BBD4A1A31FA
:10138000BD480DF02DFD01218C46E14400218A4627
:1013900001E000218A464946087801003039C9B287
:1013A000092905D92E2800D058E10024002501E0A4
:1013B000002400254E463678B046303EF6B2B4469C
:1013C000092E22D8AD4EB5421FD81BD0A60FAB00B8
:1013D0003343A200A4185D4126002F00B6197F41B7
:1013E00034003D000094019560460021C643B44698
:1013F0007E1C16D0009C019D24184D410126B44648
:10140000E144D7E79E4EB442E0D9404600282ED1B1
:101410005346002B1CD080231B069D4204D9002676
:1014200026E06445E6D9F0E79D4201D1002CF6D1D3
:1014300000236242AB415946097A7F2081435846D6
:1014400001720A200143584601720260436007E1BD
:101450005B461B7A7F2293435A461372082213433A
:101460005A4613721460556001239A46F8E000262C
:1014700080235B039D420AD30A2200232000290017
:101480000EF0ACFE04000D00013636B2F0E749461E
:101490000A781300303BDBB2092B03D8013636B291
:1014A0000131F5E789462E2A0FD04B461B78652B74
:1014B00035D0452B33D00023F6184B461F78002F2C
:1014C00000D18FE000239A46CAE001239C46E14404
:1014D000B4464A4613E0A70FA9003943A0002418D8
:1014E0004D4124196D41029300230393029E039FF3
:1014F000A4197D416646013E33B29C460132137801
:10150000303BDBB2092B07D85E4FBD42F6D8E2D1A3
:101510005D4FBC42F2D8DEE766469146C5E74B46D2
:10152000581C5B782D2B04D02B2B05D000270023D3
:101530002AE001300127FAE7484602300027F6E7A3
:101540000020002138E05346002B17D000204F49DF
:10155000FFF7FCFE80231B069C4661445B461B7A1A
:101560007F2293435A4613720C2213435A46137236
:1015700002000B0059460A604B6029E000204349F5
:10158000FFF7E4FEEAE70130027811003039C9B212
:10159000092920D89900CB185B00303A9B18F11824
:1015A0009A2252009142EEDD002FCCD05346002B00
:1015B000C6D00020802109065B461B7A7F22934318
:1015C0005A4613720C2213435A461372106051602C
:1015D00001239A4644E0002F02D05B4281466BE72C
:1015E000814669E7200029000FF0F2F8040000911D
:1015F000002E04DD264D002E06DC764204E0254D4B
:10160000F9E776100137FFB2002E0CD0F307F8D5BA
:10161000FB00EB181A685B68200000990FF00BF8CC
:1016200004000091EDE75346002B05D0009B80227B
:1016300012069446634400935B461B7A7F229343D1
:101640005A4613720C2213435A4613722200009B0F
:1016500059460A604B6001239A4601E000239A46EE
:10166000504607B0F0BCBB46B246A946A046F0BD06
:10167000C8B10110D0B1011038B20110999999196F
:101680009999999999990100989999990000F07FF1
:10169000E8CE0110A0CE01107047000010B5FFF792
:1016A000FBFF0068002800D010BD0148FCE7C046E1
:1016B000A4B3011010B588B0027A7F231340043B15
:1016C000DAB2082A2DD89300184AD3589F460078DA
:1016D0000FF026F827E0416800680FF079F822E063
:1016E000416800680FF068F81DE0006808300024C9
:1016F0006B461C7402A9FFF72BFE02AB06930794FE
:10170000082206A968460FF0F7FD0098002802D0CD
:10171000FFF7D0FF07E00020002104E041680068E7
:1017200001E00020002108B010BDC04698B20110B1
:101730000123002904D104D180221206904200D353
:101740000023D8B270478022120600238018594126
:101750000123002900D00023D8B2704710B504003F
:10176000FFF7E6FF002801D0200010BD0020FCE7B5
:1017700010B50400FFF7E7FF002801D0200010BDDE
:101780000020FCE70123002902D102D1FF2800D963
:101790000023D8B2704710B50400FFF7F3FF00280C
:1017A00001D0E0B210BD0020FCE700290ADB0123D4
:1017B000002902DD0023D8B270470029FBD1FF28A1
:1017C000F9D9F7E70020F7E710B50400FFF7EDFFC0
:1017D000002801D0E0B210BD0020FCE770B5040085
:1017E0000D00002200230EF07FFF002809D0002208
:1017F000054B200029000EF06FFF002802D00120C9
:1018000000E0002070BDC04600E06F4070B50400ED
:101810000D00FFF7E3FF002805D0200029000EF09F
:10182000BFFFC0B270BD0020FCE7000030B599B02A
:10183000027A7F231340043BDAB2082A00D9C5E0BC
:101840009300644AD3589F460078C0E0416800681E
:10185000FFF7A1FFBBE041680068FFF7B5FFB6E006
:10186000006804AC002525722100FFF771FD0C947F
:101870000D9508220CA968460FF03EFD227A7F23C1
:101880001340043BDAB2082A40D89300524AD35896
:101890009F4604AB18789AE004980599FFF77BFF00
:1018A00095E004980599FFF78FFF90E000246B46C0
:1018B00028229B181C7008A90498FFF749FD08AB63
:1018C0000E930F9408220EA902A80FF015FD08A888
:1018D000FFF7ACFF7BE00498083000246B46282219
:1018E0009B181C7008A9FFF733FD08AB10931194E7
:1018F000082210A902A80FF0FFFC08A8FFF796FF26
:1019000065E004980599FFF781FF60E000205EE044
:101910000068083004AC002525722100FFF718FD8F
:1019200012941395082212A968460FF0E5FC227A5A
:101930007F231340043BDAB2082A40D89300274A99
:10194000D3589F4604AB187841E004980599FFF7F7
:1019500022FF3CE004980599FFF736FF37E00024AA
:101960006B4628229B181C7008A90498FFF7F0FC0E
:1019700008AB14931594082214A902A80FF0BCFC1C
:1019800008A8FFF753FF22E00498083000246B46B4
:1019900028229B181C7008A9FFF7DAFC08AB1693E5
:1019A0001794082216A902A80FF0A6FC08A8FFF7B2
:1019B0003DFF0CE004980599FFF728FF07E00020A1
:1019C00005E041680068FFF721FF00E0002019B042
:1019D00030BDC046BCB20110E0B2011004B301102A
:1019E00070B504000D000022084B0EF07DFE0028AB
:1019F00009D0074A074B200029000EF06DFE002891
:101A000002D0012000E0002070BDC0460000E0C10F
:101A10000000C0FFFFFFDF4170B504000D00FFF7BD
:101A2000DFFF002804D0200029000EF095FE70BDD5
:101A30000020FCE730B599B0027A7F231340043BC5
:101A4000DAB2082A00D9C5E09300644AD3589F4609
:101A50000078C0E041680068FFF780FEBBE04168A5
:101A60000068FFF785FEB6E0006804AC002525722B
:101A70002100FFF76DFC0C940D9508220CA9684617
:101A80000FF03AFC227A7F231340043BDAB2082A93
:101A900040D89300524AD3589F4604AB18789AE036
:101AA00004980599FFF75AFE95E004980599FFF709
:101AB0005FFE90E000246B4628229B181C7008A94A
:101AC0000498FFF745FC08AB0E930F9408220EA96B
:101AD00002A80FF011FC08A8FFF7ACFF7BE0049808
:101AE000083000246B4628229B181C7008A9FFF7B9
:101AF0002FFC08AB10931194082210A902A80FF034
:101B0000FBFB08A8FFF796FF65E004980599FFF72F
:101B100083FF60E000205EE00068083004AC002530
:101B200025722100FFF714FC12941395082212A9C4
:101B300068460FF0E1FB227A7F231340043BDAB2C0
:101B4000082A40D89300274AD3589F4604AB1878F8
:101B500041E004980599FFF701FE3CE004980599DF
:101B6000FFF706FE37E000246B4628229B181C7006
:101B700008A90498FFF7ECFB08AB1493159408220E
:101B800014A902A80FF0B8FB08A8FFF753FF22E042
:101B90000498083000246B4628229B181C7008A962
:101BA000FFF7D6FB08AB16931794082216A902A8D4
:101BB0000FF0A2FB08A8FFF73DFF0CE00498059981
:101BC000FFF72AFF07E0002005E041680068FFF703
:101BD00023FF00E0002019B030BDC04628B301103B
:101BE0004CB3011070B30110F0B5DE4657464E46B7
:101BF0004546E0B587B0040004AB00221A80059288
:101C000006001036437D002B04D0237D9846002328
:101C10006375BEE1B379002B0BD103695A1C0261D5
:101C20001B78002B0BDD002B0CDB33710123737150
:101C3000EBE7C04BC04A2521C0480DF0D1F8012286
:101C4000B271F0E70023F0E75E46A2E1B379002B22
:101C50000BD133685A1C32601B78002B0BDD002B34
:101C60000CDB33710123737197E1B24BB24A25212A
:101C7000B2480DF0B5F80122B271F0E70023F0E7A9
:101C8000B17900291AD133685A1C32601B78002BB5
:101C90001ADD002B1BDB337101237371227D002AB7
:101CA00000D1B1E1752A14D0A54B1D78002D00D1CB
:101CB0004FE1AA4200D14BE10233F6E79D4B9E4A29
:101CC00025219E480DF08CF80122B271E1E7002336
:101CD000E1E7002363750022002024E09D79002DB8
:101CE0000BD125696F1C27612D78002D0BDD002D90
:101CF0000CDB1D7101255D711CE08E4B8E4A252188
:101D00008E480DF06DF801279F71F0E70025F0E790
:101D1000303BDBB20F2B23D812011A4392B20023BF
:101D200063750130C0B203280ED823001033657DDF
:101D3000002DD3D0237D002B10D0402BE8D92025B7
:101D4000AB43373BDBB2E5E7002000280AD007B001
:101D5000F0BCBB46B246A946A046F0BD0220F4E75F
:101D60000320F2E7A0239B01D3189BB28020C00080
:101D7000834223D390239B01D3189BB28021C900B7
:101D80008B4220D305920121002900D101E1059B5E
:101D90007F2B25D9002202A90A703F211940803AE1
:101DA0000A4302A94A709B099AB21F2A5BD84022B3
:101DB000524213438B70CD1CB3468FE09205920DB7
:101DC00004AB1A80E0E704A90B889B029205920DF0
:101DD0001343802252029446634405930121D3E7C2
:101DE000DBB2009363689946002B03D0A568DB88BB
:101DF0009D420AD06368002B00D1CAE0A268511C42
:101E0000A1609B18009A1A72C3E023689B466D007C
:101E100001351B689A464B46002B0FD080235B028E
:101E20009D4211D253461B689B682A0009324946DD
:101E300050469847071E08D0C5800CE0414B424AE7
:101E4000312142480CF0CCFF002753461B685B68E9
:101E5000494650469847002F01D06760CAE70123E2
:101E60005A461371F9E73F21194080235B420B4327
:101E700002A98B7093090F2B06D8202252421343DC
:101E8000CB7003ADB34629E03F21194080235B426C
:101E90000B4302A9CB70120B10235B421A430A7149
:101EA0004D1DB3461AE0274B274A312127480CF035
:101EB00097FF0023009353461B685B683900504628
:101EC0009847009B002B30D0009B63606368002B19
:101ED00004D0A268511CA1609B181E72013D2E788F
:101EE000002E00D1B0E66768002FEFD0A368FA8813
:101EF0009342EBD1226891465B0001330193136852
:101F00009A46002FCFD080235B02019A9A42D0D20A
:101F100053461B689B680932390050469847009029
:101F20000028C8D0019AC280CBE701334A4613711A
:101F3000CAE7C046A8B30110B0B3011030B4011015
:101F400094B30110E8AF0110F8AF0110B0B0011068
:101F50005D78002D5AD00023637528E02D4B2E4A62
:101F600031212E480CF03CFF0023009353461B68A0
:101F70005B68390050469847009B002B39D0009B86
:101F800063606368002B04D0A268511CA1609B1899
:101F90001D72637D002B00D158E6257D00236375FB
:101FA000A8452AD0002D2DD05C2D00D168E66768A9
:101FB000002FE6D0A368FA889342E2D122689346C4
:101FC0005B000133994613689A46002FC6D08023E0
:101FD0005B029945C8D253461B689B684A46093242
:101FE00039005046984700900028BFD04A46C2802A
:101FF000C2E701335A461371C1E76368002B07D06B
:102000000020A4E60220A2E60220A0E603209EE62D
:1020100004209CE6E8AF0110F8AF0110B0B0011049
:10202000F0B5CE46474680B585B001900291039247
:102030001D0000280CD0002D10D0029B98462800CF
:1020400018F008F9814680450ED24746002426E064
:10205000244B254A162125480CF0C2FE244B224A67
:10206000172122480CF0BCFE0700EFE7214B224A63
:10207000732122480CF0B4FE214B1F4A74211F48E3
:102080000CF0AEFE1B4B1F4A23211C480CF0A8FE8F
:102090001B4B1C4A242119480CF0A2FE0134BC42FF
:1020A00016D2019B002BE1D0029A9442E4D81E5D27
:1020B000002DE7D0280018F0CDF88442E8D8285D3C
:1020C000B042EBD0301A05B0C0BCB946B046F0BD46
:1020D000C84502D304D80020F5E701204042F2E7CA
:1020E0000120F0E7ECAB011088B40110D4AD011071
:1020F00038AE011048AE011054AE0110A0AE011070
:1021000008AF011064B6011000B585B001910292CC
:102110000393030008001100039AFFF781FF404278
:1021200005B000BDF0B597B00D00037A7F241C40C8
:10213000E31EDAB23D2A62D89300374AD3589F464D
:102140004B680D930C900024200017B0F0BD4B6835
:102150000F930E900024F7E70068049000281DD02C
:1021600018F078F804AB059001221A722A6801ADC4
:102170002900C1CBC1C11068FEF7F1FF060029009C
:1021800010A8FEF7EDFF1099119A129B3000FFF78F
:10219000BBFF002804DBD7DC0124D5E70020E1E702
:1021A0000224D1E7036819000831DA8807AB0791E8
:1021B000089200221A722A6801AC210061CB61C129
:1021C0001068FEF7CCFF0500210013A8FEF7C8FF3A
:1021D0001399149A159B2800FFF796FF002804DB3B
:1021E00001DC0124B0E70424AEE70224ACE7036875
:1021F0001A000832DB880A920B930024A4E72B68AC
:102200001868FEF7ACFF002801D000249CE70124E9
:102210009AE7002498E7C046BCB6011000B585B027
:1022200000900191002807D00292019B039302A91C
:10223000FFF778FF05B000BD1068FEF790FF00289B
:1022400001D00020F6E70130F4E700B585B000903A
:1022500001911368039303AAFFF7E0FF05B000BDE7
:10226000F0B5C64600B505000E0000280BD00029C9
:102270000FD017F0EFFF8046300017F0EBFF8045DE
:102280003CD1002424E0204B204A312120480CF08E
:10229000A7FD204B1D4A32211D480CF0A1FD1E4B0D
:1022A0001E4A23211E480CF09BFD1E4B1B4A242175
:1022B0001B480CF095FD184B184A232118480CF0C8
:1022C0008FFD184B154A242115480CF089FD013467
:1022D000444517D2002DE2D0280017F0BBFF8442FE
:1022E000E3D82F5D002EE6D0300017F0B3FF844214
:1022F000E7D8335DBB42EAD0002000E0002080BC7C
:10230000B846F0BD0120FAE7ECAB0110B4B70110FC
:10231000D4AD011038AE011048AE011064B6011002
:10232000A0AE011008AF0110F0B583B00700150092
:102330001E00002A1DD009881A000C32424B994217
:102340002AD088093F230B40948CA04218D2126AED
:10235000C00012185088834218D252681B01D3184B
:1023600000936A469180002B18D05B896A46D3801F
:1023700037E000230360013B8380380003B0F0BDE9
:10238000324B334A622133480CF02AFD324B334A38
:10239000302133480CF024FD0023E1E72A4BE5E728
:1023A000304B314A152131480CF01AFD6B463A008A
:1023B00003CB03C2E1E72E4B2E4A2B212B480CF016
:1023C0000FFD224B224A622122480CF009FD224BCC
:1023D000224A302122480CF003FD002129E04B89DC
:1023E000D380009B002B2AD0DAD0D868FEF7B7FE46
:1023F00001002800FFF734FF0028D7D16B469A88E8
:10240000114B9A42D7D06B46DB8830000C300E4A15
:102410009342E2D09A093F211940848CA242D0D243
:10242000006AD200821850888142D0D254680901D3
:10243000611800916A4693800029D0D1D1E700232A
:102440003B60013BBB8098E7FFFF000048A60110FE
:102450005CA60110ECA6011050A701105CA70110AA
:10246000E8A701105CA9011094B90110E0B90110AE
:1024700044BA01105CBA011070B584B0050046681A
:10248000C068FEF76CFE0400AD68002E2DD0337AD4
:102490009B0621D5002E28D0002C1FD031882A0081
:1024A0000C32474B99422FD088093F230B40968C22
:1024B000B0421DD2126AC0001218508883421DD249
:1024C00052681B01D31800936A469180002B1DD0DF
:1024D0005B896A46D3803DE00026DBE70023029358
:1024E00002AB012252429A80029E300004B070BDBD
:1024F000344B354A622135480CF072FC344B354A76
:10250000302135480CF06CFC0023DCE72C4BE0E775
:10251000324B334A152133480CF062FC08226946DD
:1025200002A80EF0E9FEDFE72F4B304A2B212D48A1
:102530000CF056FC234B244A622124480CF050FC3A
:10254000234B244A302124480CF04AFC002329E084
:102550005B89D380009B002B2AD0D9D0D868FEF7A6
:10256000FEFD01002000FFF77BFE0028D6D16B4660
:102570009A88134B9A42D7D06B46D98828000C30E2
:102580000F4B9942E2D08A093F230B40868CB2421E
:10259000D0D2006AD200821850888342D0D25268CA
:1025A0001B01D31800936A469180002BD0D1D1E74C
:1025B0000023029302AB012252429A8094E7C04664
:1025C000FFFF000048A601105CA60110ECA6011058
:1025D00050A701105CA70110E8A701105CA9011029
:1025E00094B90110E0B9011044BA01105CBA0110AD
:1025F000F0B59FB00500076838374068FEF7AFFDBB
:1026000004002E68002F2DD03B7A9B0621D5002F89
:1026100028D0002C1FD0398832000C32B44B99429C
:1026200043D088093F230B40978CB84231D2126ABD
:10263000C00012185088834231D252681B01D3184F
:102640000A930AAA9180002B31D05A890AABDA800A
:1026500052E00027DBE70023109310AB0122524227
:102660009A80109F2B680E970F9308220EA9684638
:102670000EF042FE002F00D137E13A7A7F2313405B
:10268000043BDAB2082A00D92DE19300994AD358C5
:102690009F46994B994A622199480CF0A1FB994BAE
:1026A000994A302199480CF09BFB0023C8E7904AD7
:1026B000CCE7974B974A152197480CF091FB0822DD
:1026C0000AA910A80EF018FECBE7944B944A2B21D0
:1026D00091480CF085FB884B884A622188480CF0B1
:1026E0007FFB884B884A302188480CF079FB002317
:1026F0002AE05A890AABDA800A9B002B2AD0D8D06C
:10270000D868FEF72CFD01002000FFF7A9FD002886
:10271000D5D10AAB9A88764B9A42D6D00AABD988E3
:1027200030000C30724B9942E1D08A093F230B40B4
:10273000878CBA42CFD2006AD20082185088834276
:10274000CFD252681B01D3180A930AAA9180002B9A
:10275000CFD1D1E70023109310AB012252429A80CF
:102760007FE73878C2E038687968FFF714F8BDE091
:1027700038687968FFF728F8B8E0386806AC0025B3
:1027800025722100FEF7E4FD12941395082212A988
:1027900002A80EF0B1FD227A7F231340043BDAB287
:1027A000082A40D893005F4AD3589F4606AB187852
:1027B0009CE006980799FEF7EEFF97E006980799C8
:1027C000FFF702F892E000246B4630229B181C7041
:1027D0000AA90698FEF7BCFD0AAB149315940822CB
:1027E00014A904A80EF088FD0AA8FFF71FF87DE0E1
:1027F0000698083000246B4630229B181C700AA9EA
:10280000FEF7A6FD0AAB16931794082216A904A892
:102810000EF072FD0AA8FFF709F867E0069807991D
:10282000FEF7F4FF62E0002060E03868083006AC94
:10283000002525722100FEF78BFD189419950822BA
:1028400018A902A80EF058FD227A7F231340043BFA
:10285000DAB2082A40D89300334AD3589F4606ABD1
:10286000187843E006980799FEF795FF3EE0069832
:102870000799FEF7A9FF39E000246B4630229B1828
:102880001C700AA90698FEF763FD0AAB1A931B9405
:1028900008221AA904A80EF02FFD0AA8FEF7C6FF09
:1028A00024E00698083000246B4630229B181C70E8
:1028B0000AA9FEF74DFD0AAB1C931D9408221CA922
:1028C00004A80EF019FD0AA8FEF7B0FF0EE0069866
:1028D0000799FEF79BFF09E0002007E03868796858
:1028E000FEF794FF02E0002000E000201FB0F0BDE2
:1028F000FFFF0000D0BA011048A601105CA601102D
:10290000ECA6011050A701105CA70110E8A7011068
:102910005CA9011094B90110E0B9011044BA01108A
:102920005CBA0110F4BA011018BB0110F0B59FB0E9
:1029300005004768C068FEF712FC0400AE68002F6F
:102940002DD03B7A9B0621D5002F28D0002C1FD0FC
:10295000398832000C32B54B994243D088093F2365
:102960000B40978CB84231D2126AC00012185088BE
:10297000834231D252681B01D3180A930AAA91806C
:10298000002B31D05A890AABDA8052E00027DBE70E
:102990000023109310AB012252429A80109FAB6823
:1029A0000E970F9308220EA968460EF0A5FC002F83
:1029B00000D137E13A7A7F231340043BDAB2082A88
:1029C00000D92DE193009A4AD3589F46994B9A4AD1
:1029D00062219A480CF004FA994B9A4A30219A489D
:1029E0000CF0FEF90023C8E7904ACCE7974B984AD1
:1029F000152198480CF0F4F908220AA910A80EF045
:102A00007BFCCBE7944B954A2B2192480CF0E8F9DC
:102A1000884B894A622189480CF0E2F9884B894A3F
:102A2000302189480CF0DCF900232AE05A890AABEE
:102A3000DA800A9B002B2AD0D8D0D868FEF78FFB0B
:102A400001002000FFF70CFC0028D5D10AAB9A88C2
:102A5000764B9A42D6D00AABD98830000C30734BF3
:102A60009942E1D08A093F230B40878CBA42CFD2EA
:102A7000006AD200821850888342CFD252681B016C
:102A8000D3180A930AAA9180002BCFD1D1E7002353
:102A9000109310AB012252429A807FE73878C2E04F
:102AA00038687968FEF777FEBDE038687968FEF728
:102AB0008BFEB8E0386806AC002525722100FEF7D1
:102AC00047FC12941395082212A902A80EF014FCD8
:102AD000227A7F231340043BDAB2082A40D89300BD
:102AE0005F4AD3589F4606AB18789CE00698079932
:102AF000FEF751FE97E006980799FEF765FE92E013
:102B000000246B4630229B181C700AA90698FEF719
:102B10001FFC0AAB14931594082214A904A80EF004
:102B2000EBFB0AA8FEF782FE7DE006980830002441
:102B30006B4630229B181C700AA9FEF709FC0AABF1
:102B400016931794082216A904A80EF0D5FB0AA81C
:102B5000FEF76CFE67E006980799FEF757FE62E005
:102B6000002060E03868083006AC0025257221009E
:102B7000FEF7EEFB18941995082218A902A80EF08A
:102B8000BBFB227A7F231340043BDAB2082A40D8E9
:102B90009300344AD3589F4606AB187843E0069812
:102BA0000799FEF7F8FD3EE006980799FEF70CFE40
:102BB00039E000246B4630229B181C700AA9069845
:102BC000FEF7C6FB0AAB1A931B9408221AA904A8A5
:102BD0000EF092FB0AA8FEF729FE24E006980830C2
:102BE00000246B4630229B181C700AA9FEF7B0FB2C
:102BF0000AAB1C931D9408221CA904A80EF07CFBB0
:102C00000AA8FEF713FE0EE006980799FEF7FEFDF0
:102C100009E0002007E038687968FEF7F7FD02E078
:102C2000002000E000201FB0F0BDC046FFFF000004
:102C30003CBB011048A601105CA60110ECA60110D7
:102C400050A701105CA70110E8A701105CA90110B2
:102C500094B90110E0B9011044BA01105CBA011036
:102C600060BB011084BB0110F0B58BB00500019171
:102C70004768C068FEF773FA0400AE68002F2DD0D5
:102C80003B7A9B0621D5002F28D0002C1FD03988F5
:102C900032000C32504B994241D088093F230B40FF
:102CA000978CB8422FD2126AC00012185088834203
:102CB0002FD252681B01D318029302AA9180002BD5
:102CC0002FD05A8902ABDA8050E00027DBE70023DF
:102CD000089308AB012252429A80089FAC6806977D
:102CE0000794082206A902A80EF006FB0497059493
:102CF00001AA38002100FFF7A8FA013843425841E1
:102D0000C0B20BB0F0BD354B354A622135480CF0EE
:102D100067F8354B354A302135480CF061F800230F
:102D2000CAE72D4ACEE7334B334A152133480CF01E
:102D300057F8082202A908A80EF0DEFACDE7304BBA
:102D4000304A2B212D480CF04BF8244B244A6221A9
:102D500024480CF045F8244B244A302124480CF038
:102D60003FF800232AE05A8902ABDA80029B002B4D
:102D70002AD0D8D0D868FEF7F2F901002000FFF77A
:102D80006FFA0028D5D102AB9A88134B9A42D6D05D
:102D900002ABD98830000C300F4B9942E1D08A0940
:102DA0003F230B40878CBA42CFD2006AD2008218F0
:102DB00050888342CFD252681B01D318029302AAD3
:102DC0009180002BCFD1D1E70023089308AB0122DB
:102DD00052429A8081E7C046FFFF000048A60110DA
:102DE0005CA60110ECA6011050A701105CA7011011
:102DF000E8A701105CA9011094B90110E0B9011015
:102E000044BA01105CBA0110F0B5CE46474680B511
:102E100087B081460D000B6838229446634498467B
:102E20004868FEF79CF904002F684346002B30D019
:102E30001B7A9B0622D54346002B2AD0002C20D09B
:102E400019883A000C32554B994248D088093F23E3
:102E50000B40968CB04236D2126AC00012185088CD
:102E6000834236D252681B01D31800936A46918080
:102E7000002B36D05B896A46D38056E00023984603
:102E8000D9E70023049304AB012252429A80049BA9
:102E900098462C68434602930394082202A9684688
:102EA0000EF02AFA4346002B03D01B7A9B0600D46F
:102EB00070E043464A4613605460484607B0C0BCC1
:102EC000B946B046F0BD364B364A622136480BF063
:102ED00087FF364B364A302136480BF081FF0023FE
:102EE000C3E72E4BC7E7344B344A152134480BF067
:102EF00077FF0822694604A80EF0FEF9C7E7314BB8
:102F0000314A2B212E480BF06BFF254B254A6221BD
:102F100025480BF065FF254B254A302125480BF04D
:102F20005FFF002329E05B89D380009B002B2AD020
:102F3000D9D0D868FEF713F901002000FFF790F907
:102F40000028D6D16B469A88144B9A42D7D06B464C
:102F5000D98838000C30114B9942E2D08A093F23BE
:102F60000B40868CB242D0D2006AD20082185088C0
:102F70008342D0D252681B01D31800936A469180D5
:102F8000002BD0D1D1E70023049304AB012252429D
:102F90009A807CE7002398468BE7C046FFFF00003D
:102FA00048A601105CA60110ECA6011050A7011064
:102FB0005CA70110E8A701105CA9011094B90110E9
:102FC000E0B9011044BA01105CBA0110F0B5CE4668
:102FD000474680B587B081460D004B689846C86863
:102FE000FEF7BDF80400AF684346002B30D01B7AD3
:102FF0009B0622D54346002B2AD0002C20D01988CE
:103000003A000C32544B994248D088093F230B4078
:10301000968CB04236D2126AC00012185088834291
:1030200036D252681B01D31800936A469180002B58
:1030300036D05B896A46D38056E000239846D9E7AC
:103040000023049304AB012252429A80049B9846C9
:10305000AC68434602930394082202A968460EF026
:103060004BF94346002B03D01B7A9B0600D470E03B
:1030700043464A4613605460484607B0C0BCB94650
:10308000B046F0BD354B364A622136480BF0A8FEFB
:10309000354B364A302136480BF0A2FE0023C3E7F9
:1030A0002D4BC7E7334B344A152134480BF098FEBB
:1030B0000822694604A80EF01FF9C7E7304B314AD1
:1030C0002B212E480BF08CFE244B254A62212548EB
:1030D0000BF086FE244B254A302125480BF080FE5C
:1030E000002329E05B89D380009B002B2AD0D9D014
:1030F000D868FEF734F801002000FFF7B1F8002887
:10310000D6D16B469A88144B9A42D7D06B46D98851
:1031100038000C30104B9942E2D08A093F230B4013
:10312000868CB242D0D2006AD20082185088834284
:10313000D0D252681B01D31800936A469180002BAD
:10314000D0D1D1E70023049304AB012252429A80EC
:103150007CE7002398468BE7FFFF000048A601109C
:103160005CA60110ECA6011050A701105CA701108D
:10317000E8A701105CA9011094B90110E0B9011091
:1031800044BA01105CBA0110F0B587B005000768B9
:1031900038374068FDF7E3FF04002E68002F2DD07C
:1031A0003B7A9B0621D5002F28D0002C1FD03988D0
:1031B00032000C325D4B994241D088093F230B40CD
:1031C000978CB8422FD2126AC000121850888342DE
:1031D0002FD252681B01D31800936A469180002BAE
:1031E0002FD05B896A46D3804FE00027DBE70023BE
:1031F000049304AB012252429A80049F2B680297E9
:103200000393082202A968460EF076F8002F00D139
:103210008AE03A7A7F2313400C2B00D981E09B008F
:10322000434AD3589F46434B434A622143480BF0DD
:10323000D7FD434B434A302143480BF0D1FD0023D7
:10324000CAE73A4BCEE7414B414A152141480BF0C2
:10325000C7FD0822694604A80EF04EF8CDE73E4BA4
:103260003E4A2B213B480BF0BBFD324B324A6221D8
:1032700032480BF0B5FD324B324A302132480BF068
:10328000AFFD002329E05B89D380009B002B2AD06F
:10329000D9D0D868FDF763FF01002000FEF7E0FFFA
:1032A0000028D6D16B469A88204B9A42D7D06B46DD
:1032B000D98830000C301D4B9942E2D08A093F2357
:1032C0000B40878CBA42D0D2006AD2008218508854
:1032D0008342D0D252681B01D31800936A46918072
:1032E000002BD0D1D1E70023049304AB012252423A
:1032F0009A8082E7002015E0387813E038687B6810
:103300001843431E9841C0B20CE038687968012424
:10331000002200230DF0D2F9002800D00024E0B2F2
:1033200000E0012007B0F0BD0020FBE7FFFF000038
:10333000A8BB011048A601105CA60110ECA6011064
:1033400050A701105CA70110E8A701105CA90110AB
:1033500094B90110E0B9011044BA01105CBA01102F
:10336000F0B5C64600B5A0B0040088464768C068FE
:10337000FDF7F5FE0500A668002F2DD03B7A9B06D1
:1033800021D5002F28D0002D1FD0398832000C32D3
:10339000CA4B99425FD088093F230B40978CB842B3
:1033A0004DD2126AC0001218508883424DD2526822
:1033B0001B01D3180A930AAA9180002B4DD05A8979
:1033C0000AABDA806EE00027DBE70023109310AB36
:1033D000012252429A80109F0E97A3680F930822F1
:1033E0000EA90AA80DF088FF002F00D15FE13A7AFC
:1033F0007F231340082B00D189E00A2B00D18BE0FA
:103400000020002800D152E12000FFF735F8050028
:10341000A36812901393082212A968460DF06CFF5E
:10342000002D00D141E12A7A7F231340043BDAB218
:10343000082A00D937E19300A14AD3589F46A14BEF
:10344000A14A6221A1480BF0CBFCA14BA14A30213B
:10345000A1480BF0C5FC0023ACE7984AB0E79F4BAE
:103460009F4A15219F480BF0BBFC08220AA910A80F
:103470000DF042FFAFE79C4B9C4A2B2199480BF083
:10348000AFFC904B904A622190480BF0A9FC904B06
:10349000904A302190480BF0A3FC00232AE05A897F
:1034A0000AABDA800A9B002B2AD0D8D0D868FDF767
:1034B00056FE01002800FEF7D3FE0028D5D10AAB46
:1034C0009A887E4B9A42D6D00AABD98830000C300D
:1034D0007A4B9942E1D08A093F230B40878CBA424C
:1034E000CFD2006AD200821850888342CFD252686D
:1034F0001B01D3180A930AAA9180002BCFD1D1E7E0
:103500000023109310AB012252429A8063E738687F
:103510007968FEF70DF974E738687968FEF713F9F2
:103520006FE72878C5E028686968FEF717F9C0E0FA
:1035300028686968FEF71CF9BBE0286806AC00251E
:1035400025722100FDF704FF14941595082214A993
:1035500002A80DF0D1FE227A7F231340043BDAB299
:10356000082A40D89300624AD3589F4606AB187881
:103570009FE006980799FEF7F1F89AE006980799F8
:10358000FEF7F6F895E000246B4630229B181C707D
:103590000AA90698FDF7DCFE0AAB169317940822D9
:1035A00016A904A80DF0A8FE0AA8FEF743FA80E0C9
:1035B0000698083000246B4630229B181C700AA91C
:1035C000FDF7C6FE0AAB18931994082218A904A89F
:1035D0000DF092FE0AA8FEF72DFA6AE00698079908
:1035E000FEF71AFA65E0002063E02868083006ACB0
:1035F000002525722100FDF7ABFE1A941B950822C9
:103600001AA902A80DF078FE227A7F231340043B0A
:10361000DAB2082A40D89300364AD3589F4606AB00
:10362000187846E006980799FEF798F841E0069862
:103630000799FEF79DF83CE000246B4630229B186A
:103640001C700AA90698FDF783FE0AAB1C931D9413
:1036500008221CA904A80DF04FFE0AA8FEF7EAF9FB
:1036600027E00698083000246B4630229B181C7017
:103670000AA9FDF76DFE0AAB1E931F9408221EA92E
:1036800004A80DF039FE0AA8FEF7D4F911E0069857
:103690000799FEF7C1F90CE000200AE02868696884
:1036A000FEF7BAF905E0002003E0002001E0434600
:1036B000186820B080BCB846F0BDC046FFFF0000CF
:1036C000DCBB011048A601105CA60110ECA601109D
:1036D00050A701105CA70110E8A701105CA9011018
:1036E00094B90110E0B9011044BA01105CBA01109C
:1036F00000BC011024BC0110F0B5C64600B5A2B054
:1037000004008846076838374068FDF728FD050043
:103710002668002F2DD03B7A9B0621D5002F28D07C
:10372000002D1FD0398832000C32B74B994266D039
:1037300088093F230B40978CB84254D2126AC000CC
:1037400012185088834254D252681B01D318109328
:1037500010AA9180002B54D05A8910ABDA8075E002
:103760000027DBE70023169316AB012252429A8012
:10377000169F149723681593082214A910A80DF01A
:10378000BBFD002F00D138E13B7A1B0700D434E1A8
:10379000256838356068FDF7E2FC02002368002DDB
:1037A0000AD0297A890600D485E0002D04D02900AA
:1037B0001AA8FEF7B9FD1A9D2368189519930822D7
:1037C00018A968460DF098FD002D00D112E12A7A63
:1037D0007F231340043BDAB2082A00D907E19300A3
:1037E0008A4AD3589F468A4B8A4A62218A480BF0FC
:1037F000F7FA8A4B8A4A30218A480BF0F1FA002303
:10380000A5E7814AA9E7884B884A152188480BF02B
:10381000E7FA082210A916A80DF06EFDA8E7854B5F
:10382000854A2B2182480BF0DBFA794B794A6221D9
:1038300079480BF0D5FA794B794A302179480BF069
:10384000CFFA00232AE05A8910ABDA80109B002BB4
:103850002AD0D8D0D868FDF782FC01002800FEF7F6
:10386000FFFC0028D5D110AB9A88674B9A42D6D07E
:1038700010ABD98830000C30634B9942E1D08A09F3
:103880003F230B40878CBA42CFD2006AD200821805
:1038900050888342CFD252681B01D318109310AACC
:1038A0009180002BCFD1D1E70023169316AB0122D4
:1038B00052429A805CE7002577E728780CF030FFC9
:1038C0009EE0286869680CF083FF99E028686968C1
:1038D0000CF072FF94E02868083000246B46282220
:1038E0009B181C7008A9FDF733FD08AB1C931D94B1
:1038F00008221CA902A80DF0FFFC029A002A70D031
:10390000117A7F230B40043BD9B2082966D88B007B
:103910004A49CB589F4610780CF002FF70E01068BF
:1039200051680CF055FF6BE0106851680CF044FFD3
:1039300066E01068083000246B4638229B181C7023
:103940000CA9FDF705FD0CAB1E931F9408221EA9C0
:1039500004A80DF0D1FC049A002A39D0117A7F23F3
:103960000B40043BD9B208292FD88B003449CB58DF
:103970009F4610780CF0D4FE42E0106851680CF0BD
:1039800027FF3DE0106851680CF016FF38E0106822
:10399000083000246B4648229B181C7010A9FDF7C4
:1039A000D7FC10AB20932194082220A906A80DF083
:1039B000A3FC0698A04202D0FDF77CFE20E0002088
:1039C00000211DE0106851681AE00020002117E076
:1039D0000020002114E01068516811E0002000214F
:1039E0000EE0002000210BE02868696808E0002054
:1039F000002105E00020002102E0434618685968D4
:103A000022B080BCB846F0BDFFFF000048BC0110EA
:103A100048A601105CA60110ECA6011050A70110E9
:103A20005CA70110E8A701105CA9011094B901106E
:103A3000E0B9011044BA01105CBA01106CBC01106D
:103A400090BC0110F0B5DE4657464E464546E0B5FF
:103A50008FB0040005916A46D374DBB2002B01D10C
:103A600000F057FC03001033427D002A27D0237D4D
:103A70007B2B3ED10023637523001033627D002A27
:103A80003DD0237D002B54D0202B09D8092B07D300
:103A9000093BDBB201229A401300B54A134251D1CF
:103AA0000123237300230393039B002B4DD0039822
:103AB0000FB0F0BCBB46B246A946A046F0BD9A790D
:103AC000002A0BD10269511C01611278002A0BDD1A
:103AD000002A0CDB1A7101225A71C8E7A54BA64ACD
:103AE0002521A6480BF07CF901219971F0E700220D
:103AF000F0E7A34BA34AF321A3480BF071F99A799D
:103B0000002A0BD12269511C21611278002A0BDD99
:103B1000002A0CDB1A7101225A71B2E7954B964AC2
:103B2000252196480BF05CF901219971F0E70022FC
:103B3000F0E7237B002B02D101230393B4E7022398
:103B40000393B1E70023637596E723001033627D8A
:103B5000002A07D0237D7D2B1ED1002363750133FE
:103B600001931BE09A79002A0BD12269511C216133
:103B70001278002A0BDD002A0CDB1A7101225A711F
:103B8000E8E77C4B7C4A25217C480BF029F9012190
:103B90009971F0E70022F0E700230193019B002BCD
:103BA00000D122E283E72568286803681B68282182
:103BB0009847002803D01F23C3801E3B8380002822
:103BC00001D0606017E201232B71FAE79A79002A8D
:103BD0000BD12269511C21611278002A0BDD002AC9
:103BE0000CDB1A7101225A710BE2624B624A2521E9
:103BF00062480BF0F5F801219971F0E70022F0E737
:103C000043469B79002B0CD123695A1C22611B78F7
:103C1000002B0CDD002B0EDB424613710123537188
:103C2000FDE1544B544A252154480BF0D9F80122A8
:103C300041468A71EEE70023EEE7E321534B544AF5
:103C4000490051480BF0CCF80123029304E0012312
:103C5000029301E0019B0293029B002B00D182E0C2
:103C6000474656E001230293F6E7226891465B003F
:103C70000133984613689B46002E11D080235B02C7
:103C8000984513D25B461B689B6842460932310057
:103C900058469847824600280AD04246C2800DE026
:103CA0003C4B3D4A31213D480BF09AF800239A469F
:103CB0005B461B685B683100584698475346002BAB
:103CC00002D0534663602DE001334A461371F8E792
:103CD000BB79002B0BD13B685A1C3A601B78002B38
:103CE0000BDD002B0CDB3B7101237B7125E0214BAD
:103CF000214A252121480BF073F80122BA71F0E71F
:103D00000023F0E7029B02E0029B00E0019B002BF6
:103D100024D0002363756668002E03D0A368F28860
:103D20009342A2D06368002B04D0A268511CA1600A
:103D30009B181D72637D002BCAD0257D2F2D01D9C4
:103D4000392DDFD95E2D01D97A2DDDD9402DDDD970
:103D50005A2D01D9019BDAE7029BD8E76368002B53
:103D600003D003981FE003201DE004201BE0C046A1
:103D700013008000A8B30110B0B3011030B40110DB
:103D8000B4BC0110C8BC011028BE0110F8D5011048
:103D900088BE0110E8AF0110F8AF0110B0B00110FB
:103DA0002000FDF721FF002800D098E22300103307
:103DB000627D002A20D0237D002B37D0202B09D80C
:103DC000092B07D3093BDBB201229A401300B74A03
:103DD000134232D101232373002800D082E2230052
:103DE0001033627D002A2BD0237D3A2B42D1002351
:103DF0006375013398463FE09A79002A0BD1226916
:103E0000511C21611278002A0BDD002A0CDB1A718B
:103E100001225A71CFE7A64BA64A2521A6480AF0EF
:103E2000DFFF01219971F0E70022F0E7237B002BEF
:103E300001D10120D0E70220CEE700236375B5E76A
:103E40009A79002A0BD12269511C21611278002A2B
:103E50000BDD002A0CDB1A7101225A71C4E7944B66
:103E6000944A252194480AF0BBFF01219971F0E79B
:103E70000022F0E7019B98464346002B00D134E234
:103E80006368002B33D0A2689446634400221A7200
:103E90006068083009AB0990A1680A911A72FDF7B1
:103EA0005EF9051EA66928D0059B198832000C32E0
:103EB000824B994200D1D5E088093F230B40978C73
:103EC000B84200D3C2E0126AC00012185088834280
:103ED00000D3C1E052681B01D318079307AA918051
:103EE000002B00D1C0E05A8907ABDA8007E1744BA0
:103EF000744A452174480AF073FF00230C930CABFD
:103F0000012252429A800C9D002D00D12CE1A16922
:103F10002800FCF70BFB2B7A7F2293432B726B4616
:103F2000DB7C002B00D156E1013BDBB200222900F3
:103F3000200000F015FA002800D0DAE12300103349
:103F4000627D002A00D14CE1237D002B00D162E18B
:103F5000202B0AD8092B08D3093BDBB201229A4057
:103F60001300524A134200D05CE10123237300285E
:103F700000D0C1E123001033627D002A00D154E15A
:103F8000237D7D2B00D06AE1002363754346002B1F
:103F900000D0B4E122001032617D002900D160E13F
:103FA000227D2C2A02D1002363754346002B00D1C9
:103FB000A8E123001033627D002A00D16BE1237D4C
:103FC000002B00D181E1202B0AD8092B08D3093B13
:103FD000DBB201229A401300344A134200D07BE145
:103FE00001232373002800D090E10023A3606368BD
:103FF000002B00D1D7E523001033627D002A00D1C9
:10400000E4E5237D272B00D1CAE6222B00D1C7E6A9
:1040100010239846A044637D002B00D1F0E5257D58
:10402000002D00D109E62F2D02D9392D00D80BE63D
:104030005E2D02D97A2D00D809E6402D00D809E678
:104040005A2D00D80EE6019B029305E61F4B204A2D
:10405000622120480AF0C4FE1F4B204A302120482C
:104060000AF0BEFE002338E7144A3DE71D4B1E4A06
:1040700015211E480AF0B4FE0CAA07AB03CB03C2FD
:1040800041E71B4B1B4A2B2118480AF0A9FE0F4B96
:104090000F4A62210F480AF0A3FE0F4B0F4A30214E
:1040A0000F480AF09DFE002351E0C0461300800037
:1040B000A8B30110B0B3011030B40110FFFF00002D
:1040C00014AF01104CBF011088AF011048A60110B9
:1040D0005CA60110ECA6011050A701105CA701100E
:1040E000E8A701105CA9011094B90110E0B9011012
:1040F00044BA01105CBA01105A8907ABDA80079BF9
:10410000002B2AD0B2D0D868FDF729F8010028008A
:10411000FEF7A6F80028AFD107AB9A887F4B9A42EA
:10412000AFD007ABD98830000C307C4B9942BAD065
:104130008A093F230B40878CBA42A8D2006AD2007A
:10414000821850888342A8D252681B01D318079363
:1041500007AA9180002BCFD1D1E700230C930CABA1
:10416000012252429A80CEE62000FDF765F8061E35
:10417000A26918D0059907A8FCF7BAFA079D002D87
:104180000BD016D0002E1AD01FD0297A802252428E
:104190000A432A720836EE60079D002D00D0BEE665
:1041A0000423039383E45E4B5E4A0E215E480AF0CB
:1041B00017FE5E4B5E4A20215E480AF011FE5E4B00
:1041C0005B4A21215B480AF00BFE5C4B5C4A3A21BA
:1041D0005C480AF005FE5C4B5C4A13215C480AF01F
:1041E000FFFD9A79002A0BD12269511C21611278B6
:1041F000002A0BDD002A0CDB1A7101225A71A3E69A
:10420000544B554A252155480AF0EAFD0121997180
:10421000F0E70022F0E7237B002B01D10120A6E686
:104220000220A4E60023637588E69A79002A0BD160
:104230002269511C21611278002A0BDD002A0CDB57
:104240001A7101225A719BE6424B434A2521434889
:104250000AF0C6FD01219971F0E70022F0E7019B09
:1042600095E6917900290BD121694D1C25610978CA
:1042700000290BDD00290CDB1171012151718FE642
:10428000344B354A252135480AF0AAFD01259571A0
:10429000F0E70021F0E79A79002A0BD12269511C3E
:1042A00021611278002A0BDD002A0CDB1A71012231
:1042B0005A7184E6274B284A252128480AF090FDA8
:1042C00001219971F0E70022F0E7237B002B01D157
:1042D000012087E6022085E60023637569E60390E6
:1042E000FFF7E5FB0390FFF7E2FB03230393FFF7E0
:1042F000DEFB0390FFF7DBFB0390FFF7D8FB039097
:10430000FFF7D5FB03230393FFF7D1FB0390FFF7E0
:10431000CEFB05230393FFF7CAFBC046FFFF000057
:10432000A8BF0110B8BF011074C001105CA9011032
:10433000D0C00110E0B901103CC101104CC1011006
:1043400050C10110B4C1011014C2011020C20110EB
:10435000A8C20110A8B30110B0B3011030B401100D
:1043600070B504000E0022001032617D002928D0B3
:10437000227D002A3FD0202A09D8092A07D3093AEA
:10438000D2B2012191400A00B5490A423AD1012234
:1043900022730025002D00D083E022001032617DC1
:1043A000002932D0227D7B2A00D950E15B2A46D3F6
:1043B0005B3AD1B2202900D949E18A00A9498A583B
:1043C0009746917900290BD12169481C2061097811
:1043D00000290BDD00290CDB117101215171C7E7A8
:1043E000A14BA24A2521A2480AF0FAFC01209071B3
:1043F000F0E70021F0E7227B002A01D10125C9E77F
:104400000225C7E700226275ADE7917900290BD13B
:104410002169481C2061097800290BDD00290CDB8B
:10442000117101215171BDE78F4B904A25219048B0
:104430000AF0D6FC01209071F0E70021F0E7222A73
:1044400002D0272A00D002E10023A3606368002B7A
:104450003FD02000FDF7C8FB051E22D12000FCF74D
:10446000EBFE002848D0337A7F2293433372052233
:1044700013433372306014E0327A7F218A43327200
:1044800040210A433272002E05D000223280728011
:10449000013A3280728000223100200000F03CFAA4
:1044A0000500280070BD327A7F218A4332722021B4
:1044B0000A433272002E05D0002232807280013A07
:1044C00032807280002231002000FFF7BBFA050025
:1044D000E7E72568286803681B68282198470028B3
:1044E00003D01F23C3801E3B8380002801D060605F
:1044F000AFE701232B71FAE7AE215E4B5E4AFF3135
:104500005E480AF06DFC337A7F22934333720622B1
:104510001343337201233370594B14E0524B534A07
:10452000252153480AF05CFC012090711CE01171B8
:1045300001215171227D002A1AD019788A4219D19D
:104540000133002262751D78002DAAD0220010329E
:10455000617D0029EED191790029DFD12169481CC4
:10456000206109780029DFDD0029E0DA0021DEE79B
:10457000022596E7032594E7337A7F22934333722B
:10458000062213433372002333703E4B14E0364B44
:10459000364A252136480AF023FC012090711DE09F
:1045A000117101215171227D002A1BD019788A4294
:1045B0001AD10133002262751D78002D00D170E7F9
:1045C00022001032617D0029EDD191790029DED1E0
:1045D0002169481C206109780029DEDD0029DFDA25
:1045E0000021DDE702255CE703255AE7264B14E0AE
:1045F0001D4B1E4A25211E480AF0F2FB0120907136
:104600001DE0117101215171227D002A1BD0197802
:104610008A421AD10133002262751D78002D00D123
:104620003FE722001032617D0029EDD19179002908
:10463000DED12169481C206109780029DEDD0029CE
:10464000DFDA0021DDE702252BE7032529E721003A
:104650001031637D002B19D0227D2B004FE0C04626
:1046600013008000F4C30110A8B30110B0B301100F
:1046700030B401101CD6011028C3011094C30110DE
:1046800010C3011018C3011020C301108B79002B37
:104690000BD123695A1C22611B78002B0BDD002BE8
:1046A0000CDB0B7101234B71D6E72C4B2C4A2521D7
:1046B0002C480AF095FB01228A71F0E70023F0E70D
:1046C000012002E0012000E00120002838D03E2B2C
:1046D00036D800206075581CC0B2E3181A778B7961
:1046E000002B22D10B685A1C0A601B78002B22DD9C
:1046F000002B23DB0B7101234B71227D03002F2A3A
:1047000001D9392ADED92B2ADED02D2A07D02E2A2C
:1047100007D0652A07D0452AD2D00020D5E701204E
:10472000D3E70120D1E70120CFE70C4B0C4A25212C
:104730000C480AF055FB01228A71D9E70023D9E71A
:10474000E31800221A7720001C303100FCF700FE2D
:10475000002800D0A5E60325A3E6C046A8B30110B3
:10476000B0B3011030B40110F0B5D6464F464646FE
:10477000C0B59AB00600009101AB1A803823994663
:1047800081440300383305D007000C3703689A468C
:1047900000250CE0042075E053461B685B6850461A
:1047A000984700236360238063800135ADB2BB8CE2
:1047B000AB4207D9EC003B6A9C466444616800291F
:1047C000EAD1EEE70023BB84013B3B85396AB9425D
:1047D00007D053461B685B68504698473F620423E6
:1047E000FB840023337134000834356805E00B681E
:1047F00023602B685B682800984721680029F6D160
:10480000320038320023137203A80396436083609A
:104810000373009A026143758375866101AB5B780F
:1048200000224946FFF79CFD002808D103AB1B7D01
:10483000002B04D04B461B7A1B0700D50320051C18
:104840000499002904D0039B186803685B689847A3
:1048500034000C3433689846338E002B18D1216A0B
:10486000A1420ED0A28CE38C9A420AD043461B6828
:104870009B68D20040469847206200281DD0A38C38
:10488000E384281C1AB0E0BCBA46B146A846F0BD85
:104890000D4A94466344DF00236A9C4667444346BE
:1048A0001B689B687A8812017968404698470028FF
:1048B000D5D078607B883B80D1E7044B044A7F21C8
:1048C00004480AF08DFAC046FFFFFF1F78C40110AC
:1048D0008CC40110ECA6011010B582B004000800D1
:1048E000FCF7DAFEFCF7DAFE010001AB0A225A708F
:1048F0001B886A461380009A2000FFF735FF02B03C
:1049000010BD00B583B00191FCF734FC01A9FFF79D
:10491000E3FF03B000BD0000F0B583B004000F005A
:104920001D1CDBB2002B00D13CE103001033427DA3
:10493000002A1FD0237D5B2B36D100236375230013
:104940001033627D002A35D0237D002B4CD0202BE4
:1049500009D8092B07D3093BDBB201229A40130087
:10496000924A134247D1012323730020002845D0E7
:1049700003B0F0BD9A79002A0BD10269511C016184
:104980001278002A0BDD002A0CDB1A7101225A7101
:10499000D0E7874B874A252187480AF021FA012171
:1049A0009971F0E70022F0E7844B854A9D21854804
:1049B0000AF016FA9A79002A0BD12269511C21615A
:1049C0001278002A0BDD002A0CDB1A7101225A71C1
:1049D000BAE7774B774A252177480AF001FA012197
:1049E0009971F0E70022F0E7237B002B01D1012031
:1049F000BCE70220BAE700236375A0E72300103369
:104A0000627D002A08D0237D5D2B1FD100236375B2
:104A10000126002E7ED0ABE79A79002A0BD12269BD
:104A2000511C21611278002A0BDD002A0CDB1A715F
:104A300001225A71E7E75E4B5E4A25215E480AF083
:104A4000CFF901219971F0E70022F0E70026E0E7B5
:104A50005D4B5E4A13215E480AF0C2F99A79002A3A
:104A60000BD12269511C21611278002A0BDD002A2A
:104A70000CDB1A7101225A7165E04D4B4D4A25211C
:104A80004D480AF0ADF901219971F0E70022F0E7F5
:104A9000237B002B01D1012065E0022063E000238D
:104AA00063754BE09A79002A0BD12269511C216170
:104AB0001278002A0BDD002A0CDB1A7101225A71D0
:104AC00059E03B4B3B4A25213B480AF089F901213B
:104AD0009971F0E70022F0E7330052E09179002964
:104AE0000BD12169481C2061097800290BDD0029C0
:104AF0000CDB1171012151714BE02D4B2D4A252109
:104B00002D480AF06DF901209071F0E70021F0E7DF
:104B1000002B45D0A26939006846FBF7E9FD0099F2
:104B2000002941D0EBB2002B92D0013BDBB2002236
:104B30002000FFF715FC002800D019E723001033F0
:104B4000627D002A8AD0227D002AA1D0202A08D89E
:104B5000092A06D3093AD2B201239340134A1342D9
:104B60009DD101232373002800D001E723001033D7
:104B7000627D002A96D0237D5D2BADD10023637525
:104B80000133002B00D0F3E622001032617D0029B2
:104B9000A4D0227D2C2ABBD1002363750133B7E753
:104BA0000320E5E60520E3E60420E1E613008000AB
:104BB000A8B30110B0B3011030B40110F0C401105B
:104BC00004C5011028BE011014C2011020C201103A
:104BD000A8C20110F0B5C64600B5A2B004008846D0
:104BE000076838374068FCF7BAFA05002668002FD6
:104BF0002DD03B7A9B0621D5002F28D0002D1FD029
:104C0000398832000C32D04B99426FD088093F234B
:104C10000B40978CB8425DD2126AC00012185088BF
:104C200083425DD252681B01D3180A930AAA91806D
:104C3000002B5DD05A890AABDA807EE00027DBE7E3
:104C40000023109310AB012252429A80109F0E97BE
:104C500023680F9308220EA90AA80CF04DFB002F21
:104C600000D18FE13A7A7F231340082B00D199E0DD
:104C70000A2B00D19BE00020002800D182E12568AA
:104C800038356068FCF76BFA02002368002D0AD003
:104C9000297A890600D48FE0002D04D0290014A8B9
:104CA000FDF742FB149D236812951393082212A965
:104CB00068460CF021FB002D00D143E12A7A7F23C6
:104CC0001340043BDAB2082A00D939E193009F4A25
:104CD000D3589F469E4B9F4A62219F480AF080F816
:104CE0009E4B9F4A30219F480AF07AF800239CE7A8
:104CF000954AA0E79C4B9D4A15219D480AF070F803
:104D000008220AA910A80CF0F7FA9FE7994B9A4AD3
:104D10002B2197480AF064F88D4B8E4A62218E4809
:104D20000AF05EF88D4B8E4A30218E480AF058F812
:104D300000232AE05A890AABDA800A9B002B2AD08A
:104D4000D8D0D868FCF70BFA01002800FDF788FAE4
:104D50000028D5D10AAB9A887B4B9A42D6D00AABB1
:104D6000D98830000C30784B9942E1D08A093F2332
:104D70000B40878CBA42CFD2006AD200821850888A
:104D80008342CFD252681B01D3180A930AAA91809A
:104D9000002BCFD1D1E70023109310AB0122524258
:104DA0009A8053E738687968FCF7C2FC64E7386892
:104DB0007968FCF7C8FC5FE700256DE72878E3E039
:104DC00028686968FCF7CAFCDEE028686968FCF7B7
:104DD000CFFCD9E0286806AC002525722100FCF73D
:104DE000B7FA16941795082216A902A80CF084FAAF
:104DF000227A7F231340043BDAB2082A40D893007A
:104E00005E4AD3589F4606AB1878BDE006980799CE
:104E1000FCF7A4FCB8E006980799FCF7A9FCB3E0FE
:104E200000246B4630229B181C700AA90698FCF7D8
:104E30008FFA0AAB18931994082218A904A80CF049
:104E40005BFA0AA8FCF7F6FD9EE0069808300024FD
:104E50006B4630229B181C700AA9FCF779FA0AAB42
:104E60001A931B9408221AA904A80CF045FA0AA860
:104E7000FCF7E0FD88E006980799FCF7CDFD83E09C
:104E8000002081E02868083006AC0025257221004A
:104E9000FCF75EFA1C941D9508221CA902A80CF0D0
:104EA0002BFA227A7F231340043BDAB2082A40D837
:104EB0009300334AD3589F4606AB187864E00698AF
:104EC0000799FCF74BFC5FE006980799FCF750FC4C
:104ED0005AE000246B4630229B181C700AA90698E1
:104EE000FCF736FA0AAB1E931F9408221EA904A8E9
:104EF0000CF002FA0AA8FCF79DFD45E00698083080
:104F000000246B4630229B181C700AA9FCF720FA7B
:104F10000AAB20932194082220A904A80CF0ECF9F4
:104F20000AA8FCF787FD2FE006980799FCF774FDA7
:104F30002AE0002028E028686968FCF76DFD23E07E
:104F4000002021E000201FE0FFFF000064C60110E8
:104F500048A601105CA60110ECA6011050A7011094
:104F60005CA70110E8A701105CA9011094B9011019
:104F7000E0B9011044BA01105CBA011088C60110F2
:104F8000ACC601104346186822B080BCB846F0BDDC
:104F9000F0B5A1B0040087680069FCF7E0F80500EF
:104FA000E668002F2DD03B7A9B0621D5002F28D014
:104FB000002D1FD0398832000C32C74B994260D087
:104FC00088093F230B40978CB8424ED2126AC0002A
:104FD0001218508883424ED252681B01D3180A938C
:104FE0000AAA9180002B4ED05A890AABDA806FE072
:104FF0000027DBE70023109310AB012252429A8076
:10500000109F6069FCF7ABF80500E668002F00D13F
:105010009CE03B7A9B0600D48FE0002F00D195E006
:10502000002D00D18BE0398832000C32AA4B994216
:1050300000D1AEE088093F230B40978CB84200D3E3
:105040009BE0126AC00012185088834200D39AE095
:1050500052681B01D3180A930AAA9180002B00D131
:1050600099E05A890AABDA80BAE09C4B9C4A6221EB
:105070009C4809F0B5FE9C4B9C4A30219C4809F0A5
:10508000AFFE0023ABE7944AAFE79A4B9A4A15214B
:105090009A4809F0A5FE08220AA910A80CF02CF9DC
:1050A000AEE7974B974A2B21944809F099FE8B4B1A
:1050B0008B4A62218B4809F093FE8B4B8B4A30213F
:1050C0008B4809F08DFE00232AE05A890AABDA806A
:1050D0000A9B002B2AD0D8D0D868FCF740F80100F2
:1050E0002800FDF7BDF80028D5D10AAB9A887A4B85
:1050F0009A42D6D00AABD98830000C30764B994210
:10510000E1D08A093F230B40878CBA42CFD2006A94
:10511000D200821850888342CFD252681B01D31824
:105120000A930AAA9180002BCFD1D1E700231093D4
:1051300010AB012252429A8062E700276DE70023FC
:10514000129312AB012252429A80129FE3680E978B
:105150000F9308220EA968460CF0CEF8002F00D15C
:1051600053E13A7A7F231340043BDAB2082A00D98C
:1051700049E19300644AD3589F46584B584A6221EC
:10518000584809F02DFE584B584A3021584809F02C
:1051900027FE00235FE7504A64E7564B564A152125
:1051A000564809F01DFE08220AA912A80CF0A4F81E
:1051B000CBE7534B534A2B21504809F011FE474B84
:1051C000474A6221474809F00BFE474B474A3021C6
:1051D000474809F005FE00232AE05A890AABDA8025
:1051E0000A9B002B2AD0D8D0D868FBF7B8FF010063
:1051F0002800FDF735F80028D5D10AAB9A88364B40
:105200009A42D6D00AABD98832000C32324B99423E
:10521000E1D088093F230B40978CB842CFD2126A65
:10522000C000121850888342CFD252681B01D31895
:105230000A930AAA9180002BCFD1D1E700231293C1
:1052400012AB012252429A807FE73878DEE038685C
:105250007968FCF7A0FAD9E038687968FCF7B4FA05
:10526000D4E0386806AC002525722100FCF770F800
:1052700014941595082214A902A80CF03DF8227A7E
:105280007F231340043BDAB2082A5CD893001F4AFC
:10529000D3589F4606AB1878B8E006980799FCF7F4
:1052A0007AFAB3E006980799FCF78EFAAEE000248C
:1052B0006B4630229B181C700AA90698FCF748F828
:1052C0000AAB16931794082216A904A80CF014F838
:1052D0000AA8FCF7ABFA99E0FFFF000048A601100E
:1052E0005CA60110ECA6011050A701105CA70110EC
:1052F000E8A701105CA9011094B90110E0B90110F0
:1053000044BA01105CBA0110D0C60110F4C60110F5
:105310000698083000246B4630229B181C700AA99E
:10532000FCF716F80AAB18931994082218A904A8D8
:105330000BF0E2FF0AA8FCF779FA67E006980799F4
:10534000FCF764FA62E0002060E03868083006ACE0
:10535000002525722100FBF7FBFF1A941B950822FC
:105360001AA902A80BF0C8FF227A7F231340043B3E
:10537000DAB2082A40D89300254AD3589F4606AB94
:10538000187843E006980799FCF705FA3EE006987E
:105390000799FCF719FA39E000246B4630229B1874
:1053A0001C700AA90698FBF7D3FF0AAB1C931D9447
:1053B00008221CA904A80BF09FFF0AA8FCF736FAE4
:1053C00024E00698083000246B4630229B181C709D
:1053D0000AA9FBF7BDFF0AAB1E931F9408221EA962
:1053E00004A80BF089FF0AA8FCF720FA0EE0069843
:1053F0000799FCF70BFA09E0002007E038687968A4
:10540000FCF704FA02E0002000E0002021B0F0BD2B
:1054100018C70110F0B5C64600B596B0040088461E
:1054200085680069FBF79BFE0600E768002D2DD01C
:105430002B7A9B0621D5002D28D0002E1FD029883D
:105440003A000C32C64B994260D088093F230B408A
:10545000958CA8424ED2126AC0001218508883421E
:105460004ED252681B01D318049304AA9180002BDA
:105470004ED05A8904ABDA806FE00025DBE70023C9
:105480000A930AAB012252429A800A9D6069FBF797
:1054900066FE0600E768002D00D19CE02B7A9B0693
:1054A00000D48FE0002D00D195E0002E00D18BE0DC
:1054B00028883A000C32AA4B984200D1DCE08109DE
:1054C0003F230340958CA94200D3C9E0126AC9006A
:1054D000521851888B4200D3C8E052681B01D31880
:1054E000049304AA9080002B00D1C7E05A8904AB32
:1054F000DA80E8E09B4B9C4A62219C4809F070FCF2
:105500009B4B9C4A30219C4809F06AFC0023ABE786
:10551000934AAFE7994B9A4A15219A4809F060FCE3
:10552000082204A90AA80BF0E7FEAEE7964B974ABB
:105530002B21944809F054FC8A4B8B4A62218B48FA
:1055400009F04EFC8A4B8B4A30218B4809F048FC0D
:1055500000232AE05A8904ABDA80049B002B2AD06E
:10556000D8D0D868FBF7FBFD01003000FCF778FECF
:105570000028D5D104AB9A88794B9A42D6D004AB97
:10558000D88839000C31764B9842E1D082093F230C
:1055900003408D8CAA42CFD2096AD2008A18518862
:1055A0008B42CFD252681B01D318049304AA908077
:1055B000002BCFD1D1E700230A930AAB012252423C
:1055C0009A8062E700256DE700230C930CAB012263
:1055D00052429A800C9D0895E3680993082208A915
:1055E00004A80BF089FE002D00D103E12A7A7F2365
:1055F0001340082B00D19BE00A2B00D19DE0002036
:10560000002800D1F6E0201DFCF736FF0500606998
:10561000FBF7A5FD0200E368002D0AD0297A890670
:1056200000D48FE0002D04D0290010A8FCF77CFEE8
:10563000109DE3680E950F9308220EA968460BF0A3
:105640005BFE002D00D1D3E02A7A7F231340043B78
:10565000DAB2082A00D9C9E093004D4AD3589F46D0
:10566000404B414A6221414809F0BAFB404B414A54
:105670003021414809F0B4FB002331E7384A36E7CE
:105680003E4B3F4A15213F4809F0AAFB082204A9D6
:105690000CA80BF031FE9DE73B4B3C4A2B213948CF
:1056A00009F09EFB2F4B304A6221304809F098FBED
:1056B0002F4B304A3021304809F092FB00232AE07A
:1056C0005A8904ABDA80049B002B2AD0D8D0D86842
:1056D000FBF745FD01003000FCF7C2FD0028D5D1E5
:1056E00004AB9A881E4B9A42D6D004ABD9883A00B4
:1056F0000C321B4B9942E1D088093F230B40958C1B
:10570000A842CFD2126AC000121850888342CFD26A
:1057100052681B01D318049304AA9180002BCFD1A7
:10572000D1E700230C930CAB012252429A8051E73F
:1057300028686968FBF7FCFF62E728686968FCF77E
:1057400002F85DE700256DE7287855E0286869686C
:10575000FCF704F850E028686968FCF709F84BE0AA
:10576000FFFF000048A601105CA60110ECA6011086
:1057700050A701105CA70110E8A701105CA9011057
:1057800094B90110E0B9011044BA01105CBA0110DB
:105790003CC70110286800246B461C7604A9FBF75F
:1057A000D7FD04AB12931394082212A902A80BF0A0
:1057B000A3FD04A8FCF73EF91EE028680830002489
:1057C0006B461C7604A9FBF7C3FD04AB1493159438
:1057D000082214A902A80BF08FFD04A8FCF72AF9EF
:1057E0000AE028686968FCF717F905E0002003E083
:1057F000002001E04346186816B080BCB846F0BDF2
:10580000F0B5C64600B5A2B00400061D08239846B0
:10581000804443465F68D868FBF7A1FC0500434617
:105820009B689846002F31D03B7A9B0625D5002FE8
:105830002CD0002D23D0398842460C32C44B9942DB
:1058400000D19AE088093F230B40978CB84200D3DF
:1058500087E0126AC00012185088834200D386E0A5
:1058600052681B01D3180A930AAA9180002B00D119
:1058700085E05A890AABDA80A6E00027D7E7002343
:10588000109310AB012252429A80109F7069FBF76F
:1058900066FC0500F668002F00D1D3E03B7A9B063A
:1058A00000D4C6E0002F00D1CCE0002D00D1C2E032
:1058B000388832000C32A64B984200D1F7E08109BB
:1058C0003F230340978CB94200D3E4E0126AC90039
:1058D000521851888B4200D3E3E052681B01D31861
:1058E0000A930AAA9080002B00D1E2E05A890AAB01
:1058F000DA800A9B002B00D1FDE000D1DBE0D86804
:10590000FBF72DFC01002800FCF7AAFC002800D0C2
:10591000D7E00AAB9A888E4B9A4200D1D7E00AAB07
:10592000D98830000C308A4B994200D1E1E08A09D5
:105930003F230B40878CBA4200D3CEE0006AD200EE
:1059400082185088834200D3CDE052681B01D318DF
:105950000A930AAA9180002BCBD05A890AABDA802D
:10596000C7E77C4B7C4A62217C4809F039FA7C4BC2
:105970007C4A30217C4809F033FA002373E7744AEB
:1059800078E77A4B7A4A15217A4809F029FA0822F1
:105990000AA910A80BF0B0FC77E7774B774A2B21C8
:1059A000744809F01DFA6B4B6B4A62216B4809F091
:1059B00017FA6B4B6B4A30216B4809F011FA002340
:1059C0002AE05A890AABDA800A9B002B2AD0D8D069
:1059D000D868FBF7C4FB01002800FCF741FC002855
:1059E000D5D10AAB9A885A4B9A42D6D00AABD988FD
:1059F00042460C32564B9942E1D088093F230B4076
:105A0000978CB842CFD2126AC000121850888342D5
:105A1000CFD252681B01D3180A930AAA9180002B97
:105A2000CFD1D1E70023109310AB012252429A80CC
:105A30002BE7002736E70023129312AB01225242D4
:105A40009A80129FE5692669002F00D1C3E03B7A56
:105A50005B0657D5002F00D1BDE0398832000C32EB
:105A60003B4B99425CD088093F230B40978CB8424E
:105A70004AD2126AC0001218508883424AD2526831
:105A80001B01D318149314AA9180002B4AD05A8971
:105A900014ABDA8075E02F4B2F4A62212F4809F0B2
:105AA0009FF92F4B2F4A30212F4809F099F90023F5
:105AB00016E7274A1BE72D4B2D4A15212D4809F0E3
:105AC0008FF908220AA912A80BF016FCB9E72A4B95
:105AD0002A4A2B21274809F083F91E4B1E4A6221CE
