:020000041000EA
:1000000000B5324B212058609868022188439860DF
:10001000D860186158612E4B002199600221596106
:100020000121F02299502B49196001219960352056
:1000300000F044F80222904214D00621196600F024
:1000400034F8196E01211966002018661A6600F04E
:100050002CF8196E196E196E052000F02FF8012189
:100060000842F9D1002199601B49196000215960AB
:100070001A491B48016001219960EB211966A021F2
:10008000196600F012F800219960164914480160C1
:100090000121996001BC002800D000471248134993
:1000A000086003C880F30888084703B5996A0420EC
:1000B0000142FBD001200142F8D103BD02B5186610
:1000C0001866FFF7F2FF186E186E02BD00000240BE
:1000D000000000180000070000035F00212200005C
:1000E000F4000018222000A00001001008ED00E03C
:1000F00000000000000000000000000074B24E7A12
:1001000000200420F7010010C3010010C5010010F9
:10011000C1010010C1010010C1010010C101001097
:10012000C1010010C1010010C1010010C701001081
:10013000C1010010C1010010C9010010CB01001065
:10014000CD010010CD010010CD010010CD01001037
:10015000CD010010CD010010CD010010CD01001027
:10016000CD010010CD010010CD010010CD01001017
:10017000CD010010CD010010CD010010CD01001007
:10018000CD010010CD010010CD010010CD010010F7
:10019000CD010010CD010010CD010010CD010010E7
:1001A000CD010010CD010010CD010010CD010010D7
:1001B000CD010010CD010010CD010010CD010010C7
:1001C00000BE00BE00BE00BE00BE00BEEFF3058054
:1001D000103800BEF2EB8871981F0310CC1F03107B
:1001E0003802001090A31AE71E481F49086006C88D
:1001F00081F3088810471D480068002801D019487D
:10020000F3E70DA40ECC002902D000F012F8F9E7B4
:100210001749184A002000E001C19142FCD116495B
:100220008847164988471649884700BEFDE701C937
:1002300001C29A42FBD37047CC1F0310C0000020BC
:10024000C81C0020D43B0310000004200000042040
:10025000D43B031000100420001004200000000014
:10026000704700000000000008ED00E0000000D032
:10027000C81C0020E8910220A989011071260010F5
:100280006B890110F8B5C04606480749091A8B105A
:10029000C90FC91810B5491003D0044B002B00D06A
:1002A000984710BDC81C0020C81C0020000000009A
:1002B000054B10B5002B03D00449054800E000BFF2
:1002C000FFF7E2FF10BDC046000000007C330020B5
:1002D000108A021030B5032910D80023002406E04C
:1002E0000268D25C55426A4114430133DBB2CAB2A0
:1002F0009A42F5D801235C40E0B230BD0020FCE713
:10030000094B0A4A1A6000221A719A6019000C31CE
:10031000D9621A8604325A86053A9A8600203C2110
:100320005854DA877047C046FC2100207411002021
:1003300010B5C0218901024828F002FB10BDC0465B
:1003400000D01F0010B50100C0229201014828F022
:10035000DFFA10BD00D01F0010B50800110017F023
:100360005FF910BD10B5080017F072F910BD10B597
:10037000080017F03FF910BD10B5040008008023F5
:100380005B029C420DD221000931230009330AD2BD
:1003900003681B689847002802D0C480012383802B
:1003A00010BD0020FCE70020FAE70000F8B50700C8
:1003B0000D00140000280ED080235B02994210D259
:1003C00013689B680A000932010020009847061E46
:1003D00008D0C5800BE0074B074A0848332118F0C6
:1003E000C7FA002623685B68390020009847300070
:1003F000F8BDC046108A0210208A0210DC8A021062
:1004000010B50368002B04D042688A4207D3585CB9
:1004100010BD064B064A07482B2118F0A9FA064BD7
:10042000034A04482C2118F0A3FAC046388B021066
:10043000448B02108C8B0210F48B021070B50400F8
:100440000D0005E00B6823602B685B682800984767
:1004500021680029F6D170BD10B5002903D00368CA
:100460000B60016010BD034B034A0448433118F090
:100470007FFAC046108A0210AC8C0210508C021019
:1004800070B50368002504E01968016011E01D00E3
:100490001B68002B12D01C0008348C42F7D19988BD
:1004A000013989B29980002908D1002DECD0196852
:1004B000296011684C6819001000A04770BD000049
:1004C00010B50068002800D010BD034B034A044853
:1004D000272118F04DFAC0460C8D0210208D021015
:1004E0008C8D021070B504000D000B79042B0CD01C
:1004F000052B17D0022B1ED1080026F00BFD25601E
:10050000606000232372200070BD0D68002D07D0AD
:10051000280026F0FFFC2560606001232372F2E7CB
:100520000020F8E70B681A000832DB88026043609D
:1005300000230372E7E70023036043600133037283
:10054000E1E7000010B50379002B03D10623037106
:10055000017010BD034B044AD4210448FF3118F048
:1005600007FAC046F08D02100C8E0210508E021059
:1005700010B50379002B05D1002909D0052303719B
:10058000016010BD064B074A0748084918F0F0F90A
:10059000074B044A89310448890018F0E9F9C0463C
:1005A000F08D0210B08E0210508E02102302000057
:1005B0006CCD021010B50379002B08D140230371D4
:1005C000002303804380013B0380438010BD034B25
:1005D000034A8E210348890018F0CAF9F08D0210F1
:1005E0001C8F0210508E021010B50379002B08D119
:1005F00020230371002303804380013B0380438059
:1006000010BD034B034A0448044918F0B1F9C04631
:10061000F08D02107C8F0210508E021046020000F6
:1006200010B504004168002904D003681868036805
:100630005B689847200010BD70B5040000238360FC
:100640004368002B00D070BD056829681F20FFF7A4
:1006500093FE002801D06060F5E701232B71FAE7D3
:1006600070B504000D004068002803D0A168C3885D
:10067000994208D06368002B04D0A268511CA16085
:100680009B181D7270BD2668490001313268FFF762
:100690008DFE002801D06060ECE701233371FAE79A
:1006A00010B54B68002B0AD08A689B1800221A727A
:1006B0004B680833896803604160027210BD034BC8
:1006C000034A04484D2118F053F9C046E08F021048
:1006D000F48F02105090021000B587B00090019185
:1006E000002804D0010003A8FFF7FCFE039807B020
:1006F00000BD000010B50378052B03D8044A9B0009
:10070000985810BD034B044A0448452118F030F9AD
:100710005C110020B0900210F49002103C91021085
:1007200010B50078002802D00138C0B210BD034BCC
:10073000034A0448132118F01BF9C046AC9102107B
:10074000B891021044920210A0239B01CB189BB2D7
:100750008022D20093420AD390239B01CB189BB2F4
:100760008022D200934207D341600120704789055F
:10077000890D01800020F9E703889B028905890D16
:100780000B43802252029446634443600120EDE70C
:1007900010B50378022B02D1C168806810BD034BED
:1007A000034A0448532118F0E3F8C046AC92021003
:1007B000D09202103493021010B50378032B02D1AB
:1007C000C168806810BD034B034A0448582118F0E3
:1007D000CFF8C04694930210BC93021034930210D9
:1007E00010B50378012B01D1806810BD024B034A7C
:1007F00003485D2118F0BCF8209402103C940210CC
:100800003493021010B50378042B02D1C1688068BC
:1008100010BD034B034A0448632118F0A9F8C046F1
:100820007C940210989402103493021030B589B071
:100830000500324B32481860C0229201290026F090
:10084000B5F9002843D01DF0B1FB00240AE02000D8
:1008500014F0F8F801AB18550021200014F00CF941
:100860000134E4B2192CF2D9FA24E400254822001C
:10087000002115F0F7FB15F0D1FA234822002900DA
:1008800015F0F0FB002406E001AB195D200014F028
:10089000F3F80134E4B2192CF6D91DF059FC15F027
:1008A0007DF81A4A002315F057FD1000190016F0C4
:1008B0004BF80022164B15F05EFF02000B001548A6
:1008C00018F03CFA144818F009FA09B030BD15F0D8
:1008D00065F80E4A002315F03FFD1000190016F0D0
:1008E00033F800220A4B15F046FF02000B000948BE
:1008F00018F024FA094818F0F1F9E6E75811002039
:1009000000D01F10310300104503001040420F00BB
:1009100000408F40D8940210E4940210FC9402101E
:1009200010B5014813F066FF1895021010B5014884
:1009300013F060FF3495021010B515F02FF80E4A31
:10094000002315F009FD1000190015F0FDFF00222D
:100950000A4B15F010FF02000B00094818F0EEF9E1
:10096000084818F0BBF91DF021FBFA2001214000D6
:1009700015F09CFAFEE7C04640420F0000408F4051
:10098000D89402105095021010B50068002800D0CD
:1009900010BD034B034A0448262117F0E9FFC04667
:1009A0007496021084960210F896021010B5016039
:1009B00082804B425941074B9C46624453425A4104
:1009C0008A4200D110BD044B044A0548162117F095
:1009D000CFFFC0460100FFFF549702107897021026
:1009E000F896021010B50068002800D010BD034B27
:1009F000034A0448262117F0BBFFC0467496021034
:100A000044980210F89602107047000010B501607B
:100A100082804B425941074B9C46624453425A41A3
:100A20008A4200D110BD044B044A0548162117F034
:100A30009FFFC0460100FFFF54970210C8980210A4
:100A4000F896021010B5016082804B425941074B65
:100A50009C46624453425A418A4200D110BD044B25
:100A6000044A0548162117F083FFC0460100FFFF26
:100A700054970210A0990210F8960210016042608B
:100A80000023037270470000F0B5C64600B50500AC
:100A90000E000479002C13D14B68032B16D80223C7
:100AA00003714B689846DFB2BC421CD22100300073
:100AB000FFF7A6FC002810D028550134E4B2F3E774
:100AC0000D4B0E4A0E480F4917F052FF0E4B0B4AC2
:100AD00085210B48890017F04BFF0C4B074A08484B
:100AE0000B4917F045FFFF23424613400022EA540A
:100AF00080BCB846F0BDC046F08D0210709A02105E
:100B0000508E021013020000089B0210289B021056
:100B10001B02000070B5141E04DD0C4E002C03DD1A
:100B2000002506E00A4EF9E76442F9E76410013552
:100B3000EDB2002C08D0E307F8D5EB00F3181A68E3
:100B40005B6815F036FEF1E770BDC04698F70210FD
:100B500050F7021070B50C1E04DD0B4E002C03DDA7
:100B6000002506E0094EF9E76442F9E76410013513
:100B7000EDB2002C06D0E307F8D5AB00F15816F023
:100B80004CFBF3E770BDC04638F7021020F70210A7
:100B900010B5040008006168002902D003685B6892
:100BA0009847002363602380638010BD70B5050003
:100BB0000E00002407E0286AE300C0183100FFF7A8
:100BC000E7FF0134A4B2AB8CA342F4D80023AB847A
:100BD000013B2B85296AA94206D033685B68300047
:100BE00098472D620423EB8470BD10B504000168A2
:100BF0000C30FFF7DBFF0023237121682000083051
:100C0000FFF71CFC10BD10B5040008006168628885
:100C1000D20003689B689847002802D06060638810
:100C2000238010BD70B504000D00838C002B11D102
:100C3000216AA1420DD0A28CE38C9A4209D0D20045
:100C40002B689B6828009847206200280BD0A38C53
:100C5000E38470BD006A074A94466344DB00C01811
:100C6000FFF7D1FFE4E7044B044A0548922117F04F
:100C70007FFEC046FFFFFF1F309B0210449B021007
:100C80001496021010B543888B4203D94068C900FE
:100C9000401810BD024B034A03484B2117F068FE71
:100CA000F09B0210FC9B0210F896021010B50B4B43
:100CB000994211D0CB097F221140828C9A4205D9EA
:100CC000006ADB00C018FFF7DDFF10BD044B054ACA
:100CD0000548712117F04CFE0020F6E7FFFF0000E9
:100CE000E49C0210F89C02101496021070B50500E6
:100CF0000C000E8D0A4B9E420CD031002000FFF7F5
:100D0000D5FF01000388238532002800FFF77EFE0F
:100D1000280070BD034B044A0448992117F028FEAF
:100D2000FFFF0000E49D0210FC9D021014960210CB
:100D300010B582B00400009101924188084A9142A6
:100D400005D16B469B880380438002B010BD0C33F5
:100D50001800FFF7ABFF6B469B88C3806380F4E706
:100D6000FFFF000070B504000368002B08D0DD8889
:100D70000C3108002900FFF799FF2060A58070BDA5
:100D8000024B034A0348102117F0F2FDB09E0210F7
:100D9000B89E02102C9F021082B030B583B00400C0
:100DA0006846009101920793FFF7EEFD07AB9D881F
:100DB000C58061880A4B994208D16B469B88238085
:100DC000658003B030BC08BC02B0184709980C30ED
:100DD000FFF76CFF6B469B88C3806580F1E7C046D8
:100DE000FFFF000070B584B004000D000C30FFF769
:100DF0005DFF010002AE2A003000FFF707FE6D46DE
:100E000008223100684616F041FCA28E009B1A8031
:100E1000AB88A38604B070BDF0B5C64600B582B0FD
:100E200080460E00048810E030000C302100FFF7EF
:100E30003DFF0100C78822006846FFF7B7FD009913
:100E4000019A300000F031F83C00064B9C42EBD197
:100E500001235B4242461380538002B080BCB846F7
:100E6000F0BDC046FFFF000070B504000D0003791F
:100E7000DB070DD42379DB0612D4237960221A42D2
:100E800003D029002000FFF7C7FF0023237170BDA6
:100E9000016808312A6828000830FFF7F1FAE9E70D
:100EA00021882800FFF79EFFE7E770B586B00400B1
:100EB0006D46009101926846FFF766FD2100FFF73D
:100EC000D3FF0098FFF7A0FD0100AA8804AE300010
:100ED000FFF79CFD02AD08223100280016F0D6FB7A
:100EE000A28E029B1A80AB88A38606B070BD10B597
:100EF0000B000279D20605D501880C331800FFF7E4
:100F0000D5FE10BD0020FCE7704770B50400080056
:100F1000FFF7FAFF230026C826C3200070BD7047E4
:100F200010B504004B68002B09D04A88088882421B
:100F300009D300232360013BA380200010BD036080
:100F4000013B8380F9E7501C4880D10059182000EC
:100F5000FFF75CFDF1E7000030B583B005008B8C36
:100F6000002B15D0013B9CB2096AE300C918684602
:100F7000FFF7D6FF0099002910D06B469A88E4014C
:100F8000121992B22800FFF741FD280003B030BDCE
:100F9000054B064A0648A12117F0EAFC00232B6006
:100FA000013BAB80F1E7C046909F02109C9F02106E
:100FB0001496021070B504000800E38C80229200A1
:100FC000934219D05B009DB2216AA14209D0EA0088
:100FD00003689B689847061E12D02662E5840120AC
:100FE00070BDE90003681B689847061E06D02022E2
:100FF000210016F04BFBF0E70020F1E70020EFE7BF
:101000000020EDE770B505000C00100000290AD0A3
:10101000C90013681B6898476860002809D02C80B5
:1010200000236B8070BD044B044A0548332117F040
:101030009FFC0024F3E7C04650A0021058A0021005
:10104000F896021070B504000E00828CC38C9A4290
:1010500011D0236AA58C681C80B2A084ED005D19B4
:1010600080239B0098420CD0802132002800FFF79B
:10107000C9FF280070BDFFF79DFF0028E9D10025BA
:10108000F7E77F21F1E70000F0B583B007000C001F
:1010900016000D8D124B9D420DD18B8C002B0FD065
:1010A0006846FFF759FF009B002B09D06B463A00BA
:1010B00003CB03C201E0FFF719FE380003B0F0BD17
:1010C00031002000FFF7BEFF002804D021003800C7
:1010D000FFF742FFF1E700233B60013BBB80ECE7F9
:1010E000FFFF000030B583B005000C000A680C312A
:1010F0006846FFF7C9FF009B002B10D06846FFF73A
:1011000071FC011E03D000230371013BC3806B46B9
:101110009A882800FFF74AFC280003B030BD01334D
:10112000237100232B60013BAB80F5E770B582B0E3
:1011300005000C006846FFF7D5FF009E002E05D085
:1011400023003100019A2800FFF7F2FD300002B0C1
:1011500070BDF0B587B005000E001400110004A8A2
:10116000FFF7C0FF049F002F10D0210002A8FFF757
:10117000B9FF029B002B0CD033600194039B0093BA
:10118000029B0499059A2800FFF706FE380007B075
:10119000F0BD1F00FAE730B583B005000C000A6807
:1011A0000C316846FFF770FF009B002B0BD06C469C
:1011B0006846FFF717FC0100A2882800FFF742FCF1
:1011C000280003B030BD0133237100232B60013BA5
:1011D000AB80F5E782B070B584B001AC019061607E
:1011E000A2600993002816D0099B002B19D0029EFB
:1011F0000A9B9E421DD10024B44218D2210001A8AE
:10120000FFF7FEF80500210009A8FFF7F9F885426D
:1012100015D10134F0E70B4B0B4A0C482D2117F088
:10122000A7FB0B4B084A09482E2117F0A1FB012010
:1012300000E0002004B070BC08BC02B018470020D9
:10124000F8E7C04664A1021074A10210E0A20210E7
:1012500044A3021030B587B00D00046800E0246894
:10126000002C11D021000831E28803A8FFF706FC0A
:1012700004AB6A4603CB03C2039B28686968AA686B
:10128000FFF7A8FF0028EAD0200007B030BD00001B
:10129000F0B589B005000E1E25D04468002C28D07A
:1012A000083401948768390001A8FFF713F8002873
:1012B00025D1E419002323702C6805AFAA68019991
:1012C0003800FFF7DBFB200008303900FFF7C2FFD2
:1012D000041E1FD083880133838021003000FFF774
:1012E00047F909B0F0BD174B174A18481D2117F0F0
:1012F0003FFB174B144A15481E2117F039FB02AD6E
:101300003A0021002800FFF7B9FB29003000FFF761
:10131000BBFBE6E72F686868A9683A68FFF746F8FC
:10132000041E07D0286808302100FFF795F8002335
:101330006B60D2E701233B71064B034A03482A2125
:1013400017F016FB54A3021068A30210509002106D
:10135000E08F0210108A021070470000F0B5DE46E0
:1013600057464E464546E0B587B082468846002936
:101370001CD009782B291FD02D2923D12C398C463C
:10138000E0448B464146087801003039C9B209294A
:1013900037D92E2861D0002352461370504607B02B
:1013A000F0BCBB46B246A946A046F0BD9F4BA04A42
:1013B000A0486E3117F0DCFA01218C46E044002190
:1013C0008B46DFE700218B46DCE79B498C4226D920
:1013D0006346002B5AD15B46002B41D080231B066D
:1013E0009D4255D801D1002C52D100236242AB411D
:1013F0000221504601708260C360CFE74C4522D97C
:10140000E6E700240025414609788C463039C9B208
:1014100089460929DCD889498D42D9D8D5D0A10F70
:10142000AB000B43A200200029008018594100188E
:1014300049410090019104000D004E460027F14300
:101440008946691CDAD00098019980197941040015
:101450000D0001218C46E044D5E700240025D2E7A9
:101460000323524613709460D56097E70A22002345
:101470002000290014F070FF04000D00013636B280
:1014800080235B039D42F1D2414606E00026F7E748
:101490000026F5E7013636B201310A781300303BF9
:1014A000DBB2092BF6D988462E2A0FD043461B788B
:1014B000652B35D0452B33D00022B61843461B7818
:1014C000002B7DD000235246137067E701239C4612
:1014D000E044B446424613E0A70FA9003943A000F8
:1014E00024184D4124196D41029300230393029E59
:1014F000039FA4197D416646013E33B29C460132EA
:101500001378303BDBB2092B07D84D4FBD42F6D8DC
:10151000E2D14C4FBC42F2D8DEE766469046C5E7C2
:101520004346581C5B782D2B15D02B2B16D000274B
:10153000002201780B00303BDBB2092B39D8930035
:101540009B185B0030395A18B1189A235B009942F6
:1015500008DC0130EDE701300127E9E740460230C1
:101560000027E5E7002F0BD05B46002B06D080223A
:101570001206012351460B708A600FE70022F8E73C
:101580005B46002B0ED000202F49FFF7E5FE0D0033
:101590000200802109066B18042150460170826008
:1015A000C360FBE600202849FFF7D6FE02000B00CF
:1015B000F2E7002F02D0524280467EE780467CE769
:1015C000330026334C2B01D8002D15D020002900E4
:1015D00015F0BAF93200FFF79DFA04000D005B46E2
:1015E000002B03D0802109066B181D0004235246EE
:1015F00013709460D560D1E6002D03D180231B04C5
:101600009C42E3D22000290015F0CEFE3100FFF706
:10161000A1FA5B46002B04D101235246137090605F
:10162000BCE680231B069C466044F5E7D0A302106D
:10163000D8A30210349302109999999999999919FC
:1016400099990100989999990000F07F70470000DE
:1016500010B5FFF7FBFF0068002800D010BD01485F
:10166000FCE7C0460CF20210704710B504000800F9
:10167000FFF7FAFF206004236360033B237220001E
:1016800010BDF0B587B004000E00110003AD2800B6
:10169000FFF7EBFF6B466A4683CD83C2220040C250
:1016A00023CB23C2200007B0F0BD704710B5040063
:1016B0000800FFF7FAFF206007236360063B2372F0
:1016C000200010BDF0B587B004000E00110003AD7E
:1016D0002800FFF7EBFF6B466A4683CD83C22200EA
:1016E00040C223CB23C2200007B0F0BD704770B5C5
:1016F00004000800FFF7FAFF230026C826C32000D5
:1017000070BD82B0F0B58BB0060010921193139D9E
:10171000131E0AD00C8828000C302100FFF7C6FAEF
:10172000029002AB9C8001240FE00260013B8380A9
:1017300030000BB0F0BC08BC02B0184701235C407D
:10174000E4B2290002A8FFF70DFB029B002B1ED07C
:10175000002CF3D002A8FEF7B3FE010004AF38005E
:10176000FEF7C0FE390007A8FFF7C1FF08AB6A46C5
:1017700003CB03C2079B10981199129AFFF72AFD19
:101780000028DBD002AB320003CB03C2D0E73360CA
:10179000013BB380CCE710B588B003910492059368
:1017A0000A9B0193059B00930A00049B010006A875
:1017B000FFF7A7FF0698002804D00A9906A8FFF7AC
:1017C000D1FA069808B010BD0023FF2282425B4187
:1017D000D8B2704710B50400FFF7F6FF002801D01B
:1017E000E0B210BD0020FCE7002806DBC30FFF229B
:1017F000002182424B41D8B270470020FCE710B56F
:101800000400FFF7F1FF002801D0E0B210BD002076
:10181000FCE70123002902D102D1FF2800D90023CF
:10182000D8B2704710B50400FFF7F3FF002801D0CD
:10183000E0B210BD0020FCE700290ADB01230029EB
:1018400002DD0023D8B270470029FBD1FF28F9D967
:10185000F7E70020F7E710B50400FFF7EDFF0028D9
:1018600001D0E0B210BD0020FCE7000010B5041C60
:10187000002115F019FD002807D00549201C15F09E
:101880000BFD002802D0012000E0002010BDC04662
:1018900000007F4310B5041CFFF7E8FF002804D0C8
:1018A000201C15F067FDC0B210BD0020FCE7000051
:1018B00070B504000D000022002314F0D3FF0028AF
:1018C00009D00022054B2000290014F0C3FF002896
:1018D00002D0012000E0002070BDC04600E06F4053
:1018E00070B504000D00FFF7E3FF002805D02000CD
:1018F000290015F011F8C0B270BD0020FCE710B54A
:101900000378032B18D00AD8012B11D0022B04D155
:10191000C1688068FFF79FFF0DE000200BE0042BFB
:1019200004D1C1688068FFF7DBFF04E0002002E01B
:101930008068FFF7AFFF10BDC1688068FFF772FFD6
:10194000F9E710B584B001006846FFF707FD684667
:10195000FFF7D5FF04B010BD10B50400FFF7C7FABC
:1019600023791E2B31D89B00194AD3589F462078E3
:101970002CE02068FFF72EFF28E02068FFF73FFFEC
:1019800024E041680068FFF74DFF1FE041680068F0
:10199000FFF761FF1AE02000FFF7D3FF16E0206891
:1019A0000028F9D10B4B0C4A18210C48FF3116F0D6
:1019B000DFFF20680830EFE72068FFF76BFF05E0E6
:1019C00041680068FFF78CFF00E0002010BDC046B2
:1019D0000CF6021038A4021048A40210508E021017
:1019E0002F2801D939280ED92E280ED005D94528FF
:1019F00011D0652811D1643806E02B2807D02D2896
:101A000007D12C3800E0012070470120FCE70120BD
:101A1000FAE70020F8E70120F6E70020F4E70000ED
:101A200010B50379002B04D10E230371016001204E
:101A300010BD034B034AED210348490016F098FFFF
:101A4000F08D0210D8A40210508E021010B58379C8
:101A5000002B0BD103685A1C02601B78002B0BDD96
:101A6000002B0CDB03710123437110BD054B064AAB
:101A70000648252116F07CFF01228271F0E7002341
:101A8000F0E7C046E4A50210ECA502106CA6021017
:101A900010B5040020001030637D002B0FD0237D93
:101AA000002B0FD0202B14D8092B12D3093BDBB20B
:101AB0000A4ADA40D2070CD500236375EAE7FFF73C
:101AC000C5FFECE7237B002B01D1012004E00220BD
:101AD00002E001232373002010BDC04613008000E4
:101AE00070B504000D001030637D002B06D0237DFF
:101AF0009D4206D100236375012070BDFFF7A6FF4C
:101B0000F5E70020F9E770B504000D0008E0237D3B
:101B1000002B10D02A789A420FD10135002363752B
:101B20002878002808D020001030637D002BEED1EB
:101B3000FFF78CFFEBE7022070BD0320FCE770B5D8
:101B400005000E0000230B8000240EE0FFF77EFF4F
:101B500012E0303BDBB20F2B1CD83288120113434A
:101B6000338000236B750134E4B2032C0ED82800B7
:101B700010306B7D002BE9D02B7D002B08D0402B43
:101B8000E7D920229343373BDBB2E4E7002070BD66
:101B90000220FCE70320FAE730B583B00D007F2870
:101BA00011D9694600230B703F220240803B13434A
:101BB0004B70800983B21F2B0AD840235B4203433A
:101BC0008B70CC1C25E0C1B22800FEF749FD24E053
:101BD0003F210140802252420A4369468A709A0995
:101BE0000F2A05D820235B421343CB7001AC10E0D1
:101BF0003F211140802252420A436946CA701B0BA2
:101C00001022524213430B714C1D02E02800FEF7D4
:101C100027FD013C21780029F8D103B030BD000038
:101C200070B584B0040002AB00221A800392060053
:101C30001036437D002B03D0257D0023637526E0FD
:101C40003000FFF703FFF7E73000FFF7FFFE21E06A
:101C5000002363756B46991D2000FFF770FF002875
:101C600001D004B070BD6B46D98802A8FEF76CFDA8
:101C700000280CD003982100FFF78EFF07E0597869
:101C8000002929D0002363752000FEF7E9FC637D5D
:101C9000002BD9D0217D002363758D4213D00029FC
:101CA00016D05C29F0D13000FFF7D0FE227D002A4B
:101CB00010D0752ACCD00A4B19780029E0D08A427E
:101CC000DDD00233F8E76368002B07D00020C8E7B7
:101CD0000220C6E70220C4E70320C2E70420C0E7D1
:101CE000C4A6021070B504000E00FEF7A5FC20008B
:101CF000FFF796FF051E01D0280070BD31002000BF
:101D0000FFF7C6FAF8E70120002900D00020C0B292
:101D10007047000010B50068002800D010BD034BCC
:101D2000034A0448262116F023FEC046749602108A
:101D3000D8A60210F8960210F0B583B00400160081
:101D40001F000379002B0BD110003900FFF7DBFFD8
:101D5000051E0BD00A2323712660280003B0F0BDB6
:101D60000B4B0C4A0C487E2116F002FE089968467F
:101D7000FFF711FA009B002BEFD01A23237168465E
:101D800083882380FFF7C6FF066047600125E4E7EC
:101D9000F08D021054A70210C8A80210F0B583B04D
:101DA000040016001F000379002B12D11000390027
:101DB00014F002FE051C15F005FB32003B0014F088
:101DC0003BFD00280BD00E2323712560012003B0BA
:101DD000F0BD0D4B0D4A0E484C2116F0C9FD089977
:101DE0006846FFF7D8F9009B002B0AD01E23237109
:101DF000684683882380FFF78DFF066047600120D7
:101E0000E5E70020E3E7C046F08D021028A90210A4
:101E1000C8A802108022120600238018594101230D
:101E2000002900D00023D8B270470000F0B583B07D
:101E3000040016001F000379002B0BD1100039009D
:101E4000FFF7E8FF051E0BD00C2323712660280046
:101E500003B0F0BD0B4B0C4A0C48672116F088FD0F
:101E600008996846FFF797F9009B002BEFD01C23D9
:101E70002371684683882380FFF74CFF0660476024
:101E80000125E4E7F08D021034AA0210C8A8021060
:101E9000F0B5CE46474680B587B006008946102388
:101EA00098468044437D002B14D0377D00243800B1
:101EB000FFF796FD002811D03E2C0FD80023737534
:101EC000651CEDB2341927774046FFF7BFFD377D1B
:101ED0002C00ECE74046FFF7B9FDE6E73419002394
:101EE000237731001C3102AC2000FFF737FA247849
:101EF000032C26D013D8012C36D0022C0DD102A8E9
:101F0000FEF746FC02000B00B16900914846FFF75E
:101F10008DFF002836D0002420E003241EE0042C8E
:101F20000DD102A8FEF76EFC02000B00B169009112
:101F30004846FFF733FF002810D000240EE00324AA
:101F40000CE002A8FEF738FC02000B00B16900911A
:101F50004846FFF7F1FE002812D00024200007B009
:101F6000C0BCB946B046F0BD02A8FEF739FC011C62
:101F7000B2694846FFF754FD002805D00024EDE77C
:101F80000424EBE70424E9E70424E7E72F2801D938
:101F9000392809D95E2801D97A2807D9402807D9D4
:101FA0005A2807D9002004E0012002E0012000E0C7
:101FB000002070470120FCE770B5040006001036D1
:101FC000437D002B09D0257D002D0AD02800FFF786
:101FD000DDFF002812D1032020E03000FFF736FD9E
:101FE000F1E7104B104AE2211048490016F0C0FCFE
:101FF000257D2800FFF7CAFF00280CD00023637559
:1020000029002000FEF72CFB637D002BF0D130006F
:10201000FFF71CFDECE76368002B00D070BD0420C7
:10202000FCE7C04600D702109CAB021064AC021063
:1020300010B50400FEF700FB20001030637D002B7C
:1020400008D0237D272B08D0222B06D02000FFF7B5
:10205000B3FF05E0FFF7FAFCF3E72000FFF7E0FD30
:1020600010BD0000F0B58DB005000E0003AA13707E
:10207000DBB2002B00D17BE010306B7D002B0CD04D
:102080002B7D7B2B0CD100236B752800FFF700FD07
:10209000041E0BD020000DB0F0BDFFF7D7FCEFE71A
:1020A000344B354A3548F32116F062FC7D21280077
:1020B000FFF716FD00282CD0ECE7AA6905A930002F
:1020C000FFF747F8011E4DD02800FFF7E1F8059C07
:1020D00003A8FEF725FB031C00222100280000F0C6
:1020E0004FF8041ED6D12800FFF7D2FC041ED1D130
:1020F0007D212800FFF7F4FC0028CBD12C212800FB
:10210000FFF7EEFC002831D02800FFF7C1FC041EC9
:10211000C0D12800FFF78CFF041EBBD12800FFF7B9
:10212000B7FC041EB6D13A212800FFF7D9FC0028DD
:102130001AD006AF29003800FEF7B2FA09AC390010
:102140002000FEF7E2FEAB69009309990A9A0B9B07
:102150003000FFF720FB05900028AED0A969FEF7FC
:1021600083FEB4E7042495E7032493E7032491E76F
:1021700005248FE7C4AC0210D8AC021064AC021086
:1021800070B506000C001D1CFFF782FC00281CD156
:1021900030001030737D002B0CD0337D7B2B10D89A
:1021A0005B2B0AD35B3BDAB2202A0AD893001F4A82
:1021B000D3589F46FFF74AFCEFE7222B1AD0272B74
:1021C00018D021003000FFF763FE70BD2000FEF73D
:1021D000F1F901002B1C0022300000F08BF8F4E72D
:1021E0002000FEF701FA01002B1C00223000FFF74F
:1021F00039FFEAE721003000FFF774FDE5E7012130
:102200002000FEF79FF90A493000FFF77CFCDCE76D
:1022100000212000FEF796F906493000FFF773FC15
:10222000D3E705493000FFF76EFCCEE788F60210D1
:1022300040AE02102CBD021048AE021070B5040072
:102240000D000022FFF79CFF002806D1237D002B04
:1022500003D02B791B0700D5032070BDF0B5C6460F
:1022600000B59AB00400884601AE328007003837C6
:10227000FEF7BBFC00233B7103AD0394049305936D
:102280002B73424607926B75AB75099473780022E5
:1022900039002800FFF7D2FF061C2800FEF7C0F91E
:1022A000216820000C30FEF7BDFC301C1AB080BC49
:1022B000B846F0BD10B582B004000800FFF7C6F9BB
:1022C000FFF7C6F9010001AB0A225A701A886B4663
:1022D0001A80009A2000FFF7C1FF02B010BD00B5C0
:1022E00083B00191FEF71BFE01A9FFF7E3FF03B0E6
:1022F00000BD000070B582B005000E0001AA137089
:10230000DBB2002B43D010306B7D002B0CD02B7D2B
:102310005B2B0CD100236B752800FFF7B9FB041E63
:102320000BD0200002B070BDFFF790FBEFE71A4B17
:102330001A4A1B489D2116F01BFB5D212800FFF760
:10234000CFFB0028EDD1A9693000FEF7EFFE041E97
:102350001FD001A8FEF7E4F9031C00222100280089
:10236000FFF70EFF041EDCD12800FFF791FB041ECF
:10237000D7D15D212800FFF7B3FB0028D1D12C2154
:102380002800FFF7ADFB0028DDD10334C9E70524A1
:10239000C7E70424C5E7C04650AE021064AE021081
:1023A00064AC021070B58AB003910492059303796E
:1023B000202B0ED107AA03AB70CB70C2002806D029
:1023C0000E9A00920799089A099BFFF7E4F90AB060
:1023D00070BD0020EEE7F0B587B0030002CB080027
:1023E000383003AAE0CBE0C20B00383305D00091AF
:1023F0000399049A059BFFF7D5FF07B0F0BD10B510
:1024000082B00400FFF7E7FF216800900191FEF71A
:1024100063F902B010BD000030B57D4CA5447D4B82
:102420007D4A1A60002012F059F822F03DF9002888
:1024300019D022F0E7F979490122C62080016844C9
:1024400020F0D2F9002825D1754B764A76496944A7
:102450007648684420F0ABFF002858D10124002CB6
:102460005AD101251BE013F099FA714A002313F0A9
:1024700073FF1000190014F067FA00226D4B14F07E
:102480007AF902000B006C4816F058FC6B4816F005
:1024900025FCCEE7022000F0C1FB01240025C0226C
:1024A0009201002102A815F0F1F800230193002DFC
:1024B00001D0002C44D1574B1968C022920102A8C8
:1024C00015F0E4F85E4802A9FFF709FF6B461870A3
:1024D000C3B2002B64D15B4C6C445B4A584920006A
:1024E000FFF7CFF82000FFF78AFF5849032224F0B6
:1024F00045FC002800D072E0554B01221A70474974
:102500000022002020F070F9524B9D4430BD032082
:1025100000F084FB0024A2E701224F4969444F48A0
:10252000684420F091F9002808D0082801D125003E
:10253000B5E7032000F072FB2500B0E72500AEE709
:10254000C02201AB920102A94448684420F032FB4A
:1025500000280AD0032000F061FB2E4B1968C0222E
:10256000920102A815F092F8ACE713F017FA304A7E
:10257000002313F0F1FE1000190014F0E5F9002219
:102580002C4B14F0F8F802000B002B4816F0D6FB89
:102590000199334816F0D2FB02A8FEF747F991E7FC
:1025A00013F0FCF9224A002313F0D6FE10001900A4
:1025B00014F0CAF900221F4B14F0DDF802000B00E2
:1025C0001D4816F0BBFB6846FEF794F80100254B4A
:1025D000180016F0B3FB032000F052FB7BE7224CFF
:1025E0006C44194A16492000FFF74BF82000FFF70A
:1025F00006FF1E49072224F0C1FB002803D1144B1B
:1026000002221A707BE7124B00221A7077E7C0464D
:1026100094C9FFFF5811002000D01F10DCAF02103A
:10262000E0AF02100CF20210083000002831000068
:1026300040420F0000408F40D8940210C8AF0210F3
:10264000FC210020483600002CB0021034B00210EB
:10265000C89102206C36000022300000E8330000F0
:10266000F0AF021014B002105836000038B002105B
:1026700010B513F027FB16F0F1FA894813F07EF835
:1026800013F08CF9874A002313F066FE100019003E
:1026900014F05AF90022844B14F06DF802000B007C
:1026A000824816F04BFB82480322032116F046FBBA
:1026B00000F03EFAFFF7B0FE06F064FC01F052FCB9
:1026C0007C4B1B78002B22D0012B7AD0022B00D11F
:1026D0008EE001F05DF8002800D1C6E013F05EF94D
:1026E000704A002313F038FE1000190014F02CF982
:1026F00000226D4B14F03FF802000B006B4816F0FF
:102700001DFB6D4816F0EAFA1BF014FCFEE713F00F
:1027100045F9644A002313F01FFE1000190014F05D
:1027200013F90022604B14F026F802000B005F48FA
:1027300016F004FB614816F0D1FA00F09BFD02F0A0
:102740005DF904F06DF902F059FE01F039FF00283F
:1027500019D113F023F9534A002313F0FDFD1000A3
:10276000190014F0F1F800224F4B14F004F80200A5
:102770000B004E4816F0E2FA514816F0AFFA01206D
:1027800000F0C6FAA5E703F091F80028A1D113F0F4
:1027900005F9444A002313F0DFFD1000190014F07E
:1027A000D3F80022404B13F0E6FF02000B003F4835
:1027B00016F0C4FA434816F091FA022000F0A8FA85
:1027C00087E713F0EBF8374A002313F0C5FD10003C
:1027D000190014F0B9F80022334B13F0CCFF0200BB
:1027E0000B00324816F0AAFA374816F077FA70E76D
:1027F00013F0D4F82B4A002313F0AEFD100019009B
:1028000014F0A2F80022284B13F0B5FF02000B00D1
:10281000264816F093FA2D4816F060FA00F02AFDCB
:1028200002F0ECF802F0EAFD0FF09EFC01F0C8FEA9
:10283000002800D04DE713F0B1F81A4A002313F036
:102840008BFD1000190014F07FF80022164B13F0D6
:1028500092FF02000B00154816F070FA184816F0A7
:102860003DFA012000F054FA33E713F097F80D4ACF
:10287000002313F071FD1000190014F065F8002218
:10288000094B13F078FF02000B00084816F056FAC7
:102890000F4816F023FA032000F03AFA1EE7C0466C
:1028A0008813000040420F0000408F40D89402106F
:1028B00040B00210C89102208CB0021058B0021033
:1028C000589502106495021070B002107CB002108E
:1028D0007495021030B585B00500FFF77CFD04004B
:1028E0002D6802A902904D600822684614F0CEFEC1
:1028F000002C05D029002000FFF72EF805B030BDD0
:102900000020FBE770B53A4CA544050000242B5D80
:10291000002B05D0C0239B019C4201D20134F6E775
:10292000002011F0DBFD21F0BFFE00283AD021F09D
:1029300069FF13F073FA2F49012268A81FF054FFB2
:10294000061E46D12C4B2D4A0AA952A820F02FFD75
:10295000002848D0CD26F6006E44294A2949300087
:10296000FEF7B0FE3000FFF7B5FF0300264A28212E
:10297000684615F07FFF0A226946FFA80C301FF059
:1029800063FF061E28D1002322002900FFA80C3077
:1029900020F036FA061E1FD1FFA80C3020F034FCC0
:1029A000060019E012F0FAFF184A002313F0D4FCD5
:1029B0001000190013F0C8FF0022154B13F0DBFEC6
:1029C00002000B00134816F0B9F9134816F086F907
:1029D000ADE7022000F022F973425E41F0B2CF234E
:1029E000DB009D4470BD4220684420F0EFFCB1E75D
:1029F00088F9FFFFDCAF0210E0AF02100CF202100A
:102A00009CB00210FC210020A4B0021040420F0034
:102A100000408F40D8940210C8AF021010B5FDF7E7
:102A20006FFC10BD70B518E001210E4813F03EFA9E
:102A30000D4B01221A7013F0F1F9D0252D068026D6
:102A4000B6046E61FA24A40020001BF031FC13F0E0
:102A5000E5F9AE6120001BF02BFC034B1B78002B2B
:102A6000E2D0E8E788130000C4910220F0B5C64622
:102A700000B5002400E000242B4B1D78002D1ED053
:102A8000A54214D9D0252D0640236B6180266E61A6
:102A9000FA201BF00DFCAE61FA201BF009FC01349A
:102AA000E4B2214B1B780533A342E4DBE4E7D023F7
:102AB0001B0680225A61FA201BF0FAFBEFE71B4B42
:102AC0001E78002E24D0A64218D9D02636064023E0
:102AD0009846736180277761FA201BF0E9FB434633
:102AE000B361B761FA201BF0E3FB0134E4B20F4B92
:102AF0001B780533A342BFDA2C00BDE7D0231B06A9
:102B000040225A6140325A61FA201BF0D1FBECE7B7
:102B1000D0231B0640229A6140325A6100201BF0EC
:102B20005FFC3400A8E7C046C3910220C291022096
:102B300010B582B02D4B00221A70192011F024FE1E
:102B4000D024240680239B0463626361072011F074
:102B50001BFE802363626361062011F015FE402393
:102B60006362636122492348234B0193012300934D
:102B7000002380221BF061F8802220492048214B4D
:102B8000019302230093002352001BF056F812F029
:102B900005FF1D4A002313F0DFFB1000190013F09E
:102BA000D3FE0022194B13F0E6FD02000B00184C77
:102BB000200016F0C3F8174816F090F812F0EEFE59
:102BC000114A002313F0C8FB1000190013F0BCFEDB
:102BD00000220E4B13F0CFFD02000B00200016F078
:102BE000ADF80D4816F07AF802B010BDC49102207D
:102BF000F8B00210252A0010E020002004B10210D5
:102C00006D2A0010DC20002040420F0000408F4061
:102C1000D894021014B102102CB1021010B50400A7
:102C200012F0BCFE104A002313F096FB10001900AE
:102C300013F08AFE00220D4B13F09DFD02000B00E5
:102C40000B4816F07BF80B48210016F077F80A4B7A
:102C50001B78002B01D0002C05D1074B1C70074BB3
:102C600018681BF015F910BD40420F0000408F405E
:102C7000D894021048B10210C3910220DC20002039
:102C8000F8B5050012F08AFE1A4A002313F064FB1F
:102C90001000190013F058FE0022174B13F06BFDC3
:102CA00002000B00154816F049F81548290016F0E7
:102CB00045F8002400E00024AC4212D2D0263606AB
:102CC0004023736180277761FA2012F0A5FEB76177
:102CD000FA2012F0A1FE0134E4B26B1DA342EADB3C
:102CE000EAE7D0231B0680225A61FA2012F094FEF4
:102CF000F1E7C04640420F0000408F40D8940210D8
:102D000054B10210014B18787047C046C39102209D
:102D1000F0B5C64600B5060012F040FE1C4A00237E
:102D200013F01AFB1000190013F00EFE0022194BCD
:102D300013F021FD02000B00174815F0FFFF1748A4
:102D4000310015F0FBFF002400E00024B44215D24E
:102D5000D0252D06402398466B6180276F61FA20AD
:102D600012F05AFE4346AB61AF61FA2012F054FEF6
:102D70000134E4B2731DA342E7DBE7E7D0231B066F
:102D800040225A6140325A61FA2012F045FEEFE7C4
:102D900040420F0000408F40D89402106CB10210E6
:102DA00010B504001F2111F0BBFB00220021200000
:102DB00011F0D0FB0021200011F0D2FC10BD00006A
:102DC000F0B5DE4657464E464546E0B5A5B028224A
:102DD00000211AA814F054FC6022002102A814F06B
:102DE0004FFC01239B46002398469A4699460027AC
:102DF0000193B3E02C00082C0EDC651C1AABAA0072
:102E0000D058A200D050002114F038FA0028F1D098
:102E1000A4001AABE650EDE723960024002005E05D
:102E2000A2001AABD15814F0DDF90134092CF7DDFA
:102E3000584914F0DCF9041C574B18607D1CADB2E6
:102E4000E1231B019F421DD25B46002B1AD1534B3D
:102E50001C68534B1968201C14F018FA002805D080
:102E60005049201C14F028FA00283BD14E4B196819
:102E7000201C14F021FA002843D14B46002B5DD0D2
:102E80004C4630E0019B581CC0B29F0002ABFC5086
:102E9000182113F023FACBB20193002501E001358C
:102EA000EDB2172D0BD8AB0002AA9858002114F0F0
:102EB000E5F90028F3D0AB0002AA9C50EFE700240C
:102EC0000020172C07D8A20002ABD15814F08AF9C1
:102ED0000134E4B2F5E7354914F089F92F4B186055
:102EE0000025B4E701244346002B05D1002C09D06E
:102EF00002F0EAFBA04608E002F0CCFE0023984670
:102F000003E000244B46002B1AD1244B1E68284BAB
:102F10001968301C14F0BAF9002814D02149301C6B
:102F200014F0CAF900280ED05346002B0ED102F03F
:102F3000CBFB00F015FC01239A4607E04C46E1E785
:102F400002F0CCFCE1E75346002B1CD1FA208000B4
:102F50001BF0AEF9A1462F0000239B46154B04221F
:102F60001A60154B1B68DB05FBD5134B586880B204
:102F700014F0A7F9114914F050F9114914F032F97D
:102F8000061C002437E702F0A9FC00F0F5FB002343
:102F90009A46DBE700002041C0260020C42600201E
:102FA000801100200000A0407C1100200000C041E2
:102FB0007811002000E0044000C00440499A103C11
:102FC000CDCC4C3F014B18687047C046C42600204A
:102FD000014B18687047C046C0260020704710B5E6
:102FE00004000800FFF7FAFF20600A236360093B32
:102FF0002372200010BDF0B587B004000E00110050
:1030000003AD2800FFF7EBFF6B466A4683CD83C212
:10301000220040C223CB23C2200007B0F0BD70477E
:1030200010B504000800FFF7FAFF20600C2363606E
:103030000B3B2372200010BDF0B587B004000E00DA
:10304000110003AD2800FFF7EBFF6B466A4683CD06
:1030500083C2220040C223CB23C2200007B0F0BDB0
:10306000704710B504000800FFF7FAFF20600F2337
:1030700063600E3B2372200010BDF0B587B00400E2
:103080000E00110003AD2800FFF7EBFF6B466A4608
:1030900083CD83C2220040C223CB23C2200007B0CD
:1030A000F0BD0120704710B5041CFFF7FAFF00289F
:1030B00003D0201C14F086F910BD00200021FBE78E
:1030C0000120704770B505000C00FFF7F9FF0028DC
:1030D00004D02800210013F02BFC70BD002000213B
:1030E000FBE70120704770B505000C00FFF7F9FF02
:1030F000002804D02800210013F026FC70BD002019
:103100000021FBE70120704770B504000D00FFF7B8
:10311000F9FF002802D02000290070BD0020002106
:10312000FBE710B50378032B1AD00BD8012B13D073
:10313000022B04D1C1688068FFF7C4FF0FE00020B4
:1031400000210CE0042B04D1C1688068FFF7DCFF8C
:1031500005E00020002102E08068FFF7A4FF10BD19
:10316000C1688068FFF7BFFFF9E710B584B00100C0
:103170006846FEF7F3F86846FFF7D3FF04B010BDCA
:1031800010B50400FDF7B3FE23791E2B30D89B0049
:10319000194AD3589F46207813F07EFB2AE0206816
:1031A00013F07AFB26E0206813F07AFB22E04168F6
:1031B000006813F0C9FB1DE04168006813F0B8FB1C
:1031C00018E02000FFF7D1FF14E020680028F9D1B3
:1031D0000A4B0B4A0B48EA2115F0CAFB206808305D
:1031E000F0E7206814F0EEF804E04168006801E0C0
:1031F0000020002110BDC046E0F7021038A40210E4
:1032000084B10210508E021030B585B00500FFF772
:10321000E2F804002D6802A902904D600822684679
:1032200014F034FA002C05D029002000FFF7A8FF85
:1032300005B030BD00200021FAE770B584B005006C
:103240000E00FFF7C8F804002B6802A902904B603B
:103250000822684614F01AFA002C06D023791B07BE
:1032600003D52800FFF7D0FF01E03068716804B093
:1032700070BD000030B595B018F0F6FF1A20FFF7CA
:103280008FFD304B1B68E022D20113402E4A1360A1
:1032900002AD2E4A2E4C21002800FFF7ACFE002282
:1032A0002C4B0692079306A92800FFF7C6FF13F0E0
:1032B00083FB294B186008AD284A21002800FFF73E
:1032C000BBFE274A274B0C920D930CA92800FFF751
:1032D000B4FF13F071FB244B18600EAD234A21009C
:1032E0002800FFF7CAFE0022214B1292139312A965
:1032F0002800FFF7A2FF13F05FFB1E4B186080222F
:103300001D491E481E4B01930323009300235200C6
:103310001AF093FC12F042FB1A4A002313F01CF837
:103320001000190013F010FB0022174B13F023FAC2
:1033300002000B00154815F001FD154815F0CEFCF4
:1033400015B030BD00C0044000D004400CB20210E3
:10335000FC210020008027408011002018B20210BC
:1033600033333333333328407C11002028B202102A
:10337000000024407811002038B20210C12D001046
:10338000BC26002040420F0000408F40D89402101D
:1033900048B2021030B583B004000D000023019341
:1033A0000F4B1B68002B01D00F2808D0019B012B6D
:1033B0000FD02900200011F01FF903B030BD0948DB
:1033C00010F026F9064B186801AA00211BF026FE12
:1033D000ECE7002BEDD0044B802252051A60E8E7A1
:1033E000942200209822002004ED00E000B583B074
:1033F0000448002300930F33112203490FF080FA91
:1034000003B000BD9822002000C00340F0B5C646BE
:1034100000B584B007000E0015001C0001212A4BE6
:10342000186849421AF026F800201AF0A5FC8046D8
:103430000E2100201AF0B0FC12F0B0FA234A00234B
:1034400012F08AFF1000190013F07EFA0022204BC0
:1034500013F091F902000B001E4815F06FFC1E4896
:1034600000942B003200390015F068FC03AA177095
:10347000D6705570947019480423FF2110F0BAFAE1
:10348000002812D0164B1B78002B15D14146002086
:103490001AF082FC0C4B186800230022002119F05E
:1034A00043FD04B080BCB846F0BD0530FFF7B6FB65
:1034B0000B4B01221A70E9E70020FFF7AFFB084B26
:1034C00000221A70E2E7C0469022002040420F001E
:1034D00000408F40D894021064B20210982200205D
:1034E000D691022030B585B00090019102920393ED
:1034F0000121274B1868494219F0BCFF00201AF03F
:103500003BFC05000E2100201AF046FC12F046FAA2
:10351000204A002312F020FF1000190013F014FAC3
:1035200000221D4B13F027F902000B001B4815F079
:1035300005FC1B4815F0D2FB1A480E236A46FF21F2
:1035400010F058FA002810D0174B1B78002B17D119
:10355000290000201AF020FC0D4B186800230022DF
:10356000002119F0E1FC05B030BDD0231B0640223C
:103570005A610530FFF752FB0B4B01221A70E7E747
:103580000020FFF74BFB084B00221A70E0E7C04613
:103590009022002040420F0000408F40D89402103B
:1035A00094B2021098220020D691022030B583B048
:1035B00001AC20800121284B1868494219F05AFFBC
:1035C00000201AF0D9FB05000E2100201AF0E4FBC0
:1035D00012F0E4F9214A002312F0BEFE1000190097
:1035E00013F0B2F900221E4B13F0C5F802000B00D5
:1035F0001C4815F0A3FB217862781B4815F09EFB50
:103600001A4802232200FF2110F0F4F9002810D0FC
:10361000174B1B78002B17D1290000201AF0BCFB98
:103620000D4B186800230022002119F07DFC03B027
:1036300030BDD0231B0640225A610530FFF7EEFA59
:103640000B4B01221A70E7E70020FFF7E7FA084B5F
:1036500000221A70E0E7C0469022002040420F008E
:1036600000408F40D8940210A4B20210982200208B
:10367000D6910220F0B5D6464F464646C0B58AB030
:1036800080460D0017009A460121294B18684942CF
:1036900019F0F0FE00201AF06FFB81460E21002089
:1036A0001AF07AFB002407E00530FFF7B7FA214B48
:1036B00001221A702034A4B2AC4228D212F0AEFB20
:1036C00001AE202200216B46981D13F0D9FF377000
:1036D00053467370434619192A1B202A00D9202209
:1036E0006B46981D13F0D2FF1348222301AAFF2135
:1036F00010F080F90028D7D00E4B1B78002BD9D0C2
:103700000020FFF78BFA0B4B00221A70D2E74946D4
:1037100000201AF041FB064B18680023002200210C
:1037200019F002FC0AB0E0BCBA46B146A846F0BDAA
:1037300090220020D69102209822002010B5044B40
:10374000186813F0C7FE13F0E3FD40B210BDC04689
:10375000B8260020014B18787047C046D49102204B
:1037600010B503480FF0D4FB024B01221A7010BDB4
:1037700098220020D591022010B503480FF0CCFA12
:10378000024B00221A7010BD98220020D591022011
:1037900010B503480FF0F2FB002800D0012010BD47
:1037A00098220020F0B589B094464D68019502AB8F
:1037B0000C000834C4CCC4C31431D0C9D0C3856054
:1037C00003000C3302A970C970C370C970C363468B
:1037D000436209B0F0BDF8B5050014001E000F8863
:1037E00018000C303900FDF761FA2860AF8004E062
:1037F00031002800FDF7B6FA013C2A68002A01D002
:10380000002CF5D12800F8BD00B583B013000028C6
:1038100005D00A0001006846FFF7DDFF009803B0FD
:1038200000BD10B5002804D00379402B02D1FFF76A
:10383000EBFF10BD0020FAE7704710B50400080048
:10384000FFF7FAFF206005236360043B237220002A
:1038500010BDF0B587B004000E00110003AD2800C4
:10386000FFF7EBFF6B466A4683CD83C2220040C25E
:1038700023CB23C2200007B0F0BD704710B5040071
:103880000800FFF7FAFF20600B2363600A3B2372F6
:10389000200010BD704710B504000800FFF7FAFFC4
:1038A000206009236360083B2372200010BDF0B53F
:1038B00087B004000E00110003AD2800FFF7EBFFF6
:1038C0006B466A4683CD83C2220040C223CB23C20B
:1038D000200007B0F0BDC043C00F70470120704703
:1038E0000123002902D102D1002800DA0023D8B236
:1038F00070478022120600238018594101230029B5
:1039000000D00023D8B2704710B50400FDF7EFFADD
:1039100023791A2B17D009D80A2B10D00C2B03D1DE
:103920002068FFF7DBFF0DE000200BE01C2B04D12B
:1039300041680068FFF7DDFF04E0002002E0206836
:10394000FFF7C9FF10BD41680068FFF7C9FFF9E73D
:1039500000B583B000900191002803D0FFF7D4FF99
:1039600003B000BD0020FBE710B50400FFF7B3FF74
:10397000002801D0200010BD0020FCE710B5040095
:10398000FFF7ACFF002801D0200010BD0020FCE7AD
:1039900010B50400FFF7A4FF002801D0200010BDDF
:1039A0000020FCE710B50400FFF7A3FF002801D0BA
:1039B000200010BD0020FCE770B504000D000022BF
:1039C000084B12F04FFF002809D0074A074B200090
:1039D000290012F03FFF002802D0012000E0002063
:1039E00070BDC0460000E0C10000C0FFFFFFDF4126
:1039F00070B504000D00FFF7DFFF002804D02000A1
:103A0000290012F065FF70BD0020FCE77047000040
:103A100010B5041CCF21090613F046FC00280AD07B
:103A20000748FFF7F3FF011C201C13F035FC0028AA
:103A300003D0012000E0002010BD0020FCE7C046BC
:103A4000FFFFFF4E10B5041CFFF7E2FF002803D074
:103A5000201C13F05DFC10BD0020FCE710B50378BE
:103A6000032B18D00AD8012B11D0022B04D1C16826
:103A70008068FFF797FF0DE000200BE0042B04D1D6
:103A8000C1688068FFF7B4FF04E0002002E08068AE
:103A9000FFF7D8FF10BDC1688068FFF779FFF9E72D
:103AA00010B584B001006846FDF758FC6846FFF782
:103AB000D5FF04B010BD000010B50400FDF717FAE3
:103AC00023791E2B31D89B00194AD3589F46207862
:103AD0002CE02068FFF748FF28E02068FFF74EFF42
:103AE00024E041680068FFF753FF1FE04168006869
:103AF000FFF758FF1AE02000FFF7D2FF16E020681A
:103B00000028F9D10B4B0C4A18210C48FF3114F056
:103B10002FFF20680830EFE72068FFF793FF05E0EC
:103B200041680068FFF764FF00E0002010BDC04658
:103B30005CF8021038A40210C4B20210508E0210B9
:103B400030B585B00500FEF746FC04002D6802A9DB
:103B500002904D600822684613F098FD002C05D0B5
:103B600029002000FFF7A8FF05B030BD0020FBE7CB
:103B700030B583B004000D00FEF72DFC21680090E5
:103B80000191FFF7E5FE002802D1286803B030BD9F
:103B90002000FFF7D5FFF9E730B587B011F0FEFE42
:103BA0002B4A002312F0D8FB1000190012F0CCFEB3
:103BB0000022284B12F0DFFD02000B00264815F012
:103BC000BDF8264815F08AF801AC254A25492000A1
:103BD000FFF76DFE9623059305A92000FFF7C8FFA8
:103BE000C50F2D186D10ADB21F4C002120000FF035
:103BF000B7FB0922082120000FF06CFC1B4B197841
:103C000020000EF093FE082120000EF067FF1849F7
:103C100020000EF079FF142120000EF0E9FF154975
:103C200020000FF0E3FA052120000FF027F809210A
:103C300020000FF04BFB012120000EF07FFE290039
:103C400020000FF0D1FC20000FF066F807B030BD67
:103C500040420F0000408F40D89402104CB3021035
:103C600060B30210FC21002098220020D491022091
:103C700000C0644420A1070030B5D7B010AB0322C8
:103C80001A735A7319E155226A4412788E490978D9
:103C90008A4201D0FF2A75D11698149056236B449E
:103CA000197801F065FE894B1868002113F0E6FAD7
:103CB000002807D086480EF03BFE844C13F006FB2C
:103CC000206022E082480EF033FE13F0FFFA00215C
:103CD00013F0A3FA7D4C216813F084FA206014E0FD
:103CE00055226A441278784909788A4201D0FF2A1D
:103CF0004AD110AC0E2216A9200013F0C7FC109870
:103D00001199129A139B01F005FB11F047FE714ABD
:103D1000002312F021FB1000190012F015FE002202
:103D20006D4B12F028FD02000B006C4815F006F8F0
:103D300067480EF0FDFD0100694B180014F0FEFF0E
:103D400063480FF00FF8002861D016ADFF22002164
:103D5000280013F095FC002355226A441370562264
:103D60006A44137057246C44FF3323705848AA3BAD
:103D70006B4400931300220029000FF011F8237800
:103D8000042B80D00E2BABD0022B29D0222BBCD100
:103D900033336B441B784C4A1478A34201D0FF2B79
:103DA000B3D106AD222216A9280013F06FFC2B78A0
:103DB0009C42AAD112F032F82C0056236B441B7897
:103DC00005930AAB6A4623CB23C2196811609B880E
:103DD000938006986168A268E36804F07BFA94E730
:103DE00055226A441278384909788A4201D0FF2A5C
:103DF000CCD10FAB16AA12881A801B78994284D1B5
:103E000056236B4419780F9801F0C6F97DE73048C6
:103E10000FF0E0FB07240440631FDBB2012B08D93D
:103E2000032C06D0072C04D02E4A137801331370CC
:103E300002E02C4B00221A702A4B1B780A2B32D935
:103E400011F0ACFD234A002312F086FA100019008D
:103E500012F07AFD0022204B12F08DFC02000B00C4
:103E60001E4D280014F06AFF1F48210014F066FF61
:103E700017480FF04DF8FFF78FFE11F08FFD154A30
:103E8000002312F069FA1000190012F05DFD002203
:103E9000114B12F070FC02000B00280014F04EFFD2
:103EA000124814F01BFF0122FA239B000093002309
:103EB0005242002100201AF081FF0D4B1B78002B8D
:103EC00000D13DE7EFE7C046D4910220B82600209C
:103ED0009822002040420F0000408F40D8940210EA
:103EE000F8C30210D29102206CB3021084B3021006
:103EF000D5910220F0B587B004000430FEF76BFACC
:103F0000616803AA23001433E0CBE0C2002805D087
:103F100000910399049A059BFEF744FA07B0F0BD9F
:103F200010B504000430FFF7E5FF616AA268FFF7EF
:103F300078FC10BD30B585B00500FFF7F1FF040037
:103F4000AD6802A902904D600822684613F09EFBFE
:103F5000002C05D029002000FDF7FEFC05B030BD87
:103F60000020FBE7F0B5A5B015AD504A504C21003C
:103F70002800FDF7A7FB2800FEF7ACFC4D4E307083
:103F80004D4A210019A8FFF764FC199F209721AB27
:103F90001AAA13CA13C3150048491000FFF76EFC94
:103FA0000BAC230007CD07C303A94F6005AB21AAC3
:103FB000A1CAA1C32200A1CAA1C300222000FFF709
:103FC000F1FB2000FFF7B6FF3D4B1870012019F000
:103FD0007DF83C4B18603C4C3C49200018F00CF933
:103FE0000121102010F09CFA0121122010F098FA03
:103FF0000121132010F094FA63680222134034491F
:104000000A60216805325140C8320A4031490A60CD
:10401000314A13600F2010F0B7FBD0231B0680221B
:1040200012029A622D4B012208210F2010F034FB5E
:10403000FFF7B2FD11F0B2FC294A002312F08CF90F
:104040001000190012F080FC0022264B12F093FBA6
:1040500002000B00244C200014F070FE317823483D
:1040600014F06CFEA02222492248234B01930D2319
:1040700000930023920019F0E0FD11F08FFC184A24
:10408000002312F069F91000190012F05DFC002203
:10409000144B12F070FB02000B00200014F04EFED7
:1040A000164814F01BFE25B0F0BDC0469CB00210AF
:1040B000FC210020D491022090B3021098B302108A
:1040C000D39102209022002000C00340404B4C00BE
:1040D00004F0034000D0034004E003409533001097
:1040E00040420F0000408F40D8940210A4B3021049
:1040F000B0B30210793C001094220020BCB302102F
:1041000010B5FFF773F910BDD0B5DAE011F046FC39
:10411000744B22019B189860D9602EE0714B2201EC
:104120009B185B79002B01D0002847D06D4B2201F2
:104130009B181B79002B04D16A4B9B189B79002B91
:1041400051D1684B22019B189E68DF6811F026FC54
:10415000801BB941002900DAA4E00134072C00DDFE
:10416000A8E0E1B2604800220EF042F95D4B220166
:104170009B189871DB799842C8D15A4B2201991843
:104180008879C871D35C012BC8D0032BC6D0022B11
:10419000C4D0043BDBB2042B05D8524B22019B1840
:1041A0001B79984247D14F4B2201D35C002BC8D1D9
:1041B0004C4B22019B189A791A71C2E7494B9B1804
:1041C0009E68DF6811F0EAFB801BB941002903DC1F
:1041D000ACD1464B9842A9D9424B22019B180022F0
:1041E0005A711A71ADE73F4B9B189E68DF6811F05A
:1041F000D5FB801BB941002903DCA2D13C4B98427E
:104200009FD9384B2201991801200871D35C022BE9
:1042100006D1344BCA7812019B181B79002B06D1AA
:10422000304B22019B18587801F076FA89E788789C
:1042300001F072FA85E72B4B9B189E68DF6811F03E
:10424000ADFB801BB941002903DCACD1294B98425E
:10425000A9D9244B2201D35C042B07D0214B220186
:104260009B189A791A7100F079FF6AE711F096FBB2
:10427000214A002312F070F81000190012F064FBBC
:1042800000221E4B12F077FA02000B001C4814F0BB
:1042900055FD144B22019B189A791A48210014F0FD
:1042A0004DFDDBE711F07AFB0E4B22019B18986065
:1042B000D96052E70C48FF210EF03BF8052019F0B9
:1042C000F7FF0121104C2068494219F0D3F8064845
:1042D0000EF056F8206800230022002118F024FE7A
:1042E00000243BE7C81C0020A820002007A50700E9
:1042F0006F17000037C7000040420F0000408F409A
:10430000D8940210D4B30210BC20002010B5094983
:10431000094820220EF00AF80721084B06E0002287
:104320001A715A719A71DA71013910330029F6DA6B
:1043300010BDC04670150020A8200020C81C002019
:10434000014B18687047C046BC20002010B50249D8
:10435000802213F09BF910BDC81C0020002301E04F
:104360000133DBB2072B12D8094A19018A5C013AE2
:10437000D2B2012AF4D8064A521852788242EFD1BA
:10438000034A52180121117100215171E8E7704769
:10439000C81C0020002301E00133DBB2072B10D83A
:1043A000084A19018A5C032AF6D1064A5218527843
:1043B0008242F1D1034A5218012111710021517139
:1043C000EAE77047C81C002030B500230AE0114A14
:1043D000AA5C8A420FD10F4A240112190124547198
:1043E0000133DBB2072B13D81C000A4A1D015219F6
:1043F00052788242EBD0074A2501AA5C8A42EFD16B
:104400000229EDD1034A521992788242E8D1E2E7BB
:1044100030BDC046C81C002070B505000023002038
:1044200014E01F4C1E01A4196478AC4216D11C4A3A
:104430000C0112191479002C06D0194A09015218DE
:104440005279002A00D120000133DBB2072B25D896
:104450001900134A1C01A25C012AE2D0022AF3D1FE
:104460000F4A0C0112195278AA420ED00C4A0C01C4
:1044700012199278AA42E7D1094A1419E478240162
:1044800012191279002ADFD0D1E7054A1419E4780D
:10449000240112191279002AC9D0E7E770BDC0467D
:1044A000C81C002010B50400002301E00133DBB27A
:1044B000072B14D80B4A19018A5C032AF6D1094A42
:1044C00052185278A242F1D1064A521810790028A7
:1044D000ECD0044A52185279002AE7D100E00020BB
:1044E00010BDC046C81C002010B50400002301E028
:1044F0000133DBB2072B14D80B4A19018A5C052A59
:10450000F6D1094A52185278A242F1D1064A5218FD
:1045100010790028ECD0044A52185279002AE7D1C9
:1045200000E0002010BDC046C81C002010B50400EB
:10453000002301E00133DBB2072B14D80B4A190129
:104540008A5C062AF6D1094A52185278A242F1D161
:10455000064A521810790028ECD0044A52185279B1
:10456000002AE7D100E0002010BDC046C81C002092
:1045700010B50400002301E00133DBB2072B14D88F
:104580000B4A19018A5C072AF6D1094A5218527857
:10459000A242F1D1064A521810790028ECD0044A00
:1045A00052185279002AE7D100E0002010BDC04621
:1045B000C81C0020014B18787047C046BB910220F0
:1045C00010B50248FF210DF0B4FE10BDA820002058
:1045D00010B500230024002001E00133DBB2072BDB
:1045E0000DD8074A19018A5C082AF6D1044A5218E4
:1045F0001279A2401043C0B20134E4B2EDE710BD1D
:10460000C81C0020704770B504000800FFF7FAFFCF
:104610000568002D08D0280022F07CFC2560606031
:1046200000232372200070BD0020F7E7F0B58BB0A7
:1046300005000B00110005AC220041CB41C2160061
:104640001000FDF712F86A466B4603CC03C319004D
:104650003000D0C8D0C1291D11CA11C12A000C32A6
:1046600013CB13C228000BB0F0BDF0B58BB0050022
:104670000B00110005AC220041CB41C21600100016
:10468000FFF7DBF86A466B4603CC03C31900300022
:10469000D0C8D0C1291D11CA11C12A000C3213CBB8
:1046A00013C228000BB0F0BDF0B58BB005000B00B5
:1046B000110005AC220041CB41C216001000FCF7EE
:1046C000F5FF6A466B4603CC03C319003000D0C81F
:1046D000D0C1291D11CA11C12A000C3213CB13C23B
:1046E00028000BB0F0BD00B585B0010001A8FFF7B0
:1046F0008AFF019B002B02D0002005B000BD0120E5
:10470000FBE7000082B0F0B5CE46474680B585B0E5
:1047100001AC01906160A2600D93002819D00D9B3F
:10472000002B1CD0029B99460E9B984699451CD2A3
:104730004F460024BC4223D2210001A8FBF760FEB3
:10474000050021000DA8FBF75BFE85420FD1013467
:10475000F0E7104B104A1148142114F009F9104BDE
:104760000D4A0E48152114F003F91F00E1E7281A3D
:1047700005B0C0BCB946B046F0BC08BC02B0184792
:10478000C14502D304D80020F2E701204042EFE700
:104790000120EDE764A10210E8B30210E0A20210CC
:1047A00044A3021030B58DB003AD0391049205937C
:1047B00006AC01002000FFF726FF290009A8FCF73E
:1047C000A4FB0AAB6A4603CB03C2099B0698079970
:1047D000089AFFF797FF002805DB02DC01200DB0E7
:1047E00030BD0420FBE70220F9E710B50B0000689C
:1047F00009685A689B68FFF7D5FF10BD30B591B0C6
:1048000004000D001100FCF772FB2379202B25D842
:10481000052B11D2032B4BD0042B2BD0022B17D1FD
:10482000200022F077FB01A90194486000230B725D
:104830002800FFF7DAFF0FE0053BDBB201229A40C8
:104840001300204A13423BD1DA0724D41B010CD4B5
:1048500028680021FFF747FF11B030BD402BF7D18A
:104860006B680C940D930020F6E76B680E940F9321
:104870000020F1E72468002C0BD0200022F04AFB36
:1048800004A90494486001230B722800FFF7ADFFD0
:10489000E2E70020F4E723681A000832DB8807A962
:1048A00007924B6000230B722800FFF79EFFD3E7AF
:1048B00023681A000832DB880A920B930020CBE7AA
:1048C0000020C9E7A202A00200B585B000900191C6
:1048D000002808D0019B02A902924B601A00FFF742
:1048E0008DFF05B000BD00211000FFF7FCFEF8E7CA
:1048F00000B585B0009001911268039203AAFFF7FA
:10490000E3FF05B000BDF0B587B0030040689968CB
:1049100003AA0C33E0CBE0C2002805D00091039934
:10492000049A059BFDF73EFD07B0F0BD10B5FFF7FB
:10493000EAFF002804D0007943425841C0B210BDBC
:104940000120FCE730B585B00500FFF7DCFF04006F
:10495000AD6802A902904D600822684612F096FEEA
:10496000002C05D029002000FCF7F6FF05B030BD73
:104970000020FBE770B584B004000E000800FFF7CC
:10498000C2FF0500B66802A902904E600822684680
:1049900012F07CFE25606660200004B070BD10B58A
:1049A00084B0019102AC01002000FFF7E3FF01AAEF
:1049B00002980399FFF79CFF013843425841C0B267
:1049C00004B010BD70B584B005000E000800FDF7FE
:1049D00002FD0400366802A902904E600822684673
:1049E00012F054FE002C02D02379202B04D12C602D
:1049F0006E60280004B070BD0024F8E7F0B5C6462C
:104A000000B5D14CA544D14AD14C210012A8FCF7E5
:104A100038FE12A902A8FFF7D5FFCE4A210016A83A
:104A2000FCF72FFE16A904A8FFF7CCFFCA4A210005
:104A30001AA8FCF726FE1AA906A8FFF7C3FFC74A63
:104A400021001EA8FCF71DFE1EA908A8FFF7BAFF4B
:104A5000C34A210022A8FCF714FE22A90AA8FFF7E6
:104A6000B1FFC04A210026A8FCF70BFE26A90CA81E
:104A7000FFF7A8FFBC4A21002AA8FCF702FE2AA9DA
:104A80000EA8FFF79FFFB94A21002EA8FCF7F9FDF9
:104A90002EA910A8FFF796FF012018F017FBB44BC2
:104AA0001860B448B44917F0CFFA032104200FF07E
:104AB00037FD032105200FF033FD002201210420E2
:104AC0000FF048FD0022012105200FF043FDAB4807
:104AD000FF210DF02EFC002424E050AEA84A29004E
:104AE0003000FFF7A3FDA7493000FFF758FF00286B
:104AF00062D0A54E27010323BB5556AB9846A34A67
:104B000029001800FFF792FD4046FFF71BFFF6193A
:104B10007070013870709C4B22019B1800225A71F2
:104B20001A710134072C00DDE7E0E30002AA9B586C
:104B3000002BF6D0E300D518914A290032A8FFF7E0
:104B400075FD934932A8FFF72AFF0028C5D08E4E85
:104B500027010123BB558F4A290038A8FFF785FD9F
:104B600038A8FFF7EFFEF6197070013870708A4AA6
:104B700029003EA8FFF779FD3EA8FFF7D7FE0028E1
:104B8000C9D1814E0223BB55834A290044A8FFF7AF
:104B90006CFD44A8FFF7D6FEF619B0700138B0706E
:104BA0007E4A29004AA8FFF77FFD4AA8FFF7CAFE00
:104BB000F0700138F070AEE75CAE714A2900300049
:104BC000FFF734FD75493000FFF7E9FE002804D0F7
:104BD0006D4B22010421D1549DE762AE684A290041
:104BE0003000FFF723FD6E493000FFF7D8FE0028A4
:104BF0001BD0654E27010523BB5568AB9846634A19
:104C000029001800FFF712FD4046FFF79BFEF6193A
:104C10007070644B1B78834201D2624B18705A4B00
:104C200022019B180138587075E76EAE544A29006E
:104C30003000FFF7FBFC5C493000FFF7B0FE0028B6
:104C40001BD0514E27010623BB5574AB98464F4AE3
:104C500029001800FFF7EAFC4046FFF773FEF6193B
:104C60007070504B1B78834201D24E4B1870464BEC
:104C700022019B18013858704DE77AAE404A29004E
:104C80003000FFF7D3FC49493000FFF788FE0028C9
:104C90001BD03D4E27010723BB5580AB98463B4AAE
:104CA00029001800FFF7C2FC4046FFF74BFEF6193B
:104CB00070703C4B1B78834201D23A4B1870324BD8
:104CC00022019B180138587025E786AE2C4A29002E
:104CD0003000FFF7ABFC36493000FFF760FE0028DC
:104CE00004D0294B22010821D15414E7264B22017C
:104CF0009B18FF225A709A700DE780222D492E488A
:104D000000230193063300930023520018F095FF0F
:104D100010F044FE184A002311F01EFB1000190089
:104D200011F012FE0022254B11F025FD02000B00B0
:104D3000234814F003F8234813F0D0FF8C239B0082
:104D40009D4480BCB846F0BDD0FDFFFF50B50210B9
:104D5000FC21002058B5021060B5021068B50210A1
:104D600070B5021078B5021080B5021088B5021037
:104D7000BC2000207015002040420F00A820002019
:104D80002CB00210A8B50210C81C0020B0B502104B
:104D900090B5021090B3021098B50210A0B50210A1
:104DA000B8B50210BB910220C4B50210D0B50210F4
:104DB000D8B50210E4B502100941001000408F4040
:104DC000D8940210ECB5021010B5FFF79FFA10BD91
:104DD000F0B5DE4657464E464546E0B5E1B05CAB21
:104DE00003221A735A7307213CAB06E000221A71A2
:104DF0005A719A71DA71013910330029F6DA0721F4
:104E00001CAB06E000221A715A719A71DA710139ED
:104E100010330029F6DA47467BE11A013CAFBC4665
:104E200062441279002A12D019017A1851780122AD
:104E30008A401543EDB20133DBB2072B29D81900A4
:104E40001A013CAE965D721ED2B2012AE5D9032E3C
:104E500010D0042EEFD109013CAA52181279002A71
:104E6000E9D00122824049461143CAB2914601303D
:104E7000C0B2E0E70A013CAFBC4662441279002AA6
:104E8000E7D009017A18517801228A401443E4B22C
:104E9000D1E74746A246FEF795F8041CA54B1B78C0
:104EA000002B02D1A44B00221A70A34B1B78002BBD
:104EB00000D1FBE0A14B1B78002B00D0F6E0A04B0B
:104EC0001F785CAB1F709F4B1B78002B00D18CE0D0
:104ED00000200DF0F7F85CAD687001200DF0F2F8DD
:104EE000A87002200DF0EEF8E87003200DF0EAF84B
:104EF0002871FFF76DFB68710023AB71EB712B72AA
:104F00000DF0FAF868819049201C12F086F912F031
:104F100059FA11F0C3FD11F0FFFCC0B25CAD68722C
:104F20003B0913936B789846AB781493EA78159203
:104F30002E7916966B791793AA791892EE791996AD
:104F40000822AA56D317D2185A4012926B4648220A
:104F50009B181B781A9306091B966E89330B99468A
:104F6000330A9A4632090F231F40BC460327BB462B
:104F700011970027109759460F910E970F373E4013
:104F80000D963A400C9251460F400B9749460A91B4
:104F9000184009901B98089012990B4007931A9F8C
:104FA0003B11069319980590189F04971798039042
:104FB000169E0296159A0192149B009343466246F0
:104FC0001399624813F0BAFE5C985D995E9A5F9BF4
:104FD000FEF788FA5E4A13780133DBB213705D4A3C
:104FE0001278934224D8271C81E0002000F0C0FBF7
:104FF0005CAB98465870012000F0BAFB43469870AD
:10500000022000F0B5FB4346D870032000F0B0FB4F
:10501000434618715D7152469A714A46DA71FEF73D
:105020008DFB4346187200F0C7FB434658816AE780
:10503000474B00221A70404B1A70002514E0700094
:1050400080193C4A80180136710089198918032299
:1050500012F01CFBF6B2062EF1D9364B00225A751F
:105060009A75DA750135EDB2072D1DD82A00314B3E
:10507000690049195B189B78002B06D12D4B6900FC
:1050800049195B185978013959702A4B5100891810
:10509000CB5C002BE6D0274B51008A189B185B781D
:1050A000002BDFD12E00D6E7271C20E080223CA970
:1050B0001CA821F07BFD002802D01F4B01221A7092
:1050C000391C201C12F089F8FA21890512F0F4F835
:1050D000002809D1211C381C12F07FF8FA2189051B
:1050E00012F0EAF8002802D0134B01221A70802235
:1050F0003CA91CA812F0CAFA0F4B1B78002B13D145
:105100000122154B0093002352420021002019F088
:1051100055FE3CA8FFF71AF9002300200022914613
:105120000025B846140088E6FA20400019F0C0F8BF
:10513000EFE7C046C4200020BC910220BF910220AE
:10514000BD910220C09102200000204100B6021053
:10515000BE910220C19102208813000000B583B0E7
:10516000074B01221A70074B00221A70064B186871
:1051700000920223002119F097FE03B000BDC04643
:10518000BC910220BE910220C0200020014B18706B
:105190007047C046BF91022070B58AB001AB18803D
:1051A0000D00002018F0E8FD0400514B1B68002B97
:1051B00051D00023072B12D819004E4A5800C018AE
:1051C000825CAA4204D0002A02D00133DBB2F1E7AC
:1051D000484B4A005218D5549B1803225A7001AB11
:1051E00058780C2837D88300434AD3589F4642004A
:1051F00012189B1801229A700AE00130C0B20728E9
:1052000013D804003B4B42001218D65CAE42EED0DD
:10521000384B620012199B189B78002BEDD1002EA1
:10522000EBD01900E9E70121E9E7002913D0334B5E
:1052300000221A70324B1A700DE0FFF78FFF0AE060
:1052400000F04CFB07E00338C4B22000FFF786F8FB
:10525000200000F061FA0AB070BD0738C4B2200027
:10526000FFF798F8200000F057FAF4E710F096FBEB
:10527000244A002311F070F81000190011F064FBAB
:105280000022214B11F077FA02000B001F4813F0A7
:1052900055FD1F4813F022FD0E21002018F07CFD63
:1052A00018F084FE00250AE028000FF0CBFB03ABCA
:1052B0005855002128000FF0DFFB0135EDB2192D04
:1052C000F2D9FBF735F8002506E003AB595D28005D
:1052D0000FF0D2FB0135EDB2192DF6D921000020D7
:1052E00018F05AFD18F034FFB5E7FBF725FBB2E7DD
:1052F000C0200020C4200020E8F80210BC91022049
:10530000BE91022040420F0000408F40D89402100E
:1053100030B60210F0B5DE4657464E464546E0B57B
:10532000A1B01CAC1C901D911E921F93314B1B7899
:10533000002B06D021B0F0BCBB46B246A946A04621
:10534000F0BD2278110963789C46A3781493E07825
:1053500015902579169566791796A7791897E379A8
:1053600019930823E356D8171D18454013956B462B
:105370004C201B1818781A90657A2E091B966089A4
:10538000070BB846070AB9460309267B3709BA4610
:10539000677B3C09A3460F242240274011975F46B4
:1053A000109726400F9657460E970F2630400D90C7
:1053B00033400C934F463E400B9647460A97254094
:1053C00009951B9E0896139D2C4007941A9C231147
:1053D0000693199C0594189F0497179E0396169D93
:1053E000029515980190149B00936346024813F0B0
:1053F000A5FC9FE7BF91022000B6021070B58CB0EB
:1054000003AD264A264C21002800FCF75BF9280052
:10541000FDF760FA234D287007AE234A21003000C3
:10542000FCF750F90A230B930BA93000FEF7A0FB01
:105430001E4B18701E4B00221A701E4B29781970D3
:10544000032159709A701C4B1B78022B22D08022AA
:105450001A491B481B4B019305230093002392001C
:1054600018F0EBFB10F09AFA174A002310F074FFC3
:105470001000190011F068FA0022144B11F07BF9AA
:1054800002000B00124813F059FC124813F026FCDE
:105490000CB070BD104B01321A70D8E79CB00210EE
:1054A000FC210020BD91022040B60210C1910220D3
:1054B000BE910220C4200020C891022048B60210EC
:1054C000D14D0010C020002040420F0000408F400E
:1054D000D894021054B60210C091022010B50029D1
:1054E00004D0086803685B690249984700200021DE
:1054F00010BDC04600007F4310B503490348044B6C
:1055000001220CF0D5FF10BD701500207022002084
:105510000080654210B50C1E08D0086803689B68BF
:105520009847022805D120230022E25400200021C0
:1055300010BD10F033FA0E4A002310F00DFF1000DA
:10554000190011F001FA00220A4B11F014F90200BF
:105550000B00094813F0F2FB084813F0BFFB20686A
:1055600003685B6800219847FFF7F8FDDBE7C0465A
:1055700040420F0000408F40D89402106CB60210D9
:10558000F0B5D6464F464646C0B584B080468A46FA
:1055900017001E000CAB1B78994610F0FFF90400B1
:1055A0000D00FA22920000235046002111F0F8FD70
:1055B00002000B0012196B41002B0CDB49460291D3
:1055C0000196009740460FF0F9FF04B0E0BCBA46E0
:1055D000B146A846F0BD01225242014BEEE7C0465B
:1055E000FFFFFF7FF0B583B004000D0016001F0021
:1055F0000FF07CFF009733002A002100FFF7C0FF67
:1056000003B0F0BDF8B504000E001100002508E05D
:105610002C4B6200121912019B185B190122DA72DD
:105620000135284B6000001900011B181F79AF429B
:1056300009DD244B6200121912019B185B195B797A
:10564000B342EDD1E4E70020002500E001308742BD
:1056500011DD1C4B6200121912019B181B18DB7A1A
:10566000002BF3D1174B4200121812019B18002295
:105670009A740125EAE7002D22D14B1EDBB2012BE3
:1056800004D92000FEF7A0FE002111E00121200036
:10569000FEF79AFE02212000FEF796FEF4E7094B82
:1056A0006200121912019B185B180022DA72013194
:1056B000044B6200121912019B181B798B42EEDC1D
:1056C000F8BDC046501D002010B5002400E0013494
:1056D000032C0BDC0C4A63001B19190188580028A5
:1056E000F5D003681B6804219847F0E7074B197849
:1056F000FF2903D1064B00221A7010BD0548002275
:105700000CF01AFFF6E7C046501D0020CC91022095
:10571000CE9102207022002000B583B0124A4300CF
:105720001B181B019B58002B1BD0002108E00E4BBF
:105730004200121812019B185B180022DA72013124
:105740000529F4DD084B4200121812019B180022B3
:105750009A74064B8000C05800920223002119F071
:10576000A3FB03B000BDC046501D00204022002016
:1057700010B5104A430018180001805800280FD0B7
:1057800003689B68984702280CD005D800280BD0E6
:1057900001280BD1403004E0032809D1493000E052
:1057A0004F2010BD5220FCE74720FAE74F20F8E7D2
:1057B0004F20F6E7501D002070B5FEF7C1FD012116
:1057C000494217F057FE22480CF03EFFFEF7B8FDA5
:1057D00000230022002117F0A7FB1E4B1B78002B93
:1057E00006D100251C4B1B78002B1AD1280070BD58
:1057F00017480CF0B5FF002810D10025F2E701345E
:10580000E4B20F2CEED8124821000CF0EBFE012878
:10581000F5D10123A3401D43ADB2F0E700240025DC
:10582000EFE70B480CF0AEFF0028DFD0002401E0CA
:105830000134E4B20F2CD9D8054821000CF0D2FE77
:105840000228F5D10123A3401D43ADB2F0E7C046C5
:1058500070220020CA910220CB91022070B5FEF781
:105860006FFD0121494217F005FE0D480CF0ECFEDA
:10587000FEF766FD00230022002117F055FB0024EF
:10588000002508E0064821000CF0ACFE63009840BB
:1058900005430134E4B20F2CF4D9280070BDC04692
:1058A00070220020004870475022002010B50248A6
:1058B0000CF09BFE10BDC0467022002010B5054ABA
:1058C000430018180001805803681B690249984773
:1058D00010BDC046501D002000007F4310B51E4B78
:1058E0001B78002B03D01D4B1B78002B2ED01C489F
:1058F0000CF094FF002400E00134032C17DC194A5B
:1059000063001B191B019B58002BF5D0E0B2FFF779
:10591000D5FF114B1B78002BEED1124A63001B19E7
:105920001B01985803681B6800219847E4E70E4B59
:105930001978FF290BD1084B01221A70074B00225E
:105940001A7010F02BF8094B1860596010BD04480C
:10595000FF220CF0F1FDEEE7CE910220CF91022064
:1059600070220020501D0020CC910220481D0020F4
:10597000F0B5CE46474680B583B001900C00FDF7E8
:10598000E9FE060000220025002117E00130B84B97
:105990005700BF183F01DB191B7983420DDD002939
:1059A0000BD1B34B5700BF183F01DB191B185B79B4
:1059B000A342EBD1D5B20121E8E70132032A03DC8F
:1059C000002901D10020E2E701AB1B78B34214D0DB
:1059D000B3420DD0A6420BD001ABDB78412B05D0F2
:1059E000612B03D0522B01D0722B01D1FFF776FF30
:1059F00003B0C0BCB946B046F0BD01AA9778002FED
:105A0000E6D10029E4D0A642E2D00FF0C7FF994AC0
:105A1000002310F0A1FC1000190010F095FF0022E7
:105A2000954B10F0A8FE02000B009449080013F0FB
:105A300085F9A84601ABDB781A0099469048230007
:105A4000290013F07BF9FFF749FF4B46672B09D874
:105A5000412BCDD3413BDAB2262AC9D89300894ADB
:105A6000D3589F46722BC3D1A64200D2B8E0804AD9
:105A700043465B0043441B01985803689B68984762
:105A8000012800D1B1E0002F00D1BAE000230122AB
:105A900052212000FDF7BAFCAAE701AB5B78002B8E
:105AA0002DD02800FEF7FEFC06000322210028006E
:105AB000FFF7A8FD6E4A43465B0043441B0198581C
:105AC00003689B68984701281FD0694A43465B00DA
:105AD00043441B01985803681B6800219847FFF74F
