:020000041000EA
:1000000000B5324B212058609868022188439860DF
:10001000D860186158612E4B002199600221596106
:100020000121F02299502B49196001219960352056
:1000300000F044F80222904214D00621196600F024
:1000400034F8196E01211966002018661A6600F04E
:100050002CF8196E196E196E052000F02FF8012189
:100060000842F9D1002199601B49196000215960AB
:100070001A491B48016001219960EB211966A021F2
:10008000196600F012F800219960164914480160C1
:100090000121996001BC002800D000471248134993
:1000A000086003C880F30888084703B5996A0420EC
:1000B0000142FBD001200142F8D103BD02B5186610
:1000C0001866FFF7F2FF186E186E02BD00000240BE
:1000D000000000180000070000035F00212200005C
:1000E000F4000018222000A00001001008ED00E03C
:1000F00000000000000000000000000074B24E7A12
:1001000000200420F7010010C3010010C5010010F9
:10011000C1010010C1010010C1010010C101001097
:10012000C1010010C1010010C1010010C701001081
:10013000C1010010C1010010C9010010CB01001065
:10014000CD010010CD010010CD010010CD01001037
:10015000CD010010CD010010CD010010CD01001027
:10016000CD010010CD010010CD010010CD01001017
:10017000CD010010CD010010CD010010CD01001007
:10018000CD010010CD010010CD010010CD010010F7
:10019000CD010010CD010010CD010010CD010010E7
:1001A000CD010010CD010010CD010010CD010010D7
:1001B000CD010010CD010010CD010010CD010010C7
:1001C00000BE00BE00BE00BE00BE00BEEFF3058054
:1001D000103800BEF2EB8871A02A0310D42A031055
:1001E0003802001090A31AE71E481F49086006C88D
:1001F00081F3088810471D480068002801D019487D
:10020000F3E70DA40ECC002902D000F012F8F9E7B4
:100210001749184A002000E001C19142FCD116495B
:100220008847164988471649884700BEFDE701C937
:1002300001C29A42FBD37047D42A0310C0000020A9
:10024000C81C0020DC46031000000420000004202D
:10025000DC46031000100420001004200000000001
:10026000704700000000000008ED00E0000000D032
:10027000C81C0020009B0220399301109D2600100D
:10028000FB920110F8B5C04606480749091A8B10C1
:10029000C90FC91810B5491003D0044B002B00D06A
:1002A000984710BDC81C0020C81C0020000000009A
:1002B000054B10B5002B03D00449054800E000BFF2
:1002C000FFF7E2FF10BDC04600000000943C002094
:1002D000A093021030B5032910D80023002406E0B3
:1002E0000268D25C55426A4114430133DBB2CAB2A0
:1002F0009A42F5D801235C40E0B230BD0020FCE713
:10030000094B0A4A1A6000221A719A6019000C31CE
:10031000D9621A8604325A86053A9A8600203C2110
:100320005854DA877047C046142A00207411002000
:1003300010B5C0218901024828F0CAFF10BDC0468F
:1003400000D01F0010B50100C0229201014828F022
:10035000A7FF10BD00D01F0010B50800110017F056
:1003600027FE10BD10B5080017F03AFE10BD10B5FD
:10037000080017F007FE10BD10B504000800802328
:100380005B029C420DD221000931230009330AD2BD
:1003900003681B689847002802D0C480012383802B
:1003A00010BD0020FCE70020FAE70000F8B50700C8
:1003B0000D00140000280ED080235B02994210D259
:1003C00013689B680A000932010020009847061E46
:1003D00008D0C5800BE0074B074A0848332118F0C6
:1003E0008FFF002623685B683900200098473000A3
:1003F000F8BDC046A0930210B09302106C94021096
:1004000010B50368002B04D042688A4207D3585CB9
:1004100010BD064B064A07482B2118F071FF064B0A
:10042000034A04482C2118F06BFFC046C894021000
:10043000D49402101C9502108495021070B504002B
:100440000D0005E00B6823602B685B682800984767
:1004500021680029F6D170BD10B5002903D00368CA
:100460000B60016010BD034B034A0448433118F090
:1004700047FFC046A09302103C960210E095021080
:1004800070B50368002504E01968016011E01D00E3
:100490001B68002B12D01C0008348C42F7D19988BD
:1004A000013989B29980002908D1002DECD0196852
:1004B000296011684C6819001000A04770BD000049
:1004C00010B50068002800D010BD034B034A044853
:1004D000272118F015FFC0469C960210B096021016
:1004E0001C97021070B504000D000B79042B0CD082
:1004F000052B17D0022B1ED1080027F0D3F9256059
:10050000606000232372200070BD0D68002D07D0AD
:10051000280027F0C7F92560606001232372F2E705
:100520000020F8E70B681A000832DB88026043609D
:1005300000230372E7E70023036043600133037283
:10054000E1E7000010B50379002B03D10623037106
:10055000017010BD034B044AD4210448FF3118F048
:10056000CFFEC046809702109C970210E0970210C1
:1005700010B50379002B05D1002909D0052303719B
:10058000016010BD064B074A0748084918F0B8FE3D
:10059000074B044A89310448890018F0B1FEC0466F
:1005A0008097021040980210E0970210230200008A
:1005B000D0D7021010B50379002B08D14023037166
:1005C000002303804380013B0380438010BD034B25
:1005D000034A8E210348890018F092FE809702108A
:1005E000AC980210E097021010B50379002B08D1E7
:1005F00020230371002303804380013B0380438059
:1006000010BD034B034A0448044918F079FEC04664
:10061000809702100C990210E09702104602000029
:1006200010B504004168002904D003681868036805
:100630005B689847200010BD70B5040000238360FC
:100640004368002B00D070BD056829681F20FFF7A4
:1006500093FE002801D06060F5E701232B71FAE7D3
:1006600070B504000D004068002803D0A168C3885D
:10067000994208D06368002B04D0A268511CA16085
:100680009B181D7270BD2668490001313268FFF762
:100690008DFE002801D06060ECE701233371FAE79A
:1006A00010B54B68002B0AD08A689B1800221A727A
:1006B0004B680833896803604160027210BD034BC8
:1006C000034A04484D2118F01BFEC04670990210E1
:1006D00084990210E099021000B587B00090019152
:1006E000002804D0010003A8FFF7FCFE039807B020
:1006F00000BD000010B50378052B03D8044A9B0009
:10070000985810BD034B044A0448452118F0F8FDE1
:100710005C110020409A0210849A0210CC9A0210B8
:1007200010B50078002802D00138C0B210BD034BCC
:10073000034A0448132118F0E3FDC0463C9B021015
:10074000489B0210D49B0210A0239B01CB189BB2A4
:100750008022D20093420AD390239B01CB189BB2F4
:100760008022D200934207D341600120704789055F
:10077000890D01800020F9E703889B028905890D16
:100780000B43802252029446634443600120EDE70C
:1007900010B50378022B02D1C168806810BD034BED
:1007A000034A0448532118F0ABFDC0463C9C02109C
:1007B000609C0210C49C021010B50378032B02D178
:1007C000C168806810BD034B034A0448582118F0E3
:1007D00097FDC046249D02104C9D0210C49C02103F
:1007E00010B50378012B01D1806810BD024B034A7C
:1007F00003485D2118F084FDB09D0210CC9D0210CD
:10080000C49C021010B50378042B02D1C168806823
:1008100010BD034B034A0448632118F071FDC04624
:100820000C9E0210289E0210C49C021030B589B0A4
:100830000500324B32481860C0229201290026F090
:100840007DFE002843D01EF079F800240AE0200045
:1008500014F0C0FD01AB18550021200014F0D4FDA8
:100860000134E4B2192CF2D9FA24E400254822001C
:10087000002116F0BFF815F099FF23482200290047
:1008800016F0B8F8002406E001AB195D200014F062
:10089000BBFD0134E4B2192CF6D91EF021F915F094
:1008A00045FD1A4A002316F01FFA1000190016F031
:1008B00013FD0022164B16F026FC02000B00154813
:1008C00018F004FF144818F0D1FE09B030BD15F03F
:1008D0002DFD0E4A002316F007FA1000190016F03D
:1008E000FBFC00220A4B16F00EFC02000B0009482C
:1008F00018F0ECFE094818F0B9FEE6E758110020A0
:1009000000D01F10310300104503001040420F00BB
:1009100000408F40689E0210749E02108C9E021050
:1009200010B5014814F02EFCA89E021010B5014825
:1009300014F028FCC49E021010B515F0F7FC0E4A06
:10094000002316F0D1F91000190016F0C5FC0022A2
:100950000A4B16F0D8FB02000B00094818F0B6FE4F
:10096000084818F083FE1DF0E9FFFA20012140003D
:1009700015F064FFFEE7C04640420F0000408F4084
:10098000689E0210E09E021010B5D0231B06802442
:1009900064015C628020000158628021C9005962B4
:1009A000802292015A629C61986199619A6110BD9E
:1009B00010B50068002800D010BD034B034A04485E
:1009C000262118F09DFCC04604A0021014A00210BD
:1009D00088A0021010B5016082804B425941074B3C
:1009E0009C46624453425A418A4200D110BD044B96
:1009F000044A0548162118F083FCC0460100FFFF99
:100A0000E4A0021008A1021088A0021010B500682E
:100A1000002800D010BD034B034A0448262118F0DB
:100A20006FFCC04604A00210D4A1021088A00210DE
:100A30007047000010B5016082804B425941074B5E
:100A40009C46624453425A418A4200D110BD044B35
:100A5000044A0548162118F053FCC0460100FFFF68
:100A6000E4A0021058A2021088A0021010B5016084
:100A700082804B425941074B9C46624453425A4143
:100A80008A4200D110BD044B044A0548162118F0D3
:100A900037FCC0460100FFFFE4A0021030A30210A3
:100AA00088A00210016042600023037270470000BA
:100AB000F0B5C64600B505000E000479002C13D130
:100AC0004B68032B16D8022303714B689846DFB29C
:100AD000BC421CD221003000FFF792FC002810D04D
:100AE00028550134E4B2F3E70D4B0E4A0E480F4986
:100AF00018F006FC0E4B0B4A85210B48890018F0B4
:100B0000FFFB0C4B074A08480B4918F0F9FBFF2381
:100B1000424613400022EA5480BCB846F0BDC046AD
:100B20008097021000A40210E09702101302000048
:100B300098A40210B8A402101B02000070B5141E85
:100B400004DD0C4E002C03DD002506E00A4EF9E71B
:100B50006442F9E764100135EDB2002C08D0E307D8
:100B6000F8D5EB00F3181A685B6816F0EAFAF1E7BB
:100B700070BDC04600020310B801031070B50C1E12
:100B800004DD0B4E002C03DD002506E0094EF9E7DD
:100B90006442F9E764100135EDB2002C06D0E3079A
:100BA000F8D5AB00F15817F000F8F3E770BDC04678
:100BB0009C0103108401031010B504000800616853
:100BC000002902D003685B68984700236360238094
:100BD000638010BD70B505000E00002407E0286A90
:100BE000E300C0183100FFF7E7FF0134A4B2AB8C7B
:100BF000A342F4D80023AB84013B2B85296AA94288
:100C000006D033685B68300098472D620423EB847C
:100C100070BD10B5040001680C30FFF7DBFF002346
:100C20002371216820000830FFF708FC10BD10B5C3
:100C30000400080061686288D20003689B689847D6
:100C4000002802D060606388238010BD70B5040066
:100C50000D00838C002B11D1216AA1420DD0A28CF2
:100C6000E38C9A4209D0D2002B689B6828009847F1
:100C7000206200280BD0A38CE38470BD006A074A71
:100C800094466344DB00C018FFF7D1FFE4E7044B50
:100C9000044A0548922118F033FBC046FFFFFF1FAE
:100CA000C0A40210D4A40210A49F021010B543885F
:100CB0008B4203D94068C900401810BD024B034A5B
:100CC00003484B2118F01CFB80A502108CA50210D4
:100CD00088A0021010B50B4B994211D0CB097F228E
:100CE0001140828C9A4205D9006ADB00C018FFF7D8
:100CF000DDFF10BD044B054A0548712118F000FBCB
:100D00000020F6E7FFFF000074A6021088A602107C
:100D1000A49F021070B505000C000E8D0A4B9E4278
:100D20000CD031002000FFF7D5FF01000388238598
:100D300032002800FFF77EFE280070BD034B044AF6
:100D40000448992118F0DCFAFFFF000074A7021094
:100D50008CA70210A49F021010B582B0040000916D
:100D600001924188084A914205D16B469B880380D5
:100D7000438002B010BD0C331800FFF7ABFF6B4689
:100D80009B88C3806380F4E7FFFF000070B5040018
:100D90000368002B08D0DD880C3108002900FFF71C
:100DA00099FF2060A58070BD024B034A03481021C3
:100DB00018F0A6FA40A8021048A80210BCA8021019
:100DC00082B030B583B00400684600910192079369
:100DD000FFF7EEFD07AB9D88C58061880A4B9942FD
:100DE00008D16B469B882380658003B030BC08BC6B
:100DF00002B0184709980C30FFF76CFF6B469B88D0
:100E0000C3806580F1E7C046FFFF000070B584B085
:100E100004000D000C30FFF75DFF010002AE2A0058
:100E20003000FFF707FE6D4608223100684617F0D4
:100E3000F5F8A28E009B1A80AB88A38604B070BD23
:100E4000F0B5C64600B582B080460E00048810E0BA
:100E500030000C302100FFF73DFF0100C788220061
:100E60006846FFF7B7FD0099019A300000F031F8AD
:100E70003C00064B9C42EBD101235B42424613806F
:100E8000538002B080BCB846F0BDC046FFFF0000F2
:100E900070B504000D000379DB070DD42379DB0660
:100EA00012D4237960221A4203D029002000FFF7D0
:100EB000C7FF0023237170BD016808312A6828002C
:100EC0000830FFF7DDFAE9E721882800FFF79EFFE9
:100ED000E7E770B586B004006D4600910192684660
:100EE000FFF766FD2100FFF7D3FF0098FFF7A0FD95
:100EF0000100AA8804AE3000FFF79CFD02AD082275
:100F00003100280017F08AF8A28E029B1A80AB8865
:100F1000A38606B070BD10B50B000279D20605D5C8
:100F200001880C331800FFF7D5FE10BD0020FCE748
:100F3000704770B504000800FFF7FAFF230026C8C9
:100F400026C3200070BD704710B504004B68002B0D
:100F500009D04A880888824209D300232360013BD4
:100F6000A380200010BD0360013B8380F9E7501C83
:100F70004880D10059182000FFF75CFDF1E7000020
:100F800030B583B005008B8C002B15D0013B9CB293
:100F9000096AE300C9186846FFF7D6FF00990029DF
:100FA00010D06B469A88E401121992B22800FFF71C
:100FB00041FD280003B030BD054B064A0648A1217B
:100FC00018F09EF900232B60013BAB80F1E7C0468F
:100FD00020A902102CA90210A49F021070B50400D1
:100FE0000800E38C80229200934219D05B009DB2EE
:100FF000216AA14209D0EA0003689B689847061E4F
:1010000012D02662E584012070BDE90003681B68E8
:101010009847061E06D02022210016F0FFFFF0E7B9
:101020000020F1E70020EFE70020EDE770B50500B4
:101030000C00100000290AD0C90013681B689847EB
:101040006860002809D02C8000236B8070BD044BA1
:10105000044A0548332118F053F90024F3E7C04649
:10106000E0A90210E8A9021088A0021070B50400DF
:101070000E00828CC38C9A4211D0236AA58C681C06
:1010800080B2A084ED005D1980239B0098420CD0B3
:10109000802132002800FFF7C9FF280070BDFFF74C
:1010A0009DFF0028E9D10025F7E77F21F1E7000047
:1010B000F0B583B007000C0016000D8D124B9D4259
:1010C0000DD18B8C002B0FD06846FFF759FF009B8A
:1010D000002B09D06B463A0003CB03C201E0FFF7B7
:1010E00019FE380003B0F0BD31002000FFF7BEFF4D
:1010F000002804D021003800FFF742FFF1E7002369
:101100003B60013BBB80ECE7FFFF000030B583B0E4
:1011100005000C000A680C316846FFF7C9FF009B08
:10112000002B10D06846FFF771FC011E03D000238E
:101130000371013BC3806B469A882800FFF74AFC85
:10114000280003B030BD0133237100232B60013B25
:10115000AB80F5E770B582B005000C006846FFF77C
:10116000D5FF009E002E05D023003100019A2800F3
:10117000FFF7F2FD300002B070BDF0B587B005009A
:101180000E001400110004A8FFF7C0FF049F002FF9
:1011900010D0210002A8FFF7B9FF029B002B0CD052
:1011A00033600194039B0093029B0499059A2800E5
:1011B000FFF706FE380007B0F0BD1F00FAE730B5B4
:1011C00083B005000C000A680C316846FFF770FF19
:1011D000009B002B0BD06C466846FFF717FC010004
:1011E000A2882800FFF742FC280003B030BD01337D
:1011F000237100232B60013BAB80F5E782B070B513
:1012000084B001AC01906160A2600993002816D0FF
:10121000099B002B19D0029E0A9B9E421DD10024DF
:10122000B44218D2210001A8FFF7EAF80500210016
:1012300009A8FFF7E5F8854215D10134F0E70B4B1B
:101240000B4A0C482D2118F05BF80B4B084A094853
:101250002E2118F055F8012000E0002004B070BCE9
:1012600008BC02B018470020F8E7C046F4AA0210F4
:1012700004AB021070AC0210D4AC021030B587B0D1
:101280000D00046800E02468002C11D02100083112
:10129000E28803A8FFF706FC04AB6A4603CB03C24F
:1012A000039B28686968AA68FFF7A8FF0028EAD0AE
:1012B000200007B030BD0000F0B589B005000E1E5B
:1012C00025D04468002C28D0083401948768390060
:1012D00001A8FEF7FFFF002825D1E41900232370A1
:1012E0002C6805AFAA6801993800FFF7DBFB2000E6
:1012F00008303900FFF7C2FF041E1FD08388013376
:10130000838021003000FFF733F909B0F0BD174B9F
:10131000174A18481D2117F0F3FF174B144A1548B8
:101320001E2117F0EDFF02AD3A0021002800FFF763
:10133000B9FB29003000FFF7BBFBE6E72F686868C0
:10134000A9683A68FFF732F8041E07D02868083009
:101350002100FFF781F800236B60D2E701233B7186
:10136000064B034A03482A2117F0CAFFE4AC0210D7
:10137000F8AC0210E099021070990210A0930210CC
:1013800070470000F0B5DE4657464E464546E0B58C
:1013900087B08246884600291CD009782B291FD0A7
:1013A0002D2923D12C398C46E0448B4641460878C0
:1013B00001003039C9B2092937D92E2861D000235C
:1013C00052461370504607B0F0BCBB46B246A94621
:1013D000A046F0BD9F4BA04AA0486E3117F090FF89
:1013E00001218C46E04400218B46DFE700218B463B
:1013F000DCE79B498C4226D96346002B5AD15B46D9
:10140000002B41D080231B069D4255D801D1002CD2
:1014100052D100236242AB410221504601708260EA
:10142000C360CFE74C4522D9E6E7002400254146BA
:1014300009788C463039C9B289460929DCD88949EE
:101440008D42D9D8D5D0A10FAB000B43A20020000C
:101450002900801859410018494100900191040069
:101460000D004E460027F1438946691CDAD00098EA
:1014700001998019794104000D0001218C46E04456
:10148000D5E700240025D2E7032352461370946069
:10149000D56097E70A2200232000290015F024FCDC
:1014A00004000D00013636B280235B039D42F1D269
:1014B000414606E00026F7E70026F5E7013636B29A
:1014C00001310A781300303BDBB2092BF6D988468C
:1014D0002E2A0FD043461B78652B35D0452B33D0B1
:1014E0000022B61843461B78002B7DD000235246BD
:1014F000137067E701239C46E044B446424613E07C
:10150000A70FA9003943A00024184D4124196D41AB
:10151000029300230393029E039FA4197D41664614
:10152000013E33B29C4601321378303BDBB2092BCB
:1015300007D84D4FBD42F6D8E2D14C4FBC42F2D84D
:10154000DEE766469046C5E74346581C5B782D2B80
:1015500015D02B2B16D00027002201780B00303B32
:10156000DBB2092B39D893009B185B0030395A182D
:10157000B1189A235B00994208DC0130EDE7013095
:101580000127E9E7404602300027E5E7002F0BD0AE
:101590005B46002B06D080221206012351460B70B9
:1015A0008A600FE70022F8E75B46002B0ED0002090
:1015B0002F49FFF7E5FE0D000200802109066B1898
:1015C0000421504601708260C360FBE60020284978
:1015D000FFF7D6FE02000B00F2E7002F02D05242C6
:1015E00080467EE780467CE7330026334C2B01D8CB
:1015F000002D15D02000290015F06EFE3200FFF7F7
:101600009DFA04000D005B46002B03D080210906E3
:101610006B181D000423524613709460D560D1E608
:10162000002D03D180231B049C42E3D2200029001B
:1016300016F082FB3100FFF7A1FA5B46002B04D1C4
:101640000123524613709060BCE680231B069C4623
:101650006044F5E760AD021068AD0210C49C021052
:10166000999999999999991999990100989999999C
:101670000000F07F7047000010B5FFF7FBFF006827
:10168000002800D010BD0148FCE7C04670FC0210E5
:10169000704710B504000800FFF7FAFF206004232C
:1016A0006360033B2372200010BDF0B587B00400D7
:1016B0000E00110003AD2800FFF7EBFF6B466A46F2
:1016C00083CD83C2220040C223CB23C2200007B0B7
:1016D000F0BD704710B504000800FFF7FAFF206066
:1016E00007236360063B2372200010BDF0B587B06E
:1016F00004000E00110003AD2800FFF7EBFF6B465E
:101700006A4683CD83C2220040C223CB23C220007D
:1017100007B0F0BD704770B504000800FFF7FAFF8E
:10172000230026C826C3200070BD82B0F0B58BB060
:10173000060010921193139D131E0AD00C882800E6
:101740000C302100FFF7C6FA029002AB9C80012406
:101750000FE00260013B838030000BB0F0BC08BC9E
:1017600002B0184701235C40E4B2290002A8FFF749
:101770000DFB029B002B1ED0002CF3D002A8FEF71D
:101780009FFE010004AF3800FEF7ACFE390007A849
:10179000FFF7C1FF08AB6A4603CB03C2079B109853
:1017A0001199129AFFF72AFD0028DBD002AB320014
:1017B00003CB03C2D0E73360013BB380CCE710B565
:1017C00088B00391049205930A9B0193059B0093B3
:1017D0000A00049B010006A8FFF7A7FF069800284F
:1017E00004D00A9906A8FFF7D1FA069808B010BDF0
:1017F0000023FF2282425B41D8B2704710B504003B
:10180000FFF7F6FF002801D0E0B210BD0020FCE792
:10181000002806DBC30FFF22002182424B41D8B2D1
:1018200070470020FCE710B50400FFF7F1FF002827
:1018300001D0E0B210BD0020FCE70123002902D155
:1018400002D1FF2800D90023D8B2704710B5040098
:10185000FFF7F3FF002801D0E0B210BD0020FCE745
:1018600000290ADB0123002902DD0023D8B27047DA
:101870000029FBD1FF28F9D9F7E70020F7E710B5D9
:101880000400FFF7EDFF002801D0E0B210BD0020FA
:10189000FCE7000010B5041C002116F0CDF900286B
:1018A00007D00549201C16F0BFF9002802D00120FE
:1018B00000E0002010BDC04600007F4310B5041CAE
:1018C000FFF7E8FF002804D0201C16F01BFAC0B276
:1018D00010BD0020FCE7000070B504000D000022E0
:1018E000002315F087FC002809D00022054B2000BA
:1018F000290015F077FC002802D0012000E000202C
:1019000070BDC04600E06F4070B504000D00FFF7E9
:10191000E3FF002805D02000290015F0C5FCC0B267
:1019200070BD0020FCE710B50378032B18D00AD84F
:10193000012B11D0022B04D1C1688068FFF79FFFF3
:101940000DE000200BE0042B04D1C1688068FFF794
:10195000DBFF04E0002002E08068FFF7AFFF10BD6E
:10196000C1688068FFF772FFF9E710B584B0010025
:101970006846FFF707FD6846FFF7D5FF04B010BDC6
:1019800010B50400FFF7C7FA23791E2B31D89B004E
:10199000194AD3589F4620782CE02068FFF72EFF85
:1019A00028E02068FFF73FFF24E041680068FFF768
:1019B0004DFF1FE041680068FFF761FF1AE020005B
:1019C000FFF7D3FF16E020680028F9D10B4B0C4A33
:1019D00018210C48FF3117F093FC20680830EFE71E
:1019E0002068FFF76BFF05E041680068FFF78CFF98
:1019F00000E0002010BDC04670000310C8AD02100A
:101A0000D8AD0210E09702102F2801D939280ED93D
:101A10002E280ED005D9452811D0652811D164385B
:101A200006E02B2807D02D2807D12C3800E0012014
:101A300070470120FCE70120FAE70020F8E70120C9
:101A4000F6E70020F4E7000010B50379002B04D17D
:101A50000E2303710160012010BD034B034AED21E9
:101A60000348490017F04CFC8097021068AE021042
:101A7000E097021010B58379002B0BD103685A1C34
:101A800002601B78002B0BDD002B0CDB03710123A4
:101A9000437110BD054B064A0648252117F030FC5E
:101AA00001228271F0E70023F0E7C04674AF021014
:101AB0007CAF0210FCAF021010B504002000103003
:101AC000637D002B0FD0237D002B0FD0202B14D84B
:101AD000092B12D3093BDBB20A4ADA40D2070CD5F4
:101AE00000236375EAE7FFF7C5FFECE7237B002BD4
:101AF00001D1012004E0022002E001232373002031
:101B000010BDC0461300800070B504000D001030F9
:101B1000637D002B06D0237D9D4206D10023637593
:101B2000012070BDFFF7A6FFF5E70020F9E770B5CB
:101B300004000D0008E0237D002B10D02A789A4283
:101B40000FD10135002363752878002808D02000C4
:101B50001030637D002BEED1FFF78CFFEBE7022006
:101B600070BD0320FCE770B505000E0000230B805C
:101B700000240EE0FFF77EFF12E0303BDBB20F2BBC
:101B80001CD8328812011343338000236B75013453
:101B9000E4B2032C0ED8280010306B7D002BE9D066
:101BA0002B7D002B08D0402BE7D920229343373BD5
:101BB000DBB2E4E7002070BD0220FCE70320FAE777
:101BC00030B583B00D007F2811D9694600230B7012
:101BD0003F220240803B13434B70800983B21F2B8E
:101BE0000AD840235B4203438B70CC1C25E0C1B272
:101BF0002800FEF735FD24E03F21014080225242BB
:101C00000A4369468A709A090F2A05D820235B4245
:101C10001343CB7001AC10E03F21114080225242AF
:101C20000A436946CA701B0B1022524213430B71C0
:101C30004C1D02E02800FEF713FD013C217800292D
:101C4000F8D103B030BD000070B584B0040002AB21
:101C500000221A80039206001036437D002B03D029
:101C6000257D0023637526E03000FFF703FFF7E7CB
:101C70003000FFF7FFFE21E0002363756B46991DDE
:101C80002000FFF770FF002801D004B070BD6B4644
:101C9000D98802A8FEF758FD00280CD0039821002F
:101CA000FFF78EFF07E05978002929D000236375DC
:101CB0002000FEF7D5FC637D002BD9D0217D0023C9
:101CC00063758D4213D0002916D05C29F0D1300005
:101CD000FFF7D0FE227D002A10D0752ACCD00A4B07
:101CE00019780029E0D08A42DDD00233F8E7636832
:101CF000002B07D00020C8E70220C6E70220C4E777
:101D00000320C2E70420C0E754B0021070B50400FD
:101D10000E00FEF791FC2000FFF796FF051E01D094
:101D2000280070BD31002000FFF7C6FAF8E7012057
:101D3000002900D00020C0B27047000010B5006834
:101D4000002800D010BD034B034A0448262117F099
:101D5000D7FAC04604A0021068B0021088A0021092
:101D6000F0B583B0040016001F000379002B0BD1DF
:101D700010003900FFF7DBFF051E0BD00A2323718B
:101D80002660280003B0F0BD0B4B0C4A0C487E21A6
:101D900017F0B6FA08996846FFF711FA009B002B76
:101DA000EFD01A232371684683882380FFF7C6FF8C
:101DB000066047600125E4E780970210E4B0021056
:101DC00058B20210F0B583B0040016001F0003796A
:101DD000002B12D11000390015F0B6FA051C15F0D1
:101DE000B9FF32003B0015F0EFF900280BD00E23AD
:101DF00023712560012003B0F0BD0D4B0D4A0E4844
:101E00004C2117F07DFA08996846FFF7D8F9009B36
:101E1000002B0AD01E232371684683882380FFF796
:101E20008DFF066047600120E5E70020E3E7C0463C
:101E300080970210B8B2021058B202108022120627
:101E40000023801859410123002900D00023D8B273
:101E500070470000F0B583B0040016001F0003793E
:101E6000002B0BD110003900FFF7E8FF051E0BD047
:101E70000C2323712660280003B0F0BD0B4B0C4AE5
:101E80000C48672117F03CFA08996846FFF797F964
:101E9000009B002BEFD01C2323716846838823808E
:101EA000FFF74CFF066047600125E4E780970210CA
:101EB000C4B3021058B20210F0B5CE46474680B502
:101EC00087B006008946102398468044437D002B46
:101ED00014D0377D00243800FFF796FD002811D07C
:101EE0003E2C0FD800237375651CEDB2341927778B
:101EF0004046FFF7BFFD377D2C00ECE74046FFF77B
:101F0000B9FDE6E734190023237731001C3102AC18
:101F10002000FFF737FA2478032C26D013D8012CA1
:101F200036D0022C0DD102A8FEF732FC02000B00C5
:101F3000B16900914846FFF78DFF002836D0002494
:101F400020E003241EE0042C0DD102A8FEF75AFC69
:101F500002000B00B16900914846FFF733FF0028EB
:101F600010D000240EE003240CE002A8FEF724FCAD
:101F700002000B00B16900914846FFF7F1FE00280E
:101F800012D00024200007B0C0BCB946B046F0BD56
:101F900002A8FEF725FC011CB2694846FFF754FD74
:101FA000002805D00024EDE70424EBE70424E9E74A
:101FB0000424E7E72F2801D9392809D95E2801D957
:101FC0007A2807D9402807D95A2807D9002004E0E1
:101FD000012002E0012000E0002070470120FCE722
:101FE00070B5040006001036437D002B09D0257D16
:101FF000002D0AD02800FFF7DDFF002812D10320B2
:1020000020E03000FFF736FDF1E7104B104AE221E7
:102010001048490017F074F9257D2800FFF7CAFF22
:1020200000280CD00023637529002000FEF718FB60
:10203000637D002BF0D13000FFF71CFDECE76368F7
:10204000002B00D070BD0420FCE7C04664E1021004
:102050002CB50210F4B5021010B50400FEF7ECFA2E
:1020600020001030637D002B08D0237D272B08D063
:10207000222B06D02000FFF7B3FF05E0FFF7FAFCA4
:10208000F3E72000FFF7E0FD10BD0000F0B58DB0D4
:1020900005000E0003AA1370DBB2002B00D17BE019
:1020A00010306B7D002B0CD02B7D7B2B0CD10023B3
:1020B0006B752800FFF700FD041E0BD020000DB04B
:1020C000F0BDFFF7D7FCEFE7344B354A3548F32135
:1020D00017F016F97D212800FFF716FD00282CD0F7
:1020E000ECE7AA6905A93000FFF747F8011E4DD0BB
:1020F0002800FFF7E1F8059C03A8FEF711FB031C7D
:1021000000222100280000F04FF8041ED6D128003C
:10211000FFF7D2FC041ED1D17D212800FFF7F4FC8B
:102120000028CBD12C212800FFF7EEFC002831D06D
:102130002800FFF7C1FC041EC0D12800FFF78CFF68
:10214000041EBBD12800FFF7B7FC041EB6D13A210C
:102150002800FFF7D9FC00281AD006AF2900380064
:10216000FEF79EFA09AC39002000FEF7E2FEAB69EB
:10217000009309990A9A0B9B3000FFF720FB05900A
:102180000028AED0A969FEF783FEB4E7042495E7E2
:10219000032493E7032491E705248FE754B6021044
:1021A00068B60210F4B5021070B506000C001D1CD4
:1021B000FFF782FC00281CD130001030737D002B0B
:1021C0000CD0337D7B2B10D85B2B0AD35B3BDAB270
:1021D000202A0AD893001F4AD3589F46FFF74AFC8B
:1021E000EFE7222B1AD0272B18D021003000FFF761
:1021F00063FE70BD2000FEF7DDF901002B1C0022FC
:10220000300000F08BF8F4E72000FEF7EDF9010054
:102210002B1C00223000FFF739FFEAE721003000D5
:10222000FFF774FDE5E701212000FEF78BF90A496D
:102230003000FFF77CFCDCE700212000FEF782F98C
:1022400006493000FFF773FCD3E705493000FFF77C
:102250006EFCCEE7EC000310D0B7021060C1021094
:10226000D8B7021070B504000D000022FFF79CFFE4
:10227000002806D1237D002B03D02B791B0700D526
:10228000032070BDF0B5C64600B59AB0040088467C
:1022900001AE328007003837FEF7BBFC00233B71EC
:1022A00003AD0394049305932B73424607926B7519
:1022B000AB7509947378002239002800FFF7D2FF2C
:1022C000061C2800FEF7ACF9216820000C30FEF750
:1022D000BDFC301C1AB080BCB846F0BD10B582B051
:1022E00004000800FFF7C6F9FFF7C6F9010001ABCB
:1022F0000A225A701A886B461A80009A2000FFF74B
:10230000C1FF02B010BD00B583B00191FEF71BFE06
:1023100001A9FFF7E3FF03B000BD000070B582B074
:1023200005000E0001AA1370DBB2002B43D0103061
:102330006B7D002B0CD02B7D5B2B0CD100236B75A0
:102340002800FFF7B9FB041E0BD0200002B070BDBF
:10235000FFF790FBEFE71A4B1A4A1B489D2116F036
:10236000CFFF5D212800FFF7CFFB0028EDD1A96941
:102370003000FEF7EFFE041E1FD001A8FEF7D0F9D3
:10238000031C002221002800FFF70EFF041EDCD1F1
:102390002800FFF791FB041ED7D15D212800FFF72D
:1023A000B3FB0028D1D12C212800FFF7ADFB00287A
:1023B000DDD10334C9E70524C7E70424C5E7C046D7
:1023C000E0B70210F4B70210F4B5021070B58AB08D
:1023D0000391049205930379202B0ED107AA03AB36
:1023E00070CB70C2002806D00E9A00920799089A06
:1023F000099BFFF7E4F90AB070BD0020EEE7F0B5E5
:1024000087B0030002CB0800383003AAE0CBE0C25B
:102410000B00383305D000910399049A059BFFF710
:10242000D5FF07B0F0BD10B582B00400FFF7E7FF9D
:10243000216800900191FEF74FF902B010BD000035
:1024400030B57E4CA5447E4B7E4A1A60002012F0C7
:102450000DFD22F0F1FD002819D022F09BFE7A49F3
:102460000122C6208001684420F086FE002825D184
:10247000764B774A774969447748684421F05FFC96
:1024800000285AD10124002C5CD101251BE013F057
:102490004DFF724A002314F027FC1000190014F0BD
:1024A0001BFF00226E4B14F02EFE02000B006D4845
:1024B00017F00CF96C4817F0D9F8CEE7022000F0BD
:1024C000CBFB01240025C0229201002102A815F0B7
:1024D000A5FD00230193002D01D0002C46D1584BBF
:1024E0001968C022920102A815F098FD5F4802A960
:1024F000FFF709FF6B461870C3B2002B66D15C4C26
:102500006C445C4A59492000FFF7CFF82000FFF7E0
:102510008AFF5949032225F0F9F8002800D074E019
:10252000564B01221A7048490022002020F024FE58
:10253000FEF72AFA524B9D4430BD032000F08CFB7D
:102540000024A0E701224F4969444F48684420F025
:1025500043FE002808D0082801D12500B3E7032056
:1025600000F07AFB2500AEE72500ACE7C02201AB06
:10257000920102A94448684420F0E4FF00280AD0F0
:10258000032000F069FB2E4B1968C022920102A8BB
:1025900015F044FDAAE713F0C9FE304A002314F0F9
:1025A000A3FB1000190014F097FE00222C4B14F02E
:1025B000AAFD02000B002B4817F088F80199334858
:1025C00017F084F802A8FEF731F98FE713F0AEFE9A
:1025D000224A002314F088FB1000190014F07CFE3E
:1025E00000221F4B14F08FFD02000B001D4817F056
:1025F0006DF86846FEF77EF80100254B180017F0CD
:1026000065F8032000F05AFB79E7224C6C44194A24
:1026100016492000FFF749F82000FFF704FF1E4984
:10262000072225F073F8002803D1144B02221A70F8
:1026300079E7124B00221A7075E7C04694C9FFFF74
:102640005811002000D01F106CB9021070B9021090
:1026500070FC0210083000002831000040420F00DA
:1026600000408F40689E021058B90210142A0020C2
:1026700048360000BCB90210C4B90210E09A02202A
:102680006C36000022300000E833000080B90210F0
:10269000A4B9021058360000C8B9021010B513F0E2
:1026A000D9FF16F0A3FF894813F030FD13F03EFE6A
:1026B000874A002314F018FB1000190014F00CFED8
:1026C0000022844B14F01FFD02000B00824816F01C
:1026D000FDFF82480322032116F0F8FF00F046FABE
:1026E000FFF7AEFE06F07CFF01F0AEFC7C4B1B78E2
:1026F000002B22D0012B7AD0022B00D18EE001F0EA
:1027000065F8002800D1C6E013F010FE704A0023DF
:1027100014F0EAFA1000190014F0DEFD00226D4BEF
:1027200014F0F1FC02000B006B4816F0CFFF6D486F
:1027300016F09CFF1CF0C6F8FEE713F0F7FD644AA4
:10274000002314F0D1FA1000190014F0C5FD002286
:10275000604B14F0D8FC02000B005F4816F0B6FF87
:10276000614816F083FF00F0A3FD02F0C7F904F002
:102770009BFC02F0C3FE01F0A3FF002819D113F067
:10278000D5FD534A002314F0AFFA1000190014F0DD
:10279000A3FD00224F4B14F0B6FC02000B004E4884
:1027A00016F094FF514816F061FF012000F0CEFAB8
:1027B000A5E703F05BF90028A1D113F0B7FD444A67
:1027C000002314F091FA1000190014F085FD002286
:1027D000404B14F098FC02000B003F4816F076FFC7
:1027E000434816F043FF022000F0B0FA87E713F0E9
:1027F0009DFD374A002314F077FA1000190014F0F9
:102800006BFD0022334B14F07EFC02000B003248BB
:1028100016F05CFF374816F029FF70E713F086FDCD
:102820002B4A002314F060FA1000190014F054FD34
:102830000022284B14F067FC02000B00264816F01B
:1028400045FF2D4816F012FF00F032FD02F056F958
:1028500002F054FE10F050F901F032FF002800D0D1
:102860004DE713F063FD1A4A002314F03DFA1000FF
:10287000190014F031FD0022164B14F044FC020044
:102880000B00154816F022FF184816F0EFFE012045
:1028900000F05CFA33E713F049FD0D4A002314F011
:1028A00023FA1000190014F017FD0022094B14F050
:1028B0002AFC02000B00084816F008FF0F4816F02B
:1028C000D5FE032000F042FA1EE7C0468813000040
:1028D00040420F0000408F40689E0210D0B90210A5
:1028E000E09A02201CBA0210E8B90210E89E021019
:1028F000F49E021000BA02100CBA0210049F0210DB
:1029000030B585B00500FFF77AFD04002D6802A9F7
:1029100002904D600822684615F080FB002C05D01F
:1029200029002000FFF72CF805B030BD0020FBE7A0
:1029300070B53E4CA544050000242B5D002B05D04E
:10294000C0239B019C4201D20134F6E7002012F023
:102950008DFA22F071FB00283AD022F01BFC13F014
:1029600025FF3349012268A820F006FC061E46D147
:10297000304B314A0AA952A821F0E1F900284FD082
:10298000CD26F6006E442D4A2D493000FEF7AEFEEE
:102990003000FFF7B5FF03002A4A2821684616F0E9
:1029A00031FC0A226946FFA80C3020F015FC061EF7
:1029B00028D1002322002900FFA80C3020F0E8FED7
:1029C000061E1FD1FFA80C3021F0E6F8060019E022
:1029D00013F0ACFC1C4A002314F086F91000190017
:1029E00014F07AFC0022194B14F08DFB02000B004E
:1029F000174816F06BFE174816F038FEADE70220B8
:102A000000F02AF90A490022002020F0B5FBFDF76A
:102A1000BBFF73425E41F0B2CF23DB009D4470BD2B
:102A20004220684421F09AF9AAE7C04688F9FFFFDE
:102A30006CB9021070B9021070FC02102CBA0210AE
:102A4000142A002034BA021040420F0000408F4088
:102A5000689E021058B9021010B5FDF751FC10BD68
:102A600070B518E001210E4813F0E8FE0D4B01226D
:102A70001A7013F09BFED0252D068026B6046E61D9
:102A8000FA24A40020001CF0DBF813F08FFEAE61E6
:102A900020001CF0D5F8034B1B78002BE2D0E8E7B0
:102AA00088130000DC9A0220F0B5C64600B5002469
:102AB00000E000242B4B1D78002D1ED0A54214D918
:102AC000D0252D0640236B6180266E61FA201CF014
:102AD000B7F8AE61FA201CF0B3F80134E4B2214B30
:102AE0001B780533A342E4DBE4E7D0231B068022F6
:102AF0005A61FA201CF0A4F8EFE71B4B1E78002E59
:102B000024D0A64218D9D0263606402398467361B1
:102B100080277761FA201CF093F84346B361B761D0
:102B2000FA201CF08DF80134E4B20F4B1B7805330A
:102B3000A342BFDA2C00BDE7D0231B0640225A6116
:102B400040325A61FA201CF07BF8ECE7D0231B06D8
:102B500040229A6140325A6100201CF009F9340089
:102B6000A8E7C046DB9A0220DA9A022010B582B0AC
:102B70002D4B00221A70192012F0CEFAD024240610
:102B800080239B0463626361072012F0C5FA8023EF
:102B900063626361062012F0BFFA402363626361DF
:102BA00022492348234B01930123009300238022D1
:102BB0001BF00BFD802220492048214B019302236A
:102BC0000093002352001BF000FD13F0AFFB1D4AE1
:102BD000002314F089F81000190014F07DFB002286
:102BE000194B14F090FA02000B00184C200016F05C
:102BF0006DFD174816F03AFD13F098FB114A0023BB
:102C000014F072F81000190014F066FB00220E4B4D
:102C100014F079FA02000B00200016F057FD0D4861
:102C200016F024FD02B010BDDC9A022088BA021012
:102C3000612A0010F828002094BA0210A92A001076
:102C4000F428002040420F0000408F40689E021090
:102C5000A4BA0210BCBA021010B5040013F066FB4F
:102C6000104A002314F040F81000190014F034FB4F
:102C700000220D4B14F047FA02000B000B4816F02F
:102C800025FD0B48210016F021FD0A4B1B78002B77
:102C900001D0002C05D1074B1C70074B18681BF0A6
:102CA000BFFD10BD40420F0000408F40689E0210E3
:102CB000D8BA0210DB9A0220F4280020F8B50500EB
:102CC00013F034FB1A4A002314F00EF81000190018
:102CD00014F002FB0022174B14F015FA02000B004F
:102CE000154816F0F3FC1548290016F0EFFC0024F7
:102CF00000E00024AC4212D2D02636064023736195
:102D000080277761FA2013F04FFBB761FA2013F0A8
:102D10004BFB0134E4B26B1DA342EADBEAE7D023AC
:102D20001B0680225A61FA2013F03EFBF1E7C046F1
:102D300040420F0000408F40689E0210E4BA02102B
:102D4000014B18787047C046DB9A0220F0B5C646A2
:102D500000B5060013F0EAFA1C4A002313F0C4FF82
:102D60001000190014F0B8FA0022194B14F0CBF936
:102D700002000B00174816F0A9FC1748310016F0A6
:102D8000A5FC002400E00024B44215D2D0252D0675
:102D9000402398466B6180276F61FA2013F004FB93
:102DA0004346AB61AF61FA2013F0FEFA0134E4B29E
:102DB000731DA342E7DBE7E7D0231B0640225A61DD
:102DC00040325A61FA2013F0EFFAEFE740420F0069
:102DD00000408F40689E0210FCBA021010B504003B
:102DE0001F2112F065F800220021200012F07AF86D
:102DF0000021200012F07CF910BD0000F0B5DE4685
:102E000057464E464546E0B5A5B0282200211AA8EF
:102E100015F0FEF86022002102A815F0F9F8012350
:102E20009B46002398469A46994600270193B3E0B3
:102E30002C00082C0EDC651C1AABAA00D058A2008E
:102E4000D050002114F0E2FE0028F1D0A4001AAB0B
:102E5000E650EDE723960024002005E0A2001AAB1F
:102E6000D15814F087FE0134092CF7DD584914F0CD
:102E700086FE041C574B18607D1CADB2E1231B017C
:102E80009F421DD25B46002B1AD1534B1C68534BFB
:102E90001968201C14F0C2FE002805D05049201CDF
:102EA00014F0D2FE00283BD14E4B1968201C14F0C0
:102EB000CBFE002843D14B46002B5DD04C4630E082
:102EC000019B581CC0B29F0002ABFC50182113F0AC
:102ED000CDFECBB20193002501E00135EDB2172DF7
:102EE0000BD8AB0002AA9858002114F08FFE0028DE
:102EF000F3D0AB0002AA9C50EFE700240020172C6F
:102F000007D8A20002ABD15814F034FE0134E4B269
:102F1000F5E7354914F033FE2F4B18600025B4E770
:102F200001244346002B05D1002C09D002F0ACFC53
:102F3000A04608E003F08CF80023984603E0002444
:102F40004B46002B1AD1244B1E68284B1968301CA5
:102F500014F064FE002814D02149301C14F074FED3
:102F600000280ED05346002B0ED102F08DFC00F04D
:102F700015FC01239A4607E04C46E1E702F08EFD7E
:102F8000E1E75346002B1CD1FA2080001BF058FECD
:102F9000A1462F0000239B46154B04221A60154BB7
:102FA0001B68DB05FBD5134B586880B214F051FE4B
:102FB000114914F0FAFD114914F0DCFD061C00243F
:102FC00037E702F06BFD00F0F5FB00239A46DBE7E4
:102FD00000002041D82F0020DC2F0020801100208D
:102FE0000000A0407C1100200000C04178110020AA
:102FF00000E0044000C00440499A103CCDCC4C3F56
:10300000014B18687047C046DC2F0020014B186840
:103010007047C046D82F0020704710B50400080044
:10302000FFF7FAFF20600A236360093B2372200048
:1030300010BDF0B587B004000E00110003AD2800EC
:10304000FFF7EBFF6B466A4683CD83C2220040C286
:1030500023CB23C2200007B0F0BD704710B5040099
:103060000800FFF7FAFF20600C2363600B3B23721C
:10307000200010BDF0B587B004000E00110003ADB4
:103080002800FFF7EBFF6B466A4683CD83C2220020
:1030900040C223CB23C2200007B0F0BD704710B55B
:1030A00004000800FFF7FAFF20600F2363600E3B67
:1030B0002372200010BDF0B587B004000E0011008F
:1030C00003AD2800FFF7EBFF6B466A4683CD83C252
:1030D000220040C223CB23C2200007B0F0BD012054
:1030E000704710B5041CFFF7FAFF002803D0201C1E
:1030F00014F030FE10BD00200021FBE701207047D6
:1031000070B505000C00FFF7F9FF002804D0280077
:10311000210014F0D5F870BD00200021FBE701204C
:10312000704770B505000C00FFF7F9FF002804D0C8
:103130002800210014F0D0F870BD00200021FBE72A
:103140000120704770B504000D00FFF7F9FF00285B
:1031500002D02000290070BD00200021FBE710B53F
:103160000378032B1AD00BD8012B13D0022B04D1D8
:10317000C1688068FFF7C4FF0FE0002000210CE069
:10318000042B04D1C1688068FFF7DCFF05E0002054
:10319000002102E08068FFF7A4FF10BDC1688068CD
:1031A000FFF7BFFFF9E710B584B001006846FEF7EE
:1031B000E9F86846FFF7D3FF04B010BD10B504006E
:1031C000FDF7A9FE23791E2B30D89B00194AD3584E
:1031D0009F46207814F028F82AE0206814F024F89C
:1031E00026E0206814F024F822E04168006814F01A
:1031F00073F81DE04168006814F062F818E02000E0
:10320000FFF7D1FF14E020680028F9D10A4B0B4AE0
:103210000B48EA2116F074F820680830F0E72068BF
:1032200014F098FD04E04168006801E000200021EE
:1032300010BDC04648020310C8AD021014BB0210F6
:10324000E097021030B585B00500FFF7D8F804000C
:103250002D6802A902904D600822684614F0DEFE37
:10326000002C05D029002000FFF7A8FF05B030BDD5
:1032700000200021FAE770B584B005000E00FFF7CA
:10328000BEF804002B6802A902904B600822684631
:1032900014F0C4FE002C06D023791B0703D52800A8
:1032A000FFF7D0FF01E03068716804B070BD000026
:1032B00030B595B019F0A0FC1A20FFF78FFD304B08
:1032C0001B68E022D20113402E4A136002AD2E4A41
:1032D0002E4C21002800FFF7ACFE00222C4B06925A
:1032E000079306A92800FFF7C6FF14F02DF8294B15
:1032F000186008AD284A21002800FFF7BBFE274AC6
:10330000274B0C920D930CA92800FFF7B4FF14F083
:103310001BF8244B18600EAD234A21002800FFF74C
:10332000CAFE0022214B1292139312A92800FFF724
:10333000A2FF14F009F81E4B186080221D491E4898
:103340001E4B019303230093002352001BF03DF911
:1033500012F0ECFF1A4A002313F0C6FC100019000B
:1033600013F0BAFF0022174B13F0CDFE02000B0042
:10337000154816F0ABF9154816F078F915B030BDC0
:1033800000C0044000D004409CBB0210142A00205E
:103390000080274080110020A8BB02103333333354
:1033A000333328407C110020B8BB021000002440B9
:1033B00078110020C8BB0210FD2D0010D42F002072
:1033C00040420F0000408F40689E0210D8BB0210A0
:1033D00030B583B004000D00002301930F4B1B6830
:1033E000002B01D00F2808D0019B012B0FD0290002
:1033F000200011F0C9FD03B030BD094810F0D0FD28
:10340000064B186801AA00211CF0D0FAECE7002B4B
:10341000EDD0044B802252051A60E8E7AC2B002067
:10342000B02B002004ED00E000B583B00448002379
:1034300000930F33112203490FF02AFF03B000BDA0
:10344000B02B002000C00340F0B5C64600B584B0E4
:1034500007000E0015001C0001212A4B1868494284
:103460001AF0D0FC00201BF04FF980460E210020FE
:103470001BF05AF912F05AFF234A002313F034FCD0
:103480001000190013F028FF0022204B13F03BFE20
:1034900002000B001E4816F019F91E4800942B007C
:1034A0003200390016F012F903AA1770D670557061
:1034B000947019480423FF2110F064FF002812D0F3
:1034C000164B1B78002B15D1414600201BF02CF920
:1034D0000C4B18680023002200211AF0EDF904B00B
:1034E00080BCB846F0BD0530FFF7B6FB0B4B0122A0
:1034F0001A70E9E70020FFF7AFFB084B00221A70B3
:10350000E2E7C046A82B002040420F0000408F4059
:10351000689E0210F4BB0210B02B0020EE9A02202D
:1035200030B585B000900191029203930121274BA1
:10353000186849421AF066FC00201BF0E5F8050007
:103540000E2100201BF0F0F812F0F0FE204A0023BC
:1035500013F0CAFB1000190013F0BEFE00221D4B31
:1035600013F0D1FD02000B001B4816F0AFF81B480A
:1035700016F07CF81A480E236A46FF2110F002FF6D
:10358000002810D0174B1B78002B17D129000020E2
:103590001BF0CAF80D4B18680023002200211AF016
:1035A0008BF905B030BDD0231B0640225A6105308F
:1035B000FFF752FB0B4B01221A70E7E70020FFF7E1
:1035C0004BFB084B00221A70E0E7C046A82B0020F6
:1035D00040420F0000408F40689E021024BC021041
:1035E000B02B0020EE9A022030B583B001AC2080D1
:1035F0000121284B186849421AF004FC00201BF0F6
:1036000083F805000E2100201BF08EF812F08EFECC
:10361000214A002313F068FB1000190013F05CFE30
:1036200000221E4B13F06FFD02000B001C4816F029
:103630004DF8217862781B4816F048F81A480223A2
:103640002200FF2110F09EFE002810D0174B1B789F
:10365000002B17D1290000201BF066F80D4B1868CD
:103660000023002200211AF027F903B030BDD02337
:103670001B0640225A610530FFF7EEFA0B4B012280
:103680001A70E7E70020FFF7E7FA084B00221A70EC
:10369000E0E7C046A82B002040420F0000408F40CA
:1036A000689E021034BC0210B02B0020EE9A02205B
:1036B000F0B5D6464F464646C0B58AB080460D00A6
:1036C00017009A460121294B186849421AF09AFBC3
:1036D00000201BF019F881460E2100201BF024F871
:1036E000002407E00530FFF7B7FA214B01221A70DA
:1036F0002034A4B2AC4228D213F058F801AE2022F4
:1037000000216B46981D14F083FC3770534673708C
:10371000434619192A1B202A00D920226B46981DDE
:1037200014F07CFC1348222301AAFF2110F02AFE8A
:103730000028D7D00E4B1B78002BD9D00020FFF7E4
:103740008BFA0B4B00221A70D2E7494600201AF080
:10375000EBFF064B18680023002200211AF0ACF89A
:103760000AB0E0BCBA46B146A846F0BDA82B00207E
:10377000EE9A0220B02B002010B5044B186814F00C
:1037800071FB14F08DFA40B210BDC046D02F00205E
:10379000014B18787047C046EC9A022010B50348D8
:1037A00010F07EF8024B01221A7010BDB02B0020E1
:1037B000ED9A022010B503480FF076FF024B00226D
:1037C0001A7010BDB02B0020ED9A022010B50348EE
:1037D00010F09CF8002800D0012010BDB02B002074
:1037E00000487047A82A0020F0B589B094464D687B
:1037F000019502AB0C000834C4CCC4C31431D0C949
:10380000D0C3856003000C3302A970C970C370C9AE
:1038100070C36346436209B0F0BDF8B505001400FB
:103820001E000F8818000C303900FDF753FA28608D
:10383000AF8004E031002800FDF7A8FA013C2A68B7
:10384000002A01D0002CF5D12800F8BD00B583B0C6
:103850001300002805D00A0001006846FFF7DDFFCD
:10386000009803B000BD10B5002804D00379402BA8
:1038700002D1FFF7EBFF10BD0020FAE7704710B54B
:1038800004000800FFF7FAFF206005236360043B93
:103890002372200010BDF0B587B004000E001100A7
:1038A00003AD2800FFF7EBFF6B466A4683CD83C26A
:1038B000220040C223CB23C2200007B0F0BD7047D6
:1038C00010B504000800FFF7FAFF20600B236360C7
:1038D0000A3B2372200010BD704710B50400080099
:1038E000FFF7FAFF206009236360083B2372200082
:1038F00010BDF0B587B004000E00110003AD280024
:10390000FFF7EBFF6B466A4683CD83C2220040C2BD
:1039100023CB23C2200007B0F0BDC043C00F7047C7
:10392000012070470123002902D102D1002800DACA
:103930000023D8B270478022120600238018594114
:103940000123002900D00023D8B2704710B504002D
:10395000FDF7E1FA23791A2B17D009D80A2B10D0DA
:103960000C2B03D12068FFF7DBFF0DE000200BE0FC
:103970001C2B04D141680068FFF7DDFF04E0002044
:1039800002E02068FFF7C9FF10BD41680068FFF73B
:10399000C9FFF9E700B583B000900191002803D07A
:1039A000FFF7D4FF03B000BD0020FBE710B5040013
:1039B000FFF7B3FF002801D0200010BD0020FCE776
:1039C00010B50400FFF7ACFF002801D0200010BDA7
:1039D0000020FCE710B50400FFF7A4FF002801D089
:1039E000200010BD0020FCE710B50400FFF7A3FF86
:1039F000002801D0200010BD0020FCE770B50400B5
:103A00000D000022084B13F0F5FB002809D0074AEF
:103A1000074B2000290013F0E5FB002802D001200D
:103A200000E0002070BDC0460000E0C10000C0FF03
:103A3000FFFFDF4170B504000D00FFF7DFFF002836
:103A400004D02000290013F00BFC70BD0020FCE71F
:103A50007047000010B5041CCF21090614F0ECF8E3
:103A600000280AD00748FFF7F3FF011C201C14F0C0
:103A7000DBF8002803D0012000E0002010BD00206A
:103A8000FCE7C046FFFFFF4E10B5041CFFF7E2FF46
:103A9000002803D0201C14F003F910BD0020FCE71F
:103AA00010B50378032B18D00AD8012B11D0022BA4
:103AB00004D1C1688068FFF797FF0DE000200BE09C
:103AC000042B04D1C1688068FFF7B4FF04E0002034
:103AD00002E08068FFF7D8FF10BDC1688068FFF77B
:103AE00079FFF9E710B584B001006846FDF74AFC9C
:103AF0006846FFF7D5FF04B010BD000010B5040004
:103B0000FDF709FA23791E2B31D89B00194AD358A7
:103B10009F4620782CE02068FFF748FF28E02068C7
:103B2000FFF74EFF24E041680068FFF753FF1FE0F6
:103B300041680068FFF758FF1AE02000FFF7D2FF46
:103B400016E020680028F9D10B4B0C4A18210C48CC
:103B5000FF3115F0D5FB20680830EFE72068FFF74C
:103B600093FF05E041680068FFF764FF00E0002074
:103B700010BDC046C4020310C8AD021054BC0210F0
:103B8000E097021030B585B00500FEF738FC040060
:103B90002D6802A902904D600822684614F03EFA92
:103BA000002C05D029002000FFF7A8FF05B030BD8C
:103BB0000020FBE730B583B004000D00FEF71FFCCA
:103BC000216800900191FFF7E5FE002802D12868E6
:103BD00003B030BD2000FFF7D5FFF9E730B587B05F
:103BE00012F0A4FB2B4A002313F07EF810001900FA
:103BF00013F072FB0022284B13F085FA02000B0031
:103C0000264815F063FD264815F030FD01AC254A25
:103C100025492000FFF76DFE9623059305A9200096
:103C2000FFF7C8FFC50F2D186D10ADB21F4C002156
:103C3000200010F05DF809220821200010F012F990
:103C40001B4B197820000FF039FB082120000FF0E2
:103C50000DFC184920000FF01FFC142120000FF06C
:103C60008FFC154920000FF089FF052120000FF07F
:103C7000CDFC092120000FF0F1FF012120000FF001
:103C800025FB2900200010F077F920000FF00CFD33
:103C900007B030BD40420F0000408F40689E0210C8
:103CA000DCBC0210F0BC0210142A0020B02B002053
:103CB000EC9A022000C0644420A10700F0B5D7B000
:103CC00010AB03221A735A7364E155226A441278C6
:103CD000B34909788A4202D0FF2A00D087E01698BB
:103CE000149056236B44197801F024FFAD4B1868EB
:103CF000002113F08BFF002807D0AB480FF0E0FA4B
:103D0000A84C13F0ABFF206022E0A7480FF0D8FAD0
:103D100013F0A4FF002113F048FFA24C216813F018
:103D200029FF206014E055226A4412789C490978E2
:103D30008A4201D0FF2A5CD110AC0E2216A92000C5
:103D400014F06CF910981199129A139B01F062FB10
:103D500012F0ECFA954A002312F0C6FF1000190089
:103D600013F0BAFA0022924B13F0CDF902000B00C7
:103D7000904815F0ABFC8C480FF0A2FA01008E4B76
:103D8000180015F0A3FC56236B441C788B4B1B5D6D
:103D9000002B02D1894B01221A5512F0C7FA884B29
:103DA000E4001B19186059607F480FF0A3FC00283D
:103DB00063D016ADFF220021280014F029F900235A
:103DC00055226A44137056226A44137057246C4477
:103DD000FF3323707448AA3B6B4400931300220006
:103DE00029000FF0A5FC2378042B00D16DE70E2BE2
:103DF00099D0022B29D0222BAAD133336B441B78C4
:103E0000674A1478A34201D0FF2BA1D106AD22222C
:103E100016A9280014F002F92B789C4298D112F0D0
:103E2000C5FC2C0056236B441B7805930AAB6A46ED
:103E300023CB23C2196811609B8893800698616820
:103E4000A268E36804F01EFE82E755226A441278F5
:103E5000534909788A4201D0FF2ACCD10FAB16AA68
:103E600012881A801B78994200D071E756236B4460
:103E700019780F9801F010FA6AE74B4810F072F8C1
:103E800007240440631FDBB2012B08D9032C06D0A2
:103E9000072C04D04B4A13780133137002E0494BCE
:103EA00000221A70474B1B780A2B01D8002443E0EC
:103EB00012F03CFA3D4A002312F016FF10001900E0
:103EC00013F00AFA00223A4B13F01DF902000B001E
:103ED000384D280015F0FAFB3B48210015F0F6FBA1
:103EE00031480FF0DDFCFFF779FE12F01FFA2F4A80
:103EF000002312F0F9FE1000190013F0EDF9002272
:103F00002B4B13F000F902000B00280015F0DEFB2C
:103F10002E4815F0ABFBC9E7284B00225A55284B19
:103F2000EA009B181E685F6812F000FA801BB94116
:103F3000002918DB0134A4B2FE2C1CD825001F4B2D
:103F40001B5D002BEBD01E4BE2009B181E685F68C8
:103F500012F0ECF9801BB9410129DDDCDFD11C4BEB
:103F60009842DCD9D8E712F0E1F9154BED005B1966
:103F700018605960DEE70A4B1A78104B01219954FA
:103F80000122FA239B0000930023524200210020CB
:103F90001BF0DCFB0F4B1B78002B00D104E7EFE795
:103FA000EC9A0220D02F0020B02B002040420F00BE
:103FB00000408F40689E021008CE0210A82A002000
:103FC000301E0020EA9A0220FCBC021014BD021030
:103FD000FFFC7045ED9A0220F0B587B00400043074
:103FE000FEF70DFA616803AA23001433E0CBE0C2A8
:103FF000002805D000910399049A059BFEF7E6F985
:1040000007B0F0BD10B504000430FFF7E5FF616AAA
:10401000A268FFF728FC10BD30B585B00500FFF79A
:10402000F1FF0400AD6802A902904D6008226846C5
:1040300013F0F4FF002C05D029002000FDF7A0FCB0
:1040400005B030BD0020FBE7F0B5A5B05548FF2214
:10405000002113F0DDFF5448FF22D200002113F0AD
:10406000D7FF15AD514A524C21002800FDF73EFB09
:104070002800FEF745FC4F4E30704F4A210019A82A
:10408000FFF709FC199F209721AB1AAA13CA13C383
:1040900015004A491000FFF713FC0BAC230007CDB5
:1040A00007C303A94F6005AB21AAA1CAA1C322007F
:1040B000A1CAA1C300222000FFF796FB2000FFF752
:1040C000ABFF3F4B1870012019F0C8FC3D4B186046
:1040D0003D4C3E49200018F057FD0121102010F002
:1040E000E7FE0121122010F0E3FE0121132010F061
:1040F000DFFE63680222134035490A6021680532F9
:104100005140C8320A4033490A60334A13600F20D5
:1041100011F002F8D0231B06802212029A622F4B64
:10412000012208210F2010F07FFFFFF757FD12F04A
:10413000FDF82B4A002312F0D7FD1000190013F0F0
:10414000CBF80022274B12F0DEFF02000B00264CBA
:10415000200015F0BBFA3178244815F0B7FAA022F8
:1041600023492448244B01930D23009300239200FC
:104170001AF02BFA12F0DAF8194A002312F0B4FD03
:104180001000190013F0A8F80022164B12F0BBFF24
:1041900002000B00200015F099FA184815F066FA95
:1041A00025B0F0BDA82A0020301E00202CBA021035
:1041B000142A0020EC9A022020BD021028BD021013
:1041C000EB9A0220A82B002000C00340404B4C007B
:1041D00004F0034000D0034004E00340D13300105A
:1041E00040420F0000408F40689E021034BD021014
:1041F00040BD0210BD3C0010AC2B00204CBD021095
:1042000010B5FFF711F910BDD0B5DAE012F08EF855
:10421000744B22019B189860D9602EE0714B2201EB
:104220009B185B79002B01D0002847D06D4B2201F1
:104230009B181B79002B04D16A4B9B189B79002B90
:1042400051D1684B22019B189E68DF6812F06EF80E
:10425000801BB941002900DAA4E00134072C00DDFD
:10426000A8E0E1B2604800220EF08AFD5D4B220119
:104270009B189871DB799842C8D15A4B2201991842
:104280008879C871D35C012BC8D0032BC6D0022B10
:10429000C4D0043BDBB2042B05D8524B22019B183F
:1042A0001B79984247D14F4B2201D35C002BC8D1D8
:1042B0004C4B22019B189A791A71C2E7494B9B1803
:1042C0009E68DF6812F032F8801BB941002903DCD8
:1042D000ACD1464B9842A9D9424B22019B180022EF
:1042E0005A711A71ADE73F4B9B189E68DF6812F058
:1042F0001DF8801BB941002903DCA2D13C4B984238
:104300009FD9384B2201991801200871D35C022BE8
:1043100006D1344BCA7812019B181B79002B06D1A9
:10432000304B22019B18587801F0D6FA89E788783B
:1043300001F0D2FA85E72B4B9B189E68DF6811F0DD
:10434000F5FF801BB941002903DCACD1294B984211
:10435000A9D9244B2201D35C042B07D0214B220185
:104360009B189A791A7100F079FF6AE711F0DEFF65
:10437000214A002312F0B8FC1000190012F0ACFF23
:1043800000221E4B12F0BFFE02000B001C4815F06D
:104390009DF9144B22019B189A791A48210015F0B7
:1043A00095F9DBE711F0C2FF0E4B22019B189860D4
:1043B000D96052E70C48FF210EF083FC05201AF06B
:1043C0003FFC0121104C2068494219F01BFD0648B2
:1043D0000EF09EFC206800230022002119F06CFAE8
:1043E00000243BE7C81C0020C028002007A50700C8
:1043F0006F17000037C7000040420F0000408F4099
:10440000689E021064BD0210D428002010B509492E
:10441000094820220EF052FC0721084B06E000223A
:104420001A715A719A71DA71013910330029F6DA6A
:1044300010BDC04670150020C0280020C81C0020F8
:10444000014B18687047C046D428002010B50249B7
:10445000802213F0E3FD10BDC81C0020002301E002
:104460000133DBB2072B12D8094A19018A5C013AE1
:10447000D2B2012AF4D8064A521852788242EFD1B9
:10448000034A52180121117100215171E8E7704768
:10449000C81C0020002301E00133DBB2072B10D839
:1044A000084A19018A5C032AF6D1064A5218527842
:1044B0008242F1D1034A5218012111710021517138
:1044C000EAE77047C81C002030B500230AE0114A13
:1044D000AA5C8A420FD10F4A240112190124547197
:1044E0000133DBB2072B13D81C000A4A1D015219F5
:1044F00052788242EBD0074A2501AA5C8A42EFD16A
:104500000229EDD1034A521992788242E8D1E2E7BA
:1045100030BDC046C81C002070B505000023002037
:1045200014E01F4C1E01A4196478AC4216D11C4A39
:104530000C0112191479002C06D0194A09015218DD
:104540005279002A00D120000133DBB2072B25D895
:104550001900134A1C01A25C012AE2D0022AF3D1FD
:104560000F4A0C0112195278AA420ED00C4A0C01C3
:1045700012199278AA42E7D1094A1419E478240161
:1045800012191279002ADFD0D1E7054A1419E4780C
:10459000240112191279002AC9D0E7E770BDC0467C
:1045A000C81C002010B50400002301E00133DBB279
:1045B000072B14D80B4A19018A5C032AF6D1094A41
:1045C00052185278A242F1D1064A521810790028A6
:1045D000ECD0044A52185279002AE7D100E00020BA
:1045E00010BDC046C81C002010B50400002301E027
:1045F0000133DBB2072B14D80B4A19018A5C052A58
:10460000F6D1094A52185278A242F1D1064A5218FC
:1046100010790028ECD0044A52185279002AE7D1C8
:1046200000E0002010BDC046C81C002010B50400EA
:10463000002301E00133DBB2072B14D80B4A190128
:104640008A5C062AF6D1094A52185278A242F1D160
:10465000064A521810790028ECD0044A52185279B0
:10466000002AE7D100E0002010BDC046C81C002091
:1046700010B50400002301E00133DBB2072B14D88E
:104680000B4A19018A5C072AF6D1094A5218527856
:10469000A242F1D1064A521810790028ECD0044AFF
:1046A00052185279002AE7D100E0002010BDC04620
:1046B000C81C0020014B18787047C046D39A0220CE
:1046C00010B50248FF210EF0FCFA10BDC0280020F2
:1046D00010B500230024002001E00133DBB2072BDA
:1046E0000DD8074A19018A5C082AF6D1044A5218E3
:1046F0001279A2401043C0B20134E4B2EDE710BD1C
:10470000C81C0020704770B504000800FFF7FAFFCE
:104710000568002D08D0280023F0C4F825606060EB
:1047200000232372200070BD0020F7E7F0B58BB0A6
:1047300005000B00110005AC220041CB41C2160060
:104740001000FCF7A6FF6A466B4603CC03C31900B2
:104750003000D0C8D0C1291D11CA11C12A000C32A5
:1047600013CB13C228000BB0F0BDF0B58BB0050021
:104770000B00110005AC220041CB41C21600100015
:10478000FFF77DF86A466B4603CC03C3190030007F
:10479000D0C8D0C1291D11CA11C12A000C3213CBB7
:1047A00013C228000BB0F0BDF0B58BB005000B00B4
:1047B000110005AC220041CB41C216001000FCF7ED
:1047C00089FF6A466B4603CC03C319003000D0C88A
:1047D000D0C1291D11CA11C12A000C3213CB13C23A
:1047E00028000BB0F0BD00B585B0010001A8FFF7AF
:1047F0008AFF019B002B02D0002005B000BD0120E4
:10480000FBE7000082B0F0B5CE46474680B585B0E4
:1048100001AC01906160A2600D93002819D00D9B3E
:10482000002B1CD0029B99460E9B984699451CD2A2
:104830004F460024BC4223D2210001A8FBF7E0FD33
:10484000050021000DA8FBF7DBFD85420FD10134E7
:10485000F0E7104B104A1148142114F051FD104B91
:104860000D4A0E48152114F04BFD1F00E1E7281AF0
:1048700005B0C0BCB946B046F0BC08BC02B0184791
:10488000C14502D304D80020F2E701204042EFE7FF
:104890000120EDE7F4AA021078BD021070AC0210FE
:1048A000D4AC021030B58DB003AD039104920593E2
:1048B00006AC01002000FFF726FF290009A8FCF73D
:1048C00038FB0AAB6A4603CB03C2099B06980799DB
:1048D000089AFFF797FF002805DB02DC01200DB0E6
:1048E00030BD0420FBE70220F9E710B50B0000689B
:1048F00009685A689B68FFF7D5FF10BD30B591B0C5
:1049000004000D001100FCF706FB2379202B25D8AD
:10491000052B11D2032B4BD0042B2BD0022B17D1FC
:10492000200022F0BFFF01A90194486000230B7210
:104930002800FFF7DAFF0FE0053BDBB201229A40C7
:104940001300204A13423BD1DA0724D41B010CD4B4
:1049500028680021FFF747FF11B030BD402BF7D189
:104960006B680C940D930020F6E76B680E940F9320
:104970000020F1E72468002C0BD0200022F092FFE9
:1049800004A90494486001230B722800FFF7ADFFCF
:10499000E2E70020F4E723681A000832DB8807A961
:1049A00007924B6000230B722800FFF79EFFD3E7AE
:1049B00023681A000832DB880A920B930020CBE7A9
:1049C0000020C9E7A202A00200B585B000900191C5
:1049D000002808D0019B02A902924B601A00FFF741
:1049E0008DFF05B000BD00211000FFF7FCFEF8E7C9
:1049F00000B585B0009001911268039203AAFFF7F9
:104A0000E3FF05B000BDF0B587B0030040689968CA
:104A100003AA0C33E0CBE0C2002805D00091039933
:104A2000049A059BFDF7D2FC07B0F0BD10B5FFF767
:104A3000EAFF002804D0007943425841C0B210BDBB
:104A40000120FCE730B585B00500FFF7DCFF04006E
:104A5000AD6802A902904D600822684613F0DEFAA4
:104A6000002C05D029002000FCF78AFF05B030BDDE
:104A70000020FBE770B584B004000E000800FFF7CB
:104A8000C2FF0500B66802A902904E60082268467F
:104A900013F0C4FA25606660200004B070BD10B544
:104AA00084B0019102AC01002000FFF7E3FF01AAEE
:104AB00002980399FFF79CFF013843425841C0B266
:104AC00004B010BD70B584B005000E000800FDF7FD
:104AD00096FC0400366802A902904E6008226846DF
:104AE00013F09CFA002C02D02379202B04D12C60E7
:104AF0006E60280004B070BD0024F8E7F0B5C6462B
:104B000000B5D14CA544D14AD14C210012A8FCF7E4
:104B1000CCFD12A902A8FFF7D5FFCE4A210016A8A6
:104B2000FCF7C3FD16A904A8FFF7CCFFCA4A210071
:104B30001AA8FCF7BAFD1AA906A8FFF7C3FFC74ACF
:104B400021001EA8FCF7B1FD1EA908A8FFF7BAFFB7
:104B5000C34A210022A8FCF7A8FD22A90AA8FFF752
:104B6000B1FFC04A210026A8FCF79FFD26A90CA88A
:104B7000FFF7A8FFBC4A21002AA8FCF796FD2AA946
:104B80000EA8FFF79FFFB94A21002EA8FCF78DFD64
:104B90002EA910A8FFF796FF012018F05FFFB44B75
:104BA0001860B448B44917F017FF0321042010F02F
:104BB0007FF90321052010F07BF900220121042058
:104BC00010F090F900220121052010F08BF9AB487C
:104BD000FF210EF076F8002424E050AEA84A290008
:104BE0003000FFF7A3FDA7493000FFF758FF00286A
:104BF00062D0A54E27010323BB5556AB9846A34A66
:104C000029001800FFF792FD4046FFF71BFFF61939
:104C10007070013870709C4B22019B1800225A71F1
:104C20001A710134072C00DDE7E0E30002AA9B586B
:104C3000002BF6D0E300D518914A290032A8FFF7DF
:104C400075FD934932A8FFF72AFF0028C5D08E4E84
:104C500027010123BB558F4A290038A8FFF785FD9E
:104C600038A8FFF7EFFEF6197070013870708A4AA5
:104C700029003EA8FFF779FD3EA8FFF7D7FE0028E0
:104C8000C9D1814E0223BB55834A290044A8FFF7AE
:104C90006CFD44A8FFF7D6FEF619B0700138B0706D
:104CA0007E4A29004AA8FFF77FFD4AA8FFF7CAFEFF
:104CB000F0700138F070AEE75CAE714A2900300048
:104CC000FFF734FD75493000FFF7E9FE002804D0F6
:104CD0006D4B22010421D1549DE762AE684A290040
:104CE0003000FFF723FD6E493000FFF7D8FE0028A3
:104CF0001BD0654E27010523BB5568AB9846634A18
:104D000029001800FFF712FD4046FFF79BFEF61939
:104D10007070644B1B78834201D2624B18705A4BFF
:104D200022019B180138587075E76EAE544A29006D
:104D30003000FFF7FBFC5C493000FFF7B0FE0028B5
:104D40001BD0514E27010623BB5574AB98464F4AE2
:104D500029001800FFF7EAFC4046FFF773FEF6193A
:104D60007070504B1B78834201D24E4B1870464BEB
:104D700022019B18013858704DE77AAE404A29004D
:104D80003000FFF7D3FC49493000FFF788FE0028C8
:104D90001BD03D4E27010723BB5580AB98463B4AAD
:104DA00029001800FFF7C2FC4046FFF74BFEF6193A
:104DB00070703C4B1B78834201D23A4B1870324BD7
:104DC00022019B180138587025E786AE2C4A29002D
:104DD0003000FFF7ABFC36493000FFF760FE0028DB
:104DE00004D0294B22010821D15414E7264B22017B
:104DF0009B18FF225A709A700DE780222D492E4889
:104E000000230193063300930023520019F0DDFBC9
:104E100011F08CFA184A002311F066FF10001900F7
:104E200012F05AFA0022254B12F06DF902000B0025
:104E3000234814F04BFC234814F018FC8C239B00EF
:104E40009D4480BCB846F0BDD0FDFFFFE0BE02101F
:104E5000142A0020E8BE0210F0BE0210F8BE0210B4
:104E600000BF021008BF021010BF021018BF0210CE
:104E7000D42800207015002040420F00C0280020D8
:104E8000BCB9021038BF0210C81C002040BF02107D
:104E900020BF021020BD021028BF021030BF021038
:104EA00048BF0210D39A022054BF021060BF021004
:104EB00068BF021074BF02100942001000408F400A
:104EC000689E02107CBF021010B5FFF79FFA10BD5C
:104ED000F0B5DE4657464E464546E0B5E1B05CAB20
:104EE00003221A735A7307213CAB06E000221A71A1
:104EF0005A719A71DA71013910330029F6DA0721F3
:104F00001CAB06E000221A715A719A71DA710139EC
:104F100010330029F6DA47467BE11A013CAFBC4664
:104F200062441279002A12D019017A1851780122AC
:104F30008A401543EDB20133DBB2072B29D81900A3
:104F40001A013CAE965D721ED2B2012AE5D9032E3B
:104F500010D0042EEFD109013CAA52181279002A70
:104F6000E9D00122824049461143CAB2914601303C
:104F7000C0B2E0E70A013CAFBC4662441279002AA5
:104F8000E7D009017A18517801228A401443E4B22B
:104F9000D1E74746A246FEF733F8041CA54B1B7821
:104FA000002B02D1A44B00221A70A34B1B78002BBC
:104FB00000D1FBE0A14B1B78002B00D0F6E0A04B0A
:104FC0001F785CAB1F709F4B1B78002B00D18CE0CF
:104FD00000200DF03FFD5CAD687001200DF03AFD42
:104FE000A87002200DF036FDE87003200DF032FDB0
:104FF0002871FFF76DFB68710023AB71EB712B72A9
:105000000DF042FD68819049201C12F0CEFD12F097
:10501000A1FE12F00BFA12F047F9C0B25CAD687253
:105020003B0913936B789846AB781493EA78159202
:105030002E7916966B791793AA791892EE791996AC
:105040000822AA56D317D2185A4012926B46482209
:105050009B181B781A9306091B966E89330B994689
:10506000330A9A4632090F231F40BC460327BB462A
:1050700011970027109759460F910E970F373E4012
:105080000D963A400C9251460F400B9749460A91B3
:10509000184009901B98089012990B4007931A9F8B
:1050A0003B11069319980590189F04971798039041
:1050B000169E0296159A0192149B009343466246EF
:1050C0001399624814F002FB5C985D995E9A5F9BAD
:1050D000FEF726FA5E4A13780133DBB213705D4A9D
:1050E0001278934224D8271C81E0002000F020FC95
:1050F0005CAB98465870012000F01AFC434698704B
:10510000022000F015FC4346D870032000F010FC8C
:10511000434618715D7152469A714A46DA71FEF73C
:105120002BFB4346187200F027FC434658816AE780
:10513000474B00221A70404B1A70002514E0700093
:1051400080193C4A80180136710089198918032298
:1051500012F064FFF6B2062EF1D9364B00225A75D2
:105160009A75DA750135EDB2072D1DD82A00314B3D
:10517000690049195B189B78002B06D12D4B6900FB
:1051800049195B185978013959702A4B510089180F
:10519000CB5C002BE6D0274B51008A189B185B781C
:1051A000002BDFD12E00D6E7271C20E080223CA96F
:1051B0001CA822F0C3F9002802D01F4B01221A704C
:1051C000391C201C12F0D1FCFA21890512F03CFD9B
:1051D000002809D1211C381C12F0C7FCFA218905CE
:1051E00012F032FD002802D0134B01221A708022E7
:1051F0003CA91CA812F012FF0F4B1B78002B13D1F7
:105200000122154B009300235242002100201AF086
:105210009DFA3CA8FFF71AF90023002000229146CE
:105220000025B846140088E6FA20400019F008FD71
:10523000EFE7C046DC280020D49A0220D79A02204B
:10524000D59A0220D89A02200000204190BF021077
:10525000D69A0220D99A02208813000000B583B0A4
:10526000074B01221A70074B00221A70064B186870
:105270000092022300211AF0DFFA03B000BDC046FD
:10528000D49A0220D69A0220D8280020014B187008
:105290007047C046D79A022070B58AB001AB18801B
:1052A0000D00002019F030FA0400514B1B68002B50
:1052B00051D00023072B12D819004E4A5800C018AD
:1052C000825CAA4204D0002A02D00133DBB2F1E7AB
:1052D000484B4A005218D5549B1803225A7001AB10
:1052E00058780C2837D88300434AD3589F46420049
:1052F00012189B1801229A700AE00130C0B20728E8
:1053000013D804003B4B42001218D65CAE42EED0DC
:10531000384B620012199B189B78002BEDD1002EA0
:10532000EBD01900E9E70121E9E7002913D0334B5D
:1053300000221A70324B1A700DE0FFF78FFF0AE05F
:1053400000F0ACFB07E00338C4B22000FFF786F89A
:10535000200000F0C1FA0AB070BD0738C4B22000C6
:10536000FFF798F8200000F0B7FAF4E710F0DEFF3E
:10537000244A002311F0B8FC1000190011F0ACFF12
:105380000022214B11F0BFFE02000B001F4814F059
:105390009DF91F4814F06AF90E21002019F0C4F994
:1053A00019F0CCFA00250AE0280010F013F803AB3E
:1053B00058550021280010F027F80135EDB2192DBD
:1053C000F2D9FAF7B5FF002506E003AB595D2800D6
:1053D00010F01AF80135EDB2192DF6D92100002090
:1053E00019F0A2F919F07CFBB5E7FBF7A5FAB2E7D3
:1053F000D8280020DC28002050030310D49A022073
:10540000D69A022040420F0000408F40689E021052
:10541000C0BF0210F0B5DE4657464E464546E0B5E1
:10542000A1B01CAC1C901D911E921F93314B1B7898
:10543000002B06D021B0F0BCBB46B246A946A04620
:10544000F0BD2278110963789C46A3781493E07824
:1054500015902579169566791796A7791897E379A7
:1054600019930823E356D8171D18454013956B462A
:105470004C201B1818781A90657A2E091B966089A3
:10548000070BB846070AB9460309267B3709BA460F
:10549000677B3C09A3460F242240274011975F46B3
:1054A000109726400F9657460E970F2630400D90C6
:1054B00033400C934F463E400B9647460A97254093
:1054C00009951B9E0896139D2C4007941A9C231146
:1054D0000693199C0594189F0497179E0396169D92
:1054E000029515980190149B00936346024814F0AE
:1054F000EDF89FE7D79A022090BF021070B58CB0EC
:1055000003AD264A264C21002800FCF7EFF82800BE
:10551000FDF7F6F9234D287007AE234A210030002D
:10552000FCF7E4F80A230B930BA93000FEF742FBCB
:105530001E4B18701E4B00221A701E4B29781970D2
:10554000032159709A701C4B1B78022B22D08022A9
:105550001A491B481B4B019305230093002392001B
:1055600019F033F810F0E2FE174A002311F0BCFBEB
:105570001000190011F0B0FE0022144B11F0C3FD11
:1055800002000B00124814F0A1F8124814F06EF853
:105590000CB070BD104B01321A70D8E72CBA021053
:1055A000142A0020D59A0220D0BF0210D99A0220D6
:1055B000D69A0220DC280020E09A0220D8BF0210F0
:1055C000D14E0010D828002040420F0000408F40EC
:1055D000689E0210E4BF0210D89A022010B500297C
:1055E00004D0086803685B690249984700200021DD
:1055F00010BDC04600007F4310B503490348044B6B
:1056000001220DF01DFC10BD70150020882A00201D
:105610000080654210B50C1E08D0086803689B68BE
:105620009847022805D120230022E25400200021BF
:1056300010BD10F07BFE0E4A002311F055FB100048
:10564000190011F049FE00220A4B11F05CFD020026
:105650000B00094814F03AF8084814F007F82068DD
:1056600003685B6800219847FFF7F8FDDBE7C04659
:1056700040420F0000408F40689E0210FCBF0210A5
:10568000F0B5D6464F464646C0B584B080468A46F9
:1056900017001E000CAB1B78994610F047FE040063
:1056A0000D00FA22920000235046002112F040FA29
:1056B00002000B0012196B41002B0CDB49460291D2
:1056C00001960097404610F041FC04B0E0BCBA4699
:1056D000B146A846F0BD01225242014BEEE7C0465A
:1056E000FFFFFF7FF0B583B004000D0016001F0020
:1056F00010F0C4FB009733002A002100FFF7C0FF21
:1057000003B0F0BDF8B507000D00032912D800243E
:10571000002608E021003800FAF772FE43425841A3
:1057200006430134E4B2EBB2A342F3D801235E4056
:10573000F0B2F8BD0020FCE7F0B585B001AC0190F7
:105740006160A2601E000A9F8F4201D300240CE01A
:10575000084B094A0948422113F0D2FD35192100AE
:1057600001A8FAF74DFE28700134BC42F6D305B00B
:10577000F0BDC0460CC002101CC0021070AC02107C
:1057800010B50379002B05D1002909D0042303713A
:10579000016010BD064B074A0748084913F0B0FDE9
:1057A000074B044A83310448890013F0A9FDC04621
:1057B00080970210A8C00210E09702100B020000B0
:1057C000D0D70210F8B504000E001100002508E043
:1057D0002C4BE200121BD2009B185B190122DA72DB
:1057E0000135284BE000001BC0001B181F79AF4299
:1057F00009DD244BE200121BD2009B185B195B7978
:10580000B342EDD1E4E70020002500E001308742FB
:1058100011DD1C4BE200121BD2009B181B18DB7A17
:10582000002BF3D1174BC200121AD2009B18002292
:105830009A740125EAE7002D22D14B1EDBB2012B21
:1058400004D92000FEF740FE002111E001212000D4
:10585000FEF73AFE02212000FEF736FEF4E7094B80
:10586000E200121BD2009B185B180022DA72013191
:10587000044BE200121BD2009B181B798B42EEDC1A
:10588000F8BDC046501D002010B5002400E00134D2
:10589000032C0BDC0C4AE3001B1BD90088580028A2
:1058A000F5D003681B6804219847F0E7074B197887
:1058B000FF2903D1064B00221A7010BD05480022B3
:1058C0000DF002FBF6E7C046501D0020E49A0220CE
:1058D000E69A0220882A002000B583B0124AC3004D
:1058E0001B1ADB009B58002B1BD0002108E00E4B3D
:1058F000C200121AD2009B185B180022DA72013122
:105900000529F4DD084BC200121AD2009B180022B0
:105910009A74064B8000C05800920223002119F0AF
:105920008BFF03B000BDC046501D0020582A002048
:1059300010B5104AC300181AC000805800280FD0B4
:1059400003689B68984702280CD005D800280BD024
:1059500001280BD1403004E0032809D1493000E090
:105960004F2010BD5220FCE74720FAE74F20F8E710
:105970004F20F6E7501D002070B5FEF761FD0121B4
:10598000494218F03FFA22480DF026FBFEF758FD79
:1059900000230022002117F08FFF1E4B1B78002BE5
:1059A00006D100251C4B1B78002B1AD1280070BD96
:1059B00017480DF09DFB002810D10025F2E70134B7
:1059C000E4B20F2CEED8124821000DF0D3FA0128D2
:1059D000F5D10123A3401D43ADB2F0E7002400251B
:1059E000EFE70B480DF096FB0028DFD0002401E024
:1059F0000134E4B20F2CD9D8054821000DF0BAFAD1
:105A00000228F5D10123A3401D43ADB2F0E7C04603
:105A1000882A0020E29A0220E39A022070B5FEF75D
:105A20000FFD0121494218F0EDF90D480DF0D4FAAF
:105A3000FEF706FD00230022002117F03DFF0024A1
:105A4000002508E0064821000DF094FA6300984014
:105A500005430134E4B20F2CF4D9280070BDC046D0
:105A6000882A002000487047682A002010B50248A4
:105A70000DF083FA10BDC046882A002010B5054AF3
:105A8000C300181AC000805803681B690249984770
:105A900010BDC046501D002000007F4310B51F4BB5
:105AA0001B78002B03D01E4B1B78002B30D01D48D9
:105AB0000DF07CFB002400E00134032C19DC1A4AB1
:105AC000E3001B1BDB009B58002BF5D0E0B2FFF777
:105AD000D5FF124B1B78002BEED1134AE3001B1BA2
