:020000041000EA
:1000000000B5324B212058609868022188439860DF
:10001000D860186158612E4B002199600221596106
:100020000121F02299502B49196001219960352056
:1000300000F044F80222904214D00621196600F024
:1000400034F8196E01211966002018661A6600F04E
:100050002CF8196E196E196E052000F02FF8012189
:100060000842F9D1002199601B49196000215960AB
:100070001A491B48016001219960EB211966A021F2
:10008000196600F012F800219960164914480160C1
:100090000121996001BC002800D000471248134993
:1000A000086003C880F30888084703B5996A0420EC
:1000B0000142FBD001200142F8D103BD02B5186610
:1000C0001866FFF7F2FF186E186E02BD00000240BE
:1000D000000000180000070000035F00212200005C
:1000E000F4000018222000A00001001008ED00E03C
:1000F00000000000000000000000000074B24E7A12
:1001000000200420F7010010C3010010C5010010F9
:10011000C1010010C1010010C1010010C101001097
:10012000C1010010C1010010C1010010C701001081
:10013000C1010010C1010010C9010010CB01001065
:10014000CD010010CD010010CD010010CD01001037
:10015000CD010010CD010010CD010010CD01001027
:10016000CD010010CD010010CD010010CD01001017
:10017000CD010010CD010010CD010010CD01001007
:10018000CD010010CD010010CD010010CD010010F7
:10019000CD010010CD010010CD010010CD010010E7
:1001A000CD010010CD010010CD010010CD010010D7
:1001B000CD010010CD010010CD010010CD010010C7
:1001C00000BE00BE00BE00BE00BE00BE00F04BF888
:1001D000103800BEF2EB8871FC740110307501100C
:1001E0003402001090A31AE700202149086006C8D5
:1001F00081F3088810471F48006800282FD10DA4FC
:100200000ECC002902D000F012F8F9E71A491B4A77
:10021000002000E001C19142FCD1194988471949E9
:1002200088471949884700BEFDE701C901C29A42C3
:10023000FBD3704730750110C00000205814002017
:10024000C88801100000042000000420C8880110A4
:1002500000100420001004200000000070470B482C
:1002600009F0DCF80047EFF30580C0B270470000EA
:1002700008ED00E0000000D05814002058280020AD
:10028000257D00107D370010E17C001057560000DE
:1002900006005250ABB360533C560110060052505A
:1002A000861C03024C560110060052505422A29D97
:1002B0005856011005005250DE65F468C8880110D8
:1002C000F8B5C04610B5064C2378002B07D1054B76
:1002D000002B02D0044800E000BF0123237010BDB2
:1002E000D815002000000000582F0110044B10B555
:1002F000002B03D00349044800E000BF10BDC046F6
:1003000000000000DC150020582F0110D0231B0630
:10031000802292045A61034B00221A7000200021AF
:100320007047C0464628002010B50C1E0CD0086847
:1003300003685B689847022806D0206803681B683A
:1003400000219847002323740020002110BD70472E
:100350007047000070B504000D000F2804D029007C
:10036000200005F02FFE70BD014805F0ADF9F6E75D
:10037000D421002010B582B0012801D002B010BDF8
:10038000104B9942FAD107230F4A03E000219171E3
:100390000732013B002BF9DA0C4C202221000C48DB
:1003A00004F07CF80B4B012221000B4804F0D8F834
:1003B000002300930F3311220849094804F076FA0C
:1003C000DCE7C046FFFF00006C210020D40B0020BA
:1003D0005C21002000806542AC21002000C0034069
:1003E000D421002010B50B490B480DF0C7FA0321AA
:1003F000042005F081FD0321052005F07DFD00228C
:100400000121042005F090FD00220121052005F0C6
:100410008BFD10BD801A0600D40B002010B50D4CCA
:100420000D4920000DF038FB0121102005F064FD7E
:100430000121122005F060FD0121132005F05CFD73
:10044000236807225A40CF231340802040012043D5
:10045000036010BD00C0034020A1070010B51400C8
:10046000094A1070D170547093700423FF2107481B
:1004700004F0CEFF002805D1D0231B0640225A618C
:1004800040329A6110BDC0461C280020D4210020B3
:1004900070470000F0B5DE4657464E464546E0B58B
:1004A00087B080468946011E09D001782B290CD0DF
:1004B0002D2910D12C398C46E0448A460DE0C64BDC
:1004C000C64A1A31C64807F00FFC01218C46E044A9
:1004D00000218A4601E000218A4641460878010051
:1004E0003039C9B2092905D92E2800D088E1002465
:1004F000002501E000240025414609788B4630396B
:10050000C9B28C46092924D8B6498D4221D81DD0BC
:10051000A10FAB000B43A200200029008018594115
:10052000001849410090019104000D006646002723
:10053000F1438C46691C18D00098019980197941C3
:1005400004000D0001218C46E044D5E7A6498C4209
:10055000DED9594600292ED15346002B1CD08023CA
:100560001B069D4204D9002626E06445E4D9F0E745
:100570009D4201D1002CF6D100236242AB41494695
:10058000097A7F208143484601720A200143484688
:1005900001720260436035E14B461B7A7F22934330
:1005A0004A461372082213434A4613721460556078
:1005B00001239A4626E1002680235B039D420AD34D
:1005C0000A2200232000290008F0BEFF04000D00CD
:1005D000013636B2F0E741460A781300303BDBB211
:1005E000092B03D8013636B20131F5E788462E2AA9
:1005F0000FD043461B78652B35D0452B33D00023D5
:10060000F61843461F78002F00D18FE000239A464A
:10061000F8E001239C46E044B446424613E0A70FAD
:10062000A9003943A00024184D4124196D410293BB
:1006300000230393029E039FA4197D416646013E59
:1006400033B29C4601321378303BDBB2092B07D81A
:10065000664FBD42F6D8E2D1654FBC42F2D8DEE724
:1006600066469046C5E74346581C5B782D2B04D060
:100670002B2B05D0002700232AE001300127FAE7C1
:10068000404602300027F6E70020002138E05346BC
:10069000002B17D000205749FFF7FAFE80231B06D6
:1006A0009C4661444B461B7A7F2293434A46137211
:1006B0000C2213434A46137202000B0049460A609B
:1006C0004B6029E000204B49FFF7E2FEEAE70130EA
:1006D000027811003039C9B2092920D89900CB1805
:1006E0005B00303A9B18F1189A2252009142EEDDDD
:1006F000002FCCD05346002BC6D000208021090605
:100700004B461B7A7F2293434A4613720C221343B3
:100710004A4613721060516001239A4672E0002F1E
:1007200002D05B4280466BE7804669E720002900E3
:1007300009F0F4F905000C00002E04DC76421BE001
:1007400076100137FFB2002E2CD0F307F8D57B00CE
:10075000294AF900895801339B009858FFF798FE01
:1007600002000B002800210009F01FF905000C0011
:10077000E6E776100137FFB2002E13D0F307F8D565
:100780007B001E4AF900895801339B009858FFF7F7
:100790007FFE02000B002800210009F006F9050089
:1007A0000C00E6E75346002B03D080231B069C4633
:1007B00064444B461B7A7F2293434A4613720C22B1
:1007C00013434A4613722A00230049460A604B60CD
:1007D00001239A4616E0C046582F0110602F0110E1
:1007E000B42F01109999991999999999999901009A
:1007F000989999990000F07F584401101044011015
:1008000000239A46504607B0F0BCBB46B246A94604
:10081000A046F0BD0160704782B0F0B583B0099387
:10082000002912D06B4609AC1D00C0CCC0C5040025
:1008300060CB60C400230372C2604374837441615F
:1008400003B0F0BC08BC02B01847034B034A143194
:10085000034807F049FAC046143001102030011057
:100860003431011070B50D0000282DD0037A9B069D
:1008700028D5041E24D00E1E1FD00468002C1FD0C3
:10088000E168002E0DD0002911D0280012F0CCF91B
:10089000002815D00A22A35E002B10D01B01E418FB
:1008A000ECE70A4B0A4A29210A4807F01DFA0A4BCD
:1008B000074A2A31074807F017FA0C0000E0002425
:1008C000200070BD0024FBE70400F9E79C31011013
:1008D000A83101102832011090320110F0B5C6463F
:1008E00000B584B0020002AB00211980039104001E
:1008F0000C34437C002B03D0157C0023537434E06C
:10090000A379002B0BD1C368591CC1601B78002B45
:100910000BDD002B0CDB237101236371ECE7914BA2
:10092000914A2531914807F0DFF90121A171F0E7E3
:100930000023F0E78B4B8C4A25218C4807F0D4F933
:100940000121A1711DE0237101236371137C00213A
:1009500051749D4200D1FCE0002B00D1FBE05C2BE8
:1009600013D01168481C10600B70537C002BEDD124
:10097000A379002BDED12368591C21601B78002B42
:10098000DEDD002BDFDA0023DDE7A3799846002BBC
:100990001AD12368591C21601B78002B1ADD002B0B
:1009A0001BDB237101236371107C002800D1D4E08C
:1009B000752814D06E490B78002B00D1C4E0984202
:1009C00000D1C0E00231F6E7664B674A253167483F
:1009D00007F08AF90121A171E1E70023E1E7002393
:1009E00053740021002024E09F79002F0BD1D76899
:1009F0007E1CD6603F78002F0BDD002F0CDB1F71B3
:100A000001275F711CE0574B574A2521574807F0D3
:100A10006BF901269E71F0E70027F0E7303BDBB26F
:100A20000F2B20D80901194389B2002353740130D8
:100A3000C0B203280ED813000C33577C002FD3D03C
:100A4000137C002B0DD0402BE8D92027BB43373B2C
:100A5000DBB2E5E70020002807D004B080BCB84630
:100A6000F0BD0220F7E70320F5E7A0239B01CB1898
:100A70009BB28020C000834216D390239B01CB18E9
:100A80009BB28020C000834213D303910123984678
:100A90004346002B00D168E7039B7F2B17D81168D2
:100AA000481C10600B7060E78905890D02AB198046
:100AB000EEE702A803889B028905890D0B4380217C
:100AC00049028C466344039301239846E0E70021E2
:100AD000684601703F2018408039014368464170E4
:100AE0009B0999B21F290FD8402149420B438370BB
:100AF0006B460333013B1978002900D135E71068B4
:100B0000461C16600170F5E73F20184080235B42C9
:100B100003436846837088090F2806D820235B4268
:100B200018436B46D87001ABE4E73F231840BF3B46
:100B300003436846C370090B10235B4219436B469D
:100B400001710533D6E74B78002B08D00021517492
:100B500007E7002081E702207FE702207DE70320EE
:100B60007BE7C046B0320110B832011024330110C7
:100B70009C32011070B588B004000E0022000C32C7
:100B8000617C002928D0227C002A3FD0202A09D865
:100B9000092A07D3093AD2B2012191400A00B94982
:100BA0000A423AD1012222720025002D00D095E0A0
:100BB00022000C32617C002932D0227C7B2A00D9B1
:100BC00058E15B2A46D35B3AD1B2202900D951E1E2
:100BD0008A00AD498A589746917900290BD1E1687E
:100BE000481CE060097800290BDD00290CDB11713D
:100BF00001215171C7E7A54BA54A2521A54807F05A
:100C000073F801209071F0E70021F0E7227A002AC2
:100C100001D10125C9E70225C7E700226274ADE7CB
:100C2000917900290BD1E168481CE060097800291E
:100C30000BDD00290CDB117101215171BDE7934BD4
:100C4000934A2521934807F04FF801209071F0E76F
:100C50000021F0E7222A02D0272A00D00AE12368E7
:100C600063602000FFF73AFE051E37D1002322689B
:100C7000137061682268501A03AB0391049001213C
:100C80001972013222606A4613CB13C2009A002AFD
:100C900037D0814B069300230793069B002B34D05B
:100CA0006B461B7A012B39D0337A7F218B43337209
:100CB00005210B4333723260019B73600EE0327A80
:100CC0007F218A43327240210A433272002232600D
:100CD00072603100200000F099F90500280008B08A
:100CE00070BD327A7F218A43327220210A433272E8
:100CF0000022326072603100200000F03BFB0500F2
:100D0000ECE7002306930793C7E7079BDB07C7D4ED
:100D1000624B634ADD21634806F0E6FF337A7F21A8
:100D20008B43337204210B433372C4E7337A7F223F
:100D300093433372062213433372012333705A4BA9
:100D400014E0524B524A2521524806F0CDFF0120B3
:100D500090711CE0117101215171227C002A1AD07E
:100D600019788A4219D10133002262741D78002D4E
:100D7000B4D022000C32617C0029EED19179002997
:100D8000DFD1E168481CE06009780029DFDD002937
:100D9000E0DA0021DEE70225A0E703259EE7337AAB
:100DA0007F2293433372062213433372002333703E
:100DB0003E4B14E0354B364A2521364806F094FF69
:100DC000012090711DE0117101215171227C002AD6
:100DD0001BD019788A421AD10133002262741D781F
:100DE000002D00D17AE722000C32617C0029EDD180
:100DF00091790029DED1E168481CE060097800297A
:100E0000DEDD0029DFDA0021DDE7022566E70325C4
:100E100064E7274B14E01D4B1D4A25211D4806F0B1
:100E200063FF012090711DE0117101215171227C3D
:100E3000002A1BD019788A421AD101330022627429
:100E40001D78002D00D149E722000C32617C002979
:100E5000EDD191790029DED1E168481CE060097884
:100E60000029DEDD0029DFDA0021DDE7022535E794
:100E7000032533E721000C31637C002B1AD0227C40
:100E80002B0050E01300800040340110B0320110FC
:100E9000B8320110243301104F030010984A01109A
:100EA00094330110E03301107C33011084330110BE
:100EB0008C3301108B79002B0BD1E3685A1CE26054
:100EC0001B78002B0BDD002B0CDB0B7101234B710E
:100ED000D5E72C4B2C4A25212C4806F005FF012292
:100EE0008A71F0E70023F0E7012002E0012000E032
:100EF0000120002838D03E2B36D800206074581CC2
:100F0000C0B2E3181A768B79002B22D10B685A1CD9
:100F10000A601B78002B22DD002B23DB0B710123E1
:100F20004B71227C03002F2A01D9392ADED92B2AC2
:100F3000DED02D2A07D02E2A07D0652A07D0452AD1
:100F4000D2D00020D5E70120D3E70120D1E701204E
:100F5000CFE70C4B0C4A25210C4806F0C5FE0122B8
:100F60008A71D9E70023D9E7E31800221A76200016
:100F700018303100FFF78EFA002800D0AEE60325C6
:100F8000ACE6C046B0320110B83201102433011073
:100F9000F0B59BB00400151C0E68002E28D0270069
:100FA000183723686360E368A3600023237420225A
:100FB000A3540968220018A8FFF72CFC199B009382
:100FC000189B3200210002A8FFF726FC2B1C0022F0
:100FD000390002A8FFF7CEFD002807D102AB1B7C29
:100FE000002B03D03B7A1B0700D503201BB0F0BDBC
:100FF000004ED4E7AC32011000B583B0019100235C
:1010000001A9FFF7C5FF03B000BD0000F0B5C6465B
:1010100000B504000E001D1CDBB2002B00D17DE1E9
:1010200003000C33427C002A1FD0237C5B2B36D17B
:101030000023637423000C33627C002A35D0227CA9
:10104000002A4CD0202A08D8092A06D3093AD2B25D
:1010500001239340B34A134248D101232372002055
:10106000002846D080BCB846F0BD9A79002A0BD142
:10107000C268511CC1601278002A0BDD002A0CDB0B
:101080001A7101225A71D0E7A74BA84A2521A84816
:1010900006F02AFE01219971F0E70022F0E7A54B46
:1010A000A54A9A21A54806F01FFE9A79002A0BD17D
:1010B000E268511CE1601278002A0BDD002A0CDB8B
:1010C0001A7101225A71BAE7974B984A252198481C
:1010D00006F00AFE01219971F0E70022F0E7237A79
:1010E000002B01D10120BBE70220B9E70023637484
:1010F000A0E723000C33627C002A09D0237C5D2BFF
:1011000020D1002363740127002F00D18BE0A9E7D1
:101110009A79002A0BD1E268511CE1601278002A0A
:101120000BDD002A0CDB1A7101225A71E6E77E4BB7
:101130007E4A25217E4806F0D7FD01219971F0E70E
:101140000022F0E70027DFE701221A74002127E0E0
:1011500000290CD08B1A18118046794883420CDB89
:10116000784883420FDC43465381716013E0764B2D
:10117000764A4731764806F0B7FD764B734A4821E8
:10118000734806F0B1FD744B704A4A21704806F06E
:10119000ABFD3160716000234B8100220A72CB608D
:1011A000002900D1BCE0EBB2002B55D0013BDBB2F3
:1011B00000222000FFF7DEFC002800D052E72300C9
:1011C0000C33627C002A4DD0237C002B64D0202B72
:1011D00009D8092B07D3093BDBB201229A4013003F
:1011E000504A13425FD101232372002800D039E70F
:1011F00023000C33627C002A58D0237C5D2B6FD1F6
:10120000002363740133002B00D02BE722000C3243
:10121000617C002966D0227C2C2A02D100236374D1
:101220000133002B78D063695A68103299688A427A
:101230008AD810399960002988D07268002AA8D00D
:101240001868824202D3DB689A4281D3434B444AF6
:101250001421444806F048FD434B444A12214448B7
:1012600006F042FD9A79002A0BD1E268511CE16038
:101270001278002A0BDD002A0CDB1A7101225A7148
:10128000A2E7294B294A2521294806F02DFD0121F5
:101290009971F0E70022F0E7237A002B01D10120B9
:1012A000A3E70220A1E70023637488E79A79002A64
:1012B0000BD1E268511CE1601278002A0BDD002A94
:1012C0000CDB1A7101225A7197E7174B174A252137
:1012D000174806F009FD01219971F0E70022F0E7B7
:1012E0003B0090E7917900290BD1E168481CE06050
:1012F000097800290BDD00290CDB117101215171E6
:1013000089E7094B094A2521094806F0EDFC01202F
:101310009071F0E70021F0E70320A3E60520A1E6A5
:1013200004209FE613008000B0320110B832011093
:1013300024330110C4340110D83401103C3601109C
:101340000000F8FFF0FF070084370110903701100C
:10135000E837011048380110843801109C3601101C
:10136000B036011020370110C0380110CC38011000
:1013700024390110F0B5DE4657464E464546E0B5E5
:101380008FB004000F006A46D371DBB2002B00D18E
:10139000B9E303000C33427C002A27D0237C7B2B4B
:1013A0003ED10023637423000C33627C002A3DD0BD
:1013B000237C002B54D0202B09D8092B07D3093BC1
:1013C000DBB201229A401300AC4A134251D10123EF
:1013D0002372002399464B46002B4DD048460FB050
:1013E000F0BCBB46B246A946A046F0BD9A79002A99
:1013F0000BD1C268511CC1601278002A0BDD002A93
:101400000CDB1A7101225A71C8E79D4B9D4A2521B8
:101410009D4806F069FC01219971F0E70022F0E790
:101420009A4B9B4AEE219B4806F05EFC9A79002A73
:101430000BD1E268511CE1601278002A0BDD002A12
:101440000CDB1A7101225A71B2E78D4B8D4A2521AE
:101450008D4806F049FC01219971F0E70022F0E780
:10146000237A002B02D101239946B4E7022399463F
:10147000B1E70023637496E723000C33627C002AF3
:101480000BD0237C7D2B22D1002363740133009386
:10149000009B002B00D1BFE1A0E79A79002A0BD175
:1014A000E268511CE1601278002A0BDD002A0CDB97
:1014B0001A7101225A71E4E7714B724A2521724870
:1014C00006F012FC01219971F0E70022F0E70023F9
:1014D0000093DDE79A79002A0BD1E268511CE160A4
:1014E0001278002A0BDD002A0CDB1A7101225A71D6
:1014F0009AE1634B634A2521634806F0F5FB01211D
:101500009971F0E70022F0E78379002B0BD1E368B3
:101510005A1CE2601B78002B0BDD002B0CDB0371E7
:10152000012343718DE1564B564A2521564806F05A
:10153000DBFB01228271F0E70023F0E7C421564B68
:10154000564AFF31534806F0CFFB012102E001214A
:1015500000E00099002924D1032041E00121F9E7AE
:101560008379002B0BD103685A1C02601B78002B77
:101570000BDD002B0CDB0371012343711AE0404BA0
:10158000404A2521404806F0AFFB01228271F0E776
:101590000023F0E70A0002E00A0000E0009A002AB7
:1015A00019D0002262742268551C25601370637C78
:1015B000002BD5D0237C2F2B01D9392BEAD95E2BD8
:1015C00001D97A2BE8D9402BE8D95A2B01D9009AB6
:1015D000E5E70A00E3E7484602E02000FFF77EF96E
:1015E000002800D07AE222000C32637C002B20D04D
:1015F000237C002B37D0202B09D8092B07D3093B9C
:10160000DBB201229A4013001C4A134232D101235B
:101610002372002800D063E223000C33627C002A8E
:101620003ED0237C3A2B55D10023637401339A4674
:1016300052E09379002B0BD1E368591CE1601B78D1
:10164000002B0BDD002B0CDB137101235371CFE753
:101650000B4B0C4A25210C4806F046FB01219171E9
:10166000F0E70023F0E7237A002B01D10120D0E737
:101670000220CEE700236374B5E7C0461300800064
:10168000B0320110B8320110243301108C3901102E
:10169000A03901103C360110744A0110043B0110BE
:1016A0009A79002A0BD1E268511CE1601278002A75
:1016B0000BDD002A0CDB1A7101225A71B1E7C24B13
:1016C000C24A2521C24806F00FFB01219971F0E7BB
:1016D0000022F0E7009B9A465346002B00D101E21E
:1016E000002322681370666823689B469A1B03AB2D
:1016F0000396049201221A72B046351E21D03D682D
:101700000DE0B44BB44A2921B44806F0EDFAB44BCD
:10171000B14A2A31B14806F0E7FA1B01ED18002D55
:101720000FD0E9684346002BEBD00029EFD0300002
:1017300011F07AFA002804D00A22AB5E002BECD11B
:101740000025002D00D192E0291E00D18FE06B46CC
:10175000DB79002B00D10DE1013BDBB20022200040
:10176000FFF708FA002800D0C2E122000C32637CA7
:10177000002B00D104E1237C002B00D11AE1202BA7
:101780000AD8092B08D3093BDBB201229A40130087
:10179000944A134200D014E101232372002800D0A0
:1017A000A8E123000C33627C002A00D13CE1237CB9
:1017B0007D2B00D052E1002363745146002900D0F4
:1017C0009AE123000C33627C002A00D148E1237C9B
:1017D0002C2B02D1002363745146002900D18DE1E6
:1017E00022000C32637C002B00D153E1237C002BC0
:1017F00000D169E1202B0AD8092B08D3093BDBB2C1
:1018000001229A401300774A134200D063E101237A
:101810002372002800D074E12368636023000C3336
:10182000627C002A00D155E6237C272B00D1D4E628
:10183000222B00D1D1E620000C30637C002B00D19C
:1018400062E6237C002B00D178E62F2B02D9392BBE
:1018500000D87AE65E2B02D97A2B00D877E6402BA7
:1018600000D876E65A2B00D878E6009972E6002375
:101870005A46137061682268501A09AB09910A90A0
:10188000012119720132226003AA03CB03C21B7823
:10189000137063695A68103299688A4212D81039F5
:1018A0009960002910D07A68002A2ED018688242E8
:1018B00002D3DB689A4209D34B4B4C4A14214C4863
:1018C00006F012FA01221A74002125E000290AD03C
:1018D0008B1A1811474DAB420BDB474DAB420EDC68
:1018E0005081796013E0454B454A4731454806F041
:1018F000FBF9454B424A4821424806F0F5F9434B73
:101900003F4A4A213F4806F0EFF9396079600023E9
:101910004B8100220A72CB60002900D1E5E006AAC3
:1019200003AB61CB61C2069B002B11D0384A0C92ED
:1019300000220D920C9A002A0ED006AA127A012AD1
:1019400013D0087A8022524202430A72CB60FEE62C
:1019500000220C920D92EDE70D9AD207EDD42D4B9B
:101960002D4A5021274806F0BFF9087A7E320240FE
:101970000A72EBE7294B2A4A12212A4806F0B4F9E9
:101980009379002B0BD1E368591CE1601B78002B85
:101990000BDD002B0CDB137101235371EBE60A4BBB
:1019A0000A4A25210A4806F09FF901219171F0E7C2
:1019B0000023F0E7237A002B01D10120EEE602207C
:1019C000ECE600236374D0E6B0320110B8320110A7
:1019D000243301109C310110A8310110283201106C
:1019E00090320110130080009C360110B0360110B7
:1019F000203701100000F8FFF0FF070084370110C6
:101A000090370110E8370110483801108438011070
:101A10004F030010F43B0110F83B0110C0380110D7
:101A2000CC380110243901109A79002A0BD1E268D0
:101A3000511CE1601278002A0BDD002A0CDB1A71C0
:101A400001225A71B3E6314B314A2521314806F063
:101A50004BF901219971F0E70022F0E70099ADE61A
:101A60009A79002A0BD1E268551CE5601278002AA9
:101A70000BDD002A0CDB1A7101225A71A7E6234BF9
:101A8000234A2531234806F02FF901259D71F0E7FF
:101A90000022F0E79379002B0BD1E368591CE16039
:101AA0001B78002B0BDD002B0CDB13710123537112
:101AB0009CE6164B164A2521164806F015F9012119
:101AC0009171F0E70023F0E7237A002B01D1012088
:101AD0009FE602209DE60023637481E681467DE453
:101AE00081467BE40323994678E40423994675E410
:101AF000814673E4814671E481466FE4032399468D
:101B00006CE481466AE40523994667E4B03201102B
:101B1000B8320110243301100123002904D104D16B
:101B200080221206904200D30023D8B270474B1C8B
:101B30000EDB4B1C03D180231B06984208D30029DF
:101B400008DC03D180231B06984203D2012000E069
:101B5000002070470020FCE710B50400FFF7DCFF11
:101B6000002801D0200010BD0020FCE710B50400C3
:101B7000FFF7DDFF002801D0200010BD0020FCE7AA
:101B80000123002902D102D1FF2800D90023D8B2B5
:101B9000704710B50400FFF7F3FF002801D0E0B252
:101BA00010BD0020FCE700290ADB0123002902DD2B
:101BB0000023D8B270470029FBD1FF28F9D9F7E7F5
:101BC0000020F7E710B50400FFF7EDFF002801D073
:101BD000E0B210BD0020FCE770B504000D0000224B
:101BE000002307F033FF002809D00022064B200015
:101BF000290007F023FF002803D0012000E0002087
:101C000070BD0020FCE7C04600E06F4070B50400E6
:101C10000D00FFF7E1FF002805D02000290007F0A4
:101C200071FFC0B270BD0020FCE7000010B588B0A5
:101C3000027A7F231340043BDAB2082A46D8930085
:101C4000244AD3589F46007841E041680068FFF776
:101C5000A0FF3CE041680068FFF7B4FF37E0006890
:101C600000236A4613726946FEF714FC6B461A7A23
:101C70007F231340043BDAB2082A20D89300164A87
:101C8000D3589F466B46187821E000980199FFF7DA
:101C900080FF1CE000980199FFF794FF17E004AC67
:101CA0000023237221000098FEF7F4FB2000FFF7C9
:101CB000BDFF0CE000980199FFF7A8FF07E00020A6
:101CC00005E041680068FFF7A1FF00E0002008B0D0
:101CD00010BDC046443C0110683C011010B58CB0EA
:101CE000002876D0027A7F231340043BDAB2082A18
:101CF0006DD89300384AD3589F4600786AE041680F
:101D00000068FFF746FF65E041680068FFF75AFF8B
:101D100060E0006800236A4613726946FEF7BAFB6A
:101D20006B461A7A7F231340043BDAB2082A47D85D
:101D300093002A4AD3589F466B4618784AE0009889
:101D40000199FFF726FF45E000980199FFF73AFF58
:101D500040E000236A46137604A90098FEF79AFB38
:101D60006B461A7E7F231340043BDAB2082A20D840
:101D700093001B4AD3589F4604AB18782AE0049876
:101D80000599FFF706FF25E004980599FFF71AFF6C
:101D900020E008AC0023237221000498FEF77AFBB0
:101DA0002000FFF743FF15E004980599FFF72EFF89
:101DB00010E000200EE000980199FFF727FF09E0EE
:101DC000002007E041680068FFF720FF02E00020E4
:101DD00000E000200CB010BD8C3C0110B03C0110A4
:101DE000D43C011070B504000D000022094B07F02F
:101DF0002DFE002809D0084A084B2000290007F0D2
:101E00001DFE002803D0012000E0002070BD00204E
:101E1000FCE7C0460000E0C10000C0FFFFFFDF415B
:101E200070B504000D00FFF7DDFF002804D020008E
:101E3000290007F043FE70BD0020FCE710B588B014
:101E4000027A7F231340043BDAB2082A46D8930073
:101E5000244AD3589F46007841E041680068FFF764
:101E60007BFE3CE041680068FFF780FE37E00068D9
:101E700000236A4613726946FEF70CFB6B461A7A1A
:101E80007F231340043BDAB2082A20D89300164A75
:101E9000D3589F466B46187821E000980199FFF7C8
:101EA0005BFE1CE000980199FFF760FE17E004ACB0
:101EB0000023237221000098FEF7ECFA2000FFF7C0
:101EC000BDFF0CE000980199FFF7AAFF07E0002092
:101ED00005E041680068FFF7A3FF00E0002008B0BC
:101EE00010BDC046F83C01101C3D011030B589B052
:101EF00004000D00006818306168FEF7B3FC00288C
:101F000016D0027A7F231340082B07D00A2B0AD061
:101F1000002000280ED1286809B030BD4168006853
:101F2000FFF7FAFDF5E741680068FFF700FEF0E70C
:101F30000020EEE7206818306168FEF793FC002867
:101F40004FD0027A7F231340043BDAB2082A46D8E6
:101F50009300254AD3589F460078DDE74168006822
:101F6000FFF7FAFDD8E741680068FFF7FFFDD3E708
:101F7000006800236A4613726946FEF78BFA6B46C7
:101F80001A7A7F231340043BDAB2082A20D8930040
:101F9000164AD3589F466B461878BDE700980199BA
:101FA000FFF7DAFDB8E700980199FFF7DFFDB3E727
:101FB00004AC0023237221000098FEF76BFA200086
:101FC000FFF73CFFA8E700980199FFF729FFA3E777
:101FD0000020A1E741680068FFF722FF9CE700208E
:101FE0009AE7002098E7C046403D0110643D01108B
:101FF00030B589B004000D00C1684068FEF732FCBE
:10200000002816D0027A7F231340082B07D00A2B12
:102010000AD0002000280ED1286809B030BD4168E0
:102020000068FFF779FDF5E741680068FFF77FFD7D
:10203000F0E70020EEE76068E168FEF713FC002897
:102040004FD0027A7F231340043BDAB2082A46D8E5
:102050009300254AD3589F460078DEE74168006820
:10206000FFF77AFDD9E741680068FFF77FFDD4E705
:10207000006800236A4613726946FEF70BFA6B4646
:102080001A7A7F231340043BDAB2082A20D893003F
:10209000164AD3589F466B461878BEE700980199B8
:1020A000FFF75AFDB9E700980199FFF75FFDB4E724
:1020B00004AC0023237221000098FEF7EBF9200006
:1020C000FFF7BCFEA9E700980199FFF7A9FEA4E776
:1020D0000020A2E741680068FFF7A2FE9DE700200C
:1020E0009BE7002099E7C046883D0110AC3D0110F8
:1020F00030B589B004000D0001698068FEF7B2FBBD
:102100006169FEF7AFFB002816D0027A7F231340E7
:10211000082B07D00A2B0AD0002000280ED12868EF
:1021200009B030BD41680068FFF7F6FCF5E741688B
:102130000068FFF7FCFCF0E70020EEE72169A068EB
:10214000FEF790FB6169FEF78DFB00284FD0027A05
:102150007F231340043BDAB2082A46D89300254A6D
:10216000D3589F460078DBE741680068FFF7F4FC2E
:10217000D6E741680068FFF7F9FCD1E70068002363
:102180006A4613726946FEF785F96B461A7A7F2311
:102190001340043BDAB2082A20D89300164AD358D9
:1021A0009F466B461878BBE700980199FFF7D4FC6F
:1021B000B6E700980199FFF7D9FCB1E704AC00231A
:1021C000237221000098FEF765F92000FFF736FE24
:1021D000A6E700980199FFF723FEA1E700209FE7FB
:1021E00041680068FFF71CFE9AE7002098E700208E
:1021F00096E7C046D03D0110F43D0110F0B5DE4633
:1022000057464E464546E0B58B4CA544002003F0AA
:1022100051FE0FF015FC01228849FFA87C300EF01A
:102220004BF8041E6FD101228549D820C00008ABAD
:102230009C4660440EF06EF8041E01D008286FD151
:102240008022002392009EA9D820C00008ACA4469A
:1022500060440EF00DFA0390051E6FD11EAB14936F
:1022600015939EAB16931793002308AA402152188A
:102270001370202208A9302009188B540A229EA925
:1022800014A8FEF7B9FEC3B2002B67D06D4B9222A3
:10229000120108A98C466244136092231B01634417
:1022A00000225A6092231B0108AA944663441B68CB
:1022B000002B01D000F01DFC634B63441B68DB075F
:1022C00001D500F016FC614B634414AA1A60604CFF
:1022D0005C600AA90A0041CB41C208225D48604403
:1022E00008F058F921001AA8FEF7BCFA00285FD0C0
:1022F000027A7F231340043BDAB2082A56D89300AF
:10230000554AD3589F46D0231B0640225A6140327B
:102310009A610FF009FD01002200504805F07EFD92
:10232000D0231B0640225A6140329A610FF0FCFC18
:102330000200230042494A4805F070FDD0231B06E5
:1023400040225A6140329A61039C20000FF0ECFC5D
:10235000020023003A49434805F060FD0023922221
:10236000120108A98C466244136092221201624451
:10237000536097E700781CE041680068FFF709FCAC
:1023800017E041680068FFF71DFC12E000680AAB27
:1023900000221A721900FEF77DF80AA8FFF746FC22
:1023A00007E041680068FFF731FC02E0039800E0B5
:1023B00003982D4B18702D4B08AA9446634414AA19
:1023C0001A602B4C5C600AA90A0041CB41C208226A
:1023D00093200001604408F0DDF821001AA8FEF700
:1023E00041FA002848D0027A7F231340043BDAB236
:1023F000082A1FD893001F4AD3589F4600783CE014
:1024000041680068FFF7C5FB37E041680068FFF7E7
:10241000D9FB32E000680AAB00221A721900FEF7FD
:1024200039F80AA8FFF702FC27E041680068FFF7C7
:10243000EDFB22E0039820E05CEFFFFF183E011067
:10244000343E01105103001024090000D40C000098
:10245000783E011028090000B84001101C3E011010
:10246000403E01105C3E011045280020CC0C0000CD
:10247000803E0110DC4001100398F64B1871F64BBA
:1024800008AA9446634414AE1E60F44A5A600AAC2B
:10249000220003CB03C208222100F148604408F067
:1024A00079F80A239422120108A98C466244136029
:1024B0001100EB486044FFF719FDEA4B1870EA4B36
:1024C00008AA944663441E60E84A5A60220003CB7F
:1024D00003C2E74B6344220003CA03C36423E54AF3
:1024E000624413601100E2486044FFF7FFFCE24BD6
:1024F0001870E24B08AA944663441E60E04A5A6092
:10250000220003CB03C20822210095200001604471
:1025100008F040F80F23DB4A08A98C466244136098
:102520001100952000016044FFF7E0FCD64B1870C5
:10253000D64B08AA944663441E60D54A5A602200CE
:1025400003CB03C2D34B634406CC06C31E23D24A3B
:10255000624413601100CF486044FFF7C7FCCF4BC3
:102560001870CF4B1B78002B00D1D7E2CD4B08AAB7
:102570009446634414AE1E60CB4F5F600AAC2200E9
:1025800003CB03C208222100C848604408F002F8C7
:1025900039001AA8FEF766F9C54B08AA94466344A9
:1025A00018605E6006CB06C4031E03D0027A920652
:1025B00000D4BCE212931396002B01D100F0DAFE96
:1025C0000AAC082212A9200007F0E4FFB94B08AAC0
:1025D000944663441A00210041C941C2B64999603A
:1025E0002200C1CBC1C2B54B63442200C1CAC1C3E2
:1025F00098231B0163441E68B04B63441868FEF7C0
:1026000031F9AF4B08AA9446634418605E6006CB6C
:1026100006C4031E03D0027A920600D489E29722F0
:10262000120108A98C4662441360A64A62441660EF
:10263000002B00D1CAE20AAC082212A9200007F040
:10264000A9FFA14B08AA944663441A00210041C97E
:1026500041C29E4999602200C1CBC1C29C4B6344D8
:1026600045CC45C39B4B6344994A624451CA51C30C
:10267000994B6344974A624451CA51C3974CE12332
:102680001B0163441C6099231B016344924A62440A
:10269000C1CAC1C3924B63441C6099231B016344AC
:1026A0001868FEF7DFF82100FEF7DCF8002800D1FB
:1026B00041E2FFF7BBFA81460AAC082212A92000CA
:1026C00007F068FF874B08AA944663441A0021006C
:1026D00041C941C27D4999602200C1CBC1C2824B30
:1026E000634445CC45C3814B63447F4A624451CA2D
:1026F00051C37F4B63447D4A624451CA51C37D4CF0
:10270000DE231B0163441C607B4B6344784A6244B4
:10271000C1CAC1C3794B63441C60774B63441868DA
:10272000FEF7A0F82100FEF79DF8002800D105E291
:10273000FFF77CFA83460AAC082212A9200007F0B2
:1027400029FF6F4B08AA944663441A00210041C92F
:1027500041C26C4999602200C1CBC1C26A4B63443B
:1027600045CC45C3694B6344674A624451CA51C36F
:10277000674B6344654A624451CA51C3574CDB23DB
:102780001B0163441C609E231B016344604A624436
:10279000C1CAC1C35F4B63441C609E231B016344D9
:1027A0001868FEF75FF82100FEF75CF8002800D1FA
:1027B000C7E1FFF73BFA82460AAC082212A92000C3
:1027C00007F0E8FE544B08AA944663441A0021001F
:1027D00041C941C24B4999602200C1CBC1C24F4B94
:1027E000634445CC45C34E4B63444C4A624451CA92
:1027F00051C34C4B63444A4A624451CA51C33D4C95
:10280000D8231B0163441C60474B6344454A624420
:10281000C1CAC1C3454B63441C60434B6344186841
:10282000FEF720F82100FEF71DF8002800D18BE10B
:10283000FFF7FCF905900AAC082212A9200007F066
:10284000A9FE3B4B08AA944663441A00210041C9E3
:1028500041C26FE060150020C40C00008C3E0110E6
:1028600038090000EF070020BC0C0000943E011066
:10287000440900004C090000F0070020B40C0000DF
:10288000A03E011058090000ED070020AC0C00002C
:10289000A83E01105C09000064090000F107002057
:1028A00045280020E40C0000D83F01106809000012
:1028B000DC0C0000F40C0000E03F01107C0900007B
:1028C000EC0C000074090000140E0000E83F011039
:1028D000A4090000F40D0000040E0000EC3F0110FC
:1028E0009C090000E40D0000CC090000C40D0000AC
:1028F000D40D0000F03F0110B8090000C409000029
:10290000B40D0000F83F0110F4090000940D000020
:10291000A40D0000EC090000840D00001C0A00005A
:10292000640D0000740D0000080A0000140A000085
:10293000540D0000894999602200C1CBC1C2884B67
:10294000634445CC45C3874B6344854A624451CABE
:1029500051C3854B6344834A624451CA51C3834C7B
:10296000D5231B0163441C60A3231B0163447E4ADF
:102970006244C1CAC1C37E4B63441C60A3231B01D4
:1029800063441868FDF76EFF2100FDF76BFF002818
:1029900000D1DCE0FFF74AF904900AAC082212A942
:1029A000200007F0F7FD734B08AA944663441A0011
:1029B000210081C981C2694999602200C1CBC1C28D
:1029C0006D4B634445CC45C36C4B63446A4A6244D7
:1029D00051CA51C36A4B6344684A624451CA51C3E5
:1029E000684CD2231B0163441C60674B6344644AF8
:1029F0006244C1CAC1C3654B63441C60624B6344FB
:102A00001868FDF72FFF2100FDF72CFF002800D1EB
:102A1000A0E0FFF70BF980461C2007F0C1FD040081
:102A2000049B009353464A46594903F0E7F9404650
:102A300007F0A3FC8046059807F09FFC071C58464A
:102A400007F09BFC011C43463A1C200003F0E8F908
:102A5000504B1C600AAC082212A9200007F09AFD16
:102A60004D4B08AA944663441A00210041C941C253
:102A70004A4999602200C1CBC1C2494B634445CC4D
:102A800045C3484B6344464A624451CA51C3464B0E
:102A90006344444A624451CA51C30020FE231B01CF
:102AA00063441861414B63443F4A6244D0CAD0C377
:102AB000C0231B01634418603C4B63441868FDF756
:102AC000D1FE002806D0037A5B0600D464E3002818
:102AD00000D00068002800D17EE3017A7F230B40FC
:102AE000043BD9B2082900D974E38B003049CB5894
:102AF0009F46D0231B0640225A6140329A61C0B2E1
:102B0000052805D880002B4BC1582B4805F086F9C5
:102B10002A4B2B4A46212B4805F0E6F8D0231B060A
:102B200040225A6140329A61274805F077F9002324
:102B300040E5002373E5039B9946BDE5039B9B4657
:102B4000F9E5039B9A4637E6039B059373E6039BDF
:102B5000049322E7039B98465EE7C046E03F0110DE
:102B6000440A0000340D0000440D0000EC3F011049
:102B70003C0A0000240D00006C0A0000040D000057
:102B8000140D0000F03F0110580A0000640A000014
:102B9000AC21002060150020F40F0000803E0110E1
:102BA000080C0000D40F0000E40F0000F40B00003C
:102BB00000410110C8070020AC3F0110B43E0110D5
:102BC000F83E01103C3F0110C43F01100AAC08223E
:102BD00012A9200007F0DEFCFD4B08AA94466344CE
:102BE0001A00210041C941C2FA4A90469A60220067
:102BF00043CB43C2F84B6344220043CA43C3F74B61
:102C00006344F54A624443CA43C3F54B6344F34A01
:102C1000624443CA43C3F34FFC231B0163441F6058
:102C2000A8231B016344EE4A624443CA43C3EE4BEC
:102C300063441F60A8231B01634418684146FDF7E5
:102C400011FE3900FDF70EFEFFF748F80590082247
:102C500012A9200007F09EFCE44B08AA94466344A6
:102C60001900260005CE05C141469960210045CBDB
:102C700045C1DF4B6344210045C945C3DD4B634477
:102C8000DB4A624443CA43C3DB4B6344D94A6244D0
:102C900043CA43C3F9231B016344D8491960D84B85
:102CA0006344D54A624443CA43C3D64B6344D349C1
:102CB0001960D34B634418684146FDF7D3FDCF49F3
:102CC000FDF7D0FDFFF70AF80690082212A92000B0
:102CD00007F060FCCC4B08AA94466344190022001C
:102CE00041CA41C141469960210045CB45C1C74B0E
:102CF0006344210045C945C3C54B6344C34A62448C
:102D000043CA43C3C34B6344C14A624443CA43C337
:102D1000C14B9846F6231B01634441461960AD231D
:102D20001B016344BB4A624443CA43C3BB4B634475
:102D300041461960FF239B46AF231B01634459465C
:102D40001960AF2109016144B54B63441800FFF7D6
:102D5000CFF9C3B20493082212A9200007F01AFC8D
:102D6000B04B08AA944663441900220041CA41C1ED
:102D7000AD4989469960210045CB45C1B1231B016E
:102D80006344210045C945C3A84B6344B1210901EF
:102D900061440A0043CA43C3A54B6344A349614449
:102DA0000A0043CA43C3F3231B0163441F60A14BC2
:102DB00063449F4961440A0043CA43C39E4B634432
:102DC0001F609C4B634418684946FDF74BFD390072
:102DD000FDF748FDFEF782FF0790082212A92000A8
:102DE00007F0D8FB954B08AA9446634419002200CB
:102DF00041CA41C149469960210045CB45C1904B2C
:102E00006344210045C945C38E4B63448C496144EA
:102E10000A0043CA43C38C4B63448A4961440A0095
:102E200043CA43C3F02109016144744E0E60874BCD
:102E30006344854961440A0043CA43C3B32109017D
:102E400061446E4E0E608149614408684946FDF751
:102E500009FD6A49FDF706FDFEF740FF08900822CC
:102E600012A9200007F096FB794B08AA9446634408
:102E70001900220041CA41C149469960210045CB51
:102E800045C1B6231B016344210045C945C3714BAD
:102E90006344B621090161440A0043CA43C36E4B2F
:102EA00063446C4961440A0043CA43C3ED210901EC
:102EB000614443460B60694B6344674961440A00BF
:102EC00043CA43C36649614443460B606549614454
:102ED0005B460B6063496144634B63441800FFF732
:102EE00007F9C1B28A46082212A9200007F052FB56
:102EF0005E4B08AA944663441900220041CA41C1AE
:102F00005B4989469960210045CB45C1594B6344D3
:102F1000210045C945C3584B6344564961440A00E2
:102F200043CA43C3554B6344534961440A0043CAEF
:102F300043C3EA21090161440F60514B63444F4987
:102F400061440A0043CA43C34E4961440F604C497F
:102F5000614408684946FDF785FC3900FDF782FCAD
:102F6000FEF7BCFE0990082212A9200007F012FB10
:102F7000454B08AA944663441900270044CF44C136
:102F8000494699602100C4CBC4C1404B6344210031
:102F9000C4C9C4C33E4B63443C4961440A00C2CA2D
:102FA000C2C33C4B63443A4961440A00C2CAC2C32B
:102FB000E72109016144114E0E60BA231B016344ED
:102FC000344961440A00C2CAC2C33349614465E05E
:102FD000C40F0000F83F0110940A0000A40F000085
:102FE000B40F0000EC3F01108C0A0000940F0000A9
:102FF000BC0A0000740F0000840F0000F03F0110B5
:10300000A80A0000B40A0000640F0000E40A0000EF
:10301000440F0000540F000000400110DC0A0000C3
:10302000C80A0000340F00000C400110140F00000B
:10303000240F0000FC0A0000080B0000040F000031
:10304000380B0000E40E0000F40E0000240B00001A
:10305000D40E0000B40E0000C40E00004C0B0000A3
:10306000580B00006C0B0000440B0000A40E000085
:10307000E83F01108C0B0000840E0000940E00004D
:10308000780B0000840B0000740E0000B40B0000ED
:10309000540E0000640E0000AC0B0000E84E0E6001
:1030A000BA210901614408684946FDF7DBFBE449A0
:1030B000FDF7D8FBFEF712FE0600082212A9200039
:1030C00007F068FADF4B08AA94466344190027000A
:1030D00005CF05C149469960210085CB85C1DA4BF2
:1030E000634486CC86C3D94B6344D74961440A0004
:1030F00092CA92C3D64B6344D44961440A0092CA2F
:1031000092C3E4210901614444460C60D14B6344FD
:10311000CF4961440A0092CA92C3CF4961444446F0
:103120000C60CE4961445C460C60CC496144BC24CF
:10313000240164442000FEF7DBFFC7B2142007F02F
:103140002FFA040009990091079B059AC44902F0DF
:1031500041FD300007F011F9061C089807F00DF941
:103160008046069807F009F9011C331C42462000EE
:1031700002F048FD049A0021200002F03DFD524675
:103180000121200002F038FD3A000221200002F067
:1031900033FDB44B1C605DE400209BE400781CE030
:1031A00041680068FEF7F5FC17E041680068FEF72B
:1031B00009FD12E000680AAB00221A721900FDF73F
:1031C00069F90AA8FEF732FD07E041680068FEF7DA
:1031D0001DFD02E0039800E00398A24B187100283F
:1031E00000D1B3E0A04B1B78834200D1B7E09D4EE5
:1031F000306803681B68002198470AAC082212A9AE
:10320000200007F0C7F9994B08AA944663441A00B6
:10321000210081C981C2964A9A60220083CB83C271
:10322000944B6344220083CA83C3FF23924A6244BF
:103230001360110091486044FEF7DAFE70710822B5
:1032400012A9200007F0A6F98D4F08AB9C466744F1
:1032500008222100380007F09DF98A4BBB600C2240
:103260003900200007F096F9874B08AA944663447A
:10327000220083CA83C30623844A62441360110078
:1032800083486044FEF7B4FEB07100233374814973
:1032900008AB9C46614414AA0A607F4E4E60082227
:1032A000200007F077F97D4B08AA9446634422007A
:1032B00003CA03C331001AA8FDF7D4FA80214901DB
:1032C00008AB9C466144086014AB4B6008222000A8
:1032D00007F060F90A9B0B9A002B02D0197A890635
:1032E00046D510931192002B00D1DDE10AAC0822E3
:1032F00010A9200007F04EF98226760108AB9C4603
:10330000664408222100300007F044F9644FB7609A
:103310000C223100200007F03DF9624B08AA9446C8
:10332000634407CC07C339005E4B63441868FDF75C
:1033300099FA002849D0027A7F231340043BDAB27D
:10334000082A40D89300584AD3589F46D0231B06DA
:1033500040225A6140329A61544804F05FFDD02304
:103360001B0640225A6140329A61514804F056FDD2
:103370000023B6E7D0231B0640225A6140329A61EF
:103380004C4804F04BFD027820E041680068FEF7ED
:1033900000FC02001AE041680068FEF713FC02001E
:1033A00014E000680AAB00221A721900FDF772F8E7
:1033B0000AA8FEF73BFC020008E041680068FEF73F
:1033C00025FC020002E0039A00E0039A16003A4846
:1033D000D3009B1A01221A54C018002343710371B1
:1033E0000AAC073210A9200007F0D4F8334B08AA22
:1033F000944663441A00210081C981C2304A944630
:103400009A60220083CB83C22E4B08AA9046434485
:1034100007CC07C361462B4B43441868FDF722FADB
:1034200000286FD0027A7F231340043BDAB2082AC7
:1034300066D89300244AD3589F46007863E0C0467C
:10344000F03F0110440E0000DC0B0000240E0000D1
:10345000340E0000C80B0000D40B0000E80B000085
:10346000AC21002060150020452800201C10000021
:103470004C400110180C0000240C0000140C00003B
:1034800010100000504001102C0C0000380C0000FF
:10349000280C000008100000584001103C0C0000EF
:1034A000EC3F0110480C00002441011014400110B1
:1034B00030400110644001106C21002034100000E5
:1034C00078400110580C0000484101104168006824
:1034D000FEF75FFB17E041680068FEF773FB12E040
:1034E00000680AAB00221A721900FCF7D3FF0AA881
:1034F000FEF79CFB07E041680068FEF787FB02E0EF
:10350000039800E00398F200921B8A4B9B185870B6
:103510000AAC082210A9200007F03CF8864F08AB3F
:103520009C46674408222100380007F033F8834B9B
:103530009846BB600C223900200007F02BF8804B26
:1035400008AA9446634407CC07C341467C4B6344B6
:103550001868FDF787F9002856D0037A5B0653D028
:10356000744B9A46F3009E1B02235246B3540AAC96
:10357000082210A9200007F00DF8724B08AA944603
:103580006344984608222100180007F003F86B4BAB
:10359000994643464A469A600C224146200006F06E
:1035A000F9FF694B08AA94466344220083CA83C387
:1035B0004946654B63441868FDF754F9FEF78EFBE6
:1035C0005644F070082210A9200006F0E3FF5F4B7C
:1035D00008AA944663441A00210081C981C25C4A4A
:1035E00094469A60220083CB83C25A4B08AA904625
:1035F000434407CC07C36146564B43441868FDF764
:1036000031F9FEF76BFBB070534B08AA9446634444
:1036100014AE1E60514959600AAC220081CB81C2B0
:103620004F4B6344220081CA81C31AA8FDF71AF9DF
:103630004C4B08AA9446634418605E6006CB06C4EF
:10364000031E02D0027A920637D50E930F96002BF6
:1036500067D00AAC08220EA9200006F09BFF424B5F
:1036600008AA944663441A00210041C941C23F4957
:1036700099602200C1CBC1C2CA231B01634445CC5F
:1036800045C3CA231B0163441868FDF7EBF8002803
:1036900016D0027A7F231340043BDAB2082A0FD8EF
:1036A0009300334AD3589F46D0231B0640225A61C9
:1036B00040329A612F4804F0B1FB0023C5E705783A
:1036C0001C48EB005D1B03232B54451900236B7131
:1036D00001222A716B70284B9D44F0BCBB46B24658
:1036E000A946A046F0BD41680068FEF752FA050001
:1036F000E6E741680068FEF765FA0500E0E7006864
:103700000AAB00221A721900FCF7C4FE0AA8FEF7E1
:103710008DFA0500D4E741680068FEF777FA0500E6
:10372000CEE7D0231B0640225A6140329A611148ED
:1037300004F074FB6C210020281000008040011070
:10374000680C000058100000780C00004C100000BD
:103750008C400110880C00006C100000AC4001107F
:10376000940C00006410000074100000EC3F011085
:103770006C41011094400110A4100000F0B5DE4629
:1037800057464E464546E0B585B007F0BBF80320E6
:1037900002F0C2FCD02424060823A36200220121E7
:1037A000032002F0C1FB0F2002F0B6FC80231B02B5
:1037B000A362062002F0B0FC40236362A3610720ED
:1037C00002F0AAFC802363626361192002F0A4FC6A
:1037D00080239B04636263610AF092F91F211A201F
:1037E00002F08AFB002200211A2002F09DFB00213A
:1037F0001A2002F079FCC54B1B68E022D20113406D
:10380000C34A1360C34B012208210F2002F010FCB1
:10381000C14803F0C9FDC14807F036F8C04B042287
:103820001A60BA4B1B68DB05FBD5B84B5968090415
:10383000090CBC4807F05AF8B94B04221A60B34B84
:103840001B68DB05FBD5B14B58680004000C06F083
:103850001DF9B54AB54B06F0A8F802000B00B448B4
:1038600007F044F8FCF7BEFDFCF7D8FDFF21B14896
:1038700000F017FE00240F2C0DDCE6B2AE4D002246
:103880003100280000F070FE00223100280000F016
:103890009DFE0134EFE7FEF7B1FCA84B1A79A84D65
:1038A0002978A84807F022F8A74C200001F0BEFCB8
:1038B00009220821200001F06BFD2978200001F089
:1038C0000BF80821200001F097F8A049200001F032
:1038D000A9F81421200001F01BF99D49200001F0F6
:1038E000E9FB0521200001F059F90821200001F031
:1038F00051FC0121200000F0F7FF200001F09DF9AC
:10390000944B1B78944A127894490978944800782B
:103910000090944806F0EAFF00F0D9FC924B934ADD
:103920003F21934804F0E0F90132032A0CDC5300F4
:103930009B18DB008148C31818798E4B1B7898427E
:10394000F2D1D5B22100EFE78B4B1A787C4B1B7874
:103950009A4259D003F0C4FD02000B1E00DA47E280
:10396000864908684968121A8B4110001900FA222A
:103970009200002305F0CCFD04000A00804B186083
:103980005960804B1B78002B00D13CE272490878CB
:103990000021914200DC31E26B4801F073F9041E12
:1039A000D8D0794B9846002342461370714F3B7034
:1039B000764E04333370704D634B994600923B0052
:1039C00032002900484601F07BF933789A46434695
:1039D0001B7898463F78484600F080FF00903B00F7
:1039E000424651466A4806F081FF2978EA786B78AA
:1039F000A8780090674806F079FF3378042BA9D1A6
:103A000000220025002190E75B4B9B78002BA1D181
:103A100000299FD0604B1B78002B11D05F4B1B7887
:103A2000002B28D1544BDB78672B39D8412B91D30D
:103A3000413BDAB2262A8DD89300594AD3589F4683
:103A40003D4800F0DDFE002400E00134032C0BDCD7
:103A500063001B19DB00394A98580028F5D0036829
:103A6000DB6850499847F0E74B4B01221A704B4BEB
:103A700000221A70D2E7002400E00134032C0BDC92
:103A800063001B19DB002D4A98580028F5D0036805
:103A9000DB6844499847F0E7404B00221A70C1E7C1
:103AA000722B00D056E7344B5B78002B00D151E1EC
:103AB0006B005D19ED00214BE85803681B6802217B
:103AC0009847002357E12C4B5B78002B15D02E0034
:103AD0006B005B19DB00194A985803685B689847CC
:103AE000012861D073009E19F600144BF05803684A
:103AF0001B68002198470023A0E01E4B1878002384
:103B000001224721FCF7AAFCE1E7C04600C00440BF
:103B100000D00440550300108813000090410110AC
:103B200000E00440A4410110F25E92FC09EE823FE5
:103B3000B04101105C210020AC2100206015002064
:103B400045280020C4410110D421002000C0644455
:103B500020A10700ED070020F0070020EF0700205C
:103B6000F1070020D8410110184201103442011021
:103B70006C420110492800201C280020C815002094
:103B8000D015002051280020542800204F28002064
:103B9000B4420110DC420110EE0700204A28002048
:103BA0007443011000007F436B005D19ED00AA4BC8
:103BB0005D192B7C002B95D1A84B1B78FA22920023
:103BC0005A43904618237343A34FFF1803F0FCF9A0
:103BD000834603F085FC04000D1E22DBFA229200CE
:103BE00000234046002106F03FFB22002B00121864
:103BF0004B419D4202D804D1944202D90122524243
:103C0000D317002B13DB01240294019794490091F0
:103C1000584603F0EFF9182373438F4EF6183474A7
:103C200069E7904B904A3F21904804F05DF88D4B36
:103C30008D4A3F218D4804F057F80133072B11DCE2
:103C4000D900C91A8A4A52185278002AF5D10A00B6
:103C50008749525C032AF0D104325A438B18002260
:103C60001A715A71834B00221A7003F039FC002933
:103C700003DB814B186059606CE67A4B7A4A3F212E
:103C80007A4804F031F87D4B5B78002B27D02C006C
:103C90006B005B19DB00704A985803685B689847B3
:103CA000002811D06B005D19ED006B4BE8580368DC
:103CB0005B689847012807D0674AA85803685B6883
:103CC0009847042800D045E663001B19DB00624AD0
:103CD000985803681B6801219847002308E0684B47
:103CE0001878002301225221FCF7B8FBCFE70133FB
:103CF000072B11DCD900C91A5D4A52185278002AE4
:103D0000F5D10A005A49525C012AF0D106325A43D1
:103D10008B1800221A715A71564B00221A7003F048
:103D2000DFFB00290ADB544B1860596003F0D8FB15
:103D3000002909DB484B9860D9600BE6494B4A4A99
:103D40003F214A4803F0D0FF464B474A3F214748AE
:103D500003F0CAFF4A4B1878002301224121FCF7E7
:103D60007DFBA5E6D800C01A41490918002008715A
:103D700048710FE00133072B1CDCD900C91A3C4AFB
:103D800052185278002A05D1D900C91A3848095C5E
:103D90000329E7D0002AEDD1DA00D21A3449525C67
:103DA000012AE7D1D900C91A314A521800211171EC
:103DB0005171DFE72F4B00221A7003F091FB0029AD
:103DC0000ADB2D4B1860596003F08AFB002909DBE0
:103DD000214B9860D960BDE5224B234A3F212348FF
:103DE00003F082FF1F4B204A3F21204803F07CFF55
:103DF0001C4B1D4A3F211D4803F076FF914202D122
:103E0000A04200D9C8E50A2B13D90023072B08DCF0
:103E1000D900C91A164A5218002111715171013383
:103E2000F4E7144B00221A70164800F04CFB0024F3
:103E30006AE0002300E00133072BF5DCD900C91A42
:103E40000B4A52185279002AF5D0D900C91A084AEB
:103E5000521800215171EEE760150020EC07002098
:103E60002903001018420110344201106C42011065
:103E70006C21002051280020581500201C2800200B
:103E8000492800205C210020E1B20022D54800F042
:103E900036FB00282FD1E200121BD34B9B189B79D5
:103EA000002B28D1E200121BCF4B9B185A785300ED
:103EB0009B18DB00CD4A985803685B689847002838
:103EC0000ED0E200121BC84B9B185A7853009B1867
:103ED000DB00C64A985803685B68984704280AD1F3
:103EE000E200121BC04B9B1801221A719A71C04B41
:103EF0001B78002B20D0E200121BBB4B9B189B7938
:103F0000002B00D0B9E00134072C00DDC4E0E30051
:103F10001B1BB54A9B5C012BB6D0032B40D0042B56
:103F2000E9D1E1B20022AF4800F0E9FAE200121B49
:103F3000AD4B9B181871DEE7D0231B06802292043C
:103F40009A6103F041F8050003F0CAFA06000F1E5B
:103F50001ADB0100A74A002392197B419F4202D835
:103F600004D1914202D901225242D317002B11DB16
:103F700001260296002101919F490091280003F03B
:103F800039F89B4B1E70B6E79C4B9D4A3F219D48DC
:103F900003F0AAFE994B9A4A3F219A4803F0A4FEE7
:103FA000E1B200228F4800F0AAFA0028A3D1E20073
:103FB000121B8D4B9B189B79002B9CD1E200121B8E
:103FC000894B9B185A7853009B18DB00874A9858F6
:103FD00003685B68984701280FD0E200121B824BF0
:103FE0009B185A7853009B18DB00804A9858036846
:103FF0005B689847022800D07DE7E200121B7A4BED
:104000009B1801221A719A71794B1B78002B00D0F2
:1040100071E7D0231B06802292049A6102F0D4FF3C
:10402000050003F05DFA06000F1E1ADB0100714A5D
:10403000002392197B419F4202D804D1914202D9B8
:1040400001225242D317002B11DB012602960021D8
:10405000019169490091280002F0CCFF644B1E7069
:1040600049E7664B664A3F21664803F03DFE634BD5
:10407000634A3F21634803F037FEE1B2002259480A
:1040800000F03DFA002800D13DE7E200121B564B3C
:104090009B1800229A7136E7FF21524800F001FA7E
:1040A00000244BE0E200121B4F4B9B181B79002BA6
:1040B00043D0E200121B4C4B9B185B79002B3CD188
:1040C000E200121B484B9B185A7853009B18DB00E8
:1040D000464A985803685B689847042861D0E30013
:1040E0001B1B414A9B5C022B09D1E3001B1BD3180D
:1040F000D978CB005B1AD2181379002B60D1E2007B
:10410000121B394B9B185A7853009B18DB00374A17
:10411000D3181879002300225221FCF79FF93A4A5C
:10412000137801331370E200121B2F4B9B180122EE
:104130005A715978354806F0D9FB0134072C69DCEF
:10414000E3001B1B284A9A5C531EDBB2012BA9D942
:10415000032AF2D1E200121B234B9B181B79002B80
:10416000EBD0E200121B204B9B185B79002BE4D1B3
:104170001D4DAD186A7853009B18DB001B4AD318FD
:104180001879002300224721FCF768F91E4A1378AA
:104190000133137001236B7169781D4806F0A6FB8B
:1041A000CBE7E200121B104B9B185A7853009B1868
:1041B000DB000E4A985803681B68002198478EE779
:1041C000E200121B084B9B189A7853009B18DB00E7
:1041D000064AD3181879002300225221FCF73EF931
:1041E0009DE7C0465C2100206C2100206015002066
:1041F0004628002050C300000D0300101842011093
:10420000344201106C420110512800200443011077
:1042100018430110002416E07F4B804A3F2180485C
:1042200003F062FD0133072B0CDCDA00D21A7D4962
:10423000525C032AF6D1D900C91A7A4A52180121D0
:104240001171EFE70134032C39DC63001B19DB002B
:10425000754A98580028F5D003685B68984702288B
:10426000F0D163001B19DB006F4AD3189B79002B38
:10427000E8D003F035F902000B1ECDDB610009190F
:10428000C900694D6D18A868E968121A8B411000C1
:104290001900664A002305F03BF906000A00644B4A
:1042A00018605960A97900239342CBDC01D1B14257
:1042B000C8D821005F4806F019FB0023B3E75E4B26
:1042C0001B78002B0ED15D4B1B78002B5AD103F0CD
:1042D00007F9002901DAFFF721FB594B18605960F3
:1042E000FFF75AFB03F0FCF802000B1E21DB5549D7
:1042F00008684968121A8B41100019004B4A0023C4
:1043000005F006F904000A00494B186059604A4B51
:10431000197800239342D6DC01D1A142D3D84A4B6D
:104320001B78002BCFD0494B1B78002BCBD100241E
:1043300006E0394B394A3F21394803F0D5FC0134B6
:10434000032C1BDC63001B19DB00374A9B58002B36
:10435000F5D021003E4806F0C9FA334A6300191926
:10436000C9008D582968CE681B19DB00D31858790D
:1043700006F003F8011C2800B047E0E7334B0122A8
:104380001A70A0E703F0ACF802000B1E1EDB2D49EB
:1043900008684968121A8B4110001900234A00234B
:1043A00005F0B6F804000A00214B18605960234B51
:1043B0001978002393428ADC01D1A14287D8224B8D
:1043C0001B78002B00D182E7002406E0124B134A31
:1043D0003F21134803F088FC0134032C14DC6300F4
:1043E0001B19DB00104A9B58002BF5D021001948FF
:1043F00006F07CFA63001B19DB000B4A985803682F
:104400001B6804219847E7E7134800F0BFF90E4BFB
:1044100000221A705BE7C0461842011034420110B6
:104420006C4201106C21002060150020008793036E
:10443000D01500202C430110ED070020F1070020CB
:10444000C815002058150020EE0700204A2800203B
:10445000484301105C430110AC21002010B5024913
:104460000120FBF787FF10BDFFFF000030B50500FE
:104470000C00002000210DE08C4201D185420BD8B8
:1044800030BDC0460133DBB2182BFAD9012200231C
:10449000801859418C42EFD90023F5E74160027042
:1044A000704700B585B00F226A44117001784068EA
:1044B00000230093013309F08DFA05200021FFF756
:1044C000D5FF05B000BD10B582B00400421C0178D4
:1044D000002300930133406809F088FA002306E0C6
:1044E0006178194101220A40E1180A720133072B51
:1044F000F6DD05200021FFF7B9FF02B010BD70B551
:1045000004000D00002A02D16419207A70BDFFF763
:10451000DAFFF9E730B505000C00002000210DE0BE
:104520008C4201D185420BD830BDC0460133DBB28D
:10453000182BFAD901220023801859418C42EFD957
:104540000023F5E770B50500002406E0FA2080009E
:104550000021FFF7DFFF0134A4B2AC42F6D370BDF7
:104560000160027183607047F0B585B004000D00F2
:10457000161C8768111C381C05F0E4FE002800D1C9
:10458000371C18356B461D73381C05F025FF0022BB
:104590000C4B05F0ECF900220B4B05F006FA05F088
:1045A000B1FA6B46587321792068002300930233D7
:1045B00003AA09F00FFA0A200021FFF7ABFF05B0AC
:1045C000F0BDC04600B04C4000E06F40F0B5C646BC
:1045D00000B584B004000E0017008B08991C03225C
:1045E000324055000322AA40C0188446007B904305
:1045F00040B262461073F72F2AD90122AA40150053
:1046000062462843107303AD2970E3181B7B6B705F
:10461000217900239846009302332A00206809F08C
:10462000D9F90A200021FFF775FF08362E706F7048
:10463000217920684346009302332A0009F0CAF921
:104640000A200021FFF766FF04B080BCB846F0BD29
:10465000082FD8D90222AA401500E2182843107367
:10466000D1E74018007C704700B585B001236A4649
:1046700013730F33537301790068002300930233DF
:1046800003AA09F0A7F90A200021FFF743FF05B0AC
:1046900000BD0000F0B585B00500FFF7E5FF012083
:1046A000FFF750FF01236A4613732979009303AA89
:1046B000286809F08FF9297900230093013303AAB0
:1046C000286809F093F90A200021FFF723FF6B46C1
:1046D0001B7B5BB2002B26DB002703AB1B785B0642
:1046E0004AD500240026032C22DC230046336A46E8
:1046F000137329790123009303AA286809F06AF942
:10470000297900230093013303AA286809F06EF980
:104710006B461B7BE20093401E430A200021FFF7FB
:10472000F9FE0134DFE7164806F0AEF80127D4E7BA
:10473000002408E02B1902221A742100114806F007
:10474000D5F8012701340F2C16DC63003200DA4063
:10475000130003221340012BECD0022B03D02B19A2
:1047600000221A74EEE72B1901221A742100064860
:1047700006F0BCF80127E5E7380005B0F0BDC046FB
:10478000FC440110104501103045011070B584B093
:1047900005001A4806F078F8002406E000222100FF
:1047A0002800FFF713FF0134E4B20F2CF6D903AC55
:1047B000002626702979012300932200286809F039
:1047C00009F92979009601230D226A44286809F025
:1047D0000DF905200021FFF79DFE63781022134399
:1047E00063702979286800960223220009F0F2F804
:1047F00005200021FFF78EFE04B070BD504501106A
:1048000070B584B00400154806F03EF803AD0026EC
:104810002E702179012300932A00206809F0DAF82C
:104820002179009601230D226A44206809F0DEF800
:1048300005200021FFF76EFE6B78102293436B700A
:1048400021792068009602232A0009F0C3F8FA2093
:1048500040000021FFF75EFE04B070BD644501100A
:1048600030B505000C00002000210DE08C4201D184
:1048700085420BD830BDC0460133DBB2182BFAD9C4
:1048800001220023801859418C42EFD90023F5E71B
:1048900070B50500002406E0FA2080000021FFF733
:1048A000DFFF0134A4B2AC42F6D370BD10B502AC48
:1048B0002478416002724372C47200238372FF2223
:1048C00003494254034942540370437010BDC0462B
:1048D0001504000016040000C1727047014BC05C53
:1048E00040B27047120400000173704710B5040015
:1048F00001200021FFF7B4FF227A01239340D02248
:104900001206936101200021FFF7AAFF10BD10B528
:10491000040001200021FFF7A3FF227A0123934026
:10492000D0221206536101200021FFF799FF10BD2C
:1049300070B582B0060001AC812323707A3B6370AE
:10494000FFF7D4FF0222210070680EF0EDFA30006C
:10495000FFF7DDFFC0232370403B63703000FFF79B
:10496000C5FF0222210070680EF0DEFA3000FFF76A
:10497000CEFF0523B37202F0B3FD04000D1E02DB6F
:10498000002200230FE0164B164A3F21164803F081
:10499000ABF90120FFF77CFF02F0A2FD02000B1E25
:1049A00012DB121BAB41B17A052905D1002B03DCC8
:1049B000EFD10E498A42ECD9B17A05290AD00C4BC5
:1049C000F05CC0B202B070BD054B064A3F210648FC
:1049D00003F08AF9074805F089FF0120F2E7C04695
:1049E00018420110344201106C4201103F420F0086
:1049F000140400007445011030B583B0040001AD0B
:104A0000A0232B700B0A6B70A970FFF76FFF0322B6
:104A1000290060680EF088FA2000FFF778FF03B0E5
:104A200030BD0000F0B5C64600B582B004000D1CD4
:104A30003249281C05F094FC002857D03049281C26
:104A400005F086FC002801D1002050E0281C05F06C
:104A5000C3FC00222B4B04F0A8FF00222A4B04F0D9
:104A600086FF05F04FF8070CFFB2030ADBB2984649
:104A7000C5B201AE8623337077704346B370F570CC
:104A80002000FFF733FF0422310060680EF04CFA7B
:104A90002000FFF73CFF0A2002F086FC06236A464E
:104AA00013702000FFF722FF0122694660680EF0B4
:104AB0003BFA03236A460132002160680EF0FCF9DC
:104AC0002000FFF724FF6B465978B94206D19B7846
:104AD000434503D16B46DB78AB420CD06B469A78EA
:104AE000DB780A4805F002FF002000E0002002B059
:104AF00080BCB846F0BD0120F9E7C04600806144A3
:104B00000000684480842E4180844E40904501100E
:104B100030B583B005000C00142903D8012902D850
:104B2000022402E01424112C25D8CD236A461371E7
:104B3000C93B53712800FFF7D9FE022201A968681A
:104B40000EF0F2F92800FFF7E2FE89236A4613719E
:104B5000023C64B2802149420C4354712800FFF7A3
:104B6000C5FE022201A968680EF0DEF92800FFF7F1
:104B7000CEFE03B030BDCD236A461371C63B5371E0
:104B80002800FFF7B3FE022201A968680EF0CCF9F5
:104B90002800FFF7BCFE033CE4B2D6E770B582B054
:104BA0000400062904D007292DD02ED8022600E0C3
:104BB000042601AD1D232B702000FFF797FE012274
:104BC000290060680EF0B0F901236A4605323321EE
:104BD00060680EF071F92000FFF799FE9D232B709D
:104BE0000123EB560E22934333436B702000FFF7F3
:104BF0007DFE0222290060680EF096F92000FFF782
:104C000086FE02B070BD0626D3E70826D1E710B5B0
:104C100082B0040081236A461371803B5371FFF711
:104C200065FE022201A960680EF07EF92000FFF700
:104C30006EFE0223A37202B010BD30B583B0040033
:104C400001AD81232B707C3B6B70FFF74FFE02227E
:104C5000290060680EF068F92000FFF758FEC023B5
:104C60002B7000236B702000FFF740FE022229000A
:104C700060680EF059F92000FFF749FE0423A37283
:104C800003B030BD10B50400837A042B02D0837AC0
:104C9000032B09D18223DB00E05C084BE35CC01AE4
:104CA000431E9841C0B210BDFFF7B1FF0A2002F0C9
:104CB0007BFB2000FFF7C1FFECE7C04611040000BA
:104CC000F0B587B004000F0015000593FFF7DAFF79
:104CD000002846D0002F3CD0002D3AD02A78394BFE
:104CE000E35CE31838498C4663441B78043B9A42E2
:104CF0002FDB344BE35CE31863441B78033B9A429D
:104D000006DB304BE35CE31863441B78043B2B70F9
:104D10002C4EA35D1902C91A103161182A7804318A
:104D2000380005F037FCA35DE318274A9446634436
:104D300000221A70A37B059A1370637B0C9A137080
:104D4000A35DDBB2022B0ED8A35D0133DBB21D4A9B
:104D5000A3542000FFF796FF002802D12378002BF0
:104D600003D007B0F0BD0023F1E702F02DF90500F4
:104D700002F0B6FB06000F1E18DB0100134A0023E9
:104D800092197B419F4202D804D1914202D901225B
:104D90005242D317002B0FDB0126029601940C49D7
:104DA0000091280002F026F92670DAE7094B0A4A3A
:104DB0003F210A4802F098FF064B074A3F21074867
:104DC00002F092FF110400000C04000060EA0000F1
:104DD000B556001018420110344201106C42011007
:104DE00070B582B0040001AD81232B7003266E7074
:104DF000FFF77CFD0222290060680EF095F8200084
:104E0000FFF785FDC0232B70803B6B702000FFF700
:104E10006DFD0222290060680EF086F82000FFF781
:104E200076FDA67202B070BD30B583B0040001AD4E
:104E300081232B70013B6B70FFF758FD0222290084
:104E400060680EF071F82000FFF761FD0A20FFF79F
:104E50001FFD01232B702000FFF748FD01222900D0
:104E600060680EF061F801236A460532DD21606852
:104E70000EF022F82000FFF74AFD6978802903D15F
:104E80000123A37203B030BD014805F02FFDF7E701
:104E9000CC45011070B582B004000D0001AE1E2398
:104EA0003370FFF723FD0122310060680EF03CF8FB
:104EB00001236A460532002160680DF0FDFF2000E5
:104EC000FFF725FD002D13D0737804210B43737079
:104ED00001AD9E232B702000FFF708FD0222290060
:104EE00060680EF021F82000FFF711FD02B070BDE0
:104EF00001AA537804218B435370E9E730B583B09E
:104F0000040015007F230B406A461371662353711A
:104F1000FFF7ECFC012201A960680EF005F80123FF
:104F20006A460132662160680DF0C6FF2000FFF777
:104F3000EEFC6B465B782B7003B030BD10B582B0D1
:104F400001AC22000121FFF7D9FF2178024805F0CA
:104F5000CDFC02B010BDC046E8450110F0B5C64614
:104F600000B58CB004000BAD1D232B70FFF7BEFC09
:104F70000122290060680DF0D7FF01232D226A4429
:104F8000EE2160680DF098FF2000FFF7C0FC6E78FE
:104F9000330998461E232B702000FFF7A7FC01223F
:104FA000290060680DF0C0FF01232D226A44012111
:104FB00060680DF081FF2000FFF7A9FC6878030905
:104FC0009C4601A9394B0A00C1CBC1C2C1CBC1C2A9
:104FD000C1CBC1C21B68136043469E0073589846FC
:104FE000022360465840C0B204F050FD0022304B0E
:104FF00004F0DBFC06000F00404605F0EDF902006E
:105000000B003000390004F0B2FC04F093FD061CE4
:1050100026232B702000FFF769FC0122290060681D
:105020000DF082FF01232D226A44022160680DF0F9
:1050300043FF2000FFF76BFC6D7808239D4383211D
:10504000C905301C05F094F9002819D0A6236A463A
:105050002C215218137008231D436B462D229B18D8
:105060001D702000FFF742FC02220BA960680DF0C2
:105070005BFF2000FFF74BFC0CB080BCB846F0BDD6
:10508000A6236A462C21521813706B462D229B18BA
:105090001D702000FFF72AFC02220BA960680DF0AA
:1050A00043FF2000FFF733FCE6E7C046144601103B
:1050B00000408F4070B582B004002D4B994219DD3D
:1050C0002C4B994244DD2C4B994243DD2B4B9942AA
:1050D00042DD2B4B994241DD2A4B994240DD2A4B60
:1050E00099423FDD294B99423EDD294B99423DDCF7
:1050F000802600E0002601AD1D232B702000FFF765
:10510000F5FB0122290060680DF00EFF01236A46BD
:105110000532442160680DF0CFFE2000FFF7F7FB59
:105120009D232B700122AA568E3B134033436B7094
:105130002000FFF7DBFB0222290060680DF0F4FE7F
:105140002000FFF7E4FB2000FFF708FF02B070BD6E
:105150001026D0E72026CEE73026CCE74026CAE747
:105160005026C8E76026C6E77026C4E79026C2E747
:10517000781E0000A0280000F03C00004051000014
:10518000127A0000E4A2000024F4000048E80100C4
:1051900090D0030070B582B004000D0006290CD930
:1051A000072938D0082938D0092938D00A2938D019
:1051B0000B2938D002D9C02500E0602501AE1E239E
:1051C00033702000FFF792FB0122310060680DF080
:1051D000ABFE01236A460532222160680DF06CFEA9
:1051E0002000FFF794FB9E2333700123F3560F2119
:1051F00019400D4375702000FFF778FB0222310043
:1052000060680DF091FE2000FFF781FB2000FFF7A2
:10521000A5FE02B070BD7025D0E78025CEE79025B1
:10522000CCE7A025CAE7B025C8E7000070B582B07A
:10523000040000238222D20083544F4A83544F4AF1
:1052400083544F4A8354012606734E49406808F040
:1052500023FC607A00F060FF207A00F05DFF637A43
:1052600032009A40D0231B069A62227A3100914084
:1052700059622000FFF74BFB01AD81232B70013BEE
:105280006B702000FFF732FB0222290060680DF0EE
:105290004BFE2000FFF73BFB0A2002F085F82E7042
:1052A0002000FFF723FB0122290060680DF03CFE7F
:1052B00001236A460532DD2160680DF0FDFD200006
:1052C000FFF725FB6978802905D02F4805F00EFBF4
:1052D000002002B070BD01AD8E232B7000236B70D7
:1052E000AB702000FFF702FB0322290060680DF07D
:1052F0001BFE2000FFF70BFB8C232B706C3B6B70AD
:105300002000FFF7F3FA0222290060680DF00CFE7E
:105310002000FFF7FCFA92232B706D336B70200096
:10532000FFF7E4FA0222290060680DF0FDFD20007D
:10533000FFF7EDFA7D212000FFF7BCFE05212000DC
:10534000FFF72CFC07212000FFF724FF0821200095
:10535000FFF752FB0D492000FFF764FB0D212000F1
:10536000FFF7D6FB01212000FFF794FD2000FFF797
:105370004EFC0120ADE7C0461104000012040000FD
:105380001304000020A10700CC45011000C06444B4
:10539000F0B5C64600B50400134B9846C154134FF0
:1053A000C255C05CC0B200F0B7FE4346E35CDBB25E
:1053B00001252A009A40D026360672624346E35CF5
:1053C000DBB22A009A407261E05DC0B200F0A4FE38
:1053D000E35DDBB22A009A407262E35DDBB29D407E
:1053E000756180BCB846F0BD1504000016040000CD
:1053F000064BC35CDBB2FF2B07D0044BC25CD2B2BE
:1054000001239340D02212069361704716040000D6
:10541000F0B589B00700049105921E0002F060F813
:1054200000291FDB04000D003800FFF7E1FFBB7A05
:10543000022B23D0BB7A042B20D002F051F80200BB
:105440000B1E15DB121BAB41002B03DCEFD1734BA2
:105450009A42ECD9724805F017FA7B78002B40D0BD
:105460000020D9E06F4B704A3F21704802F03CFCAD
:105470006C4B6D4A3F216D4802F036FC3800FFF757
:10548000C6FB02F02DF8002925DB04000D003800D2
:10549000FFF74EFA002800D183E002F021F8020065
:1054A0000B1E4BDB121BAB41002B03DCEFD1604B1F
:1054B0009A42ECD93800FFF741FD0120FFF7E8F9E7
:1054C0005C4805F0E1F93800FFF7AEFC7B78002B73
:1054D0003AD00020A0E0534B534A3F21534802F0FA
:1054E00003FC01F071FD060001F0FAFF04000D1E3F
:1054F00018DB0100504A002312196B419D4202D86B
:1055000004D1914202D901225242D317002B0FDB62
:1055100001240294019749490091300001F06AFD8D
:105520007C709DE73F4B404A3F21404802F0DCFB46
:105530003C4B3D4A3F213D4802F0D6FB394B3A4AAD
:105540003F213A4802F0D0FB01F03EFD060001F099
:10555000C7FF04000D1E18DB0100374A0023121993
:105560006B419D4202D804D1914202D9012252429C
:10557000D317002B0FDB0124029401972F490091D0
:10558000300001F037FD7C70A3E7264B264A3F210F
:10559000264802F0A9FB234B234A3F21234802F06F
:1055A000A3FB06AC8D232370002565703800FFF740
:1055B0009DF90222210078680DF0B6FC3800FFF753
:1055C000A6F980232370049B6370FB7AA370E570B7
:1055D00025713800FFF78AF90522210078680DF05F
:1055E000A3FC3200059978680DF09EFC3800FFF7A7
:1055F0008EF9A2232370043666703800FFF776F91F
:105600000222210078680DF08FFC3800FFF77FF947
:105610003800FFF7E5FB012009B0F0BD40420F0064
:10562000FC45011018420110344201106C42011077
:105630008096980008460110204E00008156001008
:10564000064BC35CDBB2FF2B07D0044BC25CD2B26B
:1056500001239340D0221206936170471504000085
:10566000064BC35CDBB2FF2B07D0044BC25CD2B24B
:1056700001239340D02212065361704716040000A4
:1056800010B50C000800FFF7EBFF0023637000204B
:10569000002110BD064BC35CDBB2FF2B07D0044BCF
:1056A000C25CD2B201239340D022120653617047EC
:1056B0001504000010B50C000800FFF7EBFF0023F5
:1056C00023700020002110BDF0B587B0040005ADA7
:1056D00012232B70FFF70AF90122290060680DF0F0
:1056E00023FC012315226A44772160680DF0E4FB56
:1056F0002000FFF70CF96E781C232B702000FFF7B9
:10570000F5F80122290060680DF00EFC0123152236
:105710006A44882160680DF0CFFB2000FFF7F7F89E
:105720006F782A0001212000FFF7E8FBA37A042B01
:105730001CD0A37A042B29D0A37A032B00D12AE111
:10574000A37A052B00D15DE192236A4613756D3370
:1057500053752000FFF7CAF8022205A960680DF012
:10576000E3FB2000FFF7D3F807B0F0BD5B33320056
:105770009A4301D17B06DCD48223DB00E35CE3188F
:10578000A64A9446634400221A70DDE77306D3D517
:105790002000FFF755FF05AD13232B702000FFF706
:1057A000A5F80122290060680DF0BEFB0123152237
:1057B0006A44992160680DF07FFB2000FFF7A7F88D
:1057C0006A788226F600A35DE31894498C46634408
:1057D0001A7010232B702000FFF788F8012229008F
:1057E00060680DF0A1FB012315226A44AA216068BC
:1057F0000DF062FB2000FFF78AF88D232B7020004C
:10580000FFF774F80222290060680DF08DFB20007C
:10581000FFF77DF800232B70A35DE3187F4A9446C1
:1058200063441F78FFB22000FFF760F801222900CF
:1058300060680DF079FB00257E1EF6B2002F14D0B3
:10584000012315226A44002160680DF035FB05AB89
:1058500059788223DB00E25C13029B1AE3185B1980
:1058600019740135EDB23700E6E72000FFF74FF875
:1058700005AD19232B702000FFF738F8012229000D
:1058800060680DF051FB012315226A44BB2160685A
:105890000DF012FB2000FFF73AF86B789B08604E82
:1058A000A3551A232B702000FFF720F801222900AE
:1058B00060680DF039FB012315226A44CC21606831
:1058C0000DF0FAFA2000FFF722F80122AA56554BF4
:1058D000E254A35D5BB2002B50DB524D605D40B2E1
:1058E00000010F2103F0C6FD40B260554D4AA35C94
:1058F0005BB263335BB2A3548223DB00E35CE31847
:10590000464A944663441B78DBB2032B25D9043204
:10591000A15C0B025B1AE3181B7CDBB26373A25C15
:1059200013029B1AE3185B7CDBB2A373637BDBB2CD
:10593000E27A934203D0637BDBB2FF2B27D1822331
:10594000DB00E35CDBB2022B04D88223DB00E75CE4
:105950000137FFB28223DB00E75490236A461375B8
:10596000002353752000FEF7C1FF022205A96068DD
:105970000DF0DAFA2000FEF7CAFFE5E6A15D49B2B4
:105980002848235C5BB25B185BB22354AEE720006F
:10599000FFF780FEE1E7330700D4D1E66378002B00
:1059A00003D02000FFF749F9CEE601F00DFB05001A
:1059B00001F096FD06000F1E18DB01001A4A0023B5
:1059C00092197B419F4202D804D1914202D901220F
:1059D0005242D317002B0FDB012602960194134984
:1059E0000091280001F006FB6670DAE7104B114ABF
:1059F0003F21114802F078F90D4B0E4A3F210E4825
:105A000002F072F9730700D49EE601231E400B4B8F
:105A1000E6542000FFF7FBF896E6C0460C040000B1
:105A20001304000012040000204E000081560010F4
:105A300018420110344201106C420110140400009D
:105A40000120704700207047002070477047007A9F
:105A50007047000010B50400081C054904F02BFC39
:105A6000206123681B68217A2000984710BDC0463A
:105A700000007F4370B5040001293ED0022965D0A3
:105A8000002912D0417A00224068FEF79FFDA17ADA
:105A900000226068FEF79AFDE17A00226068FEF756
:105AA00095FD04232372012026E0007B256904F084
:105AB00069FC291C04F015FC04F086FCC2B2072A1C
:105AC00000D80822617A6068FEF780FDA17A002282
:105AD0006068FEF77BFDE17A00226068FEF776FDE4
