:020000041000EA
:1000000000B5324B212058609868022188439860DF
:10001000D860186158612E4B002199600221596106
:100020000121F02299502B49196001219960352056
:1000300000F044F80222904214D00621196600F024
:1000400034F8196E01211966002018661A6600F04E
:100050002CF8196E196E196E052000F02FF8012189
:100060000842F9D1002199601B49196000215960AB
:100070001A491B48016001219960EB211966A021F2
:10008000196600F012F800219960164914480160C1
:100090000121996001BC002800D000471248134993
:1000A000086003C880F30888084703B5996A0420EC
:1000B0000142FBD001200142F8D103BD02B5186610
:1000C0001866FFF7F2FF186E186E02BD00000240BE
:1000D000000000180000070000035F00212200005C
:1000E000F4000018222000A00001001008ED00E03C
:1000F00000000000000000000000000074B24E7A12
:1001000000200420F7010010C3010010C5010010F9
:10011000C1010010C1010010C1010010C101001097
:10012000C1010010C1010010C1010010C701001081
:10013000C1010010C1010010C9010010CB01001065
:10014000CD010010CD010010CD010010CD01001037
:10015000CD010010CD010010CD010010CD01001027
:10016000CD010010CD010010CD010010CD01001017
:10017000CD010010CD010010CD010010CD01001007
:10018000CD010010CD010010CD010010CD010010F7
:10019000CD010010CD010010CD010010CD010010E7
:1001A000CD010010CD010010CD010010CD010010D7
:1001B000CD010010CD010010CD010010CD010010C7
:1001C00000BE00BE00BE00BE00BE00BE00F04BF888
:1001D000103800BEF2EB8871ECA0011020A10110D4
:1001E0003402001090A31AE700202149086006C8D5
:1001F00081F3088810471F48006800282FD10DA4FC
:100200000ECC002902D000F012F8F9E71A491B4A77
:10021000002000E001C19142FCD1194988471949E9
:1002200088471949884700BEFDE701C901C29A42C3
:10023000FBD3704720A10110C000002060140020F3
:10024000C0B401100000042000000420C0B401105C
:1002500000100420001004200000000070470B482C
:100260000BF0F8F80047EFF30580C0B270470000CC
:1002700008ED00E0000000D060140020F428002009
:100280005D9D0010154D0010199D0010575600007F
:1002900006005250ABB360532C820110060052503E
:1002A000861C03023C820110060052505422A29D7B
:1002B0004882011005005250DE65F468C0B4011098
:1002C000F8B5C04610B5064C2378002B07D1054B76
:1002D000002B02D0044800E000BF0123237010BDB2
:1002E000A016002000000000C8560110044B10B5F5
:1002F000002B03D00349044800E000BF10BDC046F6
:1003000000000000A4160020C856011010B50C1EF5
:1003100010D0086803685B689847022807D02068F7
:1003200003681B6800219847044B01221A702023A0
:100330000022E2540020002110BDC046E328002026
:100340007047704770B504000D000F2804D02900D5
:10035000200007F037FE70BD014807F0A3F9F6E76B
:100360007022002010B582B0012801D002B010BD6B
:10037000114B9942FAD10721104B06E000221A7165
:100380005A719A71DA71103301390029F6DA0C4C7E
:10039000202221000B4805F09FFE0B4B012221007B
:1003A0000A4805F0C4FF002300930F3311220849C7
:1003B000084806F057FAD9E7FFFF000008160020AA
:1003C000D40B00202422002000806542442200201B
:1003D00000C003407022002010B5040009F09CF812
:1003E000002903DB20606160200010BD024B034A3E
:1003F0003F21034809F094FCC8560110E45601104F
:100400001C57011010B50B490B480FF0EBFA0321F4
:10041000042007F071FD0321052007F06DFD002287
:100420000121042007F080FD00220121052007F0B2
:100430007BFD10BD40420F00D40B002010B50D4CC9
:100440000D4920000FF09AFB0121102007F054FD08
:100450000121122007F050FD0121132007F04CFD6F
:10046000236807225A40CF231340802040012043B5
:10047000036010BD00C00340404B4C0010B5140099
:10048000114A1070D170547093700423FF210F48EB
:1004900006F09AFF002809D1D0231B0640225A619A
:1004A00040329A610A4B7F3A1A7010BD084B1B7894
:1004B000002BFAD0D0231B0640229A6140325A61A9
:1004C000034B00221A70F0E7B828002070220020A9
:1004D000EE28002070B5002500E0013583001B18D0
:1004E000DB001E4CE3181E79AE420EDD83001B18A4
:1004F000DC001A4B1B195B195B798B42EDD1174B52
:100500001B195B190124DC72E7E70024002500E0D9
:100510000134A6420ADD83001B18D9000F4B5B187B
:100520001B19DB7A002BF3D10125F1E7002D13D144
:10053000002300E00133072B0EDC1C0108490919D8
:1005400049788142F6D12100054C095D9142F1D1F3
:100550001B01E31801225A7170BDC04668150020C6
:100560000816002070470000F0B5DE4657464E469C
:100570004546E0B587B080468946011E09D001781E
:100580002B290CD02D2910D12C398C46E0448A46D9
:100590000DE0C64BC64A1A31C64809F0C1FB01211D
:1005A0008C46E04400218A4601E000218A4641460B
:1005B000087801003039C9B2092905D92E2800D0A0
:1005C00088E10024002501E0002400254146097847
:1005D0008B463039C9B28C46092924D8B6498D4298
:1005E00021D81DD0A10FAB000B43A2002000290091
:1005F00080185941001849410090019104000D00F4
:1006000066460027F1438C46691C18D00098019972
:100610008019794104000D0001218C46E044D5E7A2
:10062000A6498C42DED9594600292ED15346002BCB
:100630001CD080231B069D4204D9002626E0644579
:10064000E4D9F0E79D4201D1002CF6D100236242AB
:10065000AB414946097A7F208143484601720A200E
:100660000143484601720260436035E14B461B7A04
:100670007F2293434A461372082213434A46137259
:100680001460556001239A4626E1002680235B030F
:100690009D420AD30A220023200029000AF070FF9D
:1006A00004000D00013636B2F0E741460A78130027
:1006B000303BDBB2092B03D8013636B20131F5E706
:1006C00088462E2A0FD043461B78652B35D0452B04
:1006D00033D00023F61843461F78002F00D18FE057
:1006E00000239A46F8E001239C46E044B446424683
:1006F00013E0A70FA9003943A00024184D41241985
:100700006D41029300230393029E039FA4197D4130
:100710006646013E33B29C4601321378303BDBB271
:10072000092B07D8664FBD42F6D8E2D1654FBC42CF
:10073000F2D8DEE766469046C5E74346581C5B782C
:100740002D2B04D02B2B05D0002700232AE00130CD
:100750000127FAE7404602300027F6E70020002193
:1007600038E05346002B17D000205749FFF7FAFE18
:1007700080231B069C4661444B461B7A7F22934391
:100780004A4613720C2213434A46137202000B00AE
:1007900049460A604B6029E000204B49FFF7E2FE22
:1007A000EAE70130027811003039C9B2092920D8AE
:1007B0009900CB185B00303A9B18F1189A2252002E
:1007C0009142EEDD002FCCD05346002BC6D0002046
:1007D000802109064B461B7A7F2293434A461372B7
:1007E0000C2213434A4613721060516001239A464B
:1007F00072E0002F02D05B4280466BE7804669E7DB
:10080000200029000BF0A6F905000C00002E04DCE6
:1008100076421BE076100137FFB2002E2CD0F30792
:10082000F8D57B00294AF900895801339B00985874
:10083000FFF798FE02000B00280021000BF0D1F812
:1008400005000C00E6E776100137FFB2002E13D04A
:10085000F307F8D57B001E4AF900895801339B0045
:100860009858FFF77FFE02000B00280021000BF0D4
:10087000B8F805000C00E6E75346002B03D08023B0
:100880001B069C4664444B461B7A7F2293434A4690
:1008900013720C2213434A4613722A00230049465E
:1008A0000A604B6001239A4616E0C0466457011067
:1008B0006C570110C05701109999991999999999F4
:1008C00099990100989999990000F07F3C70011066
:1008D000F46F011000239A46504607B0F0BCBB46A7
:1008E000B246A946A046F0BD0160704782B0F0B59F
:1008F00083B00993002912D06B4609AC1D00C0CC0F
:10090000C0C5040060CB60C400230372C26043749E
:100910008374416103B0F0BC08BC02B01847034BBC
:10092000034A1431034809F0FBF9C046205801106E
:100930002C5801104059011070B50D0000282DD021
:10094000037A9B0628D5041E24D00E1E1FD00468EF
:10095000002C1FD0E168002E0DD0002911D02800F6
:1009600014F018FD002815D00A22A35E002B10D029
:100970001B01E418ECE70A4B0A4A29210A4809F04E
:10098000CFF90A4B074A2A31074809F0C9F90C0088
:1009900000E00024200070BD0024FBE70400F9E71C
:1009A000A8590110B4590110345A01109C5A011071
:1009B000F0B5CE46474680B583B000900191150052
:1009C00000280CD0002A10D0019B9846100014F08B
:1009D00025FD814680450ED24746002426E0254B62
:1009E000254A2121254809F09BF9254B224A22213D
:1009F000224809F095F90700EFE7224B224A5B21D4
:100A0000224809F08DF9224B1F4A5C211F4809F04A
:100A100087F91C4B1F4A1E211C4809F081F91C4B09
:100A20001C4A1F21194809F07BF90134BC4216D237
:100A3000009B002BE1D0019A9442E4D81E5D002D6A
:100A4000E7D0280014F0EAFC8442E8D8285DB042E0
:100A5000EBD0301A03B0C0BCB946B046F0BDC845B3
:100A600002D304D80020F5E701204042F2E701203C
:100A7000F0E7C046A85A0110B85A0110645C011092
:100A8000C85C0110D85C0110E45C0110345A0110FC
:100A9000285D0110345D011000B583B00091019212
:100AA000020008000199FFF783FF404203B000BD38
:100AB00010B582B00C68002820D0027A7F23134042
:100AC000402B13D89B00114AD3589F4601684268B7
:100AD000009101922000FFF7DFFF002804DB01DC1A
:100AE00001200EE004200CE002200AE0002C01D0DE
:100AF000002006E0012004E0002002E0002C02D0EB
:100B0000002002B010BD0120FBE7C046805D01104F
:100B1000F0B5C64600B584B0020002AB00211980D2
:100B2000039104000C34437C002B03D0157C00237C
:100B3000537434E0A379002B0BD1C368591CC160F6
:100B40001B78002B0BDD002B0CDB23710123637161
:100B5000ECE7914B914A2531914809F0E1F80121E8
:100B6000A171F0E70023F0E78B4B8C4A25218C48DC
:100B700009F0D6F80121A1711DE0237101236371F1
:100B8000137C002151749D4200D1FCE0002B00D168
:100B9000FBE05C2B13D01168481C10600B70537C79
:100BA000002BEDD1A379002BDED12368591C2160E5
:100BB0001B78002BDEDD002BDFDA0023DDE7A379D5
:100BC0009846002B1AD12368591C21601B78002BF2
:100BD0001ADD002B1BDB237101236371107C0028BD
:100BE00000D1D4E0752814D06E490B78002B00D1C9
:100BF000C4E0984200D1C0E00231F6E7664B674A94
:100C00002531674809F08CF80121A171E1E7002343
:100C1000E1E7002353740021002024E09F79002F96
:100C20000BD1D7687E1CD6603F78002F0BDD002FDC
:100C30000CDB1F7101275F711CE0574B574A2521C0
:100C4000574809F06DF801269E71F0E70027F0E79C
:100C5000303BDBB20F2B20D80901194389B20023A6
:100C600053740130C0B203280ED813000C33577CE4
:100C7000002FD3D0137C002B0DD0402BE8D9202798
:100C8000BB43373BDBB2E5E70020002807D004B0C8
:100C900080BCB846F0BD0220F7E70320F5E7A023AB
:100CA0009B01CB189BB28020C000834216D39023B7
:100CB0009B01CB189BB28020C000834213D30391C9
:100CC000012398464346002B00D168E7039B7F2B06
:100CD00017D81168481C10600B7060E78905890DF2
:100CE00002AB1980EEE702A803889B028905890DF3
:100CF0000B43802149028C466344039301239846A9
:100D0000E0E70021684601703F2018408039014328
:100D1000684641709B0999B21F290FD8402149426A
:100D20000B4383706B460333013B1978002900D1D4
:100D300035E71068461C16600170F5E73F20184043
:100D400080235B4203436846837088090F2806D8D6
:100D500020235B4218436B46D87001ABE4E73F2386
:100D60001840BF3B03436846C370090B10235B4226
:100D700019436B4601710533D6E74B78002B08D039
:100D80000021517407E7002081E702207FE702205D
:100D90007DE703207BE7C046985E0110A05E01104E
:100DA0000C5F0110845E011070B588B004000E0065
:100DB00022000C32617C002928D0227C002A3FD0FE
:100DC000202A09D8092A07D3093AD2B20121914031
:100DD0000A00B9490A423AD1012222720025002DA7
:100DE00000D095E022000C32617C002932D0227CB8
:100DF0007B2A00D958E15B2A46D35B3AD1B220293D
:100E000000D951E18A00AD498A5897469179002965
:100E10000BD1E168481CE060097800290BDD00294E
:100E20000CDB117101215171C7E7A54BA54A2521A2
:100E3000A54808F075FF01209071F0E70021F0E768
:100E4000227A002A01D10125C9E70225C7E700223D
:100E50006274ADE7917900290BD1E168481CE0602C
:100E6000097800290BDD00290CDB1171012151717A
:100E7000BDE7934B934A2521934808F051FF012089
:100E80009071F0E70021F0E7222A02D0272A00D053
:100E90000AE1236863602000FFF73AFE051E37D1A0
:100EA00000232268137061682268501A03AB039113
:100EB000049001211972013222606A4613CB13C2D9
:100EC000009A002A37D0814B069300230793069B94
:100ED000002B34D06B461B7A012B39D0337A7F211B
:100EE0008B43337205210B4333723260019B736075
:100EF0000EE0327A7F218A43327240210A433272F5
:100F00000022326072603100200000F099F9050083
:100F1000280008B070BD327A7F218A4332722021C6
:100F20000A4332720022326072603100200000F009
:100F30003BFB0500ECE7002306930793C7E7079BFD
:100F4000DB07C7D4624B634ADD21634808F0E8FE43
:100F5000337A7F218B43337204210B433372C4E70E
:100F6000337A7F2293433372062213433372012371
:100F700033705A4B14E0524B524A2521524808F024
:100F8000CFFE012090711CE0117101215171227C72
:100F9000002A1AD019788A4219D1013300226274CA
:100FA0001D78002DB4D022000C32617C0029EED1D6
:100FB00091790029DFD1E168481CE06009780029B7
:100FC000DFDD0029E0DA0021DEE70225A0E70325C6
:100FD0009EE7337A7F2293433372062213433372A0
:100FE000002333703E4B14E0354B364A25213648FA
:100FF00008F096FE012090711DE0117101215171E0
:10100000227C002A1BD019788A421AD1013300228F
:1010100062741D78002D00D17AE722000C32617CC9
:101020000029EDD191790029DED1E168481CE0600A
:1010300009780029DEDD0029DFDA0021DDE702255D
:1010400066E7032564E7274B14E01D4B1D4A252165
:101050001D4808F065FE012090711DE0117101210D
:101060005171227C002A1BD019788A421AD101338F
:10107000002262741D78002D00D149E722000C3255
:10108000617C0029EDD191790029DED1E168481C0D
:10109000E06009780029DEDD0029DFDA0021DDE7E4
:1010A000022535E7032533E721000C31637C002B53
:1010B0001AD0227C2B0050E0130080002860011021
:1010C000985E0110A05E01100C5F0110410300103A
:1010D000887601107C5F0110C85F0110645F011009
:1010E0006C5F0110745F01108B79002B0BD1E368EA
:1010F0005A1CE2601B78002B0BDD002B0CDB0B7104
:1011000001234B71D5E72C4B2C4A25212C4808F0A4
:1011100007FE01228A71F0E70023F0E7012002E0D8
:10112000012000E00120002838D03E2B36D80020D6
:101130006074581CC0B2E3181A768B79002B22D148
:101140000B685A1C0A601B78002B22DD002B23DB66
:101150000B7101234B71227C03002F2A01D9392AFC
:10116000DED92B2ADED02D2A07D02E2A07D0652AD9
:1011700007D0452AD2D00020D5E70120D3E70120AF
:10118000D1E70120CFE70C4B0C4A25210C4808F091
:10119000C7FD01228A71D9E70023D9E7E3180022AD
:1011A0001A76200018303100FFF7DEF9002800D051
:1011B000AEE60325ACE6C046985E0110A05E0110C5
:1011C0000C5F0110F0B59BB00400151C0E68002EDA
:1011D00028D02700183723686360E368A3600023E2
:1011E00023742022A3540968220018A8FFF77CFB6F
:1011F000199B0093189B3200210002A8FFF776FB91
:101200002B1C0022390002A8FFF7CEFD002807D1D1
:1012100002AB1B7C002B03D03B7A1B0700D50320BD
:101220001BB0F0BD004ED4E7945E011000B583B052
:101230000191002301A9FFF7C5FF03B000BD000025
:10124000F0B5C64600B504000E001D1CDBB2002B35
:1012500000D17DE103000C33427C002A1FD0237CA7
:101260005B2B36D10023637423000C33627C002A8D
:1012700035D0227C002A4CD0202A08D8092A06D34F
:10128000093AD2B201239340B34A134248D1012311
:1012900023720020002846D080BCB846F0BD9A7961
:1012A000002A0BD1C268511CC1601278002A0BDDE4
:1012B000002A0CDB1A7101225A71D0E7A74BA84A09
:1012C0002521A84808F02CFD01219971F0E70022A2
:1012D000F0E7A54BA54A9A21A54808F021FD9A7987
:1012E000002A0BD1E268511CE1601278002A0BDD64
:1012F000002A0CDB1A7101225A71BAE7974B984AFF
:101300002521984808F00CFD01219971F0E7002291
:10131000F0E7237A002B01D10120BBE70220B9E7D7
:1013200000236374A0E723000C33627C002A09D0F9
:10133000237C5D2B20D1002363740127002F00D173
:101340008BE0A9E79A79002A0BD1E268511CE16091
:101350001278002A0BDD002A0CDB1A7101225A7167
:10136000E6E77E4B7E4A25217E4808F0D9FC012124
:101370009971F0E70022F0E70027DFE701221A74F5
:10138000002127E000290CD08B1A181180467948DB
:1013900083420CDB784883420FDC43465381716003
:1013A00013E0764B764A4731764808F0B9FC764B25
:1013B000734A4821734808F0B3FC744B704A4A21C1
:1013C000704808F0ADFC3160716000234B81002251
:1013D0000A72CB60002900D1BCE0EBB2002B55D0E3
:1013E000013BDBB200222000FFF7DEFC002800D02A
:1013F00052E723000C33627C002A4DD0237C002B63
:1014000064D0202B09D8092B07D3093BDBB201227A
:101410009A401300504A13425FD1012323720028DF
:1014200000D039E723000C33627C002A58D0237C9B
:101430005D2B6FD1002363740133002B00D02BE7A9
:1014400022000C32617C002966D0227C2C2A02D139
:10145000002363740133002B78D063695A6810321B
:1014600099688A428AD810399960002988D07268B0
:10147000002AA8D01868824202D3DB689A4281D33E
:10148000434B444A1421444808F04AFC434B444A25
:101490001221444808F044FC9A79002A0BD1E268F2
:1014A000511CE1601278002A0BDD002A0CDB1A7156
:1014B00001225A71A2E7294B294A2521294808F01F
:1014C0002FFC01219971F0E70022F0E7237A002B2D
:1014D00001D10120A3E70220A1E70023637488E77C
:1014E0009A79002A0BD1E268511CE1601278002A37
:1014F0000BDD002A0CDB1A7101225A7197E7174B9A
:10150000174A2521174808F00BFC01219971F0E7D3
:101510000022F0E73B0090E7917900290BD1E168C8
:10152000481CE060097800290BDD00290CDB1171F3
:101530000121517189E7094B094A2521094808F021
:10154000EFFB01209071F0E70021F0E70320A3E614
:101550000520A1E604209FE613008000985E01109C
:10156000A05E01100C5F0110AC600110C0600110A2
:10157000246201100000F8FFF0FF07006C63011007
:1015800078630110D0630110306401106C640110A5
:10159000846201109862011008630110A8640110B0
:1015A000B46401100C650110F0B5DE4657464E4696
:1015B0004546E0B58FB004000F006A46D371DBB238
:1015C000002B00D1B9E303000C33427C002A27D062
:1015D000237C7B2B3ED10023637423000C33627C7D
:1015E000002A3DD0237C002B54D0202B09D8092B76
:1015F00007D3093BDBB201229A401300AC4A1342E5
:1016000051D101232372002399464B46002B4DD024
:1016100048460FB0F0BCBB46B246A946A046F0BD56
:101620009A79002A0BD1C268511CC1601278002A35
:101630000BDD002A0CDB1A7101225A71C8E79D4BA1
:101640009D4A25219D4808F06BFB01219971F0E727
:101650000022F0E79A4B9B4AEE219B4808F060FB82
:101660009A79002A0BD1E268511CE1601278002AB5
:101670000BDD002A0CDB1A7101225A71B2E78D4B87
:101680008D4A25218D4808F04BFB01219971F0E727
:101690000022F0E7237A002B02D101239946B4E718
:1016A00002239946B1E70023637496E723000C33C5
:1016B000627C002A0BD0237C7D2B22D10023637413
:1016C00001330093009B002B00D1BFE1A0E79A7982
:1016D000002A0BD1E268511CE1601278002A0BDD70
:1016E000002A0CDB1A7101225A71E4E7714B724A2D
:1016F0002521724808F014FB01219971F0E70022BE
:10170000F0E700230093DDE79A79002A0BD1E26825
:10171000511CE1601278002A0BDD002A0CDB1A71E3
:1017200001225A719AE1634B634A2521634808F00C
:10173000F7FA01219971F0E70022F0E78379002B95
:101740000BD1E3685A1CE2601B78002B0BDD002BE9
:101750000CDB0371012343718DE1564B564A252161
:10176000564808F0DDFA01228271F0E70023F0E725
:10177000C421564B564AFF31534808F0D1FA012193
:1017800002E0012100E00099002924D1032041E07A
:101790000121F9E78379002B0BD103685A1C026001
:1017A0001B78002B0BDD002B0CDB03710123437135
:1017B0001AE0404B404A2521404808F0B1FA012286
:1017C0008271F0E70023F0E70A0002E00A0000E07F
:1017D000009A002A19D0002262742268551C2560E4
:1017E0001370637C002BD5D0237C2F2B01D9392B90
:1017F000EAD95E2B01D97A2BE8D9402BE8D95A2BAC
:1018000001D9009AE5E70A00E3E7484602E0200034
:10181000FFF77EF9002800D07AE222000C32637CC8
:10182000002B20D0237C002B37D0202B09D8092B6C
:1018300007D3093BDBB201229A4013001C4A134232
:1018400032D101232372002800D063E223000C333D
:10185000627C002A3ED0237C3A2B55D1002363744E
:1018600001339A4652E09379002B0BD1E368591C5F
:10187000E1601B78002B0BDD002B0CDB13710123C7
:101880005371CFE70B4B0C4A25210C4808F048FA5E
:1018900001219171F0E70023F0E7237A002B01D1B9
:1018A0000120D0E70220CEE700236374B5E7C046ED
:1018B00013008000985E0110A05E01100C5F011003
:1018C00074650110886501102462011064760110AE
:1018D000EC6601109A79002A0BD1E268511CE16094
:1018E0001278002A0BDD002A0CDB1A7101225A71D2
:1018F000B1E7C24BC24A2521C24808F011FA0121C2
:101900009971F0E70022F0E7009B9A465346002BBE
:1019100000D101E2002322681370666823689B46A9
:101920009A1B03AB0396049201221A72B046351E2D
:1019300021D03D680DE0B44BB44A2921B44808F0E9
:10194000EFF9B44BB14A2A31B14808F0E9F91B016B
:10195000ED18002D0FD0E9684346002BEBD000298D
:10196000EFD0300013F016FD002804D00A22AB5E41
:10197000002BECD10025002D00D192E0291E00D1D2
:101980008FE06B46DB79002B00D10DE1013BDBB230
:1019900000222000FFF708FA002800D0C2E1220050
:1019A0000C32637C002B00D104E1237C002B00D19E
:1019B0001AE1202B0AD8092B08D3093BDBB20122FC
:1019C0009A401300944A134200D014E10123237279
:1019D000002800D0A8E123000C33627C002A00D14B
:1019E0003CE1237C7D2B00D052E1002363745146FF
:1019F000002900D09AE123000C33627C002A00D138
:101A000048E1237C2C2B02D100236374514600292A
:101A100000D18DE122000C32637C002B00D153E118
:101A2000237C002B00D169E1202B0AD8092B08D395
:101A3000093BDBB201229A401300774A134200D0DF
:101A400063E101232372002800D074E123686360FE
:101A500023000C33627C002A00D155E6237C272B1F
:101A600000D1D4E6222B00D1D1E620000C30637CDB
:101A7000002B00D162E6237C002B00D178E62F2BCF
:101A800002D9392B00D87AE65E2B02D97A2B00D8FE
:101A900077E6402B00D876E65A2B00D878E60099F6
:101AA00072E600235A46137061682268501A09AB27
:101AB00009910A90012119720132226003AA03CB15
:101AC00003C21B78137063695A68103299688A429E
:101AD00012D810399960002910D07A68002A2ED0C7
:101AE0001868824202D3DB689A4209D34B4B4C4AB6
:101AF00014214C4808F014F901221A74002125E041
:101B000000290AD08B1A1811474DAB420BDB474D09
:101B1000AB420EDC5081796013E0454B454A4731BA
:101B2000454808F0FDF8454B424A4821424808F034
:101B3000F7F8434B3F4A4A213F4808F0F1F8396033
:101B4000796000234B8100220A72CB60002900D10A
:101B5000E5E006AA03AB61CB61C2069B002B11D066
:101B6000384A0C9200220D920C9A002A0ED006AA36
:101B7000127A012A13D0087A8022524202430A7252
:101B8000CB60FEE600220C920D92EDE70D9AD20793
:101B9000EDD42D4B2D4A5021274808F0C1F8087A82
:101BA0007E3202400A72EBE7294B2A4A12212A4868
:101BB00008F0B6F89379002B0BD1E368591CE1606B
:101BC0001B78002B0BDD002B0CDB137101235371F1
:101BD000EBE60A4B0A4A25210A4808F0A1F8012140
:101BE0009171F0E70023F0E7237A002B01D1012067
:101BF000EEE60220ECE600236374D0E6985E011066
:101C0000A05E01100C5F0110A8590110B459011019
:101C1000345A01109C5A0110130080008462011094
:101C200098620110086301100000F8FFF0FF070040
:101C30006C63011078630110D063011030640110EF
:101C40006C64011041030010DC670110E0670110B3
:101C5000A8640110B46401100C6501109A79002A7F
:101C60000BD1E268511CE1601278002A0BDD002ADA
:101C70000CDB1A7101225A71B3E6314B314A25212E
:101C8000314808F04DF801219971F0E70022F0E7A2
:101C90000099ADE69A79002A0BD1E268551CE560FF
:101CA0001278002A0BDD002A0CDB1A7101225A710E
:101CB000A7E6234B234A2531234808F031F80125B4
:101CC0009D71F0E70022F0E79379002B0BD1E368D8
:101CD000591CE1601B78002B0BDD002B0CDB137112
:101CE000012353719CE6164B164A2521164808F02D
:101CF00017F801219171F0E70023F0E7237A002B18
:101D000001D101209FE602209DE60023637481E655
:101D100081467DE481467BE40323994678E40423ED
:101D2000994675E4814673E4814671E481466FE427
:101D3000032399466CE481466AE40523994667E4E7
:101D4000985E0110A05E01100C5F011001230029B4
:101D500004D104D180221206904200D30023D8B2CD
:101D600070474B1C0EDB4B1C03D180231B06984293
:101D700008D3002908DC03D180231B06984203D234
:101D8000012000E0002070470020FCE710B50400AF
:101D9000FFF7DCFF002801D0200010BD0020FCE789
:101DA00010B50400FFF7DDFF002801D0200010BDB2
:101DB0000020FCE70123002902D102D1FF2800D92D
:101DC0000023D8B2704710B50400FFF7F3FF0028D6
:101DD00001D0E0B210BD0020FCE700290ADB01239E
:101DE000002902DD0023D8B270470029FBD1FF286B
:101DF000F9D9F7E70020F7E710B50400FFF7EDFF8A
:101E0000002801D0E0B210BD0020FCE770B504004E
:101E10000D000022002309F035FE002809D0002221
:101E2000064B2000290009F025FE002803D00120E0
:101E300000E0002070BD0020FCE7C04600E06F40DD
:101E400070B504000D00FFF7E1FF002805D0200069
:101E5000290009F073FEC0B270BD0020FCE700004D
:101E600010B588B0027A7F231340043BDAB2082A07
:101E700046D89300244AD3589F46007841E04168F1
:101E80000068FFF7A0FF3CE041680068FFF7B4FF7F
:101E900037E0006800236A4613726946FEF764FB68
:101EA0006B461A7A7F231340043BDAB2082A20D803
:101EB0009300164AD3589F466B46187821E0009845
:101EC0000199FFF780FF1CE000980199FFF794FF4C
:101ED00017E004AC0023237221000098FEF744FBB6
:101EE0002000FFF7BDFF0CE000980199FFF7A8FF65
:101EF00007E0002005E041680068FFF7A1FF00E06F
:101F0000002008B010BDC0462C68011050680110B8
:101F100010B58CB0002876D0027A7F231340043BA2
:101F2000DAB2082A6DD89300384AD3589F46007811
:101F30006AE041680068FFF746FF65E041680068B5
:101F4000FFF75AFF60E0006800236A461372694693
:101F5000FEF70AFB6B461A7A7F231340043BDAB282
:101F6000082A47D893002A4AD3589F466B461878C8
:101F70004AE000980199FFF726FF45E00098019993
:101F8000FFF73AFF40E000236A46137604A9009861
:101F9000FEF7EAFA6B461A7E7F231340043BDAB25F
:101FA000082A20D893001B4AD3589F4604AB1878C0
:101FB0002AE004980599FFF706FF25E004980599A3
:101FC000FFF71AFF20E008AC0023237221000498D9
:101FD000FEF7CAFA2000FFF743FF15E004980599C1
:101FE000FFF72EFF10E000200EE000980199FFF7A8
:101FF00027FF09E0002007E041680068FFF720FFA5
:1020000002E0002000E000200CB010BD7468011058
:1020100098680110BC68011070B504000D00002222
:10202000094B09F02FFD002809D0084A084B200071
:10203000290009F01FFD002803D0012000E0002046
:1020400070BD0020FCE7C0460000E0C10000C0FFFA
:10205000FFFFDF4170B504000D00FFF7DDFF002832
:1020600004D02000290009F045FD70BD0020FCE7E8
:1020700010B588B0027A7F231340043BDAB2082AF5
:1020800046D89300244AD3589F46007841E04168DF
:102090000068FFF77BFE3CE041680068FFF780FEC8
:1020A00037E0006800236A4613726946FEF75CFA5F
:1020B0006B461A7A7F231340043BDAB2082A20D8F1
:1020C0009300164AD3589F466B46187821E0009833
:1020D0000199FFF75BFE1CE000980199FFF760FE95
:1020E00017E004AC0023237221000098FEF73CFAAD
:1020F0002000FFF7BDFF0CE000980199FFF7AAFF51
:1021000007E0002005E041680068FFF7A3FF00E05A
:10211000002008B010BDC046E0680110046901103D
:1021200030B589B004000D00C1684068FEF704FCBA
:10213000002816D0027A7F231340082B07D00A2BE1
:102140000AD0002000280ED1286809B030BD4168AF
:102150000068FFF7FBFDF5E741680068FFF701FE47
:10216000F0E70020EEE76068E168FEF7E5FB002895
:102170004FD0027A7F231340043BDAB2082A46D8B4
:102180009300254AD3589F460078DEE741680068EF
:10219000FFF7FCFDD9E741680068FFF701FED4E7CF
:1021A000006800236A4613726946FEF7DDF96B4644
:1021B0001A7A7F231340043BDAB2082A20D893000E
:1021C000164AD3589F466B461878BEE70098019987
:1021D000FFF7DCFDB9E700980199FFF7E1FDB4E7EF
:1021E00004AC0023237221000098FEF7BDF9200003
:1021F000FFF73EFFA9E700980199FFF72BFFA4E73F
:102200000020A2E741680068FFF724FF9DE7002057
:102210009BE7002099E7C046286901104C6901102E
:1022200030B589B004000D00006818306168FEF711
:1022300083FB002816D0027A7F231340082B07D097
:102240000A2B0AD0002000280ED1286809B030BD22
:1022500041680068FFF77AFDF5E741680068FFF71D
:1022600080FDF0E70020EEE7206818306168FEF797
:1022700063FB00284FD0027A7F231340043BDAB27D
:10228000082A46D89300254AD3589F460078DDE7B0
:1022900041680068FFF77AFDD8E741680068FFF7FA
:1022A0007FFDD3E7006800236A4613726946FEF794
:1022B0005BF96B461A7A7F231340043BDAB2082A93
:1022C00020D89300164AD3589F466B461878BDE72E
:1022D00000980199FFF75AFDB8E700980199FFF7B8
:1022E0005FFDB3E704AC0023237221000098FEF7E2
:1022F0003BF92000FFF7BCFEA8E700980199FFF723
:10230000A9FEA3E70020A1E741680068FFF7A2FE4D
:102310009CE700209AE7002098E7C046706901100A
:102320009469011030B589B004000D00016980681E
:10233000FEF702FB6169FEF7FFFA002816D0027A69
:102340007F231340082B07D00A2B0AD00020002837
:102350000ED1286809B030BD41680068FFF7F6FC6F
:10236000F5E741680068FFF7FCFCF0E70020EEE7C6
:102370002169A068FEF7E0FA6169FEF7DDFA00283E
:102380004FD0027A7F231340043BDAB2082A46D8A2
:102390009300254AD3589F460078DBE741680068E0
:1023A000FFF7F4FCD6E741680068FFF7F9FCD1E7D6
:1023B000006800236A4613726946FEF7D5F86B463B
:1023C0001A7A7F231340043BDAB2082A20D89300FC
:1023D000164AD3589F466B461878BBE70098019978
:1023E000FFF7D4FCB6E700980199FFF7D9FCB1E7F5
:1023F00004AC0023237221000098FEF7B5F82000FA
:10240000FFF736FEA6E700980199FFF723FEA1E744
:1024100000209FE741680068FFF71CFE9AE7002054
:1024200098E7002096E7C046B8690110DC69011002
:10243000F0B5DE4657464E464546E0B5EF4CA5445E
:10244000002005F037FD11F097FE0122EC49ED4820
:1024500008AB9C46604410F0FFF9041E00D0B2E1C6
:10246000E94BEA4AEA4908A884466144E9486044DD
:1024700010F0B2FD041E00D0B2E10122E64908AB23
:102480009C466144E548604410F014FA041E02D0F2
:10249000082800D02AE20023E14A08A98C466244B9
:1024A0001360A022DE4B63449201DE496144DB48A5
:1024B000604410F0ADFB0290002800D027E207F046
:1024C0002BF8002900DA35E2D74A002309F058F842
:1024D0001000190009F03EFB0022D44B09F063FA0A
:1024E00002000B00D2480AF035FACD4B08AA9446F8
:1024F00063441968CF480AF02DFA3AAB44AA3A92DD
:102500003B92CD4A08A98C4662443C92CA4A624436
:102510003D9200221A741A0020230021D1540A226D
:10252000C04961443AA8FEF781FEC3B2002B00D136
:1025300006E2C24BC24A08A98C4662441360C04BF3
:10254000634400225A60BE4B08AA944663441B6849
:10255000002B00D0FEE10133BA4A62441268110038
:1025600019408A461A4200D0F4E1B74B63443AADB1
:102570001D60B64E5E601AAC220003CB03C2082277
:102580002100B34860440AF039F8310040A8FEF752
:10259000D3F9FFF7BDFCAF4E3070AF4B08AA94469D
:1025A00063441D60AD4A5A60220003CB03C2082277
:1025B0002100AB4860440AF021F80A23A94A08A97F
:1025C0008C46624413601100A5486044FFF728FE62
:1025D000A54B1870A54B08AA944663441D60A44AF5
:1025E0005A60220003CB03C2A24B6344220003CAF9
:1025F00003C36423A04A6244136011009D486044F1
:10260000FFF70EFE9D4B18709D4B08AA944663443D
:102610001D609C4A5A60220003CB03C2082221009D
:102620009948604409F0EAFF0F23984A08A98C46AC
:1026300062441360110094486044FFF7F1FD944B2D
:102640001870944B08AA944663441D60924A5A60DD
:10265000220003CB03C2914B634406CC06C31E2366
:102660008F4A6244136011008C486044FFF7D8FD24
:102670008C4B18703378002B00D180E18A4B08AA6C
:10268000944663443AAD1D60884E5E601AAC2200E9
:1026900003CB03C2082221008548604409F0AEFF45
:1026A000310040A8FEF748F9824B08AA94466344DB
:1026B00018605D6006CB06C402002B00002803D022
:1026C000017A890600D463E1329233937A4B08AAE7
:1026D000944663443AAD1D60784E5E601AAC2200A9
:1026E00003CB03C208222100AF20C001604409F0DF
:1026F00085FF310040A8FEF71FF9714B08AA9446E8
:10270000634418605D6006CB06C402002B000028FD
:1027100003D0017A890600D43CE134923593694BA9
:1027200008AA944663443AAD1D60674E5E601AACD9
:10273000220003CB03C2082221006448604409F050
:102740005DFF310040A8FEF7F7F8614B08AA9446F8
:10275000634418605D6006CB06C402002B000028AD
:1027600003D0017A890600D416E136923793594B8B
:1027700008AA944663443AAD1D60574E5E601AAC99
:10278000220003CB03C2082221005448604409F010
:1027900035FF310040A8FEF7CFF8514B08AA944608
:1027A000634418605D6006CB06C402002B0000285D
:1027B00003D0017A890600D4F0E038923993544668
:1027C000049401F025FCD0231B0640225A614032BC
:1027D0009A6111F045FE01002200424807F03AFBE1
:1027E000D0231B0640225A6140329A6111F038FE14
:1027F000010022003C4807F02DFBC046B499FFFFC2
:10280000006A0110705200001C6A0110945E0110F1
:10281000F85000001852000012510000D854000077
:10282000F4280000F828000040420F0000408F40CC
:10283000806A01108C6A0110F02800004303001028
:10284000385700003C570000245D00005C6B01100D
:1028500040570000E12800201C5D0000646B01105F
:102860004857000050570000EF070020145D00009B
:102870006C6B0110545700005C570000F0070020FB
:102880000C5D0000786B0110605700006857000075
:10289000ED070020045D0000806B01106C57000004
:1028A00074570000F1070020645D0000B06C011057
:1028B000785700005C5D0000545D0000B86C0110AA
:1028C0004C5D0000445D0000C06C011088570000A2
:1028D0003C5D0000345D0000C86C011090570000A2
:1028E0002C5D0000046A01102C6A0110D0231B0625
:1028F00040225A6140329A6111F0B2FD0200230079
:10290000B44908A884466144B34807F0A3FAD02329
:102910001B0640225A6140329A61029C200011F04D
:102920009FFD02002300AB4908A884466144AB48E0
:1029300007F090FAAA4BAB4A3F21AB4807F0F0F9F9
:102940000023AA4A08A98C4662441360A74A62443D
:102950005360F8E5D0231B0640225A6140329A6149
:10296000C0B2052805D88000A14BC158A14807F086
:1029700071FAA14BA14A4621A14807F0D1F9D02311
:102980001B0640225A6140329A619E4807F062FA63
:10299000002299E60022C0E60022E6E600220CE7CB
:1029A000002301F06EFB1B01C01815006A1E002DEC
:1029B00006D00A21435E002BF5D1002000E0002064
:1029C000FFF7A6FA81461AAD2B005A4603CA03C385
:1029D0008D4F08AB9C46674408222900380009F057
:1029E0000DFE8A4BBB600C223900280009F006FE60
:1029F000874B08AA9446634407CD07C3854B6344BD
:102A0000834A624423CA23C3834B6344814A62449A
:102A100023CA23C3814B824A62441360814B6344BF
:102A20007D4A624423CA23C37D4B63441B680393DE
:102A30007D4B6344039A1A600C227A4961447B4BB4
:102A40006344180009F0DAFD774B08AA9446634402
:102A50001B680393764B6344039A1A60C325ED0108
:102A60006544744F67440C22704B6344190038006E
:102A700009F0C4FD6E4B08AA944663441B686B6161
:102A80000123AB6115AB07CF07C36F691897AD6919
:102A9000199515981799FDF74FFF3900FDF74CFF71
:102AA000002815D0027A530611D5002810D00068EE
:102AB00000280DD06A1E002D0AD00A21435E002B8B
:102AC00003D01B01C0181500F4E7002000E000202F
:102AD000FFF71EFA80461AAB1A00594621C921C2D7
:102AE000554A08A98C46624411001800A0C8A0C12C
:102AF000464991601D0083CA83C5AC464F4A08A968
:102B00008A4652441900A1C9A1C24D4A52444B49B8
:102B10005144A1C9A1C24B4A524449495144A1C997
:102B2000A1C23E4A484951440A60484A5244454974
:102B30005144A1C9A1C2444A524412680392444A72
:102B4000524403991160434A524440495144A1C937
:102B5000A1C23F4A5244126803923F4A5244039929
:102B600011603E49514403913D4A52443948504412
:102B7000A2C8A2C2384A5244126803994A6102228A
:102B80008A61374A5244654683CA83C5039A5769A6
:102B90002097956921951D981F99FDF7CDFE390065
:102BA000FDF7CAFE00285ED0037A5B065AD50028DE
:102BB00059D00068002803D155E01B01C01815004A
:102BC0006A1E002D4FD00A21435E002BF5D1002054
:102BD00049E0C04612510000486A0110646A0110C1
:102BE000C8560110E45601101C5701103857000058
:102BF000C8070020846C01108C6B0110D06B011091
:102C0000146C01109C6C0110C0610000D86C0110A4
:102C1000E4580000A0610000B0610000F06C0110F9
:102C2000BC610000D0580000DC580000706100005A
:102C30007C610000886100005C6100000C590000AC
:102C40003C6100004C61000058610000F858000031
:102C5000045900000C610000186100001C610000B4
:102C6000246100000020FFF753F9009043464A46D4
:102C70000221300005F008F91AAD2B005A4603CAAC
:102C800003C3C34F08AB9C466744082229003800A1
:102C900009F0B4FCBF4BBB600C223900280009F0DE
:102CA000ADFCBD4B08AA9446634407CD07C3BB4B9C
:102CB0006344B94A624423CA23C3B94B6344B74A45
:102CC000624423CA23C3B74BB74A62441360B74B6D
:102CD0006344B34A624423CA23C3B34B63441B68AF
:102CE0000393B34B6344039A1A600C22AF496144C7
:102CF000B04B6344180009F081FCAD4B08AA944620
:102D000063441B680393AC4B6344039A1A60AB4D56
:102D10006544AB4F67440C22A64B6344190038004E
:102D200009F06CFCA44B08AA944663441B686B61D1
:102D30000023AB610DAB07CF07C36F691097AD6977
:102D400011950D980F99FDF7F7FD3900FDF7F4FD8A
:102D5000002815D0027A530611D5002810D000683B
:102D600000280DD06A1E002D0AD00A21435E002BD8
:102D700003D01B01C0181500F4E7002000E000207C
:102D8000FFF7C6F882461AAB1A00594621C921C27C
:102D90008C4A08A98C46624411001800A0C8A0C142
:102DA0007C4991601900A1CAA1C1874A624423CB22
:102DB00023C2864B6344844A624423CA23C3844BA0
:102DC0006344824A624423CA23C3764B814A6244E5
:102DD0001360814B63447E4A624423CA23C37D4B04
:102DE00063441B6803937D4B6344039A1A607C4BD6
:102DF0006344794A624423CA23C3784B63441B6803
:102E00000393784B6344039A1A6077496144774B84
:102E10006344734A6244A1CAA1C3724B63441B68F2
:102E20004B6101238B6115AB704A6244A1CAA1C3F7
:102E30004F6918978D69199515981799FDF77CFDBD
:102E40003900FDF779FD002815D0027A530611D517
:102E5000002810D0006800280DD06A1E002D0AD06E
:102E60000A21435E002B03D01B01C0181500F4E7B4
:102E7000002000E00020FFF74BF803901AAD2B0074
:102E80005A4603CA03C35A4F08AB9C4667440822FC
:102E90002900380009F0B2FB3E4BBB600C22390020
:102EA000280009F0ABFB534B08AA944663442A0060
:102EB00083CA83C39146504B63444E4A624483CADB
:102EC00083C34E4B63444C4A624483CA83C3354B2D
:102ED0004B4A624413604B4B6344484A624483CA82
:102EE00083C3474B63441B680593474B6344059A70
:102EF0001A600C2243496144444B6344180009F0B2
:102F00007DFB414B08AA944663441B680593404BE4
:102F10006344059A1A603F4F67443F4B63449846A9
:102F20000C223A4B63441900404609F067FB384BCA
:102F300008AA944663441B687B6102230597BB6122
:102F40004B46424683CA83C3059F7B6998462093BC
:102F5000BF6921971D981F99FDF7EEFC4146FDF7CB
:102F6000EBFC00285BD0037A5B0657D5002856D0CF
:102F70000068002853D07A1E002F50D00A21435EEB
:102F8000002B03D01B01C0181700F4E7002046E017
:102F9000F8600000F46C011034590000D8600000A3
:102FA000E8600000F06C0110F4600000205900009F
:102FB0002C590000A8600000B4600000B860000058
:102FC000C0600000946000005C5900007460000064
:102FD00084600000906000004859000054590000CF
:102FE0004460000050600000546000005C6000001D
:102FF0003060000084590000106000002060000074
:103000002C600000705900007C590000E05F000057
:10301000EC5F0000F05F0000F85F00000020FEF7AA
:1030200077FF0090039B52460121300004F02CFFF3
:103030001AAB1A00594621C921C2BE4A08A98C46BA
:10304000624411001800A0C8A0C1BB4991601900DA
:10305000A1CAA1C1B94A624423CB23C2B84B63447D
:10306000B64A624423CA23C3B64B6344B44A62449B
:1030700023CA23C3B44BB54A62441360B44B6344C0
:10308000B04A624423CA23C3B04B63441B68039312
:10309000B04B6344039A1A60AF4B6344AC4A62443A
:1030A00023CA23C3AB4B63441B680393AB4B6344FA
:1030B000039A1A60AA496144AA4B6344A64A62442F
:1030C000A1CAA1C3A54B63441B684B6100238B615C
:1030D0000DABA44A6244A1CAA1C34F6910978D6980
:1030E00011950D980F99FDF727FC3900FDF724FC89
:1030F000002815D0027A530611D5002810D0006898
:1031000000280DD06A1E002D0AD00A21435E002B34
:1031100003D01B01C0181500F4E7002000E00020D8
:10312000FEF7F6FE81461AAD2B005A4603CA03C3CA
:103130008D4F08AB9C46674408222900380009F0EF
:103140005DFA7D4BBB600C223900280009F056FA6D
:10315000864B08AA9446634407CD07C3844B634457
:10316000824A624423CA23C3824B6344804A624436
:1031700023CA23C3744B804A624413607F4B634469
:103180007C4A624423CA23C37B4B63441B6803937A
:103190007B4B6344039A1A600C2278496144794B53
:1031A0006344180009F02AFA754B08AA9446634450
:1031B0001B680393744B6344039A1A60734D654410
:1031C000734F67440C226F4B63441900380009F0B9
:1031D00015FA6D4B08AA944663441B686B61012382
:1031E000AB6115AB07CF07C36F691897AD69199528
:1031F00015981799FDF7A0FB3900FDF79DFB0028F6
:1032000015D0027A530611D5002810D00068002886
:103210000DD06A1E002D0AD00A21435E002B03D078
:103220001B01C0181500F4E7002000E00020FEF7A5
:103230006FFE80461AAB1A00594621C921C2554A71
:1032400008A98C46624411001800A0C8A0C13A49E0
:1032500091601D0083CA83C5AC464F4A08A98A46BF
:1032600052441900A1C9A1C24C4A52444A4951448E
:10327000A1C9A1C24A4A524448495144A1C9A1C264
:10328000314ABE21C90151440A60464A5244444968
:103290005144A1C9A1C2BE22D20152441268039274
:1032A000414A524403991160404A52443D495144B5
:1032B000A1C9A1C23C4A5244126803923C4A5244FA
:1032C000039911603B49514403913B4A52443748AA
:1032D0005044A2C8A2C2364A5244126803994A61B5
:1032E00002228A61344A5244654683CA83C5039ADE
:1032F00057692097956921951D981F99FDF71CFB2B
:103300003900FDF719FB002859D0037A5B0655D523
:10331000002854D00068002851D06A1E002D4ED0DD
:103320000A21435E002B03D01B01C0181500F4E7EF
:10333000002044E0CC5F0000E86C0110AC590000B4
:10334000AC5F0000BC5F0000F06C0110C85F0000C3
:1033500098590000A45900007C5F0000885F0000BD
:103360008C5F0000945F0000685F0000D45900008B
:10337000485F0000585F0000645F0000C059000013
:10338000CC590000185F0000245F0000285F000097
:10339000305F0000045F0000FC590000E45E0000A4
:1033A000F45E0000E8590000F4590000B45E00002B
:1033B000C05E0000C45E0000CC5E00000020FEF78E
:1033C000A7FD009043464A460021300004F05CFD12
:1033D0001AAD2B005A4603CA03C3CF4F08AB9C4615
:1033E000674408222900380009F008F9CB4BBB607C
:1033F0000C223900280009F001F9C94B08AA9446AB
:10340000634407CD07C3BD23DB016344C44A624460
:1034100023CA23C3C34B6344BD22D201624423CADF
:1034200023C3C14BC14A62441360C14B6344BD4ACC
:10343000624423CA23C3BD4B63441B680393BD4B43
:103440006344039A1A600C22B9496144BA4B63443D
:10345000180009F0D3F8B74B08AA944663441B68D8
:103460000393B64B6344039A1A60B54D6544B54F58
:1034700067440C22B04B63441900380009F0BEF8D1
:10348000AE4B08AA944663441B686B610023AB6192
:103490000DAB07CF07C36F691097AD6911950D98F4
:1034A0000F99FDF749FA3900FDF746FA002815D0C3
:1034B000027A530611D5002810D0006800280DD0DC
:1034C0006A1E002D0AD00A21435E002B03D01B0187
:1034D000C0181500F4E7002000E00020FEF718FDFA
:1034E00082461AAB1A00594621C921C2964A08A938
:1034F0008C46624411001800A0C8A0C187499160A1
:103500001900A1CAA1C1914A624423CB23C2904BA6
:1035100063448E4A624423CA23C38E4B63448C4A5D
:10352000624423CA23C3804B8B4A624413608B4B93
:103530006344884A624423CA23C3874B63441B689D
:103540000393874B6344039A1A60864B6344834A10
:10355000624423CA23C3824B63441B680393824B98
:103560006344039A1A6081496144814B63447D4AF4
:103570006244A1CAA1C37C4B63441B684B61012315
:103580008B6115AB7A4A6244A1CAA1C34F691897EF
:103590008D69199515981799FDF7CEF93900FDF742
:1035A000CBF9002815D0027A530611D5002810D087
:1035B000006800280DD06A1E002D0AD00A21435E43
:1035C000002B03D01B01C0181500F4E7002000E019
:1035D0000020FEF79DFC03901AAD2B005A4603CA4B
:1035E00003C3644F08AB9C46674408222900380097
:1035F00009F004F8494BBB600C223900280008F0A0
:10360000FDFF5D4B08AA944663442A0083CA83C326
:1036100091465A4B6344584A624483CA83C3584B09
:103620006344564A624483CA83C33F4B554A62444B
:103630001360554B6344524A624483CA83C3514B5F
:1036400063441B680593514B6344059A1A600C222E
:103650004D4961444E4B6344180008F0CFFF4B4B7B
:1036600008AA944663441B6805934A4B6344059A31
:103670001A60494F6744494B634498460C22444BB7
:1036800063441900404608F0B9FF424B08AA94462B
:1036900063441B687B6102230597BB614B4642462E
:1036A00083CA83C3059F7B6998462093BF6921978E
:1036B0001D981F99FDF740F94146FDF73DF9002897
:1036C00015D0037A5B0611D5002810D000680028B9
:1036D0000DD07A1E002F0AD00A21435E002B03D0A2
:1036E0001B01C0181700F4E7002000E00020FEF7DF
:1036F0000FFC0090039B52460321300004F0C4FBF2
:10370000A3001B19DB00264AD31800221A71049D5E
:10371000D846A146A7E3C046A05E0000FC6C01109D
:10372000245A0000905E0000F06C01109C5E0000C6
:10373000105A00001C5A0000505E00005C5E000041
:10374000605E0000685E00003C5E00004C5A0000B5
:103750001C5E00002C5E0000385E0000385A00003D
:10376000445A0000EC5D0000F85D0000FC5D0000C4
:10377000045E0000D85D0000745A0000B85D0000CF
:10378000C85D0000D45D0000605A00006C5A000063
:10379000885D0000945D0000985D0000A05D000061
:1037A000681500201AAD2B005A4603CA03C3FE4B0E
:1037B00008AA944663441A00290041C941C2FB4A41
:1037C00092469A602A0083CB83C2F94B63442A0055
:1037D00083CA83C3F74B6344F54A624483CA83C3F5
:1037E000F54961440E00F54B6344F24A624483CAD2
:1037F00083C3F34B994603963361B520C0016044FF
:10380000F04B6344ED4A6244C2CAC2C3039E3769A7
:103810004761836801691800FDF78EF83900FDF7EC
:103820008BF8FEF775FB06902B005946C0C9C0C344
:10383000E54B08AA9446634419002F0044CF44C1C5
:10384000514699602900C4CBC4C1E04B63442900B0
:10385000C4C9C4C3DE4B6344DC4A6244C2CAC2C3A7
:10386000DC496144DC4B6344D94A6244C1CAC1C3E8
:10387000DA4B984603910B61D94B63441800D94B3E
:103880006344D54A6244C2CAC2C303990F694761FF
:10389000836801691800FDF74FF83900FDF74CF80F
:1038A000FEF736FB07902B005946C0C9C0C3CE4B6C
:1038B00008AA9446634419002F0044CF44C15146DE
:1038C00099602900C4CBC4C1C84B63442900C4C952
:1038D000C4C3C74B6344C54A6244C2CAC2C3C921F8
:1038E000C9016144C34B6344C14A6244C1CAC1C3F4
:1038F000C14B9A460B61C14B6344BE4A6244C1CA84
:10390000C1C3BF4B634409691960BE4E6644FF23BF
:1039100033603100BC4E66443000FEF703FDC6B292
:1039200003962F005B4642CB42C7B84B08AA944689
:1039300063441F00290044C944C7B54999602F005A
:1039400007CB07C7B34B63442F0007CF07C3B24B66
:103950006344B04F67443A0083CA83C3AF496144AC
:103960000E00AF4B6344AC4F67443A0083CA83C335
:103970004F4605963761AB4F67443800AA4B634406
:10398000A74F67443A00C2CAC2C3059E3769476160
:10399000836801691800FCF7CFFF3900FCF7CCFF02
:1039A000FEF7B6FA08902F00594648C948C79F4FFE
:1039B00008AB9C4667443B00290044C944C794496E
:1039C00099602F0046CB46C7994F67443B002F00B4
:1039D00046CF46C3974F67443B00954F67443A0034
:1039E000C2CAC2C3944F67443B00924F67443A0037
:1039F000C2CAC2C3914F674441463960904961448D
:103A0000904F67443B008C4F67443A00C1CAC1C322
:103A10008A4F67443F684F6188680969FCF78CFFEB
:103A20003900FCF789FFFEF773FA09902F00594619
:103A300048C948C7844F08AB9C4667443B002900EF
:103A400044C944C7724999602F0046CB46C77F4E90
:103A5000664433002F0046CF46C37D4E6644330094
:103A60007A4E66443200C2CAC2C37A4E66443300FC
:103A7000774E66443200C2CAC2C3C826F601664405
:103A800057463760744E66443300724E66443200C7
:103A9000C2CAC2C3714E6644C827FF0167443F686B
:103AA00037606F4E6644FF2131606D4E66443100D1
:103AB0006C4E66443000FEF735FCC1B205912F0014
:103AC0005B4606CB06C7684F08AB9C4667443B0085
:103AD0002A0003CA03C7654999602A0043CB43C241
:103AE000634B63442A0043CA43C3624B6344604A46
:103AF000624443CA43C3604B63445E4A624443CA60
:103B000043C35E4B63444A461A605D496144B72330
:103B1000DB016344584A6244C1CAC1C3574B634482
:103B20001B6899464B6188680969FCF705FF49469F
:103B3000FCF702FFFEF7ECF981462B005A46C0CA9B
:103B4000C0C3504B08AA944663441A002900C0C958
:103B5000C0C2464999602A00C2CBC2C24A4B6344E4
:103B60002A00C2CAC2C3494B6344474A6244C2CA1C
:103B7000C2C3474B6344454A6244C2CAC2C3454BB1
:103B8000634442461A6044496144444B6344404A9A
:103B90006244C1CAC1C33F4B63441B6898464B6132
:103BA000886809697CE0C046F4640000E86C011094
:103BB0009C5A0000D4640000E0640000E46400004B
:103BC000DC6C0110885A0000C4640000C45A000074
:103BD000A4640000B0640000B4640000E06C011054
:103BE000A85A0000B05A000094640000EC5A00008B
:103BF0007464000084640000046D0110D85A000051
:103C0000E45A0000F85A0000D05A00006464000032
:103C1000F46C0110185B0000446400005064000064
:103C200054640000FC5A0000045B0000346400008F
:103C3000405B000014640000246400003064000055
:103C4000245B00002C5B000004640000685B000043
:103C5000E4630000F4630000545B0000605B00005C
:103C6000745B00004C5B0000D4630000D86C011052
:103C7000945B0000B4630000C4630000D0630000E4
:103C8000785B0000A4630000BC5B0000846300005C
:103C900094630000A0630000A05B0000A85B00002C
:103CA000FCF74AFE4146FCF747FEFEF731F9804635
:103CB0002B005A46C0CAC0C3934B08AA944663441B
:103CC0001A002900C0C9C0C2904999602F0046CB94
:103CD00046C78F4F67443B00C4CDC4C38D4D654478
:103CE0002B008B4D65442A00E0CAE0C38A4D654431
:103CF0002B00884D65442A00E0CAE0C3874D654427
:103D000057462F60864D65442B00834D65442A003D
:103D1000E0CAE0C3834D6544804F67443F682F602D
:103D2000814D6544FF2129602900804D65442800AC
:103D3000FEF7F8FAC7B2142008F066FC0500494601
:103D40000091089B069A7A4903F032FFA3001B19E1
:103D5000DB00784A9D50404608F02BFB81460998CD
:103D600008F027FB8046079808F023FB011C4B4610
:103D70004246280003F034FF039A0021280003F094
:103D800029FF059A0121280003F024FF3A000221AF
:103D9000280003F01FFFB3E4002000E0002000280B
:103DA00052D0017A7F230B40043BD9B2082949D86D
:103DB0008B006149CB589F46007846E04168006817
:103DC000FEF701F841E041680068FEF715F83CE0B5
:103DD0000068002308AA30241219137012A9FCF7F6
:103DE000C3FB08AB1B191A787F231340043BDAB2DC
:103DF000082A20D89300514AD3589F4612AB18780E
:103E000023E012981399FDF7DEFF1EE01298139934
:103E1000FDF7F2FF19E01AAB00221A72190012988E
:103E2000FCF7A2FB1AA8FEF71BF80EE012981399F4
:103E3000FEF706F809E0029807E041680068FDF720
:103E4000FFFF02E0029800E0029800280AD04B46EB
:103E50009B004B44DA00374B9B181A79991848712C
:103E600001321A710135052D7ADC1AAB1A00414670
:103E700081C981C2324A08A98C46624411001800E7
:103E800090C890C12F499160190091CA91C12E4AE2
:103E9000624413CB13C22D4B63442B4A624413CAB2
:103EA00013C32B4961442B4B6344284A624491CA93
:103EB00091C30D6128486044284B6344254A6244FD
:103EC000D0CAD0C30F694761836801691800FCF745
:103ED00033FD002800D162E7027A530600D45DE783
:103EE000002800D15BE70068002800D157E77A1E60
:103EF000002F00D153E70A21435E002B00D14BE78E
:103F00001B01C0181700F2E774630000D86C0110A1
:103F1000E45B000054630000646300007063000011
:103F2000D05B0000DC5B0000F05B0000C85B0000C1
:103F30004422002068150020A46D0110C86D0110F6
:103F400024650000106D0110105C00000465000085
:103F50001065000014650000F45B0000FC5B0000CD
:103F60004C46A3001B19DB00F94AD3181B79002B20
:103F700000D112E31AAD2B00424603CA03C3F54B2E
:103F800008AA944663441A00290041C941C2F24A72
:103F90009A602A0043CB43C2F04B63442A0043CAD1
:103FA00043C3FF23EE4A624413601100ED486044AE
:103FB000FEF7B6F8A6003619F300E54EF618707451
:103FC0002B00424603CA03C3E74F08AB9C46674435
:103FD00008222900380008F011FBE44BBB600C22DA
:103FE0003900280008F00AFBE14B08AA9446634414
:103FF00007CD07C30623DF4A624413601100DE4881
:104000006044FEF78DF8F0742036002333700134DD
:10401000032C00DDF2E2E30032AA9B58002BF6D01D
:10402000E30093469B441AAD2B005A4603CA03C3D0
:10403000D24B08AA944663441A00290041C941C2E0
:10404000CF4999602A00C1CBC1C2CE4B63442A003C
:10405000C1CAC1C3CC4B63441E68CA4B63441868D1
:10406000FCF76AFCC94B08AA9446634418605E607A
:1040700006CB06C5031E04D0027A920601D4FEF7D1
:104080008FFCC34A08A98C4662441360C14A62444B
:104090001660002B01D1FFF785FB1AAD2B005A46A5
:1040A00003CA03C3BC4B63441A00290041C941C27F
:1040B000BA4A9A602A0043CB43C2B94B63442A00F0
:1040C00043CA43C3B74B6344B54A624443CA43C37C
:1040D000B54B6344B34A624443CA43C3B34B9A46A5
:1040E000B34B634452461A60B2496144B24B6344D5
:1040F000AD4A6244C1CAC1C3AD4B63441E684E6140
:1041000088680969FCF718FC3100FCF715FCFDF71D
:10411000FFFE03902B005946C0C9C0C3A74B08AA95
:104120009446634419002E0084CE84C19B49996053
:104130002900C4CBC4C1A24B63442900C4C9C4C371
:10414000A04B63449E4A6244C2CAC2C39E4B6344AE
:104150009C4A6244C2CAC2C39C4B63449C491960D6
:104160009C4961449C4B6344974A6244C1CAC1C3A1
:10417000964B63441B6898464B6188680969FCF755
:10418000DBFB4146FCF7D8FBFDF7C2FE05902B0098
:104190005946C0C9C0C3914B08AA9446634419004C
:1041A0002A00C0CAC0C18E49884699602900C4CB84
:1041B000C4C18C4B63442900C4C9C4C38A4B634443
:1041C000884A6244C2CAC2C3884B6344864A624476
:1041D000C2CAC2C3864B634451461960B021C901AB
:1041E0006144844B6344814A6244C1CAC1C3804B69
:1041F00063441B6899464B6188680969FCF79CFB1E
:104200004946FCF799FBFDF783FE069029005B46C3
:10421000C0CBC0C1784B08AA9446634419002A0059
:10422000C0CAC0C1414699602900C4CBC4C1734B08
:1042300063442900C4C9C4C3714B63446F4A6244D8
:10424000C2CAC2C36F4B63446D4A6244C2CAC2C38E
:104250006D4961445E4E0E606C4961446C4B634431
:10426000684A6244C1CAC1C3674B63441B6898462D
:104270004B6188680969FCF75FFB4146FCF75CFB12
:10428000FDF746FE804629005B46C0CBC0C1614BAE
:1042900008AA9446634419002A00C0CAC0C138491C
:1042A000894699602900C4CBC4C15B4B6344290093
:1042B000C4C9C4C3594B6344574A6244C2CAC2C347
:1042C000574B6344554A6244C2CAC2C3C521C9019F
:1042D000614453460B6053496144534B6344504A15
:1042E0006244C1CAC1C3C523DB0163441B689A464B
:1042F0004B6188680969FCF71FFB5146FCF71CFB02
:10430000FDF706FE824629005B46C0CBC0C1474B85
:1043100008AA9446634419002A00C0CAC0C149468D
:1043200099602900C4CBC4C1414B63442900C4C96E
:10433000C4C3404B63443E4A6244C2CAC2C33E4BFC
:1043400063443C4A6244C2CAC2C33C49614477E008
:10435000681500203C650000386D0110205C0000ED
:104360002C5C00001C5C0000306500003C6D0110FE
:10437000345C0000405C0000305C0000745D0000B4
:10438000D06C0110A4570000A85700006C5D00001D
:10439000985700009C57000044630000D86C01103F
:1043A000CC5700002463000034630000DC6C011073
:1043B00040630000B0570000B857000014630000CD
:1043C000F4570000F4620000046300001063000072
:1043D000E06C0110D8570000E0570000E4620000D4
:1043E000E86C01101C580000C4620000D462000098
:1043F000E062000008580000B46200004458000069
:1044000094620000A4620000B0620000285800001E
:1044100030580000846200006C58000064620000A4
:1044200074620000505800005858000054620000A8
:1044300094580000346200004462000050620000A2
:104440005A4E0E605A496144B123DB016344594A14
:104450006244C1CAC1C3584E664436684E6188681A
:104460000969FCF769FA3100FCF766FAFDF750FDBF
:1044700081461C2008F0C8F8060051460091069BB2
:10448000039A4E4903F0AEFCA3001B19DB004C4A13
:104490009E50484607F08DFF8146404607F089FF51
:1044A0008046059807F085FF011C4B4642463000C8
:1044B00003F0AAFC2B005A4603CA03C3414B08AAC7
:1044C000944663441A00290081C981C23E4A9A6019
:1044D0002A0083CB83C23D4B634407CD07C33C4BCB
:1044E00063443A4A624423CA23C33A4B6344384A7A
:1044F000624423CA23C3384B384A62441360384BA2
:104500006344344A624423CA23C3344B63441B6864
:104510000393344B6344039A1A60334B6344304A29
:10452000624423CA23C32F4B63441B6803932F4B5E
:104530006344039A1A602E4961442E4B63442A4A0D
:104540006244A1CAA1C3294B63441B684B61002389
:104550008B610DAB274A6244A1CAA1C34F69109772
:104560008D6911950D980F99FCF7E6F93900FCF764
:10457000E3F9002801D1FEF723FA027A530601D4A9
:10458000FEF71DFA002801D1FEF71AFA006800288C
:1045900001D0FEF70BFAFEF713FAD0231B064022D8
:1045A0005A6140329A61144805F054FCE06C0110E5
:1045B000785800004462000050620000442200204D
:1045C0006815002024620000D86C0110BC5800005F
:1045D0000462000014620000F06C01102062000010
:1045E000A8580000B4580000D4610000E061000049
:1045F000E4610000EC6100001C6D0110049B9A4610
:10460000CA4908AB9C4661443AAA0A60C84D4D604D
:104610001AAC0822200007F0F1FFC64B08AA944606
:104620006344220003CA03C3290040A8FCF784F9AD
:10463000C14908AB9C46614408603AAB4B60082214
:10464000200007F0DBFF1A9B1B9A002B03D0197A7E
:10465000890600D43CE122932392B84908AB9C46DA
:1046600061443AAA0A60B64D4D601AAC0822200097
:1046700007F0C4FFB34B08AA94466344220003CA60
:1046800003C3290040A8FCF757F9AF4908AB9C4683
:10469000614408603AAB4B600822200007F0AEFF8F
:1046A0001A9B1B9A002B03D0197A890600D411E1BA
:1046B00024932592A54908AB9C4661443AAA0A6016
:1046C000A34D4D601AAC0822200007F097FFA14BC4
:1046D00008AA94466344220003CA03C3290040A8E1
:1046E000FCF72AF99C4908AB9C46614408603AAB48
:1046F0004B600822200007F081FF1A9B1B9A002BB9
:1047000003D0197A890600D4E6E0269327929349CC
:1047100008AB9C4661443AAA0A60914D4D601AACC0
:104720000822200007F06AFF8E4B08AA94466344D3
:10473000220003CA03C3290040A8FCF7FDF88A49F8
:1047400008AB9C46614408603AAB4B6008222000ED
:1047500007F054FF1A9B1B9A002B03D0197A890685
:1047600000D4BBE028932992CB21C90108AB9C4619
:1047700061443AAA0A607D4D4D601AAC08222000BF
:1047800007F03CFF7A4B08AA94466344220003CA10
:1047900003C3290040A8FCF7CFF8764908AB9C4634
:1047A000614408603AAB4B600822200007F026FF06
:1047B0001A9B1B9A002B03D0197A890600D48FE02C
:1047C0002A932B926C4908AB9C4661443AAA0A6032
:1047D0006A4D4D601AAC0822200007F00FFF684BAD
:1047E00008AA94466344220003CA03C3290040A8D0
:1047F000FCF7A2F8634908AB9C46614408603AABF9
:104800004B600822200007F0F9FE1A9B1B9A002B30
:1048100002D0197A890665D52C932D925A4908AB96
:104820009C4661443AAA0A60584D4D601AAC082271
:10483000200007F0E3FE564B08AA9446634422008A
:1048400003CA03C3290040A8FCF776F8514908AB16
:104850009C46614408603AAB4B600822200007F098
:10486000CDFE1A9B1B9A002B02D0197A89063BD5E4
:104870002E932F92484908AB9C4661443AAA0A609D
:10488000464D4D601AAC0822200007F0B7FE444B9D
:1048900008AA94466344220003CA03C3290040A81F
:1048A000FCF74AF83F4908AB9C46614408603AABC4
:1048B0004B600822200007F0A1FE1A9B1B9A002BD8
:1048C00002D0197A890611D5309331925546A0E06D
:1048D0000023C0E60023EBE6002316E7002341E7B0
:1048E00000236DE7002397E70023C1E70023EBE7F0
:1048F00000785AE041680068FDF765FA55E04168C4
:104900000068FDF779FA50E000681AAB00221A72CD
:104910001900FBF729FE1AA8FDF7A2FA45E0416845
:104920000068FDF78DFA40E002983EE0C0650000A7
:10493000446D0110445C0000B8650000B0650000E3
:104940004C6D01104C5C0000A8650000A0650000E3
:10495000546D0110545C00009865000090650000E3
:104960005C6D01105C5C000088650000646D0110E6
:10497000645C000078650000706500006C6D0110DB
:104980006C5C00006865000060650000746D0110DB
:10499000745C000058650000506500007C6D0110DB
:1049A0007C5C00004865000002982A01BD4B9B1802
:1049B00058701AAB1A00210041C941C2BA4A08A96D
:1049C0008C46624411001800C0C8C0C1B7498C466B
:1049D00091601800C2CAC2C0B54A08A988464244BC
:1049E00043CB43C26146B24B43441868FBF7A4FF74
:1049F000002804D0037A5B0601D000239A46534670
:104A0000002B79D02A01A74B9B1800225A711A71EA
:104A10000135072D00DD3DE1EB0022AA9B58002B5C
:104A2000F6D0EC00944664441AAE3300220003CA68
:104A300003C3A04F08AB9C466744082231003800EE
:104A400007F0DCFD9C4BBB600C223900300007F006
:104A5000D5FD9A4B08AA9446634407CE07C3984BEA
:104A60001A93964B63441868964B63441968FBF796
:104A700063FF1AA9FCF71CF8013843425841C3B23E
:104A80009A46002800D18AE02B01864A01219954D8
:104A90001AAE3300220003CA03C38B4B08AA944604
:104AA0006344984608223100180007F0A7FD874BA1
:104AB000994643464A469A600C224146300007F028
:104AC0009DFD834B08AA9446634407CE07C349461D
:104AD0007F4B63441868FBF72FFF002800D163E782
:104AE000027A7F231340043BDAB2082A00D91BE77D
:104AF0009300784AD3589F466A4B98462F01022369
:104B0000BB464246BB541AAE3300220003CA03C35D
:104B1000714B08AA94466344994608223100180054
:104B200007F06CFD614B9A464B4652469A600C2248
:104B30004946300007F062FD684B08AA944663447A
:104B4000320083CA83C35146644B63441868FBF741
:104B5000F3FEFDF7DDF95F464744B870330006CC3D
:104B600006C35F4B08AA944663441A00310011C97A
:104B700011C25C4A94469A60320013CB13C25A4B5E
:104B800008AA9046434407CE07C36146564B4344A8
:104B90001868FBF7D1FEFDF7BBF9F87032E71AABE6
:104BA0001A00210041C941C2504A08A98C466244FA
:104BB00011001800C0C8C0C13F4991601900C1CAA6
:104BC000C1C14B4A624443CB43C24A4B1A93484B40
:104BD00063441868484B63441968FBF7ADFE1AA993
:104BE000FBF766FF01282AD12E4F2A0103239046A6
:104BF000D3551AAE330006CC06C3404C08AB9C46D6
:104C0000644408223100200007F0F8FC3C4B994630
:104C1000A3600C222100300007F0F0FC394B08AAF9
:104C20009446634407CE07C34946364B634418682D
:104C3000FBF782FEFDF76CF947447870E2E61AABA9
:104C40001A0003CC03C2304A08A98C466244110002
:104C5000180050C850C118499160190051CA51C17B
:104C60002A4A624413CB13C21E4B1A93274B634448
:104C70001868BA23DB0163441968FBF75DFE1AA9C3
:104C8000FBF716FF012800D0BCE62B01054A0421E2
:104C90009954B7E61E4B9D44F0BCBB46B246A946AC
:104CA000A046F0BD08160020D4650000C06C0110BD
:104CB000A85C0000C8650000846D0110885C0000DD
:104CC0008C6D0110905C0000E0650000B86C011074
:104CD000985C0000EC6D0110F8650000B85C000005
:104CE000EC650000946D0110C85C000004660000D3
:104CF000D85C00003C6D0110E05C00001066000014
:104D00009C6D0110E85C00001C660000F85C00006F
:104D10004C660000F0B5DE4657464E464546E0B5C7
:104D200089B007F023FE032003F0F6F9D02424060F
:104D30000823A36200220121032003F0F5F80F20CD
:104D400003F0EAF980231B02A362062003F0E4F9D2
:104D500040236362A361072003F0DEF980236362CE
:104D60006361192003F0D8F980239B0463626361B7
:104D700006A8FBF731FBBA4B0699079A19605A60EF
:104D8000B84B01221A700AF02DFF1F211A2003F0E0
:104D9000B3F8002200211A2003F0C6F800211A20DF
:104DA00003F0A2F9B04B1B68E022D2011340AF4AD6
:104DB0001360AF4B012208210F2003F039F9AD48F1
:104DC00004F0F2FA06A8FBF707FBAB4A00230698AB
:104DD000079906F0D5FB1000190006F0BBFE002273
:104DE000A64B06F0E0FD02000B00A54807F0B2FD5F
:104DF00002220021A34807F0ADFDA34B04221A6054
:104E0000994B1B68DB05FBD5974B5C68A0B207F09C
:104E1000D0FA07F0FDFA9D4A9D4B06F0E2FD06F040
:104E2000A5FE051C06A8FBF7D7FA934A00230698AF
:104E3000079906F0A5FB1000190006F08BFE002272
:104E40008E4B06F0B0FD02000B008D4E300007F0D7
:104E500081FD2104090C8F4807F07CFD06A8FBF7B3
:104E6000BBFA854A00230698079906F089FB1000D3
:104E7000190006F06FFE0022804B06F094FD020040
:104E80000B00300007F066FD281C07F0C1FA020095
:104E90000B00814807F05EFDFBF7B4FAFBF7CEFA92
:104EA000FF217E4801F01CF900240F2C0DDCE6B236
:104EB0007B4D00223100280001F03EFA0022310033
:104EC000280001F081FA0134EFE7FDF7B1FA06A8F6
:104ED000FBF782FA684A00230698079906F050FB10
:104EE0001000190006F036FE0022644B06F05BFD50
:104EF00002000B00624807F02DFD6A4D29786A4ACE
:104F00006A4807F027FD6A4C200002F06BF909227D
:104F10000821200002F018FA2978200001F0B8FCDE
:104F20000821200001F044FD6249200001F056FDF7
:104F30001421200001F0C8FD5F49200002F096F81E
:104F40000521200001F006FE0721200002F0FEF8F6
:104F50000121200001F0A4FC200001F04AFE002401
:104F600000E00134032C0BDCA3001B19DB00534AC7
:104F700098580028F5D003681B6802219847F0E78D
:104F8000002300E00133072B0ADC1A014C49525C74
:104F9000032AF7D119014A4A521801211171F1E788
:104FA00006A8FBF719FA344A00230698079906F079
:104FB000E7FA1000190006F0CDFD00222F4B06F095
:104FC000F2FC02000B002E4807F0C4FC3D4B1B789E
:104FD0003D4A12783D4909783D48007800903D48A7
:104FE00007F0B8FC00F067FF0132032A09DC9300E8
:104FF0009B18DB003149CB189B7C002BF4D01C00A4
:10500000F2E704F089FA002903DB334B186059609A
:10501000E9E0324B324A3F21324804F081FE013050
:105020008B005B18DB00254AD3181B7983420FDD08
:10503000002F0DD18B005B18DA00204B9B181B183A
:105040005A79294B1B789A42E9D1CEB22F00E6E774
:10505000013103294ADC002F48D10020E0E7C04697
:1050600098160020EF28002000C0044000D0044023
:10507000450300108813000040420F0000408F409D
:10508000806A0110106E011000E00440F25E92FC94
:1050900009EE823F246E0110306E011024220020A0
:1050A00044220020E12800206D150020446E0110EC
:1050B0007022002000C0644420A107006815002071
:1050C00008160020ED070020F0070020EF07002061
:1050D000F1070020586E011090160020C8560110EC
:1050E000E45601101C570110E6280020B34B1A7833
:1050F000B34B1B789A4200D18FE0B04BDB78412B49
:1051000005D0612B03D0522B01D0722B09D1AD4BAE
:105110001B78002B00D115E2AB4B1B78002B00D085
:105120003EE204F0F9F9002900DA4EE2A74A002332
:1051300006F026FA1000190006F00CFD0022A44B20
:1051400006F031FC02000B00A24807F003FCA24B62
:105150001D78A24B1E78A24B1F78A24801F09AFB43
:1051600000903B00320029009F4807F0F3FB04F059
:10517000D3F9002900DA2EE2944A002306F000FA5F
:105180001000190006F0E6FC0022914B06F00BFC23
:1051900002000B008F4807F0DDFB88480178C278D9
:1051A000437880780090914807F0D4FB002C00D120
:1051B00020E204F0B1F902000B1E00DA11E28C4982
:1051C00008684968121A8B4110001900FA229200EF
:1051D000002306F0B9F9874B1A780023994200DDC5
:1051E00008E200D103E27F4801F028FD051EDDD072
:1051F0007A4A002111707A4B1970774E0431317060
:10520000009232006D49774801F036FD3378042B67
:1052100087D10021002600271BE7684B9D78002DD1
:1052200000D06AE7002F00D167E7DB78672B0BD847
:10523000412B00D261E7413BDAB2262A00D95CE774
:1052400093006D4AD3589F46722B00D055E75B4BB5
:105250005B78002B00D136E13500B3009B19DB00F1
:10526000664A985803681B6802219847644B0122DC
:105270001A7000233AE1514B5B78002B01D00023D8
:1052800008E0574B1878002301224721FBF7F6F876
:10529000F5E70133072B0DDC19015A4A52185278F1
:1052A000B242F6D10A005749525C032AF1D11B01E0
:1052B000CB181D794A4B197803223000FBF70AF905
:1052C000B346B3009E19F6004C4BF05803685B6878
:1052D000984701281DD05A4693005B44DB00474A9B
:1052E000985803681B6800219847454B01221A70A3
:1052F0005A4693009D18ED00404B5D190023AB7496
:1053000006A8FBF769F8404B0699079A19605A609E
:10531000F3E6002DDFD128225B465A43374B9B181A
:1053200020331B78002BE3D1384B1B78FA229200F4
:105330005A43924628275B465F43304BFF1803F0E1
:1053400043FE804604F0E8F804900591002928DB2C
:10535000049A059B91461E00FA22920000235046B3
:10536000002106F09DFF049A059B12184B419E42B6
:1053700002D804D1914502D901225242D317002B01
:1053800015DB01260296019721490091404603F062
:1053900031FE28225B465A43184B9B1820331E705F
:1053A000A6E71C4B1C4A3F211C4804F0B9FC194BD2
:1053B000194A3F21194804F0B3FCC046B828002020
:1053C000E1280020EE070020E728002040420F00DF
:1053D00000408F40806A0110EC280020F228002055
:1053E000E628002070220020986E0110C06E011087
:1053F00090160020F0070020586F0110681500205B
:10540000E32800200816002060150020EC0700208B
:105410000D030010C8560110E45601101C5701106E
:10542000C34B5B78002B46D03700B3009B19DB00E1
:10543000C04A985803685B689847002812D0282310
:105440007343BC4A985803685B689847012809D0A1
:1054500028237343B74A985803685B689847042821
:1054600000D04AE6B34B9846BD00EB19DB0042463C
:10547000985803681B6801219847AF4B01221A70A6
:10548000AE4B19783000FBF725F8EB19DB004344ED
:1054900000229A7406A8FAF79FFFA94B0699079A6B
:1054A00019605A6006A8FAF797FF4146069A079BCB
:1054B0008A61CB6121E6A14B187800230122522199
:1054C000FAF7DCFFB0E79D4B187800230122412159
:1054D000FAF7D4FFC0E69B48095C03290ED11801F6
:1054E000984909180120487108E00133072B12DCA4
:1054F0001901944A52185278B242ECD0B242F4D117
:105500001A019049525C012AEFD119018D4A5218B3
:1055100001215171E9E7874EAB005B19DB00F318FD
:1055200000229A7406A8FAF757FF854B0699079A46
:1055300019605A6006A8FAF74FFF069A079BB261F6
:10554000F361DAE5804801F003F9002500E0013558
:10555000032D1EDCAB005B19DB00764A985800284F
:10556000F5D00368DB6879499847AB005B19DB002D
:10557000704A985803685B6898470428E7D1AB00E5
:105580005B19DB006B4A985803681B680021984739
:10559000DDE76F4B01221A706E4B00221A70C0E5D6
:1055A000002500E00135032D0BDCAB005B19DB00AF
:1055B000604A98580028F5D00368DB68634998472B
:1055C000F0E7644B00221A70ABE5634B634A3F215E
:1055D000634804F0A5FB604B604A3F21604804F03B
:1055E0009FFB5D4B5D4A3F215D4804F099FB904273
:1055F00000D8F8E503F090FF02000B1E23DB5949A9
:10560000086849681C0013001B1A8C411A00002C02
:1056100003DC16D1544B9A4213D9544A1378012112
:105620004B40DBB21370002B13D0D0231B0680221B
:1056300092045A6103F070FF002910DB494B186097
:105640005960002331E0444B444A3F21444804F070
:1056500067FBD0231B06802292049A61EAE73E4B47
:105660003E4A3F213E4804F05BFB324A5218101874
:105670000122C2720020002500E0013084420ADDD0
:105680009A00D218D1002B4A52181218D27A002A46
:10569000F3D10125F1E7002D25D09A00D218D200D0
:1056A00024498A18002191740133032B2BDC9A00C2
:1056B000D218D2001F498A18927C0A2AF4D90020F5
:1056C0009A00D218D2001B498A1814798442D1DD7D
:1056D0009A00D218D100174A52181218D27A002A0A
:1056E000C3D00130ECE70022072AD6DC10011549AF
:1056F00009184978994201D00132F5E711490A1891
:1057000011795171C9E71A4800F062FD002446E0A2
:1057100003F002FF002905DB22010A4B9B18986069
:10572000D9604BE00C4B0D4A3F210D4804F0F8FACC
:10573000B828002068150020E3280020E628002073
:1057400060150020081600204422002000007F433E
:10575000EE070020E7280020C8560110E45601108B
:105760001C570110981600203F420F00EF28002020
:10577000242200202201C64B9B185B79002B01D00C
:10578000002844D02201C24B9B181B79002B05D165
:105790002201BF4B9B189B79002B57D10134072C5A
:1057A00000DD87E0E1B20022BA4800F08FFD22015F
:1057B000B74B9B189871DB799842A9D1B44B220161
:1057C00099188879C871D35C012BD3D0032BD1D021
:1057D000022BCFD0042BE1D103F09EFE02000B1E62
:1057E00062DB2001AA4909188868C968121A8B412E
:1057F000002B03DCD2D1A84B9A42CFD92201A44B73
:105800009B189A791A71A54B01221A70C6E703F00A
:1058100083FE02000B1E13DB20019D4909188868D6
:10582000C968121A8B41002B03DCABD19A4B9A4208
:10583000A8D92201964B9B1800225A711A71ADE724
:10584000974B984A3F21984804F06AFA03F064FEA7
:1058500002000B1E22DB20018D4909188868C968E7
:10586000121A8B41002B03DC98D1904B9A4295D9A8
:105870002201874B9B1801221A71002105298DDC1A
:105880002201834B9B185A7893009A18D200884BB8
:105890009B185B180022DA720131EFE7804B814AD6
:1058A0003F21814804F03CFA7D4B7E4A3F217E48EF
:1058B00004F036FAFF21774800F012FC00242BE1B7
:1058C0002201734B9B181D79002D00D123E1704BF1
:1058D0009B185E79002E00D01DE1764B1B78002BC3
:1058E00015D0754B1B78002B26D12301684A9B5C91
:1058F000022B00D0C6E0130022019A18D2781201C0
:105900009B181979002900D1BEE000202AE0002769
:1059100000E00137032F0BDCBB00DB19DB00644A1E
:1059200098580028F5D003681B6800219847F0E7D5
:10593000604B01221A70D4E7002700E00137032FE3
:105940000BDCBB00DB19DB00594A98580028F5D066
:105950000368DB6859499847F0E7574B00221A70F3
:10596000C3E7013022014A4B9B189A7893009B1899
:10597000DB004F4DEB181B79834209DD93009A1829
:10598000D200AB181B18DB7A002BEAD10E00E8E737
:1059900093009B18DB00464A985803685B68984759
:1059A000002804D0002E00D1B5E0002000E0002047
:1059B0002201374B9B1899788B005B18DB003C4A1F
:1059C000D3181B79834213DD8B005B18DA00384B48
:1059D0009B181B18DB7A002B01D00130E8E7344B11
:1059E0009B1818184079002300225221FAF746FD2F
:1059F0002201274B9B1898782D4983001A18D20052
:105A00008A18927C1B18DB00CB1801329A7403F0C1
:105A100083FD002919DB2A4A002305F0B1FD10009F
:105A2000190006F097F80022264B05F0BCFF020093
:105A30000B00254806F08EFF2201154B9B18997824
:105A4000224806F087FF002306E0154B154A3F2148
:105A5000154804F065F90133072B5CDC1A010C4989
:105A6000525C032AF7D10A002101511889781801E4
:105A7000121852789142EED1054A12180021517144
:105A80001171E8E7002124E00E00002121E0C0466A
:105A9000081600202422002050C30000E328002024
:105AA000C8560110E45601101C570110881300005D
:105AB00068150020EE070020E728002000007F4343
:105AC00040420F0000408F40806A0110E86E0110D4
:105AD00001312201A94B9B185A7893009B18DB00D7
