:020000041000EA
:1000000000B5324B212058609868022188439860DF
:10001000D860186158612E4B002199600221596106
:100020000121F02299502B49196001219960352056
:1000300000F044F80222904214D00621196600F024
:1000400034F8196E01211966002018661A6600F04E
:100050002CF8196E196E196E052000F02FF8012189
:100060000842F9D1002199601B49196000215960AB
:100070001A491B48016001219960EB211966A021F2
:10008000196600F012F800219960164914480160C1
:100090000121996001BC002800D000471248134993
:1000A000086003C880F30888084703B5996A0420EC
:1000B0000142FBD001200142F8D103BD02B5186610
:1000C0001866FFF7F2FF186E186E02BD00000240BE
:1000D000000000180000070000035F00212200005C
:1000E000F4000018222000A00001001008ED00E03C
:1000F00000000000000000000000000074B24E7A12
:1001000000200420F7010010C3010010C5010010F9
:10011000C1010010C1010010C1010010C101001097
:10012000C1010010C1010010C1010010C701001081
:10013000C1010010C1010010C9010010CB01001065
:10014000CD010010CD010010CD010010CD01001037
:10015000CD010010CD010010CD010010CD01001027
:10016000CD010010CD010010CD010010CD01001017
:10017000CD010010CD010010CD010010CD01001007
:10018000CD010010CD010010CD010010CD010010F7
:10019000CD010010CD010010CD010010CD010010E7
:1001A000CD010010CD010010CD010010CD010010D7
:1001B000CD010010CD010010CD010010CD010010C7
:1001C00000BE00BE00BE00BE00BE00BE00F04BF888
:1001D000103800BEF2EB8871E4AD011018AE0110CA
:1001E0003402001090A31AE700202149086006C8D5
:1001F00081F3088810471F48006800282FD10DA4FC
:100200000ECC002902D000F012F8F9E71A491B4A77
:10021000002000E001C19142FCD1194988471949E9
:1002200088471949884700BEFDE701C901C29A42C3
:10023000FBD3704718AE0110C000002060140020EE
:10024000B8C101100000042000000420B8C1011052
:1002500000100420001004200000000070470B482C
:100260000BF0BEFD0047EFF30580C0B27047000001
:1002700008ED00E0000000D06014002004290020F8
:10028000E1A60010CD5000109DA6001057560000AA
:1002900006005250ABB36053248F01100600525039
:1002A000861C0302348F0110060052505422A29D76
:1002B000408F011005005250DE65F468B8C101108E
:1002C000F8B5C04610B5064C2378002B07D1054B76
:1002D000002B02D0044800E000BF0123237010BDB2
:1002E000A816002000000000E05F0110044B10B5CC
:1002F000002B03D00349044800E000BF10BDC046F6
:1003000000000000AC160020E05F011070B5040092
:100310000D000F2804D02900200008F0EBFA70BD72
:10032000014807F01BFEF6E77C22002010B582B0E2
:10033000012801D002B010BD114B9942FAD107211A
:10034000104B06E000221A715A719A71DA7110335B
:1003500001390029F6DA0C4C202221000B4806F066
:1003600057FB0B4B012221000A4806F05EFC0023DC
:1003700000930F3311220849084806F0CFFED9E751
:10038000FFFF000010160020D40B002030220020B8
:10039000008065425022002000C003407C220020E3
:1003A00010B5040009F050FD002903DB20606160F6
:1003B000200010BD024B034A3F2103480AF072F9A6
:1003C000E05F0110FC5F01103460011010B50C1EDD
:1003D00008D0086803685B689847022805D1202385
:1003E0000022E2540020002110BD09F02DFD00295B
:1003F0001CDB114A00230BF089FD100019000CF0E2
:100400007BF800220D4B0BF094FF02000B000C4810
:100410000CF072FF0B480CF03DFF206803681B686E
:1004200000219847084B01221A70D8E7074B084A69
:100430003F2108480AF036F940420F0000408F4043
:100440007C60011088600110F2280020E05F01103C
:10045000FC5F01103460011010B50B490B480FF020
:1004600093FF0321042008F0DFF90321052008F0A1
:10047000DBF900220121042008F0EEF9002201211D
:10048000052008F0E9F910BD40420F00D40B002010
:1004900010B50D4C0D49200010F042F8012110203C
:1004A00008F0C2F90121122008F0BEF90121132041
:1004B00008F0BAF9236807225A40CF23134080205E
:1004C00040012043036010BD00C00340404B4C007E
:1004D00010B51400114A1070D17054709370042339
:1004E000FF210F4807F0CCFB002809D1D0231B06C1
:1004F00040225A6140329A610A4B7F3A1A7010BD0D
:10050000084B1B78002BFAD0D0231B0640229A619F
:1005100040325A61034B00221A70F0E7C4280020D1
:100520007C220020FD28002070B5002500E0013568
:1005300083001B18DB00344CE3181C79AC420EDD41
:1005400083001B18DC00304B1B195B195B798B4255
:10055000EDD12D4B1B195B190124DC72E7E7002557
:10056000002600E00135AC4211DD83001B18D900E4
:10057000254B5B185B19DB7A002BF3D1AB005B19C1
:10058000DB002149CB18002199740126EAE7002EEF
:1005900039D1002311E029001C4D495D914214D14D
:1005A0001D011A49491901254D719900C918C90041
:1005B000154D691800258D740133072B16DC1D01BC
:1005C0001249491949788142E5D0022AF4D11D0126
:1005D0000E49491989788142EED10C494D19ED78BF
:1005E0002D01491909790029E6D0D9E700218C426B
:1005F00009DD83001B18DA00034B9B185B180022EF
:10060000DA720131F3E770BD70150020101600207A
:1006100010B50A4B04221A60094B1B68DB05FBD599
:10062000074B586880B20CF096FB0CF0C3FB054AF0
:10063000054B0BF09CFE0BF06BFF10BD00E004407F
:1006400000C00440BF102B4AE323833F7047016082
:100650004260704770470000F0B5DE4657464E4690
:100660004546E0B587B081468B46011E09D001782A
:100670002B290CD02D2910D12C398C46E1448A46E7
:100680000DE0BD4BBD4A1A31BD480AF00BF80121FF
:100690008C46E14400218A4601E000218A46494611
:1006A000087801003039C9B2092905D92E2800D0AF
:1006B00058E10024002501E0002400254E4636784C
:1006C000B046303EF6B2B446092E22D8AD4EB54201
:1006D0001FD81BD0A60FAB003343A200A4185D4166
:1006E00026002F00B6197F4134003D00009401958B
:1006F00060460021C643B4467E1C16D0009C019D76
:1007000024184D410126B446E144D7E79E4EB44239
:10071000E0D9404600282ED15346002B1CD0802320
:100720001B069D4204D9002626E06445E6D9F0E781
:100730009D4201D1002CF6D100236242AB415946C3
:10074000097A7F208143584601720A2001435846A6
:1007500001720260436007E15B461B7A7F2293438C
:100760005A461372082213435A4613721460556096
:1007700001239A46F8E0002680235B039D420AD3BA
:100780000A220023200029000BF0C0FB04000D000A
:10079000013636B2F0E749460A781300303BDBB247
:1007A000092B03D8013636B20131F5E789462E2AE6
:1007B0000FD04B461B78652B35D0452B33D000230B
:1007C000F6184B461F78002F00D18FE000239A4681
:1007D000CAE001239C46E144B4464A4613E0A70F11
:1007E000A9003943A00024184D4124196D410293FA
:1007F00000230393029E039FA4197D416646013E98
:1008000033B29C4601321378303BDBB2092B07D858
:100810005E4FBD42F6D8E2D15D4FBC42F2D8DEE772
:1008200066469146C5E74B46581C5B782D2B04D095
:100830002B2B05D0002700232AE001300127FAE7FF
:10084000484602300027F6E70020002138E05346F2
:10085000002B17D000204F49FFF7FCFE80231B061A
:100860009C4661445B461B7A7F2293435A4613722F
:100870000C2213435A46137202000B0059460A60B9
:100880004B6029E000204349FFF7E4FEEAE701302E
:10089000027811003039C9B2092920D89900CB1843
:1008A0005B00303A9B18F1189A2252009142EEDD1B
:1008B000002FCCD05346002BC6D000208021090643
:1008C0005B461B7A7F2293435A4613720C221343D2
:1008D0005A4613721060516001239A4644E0002F7B
:1008E00002D05B4281466BE7814669E72000290020
:1008F0000BF002FE04000091002E04DD264D002EB8
:1009000006DC764204E0254DF9E776100137FFB2A8
:10091000002E0CD0F307F8D5FB00EB181A685B68C3
:10092000200000990BF023FD04000091EDE75346F1
:10093000002B05D0009B802212069446634400934E
:100940005B461B7A7F2293435A4613720C22134351
:100950005A4613722200009B59460A604B600123DD
:100960009A4601E000239A46504607B0F0BCBB46C9
:10097000B246A946A046F0BD98600110A0600110E3
:100980000861011099999919999999999999010072
:10099000989999990000F07F387D0110F07C011042
:1009A0007047000010B5FFF7FBFF0068002800D07B
:1009B00010BD0148FCE7C046D867011001607047D0
:1009C00082B0F0B583B00993002912D06B4609AC10
:1009D0001D00C0CCC0C5040060CB60C400230372FE
:1009E000C26043748374416103B0F0BC08BC02B0C0
:1009F0001847034B034A1431034809F053FEC0461D
:100A00006861011074610110B862011010B584B002
:100A1000027A7F231340043BDAB2082A24D89300D9
:100A2000134AD3589F4600780BF00EFD1EE0416834
:100A300000680BF061FD19E0416800680BF050FDA3
:100A400014E000686C46002323722100FFF704FEC7
:100A5000002C03D02000FFF7D9FF07E00020002181
:100A600004E04168006801E00020002104B010BDEE
:100A7000206301100123002904D104D18022120631
:100A8000904200D30023D8B270474B1C0EDB4B1CA6
:100A900003D180231B06984208D3002908DC03D128
:100AA00080231B06984203D2012000E000207047FB
:100AB0000020FCE710B50400FFF7DCFF002801D0A0
:100AC000200010BD0020FCE710B50400FFF7DDFF9B
:100AD000002801D0200010BD0020FCE7F0B5CE4674
:100AE000474680B583B000900191150000280CD0D6
:100AF000002A10D0019B9846100015F01DF9814680
:100B000080450ED24746002426E0254B254A162173
:100B1000254809F0C7FD254B224A1721224809F034
:100B2000C1FD0700EFE7224B224A7321224809F05A
:100B3000B9FD224B1F4A74211F4809F0B3FD1C4B1D
:100B40001F4A23211C4809F0ADFD1C4B1C4A2421DF
:100B5000194809F0A7FD0134BC4216D2009B002BB6
:100B6000E1D0019A9442E4D81E5D002DE7D0280020
:100B700015F0E2F88442E8D8285DB042EBD0301A94
:100B800003B0C0BCB946B046F0BDC84502D304D8D6
:100B90000020F5E701204042F2E70120F0E7C046DF
:100BA00044630110546301102C650110906501101D
:100BB000A0650110AC650110F865011060660110B8
:100BC0006C66011000B583B000910192020008002C
:100BD0000199FFF783FF404203B000BD70B582B0BA
:100BE000031E08682AD0197A7F220A40402A1BD89F
:100BF000920017498A5897461D685E68FFF726FDE0
:100C00000400320029006846FFF721FD0099019A8F
:100C10002000FFF7D7FF002804DB01DC012012E0F1
:100C2000042010E002200EE0FFF710FD002801D0A4
:100C3000002008E0013006E0002004E0FFF706FD98
:100C4000002802D0002002B070BD0130FBE7C04692
:100C5000C4660110F0B5C64600B584B0020002AB10
:100C600000211980039104000C34437C002B03D035
:100C7000157C0023537434E0A379002B0BD1C36897
:100C8000591CC1601B78002B0BDD002B0CDB237182
:100C900001236371ECE7914B914A2531914809F0AA
:100CA00001FD0121A171F0E70023F0E78B4B8C4A95
:100CB00025218C4809F0F6FC0121A1711DE023716A
:100CC00001236371137C002151749D4200D1FCE02B
:100CD000002B00D1FBE05C2B13D01168481C106086
:100CE0000B70537C002BEDD1A379002BDED1236850
:100CF000591C21601B78002BDEDD002BDFDA00237E
:100D0000DDE7A3799846002B1AD12368591C21608E
:100D10001B78002B1ADD002B1BDB23710123637171
:100D2000107C002800D1D4E0752814D06E490B78CF
:100D3000002B00D1C4E0984200D1C0E00231F6E7B8
:100D4000664B674A2531674809F0ACFC0121A17167
:100D5000E1E70023E1E7002353740021002024E0B1
:100D60009F79002F0BD1D7687E1CD6603F78002F6B
:100D70000BDD002F0CDB1F7101275F711CE0574B4F
:100D8000574A2521574809F08DFC01269E71F0E74E
:100D90000027F0E7303BDBB20F2B20D809011943C5
:100DA00089B2002353740130C0B203280ED8130057
:100DB0000C33577C002FD3D0137C002B0DD0402B4D
:100DC000E8D92027BB43373BDBB2E5E7002000280A
:100DD00007D004B080BCB846F0BD0220F7E703207E
:100DE000F5E7A0239B01CB189BB28020C000834273
:100DF00016D390239B01CB189BB28020C000834266
:100E000013D30391012398464346002B00D168E792
:100E1000039B7F2B17D81168481C10600B7060E78C
:100E20008905890D02AB1980EEE702A803889B02B1
:100E30008905890D0B43802149028C466344039345
:100E400001239846E0E70021684601703F201840E2
:100E500080390143684641709B0999B21F290FD818
:100E6000402149420B4383706B460333013B1978A1
:100E7000002900D135E71068461C16600170F5E7BF
:100E80003F20184080235B420343684683708809F3
:100E90000F2806D820235B4218436B46D87001AB5D
:100EA000E4E73F231840BF3B03436846C370090B88
:100EB00010235B4219436B4601710533D6E74B782B
:100EC000002B08D00021517407E7002081E70220A1
:100ED0007FE702207DE703207BE7C046DC67011047
:100EE000E467011064680110C8670110012300293C
:100EF00002D102D1FF2800D90023D8B2704710B523
:100F00000400FFF7F3FF002801D0E0B210BD00207D
:100F1000FCE700290ADB0123002902DD0023D8B207
:100F200070470029FBD1FF28F9D9F7E70020F7E740
:100F300010B50400FFF7EDFF002801D0E0B210BDAE
:100F40000020FCE770B504000D00002200230BF028
:100F50005FFA002809D00022064B200029000BF080
:100F60004FFA002803D0012000E0002070BD0020CF
:100F7000FCE7C04600E06F4070B504000D00FFF7CD
:100F8000E1FF002805D0200029000BF09DFAC0B237
:100F900070BD0020FCE7000010B588B0027A7F2306
:100FA0001340043BDAB2082A46D89300244AD358A7
:100FB0009F46007841E041680068FFF7A0FF3CE0F1
:100FC00041680068FFF7B4FF37E0006800236A4615
:100FD00013726946FFF740FB6B461A7A7F23134072
:100FE000043BDAB2082A20D89300164AD3589F4609
:100FF0006B46187821E000980199FFF780FF1CE00C
:1010000000980199FFF794FF17E004AC00232372C6
:1010100021000098FFF720FB2000FFF7BDFF0CE048
:1010200000980199FFF7A8FF07E0002005E041685C
:101030000068FFF7A1FF00E0002008B010BDC04627
:10104000BC680110E068011010B58CB0002876D0A3
:10105000027A7F231340043BDAB2082A6DD893004A
:10106000384AD3589F4600786AE041680068FFF725
:1010700046FF65E041680068FFF75AFF60E00068DE
:1010800000236A4613726946FFF7E6FA6B461A7A3E
:101090007F231340043BDAB2082A47D893002A4A38
:1010A000D3589F466B4618784AE000980199FFF79D
:1010B00026FF45E000980199FFF73AFF40E0002342
:1010C0006A46137604A90098FFF7C6FA6B461A7EA3
:1010D0007F231340043BDAB2082A20D893001B4A2E
:1010E000D3589F4604AB18782AE004980599FFF777
:1010F00006FF25E004980599FFF71AFF20E008ACE9
:101100000023237221000498FFF7A6FA2000FFF7BE
:1011100043FF15E004980599FFF72EFF10E000202B
:101120000EE000980199FFF727FF09E0002007E093
:1011300041680068FFF720FF02E0002000E0002087
:101140000CB010BD04690110286901104C69011030
:1011500070B504000D000022094B0BF059F900286E
:1011600009D0084A084B200029000BF049F9002853
:1011700003D0012000E0002070BD0020FCE7C04645
:101180000000E0C10000C0FFFFFFDF4170B50400B8
:101190000D00FFF7DDFF002804D0200029000BF030
:1011A0006FF970BD0020FCE710B588B0027A7F238C
:1011B0001340043BDAB2082A46D89300244AD35895
:1011C0009F46007841E041680068FFF773FC3CE00F
:1011D00041680068FFF778FC37E0006800236A4642
:1011E00013726946FFF738FA6B461A7A7F23134069
:1011F000043BDAB2082A20D89300164AD3589F46F7
:101200006B46187821E000980199FFF753FC1CE029
:1012100000980199FFF758FC17E004AC00232372F3
:1012200021000098FFF718FA2000FFF7BDFF0CE03F
:1012300000980199FFF7AAFF07E0002005E0416848
:101240000068FFF7A3FF00E0002008B010BDC04613
:101250007069011094690110F0B5C64600B505002B
:101260000E0000280BD000290FD014F065FD804639
:10127000300014F061FD40453CD1002424E0204BB7
:10128000204A3121204809F00DFA204B1D4A322115
:101290001D4809F007FA1E4B1E4A23211E4809F07B
:1012A00001FA1E4B1B4A24211B4809F0FBF9184B7D
:1012B000184A2321184809F0F5F9184B154A24213A
:1012C000154809F0EFF90134444517D2002DE2D05A
:1012D000280014F031FD8442E3D82F5D002EE6D0C3
:1012E000300014F029FD8442E7D8335DBB42EAD0D8
:1012F000002000E0002080BCB846F0BD0120FAE7E5
:1013000044630110B86901102C650110906501104B
:10131000A06501106C660110F8650110606601108F
:10132000F0B5DE4657464646C0B58CB00400884648
:101330006A46D371DBB2002B00D18DE303000C337E
:10134000427C002A24D0237C7B2B3BD10023637476
:1013500023000C33627C002A3AD0237C002B51D02E
:10136000202B09D8092B07D3093BDBB201229A4075
:101370001300B34A13424CD1012323720026002EDE
:101380004AD030000CB0E0BCBB46B246A846F0BD27
:101390009A79002A0BD1C268511CC1601278002AC8
:1013A0000BDD002A0CDB1A7101225A71CBE7A54B29
:1013B000A54A2521A54809F075F901219971F0E7A1
:1013C0000022F0E7A24BA34AF421A34809F06AF9EE
:1013D0009A79002A0BD1E268511CE1601278002A48
:1013E0000BDD002A0CDB1A7101225A71B5E7954B0F
:1013F000954A2521954809F055F901219971F0E7A1
:101400000022F0E7237A002B01D10126B7E702265C
:10141000B5E7002363749BE723000C33627C002A4A
:1014200007D0237C7D2B1ED10023637401330093EE
:101430001BE09A79002A0BD1E268511CE160127816
:10144000002A0BDD002A0CDB1A7101225A71E8E731
:101450007C4B7D4A25217D4809F024F901219971B1
:10146000F0E70022F0E700230093009B002B00D15F
:1014700051E286E79A79002A0BD1E268511CE160BB
:101480001278002A0BDD002A0CDB1A7101225A7136
:1014900049E26C4B6C4A25216C4809F003F90121A3
:1014A0009971F0E70022F0E78379002B0BD1E36814
:1014B0005A1CE2601B78002B0BDD002B0CDB037148
:1014C000012343713CE25F4B5F4A25215F4809F0ED
:1014D000E9F801228271F0E70023F0E7E5215F4B94
:1014E0005F4A49005C4809F0DDF8012102E0012172
:1014F00000E00099002924D1032041E00121F9E70F
:101500008379002B0BD103685A1C02601B78002BD7
:101510000BDD002B0CDB0371012343711AE0494BF7
:10152000494A2521494809F0BDF801228271F0E7B6
:101530000023F0E70A0002E00A0000E0009A002A17
:1015400019D0002262742268551C25601370637CD8
:10155000002BD5D0237C2F2B01D9392BEAD95E2B38
:1015600001D97A2BE8D9402BE8D95A2B01D9009A16
:10157000E5E70A00E3E7300002E02000FFF76AFB3E
:10158000002800D056E222000C32637C002B36D0BB
:10159000237C002B4DD0202B09D8092B07D3093BE6
:1015A000DBB201229A401300254A13425AD101238B
:1015B0002372002800D03FE223000C33627C002A13
:1015C00053D0237C3A2B6AD10023637401339A46AB
:1015D0005346002B00D131E200232268137060686B
:1015E00023681B1A03AA0390049301231372FFF7C5
:1015F0002DF88346051E67D043461D6854E0937955
:10160000002B0BD1E368591CE1601B78002B0BDD2C
:10161000002B0CDB137101235371B9E7094B0A4A04
:1016200025210A4809F03EF801219171F0E70023D5
:10163000F0E7237A002B01D10120BAE70220B8E7B6
:1016400013008000DC670110E4670110646801107A
:10165000986B0110AC6B01105C6D01106083011080
:10166000BC6D0110002363748DE79A79002A0BD1B9
:10167000E268511CE1601278002A0BDD002A0CDBC5
:101680001A7101225A719CE7C44BC54A2521C548ED
:1016900009F008F801219971F0E70022F0E7009BBA
:1016A0009A4695E71B01ED18002D0DD0E868FEF76E
:1016B000CDFF01005846FFF7CFFD002804D10A22D4
:1016C000AB5E002BEED10025002D39D0291E37D07E
:1016D0006B46DB79002B00D1ABE0013BDBB2002293
:1016E000200000F0C1F9002800D0ABE122000C324C
:1016F000637C002B00D1A2E0237C002B00D1B8E05A
:10170000202B0AD8092B08D3093BDBB201229A40CF
:101710001300A54A134200D0B2E00123237200282F
:1017200000D091E123000C33627C002A00D1AAE0B2
:10173000237C7D2B00D0C0E0002363745146BDE0C4
:1017400000232268137061682268501A09AB09915E
:101750000A90012119720132226003AA03CB03C24D
:101760001B78137063695A6810329D68AA4213D8B7
:10177000103D9D60002D11D042465268002A2FD0A6
:1017800019688A4202D3DB689A4209D3874B884A98
:101790001421884808F086FF01221A74002527E0EA
:1017A000002D0BD0AB1A1911834883420CDB834800
:1017B00083420FDC518143465D6014E0804B814AD7
:1017C0004721814808F06EFF804B7E4A48217E48C1
:1017D00008F068FF7E4B7B4A4A217B4808F062FF95
:1017E00043461D605D6000236B8100222A72EB601E
:1017F000002D00D124E106AA03AB83CB83C2069B54
:10180000002B0BD006AA127A012A0DD0297A802249
:1018100052420A432A72EB60290059E76D4B6E4A27
:101820005021694808F03EFF297A7E320A402A7228
:10183000F1E76A4B6A4A13216A4808F033FF93794B
:10184000002B0BD1E368591CE1601B78002B0BDDEA
:10185000002B0CDB1371012353714DE74F4B504AA2
:101860002521504808F01EFF01219171F0E7002367
:10187000F0E7237A002B01D1012050E702204EE748
:101880000023637432E79A79002A0BD1E268511C75
:10189000E1601278002A0BDD002A0CDB1A710122AC
:1018A0005A7145E73D4B3E4A25213E4808F0FAFE75
:1018B00001219971F0E70022F0E70099002900D09A
:1018C000C4E023000C33627C002A4FD0237C2C2BF5
:1018D00002D1002363745146002900D1B8E02200F0
:1018E0000C32637C002B00D180E0237C002B00D1E4
:1018F00096E0202B0AD8092B08D3093BDBB2012242
:101900009A401300284A134200D090E0012323722A
:10191000002800D09EE02368636023000C33627CC3
:10192000002A00D1A6E5237C272B00D125E6222B17
:1019300000D122E620000C30637C002B00D1B3E5FF
:10194000237C002B00D1C9E52F2B02D9392B00D8DD
:10195000CBE55E2B02D97A2B00D8C8E5402B00D806
:10196000C7E55A2B00D8C9E50099C3E59A79002A42
:101970000BD1E268551CE5601278002A0BDD002AC5
:1019800032DB1A7101225A71A0E7044B044A253157
:10199000044808F087FE01259D71F0E7DC6701101F
:1019A000E46701106468011013008000CC6E011020
:1019B000E06E01106C6F01100000F8FFF0FF0700EF
:1019C000D06F0110DC6F011048700110A870011079
:1019D000E470011020710110247101108071011058
:1019E0008C710110147201100022CAE79379002B48
:1019F0000BD1E368591CE1601B78002B0BDD002B39
:101A00000CDB1371012353716FE7144B144A25212A
:101A1000144808F047FE01219171F0E70023F0E738
:101A2000237A002B01D1012072E7022070E7002306
:101A3000637454E70600A4E40600A2E40326A0E4CD
:101A400004269EE406009CE406009AE4060098E45E
:101A5000032696E4060094E4052692E4DC67011070
:101A6000E46701106468011070B586B004000E00D0
:101A700022000C32617C002928D0227C002A3FD031
:101A8000202A09D8092A07D3093AD2B20121914064
:101A90000A00BA490A423AD1012222720025002DD9
:101AA00000D08EE022000C32617C002932D0227CF2
:101AB0007B2A00D94AE15B2A46D35B3AD1B220297E
:101AC00000D943E18A00AE498A58974691790029A6
:101AD0000BD1E168481CE060097800290BDD002982
:101AE0000CDB117101215171C7E7A64BA64A2521D4
:101AF000A64808F0D7FD01209071F0E70021F0E73B
:101B0000227A002A01D10125C9E70225C7E7002270
:101B10006274ADE7917900290BD1E168481CE0605F
:101B2000097800290BDD00290CDB117101215171AD
:101B3000BDE7944B944A2521944808F0B3FD012059
:101B40009071F0E70021F0E7222A02D0272A00D086
:101B5000FCE0236863602000FFF77CF8051E30D1AD
:101B600000232268137061682268501A03AB039146
:101B7000049001211972013222606A4613CB13C20C
:101B8000009A002A30D06B461B7A012B32D0337A70
:101B90007F218B43337205210B4333723260019BEB
:101BA00073600EE0327A7F218A43327240210A4309
:101BB00032720022326072603100200000F09EF923
:101BC0000500280006B070BD327A7F218A43327248
:101BD00020210A43327200223260726031002000FC
:101BE000FFF79EFB0500ECE7694B6A4ACC216A4887
:101BF00008F058FD337A7F218B43337204210B4365
:101C00003372CBE7337A7F22934333720622134336
:101C1000337201233370614B14E05A4B5A4A252129
:101C20005A4808F03FFD012090711CE0117101211C
:101C30005171227C002A1AD019788A4219D10133B5
:101C4000002262741D78002DBBD022000C32617C12
:101C50000029EED191790029DFD1E168481CE060CC
:101C600009780029DFDD0029E0DA0021DEE702251E
:101C7000A7E70325A5E7337A7F2293433372062231
:101C80001343337200233370454B14E03D4B3E4AFF
:101C900025213E4808F006FD012090711DE01171DC
:101CA00001215171227C002A1BD019788A421AD155
:101CB0000133002262741D78002D00D181E72200DB
:101CC0000C32617C0029EDD191790029DED1E168E7
:101CD000481CE06009780029DEDD0029DFDA0021F8
:101CE000DDE702256DE703256BE72E4B14E0254B5E
:101CF000254A2521254808F0D5FC012090711DE0DA
:101D0000117101215171227C002A1BD019788A425D
:101D10001AD10133002262741D78002D00D150E7E2
:101D200022000C32617C0029EDD191790029DED1AD
:101D3000E168481CE06009780029DEDD0029DFDA6F
:101D40000021DDE702253CE703253AE721000C31BD
:101D5000637C002B02D0227C2B004FE08B79002B80
:101D600022D1E3685A1CE2601B78002B22DD002B95
:101D700023DB0B7101234B71EDE7C046130080009C
:101D800050730110DC670110E467011064680110F2
:101D90008483011094720110F07201107C720110A2
:101DA000847201108C7201102B4B2C4A25212C4877
:101DB00008F078FC01228A71D9E70023D9E70120D5
:101DC00002E0012000E00120002838D03E2B36D868
:101DD00000206074581CC0B2E3181A768B79002B6F
:101DE00022D10B685A1C0A601B78002B22DD002BC5
:101DF00023DB0B7101234B71227C03002F2A01D9B5
:101E0000392ADED92B2ADED02D2A07D02E2A07D058
:101E1000652A07D0452AD2D00020D5E70120D3E794
:101E20000120D1E70120CFE70B4B0C4A25210C48BC
:101E300008F038FC01228A71D9E70023D9E7E318BA
:101E400000221A76200018303100FEF705FC002829
:101E500000D0B6E60325B4E6DC670110E4670110A4
:101E600064680110F0B5C64600B59CB004000D00D2
:101E70000800FEF795FDFEF795FD0600182398462D
:101E8000A0441BAB0A225A7018AF1B883B80236802
:101E90006360E368A360002323741632A35C7F2190
:101EA0008B43A35429680023220019A8FEF786FD5E
:101EB0001A9B0093199B3200210002A8FEF780FDB7
:101EC0007B780022414602A8FFF7CEFD002808D10A
:101ED00002AB1B7C002B04D043461B7A1B0700D5AA
:101EE00003201CB080BCB846F0BD00B583B00191A2
:101EF00001A9FFF7B7FF03B000BD0000F0B5C6466B
:101F000000B504000E001D1CDBB2002B00D17DE1EA
:101F100003000C33427C002A1FD0237C5B2B36D17C
:101F20000023637423000C33627C002A35D0227CAA
:101F3000002A4CD0202A08D8092A06D3093AD2B25E
:101F400001239340B34A134248D101232372002056
:101F5000002846D080BCB846F0BD9A79002A0BD143
:101F6000C268511CC1601278002A0BDD002A0CDB0C
:101F70001A7101225A71D0E7A74BA84A2521A84817
:101F800008F090FB01219971F0E70022F0E7A54BE2
:101F9000A54A9E21A54808F085FB9A79002A0BD115
:101FA000E268511CE1601278002A0BDD002A0CDB8C
:101FB0001A7101225A71BAE7974B984A252198481D
:101FC00008F070FB01219971F0E70022F0E7237A15
:101FD000002B01D10120BBE70220B9E70023637485
:101FE000A0E723000C33627C002A09D0237C5D2B00
:101FF00020D1002363740127002F00D18BE0A9E7D3
:102000009A79002A0BD1E268511CE1601278002A0B
:102010000BDD002A0CDB1A7101225A71E6E77E4BB8
:102020007E4A25217E4808F03DFB01219971F0E7A9
:102030000022F0E70027DFE701221A74002127E0E1
:1020400000290CD08B1A18118046794883420CDB8A
:10205000784883420FDC43465381716013E0764B2E
:10206000764A4731764808F01DFB764B734A482183
:10207000734808F017FB744B704A4A21704808F007
:1020800011FB3160716000234B8100220A72CB602A
:10209000002900D1BCE0EBB2002B55D0013BDBB2F4
:1020A00000222000FFF7E0FC002800D052E72300C8
:1020B0000C33627C002A4DD0237C002B64D0202B73
:1020C00009D8092B07D3093BDBB201229A40130040
:1020D000504A13425FD101232372002800D039E710
:1020E00023000C33627C002A58D0237C5D2B6FD1F7
:1020F000002363740133002B00D02BE722000C3245
:10210000617C002966D0227C2C2A02D100236374D2
:102110000133002B78D063695A68103299688A427B
:102120008AD810399960002988D07268002AA8D00E
:102130001868824202D3DB689A4281D3434B444AF7
:102140001421444808F0AEFA434B444A1321444852
:1021500008F0A8FA9A79002A0BD1E268511CE160D4
:102160001278002A0BDD002A0CDB1A7101225A7149
:10217000A2E7294B294A2521294808F093FA012191
:102180009971F0E70022F0E7237A002B01D10120BA
:10219000A3E70220A1E70023637488E79A79002A65
:1021A0000BD1E268511CE1601278002A0BDD002A95
:1021B0000CDB1A7101225A7197E7174B174A252138
:1021C000174808F06FFA01219971F0E70022F0E753
:1021D0003B0090E7917900290BD1E168481CE06051
:1021E000097800290BDD00290CDB117101215171E7
:1021F00089E7094B094A2521094808F053FA0120CB
:102200009071F0E70021F0E70320A3E60520A1E6A6
:1022100004209FE613008000DC670110E4670110D2
:1022200064680110D4730110E87301105C6D011033
:102230000000F8FFF0FF0700D06F0110DC6F011005
:1022400048700110A8700110E4700110CC6E0110EC
:10225000E06E01106C6F0110807101108C71011023
:102260001472011070B50D00002820D0037A9B066F
:102270001BD5041E17D0002912D00468002C12D0E0
:10228000E068FEF7E3F901002800FEF7E5FF00280B
:1022900009D10A22A35E002B04D01B01E418EDE74C
:1022A0000C0000E00024200070BD0024FBE70400C7
:1022B000F9E7000070B588B004000E000568183515
:1022C0004068FEF7C3F901002800FFF7CBFF0028A4
:1022D00016D0027A7F231340082B07D00A2B0AD08E
:1022E000002000280ED1306808B070BD4168006839
:1022F000FEF7C0FBF5E741680068FEF7C6FBF0E7B4
:102300000020EEE7256818356068FEF79FF90100A8
:102310002800FFF7A7FF00284FD0027A7F23134041
:10232000043BDAB2082A46D89300254AD3589F4680
:102330000078D9E741680068FEF7BCFBD4E7416844
:102340000068FEF7C1FBCFE7006800236A461372FE
:102350006946FEF781F96B461A7A7F231340043BE6
:10236000DAB2082A20D89300164AD3589F466B4603
:102370001878B9E700980199FEF79CFBB4E700983C
:102380000199FEF7A1FBAFE704AC00232372210003
:102390000098FEF761F92000FEF706FFA4E7009819
:1023A0000199FEF7F3FE9FE700209DE74168006872
:1023B000FEF7ECFE98E7002096E7002094E7C04681
:1023C00098750110BC75011070B58CB004000E003A
:1023D000056818354068FEF739F901002800FFF755
:1023E00041FF002800D198E0037A1B0700D494E055
:1023F000256818356068FEF729F901002800FFF705
:1024000031FF002800D185E0027A7F231340043B8E
:10241000DAB2082A00D97AE09300424AD3589F469C
:1024200000780AF011F87AE0416800680AF064F870
:1024300075E0416800680AF053F870E000686C4687
:10244000002323722100FEF707F9002C59D0217ACE
:102450007F230B40043BD9B208294FD88B00324967
:10246000CB589F46207809F0EFFF58E0206861685C
:102470000AF042F853E0206861680AF031F84EE053
:10248000206804AC002323722100FEF7E5F8002C3D
:102490002ED0217A7F230B40043BD9B2082924D8BF
:1024A0008B002249CB589F46207809F0CDFF36E0BB
:1024B000206861680AF020F831E0206861680AF05D
:1024C0000FF82CE0206808AC002323722100FEF7EF
:1024D000C3F8002C03D02000FEF798FA1FE000207C
:1024E00000211CE02068616819E00020002116E04E
:1024F0000020002113E02068616810E00020002126
:102500000DE0002000210AE04168006807E000209B
:10251000002104E00020002101E0306871680CB067
:1025200070BDC046E07501100476011028760110D8
:1025300070B588B004000E0085680069FEF786F863
:1025400001002800FFF78EFE05006069FEF77EF8A7
:1025500001002800FFF786FE002816D0027A7F23AC
:102560001340082B07D00A2B0AD0002000280ED1D8
:10257000306808B070BD41680068FEF77BFAF5E787
:1025800041680068FEF781FAF0E70020EEE7A568F1
:102590002069FEF75BF801002800FFF763FE0500E5
:1025A0006069FEF753F801002800FFF75BFE002882
:1025B0004FD0027A7F231340043BDAB2082A46D870
:1025C0009300254AD3589F460078D2E741680068B7
:1025D000FEF770FACDE741680068FEF775FAC8E7C4
:1025E000006800236A4613726946FEF735F86B46A9
:1025F0001A7A7F231340043BDAB2082A20D89300CA
:10260000164AD3589F466B461878B2E7009801994E
:10261000FEF750FAADE700980199FEF755FAA8E7E2
:1026200004AC0023237221000098FEF715F8200067
:10263000FEF7BAFD9DE700980199FEF7A7FD98E720
:10264000002096E741680068FEF7A0FD91E70020B2
:102650008FE700208DE7C0464C76011070760110A0
:10266000F0B5DE4657464E464546E0B5EA4CA54431
:1026700000230593069307930D930E930F93002069
:1026800006F090F812F04AFA0122E449E4480EAB51
:102690009C46604410F0B2FD041E00D0A1E1E14B65
:1026A000E14AE2490EA884466144E148604411F0E1
:1026B00065F9041E00D0A1E10122DE490EAB9C4663
:1026C0006144DD48604410F0C7FD041E02D00828B4
:1026D00000D029E20023D94A0EA98C466244136037
:1026E000A022D64B63449201D5496144D24860444C
:1026F00010F060FF0290002800D026E207F0A4FB53
:10270000002900DA34E2CF4A002309F0FFFB100071
:10271000190009F0F1FE0022CB4B09F00AFE02007D
:102720000B00CA480AF0E8FDC44B0EAA9446634465
:102730001968C7480AF0E0FD40AB4AAA40924192AE
:10274000C44A0EA98C4662444292C24A62444392F1
:1027500000221A741A0020230021D154B849614480
:102760001000FFF7C2FBC3B25A1E9341DAB20492C3
:10277000002B00D002E240ACB74B0EAA9446634453
:102780001C60B648B64B63441860FDF75FFF01005C
:1027900046A8FFF767FDFEF757FCB24D2870B24B15
:1027A0000EAA944663441C60B04BB14A6244136065
:1027B0000A23B04A624413601100AB486044FFF73B
:1027C00079FDAD4B1870AD4B0EAA944663441C6066
:1027D000AB4BAC4A624413609623AB4A624413602D
:1027E0001100A6486044FFF765FDA84B1870A84B80
:1027F0000EAA944663441C60A64BA74A6244136029
:102800000F23A64A624413601100A1486044FFF7F9
:1028100051FDA34B1870A34B0EAA944663441C6051
:10282000A14BA24A624413601E23A14A6244136072
:1028300011009C486044FFF73DFD9E4B18709E4B75
:102840000EAA944663441C609C4B9D4A62441360EC
:1028500000229C4B9C4961440A604B609A49614448
:1028600095486044FFF7B0FD09F052FE974B1860A1
:10287000AF23DB010EAA944663441C60944B954A37
:10288000624413600022944B944961440A604B6097
:1028900092496144AF20C0016044FFF795FD09F003
:1028A00037FE8F4B18602B78002B00D17BE18D4BCE
:1028B0000EAA9446634440AA1A608B488B4B63442B
:1028C0001860FDF7C3FE010046A8FFF7CBFC88495E
:1028D0000EAB9C466144086040AB4B60082220A8C8
:1028E0000AF05EFB209B219A002B03D0197A8906FF
:1028F00000D461E1389339927E4B0EAA944663442A
:1029000040AA1A607C487D4B63441860FDF79EFE28
:10291000010046A8FFF7A6FCBC21C9010EAB9C46EE
:102920006144086040AB4B60082220A80AF038FBE5
:10293000209B219A002B03D0197A890600D43DE10F
:102940003A933B926E4B0EAA9446634440AA1A6097
:102950006C486D4B63441860FDF778FE010046A893
:10296000FFF780FC69490EAB9C466144086040ABB0
:102970004B60082220A80AF013FB209B219A002B11
:1029800003D0197A890600D41AE13C933D92604B3A
:102990000EAA9446634440AA1A605E485E4B6344A4
:1029A0001860FDF753FE010046A8FFF75BFC5B498A
:1029B0000EAB9C466144086040AB4B60082220A8E7
:1029C0000AF0EEFA209B219A002B03D0197A89068F
:1029D00000D4F7E03E933F920027FF230C9301F0D1
:1029E00030FDD0231B0640225A6140329A6112F01A
:1029F00009FA010022004A4807F0EEFED0231B0628
:102A000040225A6140329A6112F0FCF90100220022
:102A1000444807F0E1FEC0463C9EFFFF947601105B
:102A200070520000B0760110D8670110F850000015
:102A30001852000012510000D8540000F428000081
:102A4000F828000040420F0000408F407C600110D9
:102A500014770110F02800003857000000790110A9
:102A60003C570000ED280020405700000879011075
:102A70004457000048570000F80700204C5700005A
:102A8000107901105057000054570000F90700203A
:102A9000585700001C7901105C5700006057000077
:102AA000ED070020645700002479011068570000EA
:102AB0006C570000FA0700207057000030790110B1
:102AC000745700000000264078570000F4070020EB
:102AD0003C7901108457000000002840885700000E
:102AE000F007002090570000607901109457000013
:102AF000085E000098570000687901109C5700009C
:102B0000A057000070790110A4570000F85D000084
:102B1000A857000078790110AC570000F05D000064
:102B200098760110C0760110D0231B0640225A610E
:102B300040329A6112F066F902002300D2490EA8D1
:102B400084466144D14807F047FED0231B0640224B
:102B50005A6140329A61029C200012F053F902003F
:102B60002300C9490EA884466144C94807F034FED1
:102B7000C84BC94A3F21C94807F094FDD0231B0622
:102B800040225A6140329A61C0B2052805D88000BF
:102B9000C34BC158C34807F01FFEC34BC34A45216E
:102BA000C34807F07FFDD0231B0640225A61403204
:102BB0009A61C04807F010FE00239BE60023BFE6A1
:102BC0000023E2E6002305E7002401F070FC00206A
:102BD00000E00020FEF738FA804620ACF90038AB60
:102BE0009C466144082220000AF0DAF9B24B0EAA92
:102BF0009446634406CC06C3B04BB14A62441360AA
:102C0000B0496144B04B6344AB4A624411CA11C33A
:102C1000AB4B63441B68CB60AC4D6544AC4B634429
:102C2000A94A624411CA11C3CB682B61A94B6B61DD
:102C3000A94C6444A94E66440822A5496144300069
:102C40000AF0AEF92B6923616B6963611BAA0ACE96
:102C50000AC220691D90636903931E9301231F9389
:102C60001B9CFDF7F3FC01002000FFF7FBFA0400BA
:102C70001E9B03931800FDF7E9FC01002000FFF7FD
:102C8000F1FA1F9B002815D0027A520611D50028B0
:102C900010D00068002803D10CE01B01C0181300FD
:102CA0005A1E002B06D00A21435E002BF5D10020CE
:102CB00000E00020FEF7C8F9824620AEF90038ABEC
:102CC0009C466144082230000AF06AF9844B0EAA3F
:102CD00094466344320003CA03C3784B814A62447A
:102CE000136081496144814B63447D4A624411CA47
:102CF00011C37C4B63441B68CB607D4D65447D4BA9
:102D000063447A4A624411CA11C3CB682B61714B88
:102D10006B61BF24E4016444774B63449B46082203
:102D20007449614418000AF03BF92B6923616B690F
:102D3000636123AB5A4603CA03C3206925906369C4
:102D4000269302232793239CFDF780FC010020009B
:102D5000FFF788FA04002698FDF778FC01002000B0
:102D6000FFF780FA279B002815D0027A520611D56A
:102D7000002810D0006800280DD05A1E002B0AD061
:102D80000A21435E002B03D01B01C0181300F4E797
:102D9000002000E00020FEF757F90090534642461D
:102DA0000221484605F0E8FC20ACF90038AB9C460F
:102DB0006144082220000AF0F3F8504B0EAA944612
:102DC000634406CC06C34E4B4E4A624413604E4BDE
:102DD00063444A4A624403CA03C34A4B63441B68C0
:102DE00003934A4B6344039A1A60494D6544494B27
:102DF0006344454A624403CA03C3444B63441B68AB
:102E00002B61344B6B61444C6444444E664408224D
:102E10004049614430000AF0C3F82B6923616B69B3
:102E2000636113AB06CE06C32069159063690393F3
:102E3000169300231793139CFDF708FC0100200054
:102E4000FFF710FA0400169B03931800FDF7FEFB32
:102E500001002000FFF706FA179B002861D0027AD4
:102E600052065DD500285CD00068002859D05A1E53
:102E7000002B56D00A21435E002B03D01B01C01843
:102E80001300F4E700204CE012510000DC76011042
:102E9000F8760110E05F0110FC5F01103460011052
:102EA000C8070020E8780110EC7701103078011095
:102EB000787801104C790110FC58000088790110D5
:102EC00004590000C05F0000C45F0000E05800002B
:102ED000E8580000A0790110A85F0000B05F000072
:102EE000245900002C590000985F00009C5F0000EE
:102EF0000859000010590000885F00004C5900007C
:102F0000A479011054590000745F00007C5F000038
:102F10003059000038590000585F0000605F000021
:102F20000020FEF791F8804620ACF90038AB9C46B3
:102F30006144082220000AF033F8AB4B0EAA9446F5
:102F4000634406CC06C3A94BA94A62441360A94B4B
:102F50006344A54A624403CA03C3A54B63441B6888
:102F60000393A54B6344039A1A60A44D6544A44B94
:102F70006344A04A624403CA03C39F4B63441B6873
:102F80002B61A04B6B61A04C6444A04E66440822A8
:102F90009B49614430000AF003F82B6923616B6997
:102FA00063611BAA0ACE0AC220691D90636903935C
:102FB0001E9301231F931B9CFDF748FB010020007B
:102FC000FFF750F904001E9B03931800FDF73EFB2A
:102FD00001002000FFF746F91F9B002815D0027A58
:102FE000520611D5002810D0006800280DD05A1EB6
:102FF000002B0AD00A21435E002B03D01B01C0180E
:103000001300F4E7002000E00020FEF71DF88246E0
:1030100020AEF90038AB9C4661440822300009F02C
:10302000BFFF7B4B0EAA94466344320003CA03C31E
:103030006E4B784A62441360774B6344744A62442F
:1030400003CA03C3734B63441B680393734B63440A
:10305000039A1A60B325ED016544714B63446E4ACF
:10306000624403CA03C36D4B63441B682B61654B09
:103070006B616C4C64446C4B63449B46082268490A
:103080006144180009F08CFF2B6923616B6963614F
:1030900023AB5A4603CA03C320692590636926936C
:1030A00002232793239CFDF7D1FA01002000FFF7AC
:1030B000D9F804002698FDF7C9FA01002000FFF7AF
:1030C000D1F8279B002815D0027A520611D5002886
:1030D00010D0006800280DD05A1E002B0AD00A21FB
:1030E000435E002B03D01B01C0181300F4E700203F
:1030F00000E00020FDF7A8FF009053464246012162
:10310000484605F039FB20ACF90038AB9C466144D9
:103110000822200009F044FF444B0EAA9446634461
:1031200006CC06C3424B434A62441360424B63449D
:103130003E4A624403CA03C33E4B63441B68039385
:103140003E4B6344039A1A603D4D65443D4B6344D6
:10315000394A624403CA03C3384B63441B682B617A
:10316000284B6B61384C6444384E6644082235491C
:103170006144300009F014FF2B6923616B696361BE
:1031800013AB06CE06C320691590636903931693AB
:1031900000231793139CFDF759FA01002000FFF755
:1031A00061F80400169B03931800FDF74FFA010025
:1031B0002000FFF757F8179B00284AD0027A5206E2
:1031C00046D5002845D00068002842D05A1E002B62
:1031D0003FD00A21435E002B03D01B01C01813000F
:1031E000F4E7002035E0C04674590000A4790110CE
:1031F0007C5900004C5F0000545F000058590000EB
:1032000060590000A0790110305F0000385F0000B5
:103210009C590000A4590000245F00002C5F0000AE
:1032200088590000085F0000105F0000C4590000CA
:1032300098790110CC590000FC5E0000045F00008A
:10324000A8590000B0590000E05E0000E85E0000F0
:103250000020FDF7F9FE804620ACF90038AB9C4613
:1032600061440822200009F09BFEAB4B0EAA944655
:10327000634406CC06C3A94BA94A62441360A94B18
:103280006344A54A624403CA03C3A54B63441B6855
:103290000393A54B6344039A1A60A44D6544A44B61
:1032A0006344A04A624403CA03C39F4B63441B6840
:1032B0002B61A04B6B61A04C6444A04E6644082275
:1032C0009B496144300009F06BFE2B6923616B69F7
:1032D00063611BAA0ACE0AC220691D906369039329
:1032E0001E9301231F931B9CFDF7B0F901002000E2
:1032F000FEF7B8FF04001E9B03931800FDF7A6F924
:1033000001002000FEF7AEFF1F9B002815D0027AB7
:10331000520611D5002810D0006800280DD05A1E82
:10332000002B0AD00A21435E002B03D01B01C018DA
:103330001300F4E7002000E00020FDF785FE824640
:1033400020AEF90038AB9C4661440822300009F0F9
:1033500027FE7B4B0EAA94466344320003CA03C384
:103360006E4B784A62441360774B6344744A6244FC
:1033700003CA03C3734B63441B680393734B6344D7
:10338000039A1A60724D6544B423DB0163446E4AAC
:10339000624403CA03C36D4B63441B682B61654BD6
:1033A0006B616C4C64446C4B63449B460822B421B3
:1033B000C9016144180009F0F3FD2B6923616B69B1
:1033C000636123AB5A4603CA03C32069259063692E
:1033D000269302232793239CFDF738F90100200050
:1033E000FEF740FF04002698FDF730F901002000A9
:1033F000FEF738FF279B002815D0027A520611D518
:10340000002810D00068002803D10CE01B01C01870
:1034100013005A1E002B06D00A21435E002BF5D163
:10342000002000E00020FDF70FFE009053464246CA
:103430000021484605F0A0F920ACF90038AB9C46C5
:1034400061440822200009F0ABFD444B0EAA9446CB
:10345000634406CC06C3424B424A62441360424B6B
:1034600063443E4A624403CA03C33E4B63441B6841
:1034700003933E4B6344039A1A603D4D65443D4BB4
:103480006344394A624403CA03C3384B63441B682C
:103490002B61284B6B61384C6444384E66440822DB
:1034A00034496144300009F07BFD2B6923616B696D
:1034B000636113AB06CE06C320691590636903935D
:1034C000169300231793139CFDF7C0F8010020000A
:1034D000FEF7C8FE0400169B03931800FDF7B6F82C
:1034E00001002000FEF7BEFE179B002849D0027A9B
:1034F000520645D5002844D00068002841D05A1E05
:10350000002B3ED00A21435E002B03D01B01C018C4
:103510001300F4E7002034E0EC5900009879011022
:10352000F4590000D45E0000DC5E0000D0590000B9
:10353000D8590000A0790110B85E0000C05E0000FC
:10354000145A00001C5A0000AC5E0000B45E00007B
:10355000F8590000905E0000985E00003C5A0000A0
:10356000AC790110445A0000845E00008C5E0000BB
:10357000205A0000285A0000685E0000705E0000BB
:103580000020FDF761FD804620ACF90038AB9C4679
:1035900061440822200009F003FD774B0EAA9446EF
:1035A000634406CC06C3754B754A62441360754B81
:1035B0006344714A624403CA03C3714B63441B688A
:1035C0000393714B6344039A1A60704D6544704BCA
:1035D00063446C4A624403CA03C36B4B63441B6875
:1035E0002B616C4B6B616C4C64446C4E66440822DE
:1035F00067496144300009F0D3FC2B6923616B6992
:1036000063611BAA0ACE0AC220691D9063690393F5
:103610001E9301231F931B9CFDF718F80100200047
:10362000FEF720FE04001E9B03931800FDF70EF822
:1036300001002000FEF716FE1F9B002815D0027A1D
:10364000520611D5002810D0006800280DD05A1E4F
:10365000002B0AD00A21435E002B03D01B01C018A7
:103660001300F4E7002000E00020FDF7EDFC8246A7
:1036700020AEF90038AB9C4661440822300009F0C6
:103680008FFC474B0EAA94466344320003CA03C31F
:103690003A4B444A62441360434B6344404A624499
:1036A00003CA03C33F4B63441B6803933F4B63440C
:1036B000039A1A603E4D65443E4B63443A4A624465
:1036C00003CA03C3394B63441B682B61314B6B61E5
:1036D000394C6444394B63449B4608223549614464
:1036E000180009F05DFC2B6923616B69636123ABF2
:1036F0005A4603CA03C320692590636926930223AF
:103700002793239CFCF7A2FF01002000FEF7AAFDEF
:1037100004002698FCF79AFF01002000FEF7A2FDA6
:10372000279B002815D0027A520611D5002810D008
:10373000006800280DD05A1E002B0AD00A21435ED3
:10374000002B03D01B01C0181300F4E7002000E099
:103750000020FDF779FC009053464246032148467D
:1037600005F00AF8BB00DB19DB00154AD31800226C
:103770001A71002500F08FFD645A0000AC79011029
:103780006C5A00005C5E0000645E0000485A000055
:10379000505A0000A0790110405E0000485E000011
:1037A0008C5A0000945A0000345E00003C5E000019
:1037B000705A0000785A0000185E0000205E000079
:1037C0007015002020ADF90038AB9C4661440822FA
:1037D000280009F0E5FBFB4A0EAB9C466244FA4B1D
:1037E0006344290041C941C3F848D06096685368D2
:1037F0009846FCF72BFF01004046FEF733FDF449E5
:103800000EAB9C46614408604E600822280009F017
:10381000C7FB209B219A002B04D0197A890601D47A
:1038200000F0BCFCEB490EA8844661440B60EA49F9
:1038300061440A60002B01D100F0B3FC20AEFB0014
:1038400038AA9146994408224946300009F0A8FB5D
:10385000E24B0EAA94466344320003CA03C3DB4B17
:103860009A46DF4B634452461A60C121C901614444
:10387000DC4B6344D94A624421CA21C3D84B634418
:103880001B680391CB60D84D6544D84B6344D54A3F
:10389000624403CA03C30399C8682861D44B6B61AF
:1038A000AB689846FCF7D2FE01004046FEF7DAFC12
:1038B00080466869FCF7CAFE01004046FEF7D2FC6C
:1038C000FDF7C2FB804608224946300009F068FB3C
:1038D000C84B0EAA94466344320003CA03C3C64BC6
:1038E000634452461A60C5496144C54B6344C14AAA
:1038F000624421CA21C3C04B63441B680391CB605F
:10390000C04D6544C04B6344BD4A624403CA03C30F
:103910000399C8682861BD4B6B61AB689B46FCF797
:1039200095FE01005846FEF79DFC83466869FCF74A
:103930008DFE01005846FEF795FCFDF785FB0590CE
:1039400008224946300009F02BFBB14B0EAA9446E1
:10395000634406CE06C3AF4B634452461A60AE4979
:103960006144AE4B6344AA4A624421CA21C3A94BB5
:1039700063441B68CB60AA4B6344A84A624421CAD3
:1039800021C3CB680393A74B6344039A1A60A64BE9
:10399000A64A62441360FF23A54A624413601100E3
:1039A000B620C0016044FEF7C3FDC3B20D9320AD45
:1039B000F90038AB9C4661440822280009F0F0FA6F
:1039C0009C4A0EAB9C4662449B4B6344290041C910
:1039D00041C39A48D060966853689946FCF736FE12
:1039E00001004846FEF73EFC95490EAB9C466144FB
:1039F00008604E600822280009F0D2FA209B219A24
:103A0000002B03D0197A890600D4CEE38D490EA885
:103A1000844661440B608C4961440A60002B00D1EC
:103A2000C5E320AEFB0038AA9146994408224946D6
:103A3000300009F0B5FA854B0EAA94466344320073
:103A400003CA03C37D4B9A46814B634452461A60B6
:103A500080496144804B63447C4A624421CA21C34B
:103A60007B4B63441B680391CB607C4D65447C4B6E
:103A70006344794A624403CA03C30399C86828614E
:103A80005B4B6B61AB689B46FCF7E0FD0100584661
:103A9000FEF7E8FB83466869FCF7D8FD010058464D
:103AA000FEF7E0FBFDF7D0FA03900822494630000C
:103AB00009F076FA6B4B0EAA94466344320003CAAF
:103AC00003C3694B634452461A6068496144684BBA
:103AD0006344644A624421CA21C3634B63441B6844
:103AE0000691CB60634D6544634B6344604A624416
:103AF00003CA03C30699C8682861444B6B61AB686D
:103B00009B46FCF7A3FD01005846FEF7ABFB83463E
:103B10006869FCF79BFD01005846FEF7A3FBFDF723
:103B200093FA069008224946300009F039FA534BBF
:103B30000EAA9446634406CE06C3514B63445246D4
:103B40001A6050496144504B63444C4A624421CA54
:103B500021C34B4B63441B68CB604C4B63444A4AC4
:103B6000624421CA21C3CB680893494B6344089A35
:103B70001A602D4B474A62441360FF23464A624451
:103B80001360110045486044FEF7D2FCC3B20E93A7
:103B900020ADF90038AB9C4661440822280009F0AA
:103BA000FFF93F4A0EAB9C4662443E4B63442900FA
:103BB00041C941C33C48D060966853689946FCF7B8
:103BC00045FD73E0A05A0000A45A00009879011046
:103BD00058600000985A00009C5A0000CC5A00001F
:103BE000D45A000084600000B05A0000B85A0000A7
:103BF0008C790110F45A0000FC5A0000706000003B
:103C000074600000D85A0000E05A0000907901105A
:103C10001C5B0000245B000060600000646000002A
:103C2000085B0000105B0000B4790110145B000019
:103C3000285B0000345B0000385B0000A4790110B1
:103C4000906000002C5B0000305B0000605B0000B7
:103C5000685B0000B8600000BC600000445B0000CE
:103C60004C5B0000885B0000905B0000A8600000D7
:103C7000AC6000006C5B0000745B0000B05B000097
:103C8000B85B0000986000009C6000009C5B000036
:103C9000A45B0000A85B0000BC5B0000945B00001C
:103CA000C85B0000CC5B0000887901100100484629
:103CB000FEF7D8FAFA490EAB9C46614408604E60A4
:103CC0000822280009F06CF9209B219A002B03D0D0
:103CD000197A890600D46DE2F2490EA8844661443F
:103CE0000B60F14961440A60002B00D164E220AD11
:103CF000FB0038AA9146994408224946280009F059
:103D00004FF9EA4B0EAA944663442A0003CA03C340
:103D1000E74B9A46E74B634452461A60E6496144D2
:103D2000E64B6344E14A624441CA41C3E14B634408
:103D30001B680791CB60E24E6644E24B6344DF4A66
:103D4000624403CA03C30799C8683061DE4B7361DC
:103D5000B3689B46FCF77AFC01005846FEF782FAEE
:103D600083467069FCF772FC01005846FEF77AFA48
:103D7000FDF76AF9089008224946280009F010F971
:103D8000D24B0EAA944663442A0003CA03C3D04B05
:103D9000634452461A60CF496144CF4B6344CB4AD7
:103DA000624441CA41C3CA4B63441B680791CB605C
:103DB000B826F6016644C94B6344C74A624403CA45
:103DC00003C30799C8683061C54B7361B3689B46EC
:103DD000FCF73CFC01005846FEF744FA8346706944
:103DE000FCF734FC01005846FEF73CFAFDF72CF9CD
:103DF000079008224946280009F0D2F8B94B0EAACC
:103E00009446634406CD06C3B74B634452461A60DA
:103E1000B6496144B64B6344B24A624421CA21C3E5
:103E2000B14B63441B68CB60B24B6344B04A6244FD
:103E300021CA21C3CB680993AF4B6344099A1A6026
:103E4000AE4BAF4A62441360FF23AE4A6244136034
:103E50001100AD486044FEF76BFBC3B20F9320AD79
:103E6000F90038AB9C4661440822280009F098F814
:103E7000A64A0EAB9C466244A54B6344290041C947
:103E800041C3A448D060966853689946FCF7DEFBAE
:103E900001004846FEF7E6F9C221C9010EAB9C4677
:103EA000614408604E600822280009F079F8209BE0
:103EB000219A002B03D0197A890600D47FE1964914
:103EC0000EA8844661440B60944961440A60002B4B
:103ED00000D176E120ACFE0038AB9C466644082257
:103EE0003100200009F05CF88D4B0EAA9446634423
:103EF000220003CA03C3874B9A468A4B6344524647
:103F00001A6089496144894B6344854A624421CAE5
:103F100021C3844B63441B680991CB60844D654485
:103F2000844B6344814A624403CA03C30999C86845
:103F30002861654B6B61AB689946FCF787FB010014
:103F40004846FEF78FF981466869FCF77FFB010060
:103F50004846FEF787F9FDF777F8814608223100D9
:103F6000200009F01DF8744B0EAA94466344220009
:103F700003CA03C3714B634452461A6070496144DB
:103F8000704B63446C4A624421CA21C36B4B634447
:103F90001B680991CB606C4D65446C4B6344694A66
:103FA000624403CA03C30999C86828614C4B6B611A
:103FB000AB689B46FCF74AFB01005846FEF752F9F6
:103FC00083466869FCF742FB01005846FEF74AF950
:103FD000FDF73AF80C9008223100200008F0E0FFCD
:103FE0005B4B0EAA9446634406CC06C3594B63440C
:103FF00052461A6058496144584B6344544A6244DB
:1040000011CA11C3534B63441B68CB60544B6344C8
:10401000524A624411CA11C3CB680993514B63449D
:10402000099A1A60354B504A62441360FF234F4A85
:104030006244136011004E486044FEF779FAC5B23D
:10404000182008F0B3FF04004B460193089B00932F
:10405000039B4246474904F07FF9BB00DB19DB00B4
:10406000454A9C50079808F076FE8146069808F06D
:1040700072FE8046059808F06EFE061C0C9808F04B
:104080006AFE00904B464246311C200004F07EF947
:104090000D9A0021200004F073F90E9A6EE0C046DC
:1040A000C8600000C05B0000C45B0000F45B00005F
:1040B00088790110FC5B0000F0600000F4600000F3
:1040C000D85B0000E05B00008C7901101C5C0000F4
:1040D000245C0000E0600000E4600000085C000078
:1040E00090790110445C00004C5C0000D06000003E
:1040F000D4600000305C0000385C0000B47901102E
:104100003C5C0000505C0000285C00005C5C00002F
:10411000605C0000AC790110545C0000585C000049
:10412000885C0000905C0000286100002C610000A9
:104130006C5C0000745C0000B05C0000B85C0000C7
:10414000186100001C610000945C00009C5C000091
:10415000D85C0000E05C0000086100000C61000019
:10416000C45C0000CC5C0000D05C0000E45C00009B
:10417000BC5C0000502200207015002001212000AE
:1041800004F0FEF80F9A0221200004F0F9F82A004A
:104190000321200004F0F4F8FFF7E4FA2300FFF70E
:1041A00041FBFF239846FFF702FC23002EE4FF2388
:1041B0000393EDE423008FE5FF2308934FE62300EC
:1041C0007DE6FF25FF2399463AE7002000E0002026
:1041D000002852D0017A7F230B40043BD9B2082932
:1041E00049D88B005349CB589F46007846E0416838
:1041F0000068FCF784FE41E041680068FCF798FE27
:104200003CE0006800230EAA30241219137018A98C
:10421000FCF722FA0EAB1B191A787F231340043BDC
:10422000DAB2082A20D89300434AD3589F4618ABE5
:10423000187823E018981999FCF761FE1EE0189889
:104240001999FCF775FE19E020AB00221A721900CB
:104250001898FCF701FA20A8FCF79EFE0EE01898CB
:104260001999FCF789FE09E0029807E041680068A7
:10427000FCF782FE02E0029800E00298002809D0D4
:10428000BB00DB19DA002D4B9B181A79991848717D
:1042900001321A710135052D60DC20ACF90038AB14
:1042A0009C4661440822200008F07AFE244B0EAAA6
:1042B0009446634406CC06C3224B234A62441360EF
:1042C00022496144224B63441D4A624411CA11C30E
:1042D0001D4B63441B68CB601E4C64441E4B6344FF
:1042E0001B4A624441CA41C3C86820616561A6682F
:1042F000FCF7ACF901003000FDF7B4FF636900285A
:1043000000D165E7027A520600D460E7002800D1A8
:104310005EE70068002800D15AE75A1E002B00D142
:1043200056E70A21435E002B00D14EE71B01C0185F
:104330001300F2E7547A0110787A0110701500200A
:10434000045D0000C07901100C5D000038610000C0
:104350003C610000E85C0000F05C0000BB00DB1981
:10436000DB00F74AD3181B79002B00D123E320ACE4
:10437000F90038AB9C4661440822200008F010FE8A
:10438000F04B0EAA9446634406CC06C3EE48EF4BAE
:1043900063441860EB4B63441C68FCF757F9010059
:1043A0002000FDF75FFF002800D117E3027A7F238A
:1043B0001340082B00D107E30A2B00D109E304982E
:1043C000002800D00CE3FF20BB00DB19DB00DC4A37
:1043D000D318587420ACF90038AB9C4661440822CD
:1043E000200008F0DDFDDA4B0EAA9446634406CCAB
:1043F00006C3D848D84B63441860D54B63441C6847
:10440000FCF724F901002000FDF72CFF002800D163
:1044100005E3027A7F231340082B00D1F5E20A2B33
:1044200000D1F7E20498002800D0FAE20620BB0091
:10443000DB19DA00C24B9B18D874203300221A70A3
:104440000137032F00DD2DE3FB0038AA9B58002B1A
:10445000F6D020ADF900944661440822280008F007
:104460009FFDBE4A0EAB9C466244BD4B634429008F
:1044700011C911C3BB48D06094685668FCF7E6F8D0
:1044800001003000FDF7EEFEB7490EAB9C466144DB
:1044900008604C600822280008F082FD209C219BC7
:1044A000002C04D0227A920601D4FEF78DFBAF4A8D
:1044B0000EA98C4662441460AD4A62441360002C1D
:1044C00001D1FFF77FF920ACFD0038AB9C462B00F3
:1044D000634408229A461900200008F061FDA54BAC
:1044E0000EAA94466344220003CA03C3A24B9B4610
:1044F000A24B63445A461A60A14961440D00A14B86
:1045000063449C4A624441CA41C39C4B63441B6858
:10451000CB609D4E66449D4B63449A4A624403CAF5
:1045200003C3E86830619A4B98467361B368994653
:10453000FCF78CF801004846FDF794FE814670694F
:10454000FCF784F801004846FDF78CFEFCF77CFD83
:1045500008900822534603935146200008F020FD9E
:104560008C4B0EAA94466344210044C944C38A4B31
:10457000634459461960894961440D00884B63447E
:10458000844A624441CA41C3834B63441B68CB6085
:10459000844E6644844B6344814A624403CA03C325
:1045A000E8683061814B99467361B3689A46FCF7BD
:1045B0004DF801005046FDF755FE82467069FCF744
:1045C00045F801005046FDF74DFEFCF73DFD099012
:1045D000059008220399200008F0E2FC74490EAB14
:1045E0009C4661440B00210044C944C371498A467A
:1045F0007149614456460E6070496144704E66448C
:1046000033006B4A624441CA41C36B4E664436680C
:10461000CE606C4E66446C4B6344694A624421CA66
:1046200021C3C868306141467161B1680D00FCF773
:104630000DF801002800FDF715FE05007069FCF774
:1046400005F801002800FDF70DFEFCF7FDFC0A90BF
:1046500008220399200008F0A3FC5C490EAB9C469D
:1046600061440B00210060C960C35949614456464A
:104670000E6058496144584E66443300534A6244C0
:1046800060CA60C3524E66443668CE60534E66447C
:10469000534A62441300504A624421CA21C3C86885
:1046A000306149467161B1688A46FBF7CFFF01006E
:1046B0005046FDF7D7FD82467069FBF7C7FF010042
:1046C0005046FDF7CFFDFCF7BFFC0B90069008228B
:1046D0000399200008F064FC424E0EAB9C466644F1
:1046E0003300260024CE24C31E4EB2463E4E6644FE
:1046F000524632603D4E664431003D4E66443300C2
:10470000384A624460CA60C3374E66443668CE6039
:10471000384E6644384A62441300354A624421CA1E
:1047200021C3C868306142467261B2689046FBF7A7
:104730008DFF01004046FDF795FD804670695DE004
:1047400070150020145D0000E87901101C5D000068
:10475000245D0000EC7901102C5D0000B8570000CA
:10476000BC57000080790110105E0000B0570000B7
:10477000B4570000E457000088790110EC5700009E
:10478000486000004C600000C8570000D05700008F
:104790008C7901100C58000014580000386000009B
:1047A0003C600000F0570000F857000090790110BD
:1047B00034580000987901103C580000286000002F
:1047C0002C60000018580000205800005C580000C1
:1047D00064580000186000001C6000004058000091
:1047E00048580000845800008C5800000860000001
:1047F0000C6000006858000070580000FBF726FFAE
:1048000001004046FDF72EFDFCF71EFC8046082205
:104810000399200008F0C4FB8C4E0EAB9C46664406
:104820003300260024CE24C3894E664452463260AB
:10483000884E66443100884E66443300834A6244A1
:1048400060CA60C3824E66443668CE60834E66445A
:10485000834A62441300804A624421CA21C3C86863
:1048600030614A467261B2689146FBF7EFFE010083
:104870004846FDF7F7FC81467069FBF7E7FE01004B
:104880004846FDF7EFFCFCF7DFFB060007901C2015
:1048900008F08CFB8146424600920A9B089A7149B7
:1048A00003F018FFBB00DB19DB006F4A4946995043
:1048B000300008F050FA061C0B9808F04CFA8046BD
:1048C000099808F048FA011C331C4246484603F098
:1048D00013FF08220399200008F062FB634B0EAA25
:1048E0009446634406CC06C3614B63445A461A603F
:1048F00060496144604B63445C4A624411CA11C31D
:104900005B4B63441B68CB605C4D65445C4B63440C
:10491000594A624411CA11C3CB682B61594B6B6170
:10492000594C6444594E664408225549614430004C
:1049300008F036FB2B6923616B69636113AB06CE0C
:1049400006C3206915906369039316930023179398
:10495000139CFBF77BFE01002000FDF783FC0400A5
:10496000169B03931800FBF771FE01002000FDF772
:1049700079FC179B002801D1FEF72CF9027A520628
:1049800001D4FEF726F9002801D1FEF723F90068CB
:10499000002801D1FEF71EF95A1E002B01D1FEF7A7
:1049A00019F90A21435E002B01D1FEF710F91B0112
:1049B000C0181300F0E7D0231B0640225A61403292
:1049C0009A61334805F008FF41680068FCF752F827
:1049D000F6E441680068FCF758F8F1E40498EFE465
:1049E0002C4B0EAA944663441C682B4B63441868F6
:1049F000FBF72CFE01002000FDF734FC002802D05C
:104A0000FCF7D2FBE0E40020DEE441680068FCF73C
:104A100031F808E541680068FCF737F803E50498C9
:104A200001E51E4B0EAA944663441C681C4B63446C
:104A30001868FBF70BFE01002000FDF713FC0028AF
:104A400002D0FCF7B1FBF2E40020F0E4AC58000027
:104A5000B4580000F85F0000FC5F000090580000B0
:104A6000985800005022002070150020D4580000F3
:104A7000DC580000E85F0000EC5F0000B858000060
:104A8000C0580000A0790110D05F0000D85F00007E
:104A9000CC790110145D00001C5D0000245D000055
:104AA0002C5D0000AA4B0EAA9446634440AA1A60EB
:104AB000A848A94B63441860FBF7C8FD010046A84D
:104AC000FDF7D0FBC321C9010EAB9C4661440860D1
:104AD00040AB4B60082220A808F062FA209B219A84
:104AE000002B03D0197A890600D402E12893299279
:104AF0009A4B0EAA9446634440AA1A609848994B70
:104B000063441860FBF7A2FD010046A8FDF7AAFB6D
:104B100095490EAB9C466144086040AB4B6008224F
:104B200020A808F03DFA209B219A002B03D0197A87
:104B3000890600D4DFE02A932B928C4B0EAA944670
:104B4000634440AA1A608A488A4B63441860FBF7A2
:104B50007DFD010046A8FDF785FB87490EAB9C460D
:104B60006144086040AB4B60082220A808F018FAA6
:104B7000209B219A002B03D0197A890600D4BCE02F
:104B80002C932D927D4B0EAA9446634440AA1A6042
:104B90007B487C4B63441860FBF758FD010046A836
:104BA000FDF760FB78490EAB9C466144086040AB62
:104BB0004B60082220A808F0F3F9209B219A002BD3
:104BC00003D0197A890600D499E02E932F926F4B67
:104BD0000EAA9446634440AA1A606D486D4B634424
:104BE0001860FBF733FD010046A8FDF73BFB6A495F
:104BF0000EAB9C466144086040AB4B60082220A885
:104C000008F0CEF9209B219A002B02D0197A890650
:104C100077D530933192614B0EAA9446634440AAF3
:104C20001A605F485F4B63441860FBF70FFD01009B
:104C300046A8FDF717FB5C490EAB9C466144086033
:104C400040AB4B60082220A808F0AAF9209B219ACB
:104C5000002B02D0197A890655D532933392534BE3
:104C60000EAA9446634440AA1A605148514B6344CB
:104C70001860FBF7EBFC010046A8FDF7F3FA4E497C
:104C80000EAB9C466144086040AB4B60082220A8F4
:104C900008F086F9209B219A002B02D0197A890608
:104CA00033D534933592454B0EAA9446634440AABB
:104CB0001A604348434B63441860FBF7C7FC01008C
:104CC00046A8FDF7CFFA40490EAB9C466144086008
:104CD00040AB4B60082220A808F062F9209B219A83
:104CE000002B02D0197A890611D536933792002409
:104CF0009CE00023FAE600231DE7002340E70023A1
:104D000063E7002385E70023A7E70023C9E7002323
:104D1000EBE700785BE041680068FCF7F0F856E0EC
:104D200041680068FCF704F951E0006820AB0022FC
:104D30001A721900FBF790FC20A8FCF72DF946E049
:104D400041680068FCF718F941E002983FE0C0466E
:104D5000305D0000F4790110345D0000385D000022
:104D6000FC7901103C5D000078610000405D0000AE
:104D7000047A0110445D000070610000485D00008D
:104D80000C7A01104C5D000068610000505D00006D
:104D9000147A0110545D000060610000585D00004D
:104DA0001C7A01105C5D000058610000605D00002D
:104DB000247A0110645D000050610000685D00000D
:104DC0002C7A01106C5D00004861000002982201FD
:104DD000A44B9B18587020ADE10028AB9C46614461
:104DE0000822280008F0DCF89F4B0EAA9446634482
:104DF00006CD06C39D489E4B634418609A4B63449E
:104E00001D68FBF723FC01002800FDF72BFA0028A2
:104E100003D0037A5B0600D0049E002E63D02201EB
:104E2000904B9B1800225A711A710134072C00DD37
:104E30000FE1E30028AA9B58002BF6D020ADE1003B
:104E4000944661440822280008F0AAF8894B0EAA6B
:104E50009446634406CD06C38748884B6344186074
:104E6000874B2093834B63441D68FBF7EFFB0100E6
:104E70002800FDF7F7F920A9FBF7B0FE01384342FF
:104E80005841C6B2002873D02301764A01219954B3
:104E900020ADE10028AB9C4661440822280008F0C0
:104EA0007FF8784B0EAA9446634406CD06C3764835
:104EB000764B63441860734B63441D68FBF7C6FB75
:104EC00001002800FDF7CEF9002800D17EE7027A24
:104ED0007F231340043BDAB2082A00D935E7930058
:104EE0006B4AD3589F465F4B9846260102234246A1
:104EF000B35420ADE70028AB9C4667440822390034
:104F0000280008F04DF8634B0EAA944663442A002B
:104F100003CA03C35548604B634418605D4B634448
:104F20001B689946FBF792FB01004846FDF79AF98A
:104F3000FCF78AF84644B07008223900280008F0CF
:104F40002FF8564B0EAA9446634406CD06C3544828
:104F5000544B63441860514B63441D68FBF776FB68
:104F600001002800FDF77EF9FCF76EF8F07056E7B7
:104F700020ADE10028AB9C4661440822280008F0DF
:104F80000FF8494B0EAA9446634406CD06C33A482F
:104F9000464B63441860464B2093434B63441D6863
:104FA000FBF754FB01002800FDF75CF920A9FBF793
:104FB00015FE012824D12B4E27010323BB5520AD1C
:104FC000E10028AB9C4661440822280007F0E8FF76
:104FD000384B0EAA9446634406CD06C33648374B79
:104FE00063441860334B63441D68FBF72FFB0100DB
:104FF0002800FDF737F9FCF727F8F61970700EE76F
:1050000020ADE10028AB9C4661440822280007F04F
:10501000C7FF2B4B0EAA9446634406CD06C3164821
:10502000284B634418601E4B2093254B63441D6836
:10503000FBF70CFB01002800FDF714F920A9FBF792
:10504000CDFD012800D0EAE62301064A0421995447
:10505000E5E61D4B9D44F0BCBB46B246A946A046C2
:10506000F0BDC04610160020945D0000707901105C
:105070009C5D0000745D0000347A01107C5D0000CE
:105080003C7A0110845D0000687901108C5D00009D
:105090009C7A0110A45D0000AC5D0000B45D0000CE
:1050A000447A0110BC5D0000C45D0000CC5D0000CE
:1050B000EC790110D45D00004C7A0110DC5D000039
:1050C000E45D0000EC5D0000C4610000F0B5DE4668
:1050D00057464E464546E0B589B003F085FB08F0DB
:1050E00017F9032003F0B0FCD02424060823A362A0
:1050F00000220121032003F0AFFB0F2003F0A4FCEA
:1051000080231B02A362062003F09EFC40236362FF
:10511000A361072003F098FC802363626361192078
:1051200003F092FC80239B046362636106A8FBF793
:1051300037F9E04B0699079A19605A60DE4B012255
:105140001A700BF021FA1F211A2003F06DFB0022C8
:1051500000211A2003F080FB00211A2003F05CFCE0
:10516000D64B1B68E022D2011340D54A1360D54BC1
:10517000012208210F2003F0F3FBD34804F0ACFD1B
:1051800006A8FBF70DF9D14A00230698079906F007
:10519000BDFE1000190007F0AFF90022CC4B07F05C
:1051A000C8F802000B00CB4808F0A6F80322012142
:1051B000C94808F0A1F8C94B04221A60BF4B1B680C
:1051C000DB05FBD5BD4B5C68FBF722FAC44D2860BC
:1051D00006A8FBF7E5F8BD4A00230698079906F0F4
:1051E00095FE1000190007F087F90022B84B07F070
:1051F000A0F802000B00B74E300008F07DF8210443
:10520000090CB84808F078F806A8FBF7C9F8AF4AC7
:1052100000230698079906F079FE1000190007F0A0
:105220006BF90022AA4B07F084F802000B00300053
:1052300008F062F8286807F0BDFD02000B00AA48DC
:1052400008F05AF82C688221C905201C07F068FD77
:10525000002814D08121C905201C07F077FD002803
:105260000DD0D0231B0640225A6140329A61201C87
:1052700007F0A0FD02000B009C4805F0ADFAFBF71B
:10528000EBF8FBF705F9FF21994801F0C5FB002475
:105290000CE0E6B2974D00223100280001F0CAFC74
:1052A00000223100280001F00FFD01340F2CF0DD49
:1052B000FDF7D6F906A8FBF773F8844A0023069891
:1052C000079906F023FE1000190007F015F90022D7
:1052D0007F4B07F02EF802000B007E4808F00CF818
:1052E000854B1978854808F007F8002406E0844BC0
:1052F000844A3F21844805F0D5F90134032C32DC7F
:10530000A3001B19DB00814A9B58002BF5D0002518
:10531000A3001B19DB007D4AD3181B79AB42ECDDDF
:1053200004F092FD0029E2DB684A002306F0EEFD5E
:105330001000190007F0E0F80022654B06F0F9FFB5
:1053400002000B00634807F0D7FFA3001B19DA0027
:105350006E4B9B185B195B792A0021006C4807F0A3
:10536000CBFF0135D4E7002513E00134032C0BDC1F
:10537000A3001B19DB00654A98580028F5D0036884
:105380001B68E9B29847F0E7FA20800004F0A4FC1B
:105390000135032D01DC0024E8E75E4C200002F01B
:1053A0007DFB09220821200002F02AFC524B1978CB
:1053B000200001F0C9FE0821200001F055FF5649E8
:1053C000200001F067FF1421200001F0D9FF5349AC
:1053D000200002F0A7FA0521200002F017F80921A9
:1053E000200002F00FFB0121200001F0B5FE20009B
:1053F00002F05BF8002400E00134032C0BDCA30076
:105400001B19DB00414A98580028F5D003681B6837
:1054100002219847F0E7002300E00133072B0ADC64
:105420001A013F49525C032AF7D119013C4A52182C
:1054300001211171F1E706A8FAF7B2FF234A002310
:105440000698079906F062FD1000190007F054F85D
:1054500000221F4B06F06DFF02000B001D4807F0F5
:105460004BFF304B1B78304A12783049097830486E
:10547000007800902F4807F03FFF01F0A6F80132B6
:10548000032A09DC93009B18DB002049CB189B7C86
:10549000002BF4D01C00F2E704F0D6FC002903DB5B
:1054A000254B18605960EEE0154B164A3F2116480F
:1054B00005F0F8F8A0160020FE28002000C00440E7
:1054C00000D004400D0300108813000040420F007C
:1054D00000408F407C600110C07A011000E0044061
:1054E000801C0020D47A0110E07A0110F47A0110B7
:1054F0003022002050220020ED280020087B0110DF
:10550000E05F0110FC5F0110346001107015002095
:10551000147B01107C22002000C0644420A10700FD
:1055200010160020ED070020F9070020F8070020E2
:10553000FA0700202C7B01109816002001308B0008
:105540005B18DB00C84AD3181B7983420FDD002F9C
:105550000DD18B005B18DA00C34B9B181B185A79CE
:10556000C24B1B789A42E9D1CEB22F00E6E7013157
:10557000032903DC002F01D10020E0E7BC4B1A789F
:10558000BC4B1B789A4200D197E0B94BDB78412B9A
:1055900005D0612B03D0522B01D0722B11D1B64B09
:1055A0001B78002B00D129E2B44B1B78002B00D0D4
:1055B00052E204F049FC002900DA62E2B04B1860C4
:1055C000596004F041FC002900DA60E2AD4A002392
:1055D00006F09CFC1000190006F08EFF0022AA4B7A
:1055E00006F0A7FE02000B00A84807F085FEA84BB6
:1055F0001D78A84B1E789D4B1F78A74801F0A6FD8B
:1056000000903B0032002900A44807F075FE04F02A
:105610001BFC002900DA40E29A4A002306F076FCDF
:105620001000190006F068FF0022974B06F081FE7B
:1056300002000B00954807F05FFE8D480178C278A4
:10564000437880780090964807F056FE002C00D1F1
:1056500032E204F0F9FB02000B1E00DA23E291496A
:1056600008684968121A8B4110001900FA2292004A
:10567000002306F02FFC8C4B1A780023994200DDA2
:105680001AE200D115E2844801F034FF051EDDD096
:10569000804A00211170754B19707D4E04313170B4
:1056A0000092320072497C4801F042FF3378042BAB
:1056B00087D10021002600275AE76D4A9578002DF2
:1056C00000D062E7002F00D15FE7684A107883427C
:1056D00000D15AE7664BDB78672B0BD8412B00D201
:1056E00053E7413BDAB2262A00D94EE793006F4ACE
:1056F000D3589F46722B00D047E7350028237343C9
:10570000594A985803685B689847012800D026E1F9
:1057100028227243544B9B1820331B78002B00D057
:105720001DE1524B1878002301225221FAF7D0FED6
:105730002BE74F4B5F78002F31D100230122472107
:10574000FAF7C6FE3D00494B197803223000FAF7FC
:10575000EBFEB34628235E43434BF05803685B6877
:10576000984701282FD028235A4653433E4A985839
:1057700003681B68002198474D4B01221A702823AB
:105780005A465343384DED180023AB7406A8FAF778
:1057900007FE3B4B0699079A19605A60F5E600230D
:1057A00000E00133072BCEDC1901424A521852782F
:1057B000B242F6D10A003F49525C032AF1D11B01E3
:1057C000CB181D79BFE7002DCDD1274B9B19203376
:1057D0001B78002BD3D1384B1B78FA2292005A4306
:1057E000924628275B465F431F4BFF1804F084F85E
:1057F000804604F029FB04900591002928DB049AD7
:10580000059B91461E00FA2292000023504600217B
:1058100007F018FA049A059B12184B419E4202D8D1
:1058200004D1914502D901225242D317002B15DB36
:1058300001260296019721490091404604F072F832
:1058400028225B465A43084B9B1820331E7096E76C
:105850001B4B1C4A3F211C4804F024FF184B194ADB
:105860003F21194804F01EFF70150020F528002084
:10587000C4280020ED280020EE070020F628002094
:105880006815002040420F0000408F407C600110EE
:10589000FB280020012900207C2200206C7B0110C5
:1058A000947B011098160020F9070020507C01100D
:1058B000F228002010160020EC070020CD03001075
:1058C000E05F0110FC5F011034600110CE4B5B788B
:1058D000002B3FD0370028237343CC4A98580368E5
:1058E0005B689847002812D028237343C74A98580A
:1058F00003685B689847012809D028237343C34A8B
:10590000985803685B689847042800D03DE6BF4D6F
:1059100028235F43785903681B68012198470122B7
:10592000BB4B1A70BB4B19783000FAF7FDFDED192F
:105930000023AB7406A8FAF733FDB74B0699079A14
:1059400019605A6006A8FAF72BFD069A079BAA6110
:10595000EB611AE601225221FAF7BAFDBAE7AA4B27
:105960005B78002B0CD028236B43A84A9858036817
:105970001B6802219847A64B01221A70002312E0EF
:10598000A44B1878002301224121FAF7A1FDEAE790
:10599000A248095C03290ED11801A0490918012069
:1059A000487108E00133072B12DC19019B4A521899
:1059B0005278B242ECD0B242F4D11A019749525C0B
:1059C000012AEFD11901954A521801215171E9E7D5
:1059D00028236B438D4DED180023AB7406A8FAF70E
:1059E000DFFC8D4B0699079A19605A6006A8FAF7F2
:1059F000D7FC069A079BAA61EB61C6E5884801F0CF
:105A000029FB002500E00135032D1EDCAB005B19EE
:105A1000DB007E4A98580028F5D00368DB6881498E
:105A20009847AB005B19DB00784A985803685B68BD
:105A300098470428E7D1AB005B19DB00734A9858FC
:105A400003681B6800219847DDE7774B01221A7035
:105A5000764B00221A70ACE5002500E00135032DDD
:105A60000BDCAB005B19DB00684A98580028F5D0C6
:105A70000368DB686B499847F0E76C4B00221A70AB
:105A800097E56B4B6B4A3F216B4804F00BFE684B6C
:105A9000684A3F21684804F005FE654B654A3F218E
:105AA000654804F0FFFD624B624A3F21624804F002
:105AB000F9FD904200D8E6E504F0C6F902000B1E9D
:105AC00023DB5E49086849681C0013001B1A8C41DF
:105AD0001A00002C03DC16D1594B9A4213D9594AAB
