:020000041000EA
:1000000000B5324B212058609868022188439860DF
:10001000D860186158612E4B002199600221596106
:100020000121F02299502B49196001219960352056
:1000300000F044F80222904214D00621196600F024
:1000400034F8196E01211966002018661A6600F04E
:100050002CF8196E196E196E052000F02FF8012189
:100060000842F9D1002199601B49196000215960AB
:100070001A491B48016001219960EB211966A021F2
:10008000196600F012F800219960164914480160C1
:100090000121996001BC002800D000471248134993
:1000A000086003C880F30888084703B5996A0420EC
:1000B0000142FBD001200142F8D103BD02B5186610
:1000C0001866FFF7F2FF186E186E02BD00000240BE
:1000D000000000180000070000035F00212200005C
:1000E000F4000018222000A00001001008ED00E03C
:1000F00000000000000000000000000074B24E7A12
:1001000000200420F7010010C3010010C5010010F9
:10011000C1010010C1010010C1010010C101001097
:10012000C1010010C1010010C1010010C701001081
:10013000C1010010C1010010C9010010CB01001065
:10014000CD010010CD010010CD010010CD01001037
:10015000CD010010CD010010CD010010CD01001027
:10016000CD010010CD010010CD010010CD01001017
:10017000CD010010CD010010CD010010CD01001007
:10018000CD010010CD010010CD010010CD010010F7
:10019000CD010010CD010010CD010010CD010010E7
:1001A000CD010010CD010010CD010010CD010010D7
:1001B000CD010010CD010010CD010010CD010010C7
:1001C00000BE00BE00BE00BE00BE00BEEFF3058054
:1001D000103800BEF2EB88716C8703109C87031007
:1001E0003402001090A31AE700201F49086006C8D7
:1001F00081F3088810471D48006800282FD10DA4FE
:100200000ECC002902D000F012F8F9E71849194A7B
:10021000002000E001C19142FCD1174988471749ED
:1002200088471749884700BEFDE701C901C29A42C5
:10023000FBD370479C870310C0000020E41F002000
:10024000C0A603100000042000000420C0A6031074
:10025000001004200010042000000000704709482E
:100260001DF00EFF0047000008ED00E0000000D088
:10027000E81F002020910220B1CD0110E52C0010D4
:100280006DCD01105756000006005250ABB36053BD
:10029000F853031006005250861C03020854031042
:1002A000060052505422A29D1454031005005250CF
:1002B000DE65F468C0A60310F8B5C04610B5064C5C
:1002C0002378002B07D1054B002B02D0044800E017
:1002D00000BF0123237010BD202200200000000079
:1002E000F8EF0210044B10B5002B03D0034904486B
:1002F00000E000BF10BDC046000000002422002026
:10030000F8EF021030B5032910D80023002406E0CE
:100310000268D25C55426A4114430133DBB2CAB26F
:100320009A42F5D801206040C0B230BD0020FCE701
:1003300010B504001BF08CFE002903DB2060616017
:10034000200010BD024B034A3F2103481CF012FD60
:10035000F8EF021014F002104CF0021070B50128F2
:1003600005D0002802D1334B994215D070BD314BD6
:100370009942F6D1304B314A1A6000221A719A60C4
:100380001C000C34DC621A8604245C86053C9C86C6
:100390003C255A55DC87E4E7274B1C68264B9968B7
:1003A000002906D00A689A6023685B682000984795
:1003B000F4E7214B1E68002509E033685B683000D4
:1003C000984700236360238063800135ADB21A4BE8
:1003D0001B8EAB4207D9184BDC6AEB00E41861684E
:1003E0000029EAD1EDE7144B00221A86013A9A86D9
:1003F000D96A0C33994209D033685B68300098475A
:100400000D4B1A000C32DA6204225A860A4B1B8EFC
:10041000002B09D1084B9B68002BA7D0084B094A39
:10042000162109481CF0A6FC084B094A1F2109485F
:100430001CF0A0FCFFFF000080230020C011002062
:10044000A0F10210B4F10210F0F10210ACF00210B1
:10045000B8F0021040F1021010B5C0218901024825
:100460002EF052FD10BDC04600D01F0010B5010097
:10047000C022920101482EF02FFD10BD00D01F00B8
:1004800010B5080011001EF0EBFF10BD10B50800FC
:100490001FF006F810BD10B508001EF0C3FF10BD18
:1004A00030B589B005003A483A4B1860C022920135
:1004B00029002BF0B9FD00284BD024F037F8002498
:1004C0000AE020001AF054FC01AB1855002120006E
:1004D0001AF06AFC0134E4B2192CF2D9FA24E400CF
:1004E000220000212C4821F085FE1CF08FFB220009
:1004F00029002A4821F07EFE002406E001AB195DA8
:1005000020001AF051FC0134E4B2192CF6D924F081
:10051000DFF81BF09DFD002915DB214A00231DF0AB
:1005200041FE100019001EF037F900221D4B1EF08D
:1005300048F802000B001C481FF0A4F91B481FF0EC
:1005400071F909B030BD1A4B1A4A3F211A481CF004
:1005500011FC1BF07DFD002914DB114A00231DF066
:1005600021FE100019001EF017F900220D4B1EF09D
:1005700028F802000B000C481FF084F90F481FF008
:1005800051F9DEE70A4B0B4A3F210B481CF0F2FB06
:1005900000D01F10C4110020590400106D04001079
:1005A00040420F0000408F404CF2021058F20210FF
:1005B000F8EF021014F002104CF0021070F202106A
:1005C00010B501481CF070FC8CF2021010B5014807
:1005D0001CF06AFCA8F2021000B583B06846FFF771
:1005E000A7FE0F4A0023009801991DF0DBFD1000C3
:1005F00019001EF0D1F800220A4B1DF0E2FF0200A4
:100600000B0009481FF03EF908481FF00BF923F0D2
:100610008DFFFA20012140001CF03EFBFEE7C046A2
:1006200040420F0000408F404CF20210C4F2021012
:10063000F0B5C64600B584B005000C001700098D62
:10064000B74B99423BD1A38C002B00D1ADE000D138
:100650007AE0013B99B2CA00236A9C46624453681F
:10066000002B00D176E050881688B04200D277E0A7
:100670000023029302AB012252429A80029A002A7E
:1006800000D186E002AB9B88C9015B189BB2009247
:1006900069468B8051424A41D2B2A2498C4663449A
:1006A00059424B41DBB29A4200D078E0009B002BCC
:1006B00000D17AE06B462A0003CB03C225E00B0091
:1006C000974A914226D0964A914235D0CA097F2155
:1006D0001940A08C824223D2D200206A8446624410
:1006E0005088814222D25268C9005218118821854F
:1006F0002A60AB8051424A41D2B28A498C46634457
:1007000059424B41DBB29A4218D1280004B080BC58
:10071000B846F0BD844B854A992185481CF02AFBD8
:10072000844B854A712182481CF024FB834B844A08
:100730004B2184481CF01EFB0022D7E7824B834AE2
:10074000162180481CF016FB814B824AA121784873
:100750001CF010FB029302AB012252429A808DE7FB
:10076000461C5680C2009B18029302AA90805A42EF
:100770005341DBB26B4A9446604442425041C0B29E
:10078000834200D17AE7704B704A16216D481CF005
:10079000F1FA00230093013B6A46938086E76A4B97
:1007A0006A4A162167481CF0E5FAA28CE38C9A424B
:1007B0004FD0A68C731C9BB2A384F600226A944689
:1007C00066448022920093426FD08023984643462D
:1007D000002B6DD0D9003B681B68380098477060CB
:1007E00000286BD04346338000237380002E68D0EE
:1007F000A38C002B6AD0013B99B2226ACB00D2189D
:100800005368002B68D050881488A0426AD3002314
:10081000029302AB012252429A80029A002A79D0B6
:1008200002AB9B88C9015B189BB22A60AB80514226
:100830004A41D2B23B498C46634459424B41DBB2F8
:100840009A4200D161E7404B404A16213D481CF0D6
:1008500091FA80229200934221D05B009EB2216ADD
:10086000A1420FD0F2003B689B6838009847804651
:10087000002818D043462362E6840123002B98D138
:100880000026B3E7F1003B681B68380098478046B4
:10089000002806D0202221001EF020FEEAE70023D7
:1008A000ECE70023EAE70023E8E77F2398468EE79A
:1008B000294B2A4A332123481CF05CFA002398462E
:1008C00090E700232B60013BAB801EE7204B214AC1
:1008D000A12117481CF04EFA029302AB01225242AA
:1008E0009A809AE7441C5480C2009B18029302AA83
:1008F00090805A425341DBB20A4A944660444242D5
:100900005041C0B2834288D00F4B104A16210D4887
:100910001CF030FA00232B60013BAB80F5E6C046AB
:10092000FFFF00000100FFFFF4F202100CF30210C1
:1009300040F10210C0F30210D4F30210C0F4021010
:10094000CCF40210B4F5021010F6021034F60210C6
:100950000CF7021018F70210CCF70210D4F70210AF
:1009600070470000F0B58BB005000C000379DB0781
:100970000CD42B79DB0628D42B7960221A4200D1C3
:10098000D9E0002D00D1D6E02B88A3E00268083220
:100990000868896800260029EBD00B0008339A42CA
:1009A00002D00E000968F6E78B88013B9BB28B8072
:1009B000002BDED1002E05D00B68336003685B6826
:1009C0009847D6E70B68A360F8E72B8822000C3223
:1009D0005B498B4234D0D8097F211940968CB042B4
:1009E00022D2126AC00012185088814222D2526864
:1009F000C9005218049204A98B8051424A41D2B2D4
:100A000050498C46634459424B41DBB29A4219D15A
:100A100002AE082204A930001EF060FDA38E029AE7
:100A20001380B388A386A7E7474B484A71214848FB
:100A30001CF0A0F9474B484A4B2148481CF09AF952
:100A40000022D7E7464B474A162144481CF092F94A
:100A50003D4B3E4A71213E481CF08CF95268C9005A
:100A60005218D688069206A98B8051424A41D2B2CA
:100A700034498C46634459424B41DBB29A4244D1DB
:100A8000082206A968461EF029FD0098002842D0D9
:100A90002100FFF767FF0098FFF762FF6B469B8816
:100AA000089008AA938042425041C0B2254A944619
:100AB00063445A425341DBB2984232D102AF08221A
:100AC00008A938001EF00AFDA38E029A1380BB8885
:100AD000A38633001A4A934229D020000C30934257
:100AE00011D0DA097F211940868CB242B0D2006A57
:100AF000D200821850888142B0D3164B164A4B213F
:100B000016481CF037F90022ABE7154B164A1621A0
:100B100012481CF02FF9154B154A26210F481CF0DE
:100B200029F90F4B0F4A16210C481CF023F9012319
:100B30005B422B806B8000232B710BB0F0BDC04655
:100B4000FFFF00000100FFFFC0F30210D4F302100A
:100B500040F10210C0F40210CCF40210B4F50210FF
:100B600010F6021034F60210E0F80210ACF9021090
:100B7000BCF90210016042600023037270477047A5
:100B800070B504000800FFF7FAFF230026C826C34B
:100B9000200070BD7047000082B010B584B0019095
:100BA000029103920793002808D0079B002B0BD0DB
:100BB0000298089B98423AD1002324E0204B214A16
:100BC0002D2121481CF0D6F8204B1E4A2E211E480C
:100BD0001CF0D0F81E4B1F4A2B211F481CF0CAF8EE
:100BE0001E4B1C4A2C211C481CF0C4F8184B194AF7
:100BF0002B2119481CF0BEF8184B164A2C21164818
:100C00001CF0B8F80133834217D2019A002AE1D0D0
:100C100002998B42E4D8D15C079A002AE6D0089C5E
:100C2000A342E9D8D25C8A42ECD0002000E0002048
:100C300004B010BC08BC02B018470120F8E7C04659
:100C400030FA021040FA0210F8FB02105CFC0210AD
:100C50006CFC021078FC0210C0FC021028FD02108F
:100C6000F0B5D6464F464646C0B58CB006000D1EC0
:100C70002BD04468002C2ED00834029487683900A9
:100C800002A8FFF73FFB00282BD1E41900232370B3
:100C90003468B268029906A8FFF76CFFA468002CBC
:100CA00061D021000831E28809A8FFF763FF0AAB91
:100CB0006A4603CB03C2099B06980799089AFFF777
:100CC0006BFF00284FD12468E9E7584B584A1D2193
:100CD00058481CF04FF8584B554A1E2155481CF0F7
:100CE00049F83A00210003A8FFF744FF2B79002BB5
:100CF00015D1049A032A18D802222A71049CE0B262
:100D000098422BD9039A002A16D0049EB34219D8D0
:100D1000D25C002A1CD0EA540133DBB2F0E7474B27
:100D2000474A484948481CF025F88521474B444A22
:100D3000890045481CF01EF8454B464A2B21464881
:100D40001CF018F8454B434A2C2143481CF012F87C
:100D5000434B3B4A43493C481CF00CF8FF232340DB
:100D60000022EA540CE0002C10D0A3880133A380A9
:100D70002B79002B4CD1002C50D005232B712C60EB
:100D80000CB0E0BCBA46B146A846F0BD33689A46FE
:100D900073689846B368994653461F684346002BCC
:100DA0000FD080235B02994511D23B689B684A466D
:100DB0000932414638009847041E08D04B46C3808C
:100DC0000AE0294B294A332129481BF0D3FF3B680D
:100DD0005B68414638009847002C09D0002C0BD0A6
:100DE00033680FD09A6822609C6000237360BFE76D
:100DF000012352461371F1E71B4B0D4A2A210D487E
:100E00001BF0B8FF184B1B4A43211B481BF0B2FFD5
:100E10000A4B1A4A1A490C481BF0ACFF8921194B9E
:100E2000164A890008481BF0A5FFC04634FD021091
:100E300048FD0210B0FD021010FE021024FE021048
:100E400040FE021013020000D8FE021038FF02100C
:100E50006CFC021078FC0210C0FC021028FD02108D
:100E600058FF02101B02000060FF021070FF02100A
:100E70002C00031088000310F0F10210E8000310AA
:100E8000230200008048031070470000F0B5DE46E2
:100E900057464E464546E0B587B08246894600290A
:100EA00009D009782B290CD02D2910D12C398C464A
:100EB000E1448B460DE0B44BB44A6E31B4481BF0AC
:100EC00059FF01218C46E14400218B4601E00021BD
:100ED0008B464946087801003039C9B209290CD936
:100EE0002E2834D0002352461370504607B0F0BC71
:100EF000BB46B246A946A046F0BD002400254E469A
:100F00003678B046303EF6B2B446092E25D8A14E0A
:100F1000B54222D81ED0A60FAB003343A200A418BE
:100F20005D4126002F00B6197F4134003D0000943A
:100F3000019560460021C643B4467E1C23D0009C28
:100F4000019D24184D410126B446E144D7E7002411
:100F50000025D4E7904EB442DDD9404600281BD18D
:100F60005B46002B12D080231B069D4224D801D162
:100F7000002C21D100236242AB4102215046017076
:100F80008260C360B1E76445D9D9E6E703235246DE
:100F900013709460D560A8E7002680235B039D4210
:100FA0000CD30A220023200029001DF0FBF80400C6
:100FB0000D00013636B2F0E70026EEE749460A7822
:100FC0001300303BDBB2092B03D8013636B20131B6
:100FD000F5E789462E2A0FD04B461B78652B35D076
:100FE000452B33D00023F6184B461F78002F7DD0B9
:100FF00000235246137078E701239C46E144B4462F
:101000004A4613E0A70FA9003943A00024184D4118
:1010100024196D41029300230393029E039FA41998
:101020007D416646013E33B29C4601321378303B27
:10103000DBB2092B07D8594FBD42F6D8E2D1584F41
:10104000BC42F2D8DEE766469146C5E74B46581CDF
:101050005B782D2B15D02B2B16D000270023027880
:1010600011003039C9B2092939D89900CB185B0071
:10107000303A9B18F1189A225200914208DC013054
:10108000EDE701300127E9E7484602300027E5E7B0
:10109000002F0BD05B46002B06D0802212060123C6
:1010A00051460B708A6020E70022F8E75B46002B70
:1010B00010D000203B49FFF7E7FE80231B069C462B
:1010C000614404235246137002000B0051468A60AB
:1010D000CB600AE700203349FFF7D6FEF1E7002F87
:1010E00002D05B4281467EE781467CE733002633AF
:1010F0004C2B01D8002D0CD0200029001DF04CFBFA
:1011000004000091002E2BDD274D002E2DDC7642B1
:101110002BE0002D03D180231B049C42ECD2200045
:1011200029001EF069F8002E04DD204C002E06DC9C
:10113000764204E01E4CF9E776100137FFB2002E2C
:1011400006D0F307F8D5BB00E1581DF08EFFF3E79A
:101150005B46002B42D10123524613709060C4E6D7
:10116000144DD2E776100137FFB2002E24D0F307DA
:10117000F8D5FB00EB181A685B68200000991DF099
:101180003EFA04000091EDE7540103105C010310E6
:10119000BC01031099999919999999999999010004
:1011A000989999990000F07F18190310B818031046
:1011B000A0180310D01803105B46002B05D0009B2D
:1011C000802212069446634400930423524613700F
:1011D0002200009B51468A60CB6086E680231B0676
:1011E0009C466044B7E7C0467047000010B5FFF763
:1011F000FBFF0068002800D010BD0148FCE7C04696
:10120000507C0310704710B504000800FFF7FAFF88
:10121000206004236360033B2372200010BD7047ED
:1012200010B504000800FFF7FAFF20600723636091
:10123000063B2372200010BD704770B50400080003
:10124000FFF7FAFF230026C826C3200070BD000068
:10125000F0B5A1B00600030020CB2A00383206A961
:1012600091CB91C12B00383368D006AB91CB91C1A3
:101270001379202B31D10CA909AB91CB91C1002A54
:101280005CD00B008C460CA9180098C998C00100CE
:10129000634691CB91C1129B002B20D011882A006C
:1012A0000C32A44B994271D0C8097F230B40948C17
:1012B000A0425FD2126AC0001218508883425FD2E7
:1012C0005268DB00D318049304AA9180002B5FD0EE
:1012D000DA8804ABDA800124A2E00022CBE7029393
:1012E00002AB012252429A80029A002A26D002AB17
:1012F0009A88904B9A4200D1E2E002ABD9880C3533
:101300008C4B994200D1EDE0C8097F230B40AA8C99
:10131000904200D3DAE02A6AC00012185088834253
:1013200000D3D9E05268DB00D318029302AA91805F
:10133000002B02D0DA8802ABDA80029A316815AB52
:101340001592169112AA03CB03C21298002800D15D
:10135000D4E00379042B00D1D4E0052B00D1DFE0E9
:10136000022B00D1C0E017AB002217921892013275
:101370001A72C2E0704B714A712171481BF0FAFC7D
:10138000704B714A4B2171481BF0F4FC00239AE723
:10139000684A9EE76E4B6F4A27216F481BF0EAFCB4
:1013A000002F52D038002BF085F91DAB1D971E90F1
:1013B00000221A721DA91AA8FFF73FFF1BAB6A464D
:1013C00003CB03C21A9B12981399149AFFF7E4FBFC
:1013D000002854D101235C40E4B204AB9A88554BF9
:1013E0009A4252D004ABD9882A000C32514B994210
:1013F0005DD0C8097F230B40978CB8424BD2126A4C
:10140000C0001218508883424BD25268DB00D318B8
:10141000049304AA9180002B02D0DA8804ABDA800E
:10142000049B002B45D0002CD4D01F1EB2D01B79BA
:10143000042B0CD0052B18D0022BB1D01DAB0022F1
:101440001D921E9201321A72B4E70020ADE73F6888
:10145000002F08D038002BF02DF91DAB1D971E90E2
:1014600001221A72A6E70020F7E73B68190008314D
:10147000DA881DAB1D911E9200221A729AE708228B
:1014800004A902A81EF02AF82EE7344B344A15218D
:1014900034481BF06FFC284B284A712128481BF068
:1014A00069FC284B284A4B2128481BF063FC002389
:1014B000AEE70023029302AB012252429A8013E767
:1014C000264B274A152127481BF054FC1A4B1B4A70
:1014D00071211B481BF04EFC1A4B1B4A4B211B4829
:1014E0001BF048FC002320E7041E09D02BF0E2F893
:1014F00017AB1794189000221A72179821B0F0BDFC
:101500000020F5E70468002C08D020002BF0D2F86A
:1015100017AB1794189001221A72EEE70020F7E734
:10152000036819000831DA8817AB17911892002266
:101530001A72E2E7FFFF0000C0F30210D4F30210BA
:1015400040F10210C0F40210CCF40210B4F5021005
:101550001C020310300203109C020310000303104E
:10156000180303108C0303100023FF2282425B4107
:10157000D8B2704710B50400FFF7F6FF002801D07D
:10158000E0B210BD0020FCE7002806DBC30FFF22FD
:10159000002182424B41D8B270470020FCE710B5D1
:1015A0000400FFF7F1FF002801D0E0B210BD0020D9
:1015B000FCE70123002902D102D1FF2800D9002332
:1015C000D8B2704710B50400FFF7F3FF002801D030
:1015D000E0B210BD0020FCE700290ADB012300294E
:1015E00002DD0023D8B270470029FBD1FF28F9D9CA
:1015F000F7E70020F7E710B50400FFF7EDFF00283C
:1016000001D0E0B210BD0020FCE7000010B5041CC2
:1016100000211DF071FD002807D00549201C1DF098
:1016200063FD002802D0012000E0002010BDC0466C
:1016300000007F4310B5041CFFF7E8FF002804D02A
:10164000201C1DF0BFFDC0B210BD0020FCE7000053
:1016500070B504000D00002200231DF029F80028B9
:1016600009D00022054B200029001DF019F80028A0
:1016700002D0012000E0002070BDC04600E06F40B5
:1016800070B504000D00FFF7E3FF002805D020002F
:1016900029001DF069F8C0B270BD0020FCE7000011
:1016A00010B584B00379DB0628D504880C313E4B95
:1016B0009C4221D0E2097F2323408C8CA2420FD28E
:1016C000096AD2008A1851888B420FD25268DB0017
:1016D000D21803791E2B64D89B003449CB589F46FF
:1016E000334B344A712134481BF044FB334B344AAA
:1016F0004B2134481BF03EFB0022EAE70022E8E7DA
:1017000000784FE00068FFF735FF4BE00068FFF717
:1017100046FF47E010685168FFF754FF42E0106849
:101720005168FFF768FF3DE0010000291ED06846C0
:10173000FFF7ACFB6B461B78032B2DD01FD8012B7A
:1017400026D0022B19D102980399FFF754FF29E004
:101750000168EAE701680831E7E70068FFF76AFF18
:1017600020E010685168FFF78BFF1BE01831164B23
:10177000164AFF3116481BF0FDFA002012E0042B38
:1017800004D102980399FFF77BFF0BE0002009E0EA
:101790000298FFF74FFF05E002980399FFF712FF49
:1017A00000E0002004B010BDFFFF00009004031013
:1017B000C0F30210D4F3021040F10210C0F4021082
:1017C000CCF40210B4F50210F0030310000403106F
:1017D000D8FE0210F0B59FB00600030020CB280011
:1017E000383007AA92CB92C22B00383369D007ABAE
:1017F00092CB92C20379202B32D10DAA0AAB92CBA5
:1018000092C200285DD0130094460DAA190098CA10
:1018100098C10A00634692CB92C2139B002B21D041
:1018200001882A000C328B4B994200D163E0C80931
:101830007F230B40948CA04251D2126AC000121830
:101840005088834251D25268DB00D318059305AA11
:101850009180002B51D0DA8805ABDA80012494E026
:101860000020CAE7039303AB012252429A800398F7
:10187000002826D003AB9A88764B9A4200D1D3E059
:1018800003ABD9880C35734B994200D1DEE0C8090F
:101890007F230B40AA8C904200D3CBE02A6AC00081
:1018A00012185088834200D3CAE05268DB00D31874
:1018B000039303AA9180002B02D0DA8803ABDA806D
:1018C0000398316816AB1690179113AA30CB30C22B
:1018D000002800D1BCE0FFF7E3FE1FB0F0BD5E4B77
:1018E0005E4A71215E481BF045FA5E4B5E4A4B2111
:1018F0005E481BF03FFA0023A8E7564AACE75C4B72
:101900005C4A27215C481BF035FA002F52D0380082
:101910002AF0D0FE1BAB1B971C9000221A721BA949
:1019200018A8FFF78AFC19AB6A4603CB03C2189BC1
:1019300013981499159AFFF72FF9002854D1012311
:101940005C40E4B205AB9A88424B9A4251D005AB59
:10195000D9882A000C323F4B99425CD0C8097F23BA
:101960000B40978CB8424AD2126AC00012185088B5
:1019700083424AD25268DB00D318059305AA9180AE
:10198000002B02D0DA8805ABDA80059B002B44D00F
:10199000002CD4D01F1EB2D01B79042B0CD0052BE9
:1019A00018D0022BB1D01BAB00221B921C9201322B
:1019B0001A72B4E70020ADE73F68002F08D0380066
:1019C0002AF078FE1BAB1B971C9001221A72A6E727
:1019D0000020F7E73B6819000831DA881BAB1B9140
:1019E0001C9200221A729AE703AA05AB03CB03C22A
:1019F0003DE7224B224A152122481BF0BBF9164B2A
:101A0000164A712116481BF0B5F9164B164A4B21A0
:101A100016481BF0AFF90023AFE70023039303AB95
:101A2000012252429A8022E7144B154A152115488B
:101A30001BF0A0F9084B094A712109481BF09AF9DB
:101A4000084B094A4B2109481BF094F900232FE762
:101A5000002042E7FFFF0000C0F30210D4F30210A1
:101A600040F10210C0F40210CCF40210B4F50210E0
:101A70001C020310300203109C0203100003031029
:101A8000180303108C030310F0B5444CA544050063
:101A900000242B5D002B05D0C0239B019C4201D26A
:101AA0000134F6E7002018F01DFF29F0E9F90028BD
:101AB00046D029F091FA1BF0A9F80122384968A80C
:101AC00027F0FCF9061E5AD1364B374A0AA952A80C
:101AD00027F0E1FF00285BD0344E6E4434493000DB
:101AE000FFF79EFB6B461A0083CE83C2314A324910
:101AF00069440A60CE22D2006A4443CB43C22E48D6
:101B00006844FFF767FE03002C4A282168461CF052
:101B10007DFA0A226946FFA80C3027F0FFF9061E5D
:101B200030D1002322002900FFA80C3027F0D1FC7F
:101B3000061E27D1FFA80C3027F0DAFE060021E0B0
:101B40001AF086FA002914DB1D4A00231CF02AFB38
:101B5000100019001CF020FE00221A4B1CF031FD71
:101B600002000B0018481DF08DFE18481DF05AFEAB
:101B70009FE7174B174A3F2117481BF0FBF802203D
:101B800002F0DCFA73425E41F0B2144B9D44F0BDAA
:101B90004220684427F08EFF9EE7C04674F9FFFF9D
:101BA0002005031024050310507C03107C06000060
:101BB00034050310802300206C0600003C05031050
:101BC00040420F0000408F404CF202100C05031001
:101BD000F8EF021014F002104CF002108C06000016
:101BE000F0B5DE4657464E464546E0B587B00400A0
:101BF00004AB00221A80059206001036437D002BAC
:101C000004D0237D984600236375BEE1B379002B91
:101C10000BD103695A1C02611B78002B0BDD002BD2
:101C20000CDB337101237371EBE7C04BC04A2521F4
:101C3000C0481BF09FF80122B271F0E70023F0E7E3
:101C40005E46A2E1B379002B0BD133685A1C326097
:101C50001B78002B0BDD002B0CDB33710123737120
:101C600097E1B24BB24A2521B2481BF083F801221A
:101C7000B271F0E70023F0E7B17900291AD1336897
:101C80005A1C32601B78002B1ADD002B1BDB3371D2
:101C900001237371227D002A00D1B1E1752A14D08D
:101CA000A54B1D78002D00D14FE1AA4200D14BE198
:101CB0000233F6E79D4B9E4A25219E481BF05AF8B9
:101CC0000122B271E1E70023E1E7002363750022FE
:101CD000002024E09D79002D0BD125696F1C276120
:101CE0002D78002D0BDD002D0CDB1D7101255D71A4
:101CF0001CE08E4B8E4A25218E481BF03BF80127B5
:101D00009F71F0E70025F0E7303BDBB20F2B23D8C3
:101D100012011A4392B2002363750130C0B2032846
:101D20000ED823001033657D002DD3D0237D002BEA
:101D300010D0402BE8D92025AB43373BDBB2E5E799
:101D4000002000280AD007B0F0BCBB46B246A94626
:101D5000A046F0BD0220F4E70320F2E7A0239B0198
:101D6000D3189BB28020C000834223D390239B01D1
:101D7000D3189BB28021C9008B4220D30592012148
:101D8000002900D101E1059B7F2B25D9002202A962
:101D90000A703F211940803A0A4302A94A709B0900
:101DA0009AB21F2A5BD84022524213438B70CD1C3B
:101DB000B3468FE09205920D04AB1A80E0E704A9C8
:101DC0000B889B029205920D134380225202944687
:101DD000634405930121D3E7DBB20093636899461E
:101DE000002B03D0A568DB889D420AD06368002BD6
:101DF00000D1CAE0A268511CA1609B18009A1A7217
:101E0000C3E023689B466D0001351B689A464B462C
:101E1000002B0FD080235B029D4211D253461B68DA
:101E20009B682A000932494650469847071E08D049
:101E3000C5800CE0414B424A332142481AF09AFFD8
:101E4000002753461B685B68494650469847002F59
:101E500001D06760CAE701235A461371F9E73F21B1
:101E6000194080235B420B4302A98B7093090F2B0F
:101E700006D8202252421343CB7003ADB34629E06B
:101E80003F21194080235B420B4302A9CB70120B08
:101E900010235B421A430A714D1DB3461AE0274BCB
:101EA000274A332127481AF065FF00230093534641
:101EB0001B685B68390050469847009B002B30D068
:101EC000009B63606368002B04D0A268511CA16072
:101ED0009B181E72013D2E78002E00D1B0E6676877
:101EE000002FEFD0A368FA889342EBD12268914685
:101EF0005B000133019313689A46002FCFD08023F3
:101F00005B02019A9A42D0D253461B689B68093201
:101F100039005046984700900028C8D0019AC280E6
:101F2000CBE701334A461371CAE7C0466005031088
:101F300068050310E80503104C05031060FF02104C
:101F400070FF02102C0003105D78002D5AD0002382
:101F5000637528E02D4B2E4A33212E481AF00AFFD4
:101F60000023009353461B685B683900504698472E
:101F7000009B002B39D0009B63606368002B04D06A
:101F8000A268511CA1609B181D72637D002B00D1BB
:101F900058E6257D00236375A8452AD0002D2DD055
:101FA0005C2D00D168E66768002FE6D0A368FA8848
:101FB0009342E2D1226893465B000133994613684D
:101FC0009A46002FC6D080235B029945C8D253465B
:101FD0001B689B684A460932390050469847009072
:101FE0000028BFD04A46C280C2E701335A46137167
:101FF000C1E76368002B07D00020A4E60220A2E618
:102000000220A0E603209EE604209CE660FF02106A
:1020100070FF02102C000310F0B587B0040016000A
:102020001F000379002B12D1100039001CF0ECFBCB
:10203000051C1DF0EFF832003B001CF023FB0028CC
:102040000BD00E2323712560012007B0F0BD284B73
:10205000284A4C2128481AF08DFE0C9B1B680193DE
:102060000C990C311A0004A8FEF7E2FA049B002B2D
:1020700021D0049A002A27D004AB9B88029202A99F
:102080008B8051424A41D2B21C498C46634459422A
:102090004B41DBB29A421DD1029B002B20D01E2364
:1020A000237102AB9B882380029B002B1AD01E60F9
:1020B0005F600120C9E701330C9A1371002302937A
:1020C000013B02AA9380E7E70D4B0E4A26210E48FA
:1020D0001AF050FE0D4B0E4A16210B481AF04AFE1C
:1020E0000020B2E7064B0B4A262107481AF042FEB1
:1020F00024FE0210400603104C0703100100FFFFEE
:10210000ACF90210AC070310B4F5021010F602107F
:1021100030080310000903100120002900D000201E
:10212000C0B27047F0B587B0040016001F000579F3
:10213000002D0BD110001900FFF7EEFF051E0BD08C
:102140000A2323712660280007B0F0BD274B284AD8
:102150007E2128481AF00EFE0C9B1B6801930C99F7
:102160000C311A0004A8FEF763FA049B002B21D05F
:10217000049A002A27D004AB9B88029202A98B8084
:1021800051424A41D2B21C498C46634459424B41A8
:10219000DBB29A421DD1029B002BD4D01A232371AB
:1021A00002AB9B882380029B002B18D01E605F60CF
:1021B0000125C8E701330C9A137100230293013BF8
:1021C00002AA9380E7E70D4B0D4A26210D481AF02D
:1021D000D1FD0D4B0D4A16210A481AF0CBFD074BD5
:1021E0000B4A262107481AF0C5FDC04624FE0210FE
:1021F0007C0903104C0703100100FFFFACF902102B
:10220000AC070310B4F5021010F6021030080310EA
:10221000000903108022120600238018594101236F
:10222000002900D00023D8B270470000F0B587B075
:10223000040016001F000579002D0BD110001900B5
:10224000FFF7E8FF051E0BD00C2323712660280042
:1022500007B0F0BD274B284A672128481AF08AFDAD
:102260000C9B1B6801930C990C311A0004A8FEF713
:10227000DFF9049B002B21D0049A002A27D004AB5D
:102280009B88029202A98B8051424A41D2B21C49DA
:102290008C46634459424B41DBB29A421DD1029BAA
:1022A000002BD4D01C23237102AB9B882380029B7C
:1022B000002B18D01E605F600125C8E701330C9A1F
:1022C000137100230293013B02AA9380E7E70D4BB1
:1022D0000D4A26210D481AF04DFD0D4B0D4A1621D1
:1022E0000A481AF047FD074B0B4A262107481AF007
:1022F00041FDC04624FE0210E00A03104C07031003
:102300000100FFFFACF90210AC070310B4F5021096
:1023100010F60210300803100009031070B586B0E3
:1023200004000D0001001031437D002B02D0227DFE
:10233000002338E08B79002B0BD103695A1C026112
:102340001B78002B0BDD002B0CDB0B7101234B7179
:10235000EDE7604B604A252160481AF00BFD012231
:102360008A71F0E70023F0E7012002E0012000E09D
:102370000120002838D03E2B36D800206075581C2C
:10238000C0B2E3181A778B79002B22D10B685A1C44
:102390000A601B78002B22DD002B23DB0B7101234D
:1023A0004B71227D03002F2A01D9392ADED92B2A2D
:1023B000DED02D2A07D02E2A07D0652A07D0452A3D
:1023C000D2D00020D5E70120D3E70120D1E70120BA
:1023D000CFE7404B404A252140481AF0CBFC012270
:1023E0008A71D9E70023D9E7E31800221A77210080
:1023F0001C3102AE3000FEF749FD3378032B2AD0A2
:1024000014D8012B42D0022B0ED102AB1B78022B29
:1024100036D1A3690093049A059B2800FFF706FFB5
:10242000002854D0002613E0032611E0042B0ED11F
:1024300002AB1E78042E42D1A3690093049A059B37
:102440002800FFF7E9FD002802D0002600E003265F
:10245000300006B070BD02AB1B78032B0AD1A36914
:102460000093049A059B2800FFF75CFE00282CD0FF
:102470000026EDE71A4B1B4A58211B481AF07AFC3C
:102480001A4B1B4A532118481AF074FC02AB1B78F4
:10249000012B07D1049B2E79002E09D10E222A711F
:1024A0002B60D5E7134B144A5D210F481AF062FCEC
:1024B000ED21124B124A490012481AF05BFC124BF4
:1024C000124A632108481AF055FC0426C0E7042686
:1024D000BEE7C0466005031068050310E805031059
:1024E000380C0310600C0310BC010310C40C031063
:1024F000E80C03104C0D0310680D031024FE0210AD
:10250000A80D0310D8FE0210B40E0310D00E031055
:1025100070B504000E0022001032617D002928D021
:10252000227D002A3FD0202A09D8092A07D3093A58
:10253000D2B2012191400A00B5490A423AD10122A2
:1025400022730025002D00D060E122001032617D51
:10255000002932D0227D7B2A00D952E15B2A46D362
:102560005B3AD1B2202900D94BE18A00A9498A58A7
:102570009746917900290BD12169481C206109787F
:1025800000290BDD00290CDB117101215171C7E716
:10259000A14BA24A2521A2481AF0ECFB0120907120
:1025A000F0E70021F0E7227B002A01D10125C9E7ED
:1025B0000225C7E700226275ADE7917900290BD1AA
:1025C0002169481C2061097800290BDD00290CDBFA
:1025D000117101215171BDE78F4B904A252190481F
:1025E0001AF0C8FB01209071F0E70021F0E7222AE1
:1025F00002D0272A00D004E10023A3606368002BE7
:102600003FD02000FFF7ECFA051E00D0FEE03100BD
:102610002000FEF725FBF9E03279002A10D1402294
:102620003271002E05D0002232807280013A328051
:10263000728000223100200000F0A6FC0500E5E0D9
:102640008E21784B784A890078481AF093FB3279CA
:10265000002A10D120223271002E05D000223280B3
:102660007280013A3280728000223100200000F036
:102670007FFE0500CAE06B4B6D4A6E496B481AF04D
:1026800079FB2568286803681B682821984700287B
:1026900003D01F23C3801E3B8380002801D06060CD
:1026A000AFE701232B71FAE73379002B05D106231D
:1026B0003371053B3370604B1BE0D421594B5F4AAB
:1026C000FF315A481AF056FB534B544A25215448BF
:1026D0001AF050FB012090711DE011710121517120
:1026E000227D002A1BD019788A421AD10133002298
:1026F00062751D78002D00D188E022001032617DC6
:102700000029EDD191790029DED12169481C206191
:1027100009780029DEDD0029DFDA0021DDE7022566
:1027200074E0032572E03379002B05D10623337161
:1027300000233370424B1BE0D4213A4B3F4AFF3118
:102740003A481AF017FB344B344A252134481AF022
:1027500011FB012090711CE0117101215171227D4A
:10276000002A1AD019788A4219D1013300226275E1
:102770001D78002D4AD022001032617D0029EED153
:1027800091790029DFD12169481C2061097800294D
:10279000DFDD0029E0DA0021DEE7022536E003254F
:1027A00034E0284B14E01C4B1C4A25211C481AF02D
:1027B000E1FA012090711CE0117101215171227D1B
:1027C000002A1AD019788A4219D101330022627581
:1027D0001D78002D1AD022001032617D0029EED123
:1027E00091790029DFD12169481C206109780029ED
:1027F000DFDD0029E0DA0021DEE7022506E003251F
:1028000004E031002000FFF789FD0500280070BDBD
:1028100013008000281003106005031068050310E2
:10282000E805031024FE0210200F0310D8FE02104A
:10283000800F031046020000100F0310E40F031076
:10284000042A0310180F0310F0B5D6464F4646462B
:10285000C0B59AB00600009101AB1A8038239946A2
:1028600081440300383305D007000C3703689A46CB
:1028700000250CE0042075E053461B685B68504659
:10288000984700236360238063800135ADB2BB8C21
:10289000AB4207D9EC003B6A9C466444616800295E
:1028A000EAD1EEE70023BB84013B3B85396AB9429C
:1028B00007D053461B685B68504698473F62042325
:1028C000FB840023337134000834356805E00B685D
:1028D00023602B685B682800984721680029F6D19F
:1028E000320038320023137103A8039643608360DB
:1028F0000373009A026143758375866101AB5B784F
:1029000000224946FFF704FE002808D103AB1B7DD7
:10291000002B04D04B461B791B0700D50320051C58
:102920000499002904D0039B186803685B689847E2
:1029300034000C3433689846338E002B18D1216A4A
:10294000A1420ED0A28CE38C9A420AD0D200434618
:102950001B689B6840469847206200281DD0A38CC6
:10296000E384281C1AB0E0BCBA46B146A846F0BDC4
:102970000D4A94466344DF00236A9C4667447A8884
:10298000D20043461B689B687968404698470028F8
:10299000D5D078607B883B80D1E7044B044A9221F4
:1029A00004481AF0E7F9C046FFFFFF1FAC10031000
:1029B000C010031040F1021010B582B004000800EE
:1029C000FEF712FCFEF712FC010001AB0A225A705E
:1029D0001B886A461380009A2000FFF735FF02B07B
:1029E00010BD000030B59B4CA5449B4B9B4A1A6020
:1029F000002017F077FF28F043FA002817D028F0BE
:102A0000EBFA012296499748684426F057FA0028C5
:102A10002CD1954B954A964969449648684427F0CD
:102A20003AF8002800D076E00124012523E019F0CF
:102A30000FFB002914DB904A00231BF0B3FB1000AE
:102A400019001BF0A9FE00228C4B1BF0BAFD0200FE
:102A50000B008B481CF016FF8A481CF0E3FECEE703
:102A6000894B8A4A3F218A481AF084F9022001F0F2
:102A700065FB00240125002C01D0002D51D1C0227E
:102A80009201002104A81CF029FD00230393002CCF
:102A900001D0002D54D1704B1968C022920104A8B6
:102AA0001CF01CFD04AB00937A48FEF773F86946EE
:102AB000FFF782FF041CC3B2002B00D078E07649F8
:102AC000764B6B441800FEF79EFB6C460C22734B52
:102AD0006B44190020001CF001FD6E4B704A6A44E3
:102AE0001360704B6B4407CC07C36D486844FEF716
:102AF000AFFB03226C4929F00BFE002800D085E0D3
:102B00006A4B01221A7000225549002026F0D6F99E
:102B1000674B9D4430BD032001F010FB01240025CC
:102B2000A9E70122634969446348684426F0F6F93D
:102B30000028A4D00828A2D0032001F0FFFA9EE7C5
:102B4000C02203AB920104A95B48684426F099FBBC
:102B500000280AD0032001F0F1FA3F4B1968C02287
:102B6000920104A81CF0BAFC9CE719F071FA002944
:102B700018DB414A00231BF015FB100019001BF065
:102B80000BFE00223D4B1BF01CFD02000B003C48DD
:102B90001CF078FE039949481CF074FE04A8FDF768
:102BA0007FFC7FE7384B394A3F2139481AF0E2F879
:102BB00019F04EFA00291DDB2F4A00231BF0F2FA10
:102BC000100019001BF0E8FD00222C4B1BF0F9FC53
:102BD00002000B002A481CF055FEE4B2052C0FD869
:102BE000A400374BE15837481CF04CFE032001F09D
:102BF000E5FA64E7244B254A3F2125481AF0BAF844
:102C0000314B324A452132481AF0B4F8314C6C4409
:102C100021492000FEF7F7FA6B461A0023CC23C2A5
:102C20001C4A2D4969440A602C4A6A4413CB13C2DA
:102C300029486844FEF70CFB0722294929F068FD62
:102C4000002803D1194B02221A705CE7174B0022AF
:102C50001A7058E774C9FFFFC411002000D01F107C
:102C6000200503108831000024050310507C031058
:102C7000103000003031000040420F0000408F4013
:102C80004CF202100C050310F8EF021014F00210C1
:102C90004CF0021080230020A412031070360000B4
:102CA0005036000054360000AC120310FE90022093
:102CB0008C3600002A300000F03300006C11031045
:102CC000A81100208C12031090110310D4110310CE
:102CD0001C1203107C3600006036000064360000D1
:102CE000B012031000B583B017F01EFE1CF0D6FD25
:102CF000984819F0DDF86846FDF71AFB964A00235C
:102D0000009801991BF04EFA100019001BF044FDC9
:102D10000022924B1BF055FC02000B0090481CF067
:102D2000B1FD022203218F481CF0ACFD01F07AF9BD
:102D3000FFF758FE0BF0B6F88B4B1B78002B26D014
:102D4000012B00D188E0022B00D1A1E002F0E0F9D4
:102D5000002800D1E1E06846FDF7EAFA7E4A002348
:102D6000009801991BF01EFA100019001BF014FDC9
:102D700000227A4B1BF025FC02000B0078481CF067
:102D800081FD7A481CF04EFD21F094FBFEE7684679
:102D9000FDF7CEFA704A0023009801991BF002FA61
:102DA000100019001BF0F8FC00226C4B1BF009FC12
:102DB00002000B006A481CF065FD6D481CF032FDF6
:102DC00001F01CFF03F0B2FC06F04AFF04F022FF02
:102DD00002F084FE03F00AFB00281CD16846FDF7D0
:102DE000A7FA5D4A0023009801991BF0DBF9100057
:102DF00019001BF0D1FC0022584B1BF0E2FB020033
:102E00000B0057481CF03EFD5A481CF00BFD0120FA
:102E100001F020FA9AE706F0CDFA002896D168462C
:102E2000FDF786FA4C4A0023009801991BF0BAF985
:102E3000100019001BF0B0FC0022484B1BF0C1FB36
:102E400002000B0046481CF01DFD4B481CF0EAFC3C
:102E5000022001F0FFF979E76846FDF769FA3E4A7A
:102E60000023009801991BF09DF9100019001BF038
:102E700093FC0022394B1BF0A4FB02000B003848E6
:102E80001CF000FD3D481CF0CDFC02F027FE5DE784
:102E90006846FDF74DFA304A0023009801991BF06F
:102EA00081F9100019001BF077FC00222B4B1BF05E
:102EB00088FB02000B002A481CF0E4FC30481CF0A0
:102EC000B1FC01F09BFE03F031FC04F0A3FE02F024
:102ED00005FE15F0CBF803F089FA002800D035E79D
:102EE0006846FDF725FA1C4A0023009801991BF05B
:102EF00059F9100019001BF04FFC0022174B1BF072
:102F000060FB02000B0016481CF0BCFC19481CF0CA
:102F100089FC012001F09EF918E76846FDF708FAE0
:102F20000D4A0023009801991BF03CF9100019008C
:102F30001BF032FC0022094B1BF043FB02000B008C
:102F400007481CF09FFC0F481CF06CFC032001F0AC
:102F500081F900E78813000040420F0000408F40D5
:102F60004CF20210B8120310FE900220041303105A
:102F7000D0120310CCF20210D8F20210E8120310A3
:102F8000F4120310E8F20210F0B587B004000F004D
:102F90006A46D370DBB2002B00D1DEE103001033B0
:102FA000427D002A1FD0237D5B2B36D10023637521
:102FB00023001033627D002A35D0237D002B4CD0B6
:102FC000202B09D8092B07D3093BDBB201229A40F9
:102FD0001300BA4A134247D101232373002000286B
:102FE00045D007B0F0BD9A79002A0BD10269511C77
:102FF00001611278002A0BDD002A0CDB1A71012214
:103000005A71D0E7AE4BAF4A2521AF4819F0B2FE56
:1030100001219971F0E70022F0E7AC4BAC4A9D2109
:10302000AC4819F0A7FE9A79002A0BD12269511CED
:1030300021611278002A0BDD002A0CDB1A710122B3
:103040005A71BAE79E4B9F4A25219F4819F092FE7C
:1030500001219971F0E70022F0E7237B002B01D1D9
:103060000120BCE70220BAE700236375A0E7230034
:103070001033627D002A07D0237D5D2B1ED10023F3
:103080006375013301931BE09A79002A0BD1226901
:10309000511C21611278002A0BDD002A0CDB1A7109
:1030A00001225A71E8E7864B864A2521864819F0A5
:1030B00061FE01219971F0E70022F0E700230193FE
:1030C000019B002B79D08CE70133337100230293ED
:1030D000013B02AA938015E07F4B804A262180485D
:1030E00019F048FE04AA9288029302A98A805942E4
:1030F0004B41DBB27B498C46624451424A41D2B2D9
:1031000093426FD1029D002D0CD0082202A904A881
:103110001CF0E4F97A88744B9A4269D104AB9B881D
:103120003B807B80002D00D119E16B46DB78002BC2
:1031300000D184E0013BDBB2002229002000FFF730
:10314000E7F9002800D04CE723001033627D002A05
:103150007BD0227D002A00D191E0202A09D8092ABB
:1031600007D3093AD2B201239340544A134200D004
:103170008CE001232373002800D032E723001033B2
:10318000627D002A00D184E0237D5D2B00D0C6E063
:10319000002363750133002B00D022E72200103298
:1031A000617D002900D1BCE0227D2C2A02D10023C0
:1031B00063750133002B00D1CDE0A66931000C31DD
:1031C000326804A8FDF734FA049B002B00D17BE79A
:1031D000049B002B00D17FE784D000221A71013AB2
:1031E000DA807FE7414B424A16213D4819F0C2FD83
:1031F00033000C333C498A421FD0D1097F20024062
:10320000988C81420DD21B6AC90059184B889A428A
:103210000DD24B68D2009A1804AB9B88D3807B8078
:1032200080E7344B344A7121344819F0A3FD344B04
:10323000344A4B212A4819F09DFD0022ECE7324B1D
:10324000324A1321324819F095FD9A79002A0BD1A0
:103250002269511C21611278002A0BDD002A0CDB47
:103260001A7101225A7174E7154B164A2521164826
:1032700019F080FD01219971F0E70022F0E7237B2E
:10328000002B01D1012076E7022074E7002363754B
:103290005AE79A79002A0BD12269511C21611278D0
:1032A000002A37DD002A38DB1A7101225A716BE7D8
:1032B000034B044A2521044819F05CFD13008000EB
:1032C0006005031068050310E805031014130310CC
:1032D000281303108C140310ACF90210AC07031070
:1032E000B4F502100100FFFFFFFF000010F602100E
:1032F000E0F80210C0F30210D4F3021040F1021003
:10330000C0F40210CCF40210EC140310F8140310F3
:103310008415031001219971C4E70022C4E7019BC1
:1033200039E7917900290BD12169481C206109787E
:1033300000290BDD00290CDB11710121517133E7EC
:10334000084B094A2521094819F014FD0120907104
:10335000F0E70021F0E7032043E6052041E60420E2
:103360003FE6C0466005031068050310E80503103A
:10337000F0B5DE4657464E464546E0B59FB00400E0
:1033800007916A46D376DBB2002B01D100F09AFD9B
:1033900003001033427D002A27D0237D7B2B3ED1B2
:1033A0000023637523001033627D002A3DD0237D06
:1033B000002B54D0202B09D8092B07D3093BDBB2B3
:1033C00001229A401300B74A134251D101232373BB
:1033D00000230593059B002B4DD005981FB0F0BC32
:1033E000BB46B246A946A046F0BD9A79002A0BD149
:1033F0000269511C01611278002A0BDD002A0CDBE6
:103400001A7101225A71C8E7A74BA84A2521A8487A
:1034100019F0B0FC01219971F0E70022F0E7A54B0B
:10342000A54AF321A54819F0A5FC9A79002A0BD1E9
:103430002269511C21611278002A0BDD002A0CDB65
:103440001A7101225A71B2E7974B984A2521984880
:1034500019F090FC01219971F0E70022F0E7237B3D
:10346000002B02D101230593B4E702230593B1E7B2
:103470000023637596E723001033627D002A0CD089
:10348000237D7D2B23D10023637501330493049B9B
:10349000002B01D100F087FC9FE79A79002A0BD11D
:1034A0002269511C21611278002A0BDD002A0CDBF5
:1034B0001A7101225A71E3E77B4B7C4A25217C4833
:1034C00019F058FC01219971F0E70022F0E7002380
:1034D0000493DCE72568286803681B68282198475F
:1034E000002803D01F23C3801E3B8380002802D006
:1034F000606000F05FFC01232B71F9E79A79002AE4
:103500000CD12269511C21611278002A0CDD002A9D
:103510000DDB1A7101225A7100F053FC624B634AB1
:103520002521634819F026FC01219971EFE700225B
:10353000EFE743469B79002B0DD123695A1C22618A
:103540001B78002B0DDD002B0FDB4246137101238E
:10355000537100F045FC544B544A2521544819F04E
:1035600009FC012241468A71EDE70023EDE7E221E3
:10357000534B544A4900514819F0FCFB0123039373
:1035800004E00123039301E0049B0393039B002BBE
:1035900000D182E0474656E001230393F6E7226814
:1035A00091465B000133984613689B46002E11D06C
:1035B00080235B02984513D25B461B689B6842469A
:1035C0000932310058469847824600280AD04246C0
:1035D000C2800DE03C4B3D4A33213D4819F0CAFB07
:1035E00000239A465B461B685B6831005846984743
:1035F0005346002B02D0534663602DE001334A4608
:103600001371F8E7BB79002B0BD13B685A1C3A6069
:103610001B78002B0BDD002B0CDB3B7101237B7136
:1036200025E0214B214A2521214819F0A3FB012245
:10363000BA71F0E70023F0E7039B02E0039B00E090
:10364000049B002B24D0002363756668002E03D0F2
:10365000A368F2889342A2D06368002B04D0A268CA
:10366000511CA1609B181D72637D002BCAD0257D63
:103670002F2D01D9392DDFD95E2D01D97A2DDDD934
:10368000402DDDD95A2D01D9049BDAE7039BD8E7F9
:103690006368002B03D005981FE003201DE0042081
:1036A0001BE0C0461300800060050310680503108E
:1036B000E8050310EC150310001603108C1403101A
:1036C000B06003106817031060FF021070FF021053
:1036D0002C0003102000FEF783FA002800D0DAE364
:1036E00023001033627D002A20D0237D002B37D0A9
:1036F000202B09D8092B07D3093BDBB201229A40C2
:103700001300C64A134232D101232373002800D08C
:10371000C4E323001033627D002A2BD0237D3A2B93
:1037200042D100236375013303933FE09A79002A65
:103730000BD12269511C21611278002A0BDD002A6D
:103740000CDB1A7101225A71CFE7B54BB54A25211E
:10375000B54819F00FFB01219971F0E70022F0E75D
:10376000237B002B01D10120D0E70220CEE70023EC
:103770006375B5E79A79002A0BD12269511C216142
:103780001278002A0BDD002A0CDB1A7101225A7113
:10379000C4E7A34BA34A2521A34819F0EBFA012162
:1037A0009971F0E70022F0E7049B0393039B002B41
:1037B00000D176E36368002B3DD0A2689446634451
:1037C00000221A72636808330CA90C93A3684B603B
:1037D0000A7215AE3000FDF7D3F9A7690FAB1A00D6
:1037E00023CE23C223CB23C2129B002B29D0079BBD
:1037F00019883A000C328D4B994200D19CE0C809DF
:103800007F230B40968CB04200D389E0126AC0003F
:1038100012185088834200D388E05268DB00D31826
:103820000A930AAA9180002B00D187E0DA880AABBC
:10383000DA80039ECCE07E4B7E4A4D217E4819F013
:1038400099FA089308AB012252429A80089E002EF2
:1038500026D008AB9A88754B9A4200D12BE108AB71
:10386000D9880C37714B994200D136E1C8097F23C2
:103870000B40BA8C904200D323E13A6AC000121880
:103880005088834200D322E15268DB00D3180893AA
:1038900008AA9180002B02D0DA8808ABDA80089E53
:1038A000002E00D11BE1A1693000FDF75BF86B46EB
:1038B000DB7E002B00D1D6E1013BDBB200223100E0
:1038C0002000FEF725FE002800D0F7E1230010338A
:1038D000627D002A00D1CCE1237D002B00D1E2E102
:1038E000202B0AD8092B08D3093BDBB201229A40CE
:1038F00013004A4A134200D0DCE10123237300285D
:1039000000D0D2E223001033627D002A00D1D8E13A
:10391000237D7D2B00D01BE200236375039B18E2FF
:10392000464B474A7121474819F024FA464B474A0B
:103930004B21474819F01EFA002371E73B4A76E70E
:10394000444B454A2721454819F014FA002D54D01C
:10395000280028F0AFFE1BAB1B951C9000221A72AA
:103960001BA918A8FDF769FC19AB6A4603CB03C273
:10397000189B12981399149AFDF70EF9002800D09D
:1039800078E001235E40F6B20AAB9A88274B9A4250
:1039900076D00AABD9883A000C32244B994200D138
:1039A00080E0C8097F230B40958CA8426ED2126A32
:1039B000C0001218508883426ED25268DB00D318C0
:1039C0000A930AAA9180002B02D0DA880AABDA8027
:1039D0000A9B002B68D0002ED3D01D1EB0D01B79BF
:1039E000042B0CD0052B3BD0022BAFD01BAB0022FD
:1039F0001B921C9201321A72B2E70020ABE72D68CD
:103A0000002D08D0280028F055FE1BAB1B951C90FC
:103A100001221A72A4E70020F7E7C04613008000D5
:103A20006005031068050310E8050310FFFF0000A0
:103A300010FE021030180310B0FD0210C0F3021087
:103A4000D4F3021040F10210C0F40210CCF40210C2
:103A5000B4F502101C020310300203109C02031084
:103A60002B6819000831DA881BAB1B911C920022CD
:103A70001A7275E708220AA908A81BF02FFDE5E6CF
:103A80009D4B9E4A15219E4819F074F99D4B9E4A04
:103A900071219E4819F06EF99D4B9E4A4B219E481C
:103AA00019F068F900238BE70023089308AB012283
:103AB00052429A80CAE6904B904A1521904819F0DC
:103AC00059F9904B904A7121904819F053F9904B55
:103AD000904A4B21904819F04DF90023D7E6A76989
:103AE00039000C313A6812A8FCF7A2FD129B002B9A
:103AF00063D0129B002B69D003D000221A71013AC7
:103B0000DA8012AA9288089308A98A8059424B4108
:103B1000DBB282498C46624451424A41D2B293425E
:103B20005AD1089B9846002B3ED039000C313A6898
:103B300012A8FCF77DFD129B002B53D0129B002B8B
:103B400059D003D000221A71013ADA8012AA928861
:103B50000A930AA98A8059424B41DBB26F498C46CD
:103B6000624451424A41D2B293424AD10A9B994699
:103B7000002B76D00FAA08AB03CB03C20822190092
:103B800012A81BF0ABFC0F9B002B40D012AA92880E
:103B9000DA80079B5B8862498B423ED10FAB9B88E2
:103BA00007990B804A804E464346002B00D184E0A3
:103BB00041462000FDF754F879E601333B710023BC
:103BC000089308AB012252429A80AAE7554B564A05
:103BD0002621514819F0CEF8544B554A16214E482B
:103BE00019F0C8F801333B7100230A930AAB012294
:103BF00052429A80BAE74B4B4B4A2621464819F06D
:103C0000B9F84A4B4A4A1621434819F0B3F8454BD4
:103C1000484A2621404819F0ADF80C378B420ED0A7
:103C2000D8097F263340B98C88420ED2396AC00049
:103C30000918488883420ED24E68DB00F6180FAB95
:103C40009B88F380079B5A80ADE72E4B2E4A71214B
:103C50002E4819F08FF82E4B2E4A4B212E4819F082
:103C600089F89846A0E7344B344A1321344819F0B8
:103C700081F89A79002A0BD12269511C21611278AE
:103C8000002A0BDD002A0CDB1A7101225A7123E68F
:103C90002C4B2D4A25212D4819F06CF801219971E2
:103CA000F0E70022F0E7237B002B01D1012026E67C
:103CB000022024E60023637508E604200590FFF740
:103CC0008CFB9A79002A0BD12269511C2161127850
:103CD000002A0BDD002A0CDB1A7101225A7117E64B
:103CE000184B194A2521194819F044F801219971F6
:103CF000F0E70022F0E7C0460003031018030310AA
:103D00008C030310C0F30210D4F3021040F1021030
:103D1000C0F40210CCF40210B4F502100100FFFF51
:103D2000FFFF0000ACF90210AC07031010F6021000
:103D3000E0F80210BCF90210EC140310F8140310A0
:103D4000841503106005031068050310E8050310CF
:103D5000049B002B00D0ABE022001032617D0029D3
:103D60005BD0227D2C2A02D100236375039B002B9C
:103D700000D1A0E023001033627D002A67D0237DAC
:103D8000002B7ED0202B09D8092B07D3093BDBB2AF
:103D900001229A4013004D4A134279D10123237323
:103DA000002800D08BE00023A3606368002B01D1C2
:103DB000FFF790FB23001033627D002A01D1FFF74B
:103DC0009DFB237D272B00D184E4222B00D181E4AD
:103DD00010239846A044637D002B01D1FFF7A9FB77
:103DE000257D002D01D1FFF7C2FB2F2D03D9392DE1
:103DF00001D8FFF7C3FB5E2D03D97A2D01D8FFF759
:103E0000C0FB402D01D8FFF7BFFB5A2D01D8FFF7AB
:103E1000C3FB049B0393FFF7B9FB917900290BD1F6
:103E200021694E1C2661097800290BDD00290CDB75
:103E300011710121517194E7254B264A252126480D
:103E400018F098FF01269671F0E70021F0E79A79C3
:103E5000002A0BD12269511C21611278002A0BDD46
:103E6000002A0CDB1A7101225A7188E7184B194A93
:103E70002521194818F07EFF01219971F0E70022F1
:103E8000F0E7237B002B01D1012089E7022087E79F
:103E9000002363756EE70590FFF79FFA0590FFF723
:103EA0009CFA03230593FFF798FA0590FFF795FA1C
:103EB0000590FFF792FA03230593FFF78EFA05901A
:103EC000FFF78BFA05230593FFF787FA13008000AD
:103ED0006005031068050310E805031010B50249DA
:103EE0000120FCF73BFA10BDFFFF000010B50400F5
:103EF00018F0AEF8002903DB20606160200010BDDF
:103F0000024B034A3F21034818F034FFF8EF021038
:103F100014F002104CF0021070B518E001210E48A8
:103F200018F0BAFE0D4B01221A7018F06FFED02562
:103F30002D068026B6046E61FA24A400200020F02D
:103F400077FC18F063FEAE61200020F071FC034B9B
:103F50001B78002BE2D0E8E788130000FC900220D9
:103F6000F0B5C64600B5002400E000242B4B1D78B8
:103F7000002D1ED0A54214D9D0252D0640236B61FB
:103F800080266E61FA2020F053FCAE61FA2020F00A
:103F90004FFC0134E4B2214B1B780533A342E4DB30
:103FA000E4E7D0231B0680225A61FA2020F040FC6F
:103FB000EFE71B4B1E78002E24D0A64218D9D0263E
:103FC000360640239846736180277761FA2020F0F7
:103FD0002FFC4346B361B761FA2020F029FC01347D
:103FE000E4B20F4B1B780533A342BFDA2C00BDE7C8
:103FF000D0231B0640225A6140325A61FA2020F039
:1040000017FCECE7D0231B0640229A6140325A612C
:10401000002020F0ABFC3400A8E7C046FB90022053
:10402000FA90022010B582B0354B00221A70192088
:1040300016F0AAFDD024240680239B0463626361EA
:10404000072016F0A1FD802363626361062016F04D
:104050009BFD4023636263612A4B0193012300931C
:10406000002380222849294820F07FF88022284B0D
:10407000019302230093002352002649264820F092
:1040800074F817F0E5FF00292DDB244A00231AF00D
:1040900089F8100019001AF07FFB0022204B1AF05B
:1040A00090FA02000B001F481BF0ECFB1E481BF0AF
:1040B000B9FB17F0CDFF00291BDB184A00231AF0CB
:1040C00071F8100019001AF067FB0022144B1AF067
:1040D00078FA02000B0013481BF0D4FB13481BF0C6
:1040E000A1FB02B010BD124B124A3F21124818F03A
:1040F00041FE0F4B0F4A3F210F4818F03BFEC046D0
:10410000FC9002207C230020A4190310193F00100A
:1041100078230020B0190310613F001040420F00C7
:1041200000408F404CF20210C0190310D819031040
:10413000F8EF021014F002104CF0021010B5040059
:1041400017F086FF002921DB134A00231AF02AF812
:10415000100019001AF020FB0022104B1AF031FA5F
:1041600002000B000E481BF08DFB21000D481BF0D8
:1041700089FB0D4B1B78002B01D0002C05D10A4B7D
:104180001C700A4B186820F043F910BD084B094A0F
:104190003F21094818F0EEFD40420F0000408F40DB
:1041A0004CF20210F4190310FB9002207823002037
:1041B000F8EF021014F002104CF00210F0B583B0CA
:1041C00005006846FFF792FE1B4A002300980199FC
:1041D00019F0E8FF100019001AF0DEFA0022174B60
:1041E0001AF0EFF902000B0015481BF04BFB2900F9
:1041F00014481BF047FB002400E00024AC4212D21C
:10420000D02636064023736180277761FA2017F0A5
:1042100075FFB761FA2017F071FF0134E4B26B1D2E
:10422000A342EADBEAE7D0231B0680225A61FA2088
:1042300017F064FFF1E7C04640420F0000408F4096
:104240004CF20210001A0310014B18787047C04658
:10425000FB900220F0B5C64600B582B00600684665
:10426000FFF744FE1D4A00230098019919F09AFFB8
:10427000100019001AF090FA0022194B1AF0A1F957
:1042800002000B0017481BF0FDFA310016481BF026
:10429000F9FA002400E00024B44215D2D0252D06FE
:1042A000402398466B6180276F61FA2017F026FF44
:1042B0004346AB61AF61FA2017F020FF0134E4B24E
:1042C000731DA342E7DBE7E7D0231B0640225A61B8
:1042D00040325A61FA2017F011FFEFE740420F0019
:1042E00000408F404CF20210181A0310F0B5C64679
:1042F00000B58CB02822002102A81BF0E9F80023A9
:104300009846019300257DE03C00082C0EDC671CDC
:10431000BB0002AA9858A300985000211AF0D6FEBC
:104320000028F1D0A40002ABE650EDE70B96002484
:10433000002005E0A30002AA99581AF07BFE013480
:10434000092CF7DD3E491AF07AFE041C3D4B18603B
:104350003D4B1868211C1AF0D7FE002806D0812199
:10436000C905201C1AF0D0FE00280AD1374B186866
:10437000211C1AF0B3FE00280CD1002D2DD02C00EA
:1043800000E001244346002B05D004F0FBFE00238F
:10439000984609E00024002C02D04346002B1ED092
:1043A000002C01D1002D1ED1264B1D68284B196809
:1043B000281C1AF093FE002818D08121C905281C5A
:1043C0001AF0A2FE002832D0019B002B31D104F05C
:1043D000FDFE00F085FE01250EE02C00DBE704F079
:1043E000F5FEA046E0E704F0D7F9DDE70025002D53
:1043F00002D1019B002B1ED1FA20800020F018FA78
:1044000001952500134B04221A60134B1B68DB0532
:10441000FBD5114B586880B21AF07BFE0F491AF099
:1044200024FE0F491AF006FE061C00246DE7002545
:10443000DDE7019DDBE704F0AFF900F05DFEDBE7AF
:104440000000204144280020D0110020C811002085
:10445000CC11002000E0044000C00440499A103C08
:10446000CDCC4C3F014B18687047C0464428002013
:10447000704710B504000800FFF7FAFF20600A2318
:104480006360093B2372200010BD704710B5040023
:104490000800FFF7FAFF20600C2363600B3B2372D8
:1044A000200010BD704710B504000800FFF7FAFFA8
:1044B00020600F2363600E3B2372200010BD01209B
:1044C000704710B5041CFFF7FAFF002803D0201C2A
:1044D0001AF0A0FE10BD00200021FBE7012070476C
:1044E00070B505000C00FFF7F9FF002804D0280084
:1044F00021001AF045F970BD00200021FBE70120E2
:10450000704770B505000C00FFF7F9FF002804D0D4
:10451000280021001AF040F970BD00200021FBE7BF
:104520000120704770B504000D00FFF7F9FF002867
:1045300002D02000290070BD00200021FBE7000010
:1045400010B584B00379DB0628D504880C313F4BC5
:104550009C4221D0E2097F2323408C8CA2420FD2BF
:10456000096AD2008A1851888B420FD25268DB0048
:10457000D21803791E2B65D89B003549CB589F462E
:10458000344B354A7121354818F0F4FB344B354A29
:104590004B21354818F0EEFB0022EAE70022E8E75D
:1045A00000781AF0A1F84FE000681AF09DF84BE08F
:1045B00000681AF09DF847E0106851681AF0ECF8AE
:1045C00042E0106851681AF0DBF83DE00100002974
:1045D0001CD06846FCF75AFC6B461B78032B2CD08A
:1045E0001DD8012B25D0022B16D102980399FFF775
:1045F00077FF29E00168EAE701680831E7E700682A
:104600001AF008FE20E0106851681DE0174B184AA8
:10461000EA31184818F0AEFB0020002114E0042B0A
:1046200004D102980399FFF77DFF0DE000200021DF
:104630000AE00298FFF745FF06E002980399FFF7AA
:1046400060FF01E00020002104B010BDFFFF00006A
:10465000B81A0310C0F30210D4F3021040F1021094
:10466000C0F40210CCF40210B4F50210F0030310F1
:10467000301A0310D8FE0210F0B59FB006000300F8
:1046800020CB2800383007AA92CB92C22B003833B7
:1046900069D007AB92CB92C20379202B32D10DAAFD
:1046A0000AAB92CB92C200285DD0130094460DAAAB
:1046B000190098CA98C10A00634692CB92C2139B14
:1046C000002B21D001882A000C328C4B994200D15A
:1046D00063E0C8097F230B40948CA04251D2126A38
:1046E000C00012185088834251D25268DB00D318A0
:1046F000059305AA9180002B51D0DA8805ABDA80AA
:10470000012494E00020CAE7039303AB0122524244
:104710009A800398002826D003AB9A88774B9A4258
:1047200000D1D3E003ABD9880C35744B994200D14A
:10473000DEE0C8097F230B40AA8C904200D3CBE077
:104740002A6AC00012185088834200D3CAE0526817
:10475000DB00D318039303AA9180002B02D0DA88E0
:1047600003ABDA800398316816AB1690179113AA41
:1047700030CB30C2002800D1BCE0FFF7E1FE1FB013
:10478000F0BD5F4B5F4A71215F4818F0F3FA5F4B51
:104790005F4A4B215F4818F0EDFA0023A8E7574A1B
:1047A000ACE75D4B5D4A27215D4818F0E3FA002F26
:1047B00052D0380027F07EFF1BAB1B971C900022C5
:1047C0001A721BA918A8FCF738FD19AB6A4603CB6F
:1047D00003C2189B13981499159AFCF7DDF9002869
:1047E00054D101235C40E4B205AB9A88434B9A4212
:1047F00051D005ABD9882A000C32404B99425CD08D
:10480000C8097F230B40978CB8424AD2126AC00075
:104810001218508883424AD25268DB00D31805939D
:1048200005AA9180002B02D0DA8805ABDA80059BBF
:10483000002B44D0002CD4D01F1EB2D01B79042BE7
:104840000CD0052B18D0022BB1D01BAB00221B9231
:104850001C9201321A72B4E70020ADE73F68002FC6
:1048600008D0380027F026FF1BAB1B971C900122B5
:104870001A72A6E70020F7E73B6819000831DA88CA
:104880001BAB1B911C9200221A729AE703AA05AB7C
:1048900003CB03C23DE7234B234A1521234818F0DD
:1048A00069FA174B174A7121174818F063FA174B2A
:1048B000174A4B21174818F05DFA0023AFE7002391
:1048C000039303AB012252429A8022E7154B164A0A
:1048D0001521164818F04EFA094B0A4A71210A4868
:1048E00018F048FA094B0A4A4B210A4818F042FAD4
:1048F00000232FE70020002141E7C046FFFF000012
:10490000C0F30210D4F3021040F10210C0F4021000
:10491000CCF40210B4F502101C0203103002031094
:104920009C02031000030310180303108C030310F0
:10493000F0B5C64600B59EB006008846020020CA03
:104940002B00383307A991CA91C12A00383268D0A8
:1049500007AA91CA91C11A79202A31D10DA90AAAB0
:1049600091CA91C1002B5CD00A008C460DA91000A1
:1049700094C994C00100624691CA91C1139A002A59
:1049800020D019882A000C328F4B994267D0C80971
:104990007F230B40948CA04255D2126AC00012189B
:1049A0005088834255D25268DB00D318059305AA7C
:1049B0009180002B55D0DA8805ABDA80012498E08D
:1049C0000023CBE70023039303AB013A9A80039BB8
:1049D000002B26D003AB9A887B4B9A4200D1D7E0BC
:1049E00003ABD9880C35784B994200D1E2E0C80975
:1049F0007F230B40AA8C904200D3CFE02A6AC000EC
:104A000012185088834200D3CEE05268DB00D318DE
:104A1000039303AA9180002B02D0DA8803ABDA80DB
:104A2000039B16AA16933168179113A911CA11C1D5
:104A3000002B00D1C0E01B791B0700D4BCE0300084
:104A4000FFF71AFEBBE0614B614A7121614818F023
:104A500091F9614B614A4B21614818F08BF90023B1
:104A6000A4E7594AA8E75F4B5F4A27215F4818F03F
:104A700081F9002F52D0380027F01CFE1BAB1B978A
:104A80001C9000221A721BA918A8FCF7D6FB19ABC0
:104A90006A4603CB03C2189B13981499159AFCF726
:104AA0007BF8002854D101235C40E4B205AB9A881E
:104AB000454B9A4251D005ABD9882A000C32424B63
:104AC00099425CD0C8097F230B40978CB8424AD2E8
:104AD000126AC0001218508883424AD25268DB0022
:104AE000D318059305AA9180002B02D0DA8805AB74
:104AF000DA80059B002B44D0002CD4D01F1EB2D0EE
:104B00001B79042B0CD0052B18D0022BB1D01BAB7A
:104B100000221B921C9201321A72B4E70020ADE70A
:104B20003F68002F08D0380027F0C4FD1BAB1B974F
:104B30001C9001221A72A6E70020F7E73B681900D3
:104B40000831DA881BAB1B911C9200221A729AE77B
:104B500003AA05AB03CB03C239E7254B254A152130
:104B6000254818F007F9194B194A7121194818F00E
:104B700001F9194B194A4B21194818F0FBF8002389
:104B8000AFE70023039303AB012252429A801EE752
:104B9000174B184A1521184818F0ECF80B4B0C4A23
:104BA00071210C4818F0E6F80B4B0C4A4B210C48CD
:104BB00018F0E0F800232BE74346186859681EB048
:104BC00080BCB846F0BDC046FFFF0000C0F3021035
:104BD000D4F3021040F10210C0F40210CCF4021021
:104BE000B4F502101C020310300203109C020310E3
:104BF00000030310180303108C03031070B5A2B058
:104C00001DF0A4FD1F211A2015F0AEFE0022002188
:104C10001A2015F0C1FE00211A2015F09DFF3F4B10
:104C20001B68E022D20113403D4A13601FAD3D498D
:104C30002800FFF71EFC03AC230007CD07C33A4E44
:104C4000069607AB220023CA23C30022374B0A92E1
:104C50000B930AA906A8FFF76BFE19F0D5FD344B9C
:104C600018601CAD33492800FFF710FC230007CD66
:104C700007C30C960DAB220023CA23C32E4A2F4B29
:104C80001092119310A90CA8FFF752FE19F0BCFD69
:104C90002B4B186019AD2B492800FFF704FC2300AB
:104CA00007CD07C3129613AB07CC07C30022264BD0
:104CB0001692179316A912A8FFF73AFE19F0A4FD51
:104CC000224B18608022224B019303230093002380
:104CD0005200204920481FF048FA17F0B9F900297E
:104CE00015DB1E4A002319F05DFA1000190019F0B7
:104CF00053FD00221A4B19F064FC02000B00194806
:104D00001AF0C0FD18481AF08DFD22B070BD174B87
:104D1000174A3F21174818F02DF8C04600C004403C
:104D200000D00440341B0310802300200080274063
:104D3000D0110020401B031033333333333328406A
:104D4000C8110020501B031000002440CC1100208B
:104D500040280020601B0310ED42001040420F006D
:104D600000408F404CF20210701B0310F8EF02104D
:104D700014F002104CF0021030B583B004000D00A6
:104D8000002301930F4B1B68002B01D00F2808D084
:104D9000019B012B0FD02900200015F04BFE03B022
:104DA00030BD094814F004FF064B186801AA002121
:104DB00020F040FCECE7002BEDD0044B80225205A4
:104DC0001A60E8E7182400201C24002004ED00E00D
:104DD00000B583B0012801D003B000BD054B994256
:104DE000FAD1002300930F3311220349034813F033
:104DF000CFFEF1E7FFFF000000C003401C240020AD
:104E0000F0B5C64600B584B007000E0015001C00C2
:104E100001212E4B186849421EF0BCFD00201FF0F6
:104E20004FFA80460E2100201FF06AFA17F010F9A1
:104E3000002936DB264A002319F0B4F910001900C6
:104E400019F0AAFC0022234B19F0BBFB02000B0057
:104E500021481AF017FD00942B00320039001F483A
:104E60001AF010FD03AA1770D670557094700423C1
:104E7000FF211B4814F01AFD002818D0194B1B788D
:104E8000002B1BD1414600201FF03AFA0F4B186847
:104E90000023002200211EF0D3FA04B080BCB846E3
:104EA000F0BD114B114A3F21114817F063FF053047
:104EB000FFF744F90B4B01221A70E3E70020FFF7DC
:104EC0003DF9084B00221A70DCE7C046142400208C
:104ED00040420F0000408F404CF202108C1B031028
:104EE0001C2400200C910220F8EF021014F0021094
:104EF0004CF0021010B584B000900191029203931F
:104F000001212B4B186849421EF044FD00201FF080
:104F1000D7F904000E2100201FF0F2F917F098F8DD
:104F200000292CDB234A002319F03CF9100019005A
:104F300019F032FC0022204B19F043FB02000B0059
:104F40001E481AF09FFC1E481AF06CFC0E236A469D
:104F5000FF211C4814F0AAFC002816D01A4B1B781D
:104F6000002B1DD1210000201FF0CAF9104B18683A
:104F70000023002200211EF063FA04B010BD134B81
:104F8000134A3F21134817F0F5FED0231B06402299
:104F90005A610530FFF7D2F80B4B01221A70E1E796
:104FA0000020FFF7CBF8084B00221A70DAE7C04662
:104FB0001424002040420F0000408F404CF20210A9
:104FC000BC1B03101C2400200C910220F8EF0210DF
:104FD00014F002104CF0021010B582B001AB188032
:104FE00001212C4B186849421EF0D4FC00201FF010
:104FF00067F904000E2100201FF082F917F028F84D
:1050000000292FDB244A002319F0CCF810001900E6
:1050100019F0C2FB0022214B19F0D3FA02000B0059
:105020001F481AF02FFC6B4619795A791D481AF05F
:1050300029FC022301AAFF211B4814F037FC002899
:1050400016D01A4B1B78002B1DD1210000201FF019
:1050500057F9104B18680023002200211EF0F0F9C8
:1050600002B010BD124B134A3F21134817F082FEC5
:10507000D0231B0640225A610530FFF75FF80B4B27
:1050800001221A70E1E70020FFF758F8074B0022D1
:105090001A70DAE71424002040420F0000408F40CD
:1050A0004CF20210CC1B03101C2400200C91022097
:1050B000F8EF021014F002104CF0021010B5044B7F
:1050C00018681AF02FF91AF04BF840B210BDC0461C
:1050D0003C280020014B18787047C0460A910220F6
:1050E00010B5034814F0B6F8024B01221A7010BD37
:1050F0001C2400200B91022010B5034813F08DFFF3
:10510000024B00221A7010BD1C2400200B910220BB
:1051100010B5034814F0D4F8002800D0012010BDC9
:105120001C240020704710B504000800FFF7FAFFA8
:10513000206005236360043B2372200010BD70478C
:1051400010B504000800FFF7FAFF20600B2363602E
:105150000A3B2372200010BD704710B50400080000
:10516000FFF7FAFF206009236360083B23722000E9
:1051700010BDC043C00F70470120704701230029B4
:1051800004D104D180221206904200D30023D8B269
:1051900070478022120600238018594101230029FC
:1051A00000D00023D8B2704710B50400FFF7E1FF2C
:1051B000002801D0200010BD0020FCE710B504003D
:1051C000FFF7DAFF002801D0200010BD0020FCE727
:1051D00010B50400FFF7D2FF002801D0200010BD59
:1051E0000020FCE710B50400FFF7D3FF002801D032
:1051F000200010BD0020FCE770B504000D00002267
:10520000084B19F055FA002809D0074A074B20002F
:10521000290019F045FA002802D0012000E0002002
:1052200070BDC0460000E0C10000C0FFFFFFDF41CD
:1052300070B504000D00FFF7DFFF002804D0200048
:10524000290019F06DFA70BD0020FCE770470000DE
:1052500010B5041CCF21090619F04EFF00280AD012
:105260000748FFF7F3FF011C201C19F03DFF002841
:1052700003D0012000E0002010BD0020FCE7C04664
:10528000FFFFFF4E10B5041CFFF7E2FF002803D01C
:10529000201C19F065FF10BD0020FCE710B584B09C
:1052A0000379DB0628D504880C313E4B9C4221D083
:1052B000E2097F2323408C8CA2420FD2096AD200DC
:1052C0008A1851888B420FD25268DB00D2180379BA
:1052D0001E2B64D89B003449CB589F46334B344A2D
:1052E0007121344817F046FD334B344A4B21344882
:1052F00017F040FD0022EAE70022E8E700784FE0DF
:105300000068FFF751FF4BE00068FFF757FF47E0E9
:1053100010685168FFF75CFF42E010685168FFF7C2
:1053200061FF3DE0010000291ED06846FBF7AEFD9D
:105330006B461B78032B2DD01FD8012B26D0022BB8
:1053400019D102980399FFF74DFF29E00168EAE7B8
:1053500001680831E7E70068FFF794FF20E0106874
:105360005168FFF765FF1BE01831164B164AFF31F5
:10537000164817F0FFFC002012E0042B04D102981D
:105380000399FFF755FF0BE0002009E00298FFF7B3
:1053900079FF05E002980399FFF71AFF00E000206B
:1053A00004B010BDFFFF0000741C0310C0F3021016
:1053B000D4F3021040F10210C0F40210CCF4021039
:1053C000B4F50210F0030310EC1B0310D8FE02101A
:1053D000F0B59BB0039104920593209D0379202B97
:1053E0002FD10BAA03AB52CB52C200285AD01300C4
:1053F0000BAA1900D0CAD0C10A0052CB52C2119BCD
:10540000002B20D001882A000C32844B994257D0BF
:10541000C8097F230B40948CA04245D2126AC00079
:1054200012185088834245D25268DB00D318099382
:1054300009AA9180002B45D0DA8809ABDA800124D3
:1054400088E00020CDE7079307AB012252429A8003
:105450000798002826D007AB9A88704B9A4200D153
:10546000C7E007ABD9880C356C4B994200D1D2E02C
:10547000C8097F230B40AA8C904200D3BFE02A6A60
:10548000C00012185088834200D3BEE05268DB008F
:10549000D318079307AA9180002B02D0DA8807ABB4
:1054A000DA8007981BB0F0BD5D4B5E4A71215E4803
:1054B00017F060FC5D4B5E4A4B215E4817F05AFCCA
:1054C0000023B4E7554AB8E75B4B5C4A27215C48A8
:1054D00017F050FC002E52D0300027F0EBF817AB3D
:1054E0001796189000221A7217A914A8FBF7A5FEA8
:1054F00015AB6A4603CB03C2149B11981299139AF9
:10550000FBF74AFB002854D101235C40E4B209AB0D
:105510009A88424B9A4251D009ABD9882A000C3262
:105520003E4B99425CD0C8097F230B40968CB04219
:105530004AD2126AC0001218508883424AD2526876
:10554000DB00D318099309AA9180002B02D0DA88D6
:1055500009ABDA80099B002B44D0002CD4D01E1E4E
:10556000B2D01B79042B0CD0052B18D0022BB1D054
:1055700017AB00221792189201321A72B4E700207A
:10558000ADE73668002E08D0300027F093F817AB4F
:105590001796189001221A72A6E70020F7E73368E1
:1055A00019000831DA8817AB1791189200221A7285
:1055B0009AE707AA09AB03CB03C249E7214B224A6A
:1055C0001521224817F0D6FB154B164A71211648B3
:1055D00017F0D0FB154B164A4B21164817F0CAFBA3
:1055E0000023AFE70023079307AB012252429A80C2
:1055F0002EE7144B144A1521144817F0BBFB084B37
:10560000084A7121084817F0B5FB084B084A4B219E
:10561000084817F0AFFB00233BE7C046FFFF000040
:10562000C0F30210D4F3021040F10210C0F40210D3
:10563000CCF40210B4F502101C0203103002031067
:105640009C02031000030310180303108C030310C3
:1056500070B590B016F0FCFC00295EDB734A0023A5
:1056600018F0A0FD1000190019F096F80022704BF8
:1056700018F0A7FF02000B006E481AF003F96E48FD
:105680001AF0D0F80BAC6D492000FFF766FD02ABB5
:105690001A0023CC23C26A4A059206AA190031C90E
:1056A00031C205990800383006AA70CA70C30B00D1
:1056B000383305D000910299039A049BFFF788FEC6
:1056C000059909AB09900A9102AA11CB11C2029B5C
:1056D000002B4CD01A79D20633D51C880C31594A8C
:1056E00094422CD0E0097F2222408C8CA0421AD216
:1056F000096AC0000918488882421AD24968D20053
:1057000089181A791A2A2DD01FD80A2A26D00C2ACD
:1057100019D11868FFF730FD2AE04B4B4B4A3F2167
:105720004B4817F027FB4B4B4B4A71214B4817F066
:1057300021FB4B4B4B4A4B214B4817F01BFB0021E5
:10574000DFE70021DDE7002012E01C2A04D1086811
:105750004968FFF71EFD0BE0002009E01868FFF71D
:1057600008FD05E008684968FFF708FD00E0002033
:10577000002838D19620C50F2D186D10ADB23B4CC6
:105780000021200013F098FF09220821200014F0C6
:105790004DF8374B1978200013F010FA082120003B
:1057A00013F01AFB3349200013F02CFB14212000C6
:1057B00013F09EFB3049200013F0C2FE05212000AB
:1057C00013F0DCFB0921200013F02AFF0121200047
:1057D00013F0FCF92900200014F0DEFB200013F088
:1057E0001CFC10B070BD05990C00383402AA06AB41
:1057F00061CB61C20B00383307D000910299039A44
:10580000049B2000FFF7E4FD0400059D0E940F9516
:1058100008220EA902A819F061FE002C04D029006C
:105820002000FFF73BFDA6E70020A4E740420F0061
:1058300000408F404CF20210F01C0310041D0310B6
:1058400080230020FFFF0000F8EF021014F0021088
:105850004CF00210C0F30210D4F3021040F1021019
:10586000C0F40210CCF40210B4F502101C24002085
:105870000A91022000C0644420A1070010B5CAB0FC
:1058800004AB03221A73013A5A73F8E025226A44E2
:105890001278844909788A4201D0FF2A75D10A9B7F
:1058A000089326236B4419780A9803F06DFA7E4B0F
:1058B0001868002119F00AFC002807D07B4813F073
:1058C0007FF919F02BFC784B186021E0774813F032
:1058D00077F919F023FC002119F0C7FB724C2168FD
:1058E00019F0A8FB206013E025226A4412786D4964
:1058F00009788A4201D0FF2A49D10E220AA904A8B8
:1059000019F0ECFD04980599069A079B01F0B4FF85
:1059100016F09EFB002953DB654A002318F042FC79
:105920001000190018F038FF0022624B18F049FEF1
:1059300002000B00604819F0A5FF5C4813F040F925
:1059400001005E4819F09EFF584813F08BFB0028B9
:105950003CD0FF2200210AA819F0BAFD002325221D
:105960006A44137026226A44137027246C44FF3360
:105970002370DA3B6B440093130022000AA94B48C2
:1059800013F08EFB2378042B80D00E2BACD0022B8F
:10599000BED123336B441B78424A1278934201D024
:1059A000FF2BB5D103AB0AA9098819801B789A424D
:1059B000AED126236B441978039801F091FEA7E736
:1059C0003F4B404A3F21404817F0D4F9374814F084
:1059D000D9FA07240440631FDBB2012B08D9032C3A
:1059E00006D0072C04D0394A13780133137002E033
:1059F000364B00221A70354B1B780A2B35D916F01E
:105A000027FB002941DB2A4A002318F0CBFB1000BA
:105A1000190018F0C1FE0022264B18F0D2FD02003A
:105A20000B00254819F02EFF2100294819F02AFF04
:105A30001E4813F00FFCFFF70BFE16F009FB0029C0
:105A400029DB1B4A002318F0ADFB1000190018F0E9
:105A5000A3FE0022174B18F0B4FD02000B001648FD
:105A600019F010FF1B4819F0DDFE0122FA239B00FC
:105A7000009300235242002100201FF091FC164B9E
:105A80001B78002B00D15FE7EFE70D4B0D4A3F215C
:105A90000D4817F06FF90A4B0A4A3F210A4817F0E0
:105AA00069F9C0460A9102203C2800201C240020ED
:105AB00040420F0000408F404CF20210D42E0310E1
:105AC000F8EF021014F002104CF0021008910220BE
:105AD000101D0310281D03100B910220F0B5B9B062
