:020000041000EA
:1000000000B5324B212058609868022188439860DF
:10001000D860186158612E4B002199600221596106
:100020000121F02299502B49196001219960352056
:1000300000F044F80222904214D00621196600F024
:1000400034F8196E01211966002018661A6600F04E
:100050002CF8196E196E196E052000F02FF8012189
:100060000842F9D1002199601B49196000215960AB
:100070001A491B48016001219960EB211966A021F2
:10008000196600F012F800219960164914480160C1
:100090000121996001BC002800D000471248134993
:1000A000086003C880F30888084703B5996A0420EC
:1000B0000142FBD001200142F8D103BD02B5186610
:1000C0001866FFF7F2FF186E186E02BD00000240BE
:1000D000000000180000070000035F00212200005C
:1000E000F4000018222000A00001001008ED00E03C
:1000F00000000000000000000000000074B24E7A12
:1001000000200420F7010010C3010010C5010010F9
:10011000C1010010C1010010C1010010C101001097
:10012000C1010010C1010010C1010010C701001081
:10013000C1010010C1010010C9010010CB01001065
:10014000CD010010CD010010CD010010CD01001037
:10015000CD010010CD010010CD010010CD01001027
:10016000CD010010CD010010CD010010CD01001017
:10017000CD010010CD010010CD010010CD01001007
:10018000CD010010CD010010CD010010CD010010F7
:10019000CD010010CD010010CD010010CD010010E7
:1001A000CD010010CD010010CD010010CD010010D7
:1001B000CD010010CD010010CD010010CD010010C7
:1001C00000BE00BE00BE00BE00BE00BEEFF3058054
:1001D000103800BEF2EB887140AB011074AB011017
:1001E0003402001090A31AE700201F49086006C8D7
:1001F00081F3088810471D48006800282FD10DA4FE
:100200000ECC002902D000F012F8F9E71849194A7B
:10021000002000E001C19142FCD1174988471749ED
:1002200088471749884700BEFDE701C901C29A42C5
:10023000FBD3704774AB0110C0000020301C0020BD
:10024000E4C601100000042000000420E4C60110F0
:10025000001004200010042000000000704709482E
:100260000BF058FF0047000008ED00E0000000D050
:10027000301C0020DC30002079AE00103551001019
:1002800035AE00105756000006005250ABB3605315
:10029000F08D011006005250861C0302008E0110E2
:1002A000060052505422A29D0C8E0110050052509F
:1002B000DE65F468E4C60110F8B5C04610B5064C1A
:1002C0002378002B07D1054B002B02D0044800E017
:1002D00000BF0123237010BD781E00200000000025
:1002E000A85E0110044B10B5002B03D0034904484D
:1002F00000E000BF10BDC046000000007C1E0020D2
:10030000A85E011070B504000D000F2804D029006C
:10031000200008F0FFFB70BD014807F031FFF6E751
:10032000582A002010B582B0012801D002B010BDBB
:10033000114B9942FAD10721104B06E000221A71A5
:100340005A719A71DA71103301390029F6DA0C4CBE
:10035000202221000B4806F083FC0B4B01222100D8
:100360000A4806F078FD002300930F331122084954
:10037000084806F0E9FFD9E7FFFF0000E01D002074
:10038000A8130020042A0020008065422C2A0020A7
:1003900000C00340582A002010B5040009F0BCFE3C
:1003A000002903DB20606160200010BD024B034A7E
:1003B0003F2103480AF042FDA85E0110C45E01100F
:1003C000FC5E011010B50C1E08D0086803685B685D
:1003D0009847022805D120230022E2540020002162
:1003E00010BD09F099FE00291CDB114A00230BF017
:1003F00023FF100019000CF011FA00220D4B0CF035
:100400002AF902000B000C480DF022F90B480DF000
:10041000EFF8206803681B6800219847084B012209
:100420001A70D8E7074B084A3F2108480AF006FD32
:1004300040420F0000408F40445F0110505F0110A8
:10044000CA300020A85E0110C45E0110FC5E0110DD
:1004500010B50B490B480FF0A1FE0321042008F052
:10046000F3FA0321052008F0EFFA0022012104200D
:1004700008F002FB00220121052008F0FDFA10BD62
:1004800040420F00A813002070B5134C1349200000
:100490000FF06CFF0121102008F0D6FA0121122084
:1004A00008F0D2FA0121132008F0CEFA6268022384
:1004B0001A400B4DC021890129430B602068072198
:1004C0004140CF200840802149010C432060802317
:1004D0009B012B431A6070BD00C00340404B4C0091
:1004E00004C0034010B51400114A1070D17054704C
:1004F00093700423FF210F4807F0D8FC002809D18E
:10050000D0231B0640225A6140329A610A4B7F3A3F
:100510001A7010BD084B1B78002BFAD0D0231B0695
:1005200040229A6140325A61034B00221A70F0E770
:10053000A0300020582A0020D630002070B50025B9
:1005400000E0013583001B18DB00344CE3181C79F4
:10055000AC420EDD83001B18DC00304B1B195B190D
:100560005B798B42EDD12D4B1B195B190124DC7299
:10057000E7E70025002600E00135AC4211DD8300ED
:100580001B18D900254B5B185B19DB7A002BF3D1C4
:10059000AB005B19DB002149CB18002199740126BF
:1005A000EAE7002E39D1002311E029001C4D495DF6
:1005B000914214D11D011A49491901254D71990023
:1005C000C918C900154D691800258D740133072B12
:1005D00016DC1D011249491949788142E5D0022AE9
:1005E000F4D11D010E49491989788142EED10C4997
:1005F0004D19ED782D01491909790029E6D0D9E77F
:1006000000218C4209DD83001B18DA00034B9B1884
:100610005B180022DA720131F3E770BD401D002043
:10062000E01D002010B50A4B04221A60094B1B681C
:10063000DB05FBD5074B586880B20CF01EFD0CF0B3
:100640004BFD054A054B0CF024F80CF0F3F810BDF7
:1006500000E0044000C00440BF102B4AE323833F66
:10066000704701604260704770470000F0B5DE4699
:1006700057464E464546E0B587B081468B46011E3B
:1006800009D001782B290CD02D2910D12C398C467A
:10069000E1448A460DE0BD4BBD4A1A31BD480AF01F
:1006A000CDFB01218C46E14400218A4601E0002176
:1006B0008A464946087801003039C9B2092905D966
:1006C0002E2800D058E10024002501E00024002558
:1006D0004E463678B046303EF6B2B446092E22D8A1
:1006E000AD4EB5421FD81BD0A60FAB003343A200BE
:1006F000A4185D4126002F00B6197F4134003D004B
:100700000094019560460021C643B4467E1C16D075
:10071000009C019D24184D410126B446E144D7E7D1
:100720009E4EB442E0D9404600282ED15346002BBD
:100730001CD080231B069D4204D9002626E0644578
:10074000E6D9F0E79D4201D1002CF6D100236242A8
:10075000AB415946097A7F208143584601720A20ED
:100760000143584601720260436007E15B461B7A11
:100770007F2293435A461372082213435A46137238
:100780001460556001239A46F8E0002680235B033D
:100790009D420AD30A220023200029000BF04CFDC1
:1007A00004000D00013636B2F0E749460A7813001E
:1007B000303BDBB2092B03D8013636B20131F5E705
:1007C00089462E2A0FD04B461B78652B35D0452BFA
:1007D00033D00023F6184B461F78002F00D18FE04E
:1007E00000239A46CAE001239C46E144B4464A46A7
:1007F00013E0A70FA9003943A00024184D41241984
:100800006D41029300230393029E039FA4197D412F
:100810006646013E33B29C4601321378303BDBB270
:10082000092B07D85E4FBD42F6D8E2D15D4FBC42DE
:10083000F2D8DEE766469146C5E74B46581C5B7822
:100840002D2B04D02B2B05D0002700232AE00130CC
:100850000127FAE7484602300027F6E7002000218A
:1008600038E05346002B17D000204F49FFF7FCFE1D
:1008700080231B069C4661445B461B7A7F22934380
:100880005A4613720C2213435A46137202000B008D
:1008900059460A604B6029E000204349FFF7E4FE17
:1008A000EAE70130027811003039C9B2092920D8AD
:1008B0009900CB185B00303A9B18F1189A2252002D
:1008C0009142EEDD002FCCD05346002BC6D0002045
:1008D000802109065B461B7A7F2293435A46137296
:1008E0000C2213435A4613721060516001239A463A
:1008F00044E0002F02D05B4281466BE7814669E706
:10090000200029000BF08AFF04000091002E04DD76
:10091000264D002E06DC764204E0254DF9E77610E0
:100920000137FFB2002E0CD0F307F8D5FB00EB180F
:100930001A685B68200000990BF0ABFE0400009180
:10094000EDE75346002B05D0009B8022120694460B
:10095000634400935B461B7A7F2293435A4613728B
:100960000C2213435A4613722200009B59460A6018
:100970004B6001239A4601E000239A46504607B097
:10098000F0BCBB46B246A946A046F0BD605F011070
:10099000685F0110D05F01109999991999999999F7
:1009A00099990100989999990000F07F107C0110A5
:1009B000C87B01107047000010B5FFF7FBFF00680F
:1009C000002800D010BD0148FCE7C046A066011019
:1009D0000160704782B0F0B583B00993002912D04E
:1009E0006B4609AC1D00C0CCC0C5040060CB60C420
:1009F00000230372C26043748374416103B0F0BC8E
:100A000008BC02B01847034B034A143103480AF0EC
:100A100015FAC046306001103C6001108061011081
:100A200010B584B0027A7F231340043BDAB2082A5F
:100A300024D89300134AD3589F4600780BF096FEB3
:100A40001EE0416800680BF0E9FE19E041680068AB
:100A50000BF0D8FE14E000686C46002323722100DE
:100A6000FFF704FE002C03D02000FFF7D9FF07E0BA
:100A70000020002104E04168006801E0002000211E
:100A800004B010BDE86101100123002904D104D194
:100A900080221206904200D30023D8B270474B1C2C
:100AA0000EDB4B1C03D180231B06984208D3002980
:100AB00008DC03D180231B06984203D2012000E00A
:100AC000002070470020FCE710B50400FFF7DCFFB2
:100AD000002801D0200010BD0020FCE710B5040064
:100AE000FFF7DDFF002801D0200010BD0020FCE74B
:100AF000F0B5CE46474680B583B000900191150011
:100B000000280CD0002A10D0019B9846100015F048
:100B100045F8814680450ED24746002426E0254B05
:100B2000254A162125480AF089F9254B224A172122
:100B300022480AF083F90700EFE7224B224A73218B
:100B400022480AF07BF9224B1F4A74211F480AF001
:100B500075F91C4B1F4A23211C480AF06FF91C4BE6
:100B60001C4A242119480AF069F90134BC4216D202
:100B7000009B002BE1D0019A9442E4D81E5D002D29
:100B8000E7D0280015F00AF88442E8D8285DB04282
:100B9000EBD0301A03B0C0BCB946B046F0BDC84572
:100BA00002D304D80020F5E701204042F2E70120FB
:100BB000F0E7C0460C6201101C620110F4630110E2
:100BC000586401106864011074640110C06401105D
:100BD000286501103465011000B583B000910192C1
:100BE000020008000199FFF783FF404203B000BDF7
:100BF00070B582B0031E08682AD0197A7F220A4095
:100C0000402A1BD8920017498A5897461D685E688B
:100C1000FFF726FD0400320029006846FFF721FD9A
:100C20000099019A2000FFF7D7FF002804DB01DCC0
:100C3000012012E0042010E002200EE0FFF710FD7A
:100C4000002801D0002008E0013006E0002004E088
:100C5000FFF706FD002802D0002002B070BD013071
:100C6000FBE7C0468C650110F0B5C64600B584B000
:100C7000020002AB00211980039104000C34437C74
:100C8000002B03D0157C0023537434E0A379002B90
:100C90000BD1C368591CC1601B78002B0BDD002BE6
:100CA0000CDB237101236371ECE7914B914A2531F1
:100CB00091480AF0C3F80121A171F0E70023F0E7A1
:100CC0008B4B8C4A25218C480AF0B8F80121A17180
:100CD0001DE0237101236371137C002151749D4237
:100CE00000D1FCE0002B00D1FBE05C2B13D011689D
:100CF000481C10600B70537C002BEDD1A379002BA6
:100D0000DED12368591C21601B78002BDEDD002B0F
:100D1000DFDA0023DDE7A3799846002B1AD1236898
:100D2000591C21601B78002B1ADD002B1BDB237163
:100D300001236371107C002800D1D4E0752814D001
:100D40006E490B78002B00D1C4E0984200D1C0E07E
:100D50000231F6E7664B674A253167480AF06EF8BC
:100D60000121A171E1E70023E1E700235374002191
:100D7000002024E09F79002F0BD1D7687E1CD6601D
:100D80003F78002F0BDD002F0CDB1F7101275F71F7
:100D90001CE0574B574A252157480AF04FF80126C7
:100DA0009E71F0E70027F0E7303BDBB20F2B20D835
:100DB0000901194389B2002353740130C0B20328DA
:100DC0000ED813000C33577C002FD3D0137C002B8C
:100DD0000DD0402BE8D92027BB43373BDBB2E5E7FA
:100DE0000020002807D004B080BCB846F0BD022027
:100DF000F7E70320F5E7A0239B01CB189BB28020E7
:100E0000C000834216D390239B01CB189BB2802055
:100E1000C000834213D30391012398464346002B1D
:100E200000D168E7039B7F2B17D81168481C10601E
:100E30000B7060E78905890D02AB1980EEE702A807
:100E400003889B028905890D0B43802149028C464A
:100E50006344039301239846E0E70021684601704C
:100E60003F20184080390143684641709B0999B280
:100E70001F290FD8402149420B4383706B4603332F
:100E8000013B1978002900D135E71068461C16602F
:100E90000170F5E73F20184080235B42034368461A
:100EA000837088090F2806D820235B4218436B46BD
:100EB000D87001ABE4E73F231840BF3B03436846CB
:100EC000C370090B10235B4219436B460171053354
:100ED000D6E74B78002B08D00021517407E700209B
:100EE00081E702207FE702207DE703207BE7C04601
:100EF000A4660110AC6601102C6701109066011009
:100F00000123002902D102D1FF2800D90023D8B241
:100F1000704710B50400FFF7F3FF002801D0E0B2DE
:100F200010BD0020FCE700290ADB0123002902DDB7
:100F30000023D8B270470029FBD1FF28F9D9F7E781
:100F40000020F7E710B50400FFF7EDFF002801D0FF
:100F5000E0B210BD0020FCE770B504000D000022D7
:100F600000230BF0E7FB002809D00022064B2000ED
:100F700029000BF0D7FB002803D0012000E000205F
:100F800070BD0020FCE7C04600E06F4070B5040073
:100F90000D00FFF7E1FF002805D0200029000BF02D
:100FA00025FCC0B270BD0020FCE7000010B588B081
:100FB000027A7F231340043BDAB2082A46D8930012
:100FC000244AD3589F46007841E041680068FFF703
:100FD000A0FF3CE041680068FFF7B4FF37E000681D
:100FE00000236A4613726946FFF740FB6B461A7A84
:100FF0007F231340043BDAB2082A20D89300164A14
:10100000D3589F466B46187821E000980199FFF766
:1010100080FF1CE000980199FFF794FF17E004ACF3
:101020000023237221000098FFF720FB2000FFF728
:10103000BDFF0CE000980199FFF7A8FF07E0002032
:1010400005E041680068FFF7A1FF00E0002008B05C
:1010500010BDC04684670110A867011010B58CB0A0
:10106000002876D0027A7F231340043BDAB2082AA4
:101070006DD89300384AD3589F4600786AE041689B
:101080000068FFF746FF65E041680068FFF75AFF18
:1010900060E0006800236A4613726946FFF7E6FACB
:1010A0006B461A7A7F231340043BDAB2082A47D8EA
:1010B00093002A4AD3589F466B4618784AE0009816
:1010C0000199FFF726FF45E000980199FFF73AFFE5
:1010D00040E000236A46137604A90098FFF7C6FA99
:1010E0006B461A7E7F231340043BDAB2082A20D8CD
:1010F00093001B4AD3589F4604AB18782AE0049803
:101100000599FFF706FF25E004980599FFF71AFFF8
:1011100020E008AC0023237221000498FFF7A6FA10
:101120002000FFF743FF15E004980599FFF72EFF15
:1011300010E000200EE000980199FFF727FF09E07A
:10114000002007E041680068FFF720FF02E0002070
:1011500000E000200CB010BDCC670110F06701105A
:101160001468011070B504000D000022094B0BF04B
:10117000E1FA002809D0084A084B200029000BF0AA
:10118000D1FA002803D0012000E0002070BD00202B
:10119000FCE7C0460000E0C10000C0FFFFFFDF41E8
:1011A00070B504000D00FFF7DDFF002804D020001B
:1011B00029000BF0F7FA70BD0020FCE710B588B0ED
:1011C000027A7F231340043BDAB2082A46D8930000
:1011D000244AD3589F46007841E041680068FFF7F1
:1011E00073FC3CE041680068FFF778FC37E000687A
:1011F00000236A4613726946FFF738FA6B461A7A7B
:101200007F231340043BDAB2082A20D89300164A01
:10121000D3589F466B46187821E000980199FFF754
:1012200053FC1CE000980199FFF758FC17E004AC50
:101230000023237221000098FFF718FA2000FFF71F
:10124000BDFF0CE000980199FFF7AAFF07E000201E
:1012500005E041680068FFF7A3FF00E0002008B048
:1012600010BDC046386801105C680110F0B5C64674
:1012700000B505000E0000280BD000290FD014F097
:101280008DFC8046300014F089FC40453CD10024A0
:1012900024E0204B204A3121204809F0CFFD204B8B
:1012A0001D4A32211D4809F0C9FD1E4B1E4A23214B
:1012B0001E4809F0C3FD1E4B1B4A24211B4809F0A0
:1012C000BDFD184B184A2321184809F0B7FD184BEB
:1012D000154A2421154809F0B1FD0134444517D2BF
:1012E000002DE2D0280014F059FC8442E3D82F5D91
:1012F000002EE6D0300014F051FC8442E7D8335D74
:10130000BB42EAD0002000E0002080BCB846F0BD1F
:101310000120FAE70C62011080680110F4630110EB
:10132000586401106864011034650110C064011034
:1013300028650110F0B5DE4657464646C0B58CB06C
:10134000040088466A46D371DBB2002B00D18DE3DE
:1013500003000C33427C002A24D0237C7B2B3BD11E
:101360000023637423000C33627C002A3AD0237C70
:10137000002B51D0202B09D8092B07D3093BDBB216
:1013800001229A401300B34A13424CD10123237225
:101390000026002E4AD030000CB0E0BCBB46B2465E
:1013A000A846F0BD9A79002A0BD1C268511CC160D1
:1013B0001278002A0BDD002A0CDB1A7101225A7107
:1013C000CBE7A54BA54A2521A54809F037FD01210A
:1013D0009971F0E70022F0E7A24BA34AF421A34859
:1013E00009F02CFD9A79002A0BD1E268511CE160CA
:1013F0001278002A0BDD002A0CDB1A7101225A71C7
:10140000B5E7954B954A2521954809F017FD01212F
:101410009971F0E70022F0E7237A002B01D1012631
:10142000B7E70226B5E7002363749BE723000C337C
:10143000627C002A07D0237C7D2B1ED1002363749D
:10144000013300931BE09A79002A0BD1E268511C0A
:10145000E1601278002A0BDD002A0CDB1A710122F0
:101460005A71E8E77C4B7D4A25217D4809F0E6FC6E
:1014700001219971F0E70022F0E700230093009B1F
:10148000002B00D151E286E79A79002A0BD1E2685D
:10149000511CE1601278002A0BDD002A0CDB1A7166
:1014A00001225A7149E26C4B6C4A25216C4809F0C3
:1014B000C5FC01219971F0E70022F0E78379002B48
:1014C0000BD1E3685A1CE2601B78002B0BDD002B6C
:1014D0000CDB0371012343713CE25F4B5F4A252122
:1014E0005F4809F0ABFC01228271F0E70023F0E7CE
:1014F000E5215F4B5F4A49005C4809F09FFC0121F0
:1015000002E0012100E00099002924D1032041E0FC
:101510000121F9E78379002B0BD103685A1C026083
:101520001B78002B0BDD002B0CDB037101234371B7
:101530001AE0494B494A2521494809F07FFC01221C
:101540008271F0E70023F0E70A0002E00A0000E001
:10155000009A002A19D0002262742268551C256066
:101560001370637C002BD5D0237C2F2B01D9392B12
:10157000EAD95E2B01D97A2BE8D9402BE8D95A2B2E
:1015800001D9009AE5E70A00E3E7300002E0200015
:10159000FFF76AFB002800D056E222000C32637C81
:1015A000002B36D0237C002B4DD0202B09D8092BC3
:1015B00007D3093BDBB201229A401300254A1342AC
:1015C0005AD101232372002800D03FE223000C33BC
:1015D000627C002A53D0237C3A2B6AD100236374A7
:1015E00001339A465346002B00D131E20023226892
:1015F0001370606823681B1A03AA039004930123E5
:101600001372FFF72DF88346051E67D043461D6809
:1016100054E09379002B0BD1E368591CE1601B78EF
:10162000002B0BDD002B0CDB137101235371B9E789
:10163000094B0A4A25210A4809F000FC0121917151
:10164000F0E70023F0E7237A002B01D10120BAE76D
:101650000220B8E713008000A4660110AC660110F8
:101660002C670110606A0110746A0110246C01106B
:1016700014830110846C0110002363748DE79A7940
:10168000002A0BD1E268511CE1601278002A0BDDC0
:10169000002A0CDB1A7101225A719CE7C44BC54A1F
:1016A0002521C54809F0CAFB01219971F0E7002204
:1016B000F0E7009B9A4695E71B01ED18002D0DD031
:1016C000E868FEF7CDFF01005846FFF7CFFD002880
:1016D00004D10A22AB5E002BEED10025002D39D0BB
:1016E000291E37D06B46DB79002B00D1ABE0013BE4
:1016F000DBB20022200000F0C1F9002800D0ABE1ED
:1017000022000C32637C002B00D1A2E0237C002B52
:1017100000D1B8E0202B0AD8092B08D3093BDBB253
:1017200001229A401300A54A134200D0B2E00123DF
:101730002372002800D091E123000C33627C002A40
:1017400000D1AAE0237C7D2B00D0C0E0002363748D
:101750005146BDE000232268137061682268501A68
:1017600009AB09910A90012119720132226003AA82
:1017700003CB03C21B78137063695A6810329D68EB
:10178000AA4213D8103D9D60002D11D042465268E8
:10179000002A2FD019688A4202D3DB689A4209D303
:1017A000874B884A1421884809F048FB01221A74A3
:1017B000002527E0002D0BD0AB1A19118348834276
:1017C0000CDB834883420FDC518143465D6014E0AB
:1017D000804B814A4721814809F030FB804B7E4A8B
:1017E00048217E4809F02AFB7E4B7B4A4A217B48F0
:1017F00009F024FB43461D605D6000236B810022DD
:101800002A72EB60002D00D124E106AA03AB83CB42
:1018100083C2069B002B0BD006AA127A012A0DD098
:10182000297A802252420A432A72EB60290059E742
:101830006D4B6E4A5021694809F000FB297A7E32CF
:101840000A402A72F1E76A4B6A4A13216A4809F092
:10185000F5FA9379002B0BD1E368591CE1601B78F2
:10186000002B0BDD002B0CDB1371012353714DE7B3
:101870004F4B504A2521504809F0E0FA012191715F
:10188000F0E70023F0E7237A002B01D1012050E795
:1018900002204EE70023637432E79A79002A0BD1C5
:1018A000E268511CE1601278002A0BDD002A0CDB93
:1018B0001A7101225A7145E73D4B3E4A25213E48A7
:1018C00009F0BCFA01219971F0E70022F0E70099D4
:1018D000002900D0C4E023000C33627C002A4FD0E2
:1018E000237C2C2B02D1002363745146002900D1A4
:1018F000B8E022000C32637C002B00D180E0237C16
:10190000002B00D196E0202B0AD8092B08D3093BE5
:10191000DBB201229A401300284A134200D090E023
:1019200001232372002800D09EE023686360230017
:101930000C33627C002A00D1A6E5237C272B00D142
:1019400025E6222B00D122E620000C30637C002B00
:1019500000D1B3E5237C002B00D1C9E52F2B02D9A0
:10196000392B00D8CBE55E2B02D97A2B00D8C8E5FD
:10197000402B00D8C7E55A2B00D8C9E50099C3E52C
:101980009A79002A0BD1E268551CE5601278002A8A
:101990000BDD002A32DB1A7101225A71A0E7044BD9
:1019A000044A2531044809F049FA01259D71F0E700
:1019B000A4660110AC6601102C67011013008000B2
:1019C000946D0110A86D0110346E01100000F8FF35
:1019D000F0FF0700986E0110A46E0110106F011047
:1019E000706F0110AC6F0110E86F0110EC6F011007
:1019F0004870011054700110DC7001100022CAE719
:101A00009379002B0BD1E368591CE1601B78002B04
:101A10000BDD002B0CDB1371012353716FE7144BAB
:101A2000144A2521144809F009FA01219171F0E7BF
:101A30000023F0E7237A002B01D1012072E7022076
:101A400070E70023637454E70600A4E40600A2E4F0
:101A50000326A0E404269EE406009CE406009AE423
:101A6000060098E4032696E4060094E4052692E432
:101A7000A4660110AC6601102C67011070B586B029
:101A800004000E0022000C32617C002928D0227C48
:101A9000002A3FD0202A09D8092A07D3093AD2B20E
:101AA000012191400A00BA490A423AD10122227228
:101AB0000025002D00D08EE022000C32617C002930
:101AC00032D0227C7B2A00D94AE15B2A46D35B3A9A
:101AD000D1B2202900D943E18A00AE498A589746FD
:101AE000917900290BD1E168481CE0600978002950
:101AF0000BDD00290CDB117101215171C7E7A64BE9
:101B0000A64A2521A64809F099F901209071F0E72D
:101B10000021F0E7227A002A01D10125C9E7022538
:101B2000C7E700226274ADE7917900290BD1E16823
:101B3000481CE060097800290BDD00290CDB1171DD
:101B400001215171BDE7944B944A2521944809F035
:101B500075F901209071F0E70021F0E7222A02D008
:101B6000272A00D0FCE0236863602000FFF77CF8A0
:101B7000051E30D100232268137061682268501A54
:101B800003AB0391049001211972013222606A466D
:101B900013CB13C2009A002A30D06B461B7A012B5C
:101BA00032D0337A7F218B43337205210B4333725A
:101BB0003260019B73600EE0327A7F218A43327279
:101BC00040210A43327200223260726031002000EC
:101BD00000F09EF90500280006B070BD327A7F2122
:101BE0008A43327220210A433272002232607260CC
:101BF00031002000FFF79EFB0500ECE7694B6A4AC5
:101C0000CC216A4809F01AF9337A7F218B43337269
:101C100004210B433372CBE7337A7F229343337231
:101C200006221343337201233370614B14E05A4B85
:101C30005A4A25215A4809F001F9012090711CE007
:101C4000117101215171227C002A1AD019788A421F
:101C500019D10133002262741D78002DBBD02200FF
:101C60000C32617C0029EED191790029DFD1E16845
:101C7000481CE06009780029DFDD0029E0DA002156
:101C8000DEE70225A7E70325A5E7337A7F22934302
:101C9000337206221343337200233370454B14E032
:101CA0003D4B3E4A25213E4809F0C8F8012090717D
:101CB0001DE0117101215171227C002A1BD019787D
:101CC0008A421AD10133002262741D78002D00D19E
:101CD00081E722000C32617C0029EDD19179002945
:101CE000DED1E168481CE06009780029DEDD0029CA
:101CF000DFDA0021DDE702256DE703256BE72E4BD8
:101D000014E0254B254A2521254809F097F80120A4
:101D100090711DE0117101215171227C002A1BD0AC
:101D200019788A421AD10133002262741D78002D7D
:101D300000D150E722000C32617C0029EDD191796D
:101D40000029DED1E168481CE06009780029DEDD69
:101D50000029DFDA0021DDE702253CE703253AE729
:101D600021000C31637C002B02D0227C2B004FE041
:101D70008B79002B22D1E3685A1CE2601B78002B80
:101D800022DD002B23DB0B7101234B71EDE7C046F5
:101D90001300800018720110A4660110AC660110D7
:101DA0002C670110388301105C710110B8710110AB
:101DB000447101104C710110547101102B4B2C4ACD
:101DC00025212C4809F03AF801228A71D9E700232D
:101DD000D9E7012002E0012000E00120002838D0EE
:101DE0003E2B36D800206074581CC0B2E3181A7617
:101DF0008B79002B22D10B685A1C0A601B78002BB0
:101E000022DD002B23DB0B7101234B71227C0300AD
:101E10002F2A01D9392ADED92B2ADED02D2A07D044
:101E20002E2A07D0652A07D0452AD2D00020D5E730
:101E30000120D3E70120D1E70120CFE70B4B0C4A6B
:101E400025210C4808F0FAFF01228A71D9E7002306
:101E5000D9E7E31800221A76200018303100FEF787
:101E600005FC002800D0B6E60325B4E6A466011000
:101E7000AC6601102C670110F0B5C64600B59CB0E9
:101E800004000D000800FEF795FDFEF795FD060025
:101E900018239846A0441BAB0A225A7018AF1B881F
:101EA0003B8023686360E368A360002323741632D9
:101EB000A35C7F218B43A35429680023220019A827
:101EC000FEF786FD1A9B0093199B3200210002A8A1
:101ED000FEF780FD7B780022414602A8FFF7CEFD89
:101EE000002808D102AB1B7C002B04D043461B7A90
:101EF0001B0700D503201CB080BCB846F0BD00B560
:101F000083B0019101A9FFF7B7FF03B000BD000046
:101F1000F0B5C64600B504000E001D1CDBB2002B58
:101F200000D17DE103000C33427C002A1FD0237CCA
:101F30005B2B36D10023637423000C33627C002AB0
:101F400035D0227C002A4CD0202A08D8092A06D372
:101F5000093AD2B201239340B34A134248D1012334
:101F600023720020002846D080BCB846F0BD9A7984
:101F7000002A0BD1C268511CC1601278002A0BDD07
:101F8000002A0CDB1A7101225A71D0E7A74BA84A2C
:101F90002521A84808F052FF01219971F0E700229D
:101FA000F0E7A54BA54A9E21A54808F047FF9A797E
:101FB000002A0BD1E268511CE1601278002A0BDD87
:101FC000002A0CDB1A7101225A71BAE7974B984A22
:101FD0002521984808F032FF01219971F0E700228D
:101FE000F0E7237A002B01D10120BBE70220B9E7FB
:101FF00000236374A0E723000C33627C002A09D01D
:10200000237C5D2B20D1002363740127002F00D196
:102010008BE0A9E79A79002A0BD1E268511CE160B4
:102020001278002A0BDD002A0CDB1A7101225A718A
:10203000E6E77E4B7E4A25217E4808F0FFFE01211F
:102040009971F0E70022F0E70027DFE701221A7418
:10205000002127E000290CD08B1A181180467948FE
:1020600083420CDB784883420FDC43465381716026
:1020700013E0764B764A4731764808F0DFFE764B20
:10208000734A4821734808F0D9FE744B704A4A21BC
:10209000704808F0D3FE3160716000234B8100224C
:1020A0000A72CB60002900D1BCE0EBB2002B55D006
:1020B000013BDBB200222000FFF7E0FC002800D04B
:1020C00052E723000C33627C002A4DD0237C002B86
:1020D00064D0202B09D8092B07D3093BDBB201229E
:1020E0009A401300504A13425FD101232372002803
:1020F00000D039E723000C33627C002A58D0237CBF
:102100005D2B6FD1002363740133002B00D02BE7CC
:1021100022000C32617C002966D0227C2C2A02D15C
:10212000002363740133002B78D063695A6810323E
:1021300099688A428AD810399960002988D07268D3
:10214000002AA8D01868824202D3DB689A4281D361
:10215000434B444A1421444808F070FE434B444A20
:102160001321444808F06AFE9A79002A0BD1E268EC
:10217000511CE1601278002A0BDD002A0CDB1A7179
:1021800001225A71A2E7294B294A2521294808F042
:1021900055FE01219971F0E70022F0E7237A002B28
:1021A00001D10120A3E70220A1E70023637488E79F
:1021B0009A79002A0BD1E268511CE1601278002A5A
:1021C0000BDD002A0CDB1A7101225A7197E7174BBD
:1021D000174A2521174808F031FE01219971F0E7CF
:1021E0000022F0E73B0090E7917900290BD1E168EC
:1021F000481CE060097800290BDD00290CDB117117
:102200000121517189E7094B094A2521094808F044
:1022100015FE01209071F0E70021F0E70320A3E60E
:102220000520A1E604209FE613008000A4660110AB
:10223000AC6601102C6701109C720110B072011085
:10224000246C01100000F8FFF0FF0700986E0110E9
:10225000A46E0110106F0110706F0110AC6F0110AF
:10226000946D0110A86D0110346E011048700110BA
:1022700054700110DC70011070B50D00002820D0E2
:10228000037A9B061BD5041E17D0002912D00468C0
:10229000002C12D0E068FEF7E3F901002800FEF7F9
:1022A000E5FF002809D10A22A35E002B04D01B0100
:1022B000E418EDE70C0000E00024200070BD0024CD
:1022C000FBE70400F9E7000070B588B004000E00D9
:1022D000056818354068FEF7C3F901002800FFF7CC
:1022E000CBFF002816D0027A7F231340082B07D09B
:1022F0000A2B0AD0002000280ED1306808B070BD2B
:1023000041680068FEF7C0FBF5E741680068FEF72A
:10231000C6FBF0E70020EEE7256818356068FEF799
:102320009FF901002800FFF7A7FF00284FD0027A8D
:102330007F231340043BDAB2082A46D89300254A8B
:10234000D3589F460078D9E741680068FEF7BCFB88
:10235000D4E741680068FEF7C1FBCFE700680023BF
:102360006A4613726946FEF781F96B461A7A7F2333
:102370001340043BDAB2082A20D89300164AD358F7
:102380009F466B461878B9E700980199FEF79CFBC9
:10239000B4E700980199FEF7A1FBAFE704AC002376
:1023A000237221000098FEF761F92000FEF706FF76
:1023B000A4E700980199FEF7F3FE9FE700209DE750
:1023C00041680068FEF7ECFE98E7002096E70020E1
:1023D00094E7C046607401108474011070B58CB02D
:1023E00004000E00056818354068FEF739F9010051
:1023F0002800FFF741FF002800D198E0037A1B076F
:1024000000D494E0256818356068FEF729F90100CA
:102410002800FFF731FF002800D185E0027A7F23F2
:102420001340043BDAB2082A00D97AE09300424A0A
:10243000D3589F4600780AF099F97AE0416800681D
:102440000AF0ECF975E0416800680AF0DBF970E029
:1024500000686C46002323722100FEF707F9002C68
:1024600059D0217A7F230B40043BD9B208294FD899
:102470008B003249CB589F4620780AF077F958E014
:10248000206861680AF0CAF953E0206861680AF0C0
:10249000B9F94EE0206804AC002323722100FEF756
:1024A000E5F8002C2ED0217A7F230B40043BD9B2D3
:1024B000082924D88B002249CB589F4620780AF05F
:1024C00055F936E0206861680AF0A8F931E0206823
:1024D00061680AF097F92CE0206808AC00232372A9
:1024E0002100FEF7C3F8002C03D02000FEF798FA75
:1024F0001FE0002000211CE02068616819E0002036
:10250000002116E00020002113E02068616810E03F
:10251000002000210DE0002000210AE04168006851
:1025200007E00020002104E00020002101E03068E5
:1025300071680CB070BDC046A8740110CC74011055
:10254000F074011070B588B004000E008568006951
:10255000FEF786F801002800FFF78EFE050060698F
:10256000FEF77EF801002800FFF786FE002816D04F
:10257000027A7F231340082B07D00A2B0AD00020B1
:1025800000280ED1306808B070BD41680068FEF7C1
:102590007BFAF5E741680068FEF781FAF0E7002072
:1025A000EEE7A5682069FEF75BF801002800FFF759
:1025B00063FE05006069FEF753F801002800FFF78D
:1025C0005BFE00284FD0027A7F231340043BDAB22F
:1025D000082A46D89300254AD3589F460078D2E768
:1025E00041680068FEF770FACDE741680068FEF7C1
:1025F00075FAC8E7006800236A4613726946FEF759
:1026000035F86B461A7A7F231340043BDAB2082A66
:1026100020D89300164AD3589F466B461878B2E7E5
:1026200000980199FEF750FAADE700980199FEF77E
:1026300055FAA8E704AC0023237221000098FEF7A6
:1026400015F82000FEF7BAFD9DE700980199FEF706
:10265000A7FD98E7002096E741680068FEF7A0FD17
:1026600091E700208FE700208DE7C0461475011028
:1026700038750110F0B5DE4657464E464546E0B582
:10268000EF4CA54400230593069307930D930E93F7
:102690000F93002012F01EF9002800D1B1E10020B4
:1026A00006F090F912F06CF90122E649E6480EAB0B
:1026B0009C46604410F0CEFC041E00D04CE2E34B7C
:1026C000E34AE4490EA884466144E348604411F0BB
:1026D00081F8041E00D04CE20122E0490EAB9C467A
:1026E0006144DF48604410F0E3FC041E02D0082877
:1026F00000D04BE20023DB4A0EA98C4662441360F3
:10270000A022D84B63449201D7496144D448604425
:1027100010F07CFE0290002800D048E207F0FCFC9C
:10272000002900DA56E2D14A002309F085FD1000A5
:1027300019000AF073F80022CD4B09F08CFF02005B
:102740000B00CC480AF084FFC64B0EAA94466344A3
:102750001968C9480AF07CFF40AB4AAA40924192EE
:10276000C64A0EA98C4662444292C44A62444392CD
:1027700000221A741A0020230021D154BA4961445E
:102780001000FFF7BCFBC3B25A1E9341DAB20492A9
:10279000002B00D024E240ACB94B0EAA944663440F
:1027A0001C60B848B84B63441860FDF759FF01003E
:1027B00046A8FFF761FDFEF751FCB44D2870B44BFD
:1027C0000EAA944663441C60B24BB34A6244136041
:1027D0000A23B24A624413601100AD486044FFF717
:1027E00073FDAF4B1870AF4B0EAA944663441C6048
:1027F000AD4BAE4A624413609623AD4A6244136007
:102800001100A8486044FFF75FFDAA4B1870AA4B5F
:102810000EAA944663441C60A84BA94A6244136004
:102820000F23A84A624413601100A3486044FFF7D5
:102830004BFDA54B1870A54B0EAA944663441C6033
:10284000A34BA44A624413601E23A34A624413604C
:1028500011009E486044FFF737FDA04B1870A04B55
:102860000EAA944663441C609E4B9F4A62441360C8
:1028700000229E4B9E4961440A604B609C49614422
:1028800097486044FFF7AAFD09F0D4FF994B186000
:10289000AF23DB010EAA944663441C60964B974A13
:1028A000624413600022964B964961440A604B6073
:1028B00094496144AF20C0016044FFF78FFD09F0E7
:1028C000B9FF914B18602B78002B00D19DE18F4B05
:1028D0000EAA9446634440AA1A608D488D4B634407
:1028E0001860FDF7BDFE010046A8FFF7C5FC8A4948
:1028F0000EAB9C466144086040AB4B60082220A8A8
:102900000AF0E0FC209B219A002B03D0197A89065B
:1029100000D483E138933992804B0EAA94466344E5
:1029200040AA1A607E487F4B63441860FDF798FE0A
:10293000010046A8FFF7A0FCBC21C9010EAB9C46D4
:102940006144086040AB4B60082220A80AF0BAFC42
:10295000209B219A002B03D0197A890600D45FE1CD
:102960003A933B92704B0EAA9446634440AA1A6075
:102970006E486F4B63441860FDF772FE010046A875
:10298000FFF77AFC6B490EAB9C466144086040AB94
:102990004B60082220A80AF095FC209B219A002B6E
:1029A00003D0197A890600D43CE13C933D92624BF6
:1029B0000EAA9446634440AA1A606048604B634480
:1029C0001860FDF74DFE010046A8FFF755FC5D4974
:1029D0000EAB9C466144086040AB4B60082220A8C7
:1029E0000AF070FC209B219A002B03D0197A8906EB
:1029F00000D419E13E933F920027FF230C9301F08E
:102A000054FD07F089FB002914DB184A002309F064
:102A100013FC1000190009F001FF0022144B09F00B
:102A20001AFE02000B0013480AF012FE46480AF094
:102A3000DFFD34E6454B464A3F21464808F0FEF9A3
:102A40003C9EFFFF70750110705200008C750110E4
:102A5000A0660110F850000018520000125100004A
:102A6000D8540000F4280000F828000040420F006D
:102A700000408F40445F0110F0750110F028000005
:102A800038570000DC7701103C570000C5300020AB
:102A900040570000E47701104457000048570000F9
:102AA000C80F00204C570000EC7701105057000071
:102AB00054570000C90F002058570000F877011044
:102AC0005C57000060570000BD0F002064570000F5
:102AD00000780110685700006C570000CA0F0020F2
:102AE000705700000C780110745700000000264059
:102AF00078570000C40F0020187801108457000098
:102B00000000284088570000C00F002090570000A8
:102B10003C78011094570000085E000098570000B0
:102B2000447801109C570000A05700004C78011019
:102B3000A4570000F85D0000A85700005478011069
:102B4000AC570000F05D00005C750110A85E01103C
:102B5000C45E0110FC5E0110D0231B0640225A61A6
:102B600040329A6112F080F801002200DF4808F03C
:102B7000FFF9D0231B0640225A6140329A6112F0BD
:102B800073F801002200DA4808F0F2F9D0231B069E
:102B900040225A6140329A6112F066F80200230026
:102BA000D4490EA884466144D34808F0E1F9D02303
:102BB0001B0640225A6140329A61029C200012F0AA
:102BC00053F802002300CB490EA884466144CB4849
:102BD00008F0CEF9CA4BCB4A3F21CB4808F02EF97A
:102BE000D0231B0640225A6140329A61C0B20528A8
:102BF00005D88000C54BC158C54808F0B9F9C54B88
:102C0000C54A4521C54808F019F9D0231B064022C2
:102C10005A6140329A61C24808F0AAF9002379E665
:102C200000239DE60023C0E60023E3E6002401F034
:102C300072FC002000E00020FEF710FA804620AC75
:102C4000F90038AB9C466144082220000AF03AFBA8
:102C5000B44B0EAA9446634406CC06C3B24BB34AA7
:102C600062441360B2496144B24B6344AD4A62446A
:102C700011CA11C3AD4B63441B68CB60AE4D6544B4
:102C8000AE4B6344AB4A624411CA11C3CB682B619B
:102C9000AB4B6B61AB4C6444AB4E66440822A74916
:102CA000614430000AF00EFB2B6923616B6963619C
:102CB0001BAA0ACE0AC220691D90636903931E9362
:102CC00001231F931B9CFDF7CBFC01002000FFF7A5
:102CD000D3FA04001E9B03931800FDF7C1FC01000A
:102CE0002000FFF7C9FA1F9B002815D0027A520670
:102CF00011D5002810D0006800280DD05A1E002BD6
:102D00000AD00A21435E002B03D01B01C018130018
:102D1000F4E7002000E00020FEF7A0F9824620AE94
:102D2000F90038AB9C466144082230000AF0CAFA28
:102D3000864B0EAA94466344320003CA03C37A4BFF
:102D4000834A6244136083496144834B63447F4AEE
:102D5000624411CA11C37E4B63441B68CB607F4D34
:102D600065447F4B63447C4A624411CA11C3CB68FB
:102D70002B61734B6B61BF24E4016444794B634462
:102D80009B4608227649614418000AF09BFA2B6999
:102D900023616B69636123AB5A4603CA03C320698D
:102DA00025906369269302232793239CFDF758FC03
:102DB00001002000FFF760FA04002698FDF750FCA0
:102DC00001002000FFF758FA279B002815D0027A4F
:102DD000520611D5002810D0006800280DD05A1EC8
:102DE000002B0AD00A21435E002B03D01B01C01820
:102DF0001300F4E7002000E00020FEF72FF9009018
:102E0000534642460221484605F0C6FD20ACF90073
:102E100038AB9C466144082220000AF053FA524B1A
:102E20000EAA9446634406CC06C3504B504A6244F3
:102E30001360504B63444C4A624403CA03C34C4B77
:102E400063441B6803934C4B6344039A1A604B4DD5
:102E500065444B4B6344474A624403CA03C3464B31
:102E600063441B682B61364B6B61464C6444464E91
:102E7000664408224249614430000AF023FA2B6973
:102E800023616B69636113AB06CE06C3206915909D
:102E900063690393169300231793139CFDF7E0FBDC
:102EA00001002000FFF7E8F90400169B03931800C7
:102EB000FDF7D6FB01002000FFF7DEF9179B002885
:102EC00065D0027A520661D5002860D000680028DB
:102ED0005DD05A1E002B5AD00A21435E002B03D02E
:102EE0001B01C0181300F4E7002050E074750110B6
:102EF0009C75011012510000B8750110D4750110B5
:102F0000A85E0110C45E0110FC5E0110980F002045
:102F1000C4770110C87601100C77011054770110A6
:102F200028780110FC580000647801100459000052
:102F3000C05F0000C45F0000E0580000E8580000D7
:102F40007C780110A85F0000B05F000024590000E9
:102F50002C590000985F00009C5F00000859000099
:102F600010590000885F00004C5900008078011063
:102F700054590000745F00007C5F0000305900006D
:102F800038590000585F0000605F00000020FEF725
:102F900065F8804620ACF90038AB9C4661440822B5
:102FA00020000AF08FF9AB4B0EAA9446634406CC7E
:102FB00006C3A94BA94A62441360A94B6344A54ABE
:102FC000624403CA03C3A54B63441B680393A54B28
:102FD0006344039A1A60A44D6544A44B6344A04A19
:102FE000624403CA03C39F4B63441B682B61A04B1D
:102FF0006B61A04C6444A04E664408229B49614426
:1030000030000AF05FF92B6923616B6963611BAAC9
:103010000ACE0AC220691D90636903931E9301239F
:103020001F931B9CFDF71CFB01002000FFF724F9F8
:1030300004001E9B03931800FDF712FB0100200003
:10304000FFF71AF91F9B002815D0027A520611D5F6
:10305000002810D0006800280DD05A1E002B0AD07E
:103060000A21435E002B03D01B01C0181300F4E7B4
:10307000002000E00020FDF7F1FF824620AEF900BD
:1030800038AB9C466144082230000AF01BF97B4BA8
:103090000EAA94466344320003CA03C36E4B784AB7
:1030A00062441360774B6344744A624403CA03C3A7
:1030B000734B63441B680393734B6344039A1A6016
:1030C000B325ED016544714B63446E4A624403CA03
:1030D00003C36D4B63441B682B61654B6B616C4C88
:1030E00064446C4B63449B46082268496144180061
:1030F0000AF0E8F82B6923616B69636123AB5A46D8
:1031000003CA03C32069259063692693022327938A
:10311000239CFDF7A5FA01002000FFF7ADF804009D
:103120002698FDF79DFA01002000FFF7A5F8279BE0
:10313000002815D0027A520611D5002810D0006858
:1031400000280DD05A1E002B0AD00A21435E002B06
:1031500003D01B01C0181300F4E7002000E000209A
:10316000FDF77CFF0090534642460121484605F09A
:1031700013FC20ACF90038AB9C46614408222000C7
:103180000AF0A0F8444B0EAA9446634406CC06C34A
:10319000424B434A62441360424B63443E4A62449A
:1031A00003CA03C33E4B63441B6803933E4B634413
:1031B000039A1A603D4D65443D4B6344394A62446D
:1031C00003CA03C3384B63441B682B61284B6B61F4
:1031D000384C6444384E6644082235496144300016
:1031E0000AF070F82B6923616B69636113AB06CE3B
:1031F00006C3206915906369039316930023179300
:10320000139CFDF72DFA01002000FFF735F80400AC
:10321000169B03931800FDF723FA01002000FFF727
:103220002BF8179B00284AD0027A520646D5002870
:1032300045D00068002842D05A1E002B3FD00A21FA
:10324000435E002B03D01B01C0181300F4E70020DD
:1032500035E0C04674590000807801107C590000A8
:103260004C5F0000545F0000585900006059000096
:103270007C780110305F0000385F00009C5900002E
:10328000A4590000245F00002C5F00008859000052
:10329000085F0000105F0000C4590000747801103E
:1032A000CC590000FC5E0000045F0000A85900003B
:1032B000B0590000E05E0000E85E00000020FDF76D
:1032C000CDFE804620ACF90038AB9C466144082214
:1032D000200009F0F7FFAB4B0EAA9446634406CCDE
:1032E00006C3A94BA94A62441360A94B6344A54A8B
:1032F000624403CA03C3A54B63441B680393A54BF5
:103300006344039A1A60A44D6544A44B6344A04AE5
:10331000624403CA03C39F4B63441B682B61A04BE9
:103320006B61A04C6444A04E664408229B496144F2
:10333000300009F0C7FF2B6923616B6963611BAA29
:103340000ACE0AC220691D90636903931E9301236C
:103350001F931B9CFDF784F901002000FEF78CFFF2
:1033600004001E9B03931800FDF77AF9010020006A
:10337000FEF782FF1F9B002815D0027A520611D556
:10338000002810D0006800280DD05A1E002B0AD04B
:103390000A21435E002B03D01B01C0181300F4E781
:1033A000002000E00020FDF759FE824620AEF90023
:1033B00038AB9C4661440822300009F083FF7B4B08
:1033C0000EAA94466344320003CA03C36E4B784A84
:1033D00062441360774B6344744A624403CA03C374
:1033E000734B63441B680393734B6344039A1A60E3
:1033F000724D6544B423DB0163446E4A624403CAE0
:1034000003C36D4B63441B682B61654B6B616C4C54
:1034100064446C4B63449B460822B421C901614457
:10342000180009F04FFF2B6923616B69636123ABBF
:103430005A4603CA03C32069259063692693022371
:103440002793239CFDF70CF901002000FEF714FFE1
:1034500004002698FDF704F901002000FEF70CFF98
:10346000279B002815D0027A520611D5002810D0CB
:10347000006800280DD05A1E002B0AD00A21435E96
:10348000002B03D01B01C0181300F4E7002000E05C
:103490000020FDF7E3FD00905346424600214846D8
:1034A00005F07AFA20ACF90038AB9C46614408225A
:1034B000200009F007FF444B0EAA9446634406CC53
:1034C00006C3424B424A62441360424B63443E4A45
:1034D000624403CA03C33E4B63441B6803933E4BE1
:1034E0006344039A1A603D4D65443D4B6344394A39
:1034F000624403CA03C3384B63441B682B61284BE7
:103500006B61384C6444384E664408223449614447
:10351000300009F0D7FE2B6923616B69636113AB3F
:1035200006CE06C3206915906369039316930023A2
:103530001793139CFDF794F801002000FEF79CFE02
:103540000400169B03931800FDF78AF80100200081
:10355000FEF792FE179B002849D0027A520645D505
:10356000002844D00068002841D05A1E002B3ED0CD
:103570000A21435E002B03D01B01C0181300F4E79F
:10358000002034E0EC59000074780110F459000078
:10359000D45E0000DC5E0000D0590000D859000065
:1035A0007C780110B85E0000C05E0000145A000074
:1035B0001C5A0000AC5E0000B45E0000F859000028
:1035C000905E0000985E00003C5A00008878011070
:1035D000445A0000845E00008C5E0000205A000007
:1035E000285A0000685E0000705E00000020FDF7B1
:1035F00035FD804620ACF90038AB9C46614408227A
:10360000200009F05FFE774B0EAA9446634406CC77
:1036100006C3754B754A62441360754B6344714A27
:10362000624403CA03C3714B63441B680393714B29
:103630006344039A1A60704D6544704B63446C4A4E
:10364000624403CA03C36B4B63441B682B616C4B1E
:103650006B616C4C64446C4E66440822674961445B
:10366000300009F02FFE2B6923616B6963611BAA8F
:103670000ACE0AC220691D90636903931E93012339
:103680001F931B9CFCF7ECFF01002000FEF7F4FDEC
:1036900004001E9B03931800FCF7E2FF01002000CA
:1036A000FEF7EAFD1F9B002815D0027A520611D5BD
:1036B000002810D0006800280DD05A1E002B0AD018
:1036C0000A21435E002B03D01B01C0181300F4E74E
:1036D000002000E00020FDF7C1FC824620AEF9008A
:1036E00038AB9C4661440822300009F0EBFD474BA3
:1036F0000EAA94466344320003CA03C33A4B444AB9
:1037000062441360434B6344404A624403CA03C3A8
:103710003F4B63441B6803933F4B6344039A1A6017
:103720003E4D65443E4B63443A4A624403CA03C378
:10373000394B63441B682B61314B6B61394C6444DA
:10374000394B63449B46082235496144180009F00F
:10375000B9FD2B6923616B69636123AB5A4603CAC8
:1037600003C3206925906369269302232793239C32
:10377000FCF776FF01002000FEF77EFD040026988E
:10378000FCF76EFF01002000FEF776FD279B002866
:1037900015D0027A520611D5002810D000680028F2
:1037A0000DD05A1E002B0AD00A21435E002B03D0F5
:1037B0001B01C0181300F4E7002000E00020FDF713
:1037C0004DFC0090534642460321484605F0E4F87C
:1037D000BB00DB19DB00154AD31800221A71002543
:1037E00000F099FD645A0000887801106C5A0000BE
:1037F0005C5E0000645E0000485A0000505A000001
:103800007C780110405E0000485E00008C5A000089
:10381000945A0000345E00003C5E0000705A0000C4
:10382000785A0000185E0000205E0000401D002055
:1038300020ADF90038AB9C4661440822280009F00D
:1038400041FDFB4A0EAB9C466244FA4B634429009F
:1038500041C941C3F848D060966853689846FCF760
:10386000FFFE01004046FEF707FDF4490EAB9C4603
:10387000614408604E600822280009F023FD209B67
:10388000219A002B04D0197A890601D400F0BCFCDF
:10389000EB490EA8844661440B60EA4961440A6022
:1038A000002B01D100F0B3FC20AEFB0038AA9146FA
:1038B000994408224946300009F004FDE24B0EAA63
:1038C00094466344320003CA03C3DB4B9A46DF4B82
:1038D000634452461A60C121C9016144DC4B634410
:1038E000D94A624421CA21C3D84B63441B6803915F
:1038F000CB60D84D6544D84B6344D54A624403CA73
:1039000003C30399C8682861D44B6B61AB689846C0
:10391000FCF7A6FE01004046FEF7AEFC8046686953
:10392000FCF79EFE01004046FEF7A6FCFDF796FB65
:10393000804608224946300009F0C4FCC84B0EAA54
:1039400094466344320003CA03C3C64B63445246E1
:103950001A60C5496144C54B6344C14A624421CAE7
:1039600021C3C04B63441B680391CB60C04D6544C9
:10397000C04B6344BD4A624403CA03C30399C86889
:103980002861BD4B6B61AB689B46FCF769FE01008B
:103990005846FEF771FC83466869FCF761FE01003A
:1039A0005846FEF769FCFDF759FB05900822494689
:1039B000300009F087FCB14B0EAA9446634406CE52
:1039C00006C3AF4B634452461A60AE496144AE4BE6
:1039D0006344AA4A624421CA21C3A94B63441B68B9
:1039E000CB60AA4B6344A84A624421CA21C3CB6876
:1039F0000393A74B6344039A1A60A64BA64A6244FA
:103A00001360FF23A54A624413601100B620C00171
:103A10006044FEF797FDC3B20D9320ADF90038ABBB
:103A20009C4661440822280009F04CFC9C4A0EABDD
:103A30009C4662449B4B6344290041C941C39A4858
:103A4000D060966853689946FCF70AFE0100484624
:103A5000FEF712FC95490EAB9C46614408604E602F
:103A60000822280009F02EFC209B219A002B03D06D
:103A7000197A890600D4CEE38D490EA884466144A4
:103A80000B608C4961440A60002B00D1C5E320AE75
:103A9000FB0038AA9146994408224946300009F0B3
:103AA00011FC854B0EAA94466344320003CA03C33B
:103AB0007D4B9A46814B634452461A60804961446B
:103AC000804B63447C4A624421CA21C37B4B6344DC
:103AD0001B680391CB607C4D65447C4B6344794A01
:103AE000624403CA03C30399C86828615B4B6B61D6
:103AF000AB689B46FCF7B4FD01005846FEF7BCFBE3
:103B000083466869FCF7ACFD01005846FEF7B4FB3C
:103B1000FDF7A4FA039008224946300009F0D2FBD1
:103B20006B4B0EAA94466344320003CA03C3694B2D
:103B3000634452461A6068496144684B6344644A6E
:103B4000624421CA21C3634B63441B680691CB6066
:103B5000634D6544634B6344604A624403CA03C3D4
:103B60000699C8682861444B6B61AB689B46FCF7BB
:103B700077FD01005846FEF77FFB83466869FCF736
:103B80006FFD01005846FEF777FBFDF767FA0690D8
:103B900008224946300009F095FB534B0EAA944683
:103BA000634406CE06C3514B634452461A605049E3
:103BB0006144504B63444C4A624421CA21C34B4B7D
:103BC00063441B68CB604C4B63444A4A624421CA3D
:103BD00021C3CB680893494B6344089A1A602D4B64
:103BE000474A62441360FF23464A6244136011004F
:103BF00045486044FEF7A6FCC3B20E9320ADF90021
:103C000038AB9C4661440822280009F05BFB3F4A20
:103C10000EAB9C4662443E4B6344290041C941C3FC
:103C20003C48D060966853689946FCF719FD73E0EC
:103C3000A05A0000A45A00007478011058600000D7
:103C4000985A00009C5A0000CC5A0000D45A000038
:103C500084600000B05A0000B85A00006878011073
:103C6000F45A0000FC5A000070600000746000000C
:103C7000D85A0000E05A00006C7801101C5B00006C
:103C8000245B00006060000064600000085B0000CE
:103C9000105B000090780110145B0000285B0000AE
:103CA000345B0000385B00008078011090600000F9
:103CB0002C5B0000305B0000605B0000685B000074
:103CC000B8600000BC600000445B00004C5B00007A
:103CD000885B0000905B0000A8600000AC60000002
:103CE0006C5B0000745B0000B05B0000B85B000020
:103CF000986000009C6000009C5B0000A45B0000DA
:103D0000A85B0000BC5B0000945B0000C85B000087
:103D1000CC5B00006478011001004846FEF7ACFA65
:103D2000FA490EAB9C46614408604E6008222800A8
:103D300009F0C8FA209B219A002B03D0197A890632
:103D400000D46DE2F2490EA8844661440B60F1494B
:103D500061440A60002B00D164E220ADFB0038AA68
:103D60009146994408224946280009F0ABFAEA4BEB
:103D70000EAA944663442A0003CA03C3E74B9A463B
:103D8000E74B634452461A60E6496144E64B63449C
:103D9000E14A624441CA41C3E14B63441B68079155
:103DA000CB60E24E6644E24B6344DF4A624403CA9E
:103DB00003C30799C8683061DE4B7361B3689B46E3
:103DC000FCF74EFC01005846FEF756FA8346706930
:103DD000FCF746FC01005846FEF74EFAFDF73EF9A7
:103DE000089008224946280009F06CFAD24B0EAA26
:103DF000944663442A0003CA03C3D04B634452462B
:103E00001A60CF496144CF4B6344CB4A624441CAF4
:103E100041C3CA4B63441B680791CB60B826F601C7
:103E20006644C94B6344C74A624403CA03C3079943
:103E3000C8683061C54B7361B3689B46FCF710FCE2
:103E400001005846FEF718FA83467069FCF708FC33
:103E500001005846FEF710FAFDF700F90790082216
:103E60004946280009F02EFAB94B0EAA944663443D
:103E700006CD06C3B74B634452461A60B649614447
:103E8000B64B6344B24A624421CA21C3B14B634476
:103E90001B68CB60B24B6344B04A624421CA21C361
:103EA000CB680993AF4B6344099A1A60AE4BAF4A93
:103EB00062441360FF23AE4A624413601100AD48B0
:103EC0006044FEF73FFBC3B20F9320ADF90038AB5F
:103ED0009C4661440822280009F0F4F9A64A0EAB7A
:103EE0009C466244A54B6344290041C941C3A44890
:103EF000D060966853689946FCF7B2FB01004846CB
:103F0000FEF7BAF9C221C9010EAB9C4661440860B4
:103F10004E600822280009F0D5F9209B219A002B39
:103F200003D0197A890600D47FE196490EA8844609
:103F300061440B60944961440A60002B00D176E132
:103F400020ACFE0038AB9C466644082231002000BD
:103F500009F0B8F98D4B0EAA94466344220003CAB7
:103F600003C3874B9A468A4B634452461A60894979
:103F70006144894B6344854A624421CA21C3844B0E
:103F800063441B680991CB60844D6544844B634452
:103F9000814A624403CA03C30999C8682861654B12
:103FA0006B61AB689946FCF75BFB01004846FEF786
:103FB00063F981466869FCF753FB01004846FEF748
:103FC0005BF9FDF74BF8814608223100200009F02B
:103FD00079F9744B0EAA94466344220003CA03C3C2
:103FE000714B634452461A6070496144704B63449C
:103FF0006C4A624421CA21C36B4B63441B6809911C
:10400000CB606C4D65446C4B6344694A624403CA9F
:1040100003C30999C86828614C4B6B61AB689B4628
:10402000FCF71EFB01005846FEF726F98346686937
:10403000FCF716FB01005846FEF71EF9FDF70EF8D7
:104040000C9008223100200009F03CF95B4B0EAACD
:104050009446634406CC06C3594B634452461A60E7
:1040600058496144584B6344544A624411CA11C3CD
:10407000534B63441B68CB60544B6344524A6244C5
:1040800011CA11C3CB680993514B6344099A1A6052
:10409000354B504A62441360FF234F4A6244136019
:1040A00011004E486044FEF74DFAC5B2182009F0E1
:1040B0000FF904004B460193089B0093039B424673
:1040C000474904F059FABB00DB19DB00454A9C5014
:1040D000079808F0D2FF8146069808F0CEFF804688
:1040E000059808F0CAFF061C0C9808F0C6FF00905F
:1040F0004B464246311C200004F058FA0D9A00212C
:10410000200004F04DFA0E9A6EE0C046C860000030
:10411000C05B0000C45B0000F45B00006478011029
:10412000FC5B0000F0600000F4600000D85B000061
:10413000E05B0000687801101C5C0000245C00005B
:10414000E0600000E4600000085C00006C78011092
:10415000445C00004C5C0000D0600000D4600000B3
:10416000305C0000385C0000907801103C5C00007E
:10417000505C0000285C00005C5C0000605C00009B
:1041800088780110545C0000585C0000885C0000D6
:10419000905C0000286100002C6100006C5C000055
:1041A000745C0000B05C0000B85C000018610000A6
:1041B0001C610000945C00009C5C0000D85C000066
:1041C000E05C0000086100000C610000C45C0000BD
:1041D000CC5C0000D05C0000E45C0000BC5C000033
:1041E0002C2A0020401D00200121200004F0D8F9D5
:1041F0000F9A0221200004F0D3F92A0003212000A5
:1042000004F0CEF9FFF7E4FA2300FFF741FBFF23A8
:104210009846FFF702FC23002EE4FF230393EDE40E
:1042200023008FE5FF2308934FE623007DE6FF255B
:10423000FF2399463AE71B01C01813005A1E002BB2
:1042400006D00A21435E002BF5D1002000E00020BB
:10425000002852D0017A7F230B40043BD9B20829B1
:1042600049D88B004D49CB589F46007846E04168BD
:104270000068FCF74EFE41E041680068FCF762FE12
:104280003CE0006800230EAA30241219137018A90C
:10429000FCF7ECF90EAB1B191A787F231340043B93
:1042A000DAB2082A20D893003D4AD3589F4618AB6B
:1042B000187823E018981999FCF72BFE1EE018983F
:1042C0001999FCF73FFE19E020AB00221A72190081
:1042D0001898FCF7CBF920A8FCF768FE0EE01898B8
:1042E0001999FCF753FE09E0029807E0416800685D
:1042F000FCF74CFE02E0029800E00298002809D08A
:10430000BB00DB19DA00274B9B181A799918487102
:1043100001321A710135052D54DC20ACF90038AB9F
:104320009C4661440822200008F0CCFF1E4B0EAAD8
:104330009446634406CC06C31C4B1D4A624413607A
:104340001C4961441C4B6344174A624411CA11C39F
:10435000174B63441B68CB60184C6444184B634490
:10436000154A624441CA41C3C86820616561A668B4
:10437000FCF776F901003000FDF77EFF6369002845
:1043800000D165E7027A520600D460E7002800D128
:104390005EE70068002800D050E759E73079011047
:1043A00054790110401D0020045D00009C7801102C
:1043B0000C5D0000386100003C610000E85C00001A
:1043C000F05C0000BB00DB19DB00F74AD3181B7957
:1043D000002B00D123E320ACF90038AB9C466144AC
:1043E0000822200008F06EFFF04B0EAA94466344AA
:1043F00006CC06C3EE48EF4B63441860EB4B6344B6
:104400001C68FCF72DF901002000FDF735FF00289E
:1044100000D117E3027A7F231340082B00D107E372
:104420000A2B00D109E30498002800D00CE3FF20F8
:10443000BB00DB19DB00DC4AD318587420ACF90050
:1044400038AB9C4661440822200008F03BFFDA4B61
:104450000EAA9446634406CC06C3D848D84B63449E
:104460001860D54B63441C68FCF7FAF80100200083
:10447000FDF702FF002800D105E3027A7F231340F5
:10448000082B00D1F5E20A2B00D1F7E204980028AE
:1044900000D0FAE20620BB00DB19DA00C24B9B1801
:1044A000D874203300221A700137032F00DD2DE36A
:1044B000FB0038AA9B58002BF6D020ADF90094469B
:1044C00061440822280008F0FDFEBE4A0EAB9C465F
:1044D0006244BD4B6344290011C911C3BB48D0607D
:1044E00094685668FCF7BCF801003000FDF7C4FE84
:1044F000B7490EAB9C46614408604C600822280016
:1045000008F0E0FE209C219B002C04D0227A920629
:1045100001D4FEF78BFBAF4A0EA98C4662441460AF
:10452000AD4A62441360002C01D1FFF781F920AC41
:10453000FD0038AB9C462B00634408229A461900C4
:10454000200008F0BFFEA54B0EAA9446634422004B
:1045500003CA03C3A24B9B46A24B63445A461A604C
:10456000A14961440D00A14B63449C4A624441CA85
:1045700041C39C4B63441B68CB609D4E66449D4B7E
:1045800063449A4A624403CA03C3E86830619A4BA1
:1045900098467361B3689946FCF762F80100484693
:1045A000FDF76AFE81467069FCF75AF8010048463B
:1045B000FDF762FEFCF752FD089008225346039374
:1045C0005146200008F07EFE8C4B0EAA94466344B0
:1045D000210044C944C38A4B634459461960894940
:1045E00061440D00884B6344844A624441CA41C31C
:1045F000834B63441B68CB60844E6644844B6344A6
:10460000814A624403CA03C3E8683061814B99461A
:104610007361B3689A46FCF723F801005046FDF732
:104620002BFE82467069FCF71BF801005046FDF72F
:1046300023FEFCF713FD0990059008220399200042
:1046400008F040FE74490EAB9C4661440B0021000B
:1046500044C944C371498A467149614456460E6053
:1046600070496144704E664433006B4A624441CAEB
:1046700041C36B4E66443668CE606C4E66446C4BEC
:104680006344694A624421CA21C3C8683061414613
:104690007161B1680D00FBF7E3FF01002800FDF731
:1046A000EBFD05007069FBF7DBFF01002800FDF75B
:1046B000E3FDFCF7D3FC0A9008220399200008F0E0
:1046C00001FE5C490EAB9C4661440B00210060C9B1
:1046D00060C35949614456460E6058496144584E7A
:1046E00066443300534A624460CA60C3524E664413
:1046F0003668CE60534E6644534A62441300504AB3
:10470000624421CA21C3C868306149467161B168F9
:104710008A46FBF7A5FF01005046FDF7ADFD824636
:104720007069FBF79DFF01005046FDF7A5FDFCF702
:1047300095FC0B90069008220399200008F0C2FD1A
:10474000424E0EAB9C4666443300260024CE24C362
:104750001E4EB2463E4E6644524632603D4E664460
:1047600031003D4E66443300384A624460CA60C33B
:10477000374E66443668CE60384E6644384A6244E6
:104780001300354A624421CA21C3C86830614246D9
:104790007261B2689046FBF763FF01004046FDF787
:1047A0006BFD804670695DE0401D0020145D0000D7
:1047B000C47801101C5D0000245D0000C878011061
:1047C0002C5D0000B8570000BC5700005C78011059
:1047D000105E0000B0570000B4570000E45700001E
:1047E00064780110EC570000486000004C60000045
:1047F000C8570000D0570000687801100C5800001E
:1048000014580000386000003C600000F0570000C1
:10481000F85700006C7801103458000074780110CB
:104820003C580000286000002C6000001858000070
:10483000205800005C580000645800001860000018
:104840001C600000405800004858000084580000D8
:104850008C580000086000000C60000068580000E0
:1048600070580000FBF7FCFE01004046FDF704FD18
:10487000FCF7F4FB804608220399200008F022FD93
:104880008C4E0EAB9C4666443300260024CE24C3D7
:10489000894E664452463260884E66443100884EE6
:1048A00066443300834A624460CA60C3824E6644F1
:1048B0003668CE60834E6644834A62441300804A61
:1048C000624421CA21C3C86830614A467261B26835
:1048D0009146FBF7C5FE01004846FDF7CDFC814639
:1048E0007069FBF7BDFE01004846FDF7C5FCFCF70B
:1048F000B5FB060007901C2008F0EAFC8146424602
:1049000000920A9B089A714903F0F4FFBB00DB197F
:10491000DB006F4A49469950300008F0AEFB061C98
:104920000B9808F0AAFB8046099808F0A6FB011C2A
:10493000331C4246484603F0EFFF0822039920004B
:1049400008F0C0FC634B0EAA9446634406CC06C331
:10495000614B63445A461A6060496144604B63444A
:104960005C4A624411CA11C35B4B63441B68CB6051
:104970005C4D65445C4B6344594A624411CA11C39F
:10498000CB682B61594B6B61594C6444594E66445A
:10499000082255496144300008F094FC2B692361DA
:1049A0006B69636113AB06CE06C32069159063691A
:1049B0000393169300231793139CFBF751FE0100FA
:1049C0002000FDF759FC0400169B03931800FBF729
:1049D00047FE01002000FDF74FFC179B002801D186
:1049E000FEF72AF9027A520601D4FEF724F90028CC
:1049F00001D1FEF721F90068002801D1FEF71CF96A
:104A00005A1E002B01D1FEF717F90A21435E002B35
:104A100001D1FEF70EF91B01C0181300F0E7D023F7
:104A20001B0640225A6140329A61334806F0A0FAD0
:104A300041680068FCF728F8F6E441680068FCF774
:104A40002EF8F1E40498EFE42C4B0EAA944663444C
:104A50001C682B4B63441868FBF702FE0100200022
:104A6000FDF70AFC002802D0FCF7A8FBE0E40020D8
:104A7000DEE441680068FCF707F808E54168006873
:104A8000FCF70DF803E5049801E51E4B0EAA9446C9
:104A900063441C681C4B63441868FBF7E1FD01008C
:104AA0002000FDF7E9FB002802D0FCF787FBF2E4C9
:104AB0000020F0E4AC580000B4580000F85F00009B
:104AC000FC5F000090580000985800002C2A00203D
:104AD000401D0020D4580000DC580000E85F0000B2
:104AE000EC5F0000B8580000C05800007C7801104E
:104AF000D05F0000D85F0000A8780110145D0000AE
:104B00001C5D0000245D00002C5D0000AA4B0EAA75
:104B10009446634440AA1A60A848A94B63441860AD
:104B2000FBF79EFD010046A8FDF7A6FBC321C901C6
:104B30000EAB9C466144086040AB4B60082220A845
:104B400008F0C0FB209B219A002B03D0197A89061C
:104B500000D402E1289329929A4B0EAA944663440A
:104B600040AA1A609848994B63441860FBF778FD97
:104B7000010046A8FDF780FB95490EAB9C466144B9
:104B8000086040AB4B60082220A808F09BFB209BEC
:104B9000219A002B03D0197A890600D4DFE02A93EA
:104BA0002B928C4B0EAA9446634440AA1A608A4802
:104BB0008A4B63441860FBF753FD010046A8FDF7DC
:104BC0005BFB87490EAB9C466144086040AB4B6081
:104BD000082220A808F076FB209B219A002B03D006
:104BE000197A890600D4BCE02C932D927D4B0EAA35
:104BF0009446634440AA1A607B487C4B6344186027
:104C0000FBF72EFD010046A8FDF736FB78490EABF9
:104C10009C466144086040AB4B60082220A808F025
:104C200051FB209B219A002B03D0197A890600D4CE
:104C300099E02E932F926F4B0EAA9446634440AA9C
:104C40001A606D486D4B63441860FBF709FD010065
:104C500046A8FDF711FB6A490EAB9C46614408600B
:104C600040AB4B60082220A808F02CFB209B219A27
:104C7000002B02D0197A890677D530933192614B97
:104C80000EAA9446634440AA1A605F485F4B63448F
:104C90001860FBF7E5FC010046A8FDF7EDFA5C495A
:104CA0000EAB9C466144086040AB4B60082220A8D4
:104CB00008F008FB209B219A002B02D0197A890664
:104CC00055D532933392534B0EAA9446634440AA6F
:104CD0001A605148514B63441860FBF7C1FC010056
:104CE00046A8FDF7C9FA4E490EAB9C4661440860E0
:104CF00040AB4B60082220A808F0E4FA209B219AE0
:104D0000002B02D0197A890633D534933592454B5E
:104D10000EAA9446634440AA1A604348434B634436
:104D20001860FBF79DFC010046A8FDF7A5FA404975
:104D30000EAB9C466144086040AB4B60082220A843
:104D400008F0C0FA209B219A002B02D0197A89061C
:104D500011D53693379200249CE00023FAE6002315
:104D60001DE7002340E7002363E7002385E70023D6
:104D7000A7E70023C9E70023EBE700785BE0416881
:104D80000068FCF7C6F856E041680068FCF7DAF8FE
:104D900051E0006820AB00221A721900FBF766FC94
:104DA00020A8FCF703F946E041680068FCF7EEF83C
:104DB00041E002983FE0C046305D0000D07801102D
:104DC000345D0000385D0000D87801103C5D0000C3
:104DD00078610000405D0000E0780110445D000053
:104DE00070610000485D0000E87801104C5D000033
:104DF00068610000505D0000F0780110545D000013
:104E000060610000585D0000F87801105C5D0000F2
:104E100058610000605D000000790110645D0000D1
:104E200050610000685D0000087901106C5D0000B1
:104E30004861000002982201A44B9B18587020ADD5
:104E4000E10028AB9C4661440822280008F03AFAA9
:104E50009F4B0EAA9446634406CD06C39D489E4BC5
:104E6000634418609A4B63441D68FBF7F9FB01002B
:104E70002800FDF701FA002803D0037A5B0600D072
:104E8000049E002E63D02201904B9B1800225A7181
:104E90001A710134072C00DD0FE1E30028AA9B58AA
:104EA000002BF6D020ADE100944661440822280092
:104EB00008F008FA894B0EAA9446634406CD06C34F
:104EC0008748884B63441860874B2093834B634427
:104ED0001D68FBF7C5FB01002800FDF7CDF920A9EF
:104EE000FBF786FE013843425841C6B2002873D012
:104EF0002301764A0121995420ADE10028AB9C465C
:104F000061440822280008F0DDF9784B0EAA944687
:104F1000634406CD06C37648764B63441860734BF2
:104F200063441D68FBF79CFB01002800FDF7A4F912
:104F3000002800D17EE7027A7F231340043BDAB2D7
:104F4000082A00D935E793006B4AD3589F465F4B38
:104F50009846260102234246B35420ADE70028AB11
:104F60009C46674408223900280008F0ABF9634BDF
:104F70000EAA944663442A0003CA03C35548604BF3
:104F8000634418605D4B63441B689946FBF768FBFC
:104F900001004846FDF770F9FCF760F84644B07030
:104FA00008223900280008F08DF9564B0EAA9446C5
:104FB000634406CD06C35448544B63441860514BB8
:104FC00063441D68FBF74CFB01002800FDF754F912
:104FD000FCF744F8F07056E720ADE10028AB9C46A2
:104FE00061440822280008F06DF9494B0EAA944646
:104FF000634406CD06C33A48464B63441860464BAB
:105000002093434B63441D68FBF72AFB01002800F3
:10501000FDF732F920A9FBF7EBFD012824D12B4E37
:1050200027010323BB5520ADE10028AB9C4661441A
:105030000822280008F046F9384B0EAA944663442B
:1050400006CD06C33648374B63441860334B634480
:105050001D68FBF705FB01002800FDF70DF9FBF7C4
:10506000FDFFF61970700EE720ADE10028AB9C46FD
:1050700061440822280008F025F92B4B0EAA94461B
:10508000634406CD06C31648284B634418601E4B84
:105090002093254B63441D68FBF7E2FA01002800CA
:1050A000FDF7EAF820A9FBF7A3FD012800D0EAE606
:1050B0002301064A04219954E5E61D4B9D44F0BCAA
:1050C000BB46B246A946A046F0BDC046E01D002042
:1050D000945D00004C7801109C5D0000745D000040
:1050E000107901107C5D000018790110845D0000CA
:1050F000447801108C5D000078790110A45D0000F7
:10510000AC5D0000B45D000020790110BC5D0000C2
:10511000C45D0000CC5D0000C8780110D45D0000C3
:1051200028790110DC5D0000E45D0000EC5D00000A
:10513000C4610000F0B5D6464F464646C0B586B0BD
:1051400003F062FC08F090FA032003F08DFDD024F8
:1051500024060823A36200220121032003F08CFC13
:105160000F2003F081FD80231B02A362062003F0C1
:105170007BFD402363626361072003F075FD80239C
:1051800063626361192003F06FFD80239B046362F7
:10519000636104A8FBF700F9D54B0499059A1960DF
:1051A0005A60D44B01221A700BF01AF91F211A20F1
:1051B00003F04AFC002200211A2003F05DFC0021CC
:1051C0001A2003F039FDCC4B1B68E022D2011340BA
:1051D000CA4A1360CA4B012208210F2003F0D0FCF9
:1051E000C84804F0C9FE04A8FBF7D6F8C64A002355
:1051F0000498059907F020F81000190007F00EFB3D
:105200000022C24B07F027FA02000B00C04808F04A
:105210001FFA06220121BF4808F01AFABE4B0422E9
:105220001A60B54B1B68DB05FBD5B34B5C68FBF71D
:10523000F9F9BA4D286004A8FBF7AEF8B24A00238A
:105240000498059906F0F8FF1000190007F0E6FA37
:105250000022AE4B07F0FFF902000B00AC4E30000D
:1052600008F0F6F92104090CAD4808F0F1F904A89A
:10527000FBF792F8A44A00230498059906F0DCFF96
:105280001000190007F0CAFA0022A04B07F0E3F95A
:1052900002000B00300008F0DBF9286807F01CFF63
:1052A00002000B009F4808F0D3F928688221C90545
:1052B00007F0C8FE00280DD1FBF7CAF8FBF7E4F8A9
:1052C0000121994805F04CFDFF21984801F0CCFCE4
:1052D000002444E0D0231B0640225A6140329A61E8
:1052E00004A8FBF759F8884A00230498059906F0AA
:1052F000A3FF1000190007F091FA0022834B07F07A
:10530000AAF902000B00824808F0A2F9834B186842
:1053100007F0E2FE02000B00854808F099F9854885
:1053200002F0D0FA844B19687C4B186807F08AFEAB
:105330000028C1D0814804F01FFEFBF773F9774BBA
:105340001860EFE7E6B27E4D00223100280001F040
:1053500087FD00223100280001F0CCFD01340F2C24
:10536000F0DDFDF787F904A8FBF716F8664A00237D
:105370000498059906F060FF1000190007F04EFA36
:105380000022624B07F067F902000B00604808F04A
:105390005FF96C4B19786C4808F05AF9002406E064
:1053A0006A4B6B4A3F216B4805F048FD0134032CE2
:1053B00032DCA3001B19DB00674A9B58002BF5D099
:1053C0000025A3001B19DB00634AD3181B79AB42ED
:1053D000ECDD04F0A1FE0029E2DB4B4A002306F0DD
:1053E0002BFF1000190007F019FA0022474B07F0B5
:1053F00032F902000B00464808F02AF9A3001B19F5
:10540000DA00554B9B185B195B792A002100534841
:1054100008F01EF90135D4E7002513E00134032C10
:105420000BDCA3001B19DB004B4A98580028F5D071
:1054300003681B68E9B29847F0E7FA20800004F09F
:105440009BFD0135032D01DC0024E8E7394C2000E9
:1054500002F03AFC09220821200002F0E7FC394B57
:105460001978200001F086FF0821200002F012F8D0
:105470003B49200002F024F81421200002F096F8A5
:105480003849200002F064FB0521200002F0D4F826
:105490000921200002F0CCFB0121200001F072FF65
:1054A000200002F018F9002400E00134032C0BDC8A
:1054B000A3001B19DB00284A98580028F5D0036880
:1054C0001B6802219847F0E705F07AFC00284DD1CF
:1054D000002300E00133072B48DC1A012249525C0B
:1054E000032AF7D11901204A521801211171F1E75D
:1054F000701E0020D730002000C0044000D00440BF
:10550000050300108813000040420F0000408F4048
:10551000445F01109C79011000E004404024002009
:10552000B0790110BC79011010270000042A002076
:10553000D0790110582A0020C00F002060EA000036
:105540002C2A0020C5300020E4790110A85E01104B
:10555000C45E0110FC5E0110401D0020F0790110B6
:1055600000C0644420A10700E01D002004A8FAF751
:1055700013FFC94A00230498059906F05DFE100048
:10558000190007F04BF90022C44B07F064F8020041
:105590000B00C34808F05CF8C24B1B78C24A127873
:1055A000C2490978C24800780090C24808F050F813
:1055B000D0231B0640229A6140325A6101F015F94E
:1055C0000132032A09DC93009B18DB00BA49CB188F
:1055D0009B7C002BF4D01D00F2E704F09DFD002918
:1055E00003DBB64B18605960AEE0B54BB54A3F21BE
:1055F000B54805F023FC01308B005B18DB00AE4A98
:10560000D3181B7983420FDD002F0DD18B005B185F
:10561000DA00A94B9B181B185A79AC4B1B789A429D
:10562000E9D1CEB22700E6E70131032903DC002FE0
:1056300001D10020E0E7A64B1A78A64B1B789A42CE
:1056400000D19BE0A24BDB78472B09D0672B07D01A
:10565000412B05D0612B03D0522B01D0722B11D1DD
:105660009D4B1B78002B00D1B7E29C4B1B78002B85
:1056700000D0E0E204F050FD002900DA11E3984B7D
:105680001860596004F048FD002900DA0FE3824AEF
:10569000002306F0D1FD1000190007F0BFF800222A
:1056A0007E4B06F0D8FF02000B007D4807F0D0FFCC
:1056B0008C4B1C788C4B1E78844B1F788B4801F0E8
:1056C0005BFE00903B0032002100894807F0C0FFDC
:1056D00004F022FD002900DAEFE26F4A002306F011
:1056E000ABFD1000190007F099F800226B4B06F093
:1056F000B2FF02000B006A4807F0AAFF7448017865
:10570000C2784378807800907A4807F0A1FF002D96
:1057100000D1E1E204F000FD02000B1E00DAD2E24B
:10572000664908684968121A8B4110001900FA226C
:105730009200002306F068FD5B4B1A780023994223
:1057400000DDC9E200D1C4E2684801F0E9FF041EAF
:10575000DDD0654A002111705C4B1970614E043137
:105760003170009232005A49604801F0F7FF3378F7
:10577000042B87D100210026002756E7544A94784D
:10578000002C00D05EE7002F00D15BE74F4A107875
:10579000834200D156E74E4AD278672A0BD8412A75
:1057A00000D24FE7413AD1B2262900D94AE78A0010
:1057B00051498A589746722A00D043E7834200D263
:1057C00072E13700282373433B4A985803685B68AB
:1057D0009847012800D195E1002C00D19CE13B4B7A
:1057E0001878002301225221FAF77CFE2AE7384B71
:1057F0005F78002F3BD1002301224721FAF772FE88
:105800003C00324B197803223000FAF797FEB0467D
:1058100028235E43284BF05803685B6898470128AB
:1058200070D0282342465343234A985803681B6884
:1058300000219847314B01221A70274B1B78002B0F
:1058400000D1A9E0254B1B78002B00D0CFE0282207
:1058500043465A43184B9B1800229A7404A8FAF73F
:105860009BFD1F4B0499059A19605A60EAE60023D4
:1058700000E00133072BC4DC1901214A5218527889
:10588000B242F6D10A001E49525C032AF1D11B0133
:10589000CB181C79B5E7C04640420F0000408F404E
:1058A000445F0110BD0F0020C90F0020C80F002069
:1058B000CA0F0020087A0110401D0020681E002039
:1058C000A85E0110C45E0110FC5E0110CD30002006
:1058D000A0300020C5300020BE0F0020CE300020B8
:1058E000381D0020D3300020D9300020582A002055
:1058F000487A0110707A01102C7B0110CA30002008
:10590000E01D0020002C8CD1CC4B9B1920331B7840
:10591000002B92D1CA4B1B78FA2292005A4392462E
:10592000282443465C43C54BE41804F033F9814610
:1059300004F0F2FB06000F1E1EDBFA229200002389
:105940005046002107F010FB32003B0012184B417B
:10595000002B17DB002B19DB012602960194B949B5
:105960000091484604F02CF9282243465A43B34B91
:105970009B1820331E7060E7B34BB44A3F21B448F4
:1059800005F05CFA01225242B24BE3E7AE4BAF4A5C
:105990003F21AF4805F052FAAF4801F071FC0024F6
:1059A00000E00134032C1BDC28236343A34A9858EE
:1059B0000028F6D00368DB68A8499847282363438A
:1059C0009E4A985803685B6898470428E9D12823C1
:1059D00063439A4A985803681B6800219847E0E798
:1059E0009F4B01221A709F4B00221A702FE7002450
:1059F00000E00134032C0ADC282363438F4A9858C3
:105A00000028F6D00368DB6894499847F1E7954B86
:105A100000221A701BE7944B5B78002B3FD03700B5
:105A200028237343854A985803685B689847002881
:105A300012D028237343814A985803685B689847BB
:105A4000012809D0282373437C4A985803685B686F
:105A50009847042800D0F5E5784C28235F4338594F
:105A600003681B68012198470122804B1A70804B04
:105A700019783000FAF762FDE4190023A37404A832
:105A8000FAF78AFC7B4B0499059A19605A6004A8BE
:105A9000FAF782FC049A059BA261E361D2E5012238
:105AA0005221FAF71FFDBAE7002307E01A017249F5
:105AB000525C013AD2B2012A17D90133072B00DD1B
:105AC0007FE619016C4A52185278B242EED06A4A07
:105AD00052189278B242F0D1674A5118C978090138
