:020000041000EA
:1000000000B5324B212058609868022188439860DF
:10001000D860186158612E4B002199600221596106
:100020000121F02299502B49196001219960352056
:1000300000F044F80222904214D00621196600F024
:1000400034F8196E01211966002018661A6600F04E
:100050002CF8196E196E196E052000F02FF8012189
:100060000842F9D1002199601B49196000215960AB
:100070001A491B48016001219960EB211966A021F2
:10008000196600F012F800219960164914480160C1
:100090000121996001BC002800D000471248134993
:1000A000086003C880F30888084703B5996A0420EC
:1000B0000142FBD001200142F8D103BD02B5186610
:1000C0001866FFF7F2FF186E186E02BD00000240BE
:1000D000000000180000070000035F00212200005C
:1000E000F4000018222000A00001001008ED00E03C
:1000F00000000000000000000000000074B24E7A12
:1001000000200420F7010010C3010010C5010010F9
:10011000C1010010C1010010C1010010C101001097
:10012000C1010010C1010010C1010010C701001081
:10013000C1010010C1010010C9010010CB01001065
:10014000CD010010CD010010CD010010CD01001037
:10015000CD010010CD010010CD010010CD01001027
:10016000CD010010CD010010CD010010CD01001017
:10017000CD010010CD010010CD010010CD01001007
:10018000CD010010CD010010CD010010CD010010F7
:10019000CD010010CD010010CD010010CD010010E7
:1001A000CD010010CD010010CD010010CD010010D7
:1001B000CD010010CD010010CD010010CD010010C7
:1001C00000BE00BE00BE00BE00BE00BEEFF3058054
:1001D000103800BEF2EB8871BCBB0310ECBB0310FF
:1001E0003402001090A31AE700201F49086006C8D7
:1001F00081F3088810471D48006800282FD10DA4FE
:100200000ECC002902D000F012F8F9E71849194A7B
:10021000002000E001C19142FCD1174988471749ED
:1002200088471749884700BEFDE701C901C29A42C5
:10023000FBD37047ECBB0310C0000020E41F00207C
:1002400010DB0310000004200000042010DB03106A
:10025000001004200010042000000000704709482E
:1002600021F01EF80047000008ED00E0000000D07B
:10027000E81F002040910220D1FF0110E52C001062
:100280008DFF01105756000006005250ABB360536B
:100290004888031006005250861C03025888031039
:1002A000060052505422A29D64880310050052504B
:1002B000DE65F46810DB0310F8B5C04610B5064CD7
:1002C0002378002B07D1054B002B02D0044800E017
:1002D00000BF0123237010BD402200200000000059
:1002E00018220310044B10B5002B03D00349044817
:1002F00000E000BF10BDC046000000004422002006
:100300001822031030B5032910D80023002406E07A
:100310000268D25C55426A4114430133DBB2CAB26F
:100320009A42F5D801206040C0B230BD0020FCE701
:1003300010B504001EF09CFF002903DB2060616003
:10034000200010BD024B034A3F2103481FF022FE4C
:1003500018220310342203106C22031070B50128F8
:1003600005D0002802D1334B994215D070BD314BD6
:100370009942F6D1304B314A1A6000221A719A60C4
:100380001C000C34DC621A8604245C86053C9C86C6
:100390003C255A55DC87E4E7274B1C68264B9968B7
:1003A000002906D00A689A6023685B682000984795
:1003B000F4E7214B1E68002509E033685B683000D4
:1003C000984700236360238063800135ADB21A4BE8
:1003D0001B8EAB4207D9184BDC6AEB00E41861684E
:1003E0000029EAD1EDE7144B00221A86013A9A86D9
:1003F000D96A0C33994209D033685B68300098475A
:100400000D4B1A000C32DA6204225A860A4B1B8EFC
:10041000002B09D1084B9B68002BA7D0084B094A39
:10042000162109481FF0B6FD084B094A1F2109484B
:100430001FF0B0FDFFFF0000A0230020C01100202E
:10044000C0230310D423031010240310CC22031064
:10045000D82203106023031010B5C021890102487F
:1004600031F06AFE10BDC04600D01F0010B501007B
:10047000C0229201014831F03FFE10BD00D01F00A4
:1004800010B50800110022F0FBF810BD10B50800EF
:1004900022F016F910BD10B5080022F0D3F810BDF7
:1004A00030B589B005003A483A4B1860C022920135
:1004B00029002EF0C9FE00284BD027F047F9002470
:1004C0000AE020001DF064FD01AB1855002120005A
:1004D0001DF07AFD0134E4B2192CF2D9FA24E400BB
:1004E000220000212C4824F095FF1FF09FFC2200E1
:1004F00029002A4824F08EFF002406E001AB195D94
:1005000020001DF061FD0134E4B2192CF6D927F06A
:10051000EFF91EF0ADFE002915DB214A002320F083
:1005200051FF1000190021F047FA00221D4B21F065
:1005300058F902000B001C4822F0B4FA1B4822F0C4
:1005400081FA09B030BD1A4B1A4A3F211A481FF0F0
:1005500021FD1EF08DFE002914DB114A002320F03E
:1005600031FF1000190021F027FA00220D4B21F075
:1005700038F902000B000C4822F094FA0F4822F0E0
:1005800061FADEE70A4B0B4A3F210B481FF002FDE0
:1005900000D01F10C4110020590400106D04001079
:1005A00040420F0000408F406C2403107824031059
:1005B00018220310342203106C220310902403101D
:1005C00010B501481FF080FDAC24031010B50148A0
:1005D0001FF07AFDC824031000B583B06846FFF70A
:1005E000A7FE0F4A00230098019920F0EBFE1000AF
:1005F000190021F0E1F900220A4B21F0F2F8020083
:100600000B00094822F04EFA084822F01BFA27F0A6
:100610009DF8FA20012140001FF04EFCFEE7C04685
:1006200040420F0000408F406C240310E42403106C
:10063000F0B5C64600B584B005000C001700098D62
:10064000B74B99423BD1A38C002B00D1ADE000D138
:100650007AE0013B99B2CA00236A9C46624453681F
:10066000002B00D176E050881688B04200D277E0A7
:100670000023029302AB012252429A80029A002A7E
:1006800000D186E002AB9B88C9015B189BB2009247
:1006900069468B8051424A41D2B2A2498C4663449A
:1006A00059424B41DBB29A4200D078E0009B002BCC
:1006B00000D17AE06B462A0003CB03C225E00B0091
:1006C000974A914226D0964A914235D0CA097F2155
:1006D0001940A08C824223D2D200206A8446624410
:1006E0005088814222D25268C9005218118821854F
:1006F0002A60AB8051424A41D2B28A498C46634457
:1007000059424B41DBB29A4218D1280004B080BC58
:10071000B846F0BD844B854A992185481FF03AFCC4
:10072000844B854A712182481FF034FC834B844AF4
:100730004B2184481FF02EFC0022D7E7824B834ACE
:10074000162180481FF026FC814B824AA12178485F
:100750001FF020FC029302AB012252429A808DE7E7
:10076000461C5680C2009B18029302AA90805A42EF
:100770005341DBB26B4A9446604442425041C0B29E
:10078000834200D17AE7704B704A16216D481FF002
:1007900001FC00230093013B6A46938086E76A4B85
:1007A0006A4A162167481FF0F5FBA28CE38C9A4237
:1007B0004FD0A68C731C9BB2A384F600226A944689
:1007C00066448022920093426FD08023984643462D
:1007D000002B6DD0D9003B681B68380098477060CB
:1007E00000286BD04346338000237380002E68D0EE
:1007F000A38C002B6AD0013B99B2226ACB00D2189D
:100800005368002B68D050881488A0426AD3002314
:10081000029302AB012252429A80029A002A79D0B6
:1008200002AB9B88C9015B189BB22A60AB80514226
:100830004A41D2B23B498C46634459424B41DBB2F8
:100840009A4200D161E7404B404A16213D481FF0D3
:10085000A1FB80229200934221D05B009EB2216ACC
:10086000A1420FD0F2003B689B6838009847804651
:10087000002818D043462362E6840123002B98D138
:100880000026B3E7F1003B681B68380098478046B4
:10089000002806D02022210021F030FFEAE70023C3
:1008A000ECE70023EAE70023E8E77F2398468EE79A
:1008B000294B2A4A332123481FF06CFB002398461A
:1008C00090E700232B60013BAB801EE7204B214AC1
:1008D000A12117481FF05EFB029302AB0122524296
:1008E0009A809AE7441C5480C2009B18029302AA83
:1008F00090805A425341DBB20A4A944660444242D5
:100900005041C0B2834288D00F4B104A16210D4887
:100910001FF040FB00232B60013BAB80F5E6C04697
:10092000FFFF00000100FFFF142503102C2503101A
:1009300060230310E0250310F4250310E0260310C4
:10094000EC260310D427031030280310542803107A
:100950002C29031038290310EC290310F429031063
:1009600070470000F0B58BB005000C000379DB0781
:100970000CD42B79DB0628D42B7960221A4200D1C3
:10098000D9E0002D00D1D6E02B88A3E00268083220
:100990000868896800260029EBD00B0008339A42CA
:1009A00002D00E000968F6E78B88013B9BB28B8072
:1009B000002BDED1002E05D00B68336003685B6826
:1009C0009847D6E70B68A360F8E72B8822000C3223
:1009D0005B498B4234D0D8097F211940968CB042B4
:1009E00022D2126AC00012185088814222D2526864
:1009F000C9005218049204A98B8051424A41D2B2D4
:100A000050498C46634459424B41DBB29A4219D15A
:100A100002AE082204A9300021F070FEA38E029AD3
:100A20001380B388A386A7E7474B484A71214848FB
:100A30001FF0B0FA474B484A4B2148481FF0AAFA2A
:100A40000022D7E7464B474A162144481FF0A2FA36
:100A50003D4B3E4A71213E481FF09CFA5268C90046
:100A60005218D688069206A98B8051424A41D2B2CA
:100A700034498C46634459424B41DBB29A4244D1DB
:100A8000082206A9684621F039FE0098002842D0C5
:100A90002100FFF767FF0098FFF762FF6B469B8816
:100AA000089008AA938042425041C0B2254A944619
:100AB00063445A425341DBB2984232D102AF08221A
:100AC00008A9380021F01AFEA38E029A1380BB8871
:100AD000A38633001A4A934229D020000C30934257
:100AE00011D0DA097F211940868CB242B0D2006A57
:100AF000D200821850888142B0D3164B164A4B213F
:100B000016481FF047FA0022ABE7154B164A16218C
:100B100012481FF03FFA154B154A26210F481FF0C7
:100B200039FA0F4B0F4A16210C481FF033FA0123F4
:100B30005B422B806B8000232B710BB0F0BDC04655
:100B4000FFFF00000100FFFFE0250310F425031064
:100B500060230310E0260310EC260310D4270310B3
:100B60003028031054280310002B0310CC2B031043
:100B7000DC2B031001604260002303727047704752
:100B800070B504000800FFF7FAFF230026C826C34B
:100B9000200070BD7047000082B010B584B0019095
:100BA000029103920793002808D0079B002B0BD0DB
:100BB0000298089B98423AD1002324E0204B214A16
:100BC0002D2121481FF0E6F9204B1E4A2E211E48F8
:100BD0001FF0E0F91E4B1F4A2B211F481FF0DAF9C6
:100BE0001E4B1C4A2C211C481FF0D4F9184B194AE3
:100BF0002B2119481FF0CEF9184B164A2C21164804
:100C00001FF0C8F90133834217D2019A002AE1D0BC
:100C100002998B42E4D8D15C079A002AE6D0089C5E
:100C2000A342E9D8D25C8A42ECD0002000E0002048
:100C300004B010BC08BC02B018470120F8E7C04659
:100C4000502C0310602C0310182E03107C2E031060
:100C50008C2E0310982E0310E02E0310482F031043
:100C6000F0B5D6464F464646C0B58CB006000D1EC0
:100C70002BD04468002C2ED00834029487683900A9
:100C800002A8FFF73FFB00282BD1E41900232370B3
:100C90003468B268029906A8FFF76CFFA468002CBC
:100CA00061D021000831E28809A8FFF763FF0AAB91
:100CB0006A4603CB03C2099B06980799089AFFF777
:100CC0006BFF00284FD12468E9E7584B584A1D2193
:100CD00058481FF05FF9584B554A1E2155481FF0E0
:100CE00059F93A00210003A8FFF744FF2B79002BA4
:100CF00015D1049A032A18D802222A71049CE0B262
:100D000098422BD9039A002A16D0049EB34219D8D0
:100D1000D25C002A1CD0EA540133DBB2F0E7474B27
:100D2000474A484948481FF035F98521474B444A0E
:100D3000890045481FF02EF9454B464A2B2146486D
:100D40001FF028F9454B434A2C2143481FF022F954
:100D5000434B3B4A43493C481FF01CF9FF232340C7
:100D60000022EA540CE0002C10D0A3880133A380A9
:100D70002B79002B4CD1002C50D005232B712C60EB
:100D80000CB0E0BCBA46B146A846F0BD33689A46FE
:100D900073689846B368994653461F684346002BCC
:100DA0000FD080235B02994511D23B689B684A466D
:100DB0000932414638009847041E08D04B46C3808C
:100DC0000AE0294B294A332129481FF0E3F83B6800
:100DD0005B68414638009847002C09D0002C0BD0A6
:100DE00033680FD09A6822609C6000237360BFE76D
:100DF000012352461371F1E71B4B0D4A2A210D487E
:100E00001FF0C8F8184B1B4A43211B481FF0C2F8BB
:100E10000A4B1A4A1A490C481FF0BCF88921194B91
:100E2000164A890008481FF0B5F8C046542F031031
:100E3000682F0310D02F03103030031044300310FC
:100E40006030031013020000F83003105831031013
:100E50008C2E0310982E0310E02E0310482F031041
:100E6000783103101B020000803103109031031011
:100E70004C320310A832031010240310083303105F
:100E800023020000D47C031070470000F0B5DE465A
:100E900057464E464546E0B587B08246894600290A
:100EA00009D009782B290CD02D2910D12C398C464A
:100EB000E1448B460DE0B44BB44A6E31B4481FF0A8
:100EC00069F801218C46E14400218B4601E00021B4
:100ED0008B464946087801003039C9B209290CD936
:100EE0002E2834D0002352461370504607B0F0BC71
:100EF000BB46B246A946A046F0BD002400254E469A
:100F00003678B046303EF6B2B446092E25D8A14E0A
:100F1000B54222D81ED0A60FAB003343A200A418BE
:100F20005D4126002F00B6197F4134003D0000943A
:100F3000019560460021C643B4467E1C23D0009C28
:100F4000019D24184D410126B446E144D7E7002411
:100F50000025D4E7904EB442DDD9404600281BD18D
:100F60005B46002B12D080231B069D4224D801D162
:100F7000002C21D100236242AB4102215046017076
:100F80008260C360B1E76445D9D9E6E703235246DE
:100F900013709460D560A8E7002680235B039D4210
:100FA0000CD30A2200232000290020F00BFA0400B1
:100FB0000D00013636B2F0E70026EEE749460A7822
:100FC0001300303BDBB2092B03D8013636B20131B6
:100FD000F5E789462E2A0FD04B461B78652B35D076
:100FE000452B33D00023F6184B461F78002F7DD0B9
:100FF00000235246137078E701239C46E144B4462F
:101000004A4613E0A70FA9003943A00024184D4118
:1010100024196D41029300230393029E039FA41998
:101020007D416646013E33B29C4601321378303B27
:10103000DBB2092B07D8594FBD42F6D8E2D1584F41
:10104000BC42F2D8DEE766469146C5E74B46581CDF
:101050005B782D2B15D02B2B16D000270023027880
:1010600011003039C9B2092939D89900CB185B0071
:10107000303A9B18F1189A225200914208DC013054
:10108000EDE701300127E9E7484602300027E5E7B0
:10109000002F0BD05B46002B06D0802212060123C6
:1010A00051460B708A6020E70022F8E75B46002B70
:1010B00010D000203B49FFF7E7FE80231B069C462B
:1010C000614404235246137002000B0051468A60AB
:1010D000CB600AE700203349FFF7D6FEF1E7002F87
:1010E00002D05B4281467EE781467CE733002633AF
:1010F0004C2B01D8002D0CD02000290020F05CFCE6
:1011000004000091002E2BDD274D002E2DDC7642B1
:101110002BE0002D03D180231B049C42ECD2200045
:10112000290021F079F9002E04DD204C002E06DC88
:10113000764204E01E4CF9E776100137FFB2002E2C
:1011400006D0F307F8D5BB00E15821F09EF8F3E78D
:101150005B46002B42D10123524613709060C4E6D7
:10116000144DD2E776100137FFB2002E24D0F307DA
:10117000F8D5FB00EB181A685B682000009920F096
:101180004EFB04000091EDE7743303107C33031031
:10119000DC330310999999199999999999990100B2
:1011A000989999990000F07F384B0310D84A0310A2
:1011B000C04A0310F04A03105B46002B05D0009B89
:1011C000802212069446634400930423524613700F
:1011D0002200009B51468A60CB6086E680231B0676
:1011E0009C466044B7E7C0467047000010B5FFF763
:1011F000FBFF0068002800D010BD0148FCE7C04696
:10120000A0B00310704710B504000800FFF7FAFF04
:10121000206004236360033B2372200010BD7047ED
:1012200010B504000800FFF7FAFF20600723636091
:10123000063B2372200010BD704770B50400080003
:10124000FFF7FAFF230026C826C3200070BD000068
:10125000F0B5A1B00600030020CB2A00383206A961
:1012600091CB91C12B00383368D006AB91CB91C1A3
:101270001379202B31D10CA909AB91CB91C1002A54
:101280005CD00B008C460CA9180098C998C00100CE
:10129000634691CB91C1129B002B20D011882A006C
:1012A0000C32A44B994271D0C8097F230B40948C17
:1012B000A0425FD2126AC0001218508883425FD2E7
:1012C0005268DB00D318049304AA9180002B5FD0EE
:1012D000DA8804ABDA800124A2E00022CBE7029393
:1012E00002AB012252429A80029A002A26D002AB17
:1012F0009A88904B9A4200D1E2E002ABD9880C3533
:101300008C4B994200D1EDE0C8097F230B40AA8C99
:10131000904200D3DAE02A6AC00012185088834253
:1013200000D3D9E05268DB00D318029302AA91805F
:10133000002B02D0DA8802ABDA80029A316815AB52
:101340001592169112AA03CB03C21298002800D15D
:10135000D4E00379042B00D1D4E0052B00D1DFE0E9
:10136000022B00D1C0E017AB002217921892013275
:101370001A72C2E0704B714A712171481EF00AFE68
:10138000704B714A4B2171481EF004FE00239AE70E
:10139000684A9EE76E4B6F4A27216F481EF0FAFDA0
:1013A000002F52D038002EF095FA1DAB1D971E90DD
:1013B00000221A721DA91AA8FFF73FFF1BAB6A464D
:1013C00003CB03C21A9B12981399149AFFF7E4FBFC
:1013D000002854D101235C40E4B204AB9A88554BF9
:1013E0009A4252D004ABD9882A000C32514B994210
:1013F0005DD0C8097F230B40978CB8424BD2126A4C
:10140000C0001218508883424BD25268DB00D318B8
:10141000049304AA9180002B02D0DA8804ABDA800E
:10142000049B002B45D0002CD4D01F1EB2D01B79BA
:10143000042B0CD0052B18D0022BB1D01DAB0022F1
:101440001D921E9201321A72B4E70020ADE73F6888
:10145000002F08D038002EF03DFA1DAB1D971E90CE
:1014600001221A72A6E70020F7E73B68190008314D
:10147000DA881DAB1D911E9200221A729AE708228B
:1014800004A902A821F03AF92EE7344B344A152179
:1014900034481EF07FFD284B284A712128481EF051
:1014A00079FD284B284A4B2128481EF073FD002364
:1014B000AEE70023029302AB012252429A8013E767
:1014C000264B274A152127481EF064FD1A4B1B4A5C
:1014D00071211B481EF05EFD1A4B1B4A4B211B4815
:1014E0001EF058FD002320E7041E09D02EF0F2F96B
:1014F00017AB1794189000221A72179821B0F0BDFC
:101500000020F5E70468002C08D020002EF0E2F956
:1015100017AB1794189001221A72EEE70020F7E734
:10152000036819000831DA8817AB17911892002266
:101530001A72E2E7FFFF0000E0250310F425031014
:1015400060230310E0260310EC260310D4270310B9
:101550003C34031050340310BC3403102035031006
:1015600038350310AC3503100023FF2282425B4163
:10157000D8B2704710B50400FFF7F6FF002801D07D
:10158000E0B210BD0020FCE7002806DBC30FFF22FD
:10159000002182424B41D8B270470020FCE710B5D1
:1015A0000400FFF7F1FF002801D0E0B210BD0020D9
:1015B000FCE70123002902D102D1FF2800D9002332
:1015C000D8B2704710B50400FFF7F3FF002801D030
:1015D000E0B210BD0020FCE700290ADB012300294E
:1015E00002DD0023D8B270470029FBD1FF28F9D9CA
:1015F000F7E70020F7E710B50400FFF7EDFF00283C
:1016000001D0E0B210BD0020FCE7000010B5041CC2
:10161000002120F081FE002807D00549201C20F081
:1016200073FE002802D0012000E0002010BDC0465B
:1016300000007F4310B5041CFFF7E8FF002804D02A
:10164000201C20F0CFFEC0B210BD0020FCE700003F
:1016500070B504000D000022002320F039F90028A5
:1016600009D00022054B2000290020F029F900288C
:1016700002D0012000E0002070BDC04600E06F40B5
:1016800070B504000D00FFF7E3FF002805D020002F
:10169000290020F079F9C0B270BD0020FCE70000FD
:1016A00010B584B00379DB0628D504880C313E4B95
:1016B0009C4221D0E2097F2323408C8CA2420FD28E
:1016C000096AD2008A1851888B420FD25268DB0017
:1016D000D21803791E2B64D89B003449CB589F46FF
:1016E000334B344A712134481EF054FC334B344A96
:1016F0004B2134481EF04EFC0022EAE70022E8E7C6
:1017000000784FE00068FFF735FF4BE00068FFF717
:1017100046FF47E010685168FFF754FF42E0106849
:101720005168FFF768FF3DE0010000291ED06846C0
:10173000FFF7ACFB6B461B78032B2DD01FD8012B7A
:1017400026D0022B19D102980399FFF754FF29E004
:101750000168EAE701680831E7E70068FFF76AFF18
:1017600020E010685168FFF78BFF1BE01831164B23
:10177000164AFF3116481EF00DFC002012E0042B23
:1017800004D102980399FFF77BFF0BE0002009E0EA
:101790000298FFF74FFF05E002980399FFF712FF49
:1017A00000E0002004B010BDFFFF0000B0360310C1
:1017B000E0250310F425031060230310E026031036
:1017C000EC260310D4270310103603102036031024
:1017D000F8300310F0B59FB00600030020CB2800BE
:1017E000383007AA92CB92C22B00383369D007ABAE
:1017F00092CB92C20379202B32D10DAA0AAB92CBA5
:1018000092C200285DD0130094460DAA190098CA10
:1018100098C10A00634692CB92C2139B002B21D041
:1018200001882A000C328B4B994200D163E0C80931
:101830007F230B40948CA04251D2126AC000121830
:101840005088834251D25268DB00D318059305AA11
:101850009180002B51D0DA8805ABDA80012494E026
:101860000020CAE7039303AB012252429A800398F7
:10187000002826D003AB9A88764B9A4200D1D3E059
:1018800003ABD9880C35734B994200D1DEE0C8090F
:101890007F230B40AA8C904200D3CBE02A6AC00081
:1018A00012185088834200D3CAE05268DB00D31874
:1018B000039303AA9180002B02D0DA8803ABDA806D
:1018C0000398316816AB1690179113AA30CB30C22B
:1018D000002800D1BCE0FFF7E3FE1FB0F0BD5E4B77
:1018E0005E4A71215E481EF055FB5E4B5E4A4B21FD
:1018F0005E481EF04FFB0023A8E7564AACE75C4B5E
:101900005C4A27215C481EF045FB002F52D038006E
:101910002DF0E0FF1BAB1B971C9000221A721BA935
:1019200018A8FFF78AFC19AB6A4603CB03C2189BC1
:1019300013981499159AFFF72FF9002854D1012311
:101940005C40E4B205AB9A88424B9A4251D005AB59
:10195000D9882A000C323F4B99425CD0C8097F23BA
:101960000B40978CB8424AD2126AC00012185088B5
:1019700083424AD25268DB00D318059305AA9180AE
:10198000002B02D0DA8805ABDA80059B002B44D00F
:10199000002CD4D01F1EB2D01B79042B0CD0052BE9
:1019A00018D0022BB1D01BAB00221B921C9201322B
:1019B0001A72B4E70020ADE73F68002F08D0380066
:1019C0002DF088FF1BAB1B971C9001221A72A6E713
:1019D0000020F7E73B6819000831DA881BAB1B9140
:1019E0001C9200221A729AE703AA05AB03CB03C22A
:1019F0003DE7224B224A152122481EF0CBFA164B16
:101A0000164A712116481EF0C5FA164B164A4B218C
:101A100016481EF0BFFA0023AFE70023039303AB81
:101A2000012252429A8022E7144B154A152115488B
:101A30001EF0B0FA084B094A712109481EF0AAFAB3
:101A4000084B094A4B2109481EF0A4FA00232FE74E
:101A5000002042E7FFFF0000E0250310F4250310FB
:101A600060230310E0260310EC260310D427031094
:101A70003C34031050340310BC34031020350310E1
:101A800038350310AC350310F0B5444CA5440500BF
:101A900000242B5D002B05D0C0239B019C4201D26A
:101AA0000134F6E700201CF02DF82CF0F9FA00289C
:101AB00046D02CF0A1FB1EF0B9F90122384968A8E4
:101AC0002AF00CFB061E5AD1364B374A0AA952A8F7
:101AD0002BF0F1F800285BD0344E6E4434493000CE
:101AE000FFF79EFB6B461A0083CE83C2314A324910
:101AF00069440A60CE22D2006A4443CB43C22E48D6
:101B00006844FFF767FE03002C4A282168461FF04F
:101B10008DFB0A226946FFA80C302AF00FFB061E37
:101B200030D1002322002900FFA80C302AF0E1FD6B
:101B3000061E27D1FFA80C302AF0EAFF060021E09C
:101B40001DF096FB002914DB1D4A00231FF03AFC10
:101B5000100019001FF030FF00221A4B1FF041FE49
:101B600002000B00184820F09DFF184820F06AFF83
:101B70009FE7174B174A3F2117481EF00BFA022028
:101B800002F0DCFA73425E41F0B2144B9D44F0BDAA
:101B9000422068442BF09EF89EE7C04674F9FFFF90
:101BA0004037031044370310A0B003107C06000038
:101BB00054370310A02300206C0600005C3703108C
:101BC00040420F0000408F406C2403102C3703105C
:101BD00018220310342203106C2203108C0600001C
:101BE000F0B5DE4657464E464546E0B587B00400A0
:101BF00004AB00221A80059206001036437D002BAC
:101C000004D0237D984600236375BEE1B379002B91
:101C10000BD103695A1C02611B78002B0BDD002BD2
:101C20000CDB337101237371EBE7C04BC04A2521F4
:101C3000C0481EF0AFF90122B271F0E70023F0E7CF
:101C40005E46A2E1B379002B0BD133685A1C326097
:101C50001B78002B0BDD002B0CDB33710123737120
:101C600097E1B24BB24A2521B2481EF093F9012206
:101C7000B271F0E70023F0E7B17900291AD1336897
:101C80005A1C32601B78002B1ADD002B1BDB3371D2
:101C900001237371227D002A00D1B1E1752A14D08D
:101CA000A54B1D78002D00D14FE1AA4200D14BE198
:101CB0000233F6E79D4B9E4A25219E481EF06AF9A5
:101CC0000122B271E1E70023E1E7002363750022FE
:101CD000002024E09D79002D0BD125696F1C276120
:101CE0002D78002D0BDD002D0CDB1D7101255D71A4
:101CF0001CE08E4B8E4A25218E481EF04BF90127A1
:101D00009F71F0E70025F0E7303BDBB20F2B23D8C3
:101D100012011A4392B2002363750130C0B2032846
:101D20000ED823001033657D002DD3D0237D002BEA
:101D300010D0402BE8D92025AB43373BDBB2E5E799
:101D4000002000280AD007B0F0BCBB46B246A94626
:101D5000A046F0BD0220F4E70320F2E7A0239B0198
:101D6000D3189BB28020C000834223D390239B01D1
:101D7000D3189BB28021C9008B4220D30592012148
:101D8000002900D101E1059B7F2B25D9002202A962
:101D90000A703F211940803A0A4302A94A709B0900
:101DA0009AB21F2A5BD84022524213438B70CD1C3B
:101DB000B3468FE09205920D04AB1A80E0E704A9C8
:101DC0000B889B029205920D134380225202944687
:101DD000634405930121D3E7DBB20093636899461E
:101DE000002B03D0A568DB889D420AD06368002BD6
:101DF00000D1CAE0A268511CA1609B18009A1A7217
:101E0000C3E023689B466D0001351B689A464B462C
:101E1000002B0FD080235B029D4211D253461B68DA
:101E20009B682A000932494650469847071E08D049
:101E3000C5800CE0414B424A332142481EF0AAF8CB
:101E4000002753461B685B68494650469847002F59
:101E500001D06760CAE701235A461371F9E73F21B1
:101E6000194080235B420B4302A98B7093090F2B0F
:101E700006D8202252421343CB7003ADB34629E06B
:101E80003F21194080235B420B4302A9CB70120B08
:101E900010235B421A430A714D1DB3461AE0274BCB
:101EA000274A332127481EF075F800230093534634
:101EB0001B685B68390050469847009B002B30D068
:101EC000009B63606368002B04D0A268511CA16072
:101ED0009B181E72013D2E78002E00D1B0E6676877
:101EE000002FEFD0A368FA889342EBD12268914685
:101EF0005B000133019313689A46002FCFD08023F3
:101F00005B02019A9A42D0D253461B689B68093201
:101F100039005046984700900028C8D0019AC280E6
:101F2000CBE701334A461371CAE7C0468037031036
:101F300088370310083803106C3703108031031002
:101F4000903103104C3203105D78002D5AD00023DD
:101F5000637528E02D4B2E4A33212E481EF01AF8C7
:101F60000023009353461B685B683900504698472E
:101F7000009B002B39D0009B63606368002B04D06A
:101F8000A268511CA1609B181D72637D002B00D1BB
:101F900058E6257D00236375A8452AD0002D2DD055
:101FA0005C2D00D168E66768002FE6D0A368FA8848
:101FB0009342E2D1226893465B000133994613684D
:101FC0009A46002FC6D080235B029945C8D253465B
:101FD0001B689B684A460932390050469847009072
:101FE0000028BFD04A46C280C2E701335A46137167
:101FF000C1E76368002B07D00020A4E60220A2E618
:102000000220A0E603209EE604209CE68031031017
:10201000903103104C320310F0B587B00400160065
:102020001F000379002B12D1100039001FF0FCFCB7
:10203000051C20F0FFF932003B001FF033FC0028A4
:102040000BD00E2323712560012007B0F0BD284B73
:10205000284A4C2128481DF09DFF0C9B1B680193CA
:102060000C990C311A0004A8FEF7E2FA049B002B2D
:1020700021D0049A002A27D004AB9B88029202A99F
:102080008B8051424A41D2B21C498C46634459422A
:102090004B41DBB29A421DD1029B002B20D01E2364
:1020A000237102AB9B882380029B002B1AD01E60F9
:1020B0005F600120C9E701330C9A1371002302937A
:1020C000013B02AA9380E7E70D4B0E4A26210E48FA
:1020D0001DF060FF0D4B0E4A16210B481DF05AFFF4
:1020E0000020B2E7064B0B4A262107481DF052FF9D
:1020F00044300310603803106C3903100100FFFFF7
:10210000CC2B0310CC390310D42703103028031034
:10211000503A0310203B03100120002900D000207A
:10212000C0B27047F0B587B0040016001F000579F3
:10213000002D0BD110001900FFF7EEFF051E0BD08C
:102140000A2323712660280007B0F0BD274B284AD8
:102150007E2128481DF01EFF0C9B1B6801930C99E3
:102160000C311A0004A8FEF763FA049B002B21D05F
:10217000049A002A27D004AB9B88029202A98B8084
:1021800051424A41D2B21C498C46634459424B41A8
:10219000DBB29A421DD1029B002BD4D01A232371AB
:1021A00002AB9B882380029B002B18D01E605F60CF
:1021B0000125C8E701330C9A137100230293013BF8
:1021C00002AA9380E7E70D4B0D4A26210D481DF02A
:1021D000E1FE0D4B0D4A16210A481DF0DBFE074BB0
:1021E0000B4A262107481DF0D5FEC0464430031097
:1021F0009C3B03106C3903100100FFFFCC2B031034
:10220000CC390310D427031030280310503A0310A0
:10221000203B03108022120600238018594101231D
:10222000002900D00023D8B270470000F0B587B075
:10223000040016001F000579002D0BD110001900B5
:10224000FFF7E8FF051E0BD00C2323712660280042
:1022500007B0F0BD274B284A672128481DF09AFE99
:102260000C9B1B6801930C990C311A0004A8FEF713
:10227000DFF9049B002B21D0049A002A27D004AB5D
:102280009B88029202A98B8051424A41D2B21C49DA
:102290008C46634459424B41DBB29A421DD1029BAA
:1022A000002BD4D01C23237102AB9B882380029B7C
:1022B000002B18D01E605F600125C8E701330C9A1F
:1022C000137100230293013B02AA9380E7E70D4BB1
:1022D0000D4A26210D481DF05DFE0D4B0D4A1621BD
:1022E0000A481DF057FE074B0B4A262107481DF0F0
:1022F00051FEC04644300310003D03106C390310FA
:102300000100FFFFCC2B0310CC390310D42703109E
:1023100030280310503A0310203B031070B586B0EC
:1023200004000D0001001031437D002B02D0227DFE
:10233000002338E08B79002B0BD103695A1C026112
:102340001B78002B0BDD002B0CDB0B7101234B7179
:10235000EDE7604B604A252160481DF01BFE01221D
:102360008A71F0E70023F0E7012002E0012000E09D
:102370000120002838D03E2B36D800206075581C2C
:10238000C0B2E3181A778B79002B22D10B685A1C44
:102390000A601B78002B22DD002B23DB0B7101234D
:1023A0004B71227D03002F2A01D9392ADED92B2A2D
:1023B000DED02D2A07D02E2A07D0652A07D0452A3D
:1023C000D2D00020D5E70120D3E70120D1E70120BA
:1023D000CFE7404B404A252140481DF0DBFD01225C
:1023E0008A71D9E70023D9E7E31800221A77210080
:1023F0001C3102AE3000FEF749FD3378032B2AD0A2
:1024000014D8012B42D0022B0ED102AB1B78022B29
:1024100036D1A3690093049A059B2800FFF706FFB5
:10242000002854D0002613E0032611E0042B0ED11F
:1024300002AB1E78042E42D1A3690093049A059B37
:102440002800FFF7E9FD002802D0002600E003265F
:10245000300006B070BD02AB1B78032B0AD1A36914
:102460000093049A059B2800FFF75CFE00282CD0FF
:102470000026EDE71A4B1B4A58211B481DF08AFD28
:102480001A4B1B4A532118481DF084FD02AB1B78E0
:10249000012B07D1049B2E79002E09D10E222A711F
:1024A0002B60D5E7134B144A5D210F481DF072FDD8
:1024B000ED21124B124A490012481DF06BFD124BE0
:1024C000124A632108481DF065FD0426C0E7042672
:1024D000BEE7C04680370310883703100838031062
:1024E000583E0310803E0310DC330310E43E03101B
:1024F000083F03106C3F0310883F03104430031063
:10250000C83F0310F8300310D4400310F04003100C
:1025100070B504000E0022001032617D002928D021
:10252000227D002A3FD0202A09D8092A07D3093A58
:10253000D2B2012191400A00B5490A423AD10122A2
:1025400022730025002D00D060E122001032617D51
:10255000002932D0227D7B2A00D952E15B2A46D362
:102560005B3AD1B2202900D94BE18A00A9498A58A7
:102570009746917900290BD12169481C206109787F
:1025800000290BDD00290CDB117101215171C7E716
:10259000A14BA24A2521A2481DF0FCFC012090710C
:1025A000F0E70021F0E7227B002A01D10125C9E7ED
:1025B0000225C7E700226275ADE7917900290BD1AA
:1025C0002169481C2061097800290BDD00290CDBFA
:1025D000117101215171BDE78F4B904A252190481F
:1025E0001DF0D8FC01209071F0E70021F0E7222ACD
:1025F00002D0272A00D004E10023A3606368002BE7
:102600003FD02000FFF7ECFA051E00D0FEE03100BD
:102610002000FEF725FBF9E03279002A10D1402294
:102620003271002E05D0002232807280013A328051
:10263000728000223100200000F0A6FC0500E5E0D9
:102640008E21784B784A890078481DF0A3FC3279B6
:10265000002A10D120223271002E05D000223280B3
:102660007280013A3280728000223100200000F036
:102670007FFE0500CAE06B4B6D4A6E496B481DF04A
:1026800089FC2568286803681B682821984700286A
:1026900003D01F23C3801E3B8380002801D06060CD
:1026A000AFE701232B71FAE73379002B05D106231D
:1026B0003371053B3370604B1BE0D421594B5F4AAB
:1026C000FF315A481DF066FC534B544A25215448AB
:1026D0001DF060FC012090711DE01171012151710C
:1026E000227D002A1BD019788A421AD10133002298
:1026F00062751D78002D00D188E022001032617DC6
:102700000029EDD191790029DED12169481C206191
:1027100009780029DEDD0029DFDA0021DDE7022566
:1027200074E0032572E03379002B05D10623337161
:1027300000233370424B1BE0D4213A4B3F4AFF3118
:102740003A481DF027FC344B344A252134481DF00B
:1027500021FC012090711CE0117101215171227D39
:10276000002A1AD019788A4219D1013300226275E1
:102770001D78002D4AD022001032617D0029EED153
:1027800091790029DFD12169481C2061097800294D
:10279000DFDD0029E0DA0021DEE7022536E003254F
:1027A00034E0284B14E01C4B1C4A25211C481DF02A
:1027B000F1FB012090711CE0117101215171227D0A
:1027C000002A1AD019788A4219D101330022627581
:1027D0001D78002D1AD022001032617D0029EED123
:1027E00091790029DFD12169481C206109780029ED
:1027F000DFDD0029E0DA0021DEE7022506E003251F
:1028000004E031002000FFF789FD0500280070BDBD
:1028100013008000484203108037031088370310EC
:10282000083803104430031040410310F8300310FF
:10283000A04103104602000030410310044203107F
:10284000785C031038410310F0B5D6464F46464633
:10285000C0B59AB00600009101AB1A8038239946A2
:1028600081440300383305D007000C3703689A46CB
:1028700000250CE0042075E053461B685B68504659
:10288000984700236360238063800135ADB2BB8C21
:10289000AB4207D9EC003B6A9C466444616800295E
:1028A000EAD1EEE70023BB84013B3B85396AB9429C
:1028B00007D053461B685B68504698473F62042325
:1028C000FB840023337134000834356805E00B685D
:1028D00023602B685B682800984721680029F6D19F
:1028E000320038320023137103A8039643608360DB
:1028F0000373009A026143758375866101AB5B784F
:1029000000224946FFF704FE002808D103AB1B7DD7
:10291000002B04D04B461B791B0700D50320051C58
:102920000499002904D0039B186803685B689847E2
:1029300034000C3433689846338E002B18D1216A4A
:10294000A1420ED0A28CE38C9A420AD0D200434618
:102950001B689B6840469847206200281DD0A38CC6
:10296000E384281C1AB0E0BCBA46B146A846F0BDC4
:102970000D4A94466344DF00236A9C4667447A8884
:10298000D20043461B689B687968404698470028F8
:10299000D5D078607B883B80D1E7044B044A9221F4
:1029A00004481DF0F7FAC046FFFFFF1FCC4203109A
:1029B000E04203106023031010B582B00400080049
:1029C000FEF712FCFEF712FC010001AB0A225A705E
:1029D0001B886A461380009A2000FFF735FF02B07B
:1029E00010BD000030B59B4CA5449B4B9B4A1A6020
:1029F00000201BF087F82BF053FB002817D02BF09A
:102A0000FBFB012296499748684429F067FB0028A0
:102A10002CD1954B954A96496944964868442AF0CA
:102A20004AF9002800D076E00124012523E01CF0BB
:102A30001FFC002914DB904A00231EF0C3FC100089
:102A400019001EF0B9FF00228C4B1EF0CAFE0200D6
:102A50000B008B4820F026F88A481FF0F3FFCEE7E2
:102A6000894B8A4A3F218A481DF094FA022001F0DE
:102A700065FB00240125002C01D0002D51D1C0227E
:102A80009201002104A81FF039FE00230393002CBB
:102A900001D0002D54D1704B1968C022920104A8B6
:102AA0001FF02CFE04AB00937A48FEF773F86946DA
:102AB000FFF782FF041CC3B2002B00D078E07649F8
:102AC000764B6B441800FEF79EFB6C460C22734B52
:102AD0006B44190020001FF011FE6E4B704A6A44CF
:102AE0001360704B6B4407CC07C36D486844FEF716
:102AF000AFFB03226C492CF01BFF002800D085E0BF
:102B00006A4B01221A7000225549002029F0E6FA8A
:102B1000674B9D4430BD032001F010FB01240025CC
:102B2000A9E70122634969446348684429F006FB28
:102B30000028A4D00828A2D0032001F0FFFA9EE7C5
:102B4000C02203AB920104A95B48684429F0A9FCA8
:102B500000280AD0032001F0F1FA3F4B1968C02287
:102B6000920104A81FF0CAFD9CE71CF081FB00291C
:102B700018DB414A00231EF025FC100019001EF04E
:102B80001BFF00223D4B1EF02CFE02000B003C48B8
:102B90001FF088FF039949481FF084FF04A8FDF740
:102BA0007FFC7FE7384B394A3F2139481DF0F2F965
:102BB0001CF05EFB00291DDB2F4A00231EF002FCE7
:102BC000100019001EF0F8FE00222C4B1EF009FE2A
:102BD00002000B002A481FF065FFE4B2052C0FD855
:102BE000A400374BE15837481FF05CFF032001F089
:102BF000E5FA64E7244B254A3F2125481DF0CAF930
:102C0000314B324A452132481DF0C4F9314C6C44F5
:102C100021492000FEF7F7FA6B461A0023CC23C2A5
:102C20001C4A2D4969440A602C4A6A4413CB13C2DA
:102C300029486844FEF70CFB072229492CF078FE4E
:102C4000002803D1194B02221A705CE7174B0022AF
:102C50001A7058E774C9FFFFC411002000D01F107C
:102C6000403703108831000044370310A0B0031030
:102C7000103000003031000040420F0000408F4013
:102C80006C2403102C370310182203103422031075
:102C90006C220310A0230020C444031070360000EF
:102CA0005036000054360000CC4403101E91022020
:102CB0008C3600002A300000F03300008C430310F3
:102CC000A8110020AC440310B0430310F4430310D8
:102CD0003C4403107C36000060360000643600007F
:102CE000D044031000B583B01AF02EFF1FF0E6FEAB
:102CF00098481CF0EDF96846FDF71AFB964A002348
:102D0000009801991EF05EFB100019001EF054FEA1
:102D10000022924B1EF065FD02000B0090481FF050
:102D2000C1FE032203218F481FF0BCFE01F07AF997
:102D3000FFF758FE0BF0FAF88B4B1B78002B26D0D0
:102D4000012B00D188E0022B00D1A1E002F024FA8F
:102D5000002800D1E1E06846FDF7EAFA7E4A002348
:102D6000009801991EF02EFB100019001EF024FEA1
:102D700000227A4B1EF035FD02000B0078481FF050
:102D800091FE7A481FF05EFE24F0A4FCFEE7684640
:102D9000FDF7CEFA704A0023009801991EF012FB4D
:102DA000100019001EF008FE00226C4B1EF019FDE9
:102DB00002000B006A481FF075FE6D481FF042FECE
:102DC00001F060FF03F0F4FC07F00EF804F03EFFA2
:102DD00002F0C6FE03F04CFB00281CD16846FDF74C
:102DE000A7FA5D4A0023009801991EF0EBFA100043
:102DF00019001EF0E1FD0022584B1EF0F2FC02000B
:102E00000B0057481FF04EFE5A481FF01BFE0120D2
:102E100001F020FA9AE705F075FC002896D1684683
:102E2000FDF786FA4C4A0023009801991EF0CAFA71
:102E3000100019001EF0C0FD0022484B1EF0D1FC0E
:102E400002000B0046481FF02DFE4B481FF0FAFD14
:102E5000022001F0FFF979E76846FDF769FA3E4A7A
:102E60000023009801991EF0ADFA100019001EF021
:102E7000A3FD0022394B1EF0B4FC02000B003848C1
:102E80001FF010FE3D481FF0DDFD02F069FE5DE71A
:102E90006846FDF74DFA304A0023009801991EF06C
:102EA00091FA100019001EF087FD00222B4B1EF036
:102EB00098FC02000B002A481FF0F4FD30481FF078
:102EC000C1FD01F0DFFE03F073FC04F0BFFE02F071
:102ED00047FE18F0DBF903F0CBFA002800D035E705
:102EE0006846FDF725FA1C4A0023009801991EF058
:102EF00069FA100019001EF05FFD0022174B1EF04A
:102F000070FC02000B0016481FF0CCFD19481FF0A2
:102F100099FD012001F09EF918E76846FDF708FACF
:102F20000D4A0023009801991EF04CFA1000190078
:102F30001EF042FD0022094B1EF053FC02000B0064
:102F400007481FF0AFFD0F481FF07CFD032001F084
:102F500081F900E78813000040420F0000408F40D5
:102F60006C240310D84403101E9102202445031042
:102F7000F0440310EC240310F82403100845031058
:102F80001445031008250310F0B587B004000F00A6
:102F90006A46D370DBB2002B00D1DEE103001033B0
:102FA000427D002A1FD0237D5B2B36D10023637521
:102FB00023001033627D002A35D0237D002B4CD0B6
:102FC000202B09D8092B07D3093BDBB201229A40F9
:102FD0001300BA4A134247D101232373002000286B
:102FE00045D007B0F0BD9A79002A0BD10269511C77
:102FF00001611278002A0BDD002A0CDB1A71012214
:103000005A71D0E7AE4BAF4A2521AF481CF0C2FF42
:1030100001219971F0E70022F0E7AC4BAC4A9D2109
:10302000AC481CF0B7FF9A79002A0BD12269511CD9
:1030300021611278002A0BDD002A0CDB1A710122B3
:103040005A71BAE79E4B9F4A25219F481CF0A2FF68
:1030500001219971F0E70022F0E7237B002B01D1D9
:103060000120BCE70220BAE700236375A0E7230034
:103070001033627D002A07D0237D5D2B1ED10023F3
:103080006375013301931BE09A79002A0BD1226901
:10309000511C21611278002A0BDD002A0CDB1A7109
:1030A00001225A71E8E7864B864A252186481CF0A2
:1030B00071FF01219971F0E70022F0E700230193ED
:1030C000019B002B79D08CE70133337100230293ED
:1030D000013B02AA938015E07F4B804A262180485D
:1030E0001CF058FF04AA9288029302A98A805942D0
:1030F0004B41DBB27B498C46624451424A41D2B2D9
:1031000093426FD1029D002D0CD0082202A904A881
:103110001FF0F4FA7A88744B9A4269D104AB9B8809
:103120003B807B80002D00D119E16B46DB78002BC2
:1031300000D184E0013BDBB2002229002000FFF730
:10314000E7F9002800D04CE723001033627D002A05
:103150007BD0227D002A00D191E0202A09D8092ABB
:1031600007D3093AD2B201239340544A134200D004
:103170008CE001232373002800D032E723001033B2
:10318000627D002A00D184E0237D5D2B00D0C6E063
:10319000002363750133002B00D022E72200103298
:1031A000617D002900D1BCE0227D2C2A02D10023C0
:1031B00063750133002B00D1CDE0A66931000C31DD
:1031C000326804A8FDF734FA049B002B00D17BE79A
:1031D000049B002B00D17FE784D000221A71013AB2
:1031E000DA807FE7414B424A16213D481CF0D2FE6F
:1031F00033000C333C498A421FD0D1097F20024062
:10320000988C81420DD21B6AC90059184B889A428A
:103210000DD24B68D2009A1804AB9B88D3807B8078
:1032200080E7344B344A712134481CF0B3FE344BF0
:10323000344A4B212A481CF0ADFE0022ECE7324B09
:10324000324A132132481CF0A5FE9A79002A0BD18C
:103250002269511C21611278002A0BDD002A0CDB47
:103260001A7101225A7174E7154B164A2521164826
:103270001CF090FE01219971F0E70022F0E7237B1A
:10328000002B01D1012076E7022074E7002363754B
:103290005AE79A79002A0BD12269511C21611278D0
:1032A000002A37DD002A38DB1A7101225A716BE7D8
:1032B000034B044A252104481CF06CFE13008000D7
:1032C0008037031088370310083803103445031083
:1032D00048450310AC460310CC2B0310CC39031027
:1032E000D42703100100FFFFFFFF00003028031068
:1032F000002B0310E0250310F425031060230310B6
:10330000E0260310EC2603100C47031018470310A7
:10331000A447031001219971C4E70022C4E7019B6F
:1033200039E7917900290BD12169481C206109787E
:1033300000290BDD00290CDB11710121517133E7EC
:10334000084B094A252109481CF024FE01209071F0
:10335000F0E70021F0E7032043E6052041E60420E2
:103360003FE6C04680370310883703100838031043
:10337000F0B5DE4657464E464546E0B59FB00400E0
:1033800007916A46D376DBB2002B01D100F09AFD9B
:1033900003001033427D002A27D0237D7B2B3ED1B2
:1033A0000023637523001033627D002A3DD0237D06
:1033B000002B54D0202B09D8092B07D3093BDBB2B3
:1033C00001229A401300B74A134251D101232373BB
:1033D00000230593059B002B4DD005981FB0F0BC32
:1033E000BB46B246A946A046F0BD9A79002A0BD149
:1033F0000269511C01611278002A0BDD002A0CDBE6
:103400001A7101225A71C8E7A74BA84A2521A8487A
:103410001CF0C0FD01219971F0E70022F0E7A54BF7
:10342000A54AF321A5481CF0B5FD9A79002A0BD1D5
:103430002269511C21611278002A0BDD002A0CDB65
:103440001A7101225A71B2E7974B984A2521984880
:103450001CF0A0FD01219971F0E70022F0E7237B29
:10346000002B02D101230593B4E702230593B1E7B2
:103470000023637596E723001033627D002A0CD089
:10348000237D7D2B23D10023637501330493049B9B
:10349000002B01D100F087FC9FE79A79002A0BD11D
:1034A0002269511C21611278002A0BDD002A0CDBF5
:1034B0001A7101225A71E3E77B4B7C4A25217C4833
:1034C0001CF068FD01219971F0E70022F0E700236C
:1034D0000493DCE72568286803681B68282198475F
:1034E000002803D01F23C3801E3B8380002802D006
:1034F000606000F05FFC01232B71F9E79A79002AE4
:103500000CD12269511C21611278002A0CDD002A9D
:103510000DDB1A7101225A7100F053FC624B634AB1
:10352000252163481CF036FD01219971EFE7002247
:10353000EFE743469B79002B0DD123695A1C22618A
:103540001B78002B0DDD002B0FDB4246137101238E
:10355000537100F045FC544B544A252154481CF04B
:1035600019FD012241468A71EDE70023EDE7E221D2
:10357000534B544A490051481CF00CFD012303935E
:1035800004E00123039301E0049B0393039B002BBE
:1035900000D182E0474656E001230393F6E7226814
:1035A00091465B000133984613689B46002E11D06C
:1035B00080235B02984513D25B461B689B6842469A
:1035C0000932310058469847824600280AD04246C0
:1035D000C2800DE03C4B3D4A33213D481CF0DAFCF3
:1035E00000239A465B461B685B6831005846984743
:1035F0005346002B02D0534663602DE001334A4608
:103600001371F8E7BB79002B0BD13B685A1C3A6069
:103610001B78002B0BDD002B0CDB3B7101237B7136
:1036200025E0214B214A252121481CF0B3FC012231
:10363000BA71F0E70023F0E7039B02E0039B00E090
:10364000049B002B24D0002363756668002E03D0F2
:10365000A368F2889342A2D06368002B04D0A268CA
:10366000511CA1609B181D72637D002BCAD0257D63
:103670002F2D01D9392DDFD95E2D01D97A2DDDD934
:10368000402DDDD95A2D01D9049BDAE7039BD8E7F9
:103690006368002B03D005981FE003201DE0042081
:1036A0001BE0C046130080008037031088370310EA
:1036B000083803100C48031020480310AC460310D0
:1036C00000950310884903108031031090310310D6
:1036D0004C3203102000FEF783FA002800D0DAE312
:1036E00023001033627D002A20D0237D002B37D0A9
:1036F000202B09D8092B07D3093BDBB201229A40C2
:103700001300C64A134232D101232373002800D08C
:10371000C4E323001033627D002A2BD0237D3A2B93
:1037200042D100236375013303933FE09A79002A65
:103730000BD12269511C21611278002A0BDD002A6D
:103740000CDB1A7101225A71CFE7B54BB54A25211E
:10375000B5481CF01FFC01219971F0E70022F0E749
:10376000237B002B01D10120D0E70220CEE70023EC
:103770006375B5E79A79002A0BD12269511C216142
:103780001278002A0BDD002A0CDB1A7101225A7113
:10379000C4E7A34BA34A2521A3481CF0FBFB01214E
:1037A0009971F0E70022F0E7049B0393039B002B41
:1037B00000D176E36368002B3DD0A2689446634451
:1037C00000221A72636808330CA90C93A3684B603B
:1037D0000A7215AE3000FDF7D3F9A7690FAB1A00D6
:1037E00023CE23C223CB23C2129B002B29D0079BBD
:1037F00019883A000C328D4B994200D19CE0C809DF
:103800007F230B40968CB04200D389E0126AC0003F
:1038100012185088834200D388E05268DB00D31826
:103820000A930AAA9180002B00D187E0DA880AABBC
:10383000DA80039ECCE07E4B7E4A4D217E481CF010
:10384000A9FB089308AB012252429A80089E002EE1
:1038500026D008AB9A88754B9A4200D12BE108AB71
:10386000D9880C37714B994200D136E1C8097F23C2
:103870000B40BA8C904200D323E13A6AC000121880
:103880005088834200D322E15268DB00D3180893AA
:1038900008AA9180002B02D0DA8808ABDA80089E53
:1038A000002E00D11BE1A1693000FDF75BF86B46EB
:1038B000DB7E002B00D1D6E1013BDBB200223100E0
:1038C0002000FEF725FE002800D0F7E1230010338A
:1038D000627D002A00D1CCE1237D002B00D1E2E102
:1038E000202B0AD8092B08D3093BDBB201229A40CE
:1038F00013004A4A134200D0DCE10123237300285D
:1039000000D0D2E223001033627D002A00D1D8E13A
:10391000237D7D2B00D01BE200236375039B18E2FF
:10392000464B474A712147481CF034FB464B474AF7
:103930004B2147481CF02EFB002371E73B4A76E7FA
:10394000444B454A272145481CF024FB002D54D008
:1039500028002BF0BFFF1BAB1B951C9000221A7296
:103960001BA918A8FDF769FC19AB6A4603CB03C273
:10397000189B12981399149AFDF70EF9002800D09D
:1039800078E001235E40F6B20AAB9A88274B9A4250
:1039900076D00AABD9883A000C32244B994200D138
:1039A00080E0C8097F230B40958CA8426ED2126A32
:1039B000C0001218508883426ED25268DB00D318C0
:1039C0000A930AAA9180002B02D0DA880AABDA8027
:1039D0000A9B002B68D0002ED3D01D1EB0D01B79BF
:1039E000042B0CD0052B3BD0022BAFD01BAB0022FD
:1039F0001B921C9201321A72B2E70020ABE72D68CD
:103A0000002D08D028002BF065FF1BAB1B951C90E8
:103A100001221A72A4E70020F7E7C04613008000D5
:103A2000803703108837031008380310FFFF0000A9
:103A300030300310504A0310D02F0310E02503103C
:103A4000F425031060230310E0260310EC26031076
:103A5000D42703103C34031050340310BC3403103B
:103A60002B6819000831DA881BAB1B911C920022CD
:103A70001A7275E708220AA908A81EF03FFEE5E6BB
:103A80009D4B9E4A15219E481CF084FA9D4B9E4AF0
:103A900071219E481CF07EFA9D4B9E4A4B219E4808
:103AA0001CF078FA00238BE70023089308AB01226F
:103AB00052429A80CAE6904B904A152190481CF0D9
:103AC00069FA904B904A712190481CF063FA904B30
:103AD000904A4B2190481CF05DFA0023D7E6A76975
:103AE00039000C313A6812A8FCF7A2FD129B002B9A
:103AF00063D0129B002B69D003D000221A71013AC7
:103B0000DA8012AA9288089308A98A8059424B4108
:103B1000DBB282498C46624451424A41D2B293425E
:103B20005AD1089B9846002B3ED039000C313A6898
:103B300012A8FCF77DFD129B002B53D0129B002B8B
:103B400059D003D000221A71013ADA8012AA928861
:103B50000A930AA98A8059424B41DBB26F498C46CD
:103B6000624451424A41D2B293424AD10A9B994699
:103B7000002B76D00FAA08AB03CB03C20822190092
:103B800012A81EF0BBFD0F9B002B40D012AA9288FA
:103B9000DA80079B5B8862498B423ED10FAB9B88E2
:103BA00007990B804A804E464346002B00D184E0A3
:103BB00041462000FDF754F879E601333B710023BC
:103BC000089308AB012252429A80AAE7554B564A05
:103BD000262151481CF0DEF9544B554A16214E4817
:103BE0001CF0D8F901333B7100230A930AAB012280
:103BF00052429A80BAE74B4B4B4A262146481CF06A
:103C0000C9F94A4B4A4A162143481CF0C3F9454BAF
:103C1000484A262140481CF0BDF90C378B420ED093
:103C2000D8097F263340B98C88420ED2396AC00049
:103C30000918488883420ED24E68DB00F6180FAB95
:103C40009B88F380079B5A80ADE72E4B2E4A71214B
:103C50002E481CF09FF92E4B2E4A4B212E481CF06B
:103C600099F99846A0E7344B344A132134481CF0A4
:103C700091F99A79002A0BD12269511C216112789D
:103C8000002A0BDD002A0CDB1A7101225A7123E68F
:103C90002C4B2D4A25212D481CF07CF901219971CE
:103CA000F0E70022F0E7237B002B01D1012026E67C
:103CB000022024E60023637508E604200590FFF740
:103CC0008CFB9A79002A0BD12269511C2161127850
:103CD000002A0BDD002A0CDB1A7101225A7117E64B
:103CE000184B194A252119481CF054F901219971E2
:103CF000F0E70022F0E7C046203503103835031006
:103D0000AC350310E0250310F425031060230310E5
:103D1000E0260310EC260310D42703100100FFFF58
:103D2000FFFF0000CC2B0310CC3903103028031008
:103D3000002B0310DC2B03100C4703101847031053
:103D4000A447031080370310883703100838031086
:103D5000049B002B00D0ABE022001032617D0029D3
:103D60005BD0227D2C2A02D100236375039B002B9C
:103D700000D1A0E023001033627D002A67D0237DAC
:103D8000002B7ED0202B09D8092B07D3093BDBB2AF
:103D900001229A4013004D4A134279D10123237323
:103DA000002800D08BE00023A3606368002B01D1C2
:103DB000FFF790FB23001033627D002A01D1FFF74B
:103DC0009DFB237D272B00D184E4222B00D181E4AD
:103DD00010239846A044637D002B01D1FFF7A9FB77
:103DE000257D002D01D1FFF7C2FB2F2D03D9392DE1
:103DF00001D8FFF7C3FB5E2D03D97A2D01D8FFF759
:103E0000C0FB402D01D8FFF7BFFB5A2D01D8FFF7AB
:103E1000C3FB049B0393FFF7B9FB917900290BD1F6
:103E200021694E1C2661097800290BDD00290CDB75
:103E300011710121517194E7254B264A252126480D
:103E40001CF0A8F801269671F0E70021F0E79A79B6
:103E5000002A0BD12269511C21611278002A0BDD46
:103E6000002A0CDB1A7101225A7188E7184B194A93
:103E7000252119481CF08EF801219971F0E70022E4
:103E8000F0E7237B002B01D1012089E7022087E79F
:103E9000002363756EE70590FFF79FFA0590FFF723
:103EA0009CFA03230593FFF798FA0590FFF795FA1C
:103EB0000590FFF792FA03230593FFF78EFA05901A
:103EC000FFF78BFA05230593FFF787FA13008000AD
:103ED00080370310883703100838031010B50249E3
:103EE0000120FCF73BFA10BDFFFF000010B50400F5
:103EF0001BF0BEF9002903DB20606160200010BDCB
:103F0000024B034A3F2103481CF044F818220310D7
:103F1000342203106C22031070B518E001210E4802
:103F20001BF0CAFF0D4B01221A701BF07FFFD0253A
:103F30002D068026B6046E61FA24A400200023F02A
:103F400087FD1BF073FFAE61200023F081FD034B62
:103F50001B78002BE2D0E8E7881300001C910220B8
:103F6000F0B5C64600B5002400E000242B4B1D78B8
:103F7000002D1ED0A54214D9D0252D0640236B61FB
:103F800080266E61FA2023F063FDAE61FA2023F0F3
:103F90005FFD0134E4B2214B1B780533A342E4DB1F
:103FA000E4E7D0231B0680225A61FA2023F050FD5B
:103FB000EFE71B4B1E78002E24D0A64218D9D0263E
:103FC000360640239846736180277761FA2023F0F4
:103FD0003FFD4346B361B761FA2023F039FD013458
:103FE000E4B20F4B1B780533A342BFDA2C00BDE7C8
:103FF000D0231B0640225A6140325A61FA2023F036
:1040000027FDECE7D0231B0640229A6140325A611B
:10401000002023F0BBFD3400A8E7C0461B9102201E
:104020001A91022010B582B0354B00221A70192067
:1040300019F0BAFED024240680239B0463626361D6
:10404000072019F0B1FE802363626361062019F036
:10405000ABFE4023636263612A4B0193012300930B
:10406000002380222849294823F08FF98022284BF9
:10407000019302230093002352002649264823F08F
:1040800084F91BF0F5F800292DDB244A00231DF0EC
:1040900099F9100019001DF08FFC0022204B1DF033
:1040A000A0FB02000B001F481EF0FCFC1E481EF087
:1040B000C9FC1BF0DDF800291BDB184A00231DF0AA
:1040C00081F9100019001DF077FC0022144B1DF03F
:1040D00088FB02000B0013481EF0E4FC13481EF09E
:1040E000B1FC02B010BD124B124A3F2112481BF026
:1040F00051FF0F4B0F4A3F210F481BF04BFFC046AB
:104100001C9102209C230020C44B0310193F001077
:1041100098230020D04B0310613F001040420F0055
:1041200000408F406C240310E04B0310F84B031049
:1041300018220310342203106C22031010B504005F
:104140001BF096F8002921DB134A00231DF03AF9F1
:10415000100019001DF030FC0022104B1DF041FB37
:1041600002000B000E481EF09DFC21000D481EF0C1
:1041700099FC0D4B1B78002B01D0002C05D10A4B6C
:104180001C700A4B186823F053FA10BD084B094AFB
:104190003F2109481BF0FEFE40420F0000408F40C7
:1041A0006C240310144C03101B9102209823002050
:1041B00018220310342203106C220310F0B583B0D0
:1041C00005006846FFF792FE1B4A002300980199FC
:1041D0001DF0F8F8100019001DF0EEFB0022174B3F
:1041E0001DF0FFFA02000B0015481EF05BFC2900D1
:1041F00014481EF057FC002400E00024AC4212D208
:10420000D02636064023736180277761FA201BF0A1
:1042100085F8B761FA201BF081F80134E4B26B1D18
:10422000A342EADBEAE7D0231B0680225A61FA2088
:104230001BF074F8F1E7C04640420F0000408F4089
:104240006C240310204C0310014B18787047C046B3
:104250001B910220F0B5C64600B582B00600684644
:10426000FFF744FE1D4A0023009801991DF0AAF8AB
:10427000100019001DF0A0FB0022194B1DF0B1FA2F
:1042800002000B0017481EF00DFC310016481EF00E
:1042900009FC002400E00024B44215D2D0252D06EC
:1042A000402398466B6180276F61FA201BF036F837
:1042B0004346AB61AF61FA201BF030F80134E4B241
:1042C000731DA342E7DBE7E7D0231B0640225A61B8
:1042D00040325A61FA201BF021F8EFE740420F000C
:1042E00000408F406C240310384C0310F0B5CE46CC
:1042F000474680B5A5B0282200211AA81EF0F8F97B
:104300006022002102A81EF0F3F9002398460193D1
:10431000009300279946B4E02C00082C0EDC651CA5
:104320001AABAA00D058A200D05000211DF0DEFF29
:104330000028F1D0A4001AABE650EDE72396002444
:10434000002005E0A2001AABD1581DF083FF013414
:10435000092CF7DD5A491DF082FF061C7C1CA4B213
:10436000E1231B019F421AD2564B1F68564B196816
:10437000381C1DF0C3FF002805D05449381C1DF01F
:10438000D3FF00283BD1524B1968381C1DF0CCFFDD
:1043900000283DD1009B002B5DD01F0030E04B4634
:1043A000581CC0B29F0002ABFE5018211CF0CCFF7D
:1043B000CBB29946002401E00134E4B2172C0BD8AB
:1043C000A30002AA985800211DF090FF0028F3D006
:1043D000A30002AA9E50EFE700240020172C07D864
:1043E000A30002AA99581DF035FF0134E4B2F5E7A5
:1043F00038491DF034FF334B18600024B4E701271F
:104400004346002B05D004F0FBFB002398460AE04E
:104410000027002F02D04346002B1ED0002F02D1D0
:10442000009B002B1DD1274B1D682B4B1968281CA6
:104430001DF064FF002817D02449281C1DF074FFCC
:10444000002833D0019B002B32D104F067F800F034
:104450008BFE01250EE0009FDBE704F05FF8B84615
:10446000E1E704F067F9DEE70025002D02D1019BAA
:10447000002B1FD1FA20800023F0EAFA0195009763
:104480002700164B04221A60154B1B68DB05FBD571
:10449000134B586880B21DF04CFF12491DF0F5FE19
:1044A00011491DF0D7FE061C002436E70025DCE785
:1044B000019DDAE704F03EF900F062FEDAE7C0465B
:1044C0000000204164280020D01100200000A040FE
:1044D000C81100200000C041CC11002000E00440C1
:1044E00000C00440499A103CCDCC4C3F014B1868A9
:1044F0007047C04664280020704710B504000800CB
:10450000FFF7FAFF20600A236360093B2372200053
:1045100010BD704710B504000800FFF7FAFF2060D7
:104520000C2363600B3B2372200010BD704710B555
:1045300004000800FFF7FAFF20600F2363600E3BC2
:104540002372200010BD0120704710B5041CFFF736
:10455000FAFF002803D0201C1DF06CFF10BD0020C6
:104560000021FBE70120704770B505000C00FFF744
:10457000F9FF002804D0280021001DF011FA70BDB9
:1045800000200021FBE70120704770B505000C00FA
:10459000FFF7F9FF002804D0280021001DF00CFAD5
:1045A00070BD00200021FBE70120704770B50400BA
:1045B0000D00FFF7F9FF002802D02000290070BD90
:1045C00000200021FBE7000010B584B00379DB0672
:1045D00028D504880C313F4B9C4221D0E2097F232F
:1045E00023408C8CA2420FD2096AD2008A185188CB
:1045F0008B420FD25268DB00D21803791E2B65D88C
:104600009B003549CB589F46344B354A712135487C
:104610001BF0C0FC344B354A4B2135481BF0BAFC2B
:104620000022EAE70022E8E700781DF06DF94FE08C
:1046300000681DF069F94BE000681DF069F947E07A
:10464000106851681DF0B8F942E0106851681DF01B
:10465000A7F93DE0010000291CD06846FCF716FCD4
:104660006B461B78032B2CD01DD8012B25D0022B99
:1046700016D102980399FFF777FF29E00168EAE76E
:1046800001680831E7E700681DF0D4FE20E01068FB
:1046900051681DE0174B184AEA3118481BF07AFCA4
:1046A0000020002114E0042B04D102980399FFF7A5
:1046B0007DFF0DE0002000210AE00298FFF745FF92
:1046C00006E002980399FFF760FF01E00020002157
:1046D00004B010BDFFFF0000D84C0310E02503100C
:1046E000F425031060230310E0260310EC260310CA
:1046F000D427031010360310504C0310F830031069
:10470000F0B59FB00600030020CB2800383007AA80
:1047100092CB92C22B00383369D007AB92CB92C2B6
:104720000379202B32D10DAA0AAB92CB92C200287A
:104730005DD0130094460DAA190098CA98C10A00CA
:10474000634692CB92C2139B002B21D001882A0092
:104750000C328C4B994200D163E0C8097F230B4097
:10476000948CA04251D2126AC00012185088834221
:1047700051D25268DB00D318059305AA9180002B13
:1047800051D0DA8805ABDA80012494E00020CAE732
:10479000039303AB012252429A800398002826D04B
:1047A00003AB9A88774B9A4200D1D3E003ABD98808
:1047B0000C35744B994200D1DEE0C8097F230B40D1
:1047C000AA8C904200D3CBE02A6AC000121850880D
:1047D000834200D3CAE05268DB00D318039303AAD4
:1047E0009180002B02D0DA8803ABDA80039831681D
:1047F00016AB1690179113AA30CB30C2002800D107
:10480000BCE0FFF7E1FE1FB0F0BD5F4B5F4A7121D6
:104810005F481BF0BFFB5F4B5F4A4B215F481BF0BB
:10482000B9FB0023A8E7574AACE75D4B5D4A272157
:104830005D481BF0AFFB002F52D038002BF04AF838
:104840001BAB1B971C9000221A721BA918A8FCF71F
:10485000F4FC19AB6A4603CB03C2189B1398149956
:10486000159AFCF799F9002854D101235C40E4B271
:1048700005AB9A88434B9A4251D005ABD9882A00A0
:104880000C32404B99425CD0C8097F230B40978C77
:10489000B8424AD2126AC0001218508883424AD2E3
:1048A0005268DB00D318059305AA9180002B02D033
:1048B000DA8805ABDA80059B002B44D0002CD4D0DD
:1048C0001F1EB2D01B79042B0CD0052B18D0022B45
:1048D000B1D01BAB00221B921C9201321A72B4E7BA
:1048E0000020ADE73F68002F08D038002AF0F2FF23
:1048F0001BAB1B971C9001221A72A6E70020F7E75A
:104900003B6819000831DA881BAB1B911C9200220E
:104910001A729AE703AA05AB03CB03C23DE7234B08
:10492000234A152123481BF035FB174B174A7121E9
:1049300017481BF02FFB174B174A4B2117481BF04A
:1049400029FB0023AFE70023039303AB012252426C
:104950009A8022E7154B164A152116481BF01AFBC0
:10496000094B0A4A71210A481BF014FB094B0A4AF9
:104970004B210A481BF00EFB00232FE700200021EB
:1049800041E7C046FFFF0000E0250310F4250310B7
:1049900060230310E0260310EC260310D427031035
:1049A0003C34031050340310BC3403102035031082
:1049B00038350310AC350310F0B5C64600B59EB0CF
:1049C00006008846020020CA2B00383307A991CA86
:1049D00091C12A00383268D007AA91CA91C11A79C8
:1049E000202A31D10DA90AAA91CA91C1002B5CD00D
:1049F0000A008C460DA9100094C994C001006246BB
:104A000091CA91C1139A002A20D019882A000C3229
:104A10008F4B994267D0C8097F230B40948CA042EA
:104A200055D2126AC00012185088834255D252687B
:104A3000DB00D318059305AA9180002B55D0DA88A6
:104A400005ABDA80012498E00023CBE70023039331
:104A500003AB013A9A80039B002B26D003AB9A88C4
:104A60007B4B9A4200D1D7E003ABD9880C35784B09
:104A7000994200D1E2E0C8097F230B40AA8C904202
:104A800000D3CFE02A6AC00012185088834200D3B6
:104A9000CEE05268DB00D318039303AA9180002B69
:104AA00002D0DA8803ABDA80039B16AA169331682A
:104AB000179113A911CA11C1002B00D1C0E01B79B5
:104AC0001B0700D4BCE03000FFF71AFEBBE0614BCF
:104AD000614A712161481BF05DFA614B614A4B21CB
:104AE00061481BF057FA0023A4E7594AA8E75F4B37
:104AF0005F4A27215F481BF04DFA002F52D0380043
:104B00002AF0E8FE1BAB1B971C9000221A721BA90F
:104B100018A8FCF792FB19AB6A4603CB03C2189B9B
:104B200013981499159AFCF737F8002854D10123EB
:104B30005C40E4B205AB9A88454B9A4251D005AB34
:104B4000D9882A000C32424B99425CD0C8097F2395
:104B50000B40978CB8424AD2126AC0001218508893
:104B600083424AD25268DB00D318059305AA91808C
:104B7000002B02D0DA8805ABDA80059B002B44D0ED
:104B8000002CD4D01F1EB2D01B79042B0CD0052BC7
:104B900018D0022BB1D01BAB00221B921C92013209
:104BA0001A72B4E70020ADE73F68002F08D0380044
:104BB0002AF090FE1BAB1B971C9001221A72A6E7ED
:104BC0000020F7E73B6819000831DA881BAB1B911E
:104BD0001C9200221A729AE703AA05AB03CB03C208
:104BE00039E7254B254A152125481BF0D3F9194BE8
:104BF000194A712119481BF0CDF9194B194A4B215B
:104C000019481BF0C7F90023AFE70023039303AB58
:104C1000012252429A801EE7174B184A1521184864
:104C20001BF0B8F90B4B0C4A71210C481BF0B2F980
:104C30000B4B0C4A4B210C481BF0ACF900232BE723
:104C40004346186859681EB080BCB846F0BDC046DF
:104C5000FFFF0000E0250310F4250310602303107C
:104C6000E0260310EC260310D42703103C34031075
:104C700050340310BC3403102035031038350310B2
:104C8000AC35031070B5A2B020F070FE1F211A20C1
:104C900018F07AFF002200211A2018F08DFF002161
:104CA0001A2019F069F83F4B1B68E022D20113402B
:104CB0003D4A13601FAD3D492800FFF71EFC03ACC1
:104CC000230007CD07C33A4E069607AB220023CA3E
:104CD00023C30022374B0A920B930AA906A8FFF7B9
:104CE0006BFE1CF0A1FE344B18601CAD334928004C
:104CF000FFF710FC230007CD07C30C960DAB220075
:104D000023CA23C32E4A2F4B1092119310A90CA82B
:104D1000FFF752FE1CF088FE2B4B186019AD2B4993
:104D20002800FFF704FC230007CD07C3129613AB3E
:104D300007CC07C30022264B1692179316A912A878
:104D4000FFF73AFE1CF070FE224B18608022224BC7
:104D5000019303230093002352002049204822F0AE
:104D600014FB1AF085FA002915DB1E4A00231CF0FB
:104D700029FB100019001CF01FFE00221A4B1CF02A
:104D800030FD02000B0019481DF08CFE18481DF084
:104D900059FE22B070BD174B174A3F2117481BF030
:104DA000F9F8C04600C0044000D00440544D031040
:104DB000A023002000802740D0110020604D031068
:104DC0003333333333332840C8110020704D031080
:104DD00000002440CC11002060280020804D0310EA
:104DE000ED42001040420F0000408F406C24031041
:104DF000904D031018220310342203106C2203106C
:104E000030B583B004000D00002301930F4B1B68E5
:104E1000002B01D00F2808D0019B012B0FD02900B7
:104E2000200018F017FF03B030BD094817F0D0FF7D
:104E3000064B186801AA002123F00CFDECE7002BBB
:104E4000EDD0044B802252051A60E8E73824002098
:104E50003C24002004ED00E000B583B0012801D01F
:104E600003B000BD054B9942FAD1002300930F33E4
:104E700011220349034816F09BFFF1E7FFFF0000F2
:104E800000C003403C240020F0B5C64600B584B005
:104E900007000E0015001C0001212E4B1868494226
:104EA00021F088FE002022F01BFB80460E2100200E
:104EB00022F036FB1AF0DCF9002936DB264A002303
:104EC0001CF080FA100019001CF076FD0022234B24
:104ED0001CF087FC02000B0021481DF0E3FD00944C
:104EE0002B00320039001F481DF0DCFD03AA1770AB
:104EF000D670557094700423FF211B4817F0E6FD0F
:104F0000002818D0194B1B78002B1BD141460020DC
:104F100022F006FB0F4B186800230022002121F02D
:104F20009FFB04B080BCB846F0BD114B114A3F2135
:104F300011481BF02FF80530FFF700F90B4B012249
:104F40001A70E3E70020FFF7F9F8084B00221A7007
:104F5000DCE7C0463424002040420F0000408F4070
:104F60006C240310AC4D03103C2400202C91022033
:104F700018220310342203106C22031010B584B0E1
:104F8000009001910292039301212B4B1868494232
:104F900021F010FE002022F0A3FA04000E210020D0
:104FA00022F0BEFA1AF064F900292CDB234A002310
:104FB0001CF008FA100019001CF0FEFC0022204B27
:104FC0001CF00FFC02000B001E481DF06BFD1E487C
:104FD0001DF038FD0E236A46FF211C4817F076FDB0
:104FE000002816D01A4B1B78002B1DD12100002061
:104FF00022F096FA104B186800230022002121F0BD
:105000002FFB04B010BD134B134A3F2113481AF075
:10501000C1FFD0231B0640225A610530FFF78EF8EE
:105020000B4B01221A70E1E70020FFF787F8084BCD
:1050300000221A70DAE7C0463424002040420F00F4
:1050400000408F406C240310DC4D03103C240020F2
:105050002C91022018220310342203106C2203101A
:1050600010B582B001AB188001212C4B1868494261
:1050700021F0A0FD002022F033FA04000E210020D0
:1050800022F04EFA1AF0F4F800292FDB244A00230C
:105090001CF098F9100019001CF08EFC0022214B26
:1050A0001CF09FFB02000B001F481DF0FBFC6B4631
:1050B00019795A791D481DF0F5FC022301AAFF2138
:1050C0001B4817F003FD002816D01A4B1B78002B45
:1050D0001DD12100002022F023FA104B1868002374
:1050E0000022002121F0BCFA02B010BD124B134A7D
:1050F0003F2113481AF04EFFD0231B0640225A616D
:105100000530FFF71BF80B4B01221A70E1E7002076
:10511000FFF714F8074B00221A70DAE73424002056
:1051200040420F0000408F406C240310EC4D0310F0
:105130003C2400202C91022018220310342203105A
:105140006C22031010B5044B18681DF0FBF91DF01C
:1051500017F940B210BDC0465C280020014B1878FA
:105160007047C0462A91022010B5034817F082F913
:10517000024B01221A7010BD3C2400202B9102200A
:1051800010B5034817F059F8024B00221A7010BDF1
:105190003C2400202B91022010B5034817F0A0F901
:1051A000002800D0012010BD3C240020704710B51D
:1051B00004000800FFF7FAFF206005236360043B4A
:1051C0002372200010BD704710B504000800FFF7DF
:1051D000FAFF20600B2363600A3B2372200010BD9E
:1051E000704710B504000800FFF7FAFF206009239C
:1051F0006360083B2372200010BDC043C00F70479E
:10520000012070470123002904D104D18022120615
:10521000904200D30023D8B27047802212060023A8
:10522000801859410123002900D00023D8B27047CB
:1052300010B50400FFF7E1FF002801D0200010BDE9
:105240000020FCE710B50400FFF7DAFF002801D0CA
:10525000200010BD0020FCE710B50400FFF7D2FFCE
:10526000002801D0200010BD0020FCE710B504008C
:10527000FFF7D3FF002801D0200010BD0020FCE77D
:1052800070B504000D000022084B1CF021FB002823
:1052900009D0074A074B200029001CF011FB002809
:1052A00002D0012000E0002070BDC0460000E0C137
:1052B0000000C0FFFFFFDF4170B504000D00FFF7E5
:1052C000DFFF002804D0200029001CF039FB70BD4E
:1052D0000020FCE77047000010B5041CCF21090630
:1052E0001DF01AF800280AD00748FFF7F3FF011C49
:1052F000201C1DF009F8002803D0012000E0002048
:1053000010BD0020FCE7C046FFFFFF4E10B5041C97
:10531000FFF7E2FF002803D0201C1DF031F810BD7C
:105320000020FCE710B584B00379DB0628D504889B
:105330000C313E4B9C4221D0E2097F2323408C8CD0
:10534000A2420FD2096AD2008A1851888B420FD22A
:105350005268DB00D21803791E2B64D89B003449B5
:10536000CB589F46334B344A712134481AF012FE11
:10537000334B344A4B2134481AF00CFE0022EAE742
:105380000022E8E700784FE00068FFF751FF4BE0AC
:105390000068FFF757FF47E010685168FFF75CFFB0
:1053A00042E010685168FFF761FF3DE0010000290D
:1053B0001ED06846FBF76AFD6B461B78032B2DD089
:1053C0001FD8012B26D0022B19D102980399FFF781
:1053D0004DFF29E00168EAE701680831E7E7006866
:1053E000FFF794FF20E010685168FFF765FF1BE0AE
:1053F0001831164B164AFF3116481AF0CBFD002023
:1054000012E0042B04D102980399FFF755FF0BE03B
:10541000002009E00298FFF779FF05E00298039960
:10542000FFF71AFF00E0002004B010BDFFFF0000EE
:10543000944E0310E0250310F4250310602303109D
:10544000E0260310EC260310D427031010360310B7
:105450000C4E0310F8300310F0B59BB0039104928A
:105460000593209D0379202B2FD10BAA03AB52CBA0
:1054700052C200285AD013000BAA1900D0CAD0C1BA
:105480000A0052CB52C2119B002B20D001882A0067
:105490000C32844B994257D0C8097F230B40948C1F
:1054A000A04245D2126AC00012185088834245D2E9
:1054B0005268DB00D318099309AA9180002B45D0CC
:1054C000DA8809ABDA80012488E00020CDE7079371
:1054D00007AB012252429A800798002826D007ABDA
:1054E0009A88704B9A4200D1C7E007ABD9880C3537
:1054F0006C4B994200D1D2E0C8097F230B40AA8CA3
:10550000904200D3BFE02A6AC0001218508883423C
:1055100000D3BEE05268DB00D318079307AA91803E
:10552000002B02D0DA8807ABDA8007981BB0F0BDF9
:105530005D4B5E4A71215E481AF02CFD5D4B5E4A60
:105540004B215E481AF026FD0023B4E7554AB8E720
:105550005B4B5C4A27215C481AF01CFD002E52D0A0
:1055600030002AF0B7F917AB1796189000221A727C
:1055700017A914A8FBF761FE15AB6A4603CB03C25B
:10558000149B11981299139AFBF706FB002854D12B
:1055900001235C40E4B209AB9A88424B9A4251D055
:1055A00009ABD9882A000C323E4B99425CD0C8091D
:1055B0007F230B40968CB0424AD2126AC000121868
:1055C000508883424AD25268DB00D318099309AA53
:1055D0009180002B02D0DA8809ABDA80099B002B7E
:1055E00044D0002CD4D01E1EB2D01B79042B0CD07A
:1055F000052B18D0022BB1D017AB002217921892AE
:1056000001321A72B4E70020ADE73668002E08D0E8
:1056100030002AF05FF917AB1796189001221A7222
:10562000A6E70020F7E7336819000831DA8817ABDE
:105630001791189200221A729AE707AA09AB03CBB6
:1056400003C249E7214B224A152122481AF0A2FC45
:10565000154B164A712116481AF09CFC154B164A38
:105660004B2116481AF096FC0023AFE7002307935E
:1056700007AB012252429A802EE7144B144A15219F
:1056800014481AF087FC084B084A712108481AF0A0
:1056900081FC084B084A4B2108481AF07BFC002388
:1056A0003BE7C046FFFF0000E0250310F425031090
:1056B00060230310E0260310EC260310D427031008
:1056C0003C34031050340310BC3403102035031055
:1056D00038350310AC35031070B590B019F0C8FD23
:1056E00000295EDB734A00231BF06CFE10001900DA
:1056F0001CF062F90022704B1CF073F802000B00E2
:105700006E481DF0CFF96E481DF09CF90BAC6D4949
:105710002000FFF766FD02AB1A0023CC23C26A4AC1
:10572000059206AA190031C931C20599080038301E
:1057300006AA70CA70C30B00383305D000910299D5
:10574000039A049BFFF788FE059909AB09900A911B
:1057500002AA11CB11C2029B002B4CD01A79D2069F
:1057600033D51C880C31594A94422CD0E0097F2251
:1057700022408C8CA0421AD2096AC00009184888BD
:1057800082421AD24968D20089181A791A2A2DD071
:105790001FD80A2A26D00C2A19D11868FFF730FD25
:1057A0002AE04B4B4B4A3F214B481AF0F3FB4B4B43
:1057B0004B4A71214B481AF0EDFB4B4B4B4A4B21A6
:1057C0004B481AF0E7FB0021DFE70021DDE700206E
:1057D00012E01C2A04D108684968FFF71EFD0BE09F
:1057E000002009E01868FFF708FD05E0086849682F
:1057F000FFF708FD00E00020002838D19620C50FF3
:105800002D186D10ADB23B4C0021200017F064F84C
:1058100009220821200017F019F9374B19782000C8
:1058200016F0DCFA0821200016F0E6FB33492000D0
:1058300016F0F8FB1421200016F06AFC3049200015
:1058400016F08EFF0521200016F0A8FC092120008B
:1058500016F0F6FF0121200016F0C8FA29002000FA
:1058600017F0AAFC200016F0E8FC10B070BD0599F6
:105870000C00383402AA06AB61CB61C20B0038338E
:1058800007D000910299039A049B2000FFF7E4FDE2
:105890000400059D0E940F9508220EA902A81CF085
:1058A0002DFF002C04D029002000FFF73BFDA6E7C8
:1058B0000020A4E740420F0000408F406C240310FA
:1058C000104F0310244F0310A0230020FFFF0000FF
:1058D00018220310342203106C220310E025031059
:1058E000F425031060230310E0260310EC260310B8
:1058F000D42703103C2400202A91022000C06444D5
:1059000020A1070010B5CAB004AB03221A735A7362
:10591000F8E025226A441278834909788A4201D046
:10592000FF2A75D10A9B089326236B4419780A989D
:1059300002F058FF7D4B186800211CF0D7FC0028AE
:1059400007D07B4816F04CFA1CF0F8FC774B186037
:1059500021E0774816F044FA1CF0F0FC00211CF01E
:1059600094FC724C21681CF075FC206013E0252229
:105970006A4412786C4909788A4201D0FF2A49D1D9
:105980000E220AA904A81CF0B9FE04980599069AEB
:10599000079B01F08DFF19F06BFC002953DB654A72
:1059A00000231BF00FFD100019001CF005F8002269
:1059B000614B1BF016FF02000B0060481DF072F8EF
:1059C0005B4816F00DFA01005D481DF06BF8584871
:1059D00016F058FC00283CD0FF2200210AA81CF039
:1059E00087FE002325226A44137026226A4413701E
:1059F00027246C44FF332370DA3B6B44009313007D
:105A000022000AA94A4816F05BFC2378042B80D0B8
:105A10000E2BACD0022BBED123336B441B78424AF1
:105A20001278934201D0FF2BB5D103AB0AA90988A4
:105A300019801B789A42AED126236B4419780398BB
:105A400001F06AFEA7E73F4B3F4A3F213F481AF06B
:105A5000A1FA374817F0A6FB07240440631FDBB206
:105A6000012B08D9032C06D0072C04D0384A137810
:105A70000133137002E0364B00221A70344B1B784E
:105A80000A2B35D919F0F4FB002941DB294A002300
:105A90001BF098FC100019001BF08EFF0022264B13
:105AA0001BF09FFE02000B0024481CF0FBFF2100AE
:105AB00028481CF0F7FF1E4816F0DCFCFFF70CFE30
:105AC00019F0D6FB002929DB1A4A00231BF07AFCC7
:105AD000100019001BF070FF0022174B1BF081FE15
