:020000041000EA
:1000000000B5324B212058609868022188439860DF
:10001000D860186158612E4B002199600221596106
:100020000121F02299502B49196001219960352056
:1000300000F044F80222904214D00621196600F024
:1000400034F8196E01211966002018661A6600F04E
:100050002CF8196E196E196E052000F02FF8012189
:100060000842F9D1002199601B49196000215960AB
:100070001A491B48016001219960EB211966A021F2
:10008000196600F012F800219960164914480160C1
:100090000121996001BC002800D000471248134993
:1000A000086003C880F30888084703B5996A0420EC
:1000B0000142FBD001200142F8D103BD02B5186610
:1000C0001866FFF7F2FF186E186E02BD00000240BE
:1000D000000000180000070000035F00212200005C
:1000E000F4000018222000A00001001008ED00E03C
:1000F00000000000000000000000000074B24E7A12
:1001000000200420F7010010C3010010C5010010F9
:10011000C1010010C1010010C1010010C101001097
:10012000C1010010C1010010C1010010C701001081
:10013000C1010010C1010010C9010010CB01001065
:10014000CD010010CD010010CD010010CD01001037
:10015000CD010010CD010010CD010010CD01001027
:10016000CD010010CD010010CD010010CD01001017
:10017000CD010010CD010010CD010010CD01001007
:10018000CD010010CD010010CD010010CD010010F7
:10019000CD010010CD010010CD010010CD010010E7
:1001A000CD010010CD010010CD010010CD010010D7
:1001B000CD010010CD010010CD010010CD010010C7
:1001C00000BE00BE00BE00BE00BE00BEEFF3058054
:1001D000103800BEF2EB8871D8AE01100CAF0110E0
:1001E0003402001090A31AE700201F49086006C8D7
:1001F00081F3088810471D48006800282FD10DA4FE
:100200000ECC002902D000F012F8F9E71849194A7B
:10021000002000E001C19142FCD1174988471749ED
:1002200088471749884700BEFDE701C901C29A42C5
:10023000FBD370470CAF0110C0000020301C002021
:100240007CCA011000000420000004207CCA0110B8
:10025000001004200010042000000000704709482E
:100260000CF006F90047000008ED00E0000000D0A7
:10027000301C0020F4300020D5B100105151001086
:1002800091B100105756000006005250ABB36053B6
:100290008891011006005250861C030298910110AB
:1002A000060052505422A29DA49101100500525004
:1002B000DE65F4687CCA0110F8B5C04610B5064C7E
:1002C0002378002B07D1054B002B02D0044800E017
:1002D00000BF0123237010BD781E00200000000025
:1002E00040620110044B10B5002B03D003490448B1
:1002F00000E000BF10BDC046000000007C1E0020D2
:100300004062011070B504000D000F2804D02900D0
:10031000200008F0C1FD70BD014808F0E3F8F6E7E1
:100320005C2A002010B582B0012801D002B010BDB7
:10033000114B9942FAD10721104B06E000221A71A5
:100340005A719A71DA71103301390029F6DA0C4CBE
:10035000202221000B4806F0E3FD0B4B0122210077
:100360000A4806F0D8FE002300930F3311220849F3
:10037000084807F049F9D9E7FFFF0000E01D002019
:10038000A8130020082A002000806542302A00209F
:1003900000C003405C2A002010B504000AF07EF87B
:1003A000002903DB20606160200010BD024B034A7E
:1003B0003F2103480AF0F0FE406201105C62011028
:1003C0009462011010B50C1E08D0086803685B68C1
:1003D0009847022805D120230022E2540020002162
:1003E00010BD0AF05BF800291CDB114A00230CF059
:1003F000D1F8100019000CF0BFFB00220D4B0CF0DF
:10040000D8FA02000B000C480DF0F0FA0B480DF082
:10041000BDFA206803681B6800219847084B012239
:100420001A70D8E7074B084A3F2108480AF0B4FE83
:1004300040420F0000408F40DC620110E862011072
:10044000DE300020406201105C62011094620110F5
:1004500010B50B490B4810F06FF80321042008F089
:10046000B5FC0321052008F0B1FC00220121042085
:1004700008F0C4FC00220121052008F0BFFC10BDDB
:1004800040420F00A813002070B5134C1349200000
:1004900010F03AF90121102008F098FC01211220F7
:1004A00008F094FC0121132008F090FC62680223FC
:1004B0001A400B4DC021890129430B602068072198
:1004C0004140CF200840802149010C432060802317
:1004D0009B012B431A6070BD00C00340404B4C0091
:1004E00004C0034010B51400114A1070D17054704C
:1004F00093700423FF210F4807F08AFE002809D1DA
:10050000D0231B0640225A6140329A610A4B7F3A3F
:100510001A7010BD084B1B78002BFAD0D0231B0695
:1005200040229A6140325A61034B00221A70F0E770
:10053000B43000205C2A0020EC30002070B500258B
:1005400000E0013583001B18DB00364CE3181C79F2
:10055000AC420EDD83001B18DC00324B1B195B190B
:100560005B798B42EDD12F4B1B195B190124DC7297
:10057000E7E70025002600E00135AC4211DD8300ED
:100580001B18D900274B5B185B19DB7A002BF3D1C2
:10059000AB005B19DB002349CB18002199740126BD
:1005A000EAE7002E3CD1002311E029001E4D495DF1
:1005B000914214D11D011C49491901254D71990021
:1005C000C918C900174D691800258D740133072B10
:1005D00019DC1D011449491949788142E5D01901F6
:1005E000114D495D0229F1D11D010F494919897841
:1005F0008142EBD10C494D19ED782D01491909794A
:100600000029E3D0D6E700218C4209DD83001B18C6
:10061000DA00044B9B185B180022DA720131F3E711
:1006200070BDC046401D0020E01D002010B50E4BDF
:1006300004221A600D4B1B68DB05FBD50B4B586879
:1006400080B20CF0C8FE0CF0F5FE094A094B0CF024
:10065000CEF90CF09DFA08490CF071FE0CF072FF17
:1006600005490CF056FE10BD00E0044000C00440F7
:10067000BF102B4AE323833F0000204170470160F5
:100680004260704770470000F0B5DE4657464E4660
:100690004546E0B587B081468B46011E09D00178FA
:1006A0002B290CD02D2910D12C398C46E1448A46B7
:1006B0000DE0BD4BBD4A1A31BD480AF06DFD012168
:1006C0008C46E14400218A4601E000218A464946E1
:1006D000087801003039C9B2092905D92E2800D07F
:1006E00058E10024002501E0002400254E4636781C
:1006F000B046303EF6B2B446092E22D8AD4EB542D1
:100700001FD81BD0A60FAB003343A200A4185D4135
:1007100026002F00B6197F4134003D00009401955A
:1007200060460021C643B4467E1C16D0009C019D45
:1007300024184D410126B446E144D7E79E4EB44209
:10074000E0D9404600282ED15346002B1CD08023F0
:100750001B069D4204D9002626E06445E6D9F0E751
:100760009D4201D1002CF6D100236242AB41594693
:10077000097A7F208143584601720A200143584676
:1007800001720260436007E15B461B7A7F2293435C
:100790005A461372082213435A4613721460556066
:1007A00001239A46F8E0002680235B039D420AD38A
:1007B0000A220023200029000BF0ECFE04000D00AB
:1007C000013636B2F0E749460A781300303BDBB217
:1007D000092B03D8013636B20131F5E789462E2AB6
:1007E0000FD04B461B78652B35D0452B33D00023DB
:1007F000F6184B461F78002F00D18FE000239A4651
:10080000CAE001239C46E144B4464A4613E0A70FE0
:10081000A9003943A00024184D4124196D410293C9
:1008200000230393029E039FA4197D416646013E67
:1008300033B29C4601321378303BDBB2092B07D828
:100840005E4FBD42F6D8E2D15D4FBC42F2D8DEE742
:1008500066469146C5E74B46581C5B782D2B04D065
:100860002B2B05D0002700232AE001300127FAE7CF
:10087000484602300027F6E70020002138E05346C2
:10088000002B17D000204F49FFF7FCFE80231B06EA
:100890009C4661445B461B7A7F2293435A461372FF
:1008A0000C2213435A46137202000B0059460A6089
:1008B0004B6029E000204349FFF7E4FEEAE70130FE
:1008C000027811003039C9B2092920D89900CB1813
:1008D0005B00303A9B18F1189A2252009142EEDDEB
:1008E000002FCCD05346002BC6D000208021090613
:1008F0005B461B7A7F2293435A4613720C221343A2
:100900005A4613721060516001239A4644E0002F4A
:1009100002D05B4281466BE7814669E720002900EF
:100920000CF02AF904000091002E04DD264D002E63
:1009300006DC764204E0254DF9E776100137FFB278
:10094000002E0CD0F307F8D5FB00EB181A685B6893
:10095000200000990CF04BF804000091EDE753469D
:10096000002B05D0009B802212069446634400931E
:100970005B461B7A7F2293435A4613720C22134321
:100980005A4613722200009B59460A604B600123AD
:100990009A4601E000239A46504607B0F0BCBB4699
:1009A000B246A946A046F0BDF862011000630110EE
:1009B00068630110999999199999999999990100E0
:1009C000989999990000F07FA87F0110607F01102D
:1009D0007047000010B5FFF7FBFF0068002800D04B
:1009E00010BD0148FCE7C046386A0110016070473D
:1009F00082B0F0B583B00993002912D06B4609ACE0
:100A00001D00C0CCC0C5040060CB60C400230372CD
:100A1000C26043748374416103B0F0BC08BC02B08F
:100A20001847034B034A143103480AF0B5FBC0468C
:100A3000C8630110D46301101865011010B584B0AB
:100A4000027A7F231340043BDAB2082A24D89300A9
:100A5000134AD3589F4600780CF036F81EE04168E0
:100A600000680CF089F819E0416800680CF078F82B
:100A700014E000686C46002323722100FFF704FE97
:100A8000002C03D02000FFF7D9FF07E00020002151
:100A900004E04168006801E00020002104B010BDBE
:100AA000806501100123002904D104D1802212069F
:100AB000904200D30023D8B270474B1C0EDB4B1C76
:100AC00003D180231B06984208D3002908DC03D1F8
:100AD00080231B06984203D2012000E000207047CB
:100AE0000020FCE710B50400FFF7DCFF002801D070
:100AF000200010BD0020FCE710B50400FFF7DDFF6B
:100B0000002801D0200010BD0020FCE7F0B5CE4643
:100B1000474680B583B000900191150000280CD0A5
:100B2000002A10D0019B9846100015F005FA814666
:100B300080450ED24746002426E0254B254A162143
:100B400025480AF029FB254B224A172122480AF0A2
:100B500023FB0700EFE7224B224A732122480AF0C9
:100B60001BFB224B1F4A74211F480AF015FB1C4B2C
:100B70001F4A23211C480AF00FFB1C4B1C4A24214E
:100B800019480AF009FB0134BC4216D2009B002B25
:100B9000E1D0019A9442E4D81E5D002DE7D02800F0
:100BA00015F0CAF98442E8D8285DB042EBD0301A7B
:100BB00003B0C0BCB946B046F0BDC84502D304D8A6
:100BC0000020F5E701204042F2E70120F0E7C046AF
:100BD000A4650110B46501108C670110F067011065
:100BE000006801100C68011058680110C0680110FD
:100BF000CC68011000B583B000910192020008009A
:100C00000199FFF783FF404203B000BD70B582B089
:100C1000031E08682AD0197A7F220A40402A1BD86E
:100C2000920017498A5897461D685E68FFF726FDAF
:100C30000400320029006846FFF721FD0099019A5F
:100C40002000FFF7D7FF002804DB01DC012012E0C1
:100C5000042010E002200EE0FFF710FD002801D074
:100C6000002008E0013006E0002004E0FFF706FD68
:100C7000002802D0002002B070BD0130FBE7C04662
:100C800024690110F0B5C64600B584B0020002AB7D
:100C900000211980039104000C34437C002B03D005
:100CA000157C0023537434E0A379002B0BD1C36867
:100CB000591CC1601B78002B0BDD002B0CDB237152
:100CC00001236371ECE7914B914A253191480AF079
:100CD00063FA0121A171F0E70023F0E78B4B8C4A06
:100CE00025218C480AF058FA0121A1711DE02371D9
:100CF00001236371137C002151749D4200D1FCE0FB
:100D0000002B00D1FBE05C2B13D01168481C106055
:100D10000B70537C002BEDD1A379002BDED123681F
:100D2000591C21601B78002BDEDD002BDFDA00234D
:100D3000DDE7A3799846002B1AD12368591C21605E
:100D40001B78002B1ADD002B1BDB23710123637141
:100D5000107C002800D1D4E0752814D06E490B789F
:100D6000002B00D1C4E0984200D1C0E00231F6E788
:100D7000664B674A253167480AF00EFA0121A171D6
:100D8000E1E70023E1E7002353740021002024E081
:100D90009F79002F0BD1D7687E1CD6603F78002F3B
:100DA0000BDD002F0CDB1F7101275F711CE0574B1F
:100DB000574A252157480AF0EFF901269E71F0E7BE
:100DC0000027F0E7303BDBB20F2B20D80901194395
:100DD00089B2002353740130C0B203280ED8130027
:100DE0000C33577C002FD3D0137C002B0DD0402B1D
:100DF000E8D92027BB43373BDBB2E5E700200028DA
:100E000007D004B080BCB846F0BD0220F7E703204D
:100E1000F5E7A0239B01CB189BB28020C000834242
:100E200016D390239B01CB189BB28020C000834235
:100E300013D30391012398464346002B00D168E762
:100E4000039B7F2B17D81168481C10600B7060E75C
:100E50008905890D02AB1980EEE702A803889B0281
:100E60008905890D0B43802149028C466344039315
:100E700001239846E0E70021684601703F201840B2
:100E800080390143684641709B0999B21F290FD8E8
:100E9000402149420B4383706B460333013B197871
:100EA000002900D135E71068461C16600170F5E78F
:100EB0003F20184080235B420343684683708809C3
:100EC0000F2806D820235B4218436B46D87001AB2D
:100ED000E4E73F231840BF3B03436846C370090B58
:100EE00010235B4219436B4601710533D6E74B78FB
:100EF000002B08D00021517407E7002081E7022071
:100F00007FE702207DE703207BE7C0463C6A0110B3
:100F1000446A0110C46A0110286A011001230029E3
:100F200002D102D1FF2800D90023D8B2704710B5F2
:100F30000400FFF7F3FF002801D0E0B210BD00204D
:100F4000FCE700290ADB0123002902DD0023D8B2D7
:100F500070470029FBD1FF28F9D9F7E70020F7E710
:100F600010B50400FFF7EDFF002801D0E0B210BD7E
:100F70000020FCE770B504000D00002200230BF0F8
:100F800087FD002809D00022064B200029000BF025
:100F900077FD002803D0012000E0002070BD002074
:100FA000FCE7C04600E06F4070B504000D00FFF79D
:100FB000E1FF002805D0200029000BF0C5FDC0B2DC
:100FC00070BD0020FCE7000010B588B0027A7F23D6
:100FD0001340043BDAB2082A46D89300244AD35877
:100FE0009F46007841E041680068FFF7A0FF3CE0C1
:100FF00041680068FFF7B4FF37E0006800236A46E5
:1010000013726946FFF740FB6B461A7A7F23134041
:10101000043BDAB2082A20D89300164AD3589F46D8
:101020006B46187821E000980199FFF780FF1CE0DB
:1010300000980199FFF794FF17E004AC0023237296
:1010400021000098FFF720FB2000FFF7BDFF0CE018
:1010500000980199FFF7A8FF07E0002005E041682C
:101060000068FFF7A1FF00E0002008B010BDC046F7
:101070001C6B0110406B011010B58CB0002876D0AD
:10108000027A7F231340043BDAB2082A6DD893001A
:10109000384AD3589F4600786AE041680068FFF7F5
:1010A00046FF65E041680068FFF75AFF60E00068AE
:1010B00000236A4613726946FFF7E6FA6B461A7A0E
:1010C0007F231340043BDAB2082A47D893002A4A08
:1010D000D3589F466B4618784AE000980199FFF76D
:1010E00026FF45E000980199FFF73AFF40E0002312
:1010F0006A46137604A90098FFF7C6FA6B461A7E73
:101100007F231340043BDAB2082A20D893001B4AFD
:10111000D3589F4604AB18782AE004980599FFF746
:1011200006FF25E004980599FFF71AFF20E008ACB8
:101130000023237221000498FFF7A6FA2000FFF78E
:1011400043FF15E004980599FFF72EFF10E00020FB
:101150000EE000980199FFF727FF09E0002007E063
:1011600041680068FFF720FF02E0002000E0002057
:101170000CB010BD646B0110886B0110AC6B0110DA
:1011800070B504000D000022094B0BF081FC002813
:1011900009D0084A084B200029000BF071FC0028F8
:1011A00003D0012000E0002070BD0020FCE7C04615
:1011B0000000E0C10000C0FFFFFFDF4170B5040088
:1011C0000D00FFF7DDFF002804D0200029000BF000
:1011D00097FC70BD0020FCE710B588B0027A7F2331
:1011E0001340043BDAB2082A46D89300244AD35865
:1011F0009F46007841E041680068FFF773FC3CE0DF
:1012000041680068FFF778FC37E0006800236A4611
:1012100013726946FFF738FA6B461A7A7F23134038
:10122000043BDAB2082A20D89300164AD3589F46C6
:101230006B46187821E000980199FFF753FC1CE0F9
:1012400000980199FFF758FC17E004AC00232372C3
:1012500021000098FFF718FA2000FFF7BDFF0CE00F
:1012600000980199FFF7AAFF07E0002005E0416818
:101270000068FFF7A3FF00E0002008B010BDC046E3
:10128000D06B0110F46B0110F0B5C64600B5050037
:101290000E0000280BD000290FD014F04DFE804620
:1012A000300014F049FE40453CD1002424E0204B9E
:1012B000204A3121204809F06FFF204B1D4A32217E
:1012C0001D4809F069FF1E4B1E4A23211E4809F0E4
:1012D00063FF1E4B1B4A24211B4809F05DFF184B7E
:1012E000184A2321184809F057FF184B154A2421A2
:1012F000154809F051FF0134444517D2002DE2D0C2
:10130000280014F019FE8442E3D82F5D002EE6D0A9
:10131000300014F011FE8442E7D8335DBB42EAD0BE
:10132000002000E0002080BCB846F0BD0120FAE7B4
:10133000A4650110186C01108C670110F067011092
:1013400000680110CC68011058680110C0680110D5
:10135000F0B5DE4657464646C0B58CB00400884618
:101360006A46D371DBB2002B00D18DE303000C334E
:10137000427C002A24D0237C7B2B3BD10023637446
:1013800023000C33627C002A3AD0237C002B51D0FE
:10139000202B09D8092B07D3093BDBB201229A4045
:1013A0001300B34A13424CD1012323720026002EAE
:1013B0004AD030000CB0E0BCBB46B246A846F0BDF7
:1013C0009A79002A0BD1C268511CC1601278002A98
:1013D0000BDD002A0CDB1A7101225A71CBE7A54BF9
:1013E000A54A2521A54809F0D7FE01219971F0E70A
:1013F0000022F0E7A24BA34AF421A34809F0CCFE57
:101400009A79002A0BD1E268511CE1601278002A17
:101410000BDD002A0CDB1A7101225A71B5E7954BDE
:10142000954A2521954809F0B7FE01219971F0E709
:101430000022F0E7237A002B01D10126B7E702262C
:10144000B5E7002363749BE723000C33627C002A1A
:1014500007D0237C7D2B1ED10023637401330093BE
:101460001BE09A79002A0BD1E268511CE1601278E6
:10147000002A0BDD002A0CDB1A7101225A71E8E701
:101480007C4B7D4A25217D4809F086FE012199711A
:10149000F0E70022F0E700230093009B002B00D12F
:1014A00051E286E79A79002A0BD1E268511CE1608B
:1014B0001278002A0BDD002A0CDB1A7101225A7106
:1014C00049E26C4B6C4A25216C4809F065FE01210C
:1014D0009971F0E70022F0E78379002B0BD1E368E4
:1014E0005A1CE2601B78002B0BDD002B0CDB037118
:1014F000012343713CE25F4B5F4A25215F4809F0BD
:101500004BFE01228271F0E70023F0E7E5215F4BFB
:101510005F4A49005C4809F03FFE012102E00121D9
:1015200000E00099002924D1032041E00121F9E7DE
:101530008379002B0BD103685A1C02601B78002BA7
:101540000BDD002B0CDB0371012343711AE0494BC7
:10155000494A2521494809F01FFE01228271F0E71E
:101560000023F0E70A0002E00A0000E0009A002AE7
:1015700019D0002262742268551C25601370637CA8
:10158000002BD5D0237C2F2B01D9392BEAD95E2B08
:1015900001D97A2BE8D9402BE8D95A2B01D9009AE6
:1015A000E5E70A00E3E7300002E02000FFF76AFB0E
:1015B000002800D056E222000C32637C002B36D08B
:1015C000237C002B4DD0202B09D8092B07D3093BB6
:1015D000DBB201229A401300254A13425AD101235B
:1015E0002372002800D03FE223000C33627C002AE3
:1015F00053D0237C3A2B6AD10023637401339A467B
:101600005346002B00D131E200232268137060683A
:1016100023681B1A03AA0390049301231372FFF794
:101620002DF88346051E67D043461D6854E0937924
:10163000002B0BD1E368591CE1601B78002B0BDDFC
:10164000002B0CDB137101235371B9E7094B0A4AD4
:1016500025210A4809F0A0FD01219171F0E700233E
:10166000F0E7237A002B01D10120BAE70220B8E786
:10167000130080003C6A0110446A0110C46A011022
:10168000F86D01100C6E0110BC6F0110AC860110DA
:101690001C700110002363748DE79A79002A0BD126
:1016A000E268511CE1601278002A0BDD002A0CDB95
:1016B0001A7101225A719CE7C44BC54A2521C548BD
:1016C00009F06AFD01219971F0E70022F0E7009B23
:1016D0009A4695E71B01ED18002D0DD0E868FEF73E
:1016E000CDFF01005846FFF7CFFD002804D10A22A4
:1016F000AB5E002BEED10025002D39D0291E37D04E
:101700006B46DB79002B00D1ABE0013BDBB2002262
:10171000200000F0C1F9002800D0ABE122000C321B
:10172000637C002B00D1A2E0237C002B00D1B8E029
:10173000202B0AD8092B08D3093BDBB201229A409F
:101740001300A54A134200D0B2E0012323720028FF
:1017500000D091E123000C33627C002A00D1AAE082
:10176000237C7D2B00D0C0E0002363745146BDE094
:1017700000232268137061682268501A09AB09912E
:101780000A90012119720132226003AA03CB03C21D
:101790001B78137063695A6810329D68AA4213D887
:1017A000103D9D60002D11D042465268002A2FD076
:1017B00019688A4202D3DB689A4209D3874B884A68
:1017C0001421884809F0E8FC01221A74002527E05A
:1017D000002D0BD0AB1A1911834883420CDB8348D0
:1017E00083420FDC518143465D6014E0804B814AA7
:1017F0004721814809F0D0FC804B7E4A48217E4831
:1018000009F0CAFC7E4B7B4A4A217B4809F0C4FCA4
:1018100043461D605D6000236B8100222A72EB60ED
:10182000002D00D124E106AA03AB83CB83C2069B23
:10183000002B0BD006AA127A012A0DD0297A802219
:1018400052420A432A72EB60290059E76D4B6E4AF7
:101850005021694809F0A0FC297A7E320A402A7298
:10186000F1E76A4B6A4A13216A4809F095FC9379BB
:10187000002B0BD1E368591CE1601B78002B0BDDBA
:10188000002B0CDB1371012353714DE74F4B504A72
:101890002521504809F080FC01219171F0E70023D7
:1018A000F0E7237A002B01D1012050E702204EE718
:1018B0000023637432E79A79002A0BD1E268511C45
:1018C000E1601278002A0BDD002A0CDB1A7101227C
:1018D0005A7145E73D4B3E4A25213E4809F05CFCE4
:1018E00001219971F0E70022F0E70099002900D06A
:1018F000C4E023000C33627C002A4FD0237C2C2BC5
:1019000002D1002363745146002900D1B8E02200BF
:101910000C32637C002B00D180E0237C002B00D1B3
:1019200096E0202B0AD8092B08D3093BDBB2012211
:101930009A401300284A134200D090E001232372FA
:10194000002800D09EE02368636023000C33627C93
:10195000002A00D1A6E5237C272B00D125E6222BE7
:1019600000D122E620000C30637C002B00D1B3E5CF
:10197000237C002B00D1C9E52F2B02D9392B00D8AD
:10198000CBE55E2B02D97A2B00D8C8E5402B00D8D6
:10199000C7E55A2B00D8C9E50099C3E59A79002A12
:1019A0000BD1E268551CE5601278002A0BDD002A95
:1019B00032DB1A7101225A71A0E7044B044A253127
:1019C000044809F0E9FB01259D71F0E73C6A01102C
:1019D000446A0110C46A0110130080002C710110C8
:1019E00040710110CC7101100000F8FFF0FF0700FA
:1019F000307201103C720110A872011008730110BE
:101A0000447301108073011084730110E07301109E
:101A1000EC730110747401100022CAE79379002B53
:101A20000BD1E368591CE1601B78002B0BDD002B08
:101A30000CDB1371012353716FE7144B144A2521FA
:101A4000144809F0A9FB01219171F0E70023F0E7A8
:101A5000237A002B01D1012072E7022070E70023D6
:101A6000637454E70600A4E40600A2E40326A0E49D
:101A700004269EE406009CE406009AE4060098E42E
:101A8000032696E4060094E4052692E43C6A0110DD
:101A9000446A0110C46A011070B586B004000E00DB
:101AA00022000C32617C002928D0227C002A3FD001
:101AB000202A09D8092A07D3093AD2B20121914034
:101AC0000A00BA490A423AD1012222720025002DA9
:101AD00000D08EE022000C32617C002932D0227CC2
:101AE0007B2A00D94AE15B2A46D35B3AD1B220294E
:101AF00000D943E18A00AE498A5897469179002976
:101B00000BD1E168481CE060097800290BDD002951
:101B10000CDB117101215171C7E7A64BA64A2521A3
:101B2000A64809F039FB01209071F0E70021F0E7A9
:101B3000227A002A01D10125C9E70225C7E7002240
:101B40006274ADE7917900290BD1E168481CE0602F
:101B5000097800290BDD00290CDB1171012151717D
:101B6000BDE7944B944A2521944809F015FB0120C8
:101B70009071F0E70021F0E7222A02D0272A00D056
:101B8000FCE0236863602000FFF77CF8051E30D17D
:101B900000232268137061682268501A03AB039116
:101BA000049001211972013222606A4613CB13C2DC
:101BB000009A002A30D06B461B7A012B32D0337A40
:101BC0007F218B43337205210B4333723260019BBB
:101BD00073600EE0327A7F218A43327240210A43D9
:101BE00032720022326072603100200000F09EF9F3
:101BF0000500280006B070BD327A7F218A43327218
:101C000020210A43327200223260726031002000CB
:101C1000FFF79EFB0500ECE7694B6A4ACC216A4856
:101C200009F0BAFA337A7F218B43337204210B43D4
:101C30003372CBE7337A7F22934333720622134306
:101C4000337201233370614B14E05A4B5A4A2521F9
:101C50005A4809F0A1FA012090711CE0117101218C
:101C60005171227C002A1AD019788A4219D1013385
:101C7000002262741D78002DBBD022000C32617CE2
:101C80000029EED191790029DFD1E168481CE0609C
:101C900009780029DFDD0029E0DA0021DEE70225EE
:101CA000A7E70325A5E7337A7F2293433372062201
:101CB0001343337200233370454B14E03D4B3E4ACF
:101CC00025213E4809F068FA012090711DE011714C
:101CD00001215171227C002A1BD019788A421AD125
:101CE0000133002262741D78002D00D181E72200AB
:101CF0000C32617C0029EDD191790029DED1E168B7
:101D0000481CE06009780029DEDD0029DFDA0021C7
:101D1000DDE702256DE703256BE72E4B14E0254B2D
:101D2000254A2521254809F037FA012090711DE048
:101D3000117101215171227C002A1BD019788A422D
:101D40001AD10133002262741D78002D00D150E7B2
:101D500022000C32617C0029EDD191790029DED17D
:101D6000E168481CE06009780029DEDD0029DFDA3F
:101D70000021DDE702253CE703253AE721000C318D
:101D8000637C002B02D0227C2B004FE08B79002B50
:101D900022D1E3685A1CE2601B78002B22DD002B65
:101DA00023DB0B7101234B71EDE7C046130080006C
:101DB000B07501103C6A0110446A0110C46A011038
:101DC000D0860110F474011050750110DC740110FC
:101DD000E4740110EC7401102B4B2C4A25212C4883
:101DE00009F0DAF901228A71D9E70023D9E7012045
:101DF00002E0012000E00120002838D03E2B36D838
:101E000000206074581CC0B2E3181A768B79002B3E
:101E100022D10B685A1C0A601B78002B22DD002B94
:101E200023DB0B7101234B71227C03002F2A01D984
:101E3000392ADED92B2ADED02D2A07D02E2A07D028
:101E4000652A07D0452AD2D00020D5E70120D3E764
:101E50000120D1E70120CFE70B4B0C4A25210C488C
:101E600009F09AF901228A71D9E70023D9E7E3182A
:101E700000221A76200018303100FEF705FC0028F9
:101E800000D0B6E60325B4E63C6A0110446A0110AE
:101E9000C46A0110F0B5C64600B59CB004000D0040
:101EA0000800FEF795FDFEF795FD060018239846FD
:101EB000A0441BAB0A225A7018AF1B883B802368D2
:101EC0006360E368A360002323741632A35C7F2160
:101ED0008B43A35429680023220019A8FEF786FD2E
:101EE0001A9B0093199B3200210002A8FEF780FD87
:101EF0007B780022414602A8FFF7CEFD002808D1DA
:101F000002AB1B7C002B04D043461B7A1B0700D579
:101F100003201CB080BCB846F0BD00B583B0019171
:101F200001A9FFF7B7FF03B000BD0000F0B5C6463A
:101F300000B504000E001D1CDBB2002B00D17DE1BA
:101F400003000C33427C002A1FD0237C5B2B36D14C
:101F50000023637423000C33627C002A35D0227C7A
:101F6000002A4CD0202A08D8092A06D3093AD2B22E
:101F700001239340B34A134248D101232372002026
:101F8000002846D080BCB846F0BD9A79002A0BD113
:101F9000C268511CC1601278002A0BDD002A0CDBDC
:101FA0001A7101225A71D0E7A74BA84A2521A848E7
:101FB00009F0F2F801219971F0E70022F0E7A54B52
:101FC000A54A9E21A54809F0E7F89A79002A0BD185
:101FD000E268511CE1601278002A0BDD002A0CDB5C
:101FE0001A7101225A71BAE7974B984A25219848ED
:101FF00009F0D2F801219971F0E70022F0E7237A85
:10200000002B01D10120BBE70220B9E70023637454
:10201000A0E723000C33627C002A09D0237C5D2BCF
:1020200020D1002363740127002F00D18BE0A9E7A2
:102030009A79002A0BD1E268511CE1601278002ADB
:102040000BDD002A0CDB1A7101225A71E6E77E4B88
:102050007E4A25217E4809F09FF801219971F0E719
:102060000022F0E70027DFE701221A74002127E0B1
:1020700000290CD08B1A18118046794883420CDB5A
:10208000784883420FDC43465381716013E0764BFE
:10209000764A4731764809F07FF8764B734A4821F3
:1020A000734809F079F8744B704A4A21704809F076
:1020B00073F83160716000234B8100220A72CB609B
:1020C000002900D1BCE0EBB2002B55D0013BDBB2C4
:1020D00000222000FFF7E0FC002800D052E7230098
:1020E0000C33627C002A4DD0237C002B64D0202B43
:1020F00009D8092B07D3093BDBB201229A40130010
:10210000504A13425FD101232372002800D039E7DF
:1021100023000C33627C002A58D0237C5D2B6FD1C6
:10212000002363740133002B00D02BE722000C3214
:10213000617C002966D0227C2C2A02D100236374A2
:102140000133002B78D063695A68103299688A424B
:102150008AD810399960002988D07268002AA8D0DE
:102160001868824202D3DB689A4281D3434B444AC7
:102170001421444809F010F8434B444A13214448C1
:1021800009F00AF89A79002A0BD1E268511CE16043
:102190001278002A0BDD002A0CDB1A7101225A7119
:1021A000A2E7294B294A2521294808F0F5FF0121FA
:1021B0009971F0E70022F0E7237A002B01D101208A
:1021C000A3E70220A1E70023637488E79A79002A35
:1021D0000BD1E268511CE1601278002A0BDD002A65
:1021E0000CDB1A7101225A7197E7174B174A252108
:1021F000174808F0D1FF01219971F0E70022F0E7BC
:102200003B0090E7917900290BD1E168481CE06020
:10221000097800290BDD00290CDB117101215171B6
:1022200089E7094B094A2521094808F0B5FF012033
:102230009071F0E70021F0E70320A3E60520A1E676
:1022400004209FE6130080003C6A0110446A0110DC
:10225000C46A01103476011048760110BC6F011079
:102260000000F8FFF0FF0700307201103C7201100F
:10227000A872011008730110447301102C71011031
:1022800040710110CC710110E0730110EC7301106A
:102290007474011070B50D00002820D0037A9B06DD
:1022A0001BD5041E17D0002912D00468002C12D0B0
:1022B000E068FEF7E3F901002800FEF7E5FF0028DB
:1022C00009D10A22A35E002B04D01B01E418EDE71C
:1022D0000C0000E00024200070BD0024FBE7040097
:1022E000F9E7000070B588B004000E0005681835E5
:1022F0004068FEF7C3F901002800FFF7CBFF002874
:1023000016D0027A7F231340082B07D00A2B0AD05D
:10231000002000280ED1306808B070BD4168006808
:10232000FEF7C0FBF5E741680068FEF7C6FBF0E783
:102330000020EEE7256818356068FEF79FF9010078
:102340002800FFF7A7FF00284FD0027A7F23134011
:10235000043BDAB2082A46D89300254AD3589F4650
:102360000078D9E741680068FEF7BCFBD4E7416814
:102370000068FEF7C1FBCFE7006800236A461372CE
:102380006946FEF781F96B461A7A7F231340043BB6
:10239000DAB2082A20D89300164AD3589F466B46D3
:1023A0001878B9E700980199FEF79CFBB4E700980C
:1023B0000199FEF7A1FBAFE704AC002323722100D3
:1023C0000098FEF761F92000FEF706FFA4E70098E9
:1023D0000199FEF7F3FE9FE700209DE74168006842
:1023E000FEF7ECFE98E7002096E7002094E7C04651
:1023F000F87701101C78011070B58CB004000E0045
:10240000056818354068FEF739F901002800FFF724
:1024100041FF002800D198E0037A1B0700D494E024
:10242000256818356068FEF729F901002800FFF7D4
:1024300031FF002800D185E0027A7F231340043B5E
:10244000DAB2082A00D97AE09300424AD3589F466C
:1024500000780AF039FB7AE0416800680AF08CFBEA
:1024600075E0416800680AF07BFB70E000686C462C
:10247000002323722100FEF707F9002C59D0217A9E
:102480007F230B40043BD9B208294FD88B00324937
:10249000CB589F4620780AF017FB58E02068616807
:1024A0000AF06AFB53E0206861680AF059FB4EE0CD
:1024B000206804AC002323722100FEF7E5F8002C0D
:1024C0002ED0217A7F230B40043BD9B2082924D88F
:1024D0008B002249CB589F4620780AF0F5FA36E067
:1024E000206861680AF048FB31E0206861680AF002
:1024F00037FB2CE0206808AC002323722100FEF794
:10250000C3F8002C03D02000FEF798FA1FE000204B
:1025100000211CE02068616819E00020002116E01D
:102520000020002113E02068616810E000200021F5
:102530000DE0002000210AE04168006807E000206B
:10254000002104E00020002101E0306871680CB037
:1025500070BDC04640780110647801108878011081
:1025600070B588B004000E0085680069FEF786F833
:1025700001002800FFF78EFE05006069FEF77EF877
:1025800001002800FFF786FE002816D0027A7F237C
:102590001340082B07D00A2B0AD0002000280ED1A8
:1025A000306808B070BD41680068FEF77BFAF5E757
:1025B00041680068FEF781FAF0E70020EEE7A568C1
:1025C0002069FEF75BF801002800FFF763FE0500B5
:1025D0006069FEF753F801002800FFF75BFE002852
:1025E0004FD0027A7F231340043BDAB2082A46D840
:1025F0009300254AD3589F460078D2E74168006887
:10260000FEF770FACDE741680068FEF775FAC8E793
:10261000006800236A4613726946FEF735F86B4678
:102620001A7A7F231340043BDAB2082A20D8930099
:10263000164AD3589F466B461878B2E7009801991E
:10264000FEF750FAADE700980199FEF755FAA8E7B2
:1026500004AC0023237221000098FEF715F8200037
:10266000FEF7BAFD9DE700980199FEF7A7FD98E7F0
:10267000002096E741680068FEF7A0FD91E7002082
:102680008FE700208DE7C046AC780110D0780110AC
:10269000F0B5DE4657464E464546E0B5EF4CA544FC
:1026A00000230593069307930D930E930F93002039
:1026B00012F0DEFA002800D1B1E1002006F044FB60
:1026C00012F02CFB0122E649E6480EAB9C46604422
:1026D00010F08EFE041E00D04CE2E34BE34AE449C6
:1026E0000EA884466144E348604411F041FA041E98
:1026F00000D04CE20122E0490EAB9C466144DF4829
:10270000604410F0A3FE041E02D0082800D04BE263
:102710000023DB4A0EA98C4662441360A022D84BEA
:1027200063449201D7496144D448604411F03CF8B5
:102730000290002800D048E207F0B0FE002900DA3D
:1027400056E2D14A002309F025FF100019000AF0D3
:1027500013FA0022CD4B0AF02CF902000B00CC48F2
:102760000BF044F9C64B0EAA944663441968C94855
:102770000BF03CF940AB4AAA40924192C64A0EA9DE
:102780008C4662444292C44A6244439200221A74C4
:102790001A0020230021D154BA4961441000FFF7E8
:1027A000BCFBC3B25A1E9341DAB20492002B00D094
:1027B00024E240ACB94B0EAA944663441C60B8486E
:1027C000B84B63441860FDF759FF010046A8FFF7B6
:1027D00061FDFEF751FCB44D2870B44B0EAA94462F
:1027E00063441C60B24BB34A624413600A23B24A8A
:1027F000624413601100AD486044FFF773FDAF4BB6
:102800001870AF4B0EAA944663441C60AD4BAE4AA1
:10281000624413609623AD4A624413601100A848D5
:102820006044FFF75FFDAA4B1870AA4B0EAA9446AE
:1028300063441C60A84BA94A624413600F23A84A52
:10284000624413601100A3486044FFF74BFDA54BA1
:102850001870A54B0EAA944663441C60A34BA44A6F
:10286000624413601E23A34A6244136011009E4811
:102870006044FFF737FDA04B1870A04B0EAA94469A
:1028800063441C609E4B9F4A6244136000229E4B2F
:102890009E4961440A604B609C496144974860448A
:1028A000FFF7AAFD0AF074F9994B1860AF23DB011A
:1028B0000EAA944663441C60964B974A6244136088
:1028C0000022964B964961440A604B6094496144EA
:1028D000AF20C0016044FFF78FFD0AF059F9914B1A
:1028E00018602B78002B00D19DE18F4B0EAA9446E7
:1028F000634440AA1A608D488D4B63441860FDF70D
:10290000BDFE010046A8FFF7C5FC8A490EAB9C46F8
:102910006144086040AB4B60082220A80AF0A0FE8A
:10292000209B219A002B03D0197A890600D483E1D9
:1029300038933992804B0EAA9446634440AA1A6099
:102940007E487F4B63441860FDF798FE010046A85F
:10295000FFF7A0FCBC21C9010EAB9C466144086096
:1029600040AB4B60082220A80AF07AFE209B219AF7
:10297000002B03D0197A890600D45FE13A933B9289
:10298000704B0EAA9446634440AA1A606E486F4B7F
:1029900063441860FDF772FE010046A8FFF77AFC59
:1029A0006B490EAB9C466144086040AB4B6008220B
:1029B00020A80AF055FE209B219A002B03D0197AFB
:1029C000890600D43CE13C933D92624B0EAA9446AA
:1029D000634440AA1A606048604B63441860FDF786
:1029E0004DFE010046A8FFF755FC5D490EAB9C4625
:1029F0006144086040AB4B60082220A80AF030FE1A
:102A0000209B219A002B03D0197A890600D419E162
:102A10003E933F920027FF230C9301F054FD07F0F3
:102A20003DFD002914DB184A002309F0B3FD100016
:102A300019000AF0A1F80022144B09F0BAFF0200B5
:102A40000B0013480AF0D2FF46480AF09FFF34E615
:102A5000454B464A3F21464808F09EFB3C9EFFFFFF
:102A6000087901107052000024790110386A0110B1
:102A7000F85000001852000012510000D854000015
:102A8000F4280000F828000040420F0000408F406A
:102A9000DC62011088790110F0280000385700002E
:102AA000747B01103C570000D930002040570000D3
:102AB0007C7B01104457000048570000C80F0020DD
:102AC0004C570000847B0110505700005457000001
:102AD000C90F002058570000907B01105C57000080
:102AE00060570000BE0F002064570000987B011063
:102AF000685700006C570000CA0F00207057000094
:102B0000A47B011074570000000026407857000095
:102B1000C40F0020B07B0110845700000000284043
:102B200088570000C00F002090570000D47B011090
:102B300094570000085E000098570000DC7B0110ED
:102B40009C570000A0570000E47B0110A457000030
:102B5000F85D0000A8570000EC7B0110AC570000A6
:102B6000F05D0000F4780110406201105C62011019
:102B700094620110D0231B0640225A6140329A61B0
:102B800012F040FA01002200DF4808F09FFBD0233A
:102B90001B0640225A6140329A6112F033FA01005A
:102BA0002200DA4808F092FBD0231B0640225A612B
:102BB00040329A6112F026FA02002300D4490EA88E
:102BC00084466144D34808F081FBD0231B06402291
:102BD0005A6140329A61029C200012F013FA0200FE
:102BE0002300CB490EA884466144CB4808F06EFB15
:102BF000CA4BCB4A3F21CB4808F0CEFAD0231B0664
:102C000040225A6140329A61C0B2052805D880003E
:102C1000C54BC158C54808F059FBC54BC54A4521AD
:102C2000C54808F0B9FAD0231B0640225A61403249
:102C30009A61C24808F04AFB002379E600239DE62A
:102C40000023C0E60023E3E6002401F072FC00202C
:102C500000E00020FEF710FA804620ACF90038AB07
:102C60009C466144082220000AF0FAFCB44B0EAAEC
:102C70009446634406CC06C3B24BB34A6244136025
:102C8000B2496144B24B6344AD4A624411CA11C3B4
:102C9000AD4B63441B68CB60AE4D6544AE4B6344A3
:102CA000AB4A624411CA11C3CB682B61AB4B6B6159
:102CB000AB4C6444AB4E66440822A74961443000E3
:102CC0000AF0CEFC2B6923616B6963611BAA0ACEF3
:102CD0000AC220691D90636903931E9301231F9309
:102CE0001B9CFDF7CBFC01002000FFF7D3FA04008A
:102CF0001E9B03931800FDF7C1FC01002000FFF7A5
:102D0000C9FA1F9B002815D0027A520611D5002857
:102D100010D0006800280DD05A1E002B0AD00A21BE
:102D2000435E002B03D01B01C0181300F4E7002002
:102D300000E00020FEF7A0F9824620AEF90038AB93
:102D40009C466144082230000AF08AFC864B0EAA99
:102D500094466344320003CA03C37A4B834A6244F5
:102D6000136083496144834B63447F4A624411CAC0
:102D700011C37E4B63441B68CB607F4D65447F4B22
:102D800063447C4A624411CA11C3CB682B61734B04
:102D90006B61BF24E4016444794B63449B46082281
:102DA0007649614418000AF05BFC2B6923616B696A
:102DB000636123AB5A4603CA03C320692590636944
:102DC000269302232793239CFDF758FC0100200043
:102DD000FFF760FA04002698FDF750FC0100200080
:102DE000FFF758FA279B002815D0027A520611D512
:102DF000002810D0006800280DD05A1E002B0AD0E1
:102E00000A21435E002B03D01B01C0181300F4E716
:102E1000002000E00020FEF72FF9009053464246C4
:102E20000221484605F07AFF20ACF90038AB9C46F9
:102E30006144082220000AF013FC524B0EAA94466B
:102E4000634406CC06C3504B504A62441360504B57
:102E500063444C4A624403CA03C34C4B63441B683B
:102E600003934C4B6344039A1A604B4D65444B4BA0
:102E70006344474A624403CA03C3464B63441B6826
:102E80002B61364B6B61464C6444464E66440822C7
:102E90004249614430000AF0E3FB2B6923616B690E
:102EA000636113AB06CE06C3206915906369039373
:102EB000169300231793139CFDF7E0FB01002000FD
:102EC000FFF7E8F90400169B03931800FDF7D6FB03
:102ED00001002000FFF7DEF9179B002865D0027A79
:102EE000520661D5002860D0006800285DD05A1EC7
:102EF000002B5AD00A21435E002B03D01B01C018BF
:102F00001300F4E7002050E00C790110347901102F
:102F100012510000507901106C79011040620110CB
:102F20005C62011094620110980F00205C7B01101C
:102F3000607A0110A47A0110EC7A0110C07B0110B4
:102F4000FC580000FC7B011004590000C05F000029
:102F5000C45F0000E0580000E8580000147C011035
:102F6000A85F0000B05F0000245900002C59000049
:102F7000985F00009C5F0000085900001059000095
:102F8000885F00004C590000187C01105459000063
:102F9000745F00007C5F0000305900003859000069
:102FA000585F0000605F00000020FEF765F8804673
:102FB00020ACF90038AB9C466144082220000AF09E
:102FC0004FFBAB4B0EAA9446634406CC06C3A94BF9
:102FD000A94A62441360A94B6344A54A624403CAE8
:102FE00003C3A54B63441B680393A54B6344039A37
:102FF0001A60A44D6544A44B6344A04A624403CACA
:1030000003C39F4B63441B682B61A04B6B61A04CB7
:103010006444A04E664408229B49614430000AF093
:103020001FFB2B6923616B6963611BAA0ACE0AC26D
:1030300020691D90636903931E9301231F931B9CBA
:10304000FDF71CFB01002000FFF724F904001E9B84
:1030500003931800FDF712FB01002000FFF71AF997
:103060001F9B002815D0027A520611D5002810D0D7
:10307000006800280DD05A1E002B0AD00A21435E9A
:10308000002B03D01B01C0181300F4E7002000E060
:103090000020FDF7F1FF824620AEF90038AB9C46D8
:1030A0006144082230000AF0DBFA7B4B0EAA9446FA
:1030B0006344320003CA03C36E4B784A6244136010
:1030C000774B6344744A624403CA03C3734B63443B
:1030D0001B680393734B6344039A1A60B325ED0195
:1030E0006544714B63446E4A624403CA03C36D4B2B
:1030F00063441B682B61654B6B616C4C64446C4B87
:1031000063449B4608226849614418000AF0A8FA03
:103110002B6923616B69636123AB5A4603CA03C3FE
:10312000206925906369269302232793239CFDF74A
:10313000A5FA01002000FFF7ADF804002698FDF77E
:103140009DFA01002000FFF7A5F8279B002815D065
:10315000027A520611D5002810D0006800280DD040
:103160005A1E002B0AD00A21435E002B03D01B01FC
:10317000C0181300F4E7002000E00020FDF77CFFFA
:103180000090534642460121484605F0C7FD20AC59
:10319000F90038AB9C466144082220000AF060FA2E
:1031A000444B0EAA9446634406CC06C3424B434AA2
:1031B00062441360424B63443E4A624403CA03C301
:1031C0003E4B63441B6803933E4B6344039A1A606F
:1031D0003D4D65443D4B6344394A624403CA03C3D1
:1031E000384B63441B682B61284B6B61384C64443B
:1031F000384E664408223549614430000AF030FAFE
:103200002B6923616B69636113AB06CE06C320692A
:10321000159063690393169300231793139CFDF78E
:103220002DFA01002000FFF735F80400169B0393E8
:103230001800FDF723FA01002000FFF72BF8179B79
:1032400000284AD0027A520646D5002845D00068A8
:10325000002842D05A1E002B3FD00A21435E002B8B
:1032600003D01B01C0181300F4E7002035E0C0466E
:1032700074590000187C01107C5900004C5F00005C
:10328000545F00005859000060590000147C011080
:10329000305F0000385F00009C590000A459000016
:1032A000245F00002C5F000088590000085F0000C8
:1032B000105F0000C45900000C7C0110CC590000C4
:1032C000FC5E0000045F0000A8590000B059000037
:1032D000E05E0000E85E00000020FDF7CDFE8046C5
:1032E00020ACF90038AB9C466144082220000AF06B
:1032F000B7F9AB4B0EAA9446634406CC06C3A94B60
:10330000A94A62441360A94B6344A54A624403CAB4
:1033100003C3A54B63441B680393A54B6344039A03
:103320001A60A44D6544A44B6344A04A624403CA96
:1033300003C39F4B63441B682B61A04B6B61A04C84
:103340006444A04E664408229B49614430000AF060
:1033500087F92B6923616B6963611BAA0ACE0AC2D4
:1033600020691D90636903931E9301231F931B9C87
:10337000FDF784F901002000FEF78CFF04001E9B7E
:1033800003931800FDF77AF901002000FEF782FF91
:103390001F9B002815D0027A520611D5002810D0A4
:1033A000006800280DD05A1E002B0AD00A21435E67
:1033B000002B03D01B01C0181300F4E7002000E02D
:1033C0000020FDF759FE824620AEF90038AB9C463E
:1033D0006144082230000AF043F97B4B0EAA944660
:1033E0006344320003CA03C36E4B784A62441360DD
:1033F000774B6344744A624403CA03C3734B634408
:103400001B680393734B6344039A1A60724D6544BF
:10341000B423DB0163446E4A624403CA03C36D4BA9
:1034200063441B682B61654B6B616C4C64446C4B53
:1034300063449B460822B421C901614418000AF084
:103440000FF92B6923616B69636123AB5A4603CA89
:1034500003C3206925906369269302232793239C45
:10346000FDF70CF901002000FEF714FF0400269878
:10347000FDF704F901002000FEF70CFF279B002850
:1034800015D0027A520611D5002810D00068002805
:103490000DD05A1E002B0AD00A21435E002B03D008
:1034A0001B01C0181300F4E7002000E00020FDF726
:1034B000E3FD0090534642460021484605F02EFCAD
:1034C00020ACF90038AB9C466144082220000AF089
:1034D000C7F8444B0EAA9446634406CC06C3424B3D
:1034E000424A62441360424B63443E4A624403CA08
:1034F00003C33E4B63441B6803933E4B6344039AF0
:103500001A603D4D65443D4B6344394A624403CAE9
:1035100003C3384B63441B682B61284B6B61384CE9
:103520006444384E664408223449614430000AF04D
:1035300097F82B6923616B69636113AB06CE06C3F1
:103540002069159063690393169300231793139CC6
:10355000FDF794F801002000FEF79CFE0400169B86
:1035600003931800FDF78AF801002000FEF792FE91
:10357000179B002849D0027A520645D5002844D02E
:103580000068002841D05A1E002B3ED00A21435E1D
:10359000002B03D01B01C0181300F4E7002034E017
:1035A000EC5900000C7C0110F4590000D45E0000BE
:1035B000DC5E0000D0590000D8590000147C0110D6
:1035C000B85E0000C05E0000145A00001C5A0000E3
:1035D000AC5E0000B45E0000F8590000905E000090
:1035E000985E00003C5A0000207C0110445A000004
:1035F000845E00008C5E0000205A0000285A000003
:10360000685E0000705E00000020FDF735FD80461A
:1036100020ACF90038AB9C466144082220000AF037
:103620001FF8774B0EAA9446634406CC06C3754B2D
:10363000754A62441360754B6344714A624403CA1D
:1036400003C3714B63441B680393714B6344039A38
:103650001A60704D6544704B63446C4A624403CAFF
:1036600003C36B4B63441B682B616C4B6B616C4CED
:1036700064446C4E6644082267496144300009F096
:10368000EFFF2B6923616B6963611BAA0ACE0AC233
:1036900020691D90636903931E9301231F931B9C54
:1036A000FCF7ECFF01002000FEF7F4FD04001E9B78
:1036B00003931800FCF7E2FF01002000FEF7EAFD8B
:1036C0001F9B002815D0027A520611D5002810D071
:1036D000006800280DD05A1E002B0AD00A21435E34
:1036E000002B03D01B01C0181300F4E7002000E0FA
:1036F0000020FDF7C1FC824620AEF90038AB9C46A5
:1037000061440822300009F0ABFF474B0EAA9446F3
:103710006344320003CA03C33A4B444A6244136011
:10372000434B6344404A624403CA03C33F4B634470
:103730001B6803933F4B6344039A1A603E4D6544F4
:103740003E4B63443A4A624403CA03C3394B634461
:103750001B682B61314B6B61394C6444394B6344BA
:103760009B46082235496144180009F079FF2B690E
:1037700023616B69636123AB5A4603CA03C32069A3
:1037800025906369269302232793239CFCF776FFF9
:1037900001002000FEF77EFD04002698FCF76EFF76
:1037A00001002000FEF776FD279B002815D0027A45
:1037B000520611D5002810D0006800280DD05A1EDE
:1037C000002B0AD00A21435E002B03D01B01C01836
:1037D0001300F4E7002000E00020FDF74DFC00900E
:1037E000534642460321484605F098FABB00DB19D0
:1037F000DB00154AD31800221A71002500F099FD4C
:10380000645A0000207C01106C5A00005C5E0000CD
:10381000645E0000485A0000505A0000147C0110F9
:10382000405E0000485E00008C5A0000945A000080
:10383000345E00003C5E0000705A0000785A0000C0
:10384000185E0000205E0000401D002020ADF90041
:1038500038AB9C4661440822280009F001FFFB4A6E
:103860000EAB9C466244FA4B6344290041C941C3F4
:10387000F848D060966853689846FCF7FFFE010050
:103880004046FEF707FDF4490EAB9C4661440860D4
:103890004E600822280009F0E3FE209B219A002BAD
:1038A00004D0197A890601D400F0BCFCEB490EA8BB
:1038B000844661440B60EA4961440A60002B01D1EF
:1038C00000F0B3FC20AEFB0038AA914699440822D0
:1038D0004946300009F0C4FEE24B0EAA9446634408
:1038E000320003CA03C3DB4B9A46DF4B63445246A4
:1038F0001A60C121C9016144DC4B6344D94A624466
:1039000021CA21C3D84B63441B680391CB60D84DB7
:103910006544D84B6344D54A624403CA03C3039940
:10392000C8682861D44B6B61AB689846FCF7A6FE6B
:1039300001004046FEF7AEFC80466869FCF79EFE3B
:1039400001004046FEF7A6FCFDF796FB80460822E4
:103950004946300009F084FEC84B0EAA94466344E1
:10396000320003CA03C3C64B634452461A60C549BA
:103970006144C54B6344C14A624421CA21C3C04B60
:1039800063441B680391CB60C04D6544C04B6344E6
:10399000BD4A624403CA03C30399C8682861BD4B8A
:1039A0006B61AB689B46FCF769FE01005846FEF769
:1039B00071FC83466869FCF761FE01005846FEF71A
:1039C00069FCFDF759FB059008224946300009F0D3
:1039D00047FEB14B0EAA9446634406CE06C3AF4BD6
:1039E000634452461A60AE496144AE4B6344AA4AEE
:1039F000624421CA21C3A94B63441B68CB60AA4B14
:103A00006344A84A624421CA21C3CB680393A74BED
:103A10006344039A1A60A64BA64A62441360FF23CC
:103A2000A54A624413601100B620C0016044FEF74D
:103A300097FDC3B20D9320ADF90038AB9C466144AD
:103A40000822280009F00CFE9C4A0EAB9C466244FA
:103A50009B4B6344290041C941C39A48D060966892
:103A600053689946FCF70AFE01004846FEF712FC2F
:103A700095490EAB9C46614408604E6008222800C0
:103A800009F0EEFD209B219A002B03D0197A8906BC
:103A900000D4CEE38D490EA8844661440B608C4966
:103AA00061440A60002B00D1C5E320AEFB0038AAB8
:103AB0009146994408224946300009F0D1FD854BD2
:103AC0000EAA94466344320003CA03C37D4B9A4650
:103AD000814B634452461A6080496144804B634481
:103AE0007C4A624421CA21C37B4B63441B68039117
:103AF000CB607C4D65447C4B6344794A624403CA85
:103B000003C30399C86828615B4B6B61AB689B4634
:103B1000FCF7B4FD01005846FEF7BCFB834668691C
:103B2000FCF7ACFD01005846FEF7B4FBFDF7A4FA24
:103B3000039008224946300009F092FD6B4B0EAA13
:103B400094466344320003CA03C3694B634452463C
:103B50001A6068496144684B6344644A624421CAFC
:103B600021C3634B63441B680691CB60634D65447E
:103B7000634B6344604A624403CA03C30699C8683E
:103B80002861444B6B61AB689B46FCF777FD0100F5
:103B90005846FEF77FFB83466869FCF76FFD01001E
:103BA0005846FEF777FBFDF767FA0690082249466C
:103BB000300009F055FD534B0EAA9446634406CEDF
:103BC00006C3514B634452461A6050496144504BFE
:103BD00063444C4A624421CA21C34B4B63441B6873
:103BE000CB604C4B63444A4A624421CA21C3CB6830
:103BF0000893494B6344089A1A602D4B474A624424
:103C00001360FF23464A6244136011004548604434
:103C1000FEF7A6FCC3B20E9320ADF90038AB9C466C
:103C200061440822280009F01BFD3F4A0EAB9C4668
:103C300062443E4B6344290041C941C33C48D060C3
:103C4000966853689946FCF719FD73E0A05A000086
:103C5000A45A00000C7C011058600000985A000023
:103C60009C5A0000CC5A0000D45A00008460000026
:103C7000B05A0000B85A0000007C0110F45A00004D
:103C8000FC5A00007060000074600000D85A000008
:103C9000E05A0000047C01101C5B0000245B000063
:103CA0006060000064600000085B0000105B0000C2
:103CB000287C0110145B0000285B0000345B0000CE
:103CC000385B0000187C0110906000002C5B000045
:103CD000305B0000605B0000685B0000B8600000C3
:103CE000BC600000445B00004C5B0000885B00008F
:103CF000905B0000A8600000AC6000006C5B0000FE
:103D0000745B0000B05B0000B85B000098600000CE
:103D10009C6000009C5B0000A45B0000A85B0000AE
:103D2000BC5B0000945B0000C85B0000CC5B000043
:103D3000FC7B011001004846FEF7ACFAFA490EABD5
:103D40009C46614408604E600822280009F088FC07
:103D5000209B219A002B03D0197A890600D46DE2AA
:103D6000F2490EA8844661440B60F14961440A603F
:103D7000002B00D164E220ADFB0038AA91469944A3
:103D800008224946280009F06BFCEA4B0EAA94462B
:103D900063442A0003CA03C3E74B9A46E74B6344D4
:103DA00052461A60E6496144E64B6344E14A624484
:103DB00041CA41C3E14B63441B680791CB60E24EAB
:103DC0006644E24B6344DF4A624403CA03C3079973
:103DD000C8683061DE4B7361B3689B46FCF74EFCEC
:103DE00001005846FEF756FA83467069FCF746FC18
:103DF00001005846FEF74EFAFDF73EF908900822FA
:103E00004946280009F02CFCD24B0EAA9446634484
:103E10002A0003CA03C3D04B634452461A60CF49F9
:103E20006144CF4B6344CB4A624441CA41C3CA4B4D
:103E300063441B680791CB60B826F6016644C94B02
:103E40006344C74A624403CA03C30799C868306120
:103E5000C54B7361B3689B46FCF710FC01005846E4
:103E6000FEF718FA83467069FCF708FC0100584613
:103E7000FEF710FAFDF700F90790082249462800DE
:103E800009F0EEFBB94B0EAA9446634406CD06C377
:103E9000B74B634452461A60B6496144B64B63441B
:103EA000B24A624421CA21C3B14B63441B68CB6050
:103EB000B24B6344B04A624421CA21C3CB68099320
:103EC000AF4B6344099A1A60AE4BAF4A6244136029
:103ED000FF23AE4A624413601100AD486044FEF710
:103EE0003FFBC3B20F9320ADF90038AB9C46614451
:103EF0000822280009F0B4FBA64A0EAB9C46624497
:103F0000A54B6344290041C941C3A448D0609668C9
:103F100053689946FCF7B2FB01004846FEF7BAF930
:103F2000C221C9010EAB9C46614408604E60082264
:103F3000280009F095FB209B219A002B03D0197AC9
:103F4000890600D47FE196490EA8844661440B603F
:103F5000944961440A60002B00D176E120ACFE0058
:103F600038AB9C46664408223100200009F078FBFB
:103F70008D4B0EAA94466344220003CA03C3874BA9
:103F80009A468A4B634452461A6089496144894B78
:103F90006344854A624421CA21C3844B63441B683D
:103FA0000991CB60844D6544844B6344814A6244EB
:103FB00003CA03C30999C8682861654B6B61AB6884
:103FC0009946FCF75BFB01004846FEF763F9814622
:103FD0006869FCF753FB01004846FEF75BF9FDF703
:103FE0004BF8814608223100200009F039FB744B60
:103FF0000EAA94466344220003CA03C3714B634470
:1040000052461A6070496144704B63446C4A624482
:1040100021CA21C36B4B63441B680991CB606C4D73
:1040200065446C4B6344694A624403CA03C30999FB
:10403000C86828614C4B6B61AB689B46FCF71EFB64
:1040400001005846FEF726F983466869FCF716FB1F
:1040500001005846FEF71EF9FDF70EF80C900822F5
:104060003100200009F0FCFA5B4B0EAA9446634431
:1040700006CC06C3594B634452461A605849614402
:10408000584B6344544A624411CA11C3534B6344AE
:104090001B68CB60544B6344524A624411CA11C33B
:1040A000CB680993514B6344099A1A60354B504AC7
:1040B00062441360FF234F4A6244136011004E486C
:1040C0006044FEF74DFAC5B2182009F0CFFA04009B
:1040D0004B460193089B0093039B4246474904F0DB
:1040E0000DFCBB00DB19DB00454A9C50079809F02A
:1040F00072F98146069809F06EF98046059809F034
:104100006AF9061C0C9809F066F900904B46424685
:10411000311C200004F00CFC0D9A0021200004F05A
:1041200001FC0E9A6EE0C046C8600000C05B000053
:10413000C45B0000F45B0000FC7B0110FC5B000032
:10414000F0600000F4600000D85B0000E05B00005D
:10415000007C01101C5C0000245C0000E06000009A
:10416000E4600000085C0000047C0110445C000076
:104170004C5C0000D0600000D4600000305C0000A7
:10418000385C0000287C01103C5C0000505C0000A2
:10419000285C00005C5C0000605C0000207C01107A
:1041A000545C0000585C0000885C0000905C0000DB
:1041B000286100002C6100006C5C0000745C000051
:1041C000B05C0000B85C0000186100001C610000D9
:1041D000945C00009C5C0000D85C0000E05C000087
:1041E000086100000C610000C45C0000CC5C0000B1
:1041F000D05C0000E45C0000BC5C0000302A0020C1
:10420000401D00200121200004F08CFB0F9A0221A8
:10421000200004F087FB2A000321200004F082FB29
:10422000FFF7E4FA2300FFF741FBFF239846FFF76F
:1042300002FC23002EE4FF230393EDE423008FE52B
:10424000FF2308934FE623007DE6FF25FF239946D1
:104250003AE71B01C01813005A1E002B06D00A2192
:10426000435E002BF5D1002000E00020002852D052
:10427000017A7F230B40043BD9B2082949D88B002F
:104280004D49CB589F46007846E041680068FCF7EE
:104290004EFE41E041680068FCF762FE3CE00068C9
:1042A00000230EAA30241219137018A9FCF7ECF998
:1042B0000EAB1B191A787F231340043BDAB2082A8D
:1042C00020D893003D4AD3589F4618AB187823E076
:1042D00018981999FCF72BFE1EE018981999FCF70D
:1042E0003FFE19E020AB00221A7219001898FCF763
:1042F000CBF920A8FCF768FE0EE018981999FCF796
:1043000053FE09E0029807E041680068FCF74CFEA4
:1043100002E0029800E00298002809D0BB00DB19F7
:10432000DA00274B9B181A799918487101321A71D3
:104330000135052D54DC20ACF90038AB9C466144B6
:104340000822200009F08CF91E4B0EAA9446634403
:1043500006CC06C31C4B1D4A624413601C496144D1
:104360001C4B6344174A624411CA11C3174B634480
:104370001B68CB60184C6444184B6344154A624474
:1043800041CA41C3C86820616561A668FCF776F937
:1043900001003000FDF77EFF6369002800D165E76A
:1043A000027A520600D460E7002800D15EE7006878
:1043B000002800D050E759E7C87C0110EC7C0110C0
:1043C000401D0020045D0000347C01100C5D0000E5
:1043D000386100003C610000E85C0000F05C000017
:1043E000BB00DB19DB00F74AD3181B79002B00D187
:1043F00023E320ACF90038AB9C466144082220003E
:1044000009F02EF9F04B0EAA9446634406CC06C37D
:10441000EE48EF4B63441860EB4B63441C68FCF7B9
:104420002DF901002000FDF735FF002800D117E32A
:10443000027A7F231340082B00D107E30A2B00D117
:1044400009E30498002800D00CE3FF20BB00DB192F
:10445000DB00DC4AD318587420ACF90038AB9C461A
:1044600061440822200009F0FBF8DA4B0EAA9446BA
:10447000634406CC06C3D848D84B63441860D54B78
:1044800063441C68FCF7FAF801002000FDF702FF06
:10449000002800D105E3027A7F231340082B00D1C6
:1044A000F5E20A2B00D1F7E20498002800D0FAE2E6
:1044B0000620BB00DB19DA00C24B9B18D8742033EE
:1044C00000221A700137032F00DD2DE3FB0038AA0C
:1044D0009B58002BF6D020ADF90094466144082289
:1044E000280009F0BDF8BE4A0EAB9C466244BD4BA5
:1044F0006344290011C911C3BB48D0609468566851
:10450000FCF7BCF801003000FDF7C4FEB7490EAB64
:104510009C46614408604C600822280009F0A0F81D
:10452000209C219B002C04D0227A920601D4FEF715
:104530008BFBAF4A0EA98C4662441460AD4A6244BC
:104540001360002C01D1FFF781F920ACFD0038ABDE
:104550009C462B00634408229A461900200009F06B
:104560007FF8A54B0EAA94466344220003CA03C3F6
:10457000A24B9B46A24B63445A461A60A149614430
:104580000D00A14B63449C4A624441CA41C39C4B09
:1045900063441B68CB609D4E66449D4B63449A4ABE
:1045A000624403CA03C3E86830619A4B984673615A
:1045B000B3689946FCF762F801004846FDF76AFEC9
:1045C00081467069FCF75AF801004846FDF762FE23
:1045D000FCF752FD089008225346039351462000F1
:1045E00009F03EF88C4B0EAA94466344210044C95E
:1045F00044C38A4B634459461960894961440D009C
:10460000884B6344844A624441CA41C3834B634438
:104610001B68CB60844E6644844B6344814A624489
:1046200003CA03C3E8683061814B99467361B3687C
:104630009A46FCF723F801005046FDF72BFE824610
:104640007069FCF71BF801005046FDF723FEFCF7EC
:1046500013FD0990059008220399200009F000F845
:1046600074490EAB9C4661440B00210044C944C30D
:1046700071498A467149614456460E6070496144E9
:10468000704E664433006B4A624441CA41C36B4E6C
:1046900066443668CE606C4E66446C4B6344694A2F
:1046A000624421CA21C3C868306141467161B16862
:1046B0000D00FBF7E3FF01002800FDF7EBFD05000F
:1046C0007069FBF7DBFF01002800FDF7E3FDFCF755
:1046D000D3FC0A9008220399200008F0C1FF5C492E
:1046E0000EAB9C4661440B00210060C960C3594970
:1046F000614456460E6058496144584E6644330042
:10470000534A624460CA60C3524E66443668CE6003
:10471000534E6644534A62441300504A624421CACD
:1047200021C3C868306149467161B1688A46FBF7A8
:10473000A5FF01005046FDF7ADFD82467069FBF70D
:104740009DFF01005046FDF7A5FDFCF795FC0B9081
:10475000069008220399200008F082FF424E0EAB1B
:104760009C4666443300260024CE24C31E4EB24627
:104770003E4E6644524632603D4E664431003D4EE8
:1047800066443300384A624460CA60C3374E6644A8
:104790003668CE60384E6644384A62441300354A63
:1047A000624421CA21C3C868306142467261B2685E
:1047B0009046FBF763FF01004046FDF76BFD804626
:1047C00070695DE0401D0020145D00005C7C0110FC
:1047D0001C5D0000245D0000607C01102C5D000069
:1047E000B8570000BC570000F47B0110105E0000B9
:1047F000B0570000B4570000E4570000FC7B0110E4
:10480000EC570000486000004C600000C8570000F2
:10481000D0570000007C01100C5800001458000014
:10482000386000003C600000F0570000F8570000BE
:10483000047C0110345800000C7C01103C5800002E
:10484000286000002C60000018580000205800006C
:104850005C58000064580000186000001C600000F4
:104860004058000048580000845800008C58000050
:10487000086000000C6000006858000070580000DC
:10488000FBF7FCFE01004046FDF704FDFCF7F4FBDE
:10489000804608220399200008F0E2FE8C4E0EAB01
:1048A0009C4666443300260024CE24C3894E6644C9
:1048B00052463260884E66443100884E664433006A
:1048C000834A624460CA60C3824E66443668CE60E2
:1048D000834E6644834A62441300804A624421CA7C
:1048E00021C3C86830614A467261B2689146FBF7DD
:1048F000C5FE01004846FDF7CDFC81467069FBF717
:10490000BDFE01004846FDF7C5FCFCF7B5FB0600FF
:1049100007901C2008F0AAFE8146424600920A9B9E
:10492000089A714904F0A8F9BB00DB19DB006F4A53
:1049300049469950300008F04EFD061C0B9808F0CF
:104940004AFD8046099808F046FD011C331C42468A
:10495000484604F0A3F908220399200008F080FEDD
:10496000634B0EAA9446634406CC06C3614B634472
:104970005A461A6060496144604B63445C4A624431
:1049800011CA11C35B4B63441B68CB605C4D65442B
:104990005C4B6344594A624411CA11C3CB682B6112
:1049A000594B6B61594C6444594E66440822554931
:1049B0006144300008F054FE2B6923616B69636128
:1049C00013AB06CE06C32069159063690393169353
:1049D00000231793139CFBF751FE01002000FDF705
:1049E00059FC0400169B03931800FBF747FE0100D7
:1049F0002000FDF74FFC179B002801D1FEF72AF994
:104A0000027A520601D4FEF724F9002801D1FEF7FC
:104A100021F90068002801D1FEF71CF95A1E002B6D
:104A200001D1FEF717F90A21435E002B01D1FEF7F1
:104A30000EF91B01C0181300F0E7D0231B0640221B
:104A40005A6140329A61334806F040FC4168006880
:104A5000FCF728F8F6E441680068FCF72EF8F1E46A
:104A60000498EFE42C4B0EAA944663441C682B4B2D
:104A700063441868FBF702FE01002000FDF70AFC02
:104A8000002802D0FCF7A8FBE0E40020DEE4416847
:104A90000068FCF707F808E541680068FCF70DF8C6
:104AA00003E5049801E51E4B0EAA944663441C6876
:104AB0001C4B63441868FBF7E1FD01002000FDF783
:104AC000E9FB002802D0FCF787FBF2E40020F0E4C9
:104AD000AC580000B4580000F85F0000FC5F000014
:104AE0009058000098580000302A0020401D0020F7
:104AF000D4580000DC580000E85F0000EC5F0000C4
:104B0000B8580000C0580000147C0110D05F0000AD
:104B1000D85F0000407C0110145D00001C5D0000A7
:104B2000245D00002C5D0000AA4B0EAA944663444D
:104B300040AA1A60A848A94B63441860FBF79EFD81
:104B4000010046A8FDF7A6FBC321C9010EAB9C4698
:104B50006144086040AB4B60082220A808F080FD4B
:104B6000209B219A002B03D0197A890600D402E1F8
:104B7000289329929A4B0EAA9446634440AA1A603D
:104B80009848994B63441860FBF778FD010046A8EC
:104B9000FDF780FB95490EAB9C466144086040AB35
:104BA0004B60082220A808F05BFD209B219A002B77
:104BB00003D0197A890600D4DFE02A932B928C4B1C
:104BC0000EAA9446634440AA1A608A488A4B6344FA
:104BD0001860FBF753FD010046A8FDF75BFB874912
:104BE0000EAB9C466144086040AB4B60082220A895
:104BF00008F036FD209B219A002B03D0197A8906F4
:104C000000D4BCE02C932D927D4B0EAA94466344B5
:104C100040AA1A607B487C4B63441860FBF72EFD6A
:104C2000010046A8FDF736FB78490EAB9C4661446F
:104C3000086040AB4B60082220A808F011FD209BC3
:104C4000219A002B03D0197A890600D499E02E937B
:104C50002F926F4B0EAA9446634440AA1A606D4887
:104C60006D4B63441860FBF709FD010046A8FDF792
:104C700011FB6A490EAB9C466144086040AB4B6037
:104C8000082220A808F0ECFC209B219A002B02D0DF
:104C9000197A890677D530933192614B0EAA9446E2
:104CA000634440AA1A605F485F4B63441860FBF797
:104CB000E5FC010046A8FDF7EDFA5C490EAB9C4609
:104CC0006144086040AB4B60082220A808F0C8FC93
:104CD000209B219A002B02D0197A890655D5329350
:104CE0003392534B0EAA9446634440AA1A6051482B
:104CF000514B63441860FBF7C1FC010046A8FDF767
:104D0000C9FA4E490EAB9C466144086040AB4B600B
:104D1000082220A808F0A4FC209B219A002B02D096
:104D2000197A890633D534933592454B0EAA9446A9
:104D3000634440AA1A604348434B63441860FBF73E
:104D40009DFC010046A8FDF7A5FA40490EAB9C4624
:104D50006144086040AB4B60082220A808F080FC4A
:104D6000209B219A002B02D0197A890611D53693FF
:104D7000379200249CE00023FAE600231DE700237D
:104D800040E7002363E7002385E70023A7E700232C
:104D9000C9E70023EBE700785BE041680068FCF7B7
:104DA000C6F856E041680068FCF7DAF851E00068A0
:104DB00020AB00221A721900FBF766FC20A8FCF752
:104DC00003F946E041680068FCF7EEF841E002981C
:104DD0003FE0C046305D0000687C0110345D00009B
:104DE000385D0000707C01103C5D000078610000BF
:104DF000405D0000787C0110445D0000706100009F
:104E0000485D0000807C01104C5D0000686100007E
:104E1000505D0000887C0110545D0000606100005E
:104E2000585D0000907C01105C5D0000586100003E
:104E3000605D0000987C0110645D0000506100001E
:104E4000685D0000A07C01106C5D000048610000FE
:104E500002982201A44B9B18587020ADE10028ABAA
:104E60009C4661440822280008F0FAFB9F4B0EAADA
:104E70009446634406CD06C39D489E4B6344186028
:104E80009A4B63441D68FBF7F9FB01002800FDF70E
:104E900001FA002803D0037A5B0600D0049E002E9E
:104EA00063D02201904B9B1800225A711A71013471
:104EB000072C00DD0FE1E30028AA9B58002BF6D059
:104EC00020ADE100944661440822280008F0C8FBA8
:104ED000894B0EAA9446634406CD06C38748884B87
:104EE00063441860874B2093834B63441D68FBF732
:104EF000C5FB01002800FDF7CDF920A9FBF786FED0
:104F0000013843425841C6B2002873D02301764A83
:104F10000121995420ADE10028AB9C466144082250
:104F2000280008F09DFB784B0EAA9446634406CDFA
:104F300006C37648764B63441860734B63441D6820
:104F4000FBF79CFB01002800FDF7A4F9002800D125
:104F50007EE7027A7F231340043BDAB2082A00D9A5
:104F600035E793006B4AD3589F465F4B984626011E
:104F700002234246B35420ADE70028AB9C46674469
:104F800008223900280008F06BFB634B0EAA9446F8
:104F900063442A0003CA03C35548604B6344186046
:104FA0005D4B63441B689946FBF768FB010048466C
:104FB000FDF770F9FCF760F84644B070082239003C
:104FC000280008F04DFB564B0EAA9446634406CDCC
:104FD00006C35448544B63441860514B63441D68E6
:104FE000FBF74CFB01002800FDF754F9FCF744F8EF
:104FF000F07056E720ADE10028AB9C4661440822E2
:10500000280008F02DFB494B0EAA9446634406CDB8
:1050100006C33A48464B63441860464B2093434BC3
:1050200063441D68FBF72AFB01002800FDF732F9F5
:1050300020A9FBF7EBFD012824D12B4E27010323E8
:10504000BB5520ADE10028AB9C46614408222800F6
:1050500008F006FB384B0EAA9446634406CD06C3FF
:105060003648374B63441860334B63441D68FBF785
:1050700005FB01002800FDF70DF9FBF7FDFFF61910
:1050800070700EE720ADE10028AB9C466144082219
:10509000280008F0E5FA2B4B0EAA9446634406CD8F
:1050A00006C31648284B634418601E4B2093254BBB
:1050B00063441D68FBF7E2FA01002800FDF7EAF8F7
:1050C00020A9FBF7A3FD012800D0EAE62301064A48
:1050D00004219954E5E61D4B9D44F0BCBB46B24605
:1050E000A946A046F0BDC046E01D0020945D00002A
:1050F000E47B01109C5D0000745D0000A87C011041
:105100007C5D0000B07C0110845D0000DC7B011040
:105110008C5D0000107D0110A45D0000AC5D0000FE
:10512000B45D0000B87C0110BC5D0000C45D0000EF
:10513000CC5D0000607C0110D45D0000C07C0110DB
:10514000DC5D0000E45D0000EC5D0000C461000077
:10515000F0B5D6464F464646C0B586B003F016FEBB
:1051600008F050FC032003F041FFD024240608235C
:10517000A36200220121032003F040FE0F2003F070
:1051800035FF80231B02A362062003F02FFF40237C
:105190006362A361072003F029FF802363626361D8
:1051A000192003F023FF80239B046362636104A83A
:1051B000FBF7F2F8DF4B0499059A19605A60DE4B51
:1051C00001221A700BF0DAFA1F211A2003F0FEFDFB
:1051D000002200211A2003F011FE00211A2003F002
:1051E000EDFED64B1B68E022D2011340D44A136077
:1051F000D44B012208210F2003F084FED24805F091
:105200007DF804A8FBF7C8F8D04A00230498059954
:1052100007F0C0F91000190007F0AEFC0022CC4BDB
:1052200007F0C7FB02000B00CA4808F0DFFB0022B2
:105230000221C94808F0DAFBC84B04221A60BF4BB0
:105240001B68DB05FBD5BD4B5C68FBF7EFF9C44D74
:10525000286004A8FBF7A0F8BC4A0023049805992D
:1052600007F098F91000190007F086FC0022B84BEF
:1052700007F09FFB02000B00B64E300008F0B6FBB3
:105280002104090CB74808F0B1FB04A8FBF784F827
:10529000AE4A00230498059907F07CF91000190024
:1052A00007F06AFC0022AA4B07F083FB02000B0008
:1052B000300008F09BFB286808F0BCF802000B00E7
:1052C000A94808F093FB2C688221C905201C08F02E
:1052D00067F8002806D08121C905201C08F076F85F
:1052E000002818D1FBF7B4F8FBF7CEF8FF219F4850
:1052F00001F01AFE00240F2C1BDCE6B29C4D0022AC
:105300003100280001F00CFF00223100280001F0DC
:1053100051FF0134EFE7D0231B0640225A6140328F
:105320009A61201C08F086F802000B00914805F0F5
:10533000CDFFFDF7ADF904A8FBF72EF8834A002353
:105340000498059907F026F91000190007F014FCDD
:1053500000227F4B07F02DFB02000B007D4808F078
:1053600045FB854B1978854808F040FB002406E092
:10537000834B844A3F21844805F00EFF0134032CFF
:1053800032DCA3001B19DB00804A9B58002BF5D0B0
:105390000025A3001B19DB007C4AD3181B79AB4204
:1053A000ECDD05F07BF80029E2DB684A002307F01A
:1053B000F1F81000190007F0DFFB0022644B07F042
:1053C000F8FA02000B00634808F010FBA3001B1959
:1053D000DA006E4B9B185B195B792A0021006C4840
:1053E00008F004FB0135D4E7002513E00134032C59
:1053F0000BDCA3001B19DB00644A98580028F5D089
:1054000003681B68E9B29847F0E7FA20800004F0CF
:1054100075FF0135032D01DC0024E8E75D4C200019
:1054200002F004FE09220821200002F0B1FE524BD6
:105430001978200002F0FEF80821200002F0B6F9E9
:105440005549200002F0C8F91421200002F03AFA70
:105450005249200002F02EFD0521200002F078FACA
:105460000921200002F096FD0121200002F0EAF857
:10547000200002F0BCFA002400E00134032C0BDC15
:10548000A3001B19DB00414A98580028F5D0036897
:105490001B6802219847F0E7002300E00133072B47
:1054A0000ADC1A013E49525C032AF7D119013C4A31
:1054B000521801211171F1E704A8FAF76DFF234A90
:1054C00000230498059907F065F81000190007F00B
:1054D00053FB00221E4B07F06CFA02000B001D4824
:1054E00008F084FA2F4B1B782F4A12782F4909783D
:1054F0002F48007800902F4808F078FA01F0F2FC6D
:105500000132032A09DC93009B18DB001F49CB18EA
:105510009B7C002BF4D01800F2E7274B1D78002D60
:1055200000D1050004F0BAFF002949DB234B1860C5
:105530005960FBE0701E0020ED30002000C00440E8
:1055400000D00440050300108813000040420F0003
:1055500000408F40DC620110347D011000E0044007
:1055600040240020487D0110547D0110082A0020AD
:10557000302A0020687D0110D93000207C7D011088
:10558000406201105C62011094620110401D002015
:10559000887D01105C2A002000C0644420A107001F
:1055A000E01D0020BE0F0020C90F0020C80F002002
:1055B000CA0F0020A07D0110E1300020681E0020ED
:1055C000D44BD54A3F21D54805F0E6FDD44B1B68A6
:1055D0009C46D44B62461A6000220026002019E047
:1055E000013193009B18DB00CF4FFB181B798B42D6
:1055F0000FDD00280DD193009B18DF00CA4BDB198B
:105600005B185F79C94B1B789F42E9D1D6B2200065
:10561000E6E70132032A03DC002801D10021E0E79C
:10562000C34B1B786246D2B2934200D1AAE0BD4B75
:10563000DB78412B05D0612B03D0522B01D0722B8C
:1056400011D1BC4B1B78002B00D1CEE2BA4B1B789A
:10565000002B00D0F9E204F021FF002900DA0CE36E
:10566000B64B1860596004F019FF002901DA00F008
:10567000EFFBB34A002306F08DFF1000190007F07E
:105680007BFA0022AF4B07F094F902000B00AE4802
:1056900008F0ACF9AD4B1C78AD4B1E78A34B1F78CE
:1056A000AC4801F0C9FF00903B0032002100AA483D
:1056B00008F09CF904F0F2FE002900DACEE3A04ADB
:1056C000002306F067FF1000190007F055FA0022CA
:1056D0009C4B07F06EF902000B009B4808F086F91E
:1056E00090480178C2784378807800909B4808F011
:1056F0007DF9002D00D1C0E304F0D0FE02000B1EA6
:1057000000DAB1E3964908684968121A8B41100023
:105710001900FA229200002306F024FF914B1A7818
:105720000023994200DDA8E300D1A3E3894802F0F9
:1057300083F9041EDDD0864A002111707B4B19705D
:10574000824E06313170009232007549814802F074
:1057500091F93378042B00D138E7032B00D1AFE265
:10576000012B00D07FE7714B1A787F4B1B789A4250
:1057700000D078E700237D4A13707D4A13707D4A7C
:10578000137070E7674A9478002C00D04FE7002828
:1057900000D14CE7654A1078834200D147E7624662
:1057A000170E672F0BD8412F00D240E7413FFAB2C6
:1057B000262A00D93BE797006F4AD2599746722FA5
:1057C00000D034E7834200D276E1370028237343C8
:1057D000554A985803685B689847012800D199E1B9
:1057E000002C00D1A0E1514B187800230122522156
:1057F000FAF778FE1BE74B4B5F78002F3BD1002375
:1058000001224721FAF76EFE3C00484B197803222B
:105810003000FAF793FEB04628235E43424BF0581F
:1058200003685B689847012839D0282342465343D0
:105830003D4A985803681B68002198474D4B012248
:105840001A703C4B1B78002B00D1ADE03A4B1B7813
:10585000002B00D0D3E0282243465A43324B9B18FA
:1058600000229A7404A8FAF797FD344B0499059A1C
:1058700019605A60DBE6002300E00133072BC4DC2B
:1058800019013E4A52185278B242F6D10A003B49F9
:10589000525C032AF1D11B01CB181C79B5E7002C0F
:1058A000C3D1214B9B1920331B78002BC9D1344B1A
:1058B0001B78FA2292005A439246282443465C43BE
:1058C000194BE41804F028FB814604F0E7FD0600BC
:1058D0000F1E59DBFA22920000235046002107F0E8
:1058E000F1FC32003B0012184B41002B52DB002B25
:1058F00054DB01260296019422490091484604F0A7
:1059000021FB282243465A43074B9B1820331E7025
:1059100097E7C046406201105C620110946201107A
:10592000A4300020B4300020401D0020E3300020CF
:10593000D9300020BF0F0020E4300020381D0020A7
:1059400040420F0000408F40DC620110E93000202F
:10595000EF3000205C2A0020E07D0110087E01105D
:10596000681E0020C90F0020BD0F0020E13000207C
:10597000E2300020DE300020C47E0110E01D002057
:10598000BC0F0020C5030010BF4BC04A3F21C048D8
:1059900005F002FC01225242BE4BA8E7BA4BBB4ABB
:1059A0003F21BB4805F0F8FBBB4801F0C9FD0024CE
:1059B00000E00134032C1BDC28236343B74A9858CA
:1059C0000028F6D00368DB68B5499847282363436D
:1059D000B24A985803685B6898470428E9D128239D
:1059E0006343AE4A985803681B6800219847E0E774
:1059F000AC4B01221A70AC4B00221A702BE700242A
:105A000000E00134032C0ADC28236343A34A98589E
:105A10000028F6D00368DB68A1499847F1E7A24B5C
:105A200000221A7017E7A14B5B78002B3FD037009C
:105A300028237343994A985803685B68984700285D
:105A400012D028237343954A985803685B68984797
:105A5000012809D028237343904A985803685B684B
:105A60009847042800D0E2E58C4C28235F4338593E
:105A700003681B680121984701228D4B1A708D4BDA
:105A800019783000FAF75AFDE4190023A37404A82A
:105A9000FAF782FC884B0499059A19605A6004A8A9
:105AA000FAF77AFC049A059BA261E361BFE5012243
:105AB0005221FAF717FDBAE7002307E01A017F49E0
:105AC000525C013AD2B2012A17D90133072B00DD0B
:105AD0007BE61901794A52185278B242EED0774AE1
