:020000041000EA
:1000000000B5324B212058609868022188439860DF
:10001000D860186158612E4B002199600221596106
:100020000121F02299502B49196001219960352056
:1000300000F044F80222904214D00621196600F024
:1000400034F8196E01211966002018661A6600F04E
:100050002CF8196E196E196E052000F02FF8012189
:100060000842F9D1002199601B49196000215960AB
:100070001A491B48016001219960EB211966A021F2
:10008000196600F012F800219960164914480160C1
:100090000121996001BC002800D000471248134993
:1000A000086003C880F30888084703B5996A0420EC
:1000B0000142FBD001200142F8D103BD02B5186610
:1000C0001866FFF7F2FF186E186E02BD00000240BE
:1000D000000000180000070000035F00212200005C
:1000E000F4000018222000A00001001008ED00E03C
:1000F00000000000000000000000000074B24E7A12
:1001000000200420F7010010C3010010C5010010F9
:10011000C1010010C1010010C1010010C101001097
:10012000C1010010C1010010C1010010C701001081
:10013000C1010010C1010010C9010010CB01001065
:10014000CD010010CD010010CD010010CD01001037
:10015000CD010010CD010010CD010010CD01001027
:10016000CD010010CD010010CD010010CD01001017
:10017000CD010010CD010010CD010010CD01001007
:10018000CD010010CD010010CD010010CD010010F7
:10019000CD010010CD010010CD010010CD010010E7
:1001A000CD010010CD010010CD010010CD010010D7
:1001B000CD010010CD010010CD010010CD010010C7
:1001C00000BE00BE00BE00BE00BE00BEEFF3058054
:1001D000103800BEF2EB8871100B0210440B0210B5
:1001E0003402001090A31AE700201F49086006C8D7
:1001F00081F3088810471D48006800282FD10DA4FE
:100200000ECC002902D000F012F8F9E71849194A7B
:10021000002000E001C19142FCD1174988471749ED
:1002200088471749884700BEFDE701C901C29A42C5
:10023000FBD37047440B0210C0000020281E002092
:10024000AC2802100000042000000420AC2802109A
:10025000001004200010042000000000704709482E
:1002600010F024FE0047000008ED00E0000000D080
:10027000281E00204C34002011FC0010018E0010BC
:10028000CDFB00105756000006005250ABB3605330
:1002900040F0011006005250861C030250F001107D
:1002A000060052505422A29D5CF0011005005250ED
:1002B000DE65F468AC280210F8B5C04610B5064CEF
:1002C0002378002B07D1054B002B02D0044800E017
:1002D00000BF0123237010BD80200020000000001B
:1002E000F0B30110044B10B5002B03D003490448B0
:1002F00000E000BF10BDC0460000000084200020C8
:10030000F0B3011010B5002904D008680368DB6859
:10031000024998470020002110BDC04600007F43DD
:1003200070B504000D000F2804D0290020000DF046
:10033000BDFA70BD01480CF0B7FDF6E7842D002032
:1003400010B50FF093FBC021890102481AF0E8FFB5
:1003500010BDC04600D01F0010B50800110011F0FC
:10036000A1FE10BD10B5080011F0AEFE10BD10B515
:10037000080011F085FE10BD10B582B0012801D033
:1003800002B010BD144B9942FAD1144B02221A73D9
:1003900002325A730721124B06E000221A715A7179
:1003A0009A71DA71103301390029F6DA0D4C2022E6
:1003B00021000D480BF0E8F90C4B012221000C48FC
:1003C0000BF0E3FA002300930F33112209490A4886
:1003D0000BF0DEFDD4E7C046FFFF0000F83300203D
:1003E000E01F0020A4150020242D0020008065427D
:1003F000582D002000C00340842D002010B50400BB
:100400000EF056FD002903DB20606160200010BD66
:10041000024B034A3F2103480FF0DCFBF0B301100D
:100420000CB4011044B40110F0B5D6464F46464610
:10043000C0B584B082460F00160099460EF076FAD9
:1004400080460EF035FD04000D1E1BDBFA229200E3
:1004500000235046002111F05BFC22002B001218F3
:100460004B41002B14DB002B16DB49460291019611
:10047000009740460EF070FA04B0E0BCBA46B146B0
:10048000A846F0BD074B084A3F2108480FF0A2FBE1
:1004900001225242064BE6E7024B034A3F21034842
:1004A0000FF098FBF0B301100CB4011044B401102C
:1004B000FFFFFF7F10B504002848294B1860C022B9
:1004C000920121001AF0DCFA002828D0FFF738FF4B
:1004D0000FF0CCFAC0229201210022481AF008FF46
:1004E0000EF0E6FC002914DB1F4A002310F070FD1B
:1004F0001000190011F066F800221C4B10F077FF75
:1005000002000B001A4811F0B7FF1A4811F084FFDF
:1005100010BD194B194A3F2119480FF05BFB0EF033
:10052000C7FC002914DB104A002310F051FD100015
:10053000190011F047F800220C4B10F058FF020090
:100540000B000B4811F098FF0E4811F065FFDFE734
:10055000094B0A4A3F210A480FF03CFB00D01F100C
:100560008C11002000D01F0040420F0000408F403F
:100570008CB4011098B40110F0B301100CB4011048
:1005800044B40110B0B4011010B584B0344B1B78E2
:10059000002B54D0334A127893422FD932490B782A
:1005A00001204340DBB20B70002B22D0D021090682
:1005B00080204861002B02D101322A4B1A700EF0C4
:1005C000B5F904000EF074FC02000B1E27DB27486F
:1005D000002112184B41002B27DB002B29DB0121C6
:1005E0000291002101912249009120000EF0B4F9FE
:1005F00031E0D021090680208861DBE7D02109069F
:100600008020486118497F3808700132D2B21549FC
:100610000A7005339342D2DA00220A70CFE7154BF5
:10062000154A3F2115480FF0D5FA01225242144BCA
:10063000D3E7104B104A3F2110480FF0CBFAD023DC
:100640001B0640229A6140325A61064B00221A7002
:10065000054B01321A700020002104B010BDC046C5
:1006600038340020393400208B11002090D0030052
:1006700089050010F0B301100CB4011044B401104E
:10068000FFFFFF7F10B50C1E08D0086803685B6889
:100690009847022805D120230022E254002000219F
:1006A00010BD0EF005FC00291CDB114A002310F0E0
:1006B0008FFC1000190010F085FF00220D4B10F088
:1006C00096FE02000B000C4811F0D6FE0B4811F00C
:1006D000A3FE206803681B6800219847084B01228D
:1006E0001A70D8E7074B084A3F2108480FF072FA02
:1006F00040420F0000408F408CB40110CCB4011078
:1007000033340020F0B301100CB4011044B40110D4
:1007100010B50B490B4814F0CDFC032104200DF05B
:100720005FF8032105200DF05BF800220121042071
:100730000DF06EF80022012105200DF069F810BDC2
:1007400040420F00A415002070B5134C134920003F
:1007500014F098FD012110200DF042F80121122023
:100760000DF03EF8012113200DF03AF862680223E3
:100770001A400B4DC021890129430B6020680721D5
:100780004140CF200840802149010C432060802354
:100790009B012B431A6070BD00C00340404B4C00CE
:1007A00004C00340F0B589B005000C00037ADB07F4
:1007B00009D42B7A60221A4200D1B9E0002D00D171
:1007C000B6E02B8863E00268083208688968002672
:1007D0000029EED00B0008339A4202D00E000968BF
:1007E000F6E78B88013B9BB28B80002BE1D1002E7A
:1007F00005D00B68336003685B689847D9E70B68DE
:10080000A360F8E74B4B4C4A62214C480FF0E2F9E9
:100810004B4B4C4A30214C480FF0DCF900224CE0A5
:100820004A4B4B4A16214B480FF0D4F94A4B4B4ADE
:10083000222148480FF0CEF98B88013B9BB28B8078
:10084000002B06D1002F60D00B683B6003685B680B
:100850009847009F002F5BD021003800FFF7A2FFD0
:100860003B7A7F2293433B72773A694602A811F0A4
:100870003DFC082202A904A811F038FC049B002BBF
:100880004CD0A28E5A8104AB9B88A3863300344A95
:10089000934249D020000C309342BFD09A093F21A7
:1008A0001940868CB242ADD2006AD20082185088BC
:1008B0008142ADD25268090152185689069206A9A2
:1008C0008B8051424A41D2B226498C4663445942F8
:1008D0004B41DBB29A42A3D1082206A9684611F027
:1008E00005FC009B002BA1D008229A56002AB0DA02
:1008F000DA682068A16800270029AAD00B00083315
:100900009A4299D00F000968F6E70B68A3609DE74B
:10091000114B124A22210F480FF05CF90E4B0F4A7F
:1009200022210C480FF056F901235B422B806B808B
:1009300009B0F0BDDCB40110F0B4011080B50110B5
:10094000E4B50110F0B501107CB60110E0B601105D
:1009500008B7011090B70110F0B7011004B80110EA
:10096000FFFF00000100FFFFF0B5D6464F464646A8
:10097000C0B586B005000E00140017000C371368D0
:100980009946928EC84B9A423ED1BB8C002B00D127
:10099000D9E000D19EE0013B9BB29846D9003B6A6A
:1009A0009C4661444A68002A00D199E04B88088837
:1009B000834200D29AE00023029302AB012252420A
:1009C0009A80029A002A00D1B1E002AB9B8841468E
:1009D00088011B189BB2009269468B8051424A41A4
:1009E000D2B2B2498C46634459424B41DBB29A427F
:1009F00000D0A2E0009B002B00D1A4E008226946B1
:100A000004A811F073FB2DE03A8D9A4248D0A64B12
:100A10009A4257D093093F211140B88C834245D266
:100A2000DB00386A844663445888814244D25B685C
:100A300009015B1859893985002B05D000211972ED
:100A4000012040425881D960049304A98A80594208
:100A50004B41DBB295498C46624451424A41D2B285
:100A6000934231D1049B002B00D166E1049B002B03
:100A700000D165E172888C498A4200D064E104AA01
:100A800092883280728004AA92882B60AA805B8947
:100A9000EB80280006B0E0BCBA46B146A846F0BDDF
:100AA000834B844A452184480FF094F8834B844A51
:100AB000622184480FF08EF8834B844A30217E48AF
:100AC0000FF088F80023B5E7814B824A162182484F
:100AD0000FF080F8814B824A88217A480FF07AF82B
:100AE0000023029302AB013A9A806AE7581C4880BF
:100AF00019015218002A05D000211172012040422C
:100B00005081D160029202A98B8051424A41D2B2F7
:100B100066498C46634459424B41DBB29A4200D14C
:100B20004FE76B4B6B4A16216B480FF053F80023CD
:100B30000093013B6A4693805CE7654B654A16214A
:100B400065480FF047F8BA8CFB8C9A425AD0BA8CA1
:100B5000531C9BB2BB84D200396A884690448022E1
:100B6000D200934200D180E040239A465346002BA6
:100B700000D17DE04B461B681B6852461101484678
:100B8000984743465860002878D0434652461A801A
:100B90000023424653804346002B72D0BB8C002B6F
:100BA00075D0013B98B2396AC300C9184A68002A57
:100BB00073D04B880F88BB4200D297E0002302938A
:100BC00002AB012252429A80029A002A00D1AEE082
:100BD00002AB9B8880011B189BB2049204A98B80F6
:100BE00051424A41D2B231498C46634459424B4149
:100BF000DBB29A4200D135E7354B364A16213648EA
:100C00000EF0E8FF8022D200934228D05B009BB216
:100C10009846396AB94213D04B461B689B684246D6
:100C2000D20048469847824600281CD053463B6273
:100C30004346FB840123002B89D100239846AAE771
:100C40004B461B681B684246D1004846984782467F
:100C5000002806D02022390011F048FAE6E70023E8
:100C6000E9E70023E7E70023E5E73F239A467DE72E
:100C70001C4B1D4A0D2110480EF0ACFF00239A4674
:100C800083E7049304AB012252429A80EAE6134BB5
:100C9000134A88210B480EF09DFF0023029302ABFC
:100CA000013A9A8090E7C046FFFF00000100FFFF75
:100CB00068B8011080B801107CB60110DCB40110D6
:100CC000F0B4011080B50110E4B50110F0B50110C9
:100CD000E0B6011008B7011090B70110ECB8011090
:100CE000F8B8011064B901106CB901105F1C4F8095
:100CF00019015218002A05D00021117201277F42E4
:100D00005781D160029202A98B8051424A41D2B2EE
:100D100020498C46634459424B41DBB29A4200D190
:100D200052E71D4B1D4A16211D480EF053FF0023AC
:100D3000049304AB013A9A8094E60133237195E65B
:100D40002B60013BAB80A4E60C348A421FD0900993
:100D50003F210A40A18C88420DD2216AC0000918A7
:100D6000488882420DD2496812018A1804A98988EC
:100D70005181718087E60B4B0B4A62210B480EF0C4
:100D800029FF0B4B0B4A30210B480EF023FF0022AA
:100D9000ECE7C0460100FFFFE0B6011008B7011004
:100DA00090B70110DCB40110F0B4011080B501104F
:100DB000E4B50110F0B501107CB6011010B584B097
:100DC00014002C4A1070D170547093700423FF21CA
:100DD00029480BF0FFFE00283CD1D0231B064022FF
:100DE0005A61264B1B78002B07D0244B05221A7022
:100DF000234B043A1A7004B010BD224B3F3A1A70CC
:100E00000DF094FD04000EF053F802000B1E11DBF0
:100E10001D48002112184B41002B11DB002B13DB66
:100E200001210291002101911849009120000DF04B
:100E300093FDDAE7164B174A3F2117480EF0CAFE1A
:100E400001225242154BE9E7114B124A3F21124849
:100E50000EF0C0FE0A4B1B78002BCCD0074B1B7842
:100E6000052B03D0064B00221A70C4E7034B002267
:100E70001A70F7E708340020842D00203834002051
:100E8000463400208B11002090D00300890500100B
:100E9000F0B301100CB4011044B40110FFFFFF7F48
:100EA00010B588B004900591069207930EF000F8F3
:100EB00000292BDB374A002310F08AF810001900B4
:100EC00010F080FB0022344B10F091FA02000B006E
:100ED000324811F0D1FA324811F09EFA0E2304AADA
:100EE000FF2130480BF076FE002842D1D0231B06AC
:100EF00040225A612C4B1B78002B0DD02A4B052227
:100F00001A702A4B043A1A7008B010BD284B294AAF
:100F10003F2129480EF05EFE284B3F3A1A700DF033
:100F200005FD04000DF0C4FF02000B1E11DB244878
:100F3000002112184B41002B11DB002B13DB012188
:100F40000291002101911F49009120000DF004FD44
:100F5000D4E7174B174A3F2117480EF03BFE0122FA
:100F60005242194BE9E7124B124A3F2112480EF048
:100F700031FE0E4B1B78002BC6D00B4B1B78052B7C
:100F800003D00A4B00221A70BEE7074B00221A70EA
:100F9000F7E7C04640420F0000408F408CB401107C
:100FA000F0B90110842D0020383400204634002090
:100FB000F0B301100CB4011044B401108B110020E7
:100FC00090D0030089050010FFFFFF7F10B586B0A9
:100FD00005AB18800DF06CFF00292EDB384A00238A
:100FE0000FF0F6FF1000190010F0ECFA0022354B5C
:100FF00010F0FDF902000B00334811F03DFA6B468A
:10100000197D5A7D314811F037FA022305AAFF21D4
:101010002F480BF0DFFD002842D1D0231B064022D1
:101020005A612C4B1B78002B0DD02A4B05221A70CD
:10103000294B043A1A7006B010BD284B284A3F21AC
:1010400028480EF0C7FD284B3F3A1A700DF06EFC91
:1010500004000DF02DFF02000B1E11DB23480021C0
:1010600012184B41002B11DB002B13DB01210291E5
:10107000002101911E49009120000DF06DFCD4E784
:10108000164B174A3F2117480EF0A4FD0122524289
:10109000184BE9E7114B124A3F2112480EF09AFD16
:1010A0000D4B1B78002BC6D00A4B1B78052B03D0A9
:1010B000094B00221A70BEE7064B00221A70F7E7B0
:1010C00040420F0000408F408CB4011000BA011064
:1010D000842D00203834002046340020F0B3011065
:1010E0000CB4011044B401108B11002090D0030007
:1010F00089050010FFFFFF7F70B5002500E0013576
:1011000083001B18DB00344CE3181C79AC420EDD65
:1011100083001B18DC00304B1B195B195B798B4279
:10112000EDD12D4B1B195B190124DC72E7E700257B
:10113000002600E00135AC4211DD83001B18D90008
:10114000254B5B185B19DB7A002BF3D1AB005B19E5
:10115000DB002149CB18002199740126EAE7002E13
:1011600039D1002311E029001C4D495D914214D171
:101170001D011A49491901254D719900C918C90065
:10118000154D691800258D740133072B16DC1D01E0
:101190001249491949788142E5D0022AF4D11D014A
:1011A0000E49491989788142EED10C494D19ED78E3
:1011B0002D01491909790029E6D0D9E700218C428F
:1011C00009DD83001B18DA00034B9B185B18002213
:1011D000DA720131F3E770BD401F0020E01F0020EC
:1011E00070B51C4B04221A601B4B1B68DB05FBD53A
:1011F000194B586880B210F01CFE184910F0C5FD5C
:10120000174910F0A7FD061C002400E02C00082C54
:101210000EDC651C134BAA00D058A200D050002150
:1012200010F0E4FD0028F1D0A4000E4BE650EDE7ED
:101230000C4B5E620024002005E0A200094BD1584F
:1012400010F088FD0134092CF7DD074910F087FD07
:1012500070BDC04600E0044000C00440499A103C04
:10126000CDCC4C3F9C3100200000204110B582B015
:1012700001AB18805A780C2A08D893007E49CB58C5
:101280009F4600237D4A13707D4A137002B010BD43
:101290007A4B01221A707A4B00221A70F6E7794BCA
:1012A0001B78002B05D0784B1B78002B4CD00024EA
:1012B0003DE076480AF008FE002400E00134032CEB
:1012C0001EDCA3001B19DB00714A98580028F5D0DA
:1012D0000368DB686F499847A3001B19DB006C4A61
:1012E000985803685B6898470428E7D1A3001B1946
:1012F000DB00674A985803681B6800219847DDE7C0
:10130000654B19780F2908D901235C4A13705D4A8F
:1013100013705D4B00221A7016E0FF225B480AF042
:1013200083FBF1E70368DB685A4998470134032CD3
:1013300007DCA3001B19DB00554A98580028F1D19F
:10134000F4E7514B00221A700DF0B2FD002903DBC7
:10135000524B1860596099E7514B524A3F2152480D
:101360000EF038FC01AB1978504B1B78994200D035
:101370008CE7002308E018014D490818012101718C
:10138000002141710133DBB2072B00D97EE719013F
:10139000474C095D0139C9B20129F3D81C01444900
:1013A00009194C78D11E8C42ECD1E4E701AB1978D5
:1013B0003E4B1B78994200D068E7002301E00133DF
:1013C000DBB2072B00D961E719013948095C032911
:1013D000F5D11801364909184878D11F8842EED155
:1013E0001C0133490C190121217100216171E6E7CB
:1013F0000DF05EFD002919DB2E4A00230FF0E8FDF9
:101400001000190010F0DEF800222B4B0FF0EFFF58
:1014100002000B00294811F02FF8294810F0FCFFBA
:10142000284A0021284813F0A3FC2FE71C4B1D4A33
:101430003F211D480EF0CEFB0DF03AFD002914DBD4
:101440001C4A00230FF0C4FD1000190010F0BAF878
:101450000022194B0FF0CBFF02000B00174811F0D0
:101460000BF81A4810F0D8FFFEE70D4B0D4A3F214C
:101470000D480EF0AFFBC04638BA011033340020DF
:1014800037340020901100203B340020582D0020DC
:10149000401F002000007F4388110020381F0020DB
:1014A000F0B301100CB4011044B401102D3400202D
:1014B000E01F002040420F0000408F408CB401101C
:1014C00020BA0110102700004103001030BA0110AB
:1014D00070B505001E4C20000BF08AFA0922082185
:1014E00020000BF037FB290020000AF067FD0821DF
:1014F00020000AF01FFE174920000AF031FE1421D7
:1015000020000AF0A3FE144920000BF0B5F90521D4
:1015100020000AF0E1FE092120000BF01DFA012154
:1015200020000AF053FD20000AF025FF0B4B00229B
:101530001A700DF0BDFC002903DB094B18605960DF
:1015400070BD084B084A3F2108480EF043FBC046D7
:10155000842D002000C0644420A1070045340020F1
:1015600068200020F0B301100CB4011044B4011045
:1015700070B5FF218D480AF00BF9051E58D10DF00A
:1015800097FC002915DB8A4A00230FF021FD10008B
:10159000190010F017F80022864B0FF028FF020008
:1015A0000B00854810F068FF844810F035FF0124D7
:1015B00024E0834B834A3F2183480EF00BFBD0236A
:1015C0001B0640229A6126E0D0231B0680229A61E6
:1015D00027E0D02212068021516140395161013348
:1015E0007A4A13700124794B1B78062B02D9774B6A
:1015F00000221A70FA2040000DF08AFB734B1B7812
:10160000002BE6D101235C40E4B2002CD7D0D023DC
:101610001B0640225A61002CD6D0D0231B06802204
:101620005A61002CDFD16A4A137801331370DAE76C
:1016300068480AF075FA041E58D10DF039FC0029EB
:1016400015DB5B4A00230FF0C3FC100019000FF0FC
:10165000B9FF0022574B0FF0CAFE02000B0056489C
:1016600010F00AFF5C4810F0D7FE2C0025E0544B28
:10167000544A3F2154480EF0ADFA01235C40E4B2D5
:10168000002C29D0D0231B0640225A61002C28D0E0
:10169000D0231B0680225A61002C03D14C4A1378B8
:1016A00001331370494B1B78072B02D9474B00229B
:1016B0001A70FA2040000DF02BFB444B1B78012BD5
:1016C000DBD9D022120680215161403951610133AA
:1016D0003E4A13702C00E5E7D0231B0640229A6196
:1016E000D4E7D0231B0680229A61D5E73B480AF055
:1016F00095FF002800D070BD0DF0DAFB002915DB46
:101700002B4A00230FF064FC100019000FF05AFF61
:101710000022284B0FF06BFE02000B00264810F051
:10172000ABFE2F4810F078FE250024E0244B254A1C
:101730003F2125480EF04EFAD0231B0640229A6125
:1017400026E0D0231B0680229A6127E0D0221206D1
:10175000802151614039516101331C4A13702500C9
:101760001A4B1B78082B02D9184B00221A70FA204A
:1017700040000DF0CDFA154B1B78022BE6D8012363
:101780005D40EDB2002DD7D0D0231B0640225A6118
:10179000002DD6D0D0231B0680225A61002DDFD128
:1017A0000B4A137801331370DAE7C046242D00206A
:1017B00040420F0000408F408CB401106CBA011001
:1017C000F0B301100CB4011044B401102F34002008
:1017D00039340020582D002078BA0110842D0020C3
:1017E00088BA011001604260704770470B6803605F
:1017F0004B6843600B7A013B5A4253410372704776
:101800007047000010B584B00290039100920193DC
:10181000002808D0009B002B0BD00398019B984216
:101820003AD1002324E01F4B1F4A31211F480EF0FC
:10183000D1F91F4B1C4A32211C480EF0CBF91D4B2D
:101840001D4A73211D480EF0C5F91D4B1A4A74211B
:101850001A480EF0BFF9174B174A732117480EF0BC
:10186000B9F9174B144A742114480EF0B3F9013337
:10187000834214D2029A002AE1D003998B42E4D821
:10188000D15C009A002AE6D0019CA342E9D8D25C40
:101890008A42ECD0002000E0002004B010BD0120FE
:1018A000FBE7C04694BA0110A4BA01107CBC011039
:1018B000E0BC0110F0BC0110FCBC011048BD0110DF
:1018C000B0BD0110F0B5CE46474680B585B00500E5
:1018D0004368002B1FD082689446634400221A722A
:1018E000046841680831866832006846FFF77AFF6D
:1018F000A468002C15D021000831E28802A8FFF767
:1019000071FF029A039B00980199FFF77BFF002863
:1019100007D12468EDE7284B284A1D2128480EF0FE
:1019200059F9002C08D0A3880133A380200005B00A
:10193000C0BCB946B046F0BD2B6899466B68984666
:101940004B461F684346002B0ED080235B029E420D
:1019500010D23B689B6832000932414638009847F4
:10196000041E07D0C6800AE0164B174A31211748DB
:101970000EF030F93B685B68414638009847002C10
:1019800009D0002C0BD02B680FD09A6822609C6085
:1019900000236B60CAE701234A461371F1E7094B44
:1019A000064A222106480EF015F9064B084A462140
:1019B00008480EF00FF9C046BCBD0110D0BD0110A3
:1019C00030BE011090BE0110A0BE011058BF011022
:1019D000B4BF011014C0011070470000F0B5DE461E
:1019E00057464E464546E0B587B081468B46011EB8
:1019F00009D001782B290CD02D2910D12C398C46F7
:101A0000E1448A460DE0BD4BBD4A1A31BD480EF097
:101A1000E1F801218C46E14400218A4601E00021E1
:101A20008A464946087801003039C9B2092905D9E2
:101A30002E2800D058E10024002501E000240025D4
:101A40004E463678B046303EF6B2B446092E22D81D
:101A5000AD4EB5421FD81BD0A60FAB003343A2003A
:101A6000A4185D4126002F00B6197F4134003D00C7
:101A70000094019560460021C643B4467E1C16D0F2
:101A8000009C019D24184D410126B446E144D7E74E
:101A90009E4EB442E0D9404600282ED15346002B3A
:101AA0001CD080231B069D4204D9002626E06445F5
:101AB000E6D9F0E79D4201D1002CF6D10023624225
:101AC000AB415946097A7F208143584601720A206A
:101AD0000143584601720260436007E15B461B7A8E
:101AE0007F2293435A461372082213435A461372B5
:101AF0001460556001239A46F8E0002680235B03BA
:101B00009D420AD30A220023200029000FF060FA28
:101B100004000D00013636B2F0E749460A7813009A
:101B2000303BDBB2092B03D8013636B20131F5E781
:101B300089462E2A0FD04B461B78652B35D0452B76
:101B400033D00023F6184B461F78002F00D18FE0CA
:101B500000239A46CAE001239C46E144B4464A4623
:101B600013E0A70FA9003943A00024184D41241900
:101B70006D41029300230393029E039FA4197D41AC
:101B80006646013E33B29C4601321378303BDBB2ED
:101B9000092B07D85E4FBD42F6D8E2D15D4FBC425B
:101BA000F2D8DEE766469146C5E74B46581C5B789F
:101BB0002D2B04D02B2B05D0002700232AE0013049
:101BC0000127FAE7484602300027F6E70020002107
:101BD00038E05346002B17D000204F49FFF7FCFE9A
:101BE00080231B069C4661445B461B7A7F229343FD
:101BF0005A4613720C2213435A46137202000B000A
:101C000059460A604B6029E000204349FFF7E4FE93
:101C1000EAE70130027811003039C9B2092920D829
:101C20009900CB185B00303A9B18F1189A225200A9
:101C30009142EEDD002FCCD05346002BC6D00020C1
:101C4000802109065B461B7A7F2293435A46137212
:101C50000C2213435A4613721060516001239A46B6
:101C600044E0002F02D05B4281466BE7814669E782
:101C7000200029000FF0A6FC04000091002E04DDD6
:101C8000264D002E06DC764204E0254DF9E776105D
:101C90000137FFB2002E0CD0F307F8D5FB00EB188C
:101CA0001A685B68200000990FF0BFFB04000091E8
:101CB000EDE75346002B05D0009B80221206944688
:101CC000634400935B461B7A7F2293435A46137208
:101CD0000C2213435A4613722200009B59460A6095
:101CE0004B6001239A4601E000239A46504607B014
:101CF000F0BCBB46B246A946A046F0BD70C001107C
:101D000078C00110E0C00110999999199999999991
:101D100099990100989999990000F07F50DE01107F
:101D200008DE01107047000010B5FFF7FBFF0068E8
:101D3000002800D010BD0148FCE7C0464CC201108D
:101D400010B588B0027A7F231340043BDAB2082A28
:101D50002DD89300184AD3589F4600780FF0DAFB2D
:101D600027E0416800680FF02DFC22E04168006820
:101D70000FF01CFC1DE00068083000246B461C744A
:101D800002A9FFF72BFE02AB06930794082206A9CF
:101D9000684610F0ABF90098002802D0FFF7D0FF9A
:101DA00007E00020002104E04168006801E0002015
:101DB000002108B010BDC04640C101100123002918
:101DC00004D104D180221206904200D30023D8B25D
:101DD00070478022120600238018594101230029F0
:101DE00000D00023D8B2704710B50400FFF7E6FF1B
:101DF000002801D0200010BD0020FCE710B5040031
:101E0000FFF7E7FF002801D0200010BD0020FCE70D
:101E1000F8B5066847680C684D6822002B00300052
:101E200039000FF04DFB00280BD122002B003000B1
:101E300039000FF05BFB002801D10120F8BD022022
:101E4000FCE70420FAE710B50468426808684B68AC
:101E5000934207DC04D09A4208DC05D0012010BD73
:101E6000A042F8D90420FAE78442F7D90220F6E725
:101E700010B50468426808684B68934207D804D0DC
:101E80009A4208D805D0012010BDA042F8D90420FC
:101E9000FAE78442F7D90220F6E70123002902D1AC
:101EA00002D1FF2800D90023D8B2704710B5040032
:101EB000FFF7F3FF002801D0E0B210BD0020FCE7DF
:101EC00000290ADB0123002902DD0023D8B2704774
:101ED0000029FBD1FF28F9D9F7E70020F7E710B573
:101EE0000400FFF7EDFF002801D0E0B210BD002094
:101EF000FCE7000070B504000D00002200230FF085
:101F0000EDFA002809D00022054B200029000FF02F
:101F1000DDFA002802D0012000E0002070BDC0469C
:101F200000E06F4070B504000D00FFF7E3FF0028EC
:101F300005D0200029000FF02DFBC0B270BD00209D
:101F4000FCE7000030B599B0027A7F231340043BD0
:101F5000DAB2082A00D9C5E09300644AD3589F46F4
:101F60000078C0E041680068FFF7A0FFBBE041686F
:101F70000068FFF7B4FFB6E0006804AC00252572E6
:101F80002100FFF72BFD0C940D9508220CA9684643
:101F900010F0ACF8227A7F231340043BDAB2082A0F
:101FA00040D89300524AD3589F4604AB18789AE021
:101FB00004980599FFF77AFF95E004980599FFF7D3
:101FC0008EFF90E000246B4628229B181C7008A905
:101FD0000498FFF703FD08AB0E930F9408220EA997
:101FE00002A810F083F808A8FFF7ACFF7BE0049884
:101FF000083000246B4628229B181C7008A9FFF7A4
:10200000EDFC08AB10931194082210A902A810F05F
:102010006DF808A8FFF796FF65E004980599FFF7AB
:1020200081FF60E000205EE00068083004AC00251D
:1020300025722100FFF7D2FC12941395082212A9F1
:10204000684610F053F8227A7F231340043BDAB23B
:10205000082A40D89300274AD3589F4604AB1878E3
:1020600041E004980599FFF721FF3CE004980599A9
:10207000FFF735FF37E000246B4628229B181C70C1
:1020800008A90498FFF7AAFC08AB1493159408223A
:1020900014A902A810F02AF808A8FFF753FF22E0BD
:1020A0000498083000246B4628229B181C7008A94D
:1020B000FFF794FC08AB16931794082216A902A800
:1020C00010F014F808A8FFF73DFF0CE004980599FC
:1020D000FFF728FF07E0002005E041680068FFF7F0
:1020E00021FF00E0002019B030BDC04664C10110DE
:1020F00088C10110ACC1011070B504000D000022B0
:10210000084B0FF0EBF9002809D0074A074B2000D5
:1021100029000FF0DBF9002802D0012000E00020A8
:1021200070BDC0460000E0C10000C0FFFFFFDF41FE
:1021300070B504000D00FFF7DFFF002804D0200079
:1021400029000FF003FA70BD0020FCE730B599B00C
:10215000027A7F231340043BDAB2082A00D9C5E093
:102160009300644AD3589F460078C0E041680068F5
:10217000FFF73AFEBBE041680068FFF73FFEB6E0BC
:10218000006804AC002525722100FFF727FC0C94A1
:102190000D9508220CA968460FF0A8FF227A7F232C
:1021A0001340043BDAB2082A40D89300524AD3586D
:1021B0009F4604AB18789AE004980599FFF714FE3F
:1021C00095E004980599FFF719FE90E000246B460E
:1021D00028229B181C7008A90498FFF7FFFB08AB86
:1021E0000E930F9408220EA902A80FF07FFF08A8F3
:1021F000FFF7ACFF7BE00498083000246B462822F0
:102200009B181C7008A9FFF7E9FB08AB1093119409
:10221000082210A902A80FF069FF08A8FFF796FF8F
:1022200065E004980599FFF783FF60E000205EE019
:102230000068083004AC002525722100FFF7CEFBB2
:1022400012941395082212A968460FF04FFF227AC4
:102250007F231340043BDAB2082A40D89300274A70
:10226000D3589F4604AB187841E004980599FFF7CE
:10227000BBFD3CE004980599FFF7C0FD37E0002462
:102280006B4628229B181C7008A90498FFF7A6FB30
:1022900008AB14931594082214A902A80FF026FF86
:1022A00008A8FFF753FF22E00498083000246B468B
:1022B00028229B181C7008A9FFF790FB08AB169307
:1022C0001794082216A902A80FF010FF08A8FFF71C
:1022D0003DFF0CE004980599FFF72AFF07E0002076
:1022E00005E041680068FFF723FF00E0002019B017
:1022F00030BDC046D0C10110F4C1011018C2011098
:10230000F0B5DE4657464E464546E0B587B0040078
:1023100004AB00221A80059206001036437D002B84
:1023200004D0237D984600236375BEE1B379002B6A
:102330000BD103695A1C02611B78002B0BDD002BAB
:102340000CDB337101237371EBE7C04BC04A2521CD
:10235000C0480DF03FFC0122B271F0E70023F0E726
:102360005E46A2E1B379002B0BD133685A1C326070
:102370001B78002B0BDD002B0CDB337101237371F9
:1023800097E1B24BB24A2521B2480DF023FC01225D
:10239000B271F0E70023F0E7B17900291AD1336870
:1023A0005A1C32601B78002B1ADD002B1BDB3371AB
:1023B00001237371227D002A00D1B1E1752A14D066
:1023C000A54B1D78002D00D14FE1AA4200D14BE171
:1023D0000233F6E79D4B9E4A25219E480DF0FAFBFD
:1023E0000122B271E1E70023E1E7002363750022D7
:1023F000002024E09D79002D0BD125696F1C2761F9
:102400002D78002D0BDD002D0CDB1D7101255D717C
:102410001CE08E4B8E4A25218E480DF0DBFB0127F8
:102420009F71F0E70025F0E7303BDBB20F2B23D89C
:1024300012011A4392B2002363750130C0B203281F
:102440000ED823001033657D002DD3D0237D002BC3
:1024500010D0402BE8D92025AB43373BDBB2E5E772
:10246000002000280AD007B0F0BCBB46B246A946FF
:10247000A046F0BD0220F4E70320F2E7A0239B0171
:10248000D3189BB28020C000834223D390239B01AA
:10249000D3189BB28021C9008B4220D30592012121
:1024A000002900D101E1059B7F2B25D9002202A93B
:1024B0000A703F211940803A0A4302A94A709B09D9
:1024C0009AB21F2A5BD84022524213438B70CD1C14
:1024D000B3468FE09205920D04AB1A80E0E704A9A1
:1024E0000B889B029205920D134380225202944660
:1024F000634405930121D3E7DBB2009363689946F7
:10250000002B03D0A568DB889D420AD06368002BAE
:1025100000D1CAE0A268511CA1609B18009A1A72EF
:10252000C3E023689B466D0001351B689A464B4605
:10253000002B0FD080235B029D4211D253461B68B3
:102540009B682A000932494650469847071E08D022
:10255000C5800CE0414B424A312142480DF03AFB24
:10256000002753461B685B68494650469847002F32
:1025700001D06760CAE701235A461371F9E73F218A
:10258000194080235B420B4302A98B7093090F2BE8
:1025900006D8202252421343CB7003ADB34629E044
:1025A0003F21194080235B420B4302A9CB70120BE1
:1025B00010235B421A430A714D1DB3461AE0274BA4
:1025C000274A312127480DF005FB0023009353468D
:1025D0001B685B68390050469847009B002B30D041
:1025E000009B63606368002B04D0A268511CA1604B
:1025F0009B181E72013D2E78002E00D1B0E6676850
:10260000002FEFD0A368FA889342EBD1226891465D
:102610005B000133019313689A46002FCFD08023CB
:102620005B02019A9A42D0D253461B689B680932DA
:1026300039005046984700900028C8D0019AC280BF
:10264000CBE701334A461371CAE7C04650C20110B6
:1026500058C20110D8C201103CC2011090BE011036
:10266000A0BE011058BF01105D78002D5AD0002384
:10267000637528E02D4B2E4A31212E480DF0AAFA21
:102680000023009353461B685B6839005046984707
:10269000009B002B39D0009B63606368002B04D043
:1026A000A268511CA1609B181D72637D002B00D194
:1026B00058E6257D00236375A8452AD0002D2DD02E
:1026C0005C2D00D168E66768002FE6D0A368FA8821
:1026D0009342E2D1226893465B0001339946136826
:1026E0009A46002FC6D080235B029945C8D2534634
:1026F0001B689B684A46093239005046984700904B
:102700000028BFD04A46C280C2E701335A4613713F
:10271000C1E76368002B07D00020A4E60220A2E6F0
:102720000220A0E603209EE604209CE690BE011055
:10273000A0BE011058BF011000B585B00268436803
:102740000092019308680EF0E9FE0290039102A93D
:102750006846FFF75DFB05B000BD00B583B00B68B0
:102760000093DB1701936946FFF76DFB03B000BDD3
:1027700000B583B00B680093DB1701936946FFF740
:1027800077FB03B000BD000000B593B0009001914D
:10279000002862D00492019B0593027A7F231340A4
:1027A000033BDAB23D2A56D893002D4AD3589F46B0
:1027B00002684368029203930022049902A8FFF77B
:1027C000BBFF4BE00890059B0993002046E0069074
:1027D000059B0793002041E000680F90002807D078
:1027E00018F06AFC0FAB109001221A72002035E03D
:1027F0000020F7E7036819000831DA880CAB0C9168
:102800000D9200221A72002028E003681A00083294
:10281000DB880A920B93002020E002684368029252
:1028200003930022049902A8FFF797FF16E00268BD
:102830004368029203930022049902A8FFF798FFCD
:102840000CE003780293002303930022049902A86A
:10285000FFF78EFF02E0002000E0002013B000BD73
:1028600030C3011000B585B0009001911368039347
:1028700003AAFFF789FF05B000BD0000F0B5CE4602
:10288000474680B585B00190029103921D00002853
:102890000CD0002D10D0029B9846280018F00CFC9C
:1028A000814680450ED24746002426E0244B254A27
:1028B000162125480DF08EF9244B224A1721224873
:1028C0000DF088F90700EFE7214B224A73212248D7
:1028D0000DF080F9214B1F4A74211F480DF07AF941
:1028E0001B4B1F4A23211C480DF074F91B4B1C4A3B
:1028F000242119480DF06EF90134BC4216D2019B17
:10290000002BE1D0029A9442E4D81E5D002DE7D05E
:10291000280018F0D1FB8442E8D8285DB042EBD003
:10292000301A05B0C0BCB946B046F0BDC84502D3A8
:1029300004D80020F5E701204042F2E70120F0E74B
:1029400094BA011028C401107CBC0110E0BC011035
:10295000F0BC0110FCBC011048BD0110B0BD01105D
:1029600004C6011000B585B00191029203930300E3
:1029700008001100039AFFF781FF404205B000BD37
:10298000F0B597B00D00037A7F241C40E31EDAB245
:102990003D2A62D89300374AD3589F464B680D931F
:1029A0000C900024200017B0F0BD4B680F930E90E0
:1029B0000024F7E70068049000281DD018F07CFB85
:1029C00004AB059001221A722A6801AD2900C1CB1F
:1029D000C1C11068FEF709FF0600290010A8FEF724
:1029E00005FF1099119A129B3000FFF7BBFF0028DA
:1029F00004DBD7DC0124D5E70020E1E70224D1E79E
:102A0000036819000831DA8807AB079108920022A1
:102A10001A722A6801AC210061CB61C11068FEF70F
:102A2000E4FE0500210013A8FEF7E0FE1399149AB6
:102A3000159B2800FFF796FF002804DB01DC01242A
:102A4000B0E70424AEE70224ACE703681A000832BA
:102A5000DB880A920B930024A4E72B681868FEF722
:102A6000C4FE002801D000249CE701249AE700243A
:102A700098E7C0465CC6011000B585B00090019192
:102A8000002807D00292019B039302A9FFF778FF69
:102A900005B000BD1068FEF7A8FE002801D0002098
:102AA000F6E70130F4E700B585B0009001911368B6
:102AB000039303AAFFF7E0FF05B000BDF0B5C646DB
:102AC00000B505000E0000280BD000290FD018F02B
:102AD000F3FA8046300018F0EFFA80453CD100242C
:102AE00024E0204B204A312120480DF073F8204B80
:102AF0001D4A32211D480DF06DF81E4B1E4A232140
:102B00001E480DF067F81E4B1B4A24211B480DF090
:102B100061F8184B184A232118480DF05BF8184B40
:102B2000154A242115480DF055F80134444517D2B3
:102B3000002DE2D0280018F0BFFA8442E3D82F5DC0
:102B4000002EE6D0300018F0B7FA8442E7D8335DA3
:102B5000BB42EAD0002000E0002080BCB846F0BDB7
:102B60000120FAE794BA011054C701107CBC01108F
:102B7000E0BC0110F0BC011004C6011048BD0110FA
:102B8000B0BD0110F0B583B0070015001E00002A8B
:102B90001DD009881A000C32424B99422AD088096C
:102BA0003F230B40948CA04218D2126AC000121826
:102BB0005088834218D252681B01D31800936A468A
:102BC0009180002B18D05B896A46D38037E00023C0
:102BD0000360013B8380380003B0F0BD324B334AC1
:102BE000622133480CF0F6FF324B334A3021334830
:102BF0000CF0F0FF0023E1E72A4BE5E7304B314AC8
:102C0000152131480CF0E6FF6B463A0003CB03C2B6
:102C1000E1E72E4B2E4A2B212B480CF0DBFF224BF9
:102C2000224A622122480CF0D5FF224B224A302151
:102C300022480CF0CFFF002129E04B89D380009B74
:102C4000002B2AD0DAD0D868FEF7CFFD010028008B
:102C5000FFF734FF0028D7D16B469A88114B9A4270
:102C6000D7D06B46DB8830000C300E4A9342E2D05E
:102C70009A093F211940848CA242D0D2006AD20026
:102C8000821850888142D0D254680901611800919D
:102C90006A4693800029D0D1D1E700233B60013BF5
:102CA000BB8098E7FFFF0000DCB40110F0B4011016
:102CB00080B50110E4B50110F0B501107CB601102B
:102CC000F0B7011034C9011080C90110E4C9011026
:102CD000FCC9011070B584B005000668383640683C
:102CE000FEF783FD04002D68002E2DD0337A9B065D
:102CF00021D5002E28D0002C1FD031882A000C327C
:102D0000464B99422FD088093F230B40968CB04206
:102D10001DD2126AC0001218508883421DD2526818
:102D20001B01D31800936A469180002B1DD05B894C
:102D30006A46D3803DE00026DBE70023029302AB26
:102D4000012252429A80029E300004B070BD344B82
:102D5000344A622134480CF03DFF344B344A302170
:102D600034480CF037FF0023DCE72C4BE0E7324B14
:102D7000324A152132480CF02DFF0822694602A87C
:102D80000FF0B4F9DFE72F4B2F4A2B212C480CF022
:102D900021FF234B234A622123480CF01BFF234BC6
:102DA000234A302123480CF015FF002329E05B89DA
:102DB000D380009B002B2AD0D9D0D868FEF715FD10
:102DC00001002000FFF77AFE0028D6D16B469A88D2
:102DD000124B9A42D7D06B46D98828000C300F4B43
:102DE0009942E2D08A093F230B40868CB242D0D26E
:102DF000006AD200821850888342D0D252681B01E8
:102E0000D31800936A469180002BD0D1D1E70023DC
:102E1000029302AB012252429A8094E7FFFF000026
:102E2000DCB40110F0B4011080B50110E4B501105C
:102E3000F0B501107CB60110F0B7011034C90110D3
:102E400080C90110E4C90110FCC9011070B584B03B
:102E500005004668C068FEF7C8FC0400AD68002E97
:102E60002DD0337A9B0621D5002E28D0002C1FD0E0
:102E700031882A000C32474B99422FD088093F23D2
:102E80000B40968CB0421DD2126AC00012185088B6
:102E900083421DD252681B01D31800936A46918069
:102EA000002B1DD05B896A46D3803DE00026DBE71E
:102EB0000023029302AB012252429A80029E30000C
:102EC00004B070BD344B354A622135480CF082FEA7
:102ED000344B354A302135480CF07CFE0023DCE7CA
:102EE0002C4BE0E7324B334A152133480CF072FE8D
:102EF0000822694602A80FF0F9F8DFE72F4B304AA5
:102F00002B212D480CF066FE234B244A62212448D5
:102F10000CF060FE234B244A302124480CF05AFE6A
:102F2000002329E05B89D380009B002B2AD0D9D0D5
:102F3000D868FEF75AFC01002000FFF7BFFD00280B
:102F4000D6D16B469A88134B9A42D7D06B46D98814
:102F500028000C300F4B9942E2D08A093F230B40E6
:102F6000868CB242D0D2006AD20082185088834246
:102F7000D0D252681B01D31800936A469180002B6F
:102F8000D0D1D1E70023029302AB012252429A80B2
:102F900094E7C046FFFF0000DCB40110F0B401105C
:102FA00080B50110E4B50110F0B501107CB6011038
:102FB000F0B7011034C9011080C90110E4C9011033
:102FC000FCC90110F0B59FB005004768C068FEF766
:102FD0000CFC0400AE68002F2DD03B7A9B0621D557
:102FE000002F28D0002C1FD0398832000C32B54B6E
:102FF000994243D088093F230B40978CB84231D285
:10300000126AC00012185088834231D252681B01E4
:10301000D3180A930AAA9180002B31D05A890AAB9F
:10302000DA8052E00027DBE70023109310AB012287
:1030300052429A80109FAB680E970F9308220EA9F8
:1030400068460FF053F8002F00D137E13A7A7F231A
:103050001340043BDAB2082A00D92DE193009A4AC2
:10306000D3589F46994B9A4A62219A480CF0B2FD78
:10307000994B9A4A30219A480CF0ACFD0023C8E7DE
:10308000904ACCE7974B984A152198480CF0A2FD3E
:1030900008220AA910A80FF029F8CBE7944B954A0B
:1030A0002B2192480CF096FD884B894A6221894871
:1030B0000CF090FD884B894A302189480CF08AFD3C
:1030C00000232AE05A890AABDA800A9B002B2AD017
:1030D000D8D0D868FEF789FB01002000FFF7EEFC8E
:1030E0000028D5D10AAB9A88764B9A42D6D00AAB43
:1030F000D98830000C30734B9942E1D08A093F23C4
:103100000B40878CBA42CFD2006AD2008218508816
:103110008342CFD252681B01D3180A930AAA918026
:10312000002BCFD1D1E70023109310AB01225242E4
:103130009A807FE73878C2E038687968FEF7B6FE93
:10314000BDE038687968FEF7CAFEB8E0386806ACBA
:10315000002525722100FEF741FC129413950822E8
:1031600012A902A80EF0C2FF227A7F231340043B6B
:10317000DAB2082A40D893005F4AD3589F4606AB7C
:1031800018789CE006980799FEF790FE97E006985D
:103190000799FEF7A4FE92E000246B4630229B18AC
:1031A0001C700AA90698FEF719FC0AAB1493159433
:1031B000082214A904A80EF099FF0AA8FEF7C2FE7F
:1031C0007DE00698083000246B4630229B181C7066
:1031D0000AA9FEF703FC0AAB16931794082216A956
:1031E00004A80EF083FF0AA8FEF7ACFE67E006987D
:1031F0000799FEF797FE62E0002060E0386808302B
:1032000006AC002525722100FEF7E8FB18941995FD
:10321000082218A902A80EF069FF227A7F23134022
:10322000043BDAB2082A40D89300344AD3589F4668
:1032300006AB187843E006980799FEF737FE3EE0A4
:1032400006980799FEF74BFE39E000246B463022C2
:103250009B181C700AA90698FEF7C0FB0AAB1A93CC
:103260001B9408221AA904A80EF040FF0AA8FEF732
:1032700069FE24E00698083000246B4630229B1833
:103280001C700AA9FEF7AAFB0AAB1C931D94082226
:103290001CA904A80EF02AFF0AA8FEF753FE0EE0B0
:1032A00006980799FEF73EFE09E0002007E038681F
:1032B0007968FEF737FE02E0002000E000201FB032
:1032C000F0BDC046FFFF000070CA0110DCB4011061
:1032D000F0B4011080B50110E4B50110F0B5011093
:1032E0007CB60110F0B7011034C9011080C901107B
:1032F000E4C90110FCC9011094CA0110B8CA011038
:10330000F0B59FB00500076838374068FEF76DFAE2
:1033100004002E68002F2DD03B7A9B0621D5002F6C
:1033200028D0002C1FD0398832000C32B44B99427F
:1033300043D088093F230B40978CB84231D2126AA0
:10334000C00012185088834231D252681B01D31832
:103350000A930AAA9180002B31D05A890AABDA80ED
:1033600052E00027DBE70023109310AB012252420A
:103370009A80109F2B680E970F9308220EA968461B
:103380000EF0B4FE002F00D137E13A7A7F231340CC
:10339000043BDAB2082A00D92DE19300994AD358A8
:1033A0009F46994B994A622199480CF013FC994B1E
:1033B000994A302199480CF00DFC0023C8E7904A47
:1033C000CCE7974B974A152197480CF003FC08224D
:1033D0000AA910A80EF08AFECBE7944B944A2B2141
:1033E00091480CF0F7FB884B884A622188480CF022
:1033F000F1FB884B884A302188480CF0EBFB002316
:103400002AE05A890AABDA800A9B002B2AD0D8D04E
:10341000D868FEF7EAF901002000FFF74FFB00280B
:10342000D5D10AAB9A88764B9A42D6D00AABD988C6
:1034300030000C30724B9942E1D08A093F230B4097
:10344000878CBA42CFD2006AD20082185088834259
:10345000CFD252681B01D3180A930AAA9180002B7D
:10346000CFD1D1E70023109310AB012252429A80B2
:103470007FE73878C2E038687968FEF717FDBDE06D
:1034800038687968FEF72BFDB8E0386806AC00258F
:1034900025722100FEF7A2FA12941395082212A9B0
:1034A00002A80EF023FE227A7F231340043BDAB2F7
:1034B000082A40D893005F4AD3589F4606AB187835
:1034C0009CE006980799FEF7F1FC97E006980799AB
:1034D000FEF705FD92E000246B4630229B181C701D
:1034E0000AA90698FEF77AFA0AAB149315940822F3
:1034F00014A904A80EF0FAFD0AA8FEF723FD7DE04A
:103500000698083000246B4630229B181C700AA9CC
:10351000FEF764FA0AAB16931794082216A904A8BA
:103520000EF0E4FD0AA8FEF70DFD67E00698079986
:10353000FEF7F8FC62E0002060E03868083006AC76
:10354000002525722100FEF749FA189419950822E2
:1035500018A902A80EF0CAFD227A7F231340043B6B
:10356000DAB2082A40D89300334AD3589F4606ABB4
:10357000187843E006980799FEF798FC3EE0069815
:103580000799FEF7ACFC39E000246B4630229B180B
:103590001C700AA90698FEF721FA0AAB1A931B942D
:1035A00008221AA904A80EF0A1FD0AA8FEF7CAFC79
:1035B00024E00698083000246B4630229B181C70CB
:1035C0000AA9FEF70BFA0AAB1C931D9408221CA94A
:1035D00004A80EF08BFD0AA8FEF7B4FC0EE00698D6
:1035E0000799FEF79FFC09E0002007E0386879683A
:1035F000FEF798FC02E0002000E000201FB0F0BDC4
:10360000FFFF0000DCCA0110DCB40110F0B40110AF
:1036100080B50110E4B50110F0B501107CB60110C1
:10362000F0B7011034C9011080C90110E4C90110BC
:10363000FCC9011000CB011024CB0110F0B58BB0F8
:10364000050001914768C068FEF7CFF80400AE6836
:10365000002F2DD03B7A9B0621D5002F28D0002C9F
:103660001FD0398832000C32504B994241D0880922
:103670003F230B40978CB8422FD2126AC000121819
:10368000508883422FD252681B01D318029302AA9A
:103690009180002B2FD05A8902ABDA8050E00027AE
:1036A000DBE70023089308AB012252429A80089F6F
:1036B000AC6806970794082206A902A80EF016FD2A
:1036C0000497059401AA38002100FFF7ECF90138AE
:1036D00043425841C0B20BB0F0BD354B354A622170
:1036E00035480CF077FA354B354A302135480CF027
:1036F00071FA0023CAE72D4ACEE7334B334A15212E
:1037000033480CF067FA082202A908A80EF0EEFC74
:10371000CDE7304B304A2B212D480CF05BFA244B7F
:10372000244A622124480CF055FA244B244A3021C3
:1037300024480CF04FFA00232AE05A8902ABDA80C1
:10374000029B002B2AD0D8D0D868FEF74EF8010093
:103750002000FFF7B3F90028D5D102AB9A88134BAC
:103760009A42D6D002ABD98830000C300F4B994228
:10377000E1D08A093F230B40878CBA42CFD2006A3E
:10378000D200821850888342CFD252681B01D318CE
:10379000029302AA9180002BCFD1D1E70023089396
:1037A00008AB012252429A8081E7C046FFFF000029
:1037B000DCB40110F0B4011080B50110E4B50110C3
:1037C000F0B501107CB60110F0B7011034C901103A
:1037D00080C90110E4C90110FCC90110F0B5CE4642
:1037E000474680B587B081460D000B683822944665
:1037F000634498464868FDF7F8FF04002F68434685
:10380000002B30D01B7A9B0622D54346002B2AD0B2
:10381000002C20D019883A000C32554B994248D0E0
:1038200088093F230B40968CB04236D2126AC00002
:1038300012185088834236D252681B01D318009365
:103840006A469180002B36D05B896A46D38056E069
:1038500000239846D9E70023049304AB0122524287
:103860009A80049B98462C6843460293039408224E
:1038700002A968460EF03AFC4346002B03D01B7A9F
:103880009B0600D470E043464A46136054604846A5
:1038900007B0C0BCB946B046F0BD364B364A6221CF
:1038A00036480CF097F9364B364A302136480CF042
:1038B00091F90023C3E72E4BC7E7344B344A152157
:1038C00034480CF087F90822694604A80EF00EFC73
:1038D000C7E7314B314A2B212E480CF07BF9254BA1
:1038E000254A622125480CF075F9254B254A3021DF
:1038F00025480CF06FF9002329E05B89D380009BF9
:10390000002B2AD0D9D0D868FDF76FFF0100200026
:10391000FFF7D4F80028D6D16B469A88144B9A4208
:10392000D7D06B46D98838000C30114B9942E2D081
:103930008A093F230B40868CB242D0D2006AD20063
:10394000821850888342D0D252681B01D31800934A
:103950006A469180002BD0D1D1E70023049304ABB9
:10396000012252429A807CE7002398468BE7C046AA
:10397000FFFF0000DCB40110F0B4011080B50110AD
:10398000E4B50110F0B501107CB60110F0B70110DC
:1039900034C9011080C90110E4C90110FCC901102B
:1039A000F0B5CE46474680B587B081460D004B68DE
:1039B0009846C868FDF719FF0400AF684346002B1E
:1039C00030D01B7A9B0622D54346002B2AD0002CF0
:1039D00020D019883A000C32544B994248D08809BB
:1039E0003F230B40968CB04236D2126AC0001218A8
:1039F0005088834236D252681B01D31800936A461E
:103A00009180002B36D05B896A46D38056E0002334
:103A10009846D9E70023049304AB012252429A80CE
:103A2000049B9846AC68434602930394082202A97B
:103A300068460EF05BFB4346002B03D01B7A9B06C7
:103A400000D470E043464A4613605460484607B0CD
:103A5000C0BCB946B046F0BD354B364A6221364847
:103A60000CF0B8F8354B364A302136480CF0B2F835
:103A70000023C3E72D4BC7E7334B344A15213448A5
:103A80000CF0A8F80822694604A80EF02FFBC7E73F
:103A9000304B314A2B212E480CF09CF8244B254A00
:103AA000622125480CF096F8244B254A3021254800
:103AB0000CF090F8002329E05B89D380009B002B59
:103AC0002AD0D9D0D868FDF790FE01002000FEF77B
:103AD000F5FF0028D6D16B469A88144B9A42D7D06E
:103AE0006B46D98838000C30104B9942E2D08A09D5
:103AF0003F230B40868CB242D0D2006AD20082189B
:103B000050888342D0D252681B01D31800936A4672
:103B10009180002BD0D1D1E70023049304AB012284
:103B200052429A807CE7002398468BE7FFFF000013
:103B3000DCB40110F0B4011080B50110E4B501103F
:103B4000F0B501107CB60110F0B7011034C90110B6
:103B500080C90110E4C90110FCC90110F0B5C646C6
:103B600000B5A0B0040088464768C068FDF73DFE78
:103B70000500A668002F2DD03B7A9B0621D5002F8B
:103B800028D0002D1FD0398832000C32CA4B994200
:103B90005FD088093F230B40978CB8424DD2126A00
:103BA000C0001218508883424DD252681B01D318AE
:103BB0000A930AAA9180002B4DD05A890AABDA8069
:103BC0006EE00027DBE70023109310AB0122524286
:103BD0009A80109F0E97A3680F9308220EA90AA837
:103BE0000EF084FA002F00D15FE13A7A7F23134070
:103BF000082B00D189E00A2B00D18BE0002000289F
:103C000000D152E12000FFF721F90500A3681290CE
:103C10001393082212A968460EF068FA002D00D10D
:103C200041E12A7A7F231340043BDAB2082A00D903
:103C300037E19300A14AD3589F46A14BA14A622184
:103C4000A1480BF0C7FFA14BA14A3021A1480BF0BE
:103C5000C1FF0023ACE7984AB0E79F4B9F4A15216C
:103C60009F480BF0B7FF08220AA910A80EF03EFAF1
:103C7000AFE79C4B9C4A2B2199480BF0ABFF904B34
:103C8000904A622190480BF0A5FF904B904A30215A
:103C900090480BF09FFF00232AE05A890AABDA8094
:103CA0000A9B002B2AD0D8D0D868FDF79EFD0100D2
:103CB0002800FEF703FF0028D5D10AAB9A887E4B77
:103CC0009A42D6D00AABD98830000C307A4B994250
:103CD000E1D08A093F230B40878CBA42CFD2006AD9
:103CE000D200821850888342CFD252681B01D31869
:103CF0000A930AAA9180002BCFD1D1E70023109319
:103D000010AB012252429A8063E738687968FEF767
:103D100055F874E738687968FEF75BF86FE728783C
:103D2000C5E028686968FEF75FF8C0E02868696840
:103D3000FEF764F8BBE0286806AC00252572210078
:103D4000FDF74CFE14941595082214A902A80EF054
:103D5000CDF9227A7F231340043BDAB2082A40D8F7
:103D60009300624AD3589F4606AB18789FE00698A6
:103D70000799FEF739F89AE006980799FEF73EF89A
:103D800095E000246B4630229B181C700AA9069807
:103D9000FDF724FE0AAB16931794082216A904A86F
:103DA0000EF0A4F90AA8FEF7D1F980E006980830D1
:103DB00000246B4630229B181C700AA9FDF70EFEEA
:103DC0000AAB18931994082218A904A80EF08EF9CA
:103DD0000AA8FEF7BBF96AE006980799FEF7A8F96A
:103DE00065E0002063E02868083006AC00252572F5
:103DF0002100FDF7F3FD1A941B9508221AA902A8C9
:103E00000EF074F9227A7F231340043BDAB2082AB9
:103E100040D89300364AD3589F4606AB187846E000
:103E200006980799FDF7E0FF41E006980799FDF72E
:103E3000E5FF3CE000246B4630229B181C700AA969
:103E40000698FDF7CBFD0AAB1C931D9408221CA914
:103E500004A80EF04BF90AA8FEF778F927E00698B7
:103E6000083000246B4630229B181C700AA9FDF70D
:103E7000B5FD0AAB1E931F9408221EA904A80EF0DC
:103E800035F90AA8FEF762F911E006980799FEF7DE
:103E90004FF90CE000200AE028686968FEF748F94D
:103EA00005E0002003E0002001E04346186820B050
:103EB00080BCB846F0BDC046FFFF000048CB0110F3
:103EC000DCB40110F0B4011080B50110E4B50110AC
:103ED000F0B501107CB60110F0B7011034C9011023
:103EE00080C90110E4C90110FCC901106CCB01109C
:103EF00090CB0110F0B5C64600B5A2B004008846CC
:103F0000076838374068FDF770FC05002668002F09
:103F10002DD03B7A9B0621D5002F28D0002D1FD015
:103F2000398832000C32B74B994266D088093F235A
:103F30000B40978CB84254D2126AC00012185088B5
:103F4000834254D252681B01D318109310AA918057
:103F5000002B54D05A8910ABDA8075E00027DBE7DC
:103F60000023169316AB012252429A80169F149793
:103F700023681593082214A910A80EF0B7F8002F93
:103F800000D138E13B7A1B0700D434E1256838358D
:103F90006068FDF72AFC02002368002D0AD0297A08
:103FA000890600D485E0002D04D029001AA8FEF768
:103FB000E9FD1A9D236818951993082218A96846E7
:103FC0000EF094F8002D00D112E12A7A7F231340DD
:103FD000043BDAB2082A00D907E193008A4AD35891
:103FE0009F468A4B8A4A62218A480BF0F3FD8A4B2E
:103FF0008A4A30218A480BF0EDFD0023A5E7814A6B
:10400000A9E7884B884A152188480BF0E3FD082270
:1040100010A916A80EF06AF8A8E7854B854A2B214F
:1040200082480BF0D7FD794B794A622179480BF031
:10403000D1FD794B794A302179480BF0CBFD002333
:104040002AE05A8910ABDA80109B002B2AD0D8D0F6
:10405000D868FDF7CAFB01002800FEF72FFD0028F5
:10406000D5D110AB9A88674B9A42D6D010ABD9887D
:1040700030000C30634B9942E1D08A093F230B405A
:10408000878CBA42CFD2006AD2008218508883420D
:10409000CFD252681B01D318109310AA9180002B25
:1040A000CFD1D1E70023169316AB012252429A805A
:1040B0005CE7002577E728780DF02CFA9EE0286869
:1040C00069680DF07FFA99E0286869680DF06EFA6A
:1040D00094E02868083000246B4628229B181C7046
:1040E00008A9FDF77BFC08AB1C931D9408221CA9B2
:1040F00002A80DF0FBFF029A002A70D0117A7F23EC
:104100000B40043BD9B2082966D88B004A49CB58EA
:104110009F4610780DF0FEF970E0106851680DF0C0
:1041200051FA6BE0106851680DF040FA66E01068D3
:10413000083000246B4638229B181C700CA9FDF730
:104140004DFC0CAB1E931F9408221EA904A80DF071
:10415000CDFF049A002A39D0117A7F230B40043B0B
:10416000D9B208292FD88B003449CB589F461078F4
:104170000DF0D0F942E0106851680DF023FA3DE0EF
:10418000106851680DF012FA38E010680830002409
:104190006B4648229B181C7010A9FDF71FFC10AB42
:1041A00020932194082220A906A80DF09FFF0698CD
:1041B000A04202D0FDF7C4FD20E0002000211DE058
:1041C000106851681AE00020002117E0002000214B
:1041D00014E01068516811E0002000210EE000207A
:1041E00000210BE02868696808E00020002105E054
:1041F0000020002102E043461868596822B080BCC4
:10420000B846F0BDFFFF0000B4CB0110DCB40110D4
:10421000F0B4011080B50110E4B50110F0B5011043
:104220007CB60110F0B7011034C9011080C901102B
:10423000E4C90110FCC90110D8CB0110FCCB01105E
:10424000F0B5DE4657464E464546E0B58FB0040011
:1042500005916A46D374DBB2002B01D100F057FC04
:1042600003001033427D002A27D0237D7B2B3ED1D3
:104270000023637523001033627D002A3DD0237D27
:10428000002B54D0202B09D8092B07D3093BDBB2D4
:1042900001229A401300B54A134251D101232373DE
:1042A00000230393039B002B4DD003980FB0F0BC69
:1042B000BB46B246A946A046F0BD9A79002A0BD16A
:1042C0000269511C01611278002A0BDD002A0CDB07
:1042D0001A7101225A71C8E7A54BA64A2521A648A2
:1042E0000BF078FC01219971F0E70022F0E7A34B75
:1042F000A34AF321A3480BF06DFC9A79002A0BD155
:104300002269511C21611278002A0BDD002A0CDB86
:104310001A7101225A71B2E7954B964A25219648A7
:104320000BF058FC01219971F0E70022F0E7237BA4
:10433000002B02D101230393B4E702230393B1E7D7
:104340000023637596E723001033627D002A07D0AF
:10435000237D7D2B1ED100236375013301931BE068
:104360009A79002A0BD12269511C21611278002A06
:104370000BDD002A0CDB1A7101225A71E8E77C4B35
:104380007C4A25217C480BF025FC01219971F0E73E
:104390000022F0E700230193019B002B00D122E2D1
:1043A00083E72568286803681B6828219847002848
:1043B00003D01F23C3801E3B8380002801D0606090
:1043C00017E201232B71FAE79A79002A0BD12269AF
:1043D000511C21611278002A0BDD002A0CDB1A71B6
:1043E00001225A710BE2624B624A252162480BF0AE
:1043F000F1FB01219971F0E70022F0E743469B7938
:10440000002B0CD123695A1C22611B78002B0CDD78
:10441000002B0EDB4246137101235371FDE1544B17
:10442000544A252154480BF0D5FB012241468A719C
:10443000EEE70023EEE7E321534B544A490051488D
:104440000BF0C8FB0123029304E00123029301E077
:10445000019B0293029B002B00D182E0474656E06D
:1044600001230293F6E7226891465B0001339846E8
:1044700013689B46002E11D080235B02984513D20F
:104480005B461B689B684246093231005846984794
:10449000824600280AD04246C2800DE03C4B3D4A8D
:1044A00031213D480BF096FB00239A465B461B6882
:1044B0005B683100584698475346002B02D053465C
:1044C00063602DE001334A461371F8E7BB79002B96
:1044D0000BD13B685A1C3A601B78002B0BDD002B7C
:1044E0000CDB3B7101237B7125E0214B214A252107
:1044F00021480BF06FFB0122BA71F0E70023F0E7CF
:10450000029B02E0029B00E0019B002B24D00023D1
:1045100063756668002E03D0A368F2889342A2D028
:104520006368002B04D0A268511CA1609B181D7207
:10453000637D002BCAD0257D2F2D01D9392DDFD9E0
:104540005E2D01D97A2DDDD9402DDDD95A2D01D925
:10455000019BDAE7029BD8E76368002B03D003983E
:104560001FE003201DE004201BE0C0461300800074
:1045700050C2011058C20110D8C2011020CC011045
:1045800034CC011094CD011060E50110F4CD011080
:1045900090BE0110A0BE011058BF01102000FDF711
:1045A000AFFE002800D098E223001033627D002A7D
:1045B00020D0237D002B37D0202B09D8092B07D3FF
:1045C000093BDBB201229A401300B74A134232D1B1
:1045D00001232373002800D082E223001033627D80
:1045E000002A2BD0237D3A2B42D10023637501335F
:1045F00098463FE09A79002A0BD12269511C21612B
:104600001278002A0BDD002A0CDB1A7101225A7184
:10461000CFE7A64BA64A2521A6480BF0DBFA0121DD
:104620009971F0E70022F0E7237B002B01D10120F4
:10463000D0E70220CEE700236375B5E79A79002A18
:104640000BD12269511C21611278002A0BDD002A4E
:104650000CDB1A7101225A71C4E7944B944A25214C
:1046600094480BF0B7FA01219971F0E70022F0E7C6
:10467000019B98464346002B00D134E26368002B2F
:1046800033D0A2689446634400221A7260680830EE
:1046900009AB0990A1680A911A72FDF7A6F8051EE8
:1046A000A66928D0059B198832000C32824B9942AA
:1046B00000D1D5E088093F230B40978CB84200D346
:1046C000C2E0126AC00012185088834200D3C1E0D1
:1046D00052681B01D318079307AA9180002B00D1C1
:1046E000C0E05A8907ABDA8007E1744B744A452170
:1046F00074480BF06FFA00230C930CAB012252426A
:104700009A800C9D002D00D12CE1A1692800FCF7B6
:1047100049F82B7A7F2293432B726B46DB7C002B6C
:1047200000D156E1013BDBB200222900200000F05D
:1047300015FA002800D0DAE123001033627D002A48
:1047400000D14CE1237D002B00D162E1202B0AD85F
:10475000092B08D3093BDBB201229A401300524ACD
:10476000134200D05CE101232373002800D0C1E193
:1047700023001033627D002A00D154E1237D7D2B7C
:1047800000D06AE1002363754346002B00D0B4E1FA
:1047900022001032617D002900D160E1227D2C2AA7
:1047A00002D1002363754346002B00D1A8E123000A
:1047B0001033627D002A00D16BE1237D002B00D1F4
:1047C00081E1202B0AD8092B08D3093BDBB2012257
:1047D0009A401300344A134200D07BE10123237333
:1047E000002800D090E10023A3606368002B00D173
:1047F000D7E523001033627D002A00D1E4E5237D54
:10480000272B00D1CAE6222B00D1C7E610239846F9
:10481000A044637D002B00D1F0E5257D002D00D163
:1048200009E62F2D02D9392D00D80BE65E2D02D9CD
:104830007A2D00D809E6402D00D809E65A2D00D877
:104840000EE6019B029305E61F4B204A6221204899
:104850000BF0C0F91F4B204A302120480BF0BAF969
:10486000002338E7144A3DE71D4B1E4A15211E4818
:104870000BF0B0F90CAA07AB03CB03C241E71B4B0B
:104880001B4A2B2118480BF0A5F90F4B0F4A622148
:104890000F480BF09FF90F4B0F4A30210F480BF0D8
:1048A00099F9002351E0C0461300800050C2011066
:1048B00058C20110D8C20110FFFF0000BCBD01109A
:1048C000B8CE011030BE0110DCB40110F0B40110FC
:1048D00080B50110E4B50110F0B501107CB60110EF
:1048E000F0B7011034C9011080C90110E4C90110EA
:1048F000FCC901105A8907ABDA80079B002B2AD02C
:10490000B2D0D868FCF771FF01002800FEF7D6F896
:104910000028AFD107AB9A887F4B9A42AFD007AB44
:10492000D98830000C307C4B9942BAD08A093F2399
:104930000B40878CBA42A8D2006AD20082185088F5
:104940008342A8D252681B01D318079307AA91800B
:10495000002BCFD1D1E700230C930CAB01225242A4
:104960009A80CEE62000FCF7ADFF061EA26918D0A3
:10497000059907A8FBF7F8FF079D002D0BD016D06F
:10498000002E1AD01FD0297A802252420A432A725E
:104990000836EE60079D002D00D0BEE60423039389
:1049A00083E45E4B5E4A0E215E480BF013F95E4BCA
:1049B0005E4A20215E480BF00DF95E4B5B4A2121D7
:1049C0005B480BF007F95C4B5C4A3A215C480BF002
:1049D00001F95C4B5C4A13215C480BF0FBF89A79B7
:1049E000002A0BD12269511C21611278002A0BDDAB
:1049F000002A0CDB1A7101225A71A3E6544B554A66
:104A0000252155480BF0E6F801219971F0E70022C5
:104A1000F0E7237B002B01D10120A6E60220A4E6CB
:104A20000023637588E69A79002A0BD12269511C0C
:104A300021611278002A0BDD002A0CDB1A71012299
:104A40005A719BE6424B434A252143480BF0C2F87A
:104A500001219971F0E70022F0E7019B95E6917939
:104A600000290BD121694D1C2561097800290BDD36
:104A700000290CDB1171012151718FE6344B354A4D
:104A8000252135480BF0A6F801259571F0E70021A6
:104A9000F0E79A79002A0BD12269511C2161127822
:104AA000002A0BDD002A0CDB1A7101225A7184E600
:104AB000274B284A252128480BF08CF801219971B1
:104AC000F0E70022F0E7237B002B01D1012087E6ED
:104AD000022085E60023637569E60390FFF7E5FB96
:104AE0000390FFF7E2FB03230393FFF7DEFB039042
:104AF000FFF7DBFB0390FFF7D8FB0390FFF7D5FB35
:104B000003230393FFF7D1FB0390FFF7CEFB0523AD
:104B10000393FFF7CAFBC046FFFF000014CF01104C
:104B200024CF0110E0CF0110F0B701103CD00110EC
:104B300080C90110A8D00110B8D00110BCD001105C
:104B400020D1011080D101108CD1011014D201109C
:104B500050C2011058C20110D8C2011070B5040033
:104B60000E0022001032617D002928D0227D002A0B
:104B70003FD0202A09D8092A07D3093AD2B2012105
:104B800091400A00B5490A423AD101222273002518
:104B9000002D00D083E022001032617D002932D048
:104BA000227D7B2A00D950E15B2A46D35B3AD1B201
:104BB000202900D949E18A00A9498A589746917964
:104BC00000290BD12169481C2061097800290BDDDF
:104BD00000290CDB117101215171C7E7A14BA24AD9
:104BE0002521A2480AF0F6FF01209071F0E700218C
:104BF000F0E7227B002A01D10125C9E70225C7E79A
:104C000000226275ADE7917900290BD12169481C1A
:104C10002061097800290BDD00290CDB11710121CD
:104C20005171BDE78F4B904A252190480AF0D2FF81
:104C300001209071F0E70021F0E7222A02D0272A14
:104C400000D002E10023A3606368002B3FD0200066
:104C5000FDF756FB051E22D12000FCF733FE00288D
:104C600048D0337A7F229343337205221343337241
:104C7000306014E0327A7F218A43327240210A4345
:104C80003272002E05D0002232807280013A3280CA
:104C9000728000223100200000F03CFA050028005C
:104CA00070BD327A7F218A43327220210A433272E8
:104CB000002E05D0002232807280013A328072804C
:104CC000002231002000FFF7BBFA0500E7E7256866
:104CD000286803681B6828219847002803D01F23F1
:104CE000C3801E3B8380002801D06060AFE70123B2
:104CF0002B71FAE7AE215E4B5E4AFF315E480AF047
:104D000069FF337A7F22934333720622134333724F
:104D100001233370594B14E0524B534A2521534819
:104D20000AF058FF012090711CE0117101215171AE
:104D3000227D002A1AD019788A4219D10133002223
:104D400062751D78002DAAD022001032617D0029E5
:104D5000EED191790029DFD12169481C20610978C1
:104D60000029DFDD0029E0DA0021DEE7022596E7F1
:104D7000032594E7337A7F22934333720622134349
:104D80003372002333703E4B14E0364B364A2521F4
:104D900036480AF01FFF012090711DE011710121BA
:104DA0005171227D002A1BD019788A421AD1013311
:104DB000002262751D78002D00D170E722001032AC
:104DC000617D0029EDD191790029DED12169481C4E
:104DD000206109780029DEDD0029DFDA0021DDE726
:104DE00002255CE703255AE7264B14E01D4B1E4ABB
:104DF00025211E480AF0EEFE012090711DE0117180
:104E000001215171227D002A1BD019788A421AD1C2
:104E10000133002262751D78002D00D13FE722008A
:104E20001032617D0029EDD191790029DED121690F
:104E3000481C206109780029DEDD0029DFDA002125
:104E4000DDE702252BE7032529E721001031637DEB
:104E5000002B19D0227D2B004FE0C04613008000AC
:104E600060D3011050C2011058C20110D8C2011005
:104E700084E5011094D2011000D301107CD20110FE
:104E800084D201108CD201108B79002B0BD12369B5
:104E90005A1C22611B78002B0BDD002B0CDB0B71E5
:104EA00001234B71D6E72C4B2C4A25212C480AF0C4
:104EB00091FE01228A71F0E70023F0E7012002E071
:104EC000012000E00120002838D03E2B36D80020F9
:104ED0006075581CC0B2E3181A778B79002B22D169
:104EE0000B685A1C0A601B78002B22DD002B23DB89
:104EF0000B7101234B71227D03002F2A01D9392A1E
:104F0000DED92B2ADED02D2A07D02E2A07D0652AFB
:104F100007D0452AD2D00020D5E70120D3E70120D1
:104F2000D1E70120CFE70C4B0C4A25210C480AF0B1
:104F300051FE01228A71D9E70023D9E7E318002244
:104F40001A7720001C303100FCF748FD002800D003
:104F5000A5E60325A3E6C04650C2011058C20110C1
:104F6000D8C20110F0B5D6464F464646C0B59AB0F5
:104F70000600009101AB1A80382399468144030052
:104F8000383305D007000C3703689A4600250CE03B
:104F9000042075E053461B685B6850469847002321
:104FA0006360238063800135ADB2BB8CAB4207D90F
:104FB000EC003B6A9C46644461680029EAD1EEE754
:104FC0000023BB84013B3B85396AB94207D0534675
:104FD0001B685B68504698473F620423FB840023AC
:104FE000337134000834356805E00B6823602B68A2
:104FF0005B682800984721680029F6D132003832D2
:105000000023137203A80396436083600373009A1E
:10501000026143758375866101AB5B780022494666
:10502000FFF79CFD002808D103AB1B7D002B04D0AB
:105030004B461B7A1B0700D50320051C0499002949
:1050400004D0039B186803685B68984734000C34ED
:1050500033689846338E002B18D1216AA1420ED0B6
:10506000A28CE38C9A420AD043461B689B68D2000C
:1050700040469847206200281DD0A38CE384281C5A
:105080001AB0E0BCBA46B146A846F0BD0D4A9446F7
:105090006344DF00236A9C46674443461B689B6861
:1050A0007A8812017968404698470028D5D0786000
:1050B0007B883B80D1E7044B044A7F2104480AF0F7
:1050C00089FDC046FFFFFF1FE4D30110F8D3011094
:1050D00080B5011010B582B004000800FCF722FE74
:1050E000FCF722FE010001AB0A225A701B886A46B7
:1050F0001380009A2000FFF735FF02B010BD00B505
:1051000083B00191FCF77CFB01A9FFF7E3FF03B03B
:1051100000BD0000F0B583B004000F001D1CDBB221
:10512000002B00D13CE103001033427D002A1FD048
:10513000237D5B2B36D10023637523001033627D02
:10514000002A35D0237D002B4CD0202B09D8092BE9
:1051500007D3093BDBB201229A401300924A134263
:1051600047D1012323730020002845D003B0F0BDB0
:105170009A79002A0BD10269511C01611278002A28
:105180000BDD002A0CDB1A7101225A71D0E7874B24
:10519000874A252187480AF01DFD01219971F0E712
:1051A0000022F0E7844B854A9D2185480AF012FDD4
:1051B0009A79002A0BD12269511C21611278002AA8
:1051C0000BDD002A0CDB1A7101225A71BAE7774B0A
:1051D000774A252177480AF0FDFC01219971F0E713
:1051E0000022F0E7237B002B01D10120BCE7022045
:1051F000BAE700236375A0E723001033627D002A1D
:1052000008D0237D5D2B1FD1002363750126002E5E
:105210007ED0ABE79A79002A0BD12269511C21611B
:105220001278002A0BDD002A0CDB1A7101225A7158
:10523000E7E75E4B5E4A25215E480AF0CBFC012180
:105240009971F0E70022F0E70026E0E75D4B5E4A47
:1052500013215E480AF0BEFC9A79002A0BD122691C
:10526000511C21611278002A0BDD002A0CDB1A7117
:1052700001225A7165E04D4B4D4A25214D480AF0F7
:10528000A9FC01219971F0E70022F0E7237B002BB4
:1052900001D1012065E0022063E0002363754BE04B
:1052A0009A79002A0BD12269511C21611278002AB7
:1052B0000BDD002A0CDB1A7101225A7159E03B4BBD
:1052C0003B4A25213B480AF085FC01219971F0E712
:1052D0000022F0E7330052E0917900290BD12169D7
:1052E000481C2061097800290BDD00290CDB1171B5
:1052F000012151714BE02D4B2D4A25212D480AF0FB
:1053000069FC01209071F0E70021F0E7002B45D007
:10531000A26939006846FBF727FB0099002941D0B4
:10532000EBB2002B92D0013BDBB200222000FFF752
:1053300015FC002800D019E723001033627D002AF5
:105340008AD0227D002AA1D0202A08D8092A06D393
:10535000093AD2B201239340134A13429DD101234B
:105360002373002800D001E723001033627D002A58
:1053700096D0237D5D2BADD1002363750133002BC7
:1053800000D0F3E622001032617D0029A4D0227DF6
:105390002C2ABBD1002363750133B7E70320E5E670
:1053A0000520E3E60420E1E61300800050C201106E
:1053B00058C20110D8C201105CD4011070D4011081
:1053C00094CD011080D101108CD1011014D20110A4
:1053D000F0B5C64600B5A2B0040088460768383765
:1053E0004068FCF702FA05002668002F2DD03B7AB2
:1053F0009B0621D5002F28D0002D1FD039883200E0
:105400000C32D04B99426FD088093F230B40978CC8
:10541000B8425DD2126AC0001218508883425DD231
:1054200052681B01D3180A930AAA9180002B5DD001
:105430005A890AABDA807EE00027DBE7002310936D
:1054400010AB012252429A80109F0E9723680F934F
:1054500008220EA90AA80CF049FE002F00D18FE106
:105460003A7A7F231340082B00D199E00A2B00D110
:105470009BE00020002800D182E125683835606873
:10548000FCF7B3F902002368002D0AD0297A8906B7
:1054900000D48FE0002D04D0290014A8FDF772FB82
:1054A000149D236812951393082212A968460CF0E4
:1054B0001DFE002D00D143E12A7A7F231340043BD7
:1054C000DAB2082A00D939E193009F4AD3589F469F
:1054D0009E4B9F4A62219F480AF07CFB9E4B9F4A4D
:1054E00030219F480AF076FB00239CE7954AA0E70D
:1054F0009C4B9D4A15219D480AF06CFB08220AA985
:1055000010A80CF0F3FD9FE7994B9A4A2B2197487E
:105510000AF060FB8D4B8E4A62218E480AF05AFBDE
:105520008D4B8E4A30218E480AF054FB00232AE02E
:105530005A890AABDA800A9B002B2AD0D8D0D868C7
:10554000FCF753F901002800FDF7B8FA0028D5D17F
:105550000AAB9A887B4B9A42D6D00AABD9883000E6
:105560000C30784B9942E1D08A093F230B40878C5D
:10557000BA42CFD2006AD200821850888342CFD27A
:1055800052681B01D3180A930AAA9180002BCFD12D
:10559000D1E70023109310AB012252429A8053E7C7
:1055A00038687968FCF70AFC64E738687968FCF7C2
:1055B00010FC5FE700256DE72878E3E0286869685C
:1055C000FCF712FCDEE028686968FCF717FCD9E0FC
:1055D000286806AC002525722100FCF7FFF9169417
:1055E0001795082216A902A80CF080FD227A7F23C5
:1055F0001340043BDAB2082A40D893005E4AD358DD
:105600009F4606AB1878BDE006980799FCF7ECFBBF
:10561000B8E006980799FCF7F1FBB3E000246B466D
:1056200030229B181C700AA90698FCF7D7F90AAB20
:1056300018931994082218A904A80CF057FD0AA879
:10564000FCF784FD9EE00698083000246B4630226B
:105650009B181C700AA9FCF7C1F90AAB1A931B949A
:1056600008221AA904A80CF041FD0AA8FCF76EFD57
:1056700088E006980799FCF75BFD83E0002081E055
:105680002868083006AC002525722100FCF7A6F931
:105690001C941D9508221CA902A80CF027FD227A53
:1056A0007F231340043BDAB2082A40D89300334AE0
:1056B000D3589F4606AB187864E006980799FCF724
:1056C00093FB5FE006980799FCF798FB5AE00024EB
:1056D0006B4630229B181C700AA90698FCF77EF9CD
:1056E0000AAB1E931F9408221EA904A80CF0FEFC0E
:1056F0000AA8FCF72BFD45E00698083000246B460D
:1057000030229B181C700AA9FCF768F90AAB209399
:105710002194082220A904A80CF0E8FC0AA8FCF7B0
:1057200015FD2FE006980799FCF702FD2AE00020FE
:1057300028E028686968FCF7FBFC23E0002021E0F2
:1057400000201FE0FFFF0000D0D50110DCB40110E5
:10575000F0B4011080B50110E4B50110F0B50110EE
:105760007CB60110F0B7011034C9011080C90110D6
:10577000E4C90110FCC90110F4D5011018D60110BC
:105780004346186822B080BCB846F0BDF0B5A1B061
:10579000040087680069FCF728F80500E668002F18
:1057A0002DD03B7A9B0621D5002F28D0002D1FD06D
:1057B000398832000C32C74B994260D088093F23A8
:1057C0000B40978CB8424ED2126AC0001218508813
:1057D00083424ED252681B01D3180A930AAA9180C1
:1057E000002B4ED05A890AABDA806FE00027DBE746
:1057F0000023109310AB012252429A80109F6069DF
:10580000FBF7F3FF0500E668002F00D19CE03B7A30
:105810009B0600D48FE0002F00D195E0002D00D131
:105820008BE0398832000C32AA4B994200D1AEE0AD
:1058300088093F230B40978CB84200D39BE0126A43
:10584000C00012185088834200D39AE052681B01AE
:10585000D3180A930AAA9180002B00D199E05A89A3
:105860000AABDA80BAE09C4B9C4A62219C480AF061
:10587000B1F99C4B9C4A30219C480AF0ABF90023BB
:10588000ABE7944AAFE79A4B9A4A15219A480AF037
:10589000A1F908220AA910A80CF028FCAEE7974B42
:1058A000974A2B2194480AF095F98B4B8B4A622139
:1058B0008B480AF08FF98B4B8B4A30218B480AF0CA
:1058C00089F900232AE05A890AABDA800A9B002B67
:1058D0002AD0D8D0D868FBF788FF01002800FDF750
:1058E000EDF80028D5D10AAB9A887A4B9A42D6D0E7
:1058F0000AABD98830000C30764B9942E1D08A0946
:105900003F230B40878CBA42CFD2006AD200821864
:1059100050888342CFD252681B01D3180A930AAA37
:105920009180002BCFD1D1E70023109310AB01223F
:1059300052429A8062E700276DE70023129312AB70
:10594000012252429A80129FE3680E970F93082219
:105950000EA968460CF0CAFB002F00D153E13A7A39
:105960007F231340043BDAB2082A00D949E19300AF
:10597000644AD3589F46584B584A622158480AF007
:1059800029F9584B584A302158480AF023F9002386
:105990005FE7504A64E7564B564A152156480AF0CD
:1059A00019F908220AA912A80CF0A0FBCBE7534B67
:1059B000534A2B2150480AF00DF9474B474A6221C0
:1059C00047480AF007F9474B474A302147480AF051
:1059D00001F900232AE05A890AABDA800A9B002BDE
:1059E0002AD0D8D0D868FBF700FF01002800FDF7C7
:1059F00065F80028D5D10AAB9A88364B9A42D6D0A2
:105A00000AABD98832000C32324B9942E1D0880976
:105A10003F230B40978CB842CFD2126AC0001218B5
:105A200050888342CFD252681B01D3180A930AAA26
:105A30009180002BCFD1D1E70023129312AB01222A
:105A400052429A807FE73878DEE038687968FCF760
:105A50002DFAD9E038687968FCF741FAD4E0386863
:105A600006AC002525722100FBF7B8FF14941595AC
:105A7000082214A902A80CF039FB227A7F231340D4
:105A8000043BDAB2082A5CD893001F4AD3589F46D9
:105A900006AB1878B8E006980799FCF707FAB3E068
:105AA00006980799FCF71BFAAEE000246B463022FB
:105AB0009B181C700AA90698FBF790FF0AAB169377
:105AC0001794082216A904A80CF010FB0AA8FCF7EA
:105AD00039FA99E0FFFF0000DCB40110F0B40110C6
