:020000041000EA
:1000000000B5324B212058609868022188439860DF
:10001000D860186158612E4B002199600221596106
:100020000121F02299502B49196001219960352056
:1000300000F044F80222904214D00621196600F024
:1000400034F8196E01211966002018661A6600F04E
:100050002CF8196E196E196E052000F02FF8012189
:100060000842F9D1002199601B49196000215960AB
:100070001A491B48016001219960EB211966A021F2
:10008000196600F012F800219960164914480160C1
:100090000121996001BC002800D000471248134993
:1000A000086003C880F30888084703B5996A0420EC
:1000B0000142FBD001200142F8D103BD02B5186610
:1000C0001866FFF7F2FF186E186E02BD00000240BE
:1000D000000000180000070000035F00212200005C
:1000E000F4000018222000A00001001008ED00E03C
:1000F00000000000000000000000000074B24E7A12
:1001000000200420F7010010C3010010C5010010F9
:10011000C1010010C1010010C1010010C101001097
:10012000C1010010C1010010C1010010C701001081
:10013000C1010010C1010010C9010010CB01001065
:10014000CD010010CD010010CD010010CD01001037
:10015000CD010010CD010010CD010010CD01001027
:10016000CD010010CD010010CD010010CD01001017
:10017000CD010010CD010010CD010010CD01001007
:10018000CD010010CD010010CD010010CD010010F7
:10019000CD010010CD010010CD010010CD010010E7
:1001A000CD010010CD010010CD010010CD010010D7
:1001B000CD010010CD010010CD010010CD010010C7
:1001C00000BE00BE00BE00BE00BE00BEEFF3058054
:1001D000103800BEF2EB887194940310C49403109D
:1001E0003402001090A31AE700201F49086006C8D7
:1001F00081F3088810471D48006800282FD10DA4FE
:100200000ECC002902D000F012F8F9E71849194A7B
:10021000002000E001C19142FCD1174988471749ED
:1002200088471749884700BEFDE701C901C29A42C5
:10023000FBD37047C4940310C0000020E41F0020CB
:10024000E8B303100000042000000420E8B303100A
:10025000001004200010042000000000704709482E
:100260001EF042FD0047000008ED00E0000000D055
:10027000E81F00204091022019DA0110E52C00103F
:10028000D5D901105756000006005250ABB3605349
:100290002061031006005250861C030230610310D7
:1002A000060052505422A29D3C610310050052509A
:1002B000DE65F468E8B30310F8B5C04610B5064C27
:1002C0002378002B07D1054B002B02D0044800E017
:1002D00000BF0123237010BD402200200000000059
:1002E00068FC0210044B10B5002B03D003490448EE
:1002F00000E000BF10BDC046000000004422002006
:1003000068FC021030B5032910D80023002406E051
:100310000268D25C55426A4114430133DBB2CAB26F
:100320009A42F5D801206040C0B230BD0020FCE701
:1003300010B504001CF0C0FC002903DB20606160E4
:10034000200010BD024B034A3F2103481DF046FB2D
:1003500068FC021084FC0210BCFC021070B501287D
:1003600005D0002802D1334B994215D070BD314BD6
:100370009942F6D1304B314A1A6000221A719A60C4
:100380001C000C34DC621A8604245C86053C9C86C6
:100390003C255A55DC87E4E7274B1C68264B9968B7
:1003A000002906D00A689A6023685B682000984795
:1003B000F4E7214B1E68002509E033685B683000D4
:1003C000984700236360238063800135ADB21A4BE8
:1003D0001B8EAB4207D9184BDC6AEB00E41861684E
:1003E0000029EAD1EDE7144B00221A86013A9A86D9
:1003F000D96A0C33994209D033685B68300098475A
:100400000D4B1A000C32DA6204225A860A4B1B8EFC
:10041000002B09D1084B9B68002BA7D0084B094A39
:10042000162109481DF0DAFA084B094A1F2109482C
:100430001DF0D4FAFFFF0000A0230020C01100200F
:1004400010FE021024FE021060FE02101CFD0210BD
:1004500028FD0210B0FD021010B5C021890102482C
:100460002FF092FB10BDC04600D01F0010B5010058
:10047000C022920101482FF06FFB10BD00D01F0079
:1004800010B5080011001FF01FFE10BD10B50800C8
:100490001FF03AFE10BD10B508001FF0F7FD10BDAB
:1004A00030B589B005003A483A4B1860C022920135
:1004B00029002CF0F1FB00284BD024F06FFE002423
:1004C0000AE020001BF088FA01AB1855002120003B
:1004D0001BF09EFA0134E4B2192CF2D9FA24E4009C
:1004E000220000212C4822F0B9FC1DF0C3F92200A3
:1004F00029002A4822F0B2FC002406E001AB195D75
:1005000020001BF085FA0134E4B2192CF6D924F04E
:1005100017FF1CF0D1FB002915DB214A00231EF038
:1005200075FC100019001EF06BFF00221D4B1EF021
:100530007CFE02000B001C481FF0D8FF1B481FF078
:10054000A5FF09B030BD1A4B1A4A3F211A481DF0C9
:1005500045FA1CF0B1FB002914DB114A00231EF000
:1005600055FC100019001EF04BFF00220D4B1EF031
:100570005CFE02000B000C481FF0B8FF0F481FF094
:1005800085FFDEE70A4B0B4A3F210B481DF026FA98
:1005900000D01F10C4110020590400106D04001079
:1005A00040420F0000408F40BCFE0210C8FE021007
:1005B00068FC021084FC0210BCFC0210E0FE021079
:1005C00010B501481DF0A4FAFCFE021010B5014858
:1005D0001DF09EFA18FF021000B583B06846FFF7C1
:1005E000A7FE0F4A0023009801991EF00FFC10008F
:1005F00019001EF005FF00220A4B1EF016FE020035
:100600000B0009481FF072FF08481FF03FFF24F05D
:10061000C5FDFA20012140001DF072F9FEE7C04639
:1006200040420F0000408F40BCFE021034FF021019
:10063000F0B5C64600B584B005000C001700098D62
:10064000B74B99423BD1A38C002B00D1ADE000D138
:100650007AE0013B99B2CA00236A9C46624453681F
:10066000002B00D176E050881688B04200D277E0A7
:100670000023029302AB012252429A80029A002A7E
:1006800000D186E002AB9B88C9015B189BB2009247
:1006900069468B8051424A41D2B2A2498C4663449A
:1006A00059424B41DBB29A4200D078E0009B002BCC
:1006B00000D17AE06B462A0003CB03C225E00B0091
:1006C000974A914226D0964A914235D0CA097F2155
:1006D0001940A08C824223D2D200206A8446624410
:1006E0005088814222D25268C9005218118821854F
:1006F0002A60AB8051424A41D2B28A498C46634457
:1007000059424B41DBB29A4218D1280004B080BC58
:10071000B846F0BD844B854A992185481DF05EF9A5
:10072000844B854A712182481DF058F9834B844AD5
:100730004B2184481DF052F90022D7E7824B834AAF
:10074000162180481DF04AF9814B824AA121784840
:100750001DF044F9029302AB012252429A808DE7C8
:10076000461C5680C2009B18029302AA90805A42EF
:100770005341DBB26B4A9446604442425041C0B29E
:10078000834200D17AE7704B704A16216D481DF004
:1007900025F900230093013B6A46938086E76A4B64
:1007A0006A4A162167481DF019F9A28CE38C9A4217
:1007B0004FD0A68C731C9BB2A384F600226A944689
:1007C00066448022920093426FD08023984643462D
:1007D000002B6DD0D9003B681B68380098477060CB
:1007E00000286BD04346338000237380002E68D0EE
:1007F000A38C002B6AD0013B99B2226ACB00D2189D
:100800005368002B68D050881488A0426AD3002314
:10081000029302AB012252429A80029A002A79D0B6
:1008200002AB9B88C9015B189BB22A60AB80514226
:100830004A41D2B23B498C46634459424B41DBB2F8
:100840009A4200D161E7404B404A16213D481DF0D5
:10085000C5F880229200934221D05B009EB2216AAB
:10086000A1420FD0F2003B689B6838009847804651
:10087000002818D043462362E6840123002B98D138
:100880000026B3E7F1003B681B68380098478046B4
:10089000002806D0202221001FF054FCEAE70023A4
:1008A000ECE70023EAE70023E8E77F2398468EE79A
:1008B000294B2A4A332123481DF090F800239846FB
:1008C00090E700232B60013BAB801EE7204B214AC1
:1008D000A12117481DF082F8029302AB0122524277
:1008E0009A809AE7441C5480C2009B18029302AA83
:1008F00090805A425341DBB20A4A944660444242D5
:100900005041C0B2834288D00F4B104A16210D4887
:100910001DF064F800232B60013BAB80F5E6C04678
:10092000FFFF00000100FFFF64FF02107CFF0210C8
:10093000B0FD02103000031044000310300103101A
:100940003C0103102402031080020310A4020310D0
:100950007C030310880303103C04031044040310B9
:1009600070470000F0B58BB005000C000379DB0781
:100970000CD42B79DB0628D42B7960221A4200D1C3
:10098000D9E0002D00D1D6E02B88A3E00268083220
:100990000868896800260029EBD00B0008339A42CA
:1009A00002D00E000968F6E78B88013B9BB28B8072
:1009B000002BDED1002E05D00B68336003685B6826
:1009C0009847D6E70B68A360F8E72B8822000C3223
:1009D0005B498B4234D0D8097F211940968CB042B4
:1009E00022D2126AC00012185088814222D2526864
:1009F000C9005218049204A98B8051424A41D2B2D4
:100A000050498C46634459424B41DBB29A4219D15A
:100A100002AE082204A930001FF094FBA38E029AB4
:100A20001380B388A386A7E7474B484A71214848FB
:100A30001CF0D4FF474B484A4B2148481CF0CEFFDE
:100A40000022D7E7464B474A162144481CF0C6FF10
:100A50003D4B3E4A71213E481CF0C0FF5268C90020
:100A60005218D688069206A98B8051424A41D2B2CA
:100A700034498C46634459424B41DBB29A4244D1DB
:100A8000082206A968461FF05DFB0098002842D0A6
:100A90002100FFF767FF0098FFF762FF6B469B8816
:100AA000089008AA938042425041C0B2254A944619
:100AB00063445A425341DBB2984232D102AF08221A
:100AC00008A938001FF03EFBA38E029A1380BB8852
:100AD000A38633001A4A934229D020000C30934257
:100AE00011D0DA097F211940868CB242B0D2006A57
:100AF000D200821850888142B0D3164B164A4B213F
:100B000016481CF06BFF0022ABE7154B164A162166
:100B100012481CF063FF154B154A26210F481CF0A4
:100B20005DFF0F4B0F4A16210C481CF057FF0123A5
:100B30005B422B806B8000232B710BB0F0BDC04655
:100B4000FFFF00000100FFFF30000310440003100E
:100B5000B0FD0210300103103C0103102402031009
:100B600080020310A4020310500503101C0603109A
:100B70002C06031001604260002303727047704727
:100B800070B504000800FFF7FAFF230026C826C34B
:100B9000200070BD7047000082B010B584B0019095
:100BA000029103920793002808D0079B002B0BD0DB
:100BB0000298089B98423AD1002324E0204B214A16
:100BC0002D2121481CF00AFF204B1E4A2E211E48D1
:100BD0001CF004FF1E4B1F4A2B211F481CF0FEFE79
:100BE0001E4B1C4A2C211C481CF0F8FE184B194ABD
:100BF0002B2119481CF0F2FE184B164A2C211648DE
:100C00001CF0ECFE0133834217D2019A002AE1D096
:100C100002998B42E4D8D15C079A002AE6D0089C5E
:100C2000A342E9D8D25C8A42ECD0002000E0002048
:100C300004B010BC08BC02B018470120F8E7C04659
:100C4000A0060310B006031068080310CC080310B8
:100C5000DC080310E808031030090310980903109A
:100C6000F0B5D6464F464646C0B58CB006000D1EC0
:100C70002BD04468002C2ED00834029487683900A9
:100C800002A8FFF73FFB00282BD1E41900232370B3
:100C90003468B268029906A8FFF76CFFA468002CBC
:100CA00061D021000831E28809A8FFF763FF0AAB91
:100CB0006A4603CB03C2099B06980799089AFFF777
:100CC0006BFF00284FD12468E9E7584B584A1D2193
:100CD00058481CF083FE584B554A1E2155481CF0BD
:100CE0007DFE3A00210003A8FFF744FF2B79002B7B
:100CF00015D1049A032A18D802222A71049CE0B262
:100D000098422BD9039A002A16D0049EB34219D8D0
:100D1000D25C002A1CD0EA540133DBB2F0E7474B27
:100D2000474A484948481CF059FE8521474B444AE8
:100D3000890045481CF052FE454B464A2B21464847
:100D40001CF04CFE454B434A2C2143481CF046FE08
:100D5000434B3B4A43493C481CF040FEFF232340A1
:100D60000022EA540CE0002C10D0A3880133A380A9
:100D70002B79002B4CD1002C50D005232B712C60EB
:100D80000CB0E0BCBA46B146A846F0BD33689A46FE
:100D900073689846B368994653461F684346002BCC
:100DA0000FD080235B02994511D23B689B684A466D
:100DB0000932414638009847041E08D04B46C3808C
:100DC0000AE0294B294A332129481CF007FE3B68D9
:100DD0005B68414638009847002C09D0002C0BD0A6
:100DE00033680FD09A6822609C6000237360BFE76D
:100DF000012352461371F1E71B4B0D4A2A210D487E
:100E00001CF0ECFD184B1B4A43211B481CF0E6FD6F
:100E10000A4B1A4A1A490C481CF0E0FD8921194B6B
:100E2000164A890008481CF0D9FDC046A4090310E1
:100E3000B8090310200A0310800A0310940A031053
:100E4000B00A031013020000480B0310A80B031094
:100E5000DC080310E8080310300903109809031098
:100E6000C80B03101B020000D00B0310E00B031093
:100E70009C0C0310F80C031060FE0210580D0310B8
:100E800023020000AC55031070470000F0B5DE46A9
:100E900057464E464546E0B587B08246894600290A
:100EA00009D009782B290CD02D2910D12C398C464A
:100EB000E1448B460DE0B44BB44A6E31B4481CF0AB
:100EC0008DFD01218C46E14400218B4601E000218B
:100ED0008B464946087801003039C9B209290CD936
:100EE0002E2834D0002352461370504607B0F0BC71
:100EF000BB46B246A946A046F0BD002400254E469A
:100F00003678B046303EF6B2B446092E25D8A14E0A
:100F1000B54222D81ED0A60FAB003343A200A418BE
:100F20005D4126002F00B6197F4134003D0000943A
:100F3000019560460021C643B4467E1C23D0009C28
:100F4000019D24184D410126B446E144D7E7002411
:100F50000025D4E7904EB442DDD9404600281BD18D
:100F60005B46002B12D080231B069D4224D801D162
:100F7000002C21D100236242AB4102215046017076
:100F80008260C360B1E76445D9D9E6E703235246DE
:100F900013709460D560A8E7002680235B039D4210
:100FA0000CD30A220023200029001DF02FFF04008B
:100FB0000D00013636B2F0E70026EEE749460A7822
:100FC0001300303BDBB2092B03D8013636B20131B6
:100FD000F5E789462E2A0FD04B461B78652B35D076
:100FE000452B33D00023F6184B461F78002F7DD0B9
:100FF00000235246137078E701239C46E144B4462F
:101000004A4613E0A70FA9003943A00024184D4118
:1010100024196D41029300230393029E039FA41998
:101020007D416646013E33B29C4601321378303B27
:10103000DBB2092B07D8594FBD42F6D8E2D1584F41
:10104000BC42F2D8DEE766469146C5E74B46581CDF
:101050005B782D2B15D02B2B16D000270023027880
:1010600011003039C9B2092939D89900CB185B0071
:10107000303A9B18F1189A225200914208DC013054
:10108000EDE701300127E9E7484602300027E5E7B0
:10109000002F0BD05B46002B06D0802212060123C6
:1010A00051460B708A6020E70022F8E75B46002B70
:1010B00010D000203B49FFF7E7FE80231B069C462B
:1010C000614404235246137002000B0051468A60AB
:1010D000CB600AE700203349FFF7D6FEF1E7002F87
:1010E00002D05B4281467EE781467CE733002633AF
:1010F0004C2B01D8002D0CD0200029001EF080F9C7
:1011000004000091002E2BDD274D002E2DDC7642B1
:101110002BE0002D03D180231B049C42ECD2200045
:1011200029001EF09DFE002E04DD204C002E06DC62
:10113000764204E01E4CF9E776100137FFB2002E2C
:1011400006D0F307F8D5BB00E1581EF0C2FDF3E767
:101150005B46002B42D10123524613709060C4E6D7
:10116000144DD2E776100137FFB2002E24D0F307DA
:10117000F8D5FB00EB181A685B68200000991EF098
:1011800072F804000091EDE7C40D0310CC0D0310BC
:101190002C0E031099999919999999999999010087
:1011A000989999990000F07F88250310282503104D
:1011B00010250310402503105B46002B05D0009B33
:1011C000802212069446634400930423524613700F
:1011D0002200009B51468A60CB6086E680231B0676
:1011E0009C466044B7E7C0467047000010B5FFF763
:1011F000FBFF0068002800D010BD0148FCE7C04696
:1012000078890310704710B504000800FFF7FAFF53
:10121000206004236360033B2372200010BD7047ED
:1012200010B504000800FFF7FAFF20600723636091
:10123000063B2372200010BD704770B50400080003
:10124000FFF7FAFF230026C826C3200070BD000068
:10125000F0B5A1B00600030020CB2A00383206A961
:1012600091CB91C12B00383368D006AB91CB91C1A3
:101270001379202B31D10CA909AB91CB91C1002A54
:101280005CD00B008C460CA9180098C998C00100CE
:10129000634691CB91C1129B002B20D011882A006C
:1012A0000C32A44B994271D0C8097F230B40948C17
:1012B000A0425FD2126AC0001218508883425FD2E7
:1012C0005268DB00D318049304AA9180002B5FD0EE
:1012D000DA8804ABDA800124A2E00022CBE7029393
:1012E00002AB012252429A80029A002A26D002AB17
:1012F0009A88904B9A4200D1E2E002ABD9880C3533
:101300008C4B994200D1EDE0C8097F230B40AA8C99
:10131000904200D3DAE02A6AC00012185088834253
:1013200000D3D9E05268DB00D318029302AA91805F
:10133000002B02D0DA8802ABDA80029A316815AB52
:101340001592169112AA03CB03C21298002800D15D
:10135000D4E00379042B00D1D4E0052B00D1DFE0E9
:10136000022B00D1C0E017AB002217921892013275
:101370001A72C2E0704B714A712171481CF02EFB49
:10138000704B714A4B2171481CF028FB00239AE7EF
:10139000684A9EE76E4B6F4A27216F481CF01EFB80
:1013A000002F52D038002BF0BDFF1DAB1D971E90B3
:1013B00000221A721DA91AA8FFF73FFF1BAB6A464D
:1013C00003CB03C21A9B12981399149AFFF7E4FBFC
:1013D000002854D101235C40E4B204AB9A88554BF9
:1013E0009A4252D004ABD9882A000C32514B994210
:1013F0005DD0C8097F230B40978CB8424BD2126A4C
:10140000C0001218508883424BD25268DB00D318B8
:10141000049304AA9180002B02D0DA8804ABDA800E
:10142000049B002B45D0002CD4D01F1EB2D01B79BA
:10143000042B0CD0052B18D0022BB1D01DAB0022F1
:101440001D921E9201321A72B4E70020ADE73F6888
:10145000002F08D038002BF065FF1DAB1D971E90A4
:1014600001221A72A6E70020F7E73B68190008314D
:10147000DA881DAB1D911E9200221A729AE708228B
:1014800004A902A81EF05EFE2EE7344B344A152153
:1014900034481CF0A3FA284B284A712128481CF034
:1014A0009DFA284B284A4B2128481CF097FA002324
:1014B000AEE70023029302AB012252429A8013E767
:1014C000264B274A152127481CF088FA1A4B1B4A3D
:1014D00071211B481CF082FA1A4B1B4A4B211B48F6
:1014E0001CF07CFA002320E7041E09D02BF01AFF21
:1014F00017AB1794189000221A72179821B0F0BDFC
:101500000020F5E70468002C08D020002BF00AFF2B
:1015100017AB1794189001221A72EEE70020F7E734
:10152000036819000831DA8817AB17911892002266
:101530001A72E2E7FFFF00003000031044000310BE
:10154000B0FD0210300103103C010310240203100F
:101550008C0E0310A00E03100C0F0310700F03105D
:10156000880F0310FC0F03100023FF2282425B410F
:10157000D8B2704710B50400FFF7F6FF002801D07D
:10158000E0B210BD0020FCE7002806DBC30FFF22FD
:10159000002182424B41D8B270470020FCE710B5D1
:1015A0000400FFF7F1FF002801D0E0B210BD0020D9
:1015B000FCE70123002902D102D1FF2800D9002332
:1015C000D8B2704710B50400FFF7F3FF002801D030
:1015D000E0B210BD0020FCE700290ADB012300294E
:1015E00002DD0023D8B270470029FBD1FF28F9D9CA
:1015F000F7E70020F7E710B50400FFF7EDFF00283C
:1016000001D0E0B210BD0020FCE7000010B5041CC2
:1016100000211EF0A5FB002807D00549201C1EF064
:1016200097FB002802D0012000E0002010BDC0463A
:1016300000007F4310B5041CFFF7E8FF002804D02A
:10164000201C1EF0F3FBC0B210BD0020FCE7000020
:1016500070B504000D00002200231DF05DFE00287F
:1016600009D00022054B200029001DF04DFE002866
:1016700002D0012000E0002070BDC04600E06F40B5
:1016800070B504000D00FFF7E3FF002805D020002F
:1016900029001DF09DFEC0B270BD0020FCE70000D7
:1016A00010B584B00379DB0628D504880C313E4B95
:1016B0009C4221D0E2097F2323408C8CA2420FD28E
:1016C000096AD2008A1851888B420FD25268DB0017
:1016D000D21803791E2B64D89B003449CB589F46FF
:1016E000334B344A712134481CF078F9334B344A77
:1016F0004B2134481CF072F90022EAE70022E8E7A7
:1017000000784FE00068FFF735FF4BE00068FFF717
:1017100046FF47E010685168FFF754FF42E0106849
:101720005168FFF768FF3DE0010000291ED06846C0
:10173000FFF7ACFB6B461B78032B2DD01FD8012B7A
:1017400026D0022B19D102980399FFF754FF29E004
:101750000168EAE701680831E7E70068FFF76AFF18
:1017600020E010685168FFF78BFF1BE01831164B23
:10177000164AFF3116481CF031F9002012E0042B04
:1017800004D102980399FFF77BFF0BE0002009E0EA
:101790000298FFF74FFF05E002980399FFF712FF49
:1017A00000E0002004B010BDFFFF00000011031096
:1017B0003000031044000310B0FD0210300103108C
:1017C0003C0103102402031060100310701003107A
:1017D000480B0310F0B59FB00600030020CB280093
:1017E000383007AA92CB92C22B00383369D007ABAE
:1017F00092CB92C20379202B32D10DAA0AAB92CBA5
:1018000092C200285DD0130094460DAA190098CA10
:1018100098C10A00634692CB92C2139B002B21D041
:1018200001882A000C328B4B994200D163E0C80931
:101830007F230B40948CA04251D2126AC000121830
:101840005088834251D25268DB00D318059305AA11
:101850009180002B51D0DA8805ABDA80012494E026
:101860000020CAE7039303AB012252429A800398F7
:10187000002826D003AB9A88764B9A4200D1D3E059
:1018800003ABD9880C35734B994200D1DEE0C8090F
:101890007F230B40AA8C904200D3CBE02A6AC00081
:1018A00012185088834200D3CAE05268DB00D31874
:1018B000039303AA9180002B02D0DA8803ABDA806D
:1018C0000398316816AB1690179113AA30CB30C22B
:1018D000002800D1BCE0FFF7E3FE1FB0F0BD5E4B77
:1018E0005E4A71215E481CF079F85E4B5E4A4B21DE
:1018F0005E481CF073F80023A8E7564AACE75C4B3F
:101900005C4A27215C481CF069F8002F52D038004F
:101910002BF008FD1BAB1B971C9000221A721BA911
:1019200018A8FFF78AFC19AB6A4603CB03C2189BC1
:1019300013981499159AFFF72FF9002854D1012311
:101940005C40E4B205AB9A88424B9A4251D005AB59
:10195000D9882A000C323F4B99425CD0C8097F23BA
:101960000B40978CB8424AD2126AC00012185088B5
:1019700083424AD25268DB00D318059305AA9180AE
:10198000002B02D0DA8805ABDA80059B002B44D00F
:10199000002CD4D01F1EB2D01B79042B0CD0052BE9
:1019A00018D0022BB1D01BAB00221B921C9201322B
:1019B0001A72B4E70020ADE73F68002F08D0380066
:1019C0002BF0B0FC1BAB1B971C9001221A72A6E7F0
:1019D0000020F7E73B6819000831DA881BAB1B9140
:1019E0001C9200221A729AE703AA05AB03CB03C22A
:1019F0003DE7224B224A152122481BF0EFFF164BF0
:101A0000164A712116481BF0E9FF164B164A4B2166
:101A100016481BF0E3FF0023AFE70023039303AB5B
:101A2000012252429A8022E7144B154A152115488B
:101A30001BF0D4FF084B094A712109481BF0CEFF67
:101A4000084B094A4B2109481BF0C8FF00232FE728
:101A5000002042E7FFFF00003000031044000310A5
:101A6000B0FD0210300103103C01031024020310EA
:101A70008C0E0310A00E03100C0F0310700F031038
:101A8000880F0310FC0F0310F0B5444CA54405006B
:101A900000242B5D002B05D0C0239B019C4201D26A
:101AA0000134F6E7002019F051FD2AF021F8002852
:101AB00046D02AF0C9F81BF0DDFE0122384968A89B
:101AC00028F034F8061E5AD1364B374A0AA952A8D4
:101AD00028F019FE00285BD0344E6E4434493000A3
:101AE000FFF79EFB6B461A0083CE83C2314A324910
:101AF00069440A60CE22D2006A4443CB43C22E48D6
:101B00006844FFF767FE03002C4A282168461DF051
:101B1000B1F80A226946FFA80C3028F037F8061EF3
:101B200030D1002322002900FFA80C3028F009FB47
:101B3000061E27D1FFA80C3028F012FD060021E078
:101B40001BF0BAF8002914DB1D4A00231DF05EF9D2
:101B5000100019001DF054FC00221A4B1DF065FB0B
:101B600002000B0018481EF0C1FC18481EF08EFC45
:101B70009FE7174B174A3F2117481BF02FFF022002
:101B800002F0DCFA73425E41F0B2144B9D44F0BDAA
:101B90004220684428F0C6FD9EE7C04674F9FFFF66
:101BA0009011031094110310788903107C06000033
:101BB000A4110310A02300206C060000AC11031038
:101BC00040420F0000408F40BCFE02107C11031009
:101BD00068FC021084FC0210BCFC02108C060000A1
:101BE000F0B5DE4657464E464546E0B587B00400A0
:101BF00004AB00221A80059206001036437D002BAC
:101C000004D0237D984600236375BEE1B379002B91
:101C10000BD103695A1C02611B78002B0BDD002BD2
:101C20000CDB337101237371EBE7C04BC04A2521F4
:101C3000C0481BF0D3FE0122B271F0E70023F0E7A9
:101C40005E46A2E1B379002B0BD133685A1C326097
:101C50001B78002B0BDD002B0CDB33710123737120
:101C600097E1B24BB24A2521B2481BF0B7FE0122E0
:101C7000B271F0E70023F0E7B17900291AD1336897
:101C80005A1C32601B78002B1ADD002B1BDB3371D2
:101C900001237371227D002A00D1B1E1752A14D08D
:101CA000A54B1D78002D00D14FE1AA4200D14BE198
:101CB0000233F6E79D4B9E4A25219E481BF08EFE7F
:101CC0000122B271E1E70023E1E7002363750022FE
:101CD000002024E09D79002D0BD125696F1C276120
:101CE0002D78002D0BDD002D0CDB1D7101255D71A4
:101CF0001CE08E4B8E4A25218E481BF06FFE01277B
:101D00009F71F0E70025F0E7303BDBB20F2B23D8C3
:101D100012011A4392B2002363750130C0B2032846
:101D20000ED823001033657D002DD3D0237D002BEA
:101D300010D0402BE8D92025AB43373BDBB2E5E799
:101D4000002000280AD007B0F0BCBB46B246A94626
:101D5000A046F0BD0220F4E70320F2E7A0239B0198
:101D6000D3189BB28020C000834223D390239B01D1
:101D7000D3189BB28021C9008B4220D30592012148
:101D8000002900D101E1059B7F2B25D9002202A962
:101D90000A703F211940803A0A4302A94A709B0900
:101DA0009AB21F2A5BD84022524213438B70CD1C3B
:101DB000B3468FE09205920D04AB1A80E0E704A9C8
:101DC0000B889B029205920D134380225202944687
:101DD000634405930121D3E7DBB20093636899461E
:101DE000002B03D0A568DB889D420AD06368002BD6
:101DF00000D1CAE0A268511CA1609B18009A1A7217
:101E0000C3E023689B466D0001351B689A464B462C
:101E1000002B0FD080235B029D4211D253461B68DA
:101E20009B682A000932494650469847071E08D049
:101E3000C5800CE0414B424A332142481BF0CEFDA5
:101E4000002753461B685B68494650469847002F59
:101E500001D06760CAE701235A461371F9E73F21B1
:101E6000194080235B420B4302A98B7093090F2B0F
:101E700006D8202252421343CB7003ADB34629E06B
:101E80003F21194080235B420B4302A9CB70120B08
:101E900010235B421A430A714D1DB3461AE0274BCB
:101EA000274A332127481BF099FD0023009353460E
:101EB0001B685B68390050469847009B002B30D068
:101EC000009B63606368002B04D0A268511CA16072
:101ED0009B181E72013D2E78002E00D1B0E6676877
:101EE000002FEFD0A368FA889342EBD12268914685
:101EF0005B000133019313689A46002FCFD08023F3
:101F00005B02019A9A42D0D253461B689B68093201
:101F100039005046984700900028C8D0019AC280E6
:101F2000CBE701334A461371CAE7C046D01103100C
:101F3000D811031058120310BC110310D00B03105A
:101F4000E00B03109C0C03105D78002D5AD0002389
:101F5000637528E02D4B2E4A33212E481BF03EFDA1
:101F60000023009353461B685B683900504698472E
:101F7000009B002B39D0009B63606368002B04D06A
:101F8000A268511CA1609B181D72637D002B00D1BB
:101F900058E6257D00236375A8452AD0002D2DD055
:101FA0005C2D00D168E66768002FE6D0A368FA8848
:101FB0009342E2D1226893465B000133994613684D
:101FC0009A46002FC6D080235B029945C8D253465B
:101FD0001B689B684A460932390050469847009072
:101FE0000028BFD04A46C280C2E701335A46137167
:101FF000C1E76368002B07D00020A4E60220A2E618
:102000000220A0E603209EE604209CE6D00B0310ED
:10201000E00B03109C0C0310F0B587B00400160011
:102020001F000379002B12D1100039001DF020FA97
:10203000051C1DF023FF32003B001DF057F900285E
:102040000BD00E2323712560012007B0F0BD284B73
:10205000284A4C2128481BF0C1FC0C9B1B680193AB
:102060000C990C311A0004A8FEF7E2FA049B002B2D
:1020700021D0049A002A27D004AB9B88029202A99F
:102080008B8051424A41D2B21C498C46634459422A
:102090004B41DBB29A421DD1029B002B20D01E2364
:1020A000237102AB9B882380029B002B1AD01E60F9
:1020B0005F600120C9E701330C9A1371002302937A
:1020C000013B02AA9380E7E70D4B0E4A26210E48FA
:1020D0001BF084FC0D4B0E4A16210B481BF07EFCB6
:1020E0000020B2E7064B0B4A262107481BF076FC7E
:1020F000940A0310B0120310BC1303100100FFFF79
:102100001C0603101C140310240203108002031089
:10211000A0140310701503100120002900D0002026
:10212000C0B27047F0B587B0040016001F000579F3
:10213000002D0BD110001900FFF7EEFF051E0BD08C
:102140000A2323712660280007B0F0BD274B284AD8
:102150007E2128481BF042FC0C9B1B6801930C99C4
:102160000C311A0004A8FEF763FA049B002B21D05F
:10217000049A002A27D004AB9B88029202A98B8084
:1021800051424A41D2B21C498C46634459424B41A8
:10219000DBB29A421DD1029B002BD4D01A232371AB
:1021A00002AB9B882380029B002B18D01E605F60CF
:1021B0000125C8E701330C9A137100230293013BF8
:1021C00002AA9380E7E70D4B0D4A26210D481BF02C
:1021D00005FC0D4B0D4A16210A481BF0FFFB074B6F
:1021E0000B4A262107481BF0F9FBC046940A03104E
:1021F000EC150310BC1303100100FFFF1C060310B5
:102200001C1403102402031080020310A0140310F6
:1022100070150310802212060023801859410123F3
:10222000002900D00023D8B270470000F0B587B075
:10223000040016001F000579002D0BD110001900B5
:10224000FFF7E8FF051E0BD00C2323712660280042
:1022500007B0F0BD274B284A672128481BF0BEFB7A
:102260000C9B1B6801930C990C311A0004A8FEF713
:10227000DFF9049B002B21D0049A002A27D004AB5D
:102280009B88029202A98B8051424A41D2B21C49DA
:102290008C46634459424B41DBB29A421DD1029BAA
:1022A000002BD4D01C23237102AB9B882380029B7C
:1022B000002B18D01E605F600125C8E701330C9A1F
:1022C000137100230293013B02AA9380E7E70D4BB1
:1022D0000D4A26210D481BF081FB0D4B0D4A16219E
:1022E0000A481BF07BFB074B0B4A262107481BF0D3
:1022F00075FBC046940A031050170310BC1303105B
:102300000100FFFF1C0603101C140310240203101D
:1023100080020310A01403107015031070B586B06E
:1023200004000D0001001031437D002B02D0227DFE
:10233000002338E08B79002B0BD103695A1C026112
:102340001B78002B0BDD002B0CDB0B7101234B7179
:10235000EDE7604B604A252160481BF03FFB0122FE
:102360008A71F0E70023F0E7012002E0012000E09D
:102370000120002838D03E2B36D800206075581C2C
:10238000C0B2E3181A778B79002B22D10B685A1C44
:102390000A601B78002B22DD002B23DB0B7101234D
:1023A0004B71227D03002F2A01D9392ADED92B2A2D
:1023B000DED02D2A07D02E2A07D0652A07D0452A3D
:1023C000D2D00020D5E70120D3E70120D1E70120BA
:1023D000CFE7404B404A252140481BF0FFFA01223D
:1023E0008A71D9E70023D9E7E31800221A77210080
:1023F0001C3102AE3000FEF749FD3378032B2AD0A2
:1024000014D8012B42D0022B0ED102AB1B78022B29
:1024100036D1A3690093049A059B2800FFF706FFB5
:10242000002854D0002613E0032611E0042B0ED11F
:1024300002AB1E78042E42D1A3690093049A059B37
:102440002800FFF7E9FD002802D0002600E003265F
:10245000300006B070BD02AB1B78032B0AD1A36914
:102460000093049A059B2800FFF75CFE00282CD0FF
:102470000026EDE71A4B1B4A58211B481BF0AEFA09
:102480001A4B1B4A532118481BF0A8FA02AB1B78C1
:10249000012B07D1049B2E79002E09D10E222A711F
:1024A0002B60D5E7134B144A5D210F481BF096FAB9
:1024B000ED21124B124A490012481BF08FFA124BC1
:1024C000124A632108481BF089FA0426C0E7042653
:1024D000BEE7C046D0110310D811031058120310E4
:1024E000A8180310D01803102C0E03103419031071
:1024F00058190310BC190310D8190310940A0310BB
:10250000181A0310480B0310241B0310401B031060
:1025100070B504000E0022001032617D002928D021
:10252000227D002A3FD0202A09D8092A07D3093A58
:10253000D2B2012191400A00B5490A423AD10122A2
:1025400022730025002D00D060E122001032617D51
:10255000002932D0227D7B2A00D952E15B2A46D362
:102560005B3AD1B2202900D94BE18A00A9498A58A7
:102570009746917900290BD12169481C206109787F
:1025800000290BDD00290CDB117101215171C7E716
:10259000A14BA24A2521A2481BF020FA01209071EC
:1025A000F0E70021F0E7227B002A01D10125C9E7ED
:1025B0000225C7E700226275ADE7917900290BD1AA
:1025C0002169481C2061097800290BDD00290CDBFA
:1025D000117101215171BDE78F4B904A252190481F
:1025E0001BF0FCF901209071F0E70021F0E7222AAE
:1025F00002D0272A00D004E10023A3606368002BE7
:102600003FD02000FFF7ECFA051E00D0FEE03100BD
:102610002000FEF725FBF9E03279002A10D1402294
:102620003271002E05D0002232807280013A328051
:10263000728000223100200000F0A6FC0500E5E0D9
:102640008E21784B784A890078481BF0C7F9327997
:10265000002A10D120223271002E05D000223280B3
:102660007280013A3280728000223100200000F036
:102670007FFE0500CAE06B4B6D4A6E496B481BF04C
:10268000ADF92568286803681B6828219847002849
:1026900003D01F23C3801E3B8380002801D06060CD
:1026A000AFE701232B71FAE73379002B05D106231D
:1026B0003371053B3370604B1BE0D421594B5F4AAB
:1026C000FF315A481BF08AF9534B544A252154488C
:1026D0001BF084F9012090711DE0117101215171ED
:1026E000227D002A1BD019788A421AD10133002298
:1026F00062751D78002D00D188E022001032617DC6
:102700000029EDD191790029DED12169481C206191
:1027100009780029DEDD0029DFDA0021DDE7022566
:1027200074E0032572E03379002B05D10623337161
:1027300000233370424B1BE0D4213A4B3F4AFF3118
:102740003A481BF04BF9344B344A252134481BF0EE
:1027500045F9012090711CE0117101215171227D18
:10276000002A1AD019788A4219D1013300226275E1
:102770001D78002D4AD022001032617D0029EED153
:1027800091790029DFD12169481C2061097800294D
:10279000DFDD0029E0DA0021DEE7022536E003254F
:1027A00034E0284B14E01C4B1C4A25211C481BF02C
:1027B00015F9012090711CE0117101215171227DE8
:1027C000002A1AD019788A4219D101330022627581
:1027D0001D78002D1AD022001032617D0029EED123
:1027E00091790029DFD12169481C206109780029ED
:1027F000DFDD0029E0DA0021DEE7022506E003251F
:1028000004E031002000FFF789FD0500280070BDBD
:1028100013008000981C0310D0110310D81103106E
:1028200058120310940A0310901B0310480B031056
:10283000F01B031046020000801B0310541C031001
:10284000C8360310881B0310F0B5D6464F464646DF
:10285000C0B59AB00600009101AB1A8038239946A2
:1028600081440300383305D007000C3703689A46CB
:1028700000250CE0042075E053461B685B68504659
:10288000984700236360238063800135ADB2BB8C21
:10289000AB4207D9EC003B6A9C466444616800295E
:1028A000EAD1EEE70023BB84013B3B85396AB9429C
:1028B00007D053461B685B68504698473F62042325
:1028C000FB840023337134000834356805E00B685D
:1028D00023602B685B682800984721680029F6D19F
:1028E000320038320023137103A8039643608360DB
:1028F0000373009A026143758375866101AB5B784F
:1029000000224946FFF704FE002808D103AB1B7DD7
:10291000002B04D04B461B791B0700D50320051C58
:102920000499002904D0039B186803685B689847E2
:1029300034000C3433689846338E002B18D1216A4A
:10294000A1420ED0A28CE38C9A420AD0D200434618
:102950001B689B6840469847206200281DD0A38CC6
:10296000E384281C1AB0E0BCBA46B146A846F0BDC4
:102970000D4A94466344DF00236A9C4667447A8884
:10298000D20043461B689B687968404698470028F8
:10299000D5D078607B883B80D1E7044B044A9221F4
:1029A00004481BF01BF8C046FFFFFF1F1C1D03104F
:1029B000301D0310B0FD021010B582B004000800F5
:1029C000FEF712FCFEF712FC010001AB0A225A705E
:1029D0001B886A461380009A2000FFF735FF02B07B
:1029E00010BD000030B59B4CA5449B4B9B4A1A6020
:1029F000002018F0ABFD29F07BF8002817D029F053
:102A000023F9012296499748684427F08FF8002857
:102A10002CD1954B954A964969449648684427F0CD
:102A200072FE002800D076E00124012523E01AF090
:102A300043F9002914DB904A00231CF0E7F9100049
:102A400019001CF0DDFC00228C4B1CF0EEFB020098
:102A50000B008B481DF04AFD8A481DF017FDCEE79C
:102A6000894B8A4A3F218A481AF0B8FF022001F0B8
:102A700065FB00240125002C01D0002D51D1C0227E
:102A80009201002104A81DF05DFB00230393002C9C
:102A900001D0002D54D1704B1968C022920104A8B6
:102AA0001DF050FB04AB00937A48FEF773F86946BB
:102AB000FFF782FF041CC3B2002B00D078E07649F8
:102AC000764B6B441800FEF79EFB6C460C22734B52
:102AD0006B44190020001DF035FB6E4B704A6A44B0
:102AE0001360704B6B4407CC07C36D486844FEF716
:102AF000AFFB03226C492AF043FC002800D085E09C
:102B00006A4B01221A7000225549002027F00EF866
:102B1000674B9D4430BD032001F010FB01240025CC
:102B2000A9E70122634969446348684427F02EF805
:102B30000028A4D00828A2D0032001F0FFFA9EE7C5
:102B4000C02203AB920104A95B48684427F0D1F985
:102B500000280AD0032001F0F1FA3F4B1968C02287
:102B6000920104A81DF0EEFA9CE71AF0A5F80029DE
:102B700018DB414A00231CF049F9100019001CF031
:102B80003FFC00223D4B1CF050FB02000B003C4878
:102B90001DF0ACFC039949481DF0A8FC04A8FDF702
:102BA0007FFC7FE7384B394A3F2139481AF016FF3E
:102BB0001AF082F800291DDB2F4A00231CF026F9A9
:102BC000100019001CF01CFC00222C4B1CF02DFBEB
:102BD00002000B002A481DF089FCE4B2052C0FD836
:102BE000A400374BE15837481DF080FC032001F06A
:102BF000E5FA64E7244B254A3F2125481AF0EEFE0A
:102C0000314B324A452132481AF0E8FE314C6C44CF
:102C100021492000FEF7F7FA6B461A0023CC23C2A5
:102C20001C4A2D4969440A602C4A6A4413CB13C2DA
:102C300029486844FEF70CFB072229492AF0A0FB2B
:102C4000002803D1194B02221A705CE7174B0022AF
:102C50001A7058E774C9FFFFC411002000D01F107C
:102C6000901103108831000094110310788903102B
:102C7000103000003031000040420F0000408F4013
:102C8000BCFE02107C11031068FC021084FC0210D0
:102C9000BCFC0210A0230020141F0310703600009B
:102CA00050360000543600001C1F03101E910220F5
:102CB0008C3600002A300000F0330000DC1D0310C9
:102CC000A8110020FC1E0310001E0310441E031058
:102CD0008C1E03107C360000603600006436000055
:102CE000201F031000B583B018F052FC1DF00AFC41
:102CF000984819F011FF6846FDF71AFB964A002321
:102D0000009801991CF082F8100019001CF078FB63
:102D10000022924B1CF089FA02000B0090481DF033
:102D2000E5FB022203218F481DF0E0FB01F07AF958
:102D3000FFF758FE0BF08AF98B4B1B78002B26D03F
:102D4000012B00D188E0022B00D1A1E002F0E0F9D4
:102D5000002800D1E1E06846FDF7EAFA7E4A002348
:102D6000009801991CF052F8100019001CF048FB63
:102D700000227A4B1CF059FA02000B0078481DF033
:102D8000B5FB7A481DF082FB22F0CCF9FEE76846DD
:102D9000FDF7CEFA704A0023009801991CF036F82E
:102DA000100019001CF02CFB00226C4B1CF03DFAAB
:102DB00002000B006A481DF099FB6D481DF066FB90
:102DC00001F01CFF03F0B2FC06F0F2FF04F022FF5A
:102DD00002F084FE03F00AFB00281CD16846FDF7D0
:102DE000A7FA5D4A0023009801991CF00FF8100023
:102DF00019001CF005FB0022584B1CF016FA0200CB
:102E00000B0057481DF072FB5A481DF03FFB012094
:102E100001F020FA9AE705F059FC002896D168469F
:102E2000FDF786FA4C4A0023009801991BF0EEFF4B
:102E3000100019001CF0E4FA0022484B1CF0F5F9D0
:102E400002000B0046481DF051FB4B481DF01EFBD5
:102E5000022001F0FFF979E76846FDF769FA3E4A7A
:102E60000023009801991BF0D1FF100019001CF0FD
:102E7000C7FA0022394B1CF0D8F902000B00384881
:102E80001DF034FB3D481DF001FB02F027FE5DE71D
:102E90006846FDF74DFA304A0023009801991BF06F
:102EA000B5FF100019001CF0ABFA00222B4B1CF0F0
:102EB000BCF902000B002A481DF018FB30481DF039
:102EC000E5FA01F09BFE03F031FC04F0A3FE02F0F2
:102ED00005FE15F0FFFE03F089FA002800D035E763
:102EE0006846FDF725FA1C4A0023009801991BF05B
:102EF0008DFF100019001CF083FA0022174B1CF004
:102F000094F902000B0016481DF0F0FA19481DF064
:102F1000BDFA012001F09EF918E76846FDF708FAAE
:102F20000D4A0023009801991BF070FF1000190052
:102F30001CF066FA0022094B1CF077F902000B0026
:102F400007481DF0D3FA0F481DF0A0FA032001F046
:102F500081F900E78813000040420F0000408F40D5
:102F6000BCFE0210281F03101E910220741F0310C4
:102F7000401F03103CFF021048FF0210581F0310AF
:102F8000641F031058FF0210F0B587B004000F0053
:102F90006A46D370DBB2002B00D1DEE103001033B0
:102FA000427D002A1FD0237D5B2B36D10023637521
:102FB00023001033627D002A35D0237D002B4CD0B6
:102FC000202B09D8092B07D3093BDBB201229A40F9
:102FD0001300BA4A134247D101232373002000286B
:102FE00045D007B0F0BD9A79002A0BD10269511C77
:102FF00001611278002A0BDD002A0CDB1A71012214
:103000005A71D0E7AE4BAF4A2521AF481AF0E6FC23
:1030100001219971F0E70022F0E7AC4BAC4A9D2109
:10302000AC481AF0DBFC9A79002A0BD12269511CBA
:1030300021611278002A0BDD002A0CDB1A710122B3
:103040005A71BAE79E4B9F4A25219F481AF0C6FC49
:1030500001219971F0E70022F0E7237B002B01D1D9
:103060000120BCE70220BAE700236375A0E7230034
:103070001033627D002A07D0237D5D2B1ED10023F3
:103080006375013301931BE09A79002A0BD1226901
:10309000511C21611278002A0BDD002A0CDB1A7109
:1030A00001225A71E8E7864B864A252186481AF0A4
:1030B00095FC01219971F0E70022F0E700230193CC
:1030C000019B002B79D08CE70133337100230293ED
:1030D000013B02AA938015E07F4B804A262180485D
:1030E0001AF07CFC04AA9288029302A98A805942B1
:1030F0004B41DBB27B498C46624451424A41D2B2D9
:1031000093426FD1029D002D0CD0082202A904A881
:103110001DF018F87A88744B9A4269D104AB9B88E9
:103120003B807B80002D00D119E16B46DB78002BC2
:1031300000D184E0013BDBB2002229002000FFF730
:10314000E7F9002800D04CE723001033627D002A05
:103150007BD0227D002A00D191E0202A09D8092ABB
:1031600007D3093AD2B201239340544A134200D004
:103170008CE001232373002800D032E723001033B2
:10318000627D002A00D184E0237D5D2B00D0C6E063
:10319000002363750133002B00D022E72200103298
:1031A000617D002900D1BCE0227D2C2A02D10023C0
:1031B00063750133002B00D1CDE0A66931000C31DD
:1031C000326804A8FDF734FA049B002B00D17BE79A
:1031D000049B002B00D17FE784D000221A71013AB2
:1031E000DA807FE7414B424A16213D481AF0F6FB50
:1031F00033000C333C498A421FD0D1097F20024062
:10320000988C81420DD21B6AC90059184B889A428A
:103210000DD24B68D2009A1804AB9B88D3807B8078
:1032200080E7344B344A712134481AF0D7FB344BD1
:10323000344A4B212A481AF0D1FB0022ECE7324BEA
:10324000324A132132481AF0C9FB9A79002A0BD16D
:103250002269511C21611278002A0BDD002A0CDB47
:103260001A7101225A7174E7154B164A2521164826
:103270001AF0B4FB01219971F0E70022F0E7237BFB
:10328000002B01D1012076E7022074E7002363754B
:103290005AE79A79002A0BD12269511C21611278D0
:1032A000002A37DD002A38DB1A7101225A716BE7D8
:1032B000034B044A252104481AF090FB13008000B8
:1032C000D0110310D811031058120310841F0310DB
:1032D000981F0310FC2003101C0603101C1403107D
:1032E000240203100100FFFFFFFF00008002031013
:1032F000500503103000031044000310B0FD02100D
:10330000300103103C0103105C21031068210310FD
:10331000F421031001219971C4E70022C4E7019B45
:1033200039E7917900290BD12169481C206109787E
:1033300000290BDD00290CDB11710121517133E7EC
:10334000084B094A252109481AF048FB01209071D1
:10335000F0E70021F0E7032043E6052041E60420E2
:103360003FE6C046D0110310D811031058120310C5
:10337000F0B5DE4657464E464546E0B59FB00400E0
:1033800007916A46D376DBB2002B01D100F09AFD9B
:1033900003001033427D002A27D0237D7B2B3ED1B2
:1033A0000023637523001033627D002A3DD0237D06
:1033B000002B54D0202B09D8092B07D3093BDBB2B3
:1033C00001229A401300B74A134251D101232373BB
:1033D00000230593059B002B4DD005981FB0F0BC32
:1033E000BB46B246A946A046F0BD9A79002A0BD149
:1033F0000269511C01611278002A0BDD002A0CDBE6
:103400001A7101225A71C8E7A74BA84A2521A8487A
:103410001AF0E4FA01219971F0E70022F0E7A54BD8
:10342000A54AF321A5481AF0D9FA9A79002A0BD1B6
:103430002269511C21611278002A0BDD002A0CDB65
:103440001A7101225A71B2E7974B984A2521984880
:103450001AF0C4FA01219971F0E70022F0E7237B0A
:10346000002B02D101230593B4E702230593B1E7B2
:103470000023637596E723001033627D002A0CD089
:10348000237D7D2B23D10023637501330493049B9B
:10349000002B01D100F087FC9FE79A79002A0BD11D
:1034A0002269511C21611278002A0BDD002A0CDBF5
:1034B0001A7101225A71E3E77B4B7C4A25217C4833
:1034C0001AF08CFA01219971F0E70022F0E700234D
:1034D0000493DCE72568286803681B68282198475F
:1034E000002803D01F23C3801E3B8380002802D006
:1034F000606000F05FFC01232B71F9E79A79002AE4
:103500000CD12269511C21611278002A0CDD002A9D
:103510000DDB1A7101225A7100F053FC624B634AB1
:10352000252163481AF05AFA01219971EFE7002228
:10353000EFE743469B79002B0DD123695A1C22618A
:103540001B78002B0DDD002B0FDB4246137101238E
:10355000537100F045FC544B544A252154481AF04D
:103560003DFA012241468A71EDE70023EDE7E221B1
:10357000534B544A490051481AF030FA012303933F
:1035800004E00123039301E0049B0393039B002BBE
:1035900000D182E0474656E001230393F6E7226814
:1035A00091465B000133984613689B46002E11D06C
:1035B00080235B02984513D25B461B689B6842469A
:1035C0000932310058469847824600280AD04246C0
:1035D000C2800DE03C4B3D4A33213D481AF0FEF9D4
:1035E00000239A465B461B685B6831005846984743
:1035F0005346002B02D0534663602DE001334A4608
:103600001371F8E7BB79002B0BD13B685A1C3A6069
:103610001B78002B0BDD002B0CDB3B7101237B7136
:1036200025E0214B214A252121481AF0D7F9012212
:10363000BA71F0E70023F0E7039B02E0039B00E090
:10364000049B002B24D0002363756668002E03D0F2
:10365000A368F2889342A2D06368002B04D0A268CA
:10366000511CA1609B181D72637D002BCAD0257D63
:103670002F2D01D9392DDFD95E2D01D97A2DDDD934
:10368000402DDDD95A2D01D9049BDAE7039BD8E7F9
:103690006368002B03D005981FE003201DE0042081
:1036A0001BE0C04613008000D0110310D811031096
:1036B000581203105C22031070220310FC20031028
:1036C000D86D0310D8230310D00B0310E00B0310A8
:1036D0009C0C03102000FEF783FA002800D0DAE3E8
:1036E00023001033627D002A20D0237D002B37D0A9
:1036F000202B09D8092B07D3093BDBB201229A40C2
:103700001300C64A134232D101232373002800D08C
:10371000C4E323001033627D002A2BD0237D3A2B93
:1037200042D100236375013303933FE09A79002A65
:103730000BD12269511C21611278002A0BDD002A6D
:103740000CDB1A7101225A71CFE7B54BB54A25211E
:10375000B5481AF043F901219971F0E70022F0E72A
:10376000237B002B01D10120D0E70220CEE70023EC
:103770006375B5E79A79002A0BD12269511C216142
:103780001278002A0BDD002A0CDB1A7101225A7113
:10379000C4E7A34BA34A2521A3481AF01FF901212E
:1037A0009971F0E70022F0E7049B0393039B002B41
:1037B00000D176E36368002B3DD0A2689446634451
:1037C00000221A72636808330CA90C93A3684B603B
:1037D0000A7215AE3000FDF7D3F9A7690FAB1A00D6
:1037E00023CE23C223CB23C2129B002B29D0079BBD
:1037F00019883A000C328D4B994200D19CE0C809DF
:103800007F230B40968CB04200D389E0126AC0003F
:1038100012185088834200D388E05268DB00D31826
:103820000A930AAA9180002B00D187E0DA880AABBC
:10383000DA80039ECCE07E4B7E4A4D217E481AF012
:10384000CDF8089308AB012252429A80089E002EC0
:1038500026D008AB9A88754B9A4200D12BE108AB71
:10386000D9880C37714B994200D136E1C8097F23C2
:103870000B40BA8C904200D323E13A6AC000121880
:103880005088834200D322E15268DB00D3180893AA
:1038900008AA9180002B02D0DA8808ABDA80089E53
:1038A000002E00D11BE1A1693000FDF75BF86B46EB
:1038B000DB7E002B00D1D6E1013BDBB200223100E0
:1038C0002000FEF725FE002800D0F7E1230010338A
:1038D000627D002A00D1CCE1237D002B00D1E2E102
:1038E000202B0AD8092B08D3093BDBB201229A40CE
:1038F00013004A4A134200D0DCE10123237300285D
:1039000000D0D2E223001033627D002A00D1D8E13A
:10391000237D7D2B00D01BE200236375039B18E2FF
:10392000464B474A712147481AF058F8464B474AD8
:103930004B2147481AF052F8002371E73B4A76E7DB
:10394000444B454A272145481AF048F8002D54D0E9
:10395000280029F0E7FC1BAB1B951C9000221A7273
:103960001BA918A8FDF769FC19AB6A4603CB03C273
:10397000189B12981399149AFDF70EF9002800D09D
:1039800078E001235E40F6B20AAB9A88274B9A4250
:1039900076D00AABD9883A000C32244B994200D138
:1039A00080E0C8097F230B40958CA8426ED2126A32
:1039B000C0001218508883426ED25268DB00D318C0
:1039C0000A930AAA9180002B02D0DA880AABDA8027
:1039D0000A9B002B68D0002ED3D01D1EB0D01B79BF
:1039E000042B0CD0052B3BD0022BAFD01BAB0022FD
:1039F0001B921C9201321A72B2E70020ABE72D68CD
:103A0000002D08D0280029F08DFC1BAB1B951C90C5
:103A100001221A72A4E70020F7E7C04613008000D5
:103A2000D0110310D811031058120310FFFF00002B
:103A3000800A0310A0240310200A03103000031092
:103A400044000310B0FD0210300103103C010310CC
:103A5000240203108C0E0310A00E03100C0F031091
:103A60002B6819000831DA881BAB1B911C920022CD
:103A70001A7275E708220AA908A81CF063FBE5E69C
:103A80009D4B9E4A15219E4819F0A8FF9D4B9E4ACA
:103A900071219E4819F0A2FF9D4B9E4A4B219E48E2
:103AA00019F09CFF00238BE70023089308AB012249
:103AB00052429A80CAE6904B904A1521904819F0DC
:103AC0008DFF904B904A7121904819F087FF904BE1
:103AD000904A4B21904819F081FF0023D7E6A7694F
:103AE00039000C313A6812A8FCF7A2FD129B002B9A
:103AF00063D0129B002B69D003D000221A71013AC7
:103B0000DA8012AA9288089308A98A8059424B4108
:103B1000DBB282498C46624451424A41D2B293425E
:103B20005AD1089B9846002B3ED039000C313A6898
:103B300012A8FCF77DFD129B002B53D0129B002B8B
:103B400059D003D000221A71013ADA8012AA928861
:103B50000A930AA98A8059424B41DBB26F498C46CD
:103B6000624451424A41D2B293424AD10A9B994699
:103B7000002B76D00FAA08AB03CB03C20822190092
:103B800012A81CF0DFFA0F9B002B40D012AA9288DB
:103B9000DA80079B5B8862498B423ED10FAB9B88E2
:103BA00007990B804A804E464346002B00D184E0A3
:103BB00041462000FDF754F879E601333B710023BC
:103BC000089308AB012252429A80AAE7554B564A05
:103BD0002621514819F002FF544B554A16214E48F0
:103BE00019F0FCFE01333B7100230A930AAB01225A
:103BF00052429A80BAE74B4B4B4A2621464819F06D
:103C0000EDFE4A4B4A4A1621434819F0E7FE454B60
:103C1000484A2621404819F0E1FE0C378B420ED06D
:103C2000D8097F263340B98C88420ED2396AC00049
:103C30000918488883420ED24E68DB00F6180FAB95
:103C40009B88F380079B5A80ADE72E4B2E4A71214B
:103C50002E4819F0C3FE2E4B2E4A4B212E4819F048
:103C6000BDFE9846A0E7344B344A1321344819F07E
:103C7000B5FE9A79002A0BD12269511C2161127874
:103C8000002A0BDD002A0CDB1A7101225A7123E68F
:103C90002C4B2D4A25212D4819F0A0FE01219971A8
:103CA000F0E70022F0E7237B002B01D1012026E67C
:103CB000022024E60023637508E604200590FFF740
:103CC0008CFB9A79002A0BD12269511C2161127850
:103CD000002A0BDD002A0CDB1A7101225A7117E64B
:103CE000184B194A2521194819F078FE01219971BC
:103CF000F0E70022F0E7C046700F0310880F0310B2
:103D0000FC0F03103000031044000310B0FD02103C
:103D1000300103103C010310240203100100FFFFD7
:103D2000FFFF00001C0603101C1403108002031088
:103D3000500503102C0603105C21031068210310AA
:103D4000F4210310D0110310D811031058120310DE
:103D5000049B002B00D0ABE022001032617D0029D3
:103D60005BD0227D2C2A02D100236375039B002B9C
:103D700000D1A0E023001033627D002A67D0237DAC
:103D8000002B7ED0202B09D8092B07D3093BDBB2AF
:103D900001229A4013004D4A134279D10123237323
:103DA000002800D08BE00023A3606368002B01D1C2
:103DB000FFF790FB23001033627D002A01D1FFF74B
:103DC0009DFB237D272B00D184E4222B00D181E4AD
:103DD00010239846A044637D002B01D1FFF7A9FB77
:103DE000257D002D01D1FFF7C2FB2F2D03D9392DE1
:103DF00001D8FFF7C3FB5E2D03D97A2D01D8FFF759
:103E0000C0FB402D01D8FFF7BFFB5A2D01D8FFF7AB
:103E1000C3FB049B0393FFF7B9FB917900290BD1F6
:103E200021694E1C2661097800290BDD00290CDB75
:103E300011710121517194E7254B264A252126480D
:103E400019F0CCFD01269671F0E70021F0E79A7990
:103E5000002A0BD12269511C21611278002A0BDD46
:103E6000002A0CDB1A7101225A7188E7184B194A93
:103E70002521194819F0B2FD01219971F0E70022BE
:103E8000F0E7237B002B01D1012089E7022087E79F
:103E9000002363756EE70590FFF79FFA0590FFF723
:103EA0009CFA03230593FFF798FA0590FFF795FA1C
:103EB0000590FFF792FA03230593FFF78EFA05901A
:103EC000FFF78BFA05230593FFF787FA13008000AD
:103ED000D0110310D81103105812031010B5024965
:103EE0000120FCF73BFA10BDFFFF000010B50400F5
:103EF00018F0E2FE002903DB20606160200010BDA5
:103F0000024B034A3F21034819F068FD68FC021088
:103F100084FC0210BCFC021070B518E001210E48B0
:103F200019F0EEFC0D4B01221A7019F0A3FCD025FC
:103F30002D068026B6046E61FA24A400200021F02C
:103F4000AFFA19F097FCAE61200021F0A9FA034BFB
:103F50001B78002BE2D0E8E7881300001C910220B8
:103F6000F0B5C64600B5002400E000242B4B1D78B8
:103F7000002D1ED0A54214D9D0252D0640236B61FB
:103F800080266E61FA2021F08BFAAE61FA2021F0D2
:103F900087FA0134E4B2214B1B780533A342E4DBFA
:103FA000E4E7D0231B0680225A61FA2021F078FA38
:103FB000EFE71B4B1E78002E24D0A64218D9D0263E
:103FC000360640239846736180277761FA2021F0F6
:103FD00067FA4346B361B761FA2021F061FA013410
:103FE000E4B20F4B1B780533A342BFDA2C00BDE7C8
:103FF000D0231B0640225A6140325A61FA2021F038
:104000004FFAECE7D0231B0640229A6140325A61F6
:10401000002021F0E3FA3400A8E7C0461B910220FB
:104020001A91022010B582B0354B00221A70192067
:1040300017F0DEFBD024240680239B0463626361B7
:10404000072017F0D5FB802363626361062017F019
:10405000CFFB4023636263612A4B019301230093EA
:10406000002380222849294820F0B7FE8022284BCF
:10407000019302230093002352002649264820F092
:10408000ACFE18F019FE00292DDB244A00231AF09B
:10409000BDFE100019001BF0B3F90022204B1BF0ED
:1040A000C4F802000B001F481CF020FA1E481CF048
:1040B000EDF918F001FE00291BDB184A00231AF065
:1040C000A5FE100019001BF09BF90022144B1BF0F9
:1040D000ACF802000B0013481CF008FA13481CF05F
:1040E000D5F902B010BD124B124A3F21124819F007
:1040F00075FC0F4B0F4A3F210F4819F06FFCC0466B
:104100001C9102209C23002014260310193F00104C
:104110009823002020260310613F001040420F002A
:1041200000408F40BCFE02103026031048260310CA
:1041300068FC021084FC0210BCFC021010B50400E4
:1041400018F0BAFD002921DB134A00231AF05EFEA5
:10415000100019001BF054F90022104B1BF065F8F9
:1041600002000B000E481CF0C1F921000D481CF0A4
:10417000BDF90D4B1B78002B01D0002C05D10A4B4B
:104180001C700A4B186820F07BFF10BD084B094AD1
:104190003F21094819F022FC40420F0000408F40A7
:1041A000BCFE0210642603101B91022098230020FD
:1041B00068FC021084FC0210BCFC0210F0B583B055
:1041C00005006846FFF792FE1B4A002300980199FC
:1041D0001AF01CFE100019001BF012F90022174BF8
:1041E0001BF023F802000B0015481CF07FF9290092
:1041F00014481CF07BF9002400E00024AC4212D2E9
:10420000D02636064023736180277761FA2018F0A4
:10421000A9FDB761FA2018F0A5FD0134E4B26B1DC9
:10422000A342EADBEAE7D0231B0680225A61FA2088
:1042300018F098FDF1E7C04640420F0000408F4063
:10424000BCFE021070260310014B18787047C04660
:104250001B910220F0B5C64600B582B00600684644
:10426000FFF744FE1D4A0023009801991AF0CEFD85
:10427000100019001BF0C4F80022194B1AF0D5FFEA
:1042800002000B0017481CF031F9310016481CF0F1
:104290002DF9002400E00024B44215D2D0252D06CB
:1042A000402398466B6180276F61FA2018F05AFD11
:1042B0004346AB61AF61FA2018F054FD0134E4B21B
:1042C000731DA342E7DBE7E7D0231B0640225A61B8
:1042D00040325A61FA2018F045FDEFE740420F00E6
:1042E00000408F40BCFE021088260310F0B5C64681
:1042F00000B58CB02822002102A81BF01DFF00236E
:104300009846019300257BE03C00082C0EDC671CDE
:10431000BB0002AA9858A300985000211BF00AFD88
:104320000028F1D0A40002ABE650EDE70B96002484
:10433000002005E0A30002AA99581BF0AFFC01344D
:10434000092CF7DD3D491BF0AEFC041C3C4B18600A
:104350003C4B1868211C1BF00BFD002805D03A4986
:10436000201C1BF005FD00280AD1384B1868211CC1
:104370001BF0E8FC00280CD1002D2CD02C0000E014
:1043800001244346002B05D004F01EFC0023984670
:1043900009E00024002C02D04346002B1DD0002C45
:1043A00001D1002D1DD1264B1D68294B1968281CF1
:1043B0001BF0C8FC002817D02349281C1BF0D8FC90
:1043C000002832D0019B002B31D104F08BF800F093
:1043D00087FE01250EE02C00DCE704F083F8A04600
:1043E000E1E704F08BF9DEE70025002D02D1019B07
:1043F000002B1ED1FA20800021F052F801952500F3
:10440000144B04221A60144B1B68DB05FBD5124BBE
:10441000586880B21BF0B1FC10491BF05AFC1049DF
:104420001BF03CFC061C00246FE70025DDE7019D26
:10443000DBE704F063F900F05FFEDBE700002041FA
:1044400064280020D01100200000A040C8110020E6
:10445000CC11002000E0044000C00440499A103C08
:10446000CDCC4C3F014B18687047C04664280020F3
:10447000704710B504000800FFF7FAFF20600A2318
:104480006360093B2372200010BD704710B5040023
:104490000800FFF7FAFF20600C2363600B3B2372D8
:1044A000200010BD704710B504000800FFF7FAFFA8
:1044B00020600F2363600E3B2372200010BD01209B
:1044C000704710B5041CFFF7FAFF002803D0201C2A
:1044D0001BF0D4FC10BD00200021FBE70120704739
:1044E00070B505000C00FFF7F9FF002804D0280084
:1044F00021001AF079FF70BD00200021FBE70120A8
:10450000704770B505000C00FFF7F9FF002804D0D4
:10451000280021001AF074FF70BD00200021FBE785
:104520000120704770B504000D00FFF7F9FF002867
:1045300002D02000290070BD00200021FBE7000010
:1045400010B584B00379DB0628D504880C313F4BC5
:104550009C4221D0E2097F2323408C8CA2420FD2BF
:10456000096AD2008A1851888B420FD25268DB0048
:10457000D21803791E2B65D89B003549CB589F462E
:10458000344B354A7121354819F028FA344B354AF5
:104590004B21354819F022FA0022EAE70022E8E729
:1045A00000781AF0D5FE4FE000681AF0D1FE4BE01B
:1045B00000681AF0D1FE47E0106851681AF020FF39
:1045C00042E0106851681AF00FFF3DE00100002939
:1045D0001CD06846FCF75AFC6B461B78032B2CD08A
:1045E0001DD8012B25D0022B16D102980399FFF775
:1045F00077FF29E00168EAE701680831E7E700682A
:104600001BF03CFC20E0106851681DE0174B184A75
:10461000EA31184819F0E2F90020002114E0042BD7
:1046200004D102980399FFF77DFF0DE000200021DF
:104630000AE00298FFF745FF06E002980399FFF7AA
:1046400060FF01E00020002104B010BDFFFF00006A
:10465000282703103000031044000310B0FD02109F
:10466000300103103C0103102402031060100310FA
:10467000A0260310480B0310F0B59FB006000300FE
:1046800020CB2800383007AA92CB92C22B003833B7
:1046900069D007AB92CB92C20379202B32D10DAAFD
:1046A0000AAB92CB92C200285DD0130094460DAAAB
:1046B000190098CA98C10A00634692CB92C2139B14
:1046C000002B21D001882A000C328C4B994200D15A
:1046D00063E0C8097F230B40948CA04251D2126A38
:1046E000C00012185088834251D25268DB00D318A0
:1046F000059305AA9180002B51D0DA8805ABDA80AA
:10470000012494E00020CAE7039303AB0122524244
:104710009A800398002826D003AB9A88774B9A4258
:1047200000D1D3E003ABD9880C35744B994200D14A
:10473000DEE0C8097F230B40AA8C904200D3CBE077
:104740002A6AC00012185088834200D3CAE0526817
:10475000DB00D318039303AA9180002B02D0DA88E0
:1047600003ABDA800398316816AB1690179113AA41
:1047700030CB30C2002800D1BCE0FFF7E1FE1FB013
:10478000F0BD5F4B5F4A71215F4819F027F95F4B1D
:104790005F4A4B215F4819F021F90023A8E7574AE7
:1047A000ACE75D4B5D4A27215D4819F017F9002FF2
:1047B00052D0380028F0B6FD1BAB1B971C9000228E
:1047C0001A721BA918A8FCF738FD19AB6A4603CB6F
:1047D00003C2189B13981499159AFCF7DDF9002869
:1047E00054D101235C40E4B205AB9A88434B9A4212
:1047F00051D005ABD9882A000C32404B99425CD08D
:10480000C8097F230B40978CB8424AD2126AC00075
:104810001218508883424AD25268DB00D31805939D
:1048200005AA9180002B02D0DA8805ABDA80059BBF
:10483000002B44D0002CD4D01F1EB2D01B79042BE7
:104840000CD0052B18D0022BB1D01BAB00221B9231
:104850001C9201321A72B4E70020ADE73F68002FC6
:1048600008D0380028F05EFD1BAB1B971C9001227E
:104870001A72A6E70020F7E73B6819000831DA88CA
:104880001BAB1B911C9200221A729AE703AA05AB7C
:1048900003CB03C23DE7234B234A1521234819F0DC
:1048A0009DF8174B174A7121174819F097F8174BC5
:1048B000174A4B21174819F091F80023AFE700235E
:1048C000039303AB012252429A8022E7154B164A0A
:1048D0001521164819F082F8094B0A4A71210A4835
:1048E00019F07CF8094B0A4A4B210A4819F076F86E
:1048F00000232FE70020002141E7C046FFFF000012
:104900003000031044000310B0FD0210300103100A
:104910003C010310240203108C0E0310A00E0310A0
:104920000C0F0310700F0310880F0310FC0F0310FF
:10493000F0B5C64600B59EB006008846020020CA03
:104940002B00383307A991CA91C12A00383268D0A8
:1049500007AA91CA91C11A79202A31D10DA90AAAB0
:1049600091CA91C1002B5CD00A008C460DA91000A1
:1049700094C994C00100624691CA91C1139A002A59
:1049800020D019882A000C328F4B994267D0C80971
:104990007F230B40948CA04255D2126AC00012189B
:1049A0005088834255D25268DB00D318059305AA7C
:1049B0009180002B55D0DA8805ABDA80012498E08D
:1049C0000023CBE70023039303AB013A9A80039BB8
:1049D000002B26D003AB9A887B4B9A4200D1D7E0BC
:1049E00003ABD9880C35784B994200D1E2E0C80975
:1049F0007F230B40AA8C904200D3CFE02A6AC000EC
:104A000012185088834200D3CEE05268DB00D318DE
:104A1000039303AA9180002B02D0DA8803ABDA80DB
:104A2000039B16AA16933168179113A911CA11C1D5
:104A3000002B00D1C0E01B791B0700D4BCE0300084
:104A4000FFF71AFEBBE0614B614A7121614818F023
:104A5000C5FF614B614A4B21614818F0BFFF00233D
:104A6000A4E7594AA8E75F4B5F4A27215F4818F03F
:104A7000B5FF002F52D0380028F054FC1BAB1B9719
:104A80001C9000221A721BA918A8FCF7D6FB19ABC0
:104A90006A4603CB03C2189B13981499159AFCF726
:104AA0007BF8002854D101235C40E4B205AB9A881E
:104AB000454B9A4251D005ABD9882A000C32424B63
:104AC00099425CD0C8097F230B40978CB8424AD2E8
:104AD000126AC0001218508883424AD25268DB0022
:104AE000D318059305AA9180002B02D0DA8805AB74
:104AF000DA80059B002B44D0002CD4D01F1EB2D0EE
:104B00001B79042B0CD0052B18D0022BB1D01BAB7A
:104B100000221B921C9201321A72B4E70020ADE70A
:104B20003F68002F08D0380028F0FCFB1BAB1B9718
:104B30001C9001221A72A6E70020F7E73B681900D3
:104B40000831DA881BAB1B911C9200221A729AE77B
:104B500003AA05AB03CB03C239E7254B254A152130
:104B6000254818F03BFF194B194A7121194818F0D4
:104B700035FF194B194A4B21194818F02FFF002314
:104B8000AFE70023039303AB012252429A801EE752
:104B9000174B184A1521184818F020FF0B4B0C4AE8
:104BA00071210C4818F01AFF0B4B0C4A4B210C4892
:104BB00018F014FF00232BE74346186859681EB00D
:104BC00080BCB846F0BDC046FFFF000030000310B7
:104BD00044000310B0FD0210300103103C0103102B
:104BE000240203108C0E0310A00E03100C0F0310F0
:104BF000700F0310880F0310FC0F031070B5A2B0E4
:104C00001EF0D8FB1F211A2016F0E2FC0022002122
:104C10001A2016F0F5FC00211A2016F0D1FD3F4BAA
:104C20001B68E022D20113403D4A13601FAD3D498D
:104C30002800FFF71EFC03AC230007CD07C33A4E44
:104C4000069607AB220023CA23C30022374B0A92E1
:104C50000B930AA906A8FFF76BFE1AF009FC344B68
:104C600018601CAD33492800FFF710FC230007CD66
:104C700007C30C960DAB220023CA23C32E4A2F4B29
:104C80001092119310A90CA8FFF752FE1AF0F0FB36
:104C90002B4B186019AD2B492800FFF704FC2300AB
:104CA00007CD07C3129613AB07CC07C30022264BD0
:104CB0001692179316A912A8FFF73AFE1AF0D8FB1E
:104CC000224B18608022224B019303230093002380
:104CD00052002049204820F080F817F0EDFF00290D
:104CE00015DB1E4A00231AF091F8100019001AF083
:104CF00087FB00221A4B1AF098FA02000B001948A1
:104D00001BF0F4FB18481BF0C1FB22B070BD174B21
:104D1000174A3F21174818F061FEC04600C0044002
:104D200000D00440A4270310A023002000802740C7
:104D3000D0110020B02703103333333333332840EE
:104D4000C8110020C027031000002440CC1100200F
:104D500060280020D0270310ED42001040420F00D1
:104D600000408F40BCFE0210E027031068FC0210D8
:104D700084FC0210BCFC021030B583B004000D00AE
:104D8000002301930F4B1B68002B01D00F2808D084
:104D9000019B012B0FD02900200016F07FFC03B0EF
:104DA00030BD094815F038FD064B186801AA0021EE
:104DB00021F078FAECE7002BEDD0044B802252056D
:104DC0001A60E8E7382400203C24002004ED00E0CD
:104DD00000B583B0012801D003B000BD054B994256
:104DE000FAD1002300930F3311220349034814F032
:104DF00003FDF1E7FFFF000000C003403C2400205A
:104E0000F0B5C64600B584B007000E0015001C00C2
:104E100001212E4B186849421FF0F4FB002020F0BE
:104E200087F880460E21002020F0A2F817F044FFFA
:104E3000002936DB264A002319F0E8FF100019008C
:104E40001AF0DEFA0022234B1AF0EFF902000B00F1
:104E500021481BF04BFB00942B00320039001F4807
:104E60001BF044FB03AA1770D6705570947004238E
:104E7000FF211B4815F04EFB002818D0194B1B785A
:104E8000002B1BD14146002020F072F80F4B186810
:104E90000023002200211FF00BF904B080BCB846AB
:104EA000F0BD114B114A3F21114818F097FD053014
:104EB000FFF744F90B4B01221A70E3E70020FFF7DC
:104EC0003DF9084B00221A70DCE7C046342400206C
:104ED00040420F0000408F40BCFE0210FC27031030
:104EE0003C2400202C91022068FC021084FC02105B
:104EF000BCFC021010B584B00090019102920393A3
:104F000001212B4B186849421FF07CFB002020F048
:104F10000FF804000E21002020F02AF817F0CCFE34
:104F200000292CDB234A002319F070FF1000190020
:104F30001AF066FA0022204B1AF077F902000B00F3
:104F40001E481BF0D3FA1E481BF0A0FA0E236A4637
:104F5000FF211C4815F0DEFA002816D01A4B1B78EA
:104F6000002B1DD12100002020F002F8104B186802
:104F70000023002200211FF09BF804B010BD134B4A
:104F8000134A3F21134818F029FDD0231B06402265
:104F90005A610530FFF7D2F80B4B01221A70E1E796
:104FA0000020FFF7CBF8084B00221A70DAE7C04662
:104FB0003424002040420F0000408F40BCFE02100D
:104FC0002C2803103C2400202C91022068FC0210A5
:104FD00084FC0210BCFC021010B582B001AB18803A
:104FE00001212C4B186849421FF00CFB00201FF0D8
:104FF0009FFF04000E2100201FF0BAFF17F05CFE97
:1050000000292FDB244A002319F000FF10001900AB
:105010001AF0F6F90022214B1AF007F902000B00F2
:105020001F481BF063FA6B4619795A791D481BF02B
:105030005DFA022301AAFF211B4815F06BFA002834
:1050400016D01A4B1B78002B1DD1210000201FF019
:105050008FFF104B18680023002200211FF028F852
:1050600002B010BD124B134A3F21134818F0B6FC92
:10507000D0231B0640225A610530FFF75FF80B4B27
:1050800001221A70E1E70020FFF758F8074B0022D1
:105090001A70DAE73424002040420F0000408F40AD
:1050A000BCFE02103C2803103C2400202C9102205E
:1050B00068FC021084FC0210BCFC021010B5044B0A
:1050C00018681AF063FF1AF07FFE40B210BDC046A8
:1050D0005C280020014B18787047C0462A910220B6
:1050E00010B5034814F0EAFE024B01221A7010BDFD
:1050F0003C2400202B91022010B5034814F0C1FD80
:10510000024B00221A7010BD3C2400202B9102207B
:1051100010B5034814F008FF002800D0012010BD8E
:105120003C240020704710B504000800FFF7FAFF88
:10513000206005236360043B2372200010BD70478C
:1051400010B504000800FFF7FAFF20600B2363602E
:105150000A3B2372200010BD704710B50400080000
:10516000FFF7FAFF206009236360083B23722000E9
:1051700010BDC043C00F70470120704701230029B4
:1051800004D104D180221206904200D30023D8B269
:1051900070478022120600238018594101230029FC
:1051A00000D00023D8B2704710B50400FFF7E1FF2C
:1051B000002801D0200010BD0020FCE710B504003D
:1051C000FFF7DAFF002801D0200010BD0020FCE727
:1051D00010B50400FFF7D2FF002801D0200010BD59
:1051E0000020FCE710B50400FFF7D3FF002801D032
:1051F000200010BD0020FCE770B504000D00002267
:10520000084B1AF089F8002809D0074A074B2000FC
:1052100029001AF079F8002802D0012000E00020CF
:1052200070BDC0460000E0C10000C0FFFFFFDF41CD
:1052300070B504000D00FFF7DFFF002804D0200048
:1052400029001AF0A1F870BD0020FCE770470000AB
:1052500010B5041CCF2109061AF082FD00280AD0DF
:105260000748FFF7F3FF011C201C1AF071FD00280E
:1052700003D0012000E0002010BD0020FCE7C04664
:10528000FFFFFF4E10B5041CFFF7E2FF002803D01C
:10529000201C1AF099FD10BD0020FCE710B584B069
:1052A0000379DB0628D504880C313E4B9C4221D083
:1052B000E2097F2323408C8CA2420FD2096AD200DC
:1052C0008A1851888B420FD25268DB00D2180379BA
:1052D0001E2B64D89B003449CB589F46334B344A2D
:1052E0007121344818F07AFB334B344A4B2134484F
:1052F00018F074FB0022EAE70022E8E700784FE0AC
:105300000068FFF751FF4BE00068FFF757FF47E0E9
:1053100010685168FFF75CFF42E010685168FFF7C2
:1053200061FF3DE0010000291ED06846FBF7AEFD9D
:105330006B461B78032B2DD01FD8012B26D0022BB8
:1053400019D102980399FFF74DFF29E00168EAE7B8
:1053500001680831E7E70068FFF794FF20E0106874
:105360005168FFF765FF1BE01831164B164AFF31F5
:10537000164818F033FB002012E0042B04D10298E9
:105380000399FFF755FF0BE0002009E00298FFF7B3
:1053900079FF05E002980399FFF71AFF00E000206B
:1053A00004B010BDFFFF0000E4280310300003101C
:1053B00044000310B0FD0210300103103C01031043
:1053C00024020310601003105C280310480B031024
:1053D000F0B59BB0039104920593209D0379202B97
:1053E0002FD10BAA03AB52CB52C200285AD01300C4
:1053F0000BAA1900D0CAD0C10A0052CB52C2119BCD
:10540000002B20D001882A000C32844B994257D0BF
:10541000C8097F230B40948CA04245D2126AC00079
:1054200012185088834245D25268DB00D318099382
:1054300009AA9180002B45D0DA8809ABDA800124D3
:1054400088E00020CDE7079307AB012252429A8003
:105450000798002826D007AB9A88704B9A4200D153
:10546000C7E007ABD9880C356C4B994200D1D2E02C
:10547000C8097F230B40AA8C904200D3BFE02A6A60
:10548000C00012185088834200D3BEE05268DB008F
:10549000D318079307AA9180002B02D0DA8807ABB4
:1054A000DA8007981BB0F0BD5D4B5E4A71215E4803
:1054B00018F094FA5D4B5E4A4B215E4818F08EFA64
:1054C0000023B4E7554AB8E75B4B5C4A27215C48A8
:1054D00018F084FA002E52D0300027F023FF17ABCB
:1054E0001796189000221A7217A914A8FBF7A5FEA8
:1054F00015AB6A4603CB03C2149B11981299139AF9
:10550000FBF74AFB002854D101235C40E4B209AB0D
:105510009A88424B9A4251D009ABD9882A000C3262
:105520003E4B99425CD0C8097F230B40968CB04219
:105530004AD2126AC0001218508883424AD2526876
:10554000DB00D318099309AA9180002B02D0DA88D6
:1055500009ABDA80099B002B44D0002CD4D01E1E4E
:10556000B2D01B79042B0CD0052B18D0022BB1D054
:1055700017AB00221792189201321A72B4E700207A
:10558000ADE73668002E08D0300027F0CBFE17AB11
:105590001796189001221A72A6E70020F7E73368E1
:1055A00019000831DA8817AB1791189200221A7285
:1055B0009AE707AA09AB03CB03C249E7214B224A6A
:1055C0001521224818F00AFA154B164A712116487F
:1055D00018F004FA154B164A4B21164818F0FEF93C
:1055E0000023AFE70023079307AB012252429A80C2
:1055F0002EE7144B144A1521144818F0EFF9084B04
:10560000084A7121084818F0E9F9084B084A4B216B
:10561000084818F0E3F900233BE7C046FFFF00000D
:105620003000031044000310B0FD021030010310DD
:105630003C010310240203108C0E0310A00E031073
:105640000C0F0310700F0310880F0310FC0F0310D2
:1056500070B590B017F030FB00295EDB734A002371
:1056600019F0D4FB1000190019F0CAFE0022704B8B
:1056700019F0DBFD02000B006E481AF037FF6E4890
:105680001AF004FF0BAC6D492000FFF766FD02AB7A
:105690001A0023CC23C26A4A059206AA190031C90E
:1056A00031C205990800383006AA70CA70C30B00D1
:1056B000383305D000910299039A049BFFF788FEC6
:1056C000059909AB09900A9102AA11CB11C2029B5C
:1056D000002B4CD01A79D20633D51C880C31594A8C
:1056E00094422CD0E0097F2222408C8CA0421AD216
:1056F000096AC0000918488882421AD24968D20053
:1057000089181A791A2A2DD01FD80A2A26D00C2ACD
:1057100019D11868FFF730FD2AE04B4B4B4A3F2167
:105720004B4818F05BF94B4B4B4A71214B4818F032
:1057300055F94B4B4B4A4B214B4818F04FF9002180
:10574000DFE70021DDE7002012E01C2A04D1086811
:105750004968FFF71EFD0BE0002009E01868FFF71D
:1057600008FD05E008684968FFF708FD00E0002033
:10577000002838D19620C50F2D186D10ADB23B4CC6
:105780000021200014F0CCFD09220821200014F093
:1057900081FE374B1978200014F044F808212000CE
:1057A00014F04EF93349200014F060F91421200060
:1057B00014F0D2F93049200014F0F6FC0521200045
:1057C00014F010FA0921200014F05EFD01212000E0
:1057D00014F030F82900200015F012FA200014F01F
:1057E00050FA10B070BD05990C00383402AA06AB0F
:1057F00061CB61C20B00383307D000910299039A44
:10580000049B2000FFF7E4FD0400059D0E940F9516
:1058100008220EA902A81AF095FC002C04D0290039
:105820002000FFF73BFDA6E70020A4E740420F0061
:1058300000408F40BCFE0210602903107429031041
:10584000A0230020FFFF000068FC021084FC02106F
:10585000BCFC02103000031044000310B0FD021025
:10586000300103103C010310240203103C240020EB
:105870002A91022000C0644420A1070010B5CAB0DC
:1058800004AB03221A73013A5A73F8E025226A44E2
:105890001278844909788A4201D0FF2A75D10A9B7F
:1058A000089326236B4419780A9802F07FFF7E4BF9
:1058B000186800211AF03EFA002807D07B4813F040
:1058C000B3FF1AF05FFA784B186021E0774813F0C5
:1058D000ABFF1AF057FA00211AF0FBF9724C21685D
:1058E0001AF0DCF9206013E025226A4412786D4931
:1058F00009788A4201D0FF2A49D10E220AA904A8B8
:105900001AF020FC04980599069A079B01F0B4FF51
:1059100017F0D2F9002953DB654A002319F076FA13
:105920001000190019F06CFD0022624B19F07DFC8B
:1059300002000B0060481AF0D9FD5C4813F074FFB8
:1059400001005E481AF0D2FD584814F0BFF9002853
:105950003CD0FF2200210AA81AF0EEFB00232522EA
:105960006A44137026226A44137027246C44FF3360
:105970002370DA3B6B440093130022000AA94B48C2
:1059800014F0C2F92378042B80D00E2BACD0022B5C
:10599000BED123336B441B78424A1278934201D024
:1059A000FF2BB5D103AB0AA9098819801B789A424D
:1059B000AED126236B441978039801F091FEA7E736
:1059C0003F4B404A3F21404818F008F8374815F04F
:1059D0000DF907240440631FDBB2012B08D9032C07
:1059E00006D0072C04D0394A13780133137002E033
:1059F000364B00221A70354B1B780A2B35D917F01D
:105A00005BF9002941DB2A4A002319F0FFF9100055
:105A1000190019F0F5FC0022264B19F006FC0200D3
:105A20000B0025481AF062FD210029481AF05EFD9E
:105A30001E4814F043FAFFF70BFE17F03DF900295A
:105A400029DB1B4A002319F0E1F91000190019F0B5
:105A5000D7FC0022174B19F0E8FB02000B00164898
:105A60001AF044FD1B481AF011FD0122FA239B0095
:105A70000093002352420021002020F0C9FA164B67
:105A80001B78002B00D15FE7EFE70D4B0D4A3F215C
:105A90000D4817F0A3FF0A4B0A4A3F210A4817F0A6
:105AA0009DFFC0462A9102205C2800203C24002053
:105AB00040420F0000408F40BCFE0210983B031094
:105AC00068FC021084FC0210BCFC02102891022029
:105AD00080290310982903102B910220F0B5B9B04A
