:020000041000EA
:1000000000B5324B212058609868022188439860DF
:10001000D860186158612E4B002199600221596106
:100020000121F02299502B49196001219960352056
:1000300000F044F80222904214D00621196600F024
:1000400034F8196E01211966002018661A6600F04E
:100050002CF8196E196E196E052000F02FF8012189
:100060000842F9D1002199601B49196000215960AB
:100070001A491B48016001219960EB211966A021F2
:10008000196600F012F800219960164914480160C1
:100090000121996001BC002800D000471248134993
:1000A000086003C880F30888084703B5996A0420EC
:1000B0000142FBD001200142F8D103BD02B5186610
:1000C0001866FFF7F2FF186E186E02BD00000240BE
:1000D000000000180000070000035F00212200005C
:1000E000F4000018222000A00001001008ED00E03C
:1000F00000000000000000000000000074B24E7A12
:1001000000200420F7010010C3010010C5010010F9
:10011000C1010010C1010010C1010010C101001097
:10012000C1010010C1010010C1010010C701001081
:10013000C1010010C1010010C9010010CB01001065
:10014000CD010010CD010010CD010010CD01001037
:10015000CD010010CD010010CD010010CD01001027
:10016000CD010010CD010010CD010010CD01001017
:10017000CD010010CD010010CD010010CD01001007
:10018000CD010010CD010010CD010010CD010010F7
:10019000CD010010CD010010CD010010CD010010E7
:1001A000CD010010CD010010CD010010CD010010D7
:1001B000CD010010CD010010CD010010CD010010C7
:1001C00000BE00BE00BE00BE00BE00BEEFF3058054
:1001D000103800BEF2EB887150AA011084AA0110F9
:1001E0003402001090A31AE700201F49086006C8D7
:1001F00081F3088810471D48006800282FD10DA4FE
:100200000ECC002902D000F012F8F9E71849194A7B
:10021000002000E001C19142FCD1174988471749ED
:1002200088471749884700BEFDE701C901C29A42C5
:10023000FBD3704784AA0110C0000020301C0020AE
:10024000F4C501100000042000000420F4C50110D2
:10025000001004200010042000000000704709482E
:100260000BF0E0FE0047000008ED00E0000000D0C9
:10027000301C0020DC30002089AD0010355100100A
:1002800045AD00105756000006005250ABB3605306
:10029000008D011006005250861C0302108D0110C3
:1002A000060052505422A29D1C8D01100500525090
:1002B000DE65F468F4C50110F8B5C04610B5064C0B
:1002C0002378002B07D1054B002B02D0044800E017
:1002D00000BF0123237010BD781E00200000000025
:1002E000B85D0110044B10B5002B03D0034904483E
:1002F00000E000BF10BDC046000000007C1E0020D2
:10030000B85D011070B504000D000F2804D029005D
:10031000200008F09BFB70BD014807F0CDFEF6E71A
:10032000582A002010B582B0012801D002B010BDBB
:10033000114B9942FAD10721104B06E000221A71A5
:100340005A719A71DA71103301390029F6DA0C4CBE
:10035000202221000B4806F01FFC0B4B012221003C
:100360000A4806F014FD002300930F3311220849B8
:10037000084806F085FFD9E7FFFF0000E01D0020D8
:10038000A8130020042A0020008065422C2A0020A7
:1003900000C00340582A002010B5040009F058FEA0
:1003A000002903DB20606160200010BD024B034A7E
:1003B0003F2103480AF0CAFCB85D0110D45D01106A
:1003C0000C5E011010B50C1E08D0086803685B684D
:1003D0009847022805D120230022E2540020002162
:1003E00010BD09F035FE00291CDB114A00230BF07B
:1003F000ABFE100019000CF099F900220D4B0CF027
:10040000B2F802000B000C480DF0AAF80B480DF0F2
:1004100077F8206803681B6800219847084B012281
:100420001A70D8E7074B084A3F2108480AF08EFCAB
:1004300040420F0000408F40545E0110605E01108A
:10044000CA300020B85D0110D45D01100C5E0110AF
:1004500010B50B490B480FF029FE0321042008F0CA
:100460008FFA0321052008F08BFA002201210420D5
:1004700008F09EFA00220121052008F099FA10BD2B
:1004800040420F00A813002070B5134C1349200000
:100490000FF0F4FE0121102008F072FA0121122061
:1004A00008F06EFA0121132008F06AFA626802234C
:1004B0001A400B4DC021890129430B602068072198
:1004C0004140CF200840802149010C432060802317
:1004D0009B012B431A6070BD00C00340404B4C0091
:1004E00004C0034010B51400114A1070D17054704C
:1004F00093700423FF210F4807F074FC002809D1F2
:10050000D0231B0640225A6140329A610A4B7F3A3F
:100510001A7010BD084B1B78002BFAD0D0231B0695
:1005200040229A6140325A61034B00221A70F0E770
:10053000A0300020582A0020D630002070B50025B9
:1005400000E0013583001B18DB00344CE3181C79F4
:10055000AC420EDD83001B18DC00304B1B195B190D
:100560005B798B42EDD12D4B1B195B190124DC7299
:10057000E7E70025002600E00135AC4211DD8300ED
:100580001B18D900254B5B185B19DB7A002BF3D1C4
:10059000AB005B19DB002149CB18002199740126BF
:1005A000EAE7002E39D1002311E029001C4D495DF6
:1005B000914214D11D011A49491901254D71990023
:1005C000C918C900154D691800258D740133072B12
:1005D00016DC1D011249491949788142E5D0022AE9
:1005E000F4D11D010E49491989788142EED10C4997
:1005F0004D19ED782D01491909790029E6D0D9E77F
:1006000000218C4209DD83001B18DA00034B9B1884
:100610005B180022DA720131F3E770BD401D002043
:10062000E01D002010B50A4B04221A60094B1B681C
:10063000DB05FBD5074B586880B20CF0A6FC0CF02C
:10064000D3FC054A054B0BF0ACFF0CF07BF810BD5A
:1006500000E0044000C00440BF102B4AE323833F66
:10066000704701604260704770470000F0B5DE4699
:1006700057464E464546E0B587B081468B46011E3B
:1006800009D001782B290CD02D2910D12C398C467A
:10069000E1448A460DE0BD4BBD4A1A31BD480AF01F
:1006A00055FB01218C46E14400218A4601E00021EE
:1006B0008A464946087801003039C9B2092905D966
:1006C0002E2800D058E10024002501E00024002558
:1006D0004E463678B046303EF6B2B446092E22D8A1
:1006E000AD4EB5421FD81BD0A60FAB003343A200BE
:1006F000A4185D4126002F00B6197F4134003D004B
:100700000094019560460021C643B4467E1C16D075
:10071000009C019D24184D410126B446E144D7E7D1
:100720009E4EB442E0D9404600282ED15346002BBD
:100730001CD080231B069D4204D9002626E0644578
:10074000E6D9F0E79D4201D1002CF6D100236242A8
:10075000AB415946097A7F208143584601720A20ED
:100760000143584601720260436007E15B461B7A11
:100770007F2293435A461372082213435A46137238
:100780001460556001239A46F8E0002680235B033D
:100790009D420AD30A220023200029000BF0D4FC3A
:1007A00004000D00013636B2F0E749460A7813001E
:1007B000303BDBB2092B03D8013636B20131F5E705
:1007C00089462E2A0FD04B461B78652B35D0452BFA
:1007D00033D00023F6184B461F78002F00D18FE04E
:1007E00000239A46CAE001239C46E144B4464A46A7
:1007F00013E0A70FA9003943A00024184D41241984
:100800006D41029300230393029E039FA4197D412F
:100810006646013E33B29C4601321378303BDBB270
:10082000092B07D85E4FBD42F6D8E2D15D4FBC42DE
:10083000F2D8DEE766469146C5E74B46581C5B7822
:100840002D2B04D02B2B05D0002700232AE00130CC
:100850000127FAE7484602300027F6E7002000218A
:1008600038E05346002B17D000204F49FFF7FCFE1D
:1008700080231B069C4661445B461B7A7F22934380
:100880005A4613720C2213435A46137202000B008D
:1008900059460A604B6029E000204349FFF7E4FE17
:1008A000EAE70130027811003039C9B2092920D8AD
:1008B0009900CB185B00303A9B18F1189A2252002D
:1008C0009142EEDD002FCCD05346002BC6D0002045
:1008D000802109065B461B7A7F2293435A46137296
:1008E0000C2213435A4613721060516001239A463A
:1008F00044E0002F02D05B4281466BE7814669E706
:10090000200029000BF012FF04000091002E04DDEE
:10091000264D002E06DC764204E0254DF9E77610E0
:100920000137FFB2002E0CD0F307F8D5FB00EB180F
:100930001A685B68200000990BF033FE04000091F8
:10094000EDE75346002B05D0009B8022120694460B
:10095000634400935B461B7A7F2293435A4613728B
:100960000C2213435A4613722200009B59460A6018
:100970004B6001239A4601E000239A46504607B097
:10098000F0BCBB46B246A946A046F0BD705E011061
:10099000785E0110E05E01109999991999999999D9
:1009A00099990100989999990000F07F207B011096
:1009B000D87A01107047000010B5FFF7FBFF006800
:1009C000002800D010BD0148FCE7C046B06501100A
:1009D0000160704782B0F0B583B00993002912D04E
:1009E0006B4609AC1D00C0CCC0C5040060CB60C420
:1009F00000230372C26043748374416103B0F0BC8E
:100A000008BC02B01847034B034A143103480AF0EC
:100A10009DF9C046405F01104C5F011090600110CD
:100A200010B584B0027A7F231340043BDAB2082A5F
:100A300024D89300134AD3589F4600780BF01EFE2B
:100A40001EE0416800680BF071FE19E04168006823
:100A50000BF060FE14E000686C4600232372210056
:100A6000FFF704FE002C03D02000FFF7D9FF07E0BA
:100A70000020002104E04168006801E0002000211E
:100A800004B010BDF86001100123002904D104D185
:100A900080221206904200D30023D8B270474B1C2C
:100AA0000EDB4B1C03D180231B06984208D3002980
:100AB00008DC03D180231B06984203D2012000E00A
:100AC000002070470020FCE710B50400FFF7DCFFB2
:100AD000002801D0200010BD0020FCE710B5040064
:100AE000FFF7DDFF002801D0200010BD0020FCE74B
:100AF000F0B5CE46474680B583B000900191150011
:100B000000280CD0002A10D0019B9846100014F049
:100B1000CDFF814680450ED24746002426E0254B76
:100B2000254A162125480AF011F9254B224A17219A
:100B300022480AF00BF90700EFE7224B224A732103
:100B400022480AF003F9224B1F4A74211F480AF079
:100B5000FDF81C4B1F4A23211C480AF0F7F81C4BD8
:100B60001C4A242119480AF0F1F80134BC4216D27B
:100B7000009B002BE1D0019A9442E4D81E5D002D29
:100B8000E7D0280014F092FF8442E8D8285DB042F4
:100B9000EBD0301A03B0C0BCB946B046F0BDC84572
:100BA00002D304D80020F5E701204042F2E70120FB
:100BB000F0E7C0461C6101102C61011004630110B4
:100BC000686301107863011084630110D063011021
:100BD000386401104464011000B583B000910192A3
:100BE000020008000199FFF783FF404203B000BDF7
:100BF00070B582B0031E08682AD0197A7F220A4095
:100C0000402A1BD8920017498A5897461D685E688B
:100C1000FFF726FD0400320029006846FFF721FD9A
:100C20000099019A2000FFF7D7FF002804DB01DCC0
:100C3000012012E0042010E002200EE0FFF710FD7A
:100C4000002801D0002008E0013006E0002004E088
:100C5000FFF706FD002802D0002002B070BD013071
:100C6000FBE7C0469C640110F0B5C64600B584B0F1
:100C7000020002AB00211980039104000C34437C74
:100C8000002B03D0157C0023537434E0A379002B90
:100C90000BD1C368591CC1601B78002B0BDD002BE6
:100CA0000CDB237101236371ECE7914B914A2531F1
:100CB00091480AF04BF80121A171F0E70023F0E719
:100CC0008B4B8C4A25218C480AF040F80121A171F8
:100CD0001DE0237101236371137C002151749D4237
:100CE00000D1FCE0002B00D1FBE05C2B13D011689D
:100CF000481C10600B70537C002BEDD1A379002BA6
:100D0000DED12368591C21601B78002BDEDD002B0F
:100D1000DFDA0023DDE7A3799846002B1AD1236898
:100D2000591C21601B78002B1ADD002B1BDB237163
:100D300001236371107C002800D1D4E0752814D001
:100D40006E490B78002B00D1C4E0984200D1C0E07E
:100D50000231F6E7664B674A2531674809F0F6FF2E
:100D60000121A171E1E70023E1E700235374002191
:100D7000002024E09F79002F0BD1D7687E1CD6601D
:100D80003F78002F0BDD002F0CDB1F7101275F71F7
:100D90001CE0574B574A2521574809F0D7FF012639
:100DA0009E71F0E70027F0E7303BDBB20F2B20D835
:100DB0000901194389B2002353740130C0B20328DA
:100DC0000ED813000C33577C002FD3D0137C002B8C
:100DD0000DD0402BE8D92027BB43373BDBB2E5E7FA
:100DE0000020002807D004B080BCB846F0BD022027
:100DF000F7E70320F5E7A0239B01CB189BB28020E7
:100E0000C000834216D390239B01CB189BB2802055
:100E1000C000834213D30391012398464346002B1D
:100E200000D168E7039B7F2B17D81168481C10601E
:100E30000B7060E78905890D02AB1980EEE702A807
:100E400003889B028905890D0B43802149028C464A
:100E50006344039301239846E0E70021684601704C
:100E60003F20184080390143684641709B0999B280
:100E70001F290FD8402149420B4383706B4603332F
:100E8000013B1978002900D135E71068461C16602F
:100E90000170F5E73F20184080235B42034368461A
:100EA000837088090F2806D820235B4218436B46BD
:100EB000D87001ABE4E73F231840BF3B03436846CB
:100EC000C370090B10235B4219436B460171053354
:100ED000D6E74B78002B08D00021517407E700209B
:100EE00081E702207FE702207DE703207BE7C04601
:100EF000B4650110BC6501103C660110A0650110CD
:100F00000123002902D102D1FF2800D90023D8B241
:100F1000704710B50400FFF7F3FF002801D0E0B2DE
:100F200010BD0020FCE700290ADB0123002902DDB7
:100F30000023D8B270470029FBD1FF28F9D9F7E781
:100F40000020F7E710B50400FFF7EDFF002801D0FF
:100F5000E0B210BD0020FCE770B504000D000022D7
:100F600000230BF06FFB002809D00022064B200065
:100F700029000BF05FFB002803D0012000E00020D7
:100F800070BD0020FCE7C04600E06F4070B5040073
:100F90000D00FFF7E1FF002805D0200029000BF02D
:100FA000ADFBC0B270BD0020FCE7000010B588B0FA
:100FB000027A7F231340043BDAB2082A46D8930012
:100FC000244AD3589F46007841E041680068FFF703
:100FD000A0FF3CE041680068FFF7B4FF37E000681D
:100FE00000236A4613726946FFF740FB6B461A7A84
:100FF0007F231340043BDAB2082A20D89300164A14
:10100000D3589F466B46187821E000980199FFF766
:1010100080FF1CE000980199FFF794FF17E004ACF3
:101020000023237221000098FFF720FB2000FFF728
:10103000BDFF0CE000980199FFF7A8FF07E0002032
:1010400005E041680068FFF7A1FF00E0002008B05C
:1010500010BDC04694660110B866011010B58CB082
:10106000002876D0027A7F231340043BDAB2082AA4
:101070006DD89300384AD3589F4600786AE041689B
:101080000068FFF746FF65E041680068FFF75AFF18
:1010900060E0006800236A4613726946FFF7E6FACB
:1010A0006B461A7A7F231340043BDAB2082A47D8EA
:1010B00093002A4AD3589F466B4618784AE0009816
:1010C0000199FFF726FF45E000980199FFF73AFFE5
:1010D00040E000236A46137604A90098FFF7C6FA99
:1010E0006B461A7E7F231340043BDAB2082A20D8CD
:1010F00093001B4AD3589F4604AB18782AE0049803
:101100000599FFF706FF25E004980599FFF71AFFF8
:1011100020E008AC0023237221000498FFF7A6FA10
:101120002000FFF743FF15E004980599FFF72EFF15
:1011300010E000200EE000980199FFF727FF09E07A
:10114000002007E041680068FFF720FF02E0002070
:1011500000E000200CB010BDDC660110006701103B
:101160002467011070B504000D000022094B0BF03C
:1011700069FA002809D0084A084B200029000BF022
:1011800059FA002803D0012000E0002070BD0020A3
:10119000FCE7C0460000E0C10000C0FFFFFFDF41E8
:1011A00070B504000D00FFF7DDFF002804D020001B
:1011B00029000BF07FFA70BD0020FCE710B588B065
:1011C000027A7F231340043BDAB2082A46D8930000
:1011D000244AD3589F46007841E041680068FFF7F1
:1011E00073FC3CE041680068FFF778FC37E000687A
:1011F00000236A4613726946FFF738FA6B461A7A7B
:101200007F231340043BDAB2082A20D89300164A01
:10121000D3589F466B46187821E000980199FFF754
:1012200053FC1CE000980199FFF758FC17E004AC50
:101230000023237221000098FFF718FA2000FFF71F
:10124000BDFF0CE000980199FFF7AAFF07E000201E
:1012500005E041680068FFF7A3FF00E0002008B048
:1012600010BDC046486701106C670110F0B5C64656
:1012700000B505000E0000280BD000290FD014F097
:1012800015FC8046300014F011FC40453CD1002490
:1012900024E0204B204A3121204809F057FD204B03
:1012A0001D4A32211D4809F051FD1E4B1E4A2321C3
:1012B0001E4809F04BFD1E4B1B4A24211B4809F018
:1012C00045FD184B184A2321184809F03FFD184BDB
:1012D000154A2421154809F039FD0134444517D237
:1012E000002DE2D0280014F0E1FB8442E3D82F5D0A
:1012F000002EE6D0300014F0D9FB8442E7D8335DED
:10130000BB42EAD0002000E0002080BCB846F0BD1F
:101310000120FAE71C6101109067011004630110BD
:10132000686301107863011044640110D0630110F8
:1013300038640110F0B5DE4657464646C0B58CB05D
:10134000040088466A46D371DBB2002B00D18DE3DE
:1013500003000C33427C002A24D0237C7B2B3BD11E
:101360000023637423000C33627C002A3AD0237C70
:10137000002B51D0202B09D8092B07D3093BDBB216
:1013800001229A401300B34A13424CD10123237225
:101390000026002E4AD030000CB0E0BCBB46B2465E
:1013A000A846F0BD9A79002A0BD1C268511CC160D1
:1013B0001278002A0BDD002A0CDB1A7101225A7107
:1013C000CBE7A54BA54A2521A54809F0BFFC012183
:1013D0009971F0E70022F0E7A24BA34AF421A34859
:1013E00009F0B4FC9A79002A0BD1E268511CE16043
:1013F0001278002A0BDD002A0CDB1A7101225A71C7
:10140000B5E7954B954A2521954809F09FFC0121A8
:101410009971F0E70022F0E7237A002B01D1012631
:10142000B7E70226B5E7002363749BE723000C337C
:10143000627C002A07D0237C7D2B1ED1002363749D
:10144000013300931BE09A79002A0BD1E268511C0A
:10145000E1601278002A0BDD002A0CDB1A710122F0
:101460005A71E8E77C4B7D4A25217D4809F06EFCE6
:1014700001219971F0E70022F0E700230093009B1F
:10148000002B00D151E286E79A79002A0BD1E2685D
:10149000511CE1601278002A0BDD002A0CDB1A7166
:1014A00001225A7149E26C4B6C4A25216C4809F0C3
:1014B0004DFC01219971F0E70022F0E78379002BC0
:1014C0000BD1E3685A1CE2601B78002B0BDD002B6C
:1014D0000CDB0371012343713CE25F4B5F4A252122
:1014E0005F4809F033FC01228271F0E70023F0E746
:1014F000E5215F4B5F4A49005C4809F027FC012168
:1015000002E0012100E00099002924D1032041E0FC
:101510000121F9E78379002B0BD103685A1C026083
:101520001B78002B0BDD002B0CDB037101234371B7
:101530001AE0494B494A2521494809F007FC012294
:101540008271F0E70023F0E70A0002E00A0000E001
:10155000009A002A19D0002262742268551C256066
:101560001370637C002BD5D0237C2F2B01D9392B12
:10157000EAD95E2B01D97A2BE8D9402BE8D95A2B2E
:1015800001D9009AE5E70A00E3E7300002E0200015
:10159000FFF76AFB002800D056E222000C32637C81
:1015A000002B36D0237C002B4DD0202B09D8092BC3
:1015B00007D3093BDBB201229A401300254A1342AC
:1015C0005AD101232372002800D03FE223000C33BC
:1015D000627C002A53D0237C3A2B6AD100236374A7
:1015E00001339A465346002B00D131E20023226892
:1015F0001370606823681B1A03AA039004930123E5
:101600001372FFF72DF88346051E67D043461D6809
:1016100054E09379002B0BD1E368591CE1601B78EF
:10162000002B0BDD002B0CDB137101235371B9E789
:10163000094B0A4A25210A4809F088FB01219171CA
:10164000F0E70023F0E7237A002B01D10120BAE76D
:101650000220B8E713008000B4650110BC650110DA
:101660003C6601107069011084690110346B01102F
:1016700024820110946B0110002363748DE79A7922
:10168000002A0BD1E268511CE1601278002A0BDDC0
:10169000002A0CDB1A7101225A719CE7C44BC54A1F
:1016A0002521C54809F052FB01219971F0E700227C
:1016B000F0E7009B9A4695E71B01ED18002D0DD031
:1016C000E868FEF7CDFF01005846FFF7CFFD002880
:1016D00004D10A22AB5E002BEED10025002D39D0BB
:1016E000291E37D06B46DB79002B00D1ABE0013BE4
:1016F000DBB20022200000F0C1F9002800D0ABE1ED
:1017000022000C32637C002B00D1A2E0237C002B52
:1017100000D1B8E0202B0AD8092B08D3093BDBB253
:1017200001229A401300A54A134200D0B2E00123DF
:101730002372002800D091E123000C33627C002A40
:1017400000D1AAE0237C7D2B00D0C0E0002363748D
:101750005146BDE000232268137061682268501A68
:1017600009AB09910A90012119720132226003AA82
:1017700003CB03C21B78137063695A6810329D68EB
:10178000AA4213D8103D9D60002D11D042465268E8
:10179000002A2FD019688A4202D3DB689A4209D303
:1017A000874B884A1421884809F0D0FA01221A741C
:1017B000002527E0002D0BD0AB1A19118348834276
:1017C0000CDB834883420FDC518143465D6014E0AB
:1017D000804B814A4721814809F0B8FA804B7E4A04
:1017E00048217E4809F0B2FA7E4B7B4A4A217B4869
:1017F00009F0ACFA43461D605D6000236B81002256
:101800002A72EB60002D00D124E106AA03AB83CB42
:1018100083C2069B002B0BD006AA127A012A0DD098
:10182000297A802252420A432A72EB60290059E742
:101830006D4B6E4A5021694809F088FA297A7E3248
:101840000A402A72F1E76A4B6A4A13216A4809F092
:101850007DFA9379002B0BD1E368591CE1601B786A
:10186000002B0BDD002B0CDB1371012353714DE7B3
:101870004F4B504A2521504809F068FA01219171D7
:10188000F0E70023F0E7237A002B01D1012050E795
:1018900002204EE70023637432E79A79002A0BD1C5
:1018A000E268511CE1601278002A0BDD002A0CDB93
:1018B0001A7101225A7145E73D4B3E4A25213E48A7
:1018C00009F044FA01219971F0E70022F0E700994C
:1018D000002900D0C4E023000C33627C002A4FD0E2
:1018E000237C2C2B02D1002363745146002900D1A4
:1018F000B8E022000C32637C002B00D180E0237C16
:10190000002B00D196E0202B0AD8092B08D3093BE5
:10191000DBB201229A401300284A134200D090E023
:1019200001232372002800D09EE023686360230017
:101930000C33627C002A00D1A6E5237C272B00D142
:1019400025E6222B00D122E620000C30637C002B00
:1019500000D1B3E5237C002B00D1C9E52F2B02D9A0
:10196000392B00D8CBE55E2B02D97A2B00D8C8E5FD
:10197000402B00D8C7E55A2B00D8C9E50099C3E52C
:101980009A79002A0BD1E268551CE5601278002A8A
:101990000BDD002A32DB1A7101225A71A0E7044BD9
:1019A000044A2531044809F0D1F901259D71F0E779
:1019B000B4650110BC6501103C6601101300800085
:1019C000A46C0110B86C0110446D01100000F8FF08
:1019D000F0FF0700A86D0110B46D0110206E01101A
:1019E000806E0110BC6E0110F86E0110FC6E0110CB
:1019F000586F0110646F0110EC6F01100022CAE7EC
:101A00009379002B0BD1E368591CE1601B78002B04
:101A10000BDD002B0CDB1371012353716FE7144BAB
:101A2000144A2521144809F091F901219171F0E738
:101A30000023F0E7237A002B01D1012072E7022076
:101A400070E70023637454E70600A4E40600A2E4F0
:101A50000326A0E404269EE406009CE406009AE423
:101A6000060098E4032696E4060094E4052692E432
:101A7000B4650110BC6501103C66011070B586B0FC
:101A800004000E0022000C32617C002928D0227C48
:101A9000002A3FD0202A09D8092A07D3093AD2B20E
:101AA000012191400A00BA490A423AD10122227228
:101AB0000025002D00D08EE022000C32617C002930
:101AC00032D0227C7B2A00D94AE15B2A46D35B3A9A
:101AD000D1B2202900D943E18A00AE498A589746FD
:101AE000917900290BD1E168481CE0600978002950
:101AF0000BDD00290CDB117101215171C7E7A64BE9
:101B0000A64A2521A64809F021F901209071F0E7A5
:101B10000021F0E7227A002A01D10125C9E7022538
:101B2000C7E700226274ADE7917900290BD1E16823
:101B3000481CE060097800290BDD00290CDB1171DD
:101B400001215171BDE7944B944A2521944809F035
:101B5000FDF801209071F0E70021F0E7222A02D081
:101B6000272A00D0FCE0236863602000FFF77CF8A0
:101B7000051E30D100232268137061682268501A54
:101B800003AB0391049001211972013222606A466D
:101B900013CB13C2009A002A30D06B461B7A012B5C
:101BA00032D0337A7F218B43337205210B4333725A
:101BB0003260019B73600EE0327A7F218A43327279
:101BC00040210A43327200223260726031002000EC
:101BD00000F09EF90500280006B070BD327A7F2122
:101BE0008A43327220210A433272002232607260CC
:101BF00031002000FFF79EFB0500ECE7694B6A4AC5
:101C0000CC216A4809F0A2F8337A7F218B433372E2
:101C100004210B433372CBE7337A7F229343337231
:101C200006221343337201233370614B14E05A4B85
:101C30005A4A25215A4809F089F8012090711CE080
:101C4000117101215171227C002A1AD019788A421F
:101C500019D10133002262741D78002DBBD02200FF
:101C60000C32617C0029EED191790029DFD1E16845
:101C7000481CE06009780029DFDD0029E0DA002156
:101C8000DEE70225A7E70325A5E7337A7F22934302
:101C9000337206221343337200233370454B14E032
:101CA0003D4B3E4A25213E4809F050F801209071F5
:101CB0001DE0117101215171227C002A1BD019787D
:101CC0008A421AD10133002262741D78002D00D19E
:101CD00081E722000C32617C0029EDD19179002945
:101CE000DED1E168481CE06009780029DEDD0029CA
:101CF000DFDA0021DDE702256DE703256BE72E4BD8
:101D000014E0254B254A2521254809F01FF801201C
:101D100090711DE0117101215171227C002A1BD0AC
:101D200019788A421AD10133002262741D78002D7D
:101D300000D150E722000C32617C0029EDD191796D
:101D40000029DED1E168481CE06009780029DEDD69
:101D50000029DFDA0021DDE702253CE703253AE729
:101D600021000C31637C002B02D0227C2B004FE041
:101D70008B79002B22D1E3685A1CE2601B78002B80
:101D800022DD002B23DB0B7101234B71EDE7C046F5
:101D90001300800028710110B4650110BC650110AA
:101DA0003C660110488201106C700110C87001106F
:101DB000547001105C700110647001102B4B2C4AA0
:101DC00025212C4808F0C2FF01228A71D9E700239F
:101DD000D9E7012002E0012000E00120002838D0EE
:101DE0003E2B36D800206074581CC0B2E3181A7617
:101DF0008B79002B22D10B685A1C0A601B78002BB0
:101E000022DD002B23DB0B7101234B71227C0300AD
:101E10002F2A01D9392ADED92B2ADED02D2A07D044
:101E20002E2A07D0652A07D0452AD2D00020D5E730
:101E30000120D3E70120D1E70120CFE70B4B0C4A6B
:101E400025210C4808F082FF01228A71D9E700237E
:101E5000D9E7E31800221A76200018303100FEF787
:101E600005FC002800D0B6E60325B4E6B4650110F1
:101E7000BC6501103C660110F0B5C64600B59CB0CB
:101E800004000D000800FEF795FDFEF795FD060025
:101E900018239846A0441BAB0A225A7018AF1B881F
:101EA0003B8023686360E368A360002323741632D9
:101EB000A35C7F218B43A35429680023220019A827
:101EC000FEF786FD1A9B0093199B3200210002A8A1
:101ED000FEF780FD7B780022414602A8FFF7CEFD89
:101EE000002808D102AB1B7C002B04D043461B7A90
:101EF0001B0700D503201CB080BCB846F0BD00B560
:101F000083B0019101A9FFF7B7FF03B000BD000046
:101F1000F0B5C64600B504000E001D1CDBB2002B58
:101F200000D17DE103000C33427C002A1FD0237CCA
:101F30005B2B36D10023637423000C33627C002AB0
:101F400035D0227C002A4CD0202A08D8092A06D372
:101F5000093AD2B201239340B34A134248D1012334
:101F600023720020002846D080BCB846F0BD9A7984
:101F7000002A0BD1C268511CC1601278002A0BDD07
:101F8000002A0CDB1A7101225A71D0E7A74BA84A2C
:101F90002521A84808F0DAFE01219971F0E7002216
:101FA000F0E7A54BA54A9E21A54808F0CFFE9A79F7
:101FB000002A0BD1E268511CE1601278002A0BDD87
:101FC000002A0CDB1A7101225A71BAE7974B984A22
:101FD0002521984808F0BAFE01219971F0E7002206
:101FE000F0E7237A002B01D10120BBE70220B9E7FB
:101FF00000236374A0E723000C33627C002A09D01D
:10200000237C5D2B20D1002363740127002F00D196
:102010008BE0A9E79A79002A0BD1E268511CE160B4
:102020001278002A0BDD002A0CDB1A7101225A718A
:10203000E6E77E4B7E4A25217E4808F087FE012197
:102040009971F0E70022F0E70027DFE701221A7418
:10205000002127E000290CD08B1A181180467948FE
:1020600083420CDB784883420FDC43465381716026
:1020700013E0764B764A4731764808F067FE764B98
:10208000734A4821734808F061FE744B704A4A2134
:10209000704808F05BFE3160716000234B810022C4
:1020A0000A72CB60002900D1BCE0EBB2002B55D006
:1020B000013BDBB200222000FFF7E0FC002800D04B
:1020C00052E723000C33627C002A4DD0237C002B86
:1020D00064D0202B09D8092B07D3093BDBB201229E
:1020E0009A401300504A13425FD101232372002803
:1020F00000D039E723000C33627C002A58D0237CBF
:102100005D2B6FD1002363740133002B00D02BE7CC
:1021100022000C32617C002966D0227C2C2A02D15C
:10212000002363740133002B78D063695A6810323E
:1021300099688A428AD810399960002988D07268D3
:10214000002AA8D01868824202D3DB689A4281D361
:10215000434B444A1421444808F0F8FD434B444A99
:102160001321444808F0F2FD9A79002A0BD1E26865
:10217000511CE1601278002A0BDD002A0CDB1A7179
:1021800001225A71A2E7294B294A2521294808F042
:10219000DDFD01219971F0E70022F0E7237A002BA1
:1021A00001D10120A3E70220A1E70023637488E79F
:1021B0009A79002A0BD1E268511CE1601278002A5A
:1021C0000BDD002A0CDB1A7101225A7197E7174BBD
:1021D000174A2521174808F0B9FD01219971F0E748
:1021E0000022F0E73B0090E7917900290BD1E168EC
:1021F000481CE060097800290BDD00290CDB117117
:102200000121517189E7094B094A2521094808F044
:102210009DFD01209071F0E70021F0E70320A3E687
:102220000520A1E604209FE613008000B46501109C
:10223000BC6501103C660110AC710110C071011049
:10224000346B01100000F8FFF0FF0700A86D0110CB
:10225000B46D0110206E0110806E0110BC6E011073
:10226000A46C0110B86C0110446D0110586F01107E
:10227000646F0110EC6F011070B50D00002820D0C4
:10228000037A9B061BD5041E17D0002912D00468C0
:10229000002C12D0E068FEF7E3F901002800FEF7F9
:1022A000E5FF002809D10A22A35E002B04D01B0100
:1022B000E418EDE70C0000E00024200070BD0024CD
:1022C000FBE70400F9E7000070B588B004000E00D9
:1022D000056818354068FEF7C3F901002800FFF7CC
:1022E000CBFF002816D0027A7F231340082B07D09B
:1022F0000A2B0AD0002000280ED1306808B070BD2B
:1023000041680068FEF7C0FBF5E741680068FEF72A
:10231000C6FBF0E70020EEE7256818356068FEF799
:102320009FF901002800FFF7A7FF00284FD0027A8D
:102330007F231340043BDAB2082A46D89300254A8B
:10234000D3589F460078D9E741680068FEF7BCFB88
:10235000D4E741680068FEF7C1FBCFE700680023BF
:102360006A4613726946FEF781F96B461A7A7F2333
:102370001340043BDAB2082A20D89300164AD358F7
:102380009F466B461878B9E700980199FEF79CFBC9
:10239000B4E700980199FEF7A1FBAFE704AC002376
:1023A000237221000098FEF761F92000FEF706FF76
:1023B000A4E700980199FEF7F3FE9FE700209DE750
:1023C00041680068FEF7ECFE98E7002096E70020E1
:1023D00094E7C046707301109473011070B58CB00F
:1023E00004000E00056818354068FEF739F9010051
:1023F0002800FFF741FF002800D198E0037A1B076F
:1024000000D494E0256818356068FEF729F90100CA
:102410002800FFF731FF002800D185E0027A7F23F2
:102420001340043BDAB2082A00D97AE09300424A0A
:10243000D3589F4600780AF021F97AE04168006895
:102440000AF074F975E0416800680AF063F970E019
:1024500000686C46002323722100FEF707F9002C68
:1024600059D0217A7F230B40043BD9B208294FD899
:102470008B003249CB589F4620780AF0FFF858E08D
:10248000206861680AF052F953E0206861680AF038
:1024900041F94EE0206804AC002323722100FEF7CE
:1024A000E5F8002C2ED0217A7F230B40043BD9B2D3
:1024B000082924D88B002249CB589F4620780AF05F
:1024C000DDF836E0206861680AF030F931E0206814
:1024D00061680AF01FF92CE0206808AC0023237221
:1024E0002100FEF7C3F8002C03D02000FEF798FA75
:1024F0001FE0002000211CE02068616819E0002036
:10250000002116E00020002113E02068616810E03F
:10251000002000210DE0002000210AE04168006851
:1025200007E00020002104E00020002101E03068E5
:1025300071680CB070BDC046B8730110DC73011037
:102540000074011070B588B004000E008568006941
:10255000FEF786F801002800FFF78EFE050060698F
:10256000FEF77EF801002800FFF786FE002816D04F
:10257000027A7F231340082B07D00A2B0AD00020B1
:1025800000280ED1306808B070BD41680068FEF7C1
:102590007BFAF5E741680068FEF781FAF0E7002072
:1025A000EEE7A5682069FEF75BF801002800FFF759
:1025B00063FE05006069FEF753F801002800FFF78D
:1025C0005BFE00284FD0027A7F231340043BDAB22F
:1025D000082A46D89300254AD3589F460078D2E768
:1025E00041680068FEF770FACDE741680068FEF7C1
:1025F00075FAC8E7006800236A4613726946FEF759
:1026000035F86B461A7A7F231340043BDAB2082A66
:1026100020D89300164AD3589F466B461878B2E7E5
:1026200000980199FEF750FAADE700980199FEF77E
:1026300055FAA8E704AC0023237221000098FEF7A6
:1026400015F82000FEF7BAFD9DE700980199FEF706
:10265000A7FD98E7002096E741680068FEF7A0FD17
:1026600091E700208FE700208DE7C0462474011019
:1026700048740110F0B5DE4657464E464546E0B573
:10268000EF4CA54400230593069307930D930E93F7
:102690000F93002012F0A6F8002800D1B1E100202D
:1026A00006F02CF912F0F4F80122E649E6480EABE8
:1026B0009C46604410F056FC041E00D04CE2E34BF4
:1026C000E34AE4490EA884466144E348604411F0BB
:1026D00009F8041E00D04CE20122E0490EAB9C46F2
:1026E0006144DF48604410F06BFC041E02D00828EF
:1026F00000D04BE20023DB4A0EA98C4662441360F3
:10270000A022D84B63449201D7496144D448604425
:1027100010F004FE0290002800D048E207F098FC78
:10272000002900DA56E2D14A002309F00DFD10001D
:10273000190009F0FBFF0022CD4B09F014FF020045
:102740000B00CC480AF00CFFC64B0EAA944663441B
:102750001968C9480AF004FF40AB4AAA4092419266
:10276000C64A0EA98C4662444292C44A62444392CD
:1027700000221A741A0020230021D154BA4961445E
:102780001000FFF7BCFBC3B25A1E9341DAB20492A9
:10279000002B00D024E240ACB94B0EAA944663440F
:1027A0001C60B848B84B63441860FDF759FF01003E
:1027B00046A8FFF761FDFEF751FCB44D2870B44BFD
:1027C0000EAA944663441C60B24BB34A6244136041
:1027D0000A23B24A624413601100AD486044FFF717
:1027E00073FDAF4B1870AF4B0EAA944663441C6048
:1027F000AD4BAE4A624413609623AD4A6244136007
:102800001100A8486044FFF75FFDAA4B1870AA4B5F
:102810000EAA944663441C60A84BA94A6244136004
:102820000F23A84A624413601100A3486044FFF7D5
:102830004BFDA54B1870A54B0EAA944663441C6033
:10284000A34BA44A624413601E23A34A624413604C
:1028500011009E486044FFF737FDA04B1870A04B55
:102860000EAA944663441C609E4B9F4A62441360C8
:1028700000229E4B9E4961440A604B609C49614422
:1028800097486044FFF7AAFD09F05CFF994B186078
:10289000AF23DB010EAA944663441C60964B974A13
:1028A000624413600022964B964961440A604B6073
:1028B00094496144AF20C0016044FFF78FFD09F0E7
:1028C00041FF914B18602B78002B00D19DE18F4B7D
:1028D0000EAA9446634440AA1A608D488D4B634407
:1028E0001860FDF7BDFE010046A8FFF7C5FC8A4948
:1028F0000EAB9C466144086040AB4B60082220A8A8
:102900000AF068FC209B219A002B03D0197A8906D3
:1029100000D483E138933992804B0EAA94466344E5
:1029200040AA1A607E487F4B63441860FDF798FE0A
:10293000010046A8FFF7A0FCBC21C9010EAB9C46D4
:102940006144086040AB4B60082220A80AF042FCBA
:10295000209B219A002B03D0197A890600D45FE1CD
:102960003A933B92704B0EAA9446634440AA1A6075
:102970006E486F4B63441860FDF772FE010046A875
:10298000FFF77AFC6B490EAB9C466144086040AB94
:102990004B60082220A80AF01DFC209B219A002BE6
:1029A00003D0197A890600D43CE13C933D92624BF6
:1029B0000EAA9446634440AA1A606048604B634480
:1029C0001860FDF74DFE010046A8FFF755FC5D4974
:1029D0000EAB9C466144086040AB4B60082220A8C7
:1029E0000AF0F8FB209B219A002B03D0197A890664
:1029F00000D419E13E933F920027FF230C9301F08E
:102A000054FD07F025FB002914DB184A002309F0C8
:102A10009BFB1000190009F089FE0022144B09F0FD
:102A2000A2FD02000B0013480AF09AFD46480AF086
:102A300067FD34E6454B464A3F21464808F086F993
:102A40003C9EFFFF80740110705200009C740110C6
:102A5000B0650110F850000018520000125100003B
:102A6000D8540000F4280000F828000040420F006D
:102A700000408F40545E011000750110F0280000E6
:102A800038570000EC7601103C570000C53000209C
:102A900040570000F47601104457000048570000EA
:102AA000C80F00204C570000FC7601105057000062
:102AB00054570000C90F0020585700000877011034
:102AC0005C57000060570000BD0F002064570000F5
:102AD00010770110685700006C570000CA0F0020E3
:102AE000705700001C77011074570000000026404A
:102AF00078570000C40F0020287701108457000089
:102B00000000284088570000C00F002090570000A8
:102B10004C77011094570000085E000098570000A1
:102B2000547701109C570000A05700005C770110FB
:102B3000A4570000F85D0000A8570000647701105A
:102B4000AC570000F05D00006C740110B85D01101E
:102B5000D45D01100C5E0110D0231B0640225A6187
:102B600040329A6112F008F801002200DF4808F0B4
:102B700087F9D0231B0640225A6140329A6111F036
:102B8000FBFF01002200DA4808F07AF9D0231B0687
:102B900040225A6140329A6111F0EEFF0200230098
:102BA000D4490EA884466144D34808F069F9D0237B
:102BB0001B0640225A6140329A61029C200011F0AB
:102BC000DBFF02002300CB490EA884466144CB48BA
:102BD00008F056F9CA4BCB4A3F21CB4808F0B6F86B
:102BE000D0231B0640225A6140329A61C0B20528A8
:102BF00005D88000C54BC158C54808F041F9C54B00
:102C0000C54A4521C54808F0A1F8D0231B0640223B
:102C10005A6140329A61C24808F032F9002379E6DD
:102C200000239DE60023C0E60023E3E6002401F034
:102C300072FC002000E00020FEF710FA804620AC75
:102C4000F90038AB9C466144082220000AF0C2FA21
:102C5000B44B0EAA9446634406CC06C3B24BB34AA7
:102C600062441360B2496144B24B6344AD4A62446A
:102C700011CA11C3AD4B63441B68CB60AE4D6544B4
:102C8000AE4B6344AB4A624411CA11C3CB682B619B
:102C9000AB4B6B61AB4C6444AB4E66440822A74916
:102CA000614430000AF096FA2B6923616B69636115
:102CB0001BAA0ACE0AC220691D90636903931E9362
:102CC00001231F931B9CFDF7CBFC01002000FFF7A5
:102CD000D3FA04001E9B03931800FDF7C1FC01000A
:102CE0002000FFF7C9FA1F9B002815D0027A520670
:102CF00011D5002810D0006800280DD05A1E002BD6
:102D00000AD00A21435E002B03D01B01C018130018
:102D1000F4E7002000E00020FEF7A0F9824620AE94
:102D2000F90038AB9C466144082230000AF052FAA0
:102D3000864B0EAA94466344320003CA03C37A4BFF
:102D4000834A6244136083496144834B63447F4AEE
:102D5000624411CA11C37E4B63441B68CB607F4D34
:102D600065447F4B63447C4A624411CA11C3CB68FB
:102D70002B61734B6B61BF24E4016444794B634462
:102D80009B4608227649614418000AF023FA2B6911
:102D900023616B69636123AB5A4603CA03C320698D
:102DA00025906369269302232793239CFDF758FC03
:102DB00001002000FFF760FA04002698FDF750FCA0
:102DC00001002000FFF758FA279B002815D0027A4F
:102DD000520611D5002810D0006800280DD05A1EC8
:102DE000002B0AD00A21435E002B03D01B01C01820
:102DF0001300F4E7002000E00020FEF72FF9009018
:102E0000534642460221484605F062FD20ACF900D7
:102E100038AB9C466144082220000AF0DBF9524B93
:102E20000EAA9446634406CC06C3504B504A6244F3
:102E30001360504B63444C4A624403CA03C34C4B77
:102E400063441B6803934C4B6344039A1A604B4DD5
:102E500065444B4B6344474A624403CA03C3464B31
:102E600063441B682B61364B6B61464C6444464E91
:102E7000664408224249614430000AF0ABF92B69EC
:102E800023616B69636113AB06CE06C3206915909D
:102E900063690393169300231793139CFDF7E0FBDC
:102EA00001002000FFF7E8F90400169B03931800C7
:102EB000FDF7D6FB01002000FFF7DEF9179B002885
:102EC00065D0027A520661D5002860D000680028DB
:102ED0005DD05A1E002B5AD00A21435E002B03D02E
:102EE0001B01C0181300F4E7002050E084740110A7
:102EF000AC74011012510000C8740110E474011088
:102F0000B85D0110D45D01100C5E0110980F002017
:102F1000D4760110D87501101C760110647601106A
:102F200038770110FC580000747701100459000034
:102F3000C05F0000C45F0000E0580000E8580000D7
:102F40008C770110A85F0000B05F000024590000DA
:102F50002C590000985F00009C5F00000859000099
:102F600010590000885F00004C5900009077011054
:102F700054590000745F00007C5F0000305900006D
:102F800038590000585F0000605F00000020FEF725
:102F900065F8804620ACF90038AB9C4661440822B5
:102FA00020000AF017F9AB4B0EAA9446634406CCF6
:102FB00006C3A94BA94A62441360A94B6344A54ABE
:102FC000624403CA03C3A54B63441B680393A54B28
:102FD0006344039A1A60A44D6544A44B6344A04A19
:102FE000624403CA03C39F4B63441B682B61A04B1D
:102FF0006B61A04C6444A04E664408229B49614426
:1030000030000AF0E7F82B6923616B6963611BAA42
:103010000ACE0AC220691D90636903931E9301239F
:103020001F931B9CFDF71CFB01002000FFF724F9F8
:1030300004001E9B03931800FDF712FB0100200003
:10304000FFF71AF91F9B002815D0027A520611D5F6
:10305000002810D0006800280DD05A1E002B0AD07E
:103060000A21435E002B03D01B01C0181300F4E7B4
:10307000002000E00020FDF7F1FF824620AEF900BD
:1030800038AB9C466144082230000AF0A3F87B4B21
:103090000EAA94466344320003CA03C36E4B784AB7
:1030A00062441360774B6344744A624403CA03C3A7
:1030B000734B63441B680393734B6344039A1A6016
:1030C000B325ED016544714B63446E4A624403CA03
:1030D00003C36D4B63441B682B61654B6B616C4C88
:1030E00064446C4B63449B46082268496144180061
:1030F0000AF070F82B6923616B69636123AB5A4650
:1031000003CA03C32069259063692693022327938A
:10311000239CFDF7A5FA01002000FFF7ADF804009D
:103120002698FDF79DFA01002000FFF7A5F8279BE0
:10313000002815D0027A520611D5002810D0006858
:1031400000280DD05A1E002B0AD00A21435E002B06
:1031500003D01B01C0181300F4E7002000E000209A
:10316000FDF77CFF0090534642460121484605F09A
:10317000AFFB20ACF90038AB9C466144082220002C
:103180000AF028F8444B0EAA9446634406CC06C3C2
:10319000424B434A62441360424B63443E4A62449A
:1031A00003CA03C33E4B63441B6803933E4B634413
:1031B000039A1A603D4D65443D4B6344394A62446D
:1031C00003CA03C3384B63441B682B61284B6B61F4
:1031D000384C6444384E6644082235496144300016
:1031E00009F0F8FF2B6923616B69636113AB06CEAD
:1031F00006C3206915906369039316930023179300
:10320000139CFDF72DFA01002000FFF735F80400AC
:10321000169B03931800FDF723FA01002000FFF727
:103220002BF8179B00284AD0027A520646D5002870
:1032300045D00068002842D05A1E002B3FD00A21FA
:10324000435E002B03D01B01C0181300F4E70020DD
:1032500035E0C04674590000907701107C59000099
:103260004C5F0000545F0000585900006059000096
:103270008C770110305F0000385F00009C5900001F
:10328000A4590000245F00002C5F00008859000052
:10329000085F0000105F0000C4590000847701102F
:1032A000CC590000FC5E0000045F0000A85900003B
:1032B000B0590000E05E0000E85E00000020FDF76D
:1032C000CDFE804620ACF90038AB9C466144082214
:1032D000200009F07FFFAB4B0EAA9446634406CC56
:1032E00006C3A94BA94A62441360A94B6344A54A8B
:1032F000624403CA03C3A54B63441B680393A54BF5
:103300006344039A1A60A44D6544A44B6344A04AE5
:10331000624403CA03C39F4B63441B682B61A04BE9
:103320006B61A04C6444A04E664408229B496144F2
:10333000300009F04FFF2B6923616B6963611BAAA1
:103340000ACE0AC220691D90636903931E9301236C
:103350001F931B9CFDF784F901002000FEF78CFFF2
:1033600004001E9B03931800FDF77AF9010020006A
:10337000FEF782FF1F9B002815D0027A520611D556
:10338000002810D0006800280DD05A1E002B0AD04B
:103390000A21435E002B03D01B01C0181300F4E781
:1033A000002000E00020FDF759FE824620AEF90023
:1033B00038AB9C4661440822300009F00BFF7B4B80
:1033C0000EAA94466344320003CA03C36E4B784A84
:1033D00062441360774B6344744A624403CA03C374
:1033E000734B63441B680393734B6344039A1A60E3
:1033F000724D6544B423DB0163446E4A624403CAE0
:1034000003C36D4B63441B682B61654B6B616C4C54
:1034100064446C4B63449B460822B421C901614457
:10342000180009F0D7FE2B6923616B69636123AB38
:103430005A4603CA03C32069259063692693022371
:103440002793239CFDF70CF901002000FEF714FFE1
:1034500004002698FDF704F901002000FEF70CFF98
:10346000279B002815D0027A520611D5002810D0CB
:10347000006800280DD05A1E002B0AD00A21435E96
:10348000002B03D01B01C0181300F4E7002000E05C
:103490000020FDF7E3FD00905346424600214846D8
:1034A00005F016FA20ACF90038AB9C4661440822BE
:1034B000200009F08FFE444B0EAA9446634406CCCC
:1034C00006C3424B424A62441360424B63443E4A45
:1034D000624403CA03C33E4B63441B6803933E4BE1
:1034E0006344039A1A603D4D65443D4B6344394A39
:1034F000624403CA03C3384B63441B682B61284BE7
:103500006B61384C6444384E664408223449614447
:10351000300009F05FFE2B6923616B69636113ABB7
:1035200006CE06C3206915906369039316930023A2
:103530001793139CFDF794F801002000FEF79CFE02
:103540000400169B03931800FDF78AF80100200081
:10355000FEF792FE179B002849D0027A520645D505
:10356000002844D00068002841D05A1E002B3ED0CD
:103570000A21435E002B03D01B01C0181300F4E79F
:10358000002034E0EC59000084770110F459000069
:10359000D45E0000DC5E0000D0590000D859000065
:1035A0008C770110B85E0000C05E0000145A000065
:1035B0001C5A0000AC5E0000B45E0000F859000028
:1035C000905E0000985E00003C5A00009877011061
:1035D000445A0000845E00008C5E0000205A000007
:1035E000285A0000685E0000705E00000020FDF7B1
:1035F00035FD804620ACF90038AB9C46614408227A
:10360000200009F0E7FD774B0EAA9446634406CCF0
:1036100006C3754B754A62441360754B6344714A27
:10362000624403CA03C3714B63441B680393714B29
:103630006344039A1A60704D6544704B63446C4A4E
:10364000624403CA03C36B4B63441B682B616C4B1E
:103650006B616C4C64446C4E66440822674961445B
:10366000300009F0B7FD2B6923616B6963611BAA08
:103670000ACE0AC220691D90636903931E93012339
:103680001F931B9CFCF7ECFF01002000FEF7F4FDEC
:1036900004001E9B03931800FCF7E2FF01002000CA
:1036A000FEF7EAFD1F9B002815D0027A520611D5BD
:1036B000002810D0006800280DD05A1E002B0AD018
:1036C0000A21435E002B03D01B01C0181300F4E74E
:1036D000002000E00020FDF7C1FC824620AEF9008A
:1036E00038AB9C4661440822300009F073FD474B1B
:1036F0000EAA94466344320003CA03C33A4B444AB9
:1037000062441360434B6344404A624403CA03C3A8
:103710003F4B63441B6803933F4B6344039A1A6017
:103720003E4D65443E4B63443A4A624403CA03C378
:10373000394B63441B682B61314B6B61394C6444DA
:10374000394B63449B46082235496144180009F00F
:1037500041FD2B6923616B69636123AB5A4603CA40
:1037600003C3206925906369269302232793239C32
:10377000FCF776FF01002000FEF77EFD040026988E
:10378000FCF76EFF01002000FEF776FD279B002866
:1037900015D0027A520611D5002810D000680028F2
:1037A0000DD05A1E002B0AD00A21435E002B03D0F5
:1037B0001B01C0181300F4E7002000E00020FDF713
:1037C0004DFC0090534642460321484605F080F8E0
:1037D000BB00DB19DB00154AD31800221A71002543
:1037E00000F099FD645A0000987701106C5A0000AF
:1037F0005C5E0000645E0000485A0000505A000001
:103800008C770110405E0000485E00008C5A00007A
:10381000945A0000345E00003C5E0000705A0000C4
:10382000785A0000185E0000205E0000401D002055
:1038300020ADF90038AB9C4661440822280009F00D
:10384000C9FCFB4A0EAB9C466244FA4B6344290018
:1038500041C941C3F848D060966853689846FCF760
:10386000FFFE01004046FEF707FDF4490EAB9C4603
:10387000614408604E600822280009F0ABFC209BE0
:10388000219A002B04D0197A890601D400F0BCFCDF
:10389000EB490EA8844661440B60EA4961440A6022
:1038A000002B01D100F0B3FC20AEFB0038AA9146FA
:1038B000994408224946300009F08CFCE24B0EAADC
:1038C00094466344320003CA03C3DB4B9A46DF4B82
:1038D000634452461A60C121C9016144DC4B634410
:1038E000D94A624421CA21C3D84B63441B6803915F
:1038F000CB60D84D6544D84B6344D54A624403CA73
:1039000003C30399C8682861D44B6B61AB689846C0
:10391000FCF7A6FE01004046FEF7AEFC8046686953
:10392000FCF79EFE01004046FEF7A6FCFDF796FB65
:10393000804608224946300009F04CFCC84B0EAACC
:1039400094466344320003CA03C3C64B63445246E1
:103950001A60C5496144C54B6344C14A624421CAE7
:1039600021C3C04B63441B680391CB60C04D6544C9
:10397000C04B6344BD4A624403CA03C30399C86889
:103980002861BD4B6B61AB689B46FCF769FE01008B
:103990005846FEF771FC83466869FCF761FE01003A
:1039A0005846FEF769FCFDF759FB05900822494689
:1039B000300009F00FFCB14B0EAA9446634406CECA
:1039C00006C3AF4B634452461A60AE496144AE4BE6
:1039D0006344AA4A624421CA21C3A94B63441B68B9
:1039E000CB60AA4B6344A84A624421CA21C3CB6876
:1039F0000393A74B6344039A1A60A64BA64A6244FA
:103A00001360FF23A54A624413601100B620C00171
:103A10006044FEF797FDC3B20D9320ADF90038ABBB
:103A20009C4661440822280009F0D4FB9C4A0EAB56
:103A30009C4662449B4B6344290041C941C39A4858
:103A4000D060966853689946FCF70AFE0100484624
:103A5000FEF712FC95490EAB9C46614408604E602F
:103A60000822280009F0B6FB209B219A002B03D0E6
:103A7000197A890600D4CEE38D490EA884466144A4
:103A80000B608C4961440A60002B00D1C5E320AE75
:103A9000FB0038AA9146994408224946300009F0B3
:103AA00099FB854B0EAA94466344320003CA03C3B4
:103AB0007D4B9A46814B634452461A60804961446B
:103AC000804B63447C4A624421CA21C37B4B6344DC
:103AD0001B680391CB607C4D65447C4B6344794A01
:103AE000624403CA03C30399C86828615B4B6B61D6
:103AF000AB689B46FCF7B4FD01005846FEF7BCFBE3
:103B000083466869FCF7ACFD01005846FEF7B4FB3C
:103B1000FDF7A4FA039008224946300009F05AFB49
:103B20006B4B0EAA94466344320003CA03C3694B2D
:103B3000634452461A6068496144684B6344644A6E
:103B4000624421CA21C3634B63441B680691CB6066
:103B5000634D6544634B6344604A624403CA03C3D4
:103B60000699C8682861444B6B61AB689B46FCF7BB
:103B700077FD01005846FEF77FFB83466869FCF736
:103B80006FFD01005846FEF777FBFDF767FA0690D8
:103B900008224946300009F01DFB534B0EAA9446FB
:103BA000634406CE06C3514B634452461A605049E3
:103BB0006144504B63444C4A624421CA21C34B4B7D
:103BC00063441B68CB604C4B63444A4A624421CA3D
:103BD00021C3CB680893494B6344089A1A602D4B64
:103BE000474A62441360FF23464A6244136011004F
:103BF00045486044FEF7A6FCC3B20E9320ADF90021
:103C000038AB9C4661440822280009F0E3FA3F4A99
:103C10000EAB9C4662443E4B6344290041C941C3FC
:103C20003C48D060966853689946FCF719FD73E0EC
:103C3000A05A0000A45A00008477011058600000C8
:103C4000985A00009C5A0000CC5A0000D45A000038
:103C500084600000B05A0000B85A00007877011064
:103C6000F45A0000FC5A000070600000746000000C
:103C7000D85A0000E05A00007C7701101C5B00005D
:103C8000245B00006060000064600000085B0000CE
:103C9000105B0000A0770110145B0000285B00009F
:103CA000345B0000385B00009077011090600000EA
:103CB0002C5B0000305B0000605B0000685B000074
:103CC000B8600000BC600000445B00004C5B00007A
:103CD000885B0000905B0000A8600000AC60000002
:103CE0006C5B0000745B0000B05B0000B85B000020
:103CF000986000009C6000009C5B0000A45B0000DA
:103D0000A85B0000BC5B0000945B0000C85B000087
:103D1000CC5B00007477011001004846FEF7ACFA56
:103D2000FA490EAB9C46614408604E6008222800A8
:103D300009F050FA209B219A002B03D0197A8906AA
:103D400000D46DE2F2490EA8844661440B60F1494B
:103D500061440A60002B00D164E220ADFB0038AA68
:103D60009146994408224946280009F033FAEA4B63
:103D70000EAA944663442A0003CA03C3E74B9A463B
:103D8000E74B634452461A60E6496144E64B63449C
:103D9000E14A624441CA41C3E14B63441B68079155
:103DA000CB60E24E6644E24B6344DF4A624403CA9E
:103DB00003C30799C8683061DE4B7361B3689B46E3
:103DC000FCF74EFC01005846FEF756FA8346706930
:103DD000FCF746FC01005846FEF74EFAFDF73EF9A7
:103DE000089008224946280009F0F4F9D24B0EAA9F
:103DF000944663442A0003CA03C3D04B634452462B
:103E00001A60CF496144CF4B6344CB4A624441CAF4
:103E100041C3CA4B63441B680791CB60B826F601C7
:103E20006644C94B6344C74A624403CA03C3079943
:103E3000C8683061C54B7361B3689B46FCF710FCE2
:103E400001005846FEF718FA83467069FCF708FC33
:103E500001005846FEF710FAFDF700F90790082216
:103E60004946280009F0B6F9B94B0EAA94466344B6
:103E700006CD06C3B74B634452461A60B649614447
:103E8000B64B6344B24A624421CA21C3B14B634476
:103E90001B68CB60B24B6344B04A624421CA21C361
:103EA000CB680993AF4B6344099A1A60AE4BAF4A93
:103EB00062441360FF23AE4A624413601100AD48B0
:103EC0006044FEF73FFBC3B20F9320ADF90038AB5F
:103ED0009C4661440822280009F07CF9A64A0EABF2
:103EE0009C466244A54B6344290041C941C3A44890
:103EF000D060966853689946FCF7B2FB01004846CB
:103F0000FEF7BAF9C221C9010EAB9C4661440860B4
:103F10004E600822280009F05DF9209B219A002BB1
:103F200003D0197A890600D47FE196490EA8844609
:103F300061440B60944961440A60002B00D176E132
:103F400020ACFE0038AB9C466644082231002000BD
:103F500009F040F98D4B0EAA94466344220003CA2F
:103F600003C3874B9A468A4B634452461A60894979
:103F70006144894B6344854A624421CA21C3844B0E
:103F800063441B680991CB60844D6544844B634452
:103F9000814A624403CA03C30999C8682861654B12
:103FA0006B61AB689946FCF75BFB01004846FEF786
:103FB00063F981466869FCF753FB01004846FEF748
:103FC0005BF9FDF74BF8814608223100200009F02B
:103FD00001F9744B0EAA94466344220003CA03C33A
:103FE000714B634452461A6070496144704B63449C
:103FF0006C4A624421CA21C36B4B63441B6809911C
:10400000CB606C4D65446C4B6344694A624403CA9F
:1040100003C30999C86828614C4B6B61AB689B4628
:10402000FCF71EFB01005846FEF726F98346686937
:10403000FCF716FB01005846FEF71EF9FDF70EF8D7
:104040000C9008223100200009F0C4F85B4B0EAA46
:104050009446634406CC06C3594B634452461A60E7
:1040600058496144584B6344544A624411CA11C3CD
:10407000534B63441B68CB60544B6344524A6244C5
:1040800011CA11C3CB680993514B6344099A1A6052
:10409000354B504A62441360FF234F4A6244136019
:1040A00011004E486044FEF74DFAC5B2182009F0E1
:1040B00097F804004B460193089B0093039B4246EC
:1040C000474904F0F5F9BB00DB19DB00454A9C5079
:1040D000079808F05AFF8146069808F056FF804678
:1040E000059808F052FF061C0C9808F04EFF00904F
:1040F0004B464246311C200004F0F4F90D9A002191
:10410000200004F0E9F90E9A6EE0C046C860000095
:10411000C05B0000C45B0000F45B0000747701101A
:10412000FC5B0000F0600000F4600000D85B000061
:10413000E05B0000787701101C5C0000245C00004C
:10414000E0600000E4600000085C00007C77011083
:10415000445C00004C5C0000D0600000D4600000B3
:10416000305C0000385C0000A07701103C5C00006F
:10417000505C0000285C00005C5C0000605C00009B
:1041800098770110545C0000585C0000885C0000C7
:10419000905C0000286100002C6100006C5C000055
:1041A000745C0000B05C0000B85C000018610000A6
:1041B0001C610000945C00009C5C0000D85C000066
:1041C000E05C0000086100000C610000C45C0000BD
:1041D000CC5C0000D05C0000E45C0000BC5C000033
:1041E0002C2A0020401D00200121200004F074F939
:1041F0000F9A0221200004F06FF92A000321200009
:1042000004F06AF9FFF7E4FA2300FFF741FBFF230C
:104210009846FFF702FC23002EE4FF230393EDE40E
:1042200023008FE5FF2308934FE623007DE6FF255B
:10423000FF2399463AE71B01C01813005A1E002BB2
:1042400006D00A21435E002BF5D1002000E00020BB
:10425000002852D0017A7F230B40043BD9B20829B1
:1042600049D88B004D49CB589F46007846E04168BD
:104270000068FCF74EFE41E041680068FCF762FE12
:104280003CE0006800230EAA30241219137018A90C
:10429000FCF7ECF90EAB1B191A787F231340043B93
:1042A000DAB2082A20D893003D4AD3589F4618AB6B
:1042B000187823E018981999FCF72BFE1EE018983F
:1042C0001999FCF73FFE19E020AB00221A72190081
:1042D0001898FCF7CBF920A8FCF768FE0EE01898B8
:1042E0001999FCF753FE09E0029807E0416800685D
:1042F000FCF74CFE02E0029800E00298002809D08A
:10430000BB00DB19DA00274B9B181A799918487102
:1043100001321A710135052D54DC20ACF90038AB9F
:104320009C4661440822200008F054FF1E4B0EAA50
:104330009446634406CC06C31C4B1D4A624413607A
:104340001C4961441C4B6344174A624411CA11C39F
:10435000174B63441B68CB60184C6444184B634490
:10436000154A624441CA41C3C86820616561A668B4
:10437000FCF776F901003000FDF77EFF6369002845
:1043800000D165E7027A520600D460E7002800D128
:104390005EE70068002800D050E759E74078011038
:1043A00064780110401D0020045D0000AC7701100E
:1043B0000C5D0000386100003C610000E85C00001A
:1043C000F05C0000BB00DB19DB00F74AD3181B7957
:1043D000002B00D123E320ACF90038AB9C466144AC
:1043E0000822200008F0F6FEF04B0EAA9446634423
:1043F00006CC06C3EE48EF4B63441860EB4B6344B6
:104400001C68FCF72DF901002000FDF735FF00289E
:1044100000D117E3027A7F231340082B00D107E372
:104420000A2B00D109E30498002800D00CE3FF20F8
:10443000BB00DB19DB00DC4AD318587420ACF90050
:1044400038AB9C4661440822200008F0C3FEDA4BDA
:104450000EAA9446634406CC06C3D848D84B63449E
:104460001860D54B63441C68FCF7FAF80100200083
:10447000FDF702FF002800D105E3027A7F231340F5
:10448000082B00D1F5E20A2B00D1F7E204980028AE
:1044900000D0FAE20620BB00DB19DA00C24B9B1801
:1044A000D874203300221A700137032F00DD2DE36A
:1044B000FB0038AA9B58002BF6D020ADF90094469B
:1044C00061440822280008F085FEBE4A0EAB9C46D7
:1044D0006244BD4B6344290011C911C3BB48D0607D
:1044E00094685668FCF7BCF801003000FDF7C4FE84
:1044F000B7490EAB9C46614408604C600822280016
:1045000008F068FE209C219B002C04D0227A9206A1
:1045100001D4FEF78BFBAF4A0EA98C4662441460AF
:10452000AD4A62441360002C01D1FFF781F920AC41
:10453000FD0038AB9C462B00634408229A461900C4
:10454000200008F047FEA54B0EAA944663442200C3
:1045500003CA03C3A24B9B46A24B63445A461A604C
:10456000A14961440D00A14B63449C4A624441CA85
:1045700041C39C4B63441B68CB609D4E66449D4B7E
:1045800063449A4A624403CA03C3E86830619A4BA1
:1045900098467361B3689946FCF762F80100484693
:1045A000FDF76AFE81467069FCF75AF8010048463B
:1045B000FDF762FEFCF752FD089008225346039374
:1045C0005146200008F006FE8C4B0EAA9446634428
:1045D000210044C944C38A4B634459461960894940
:1045E00061440D00884B6344844A624441CA41C31C
:1045F000834B63441B68CB60844E6644844B6344A6
:10460000814A624403CA03C3E8683061814B99461A
:104610007361B3689A46FCF723F801005046FDF732
:104620002BFE82467069FCF71BF801005046FDF72F
:1046300023FEFCF713FD0990059008220399200042
:1046400008F0C8FD74490EAB9C4661440B00210084
:1046500044C944C371498A467149614456460E6053
:1046600070496144704E664433006B4A624441CAEB
:1046700041C36B4E66443668CE606C4E66446C4BEC
:104680006344694A624421CA21C3C8683061414613
:104690007161B1680D00FBF7E3FF01002800FDF731
:1046A000EBFD05007069FBF7DBFF01002800FDF75B
:1046B000E3FDFCF7D3FC0A9008220399200008F0E0
:1046C00089FD5C490EAB9C4661440B00210060C92A
:1046D00060C35949614456460E6058496144584E7A
:1046E00066443300534A624460CA60C3524E664413
:1046F0003668CE60534E6644534A62441300504AB3
:10470000624421CA21C3C868306149467161B168F9
:104710008A46FBF7A5FF01005046FDF7ADFD824636
:104720007069FBF79DFF01005046FDF7A5FDFCF702
:1047300095FC0B90069008220399200008F04AFD92
:10474000424E0EAB9C4666443300260024CE24C362
:104750001E4EB2463E4E6644524632603D4E664460
:1047600031003D4E66443300384A624460CA60C33B
:10477000374E66443668CE60384E6644384A6244E6
:104780001300354A624421CA21C3C86830614246D9
:104790007261B2689046FBF763FF01004046FDF787
:1047A0006BFD804670695DE0401D0020145D0000D7
:1047B000D47701101C5D0000245D0000D877011043
:1047C0002C5D0000B8570000BC5700006C7701104A
:1047D000105E0000B0570000B4570000E45700001E
:1047E00074770110EC570000486000004C60000036
:1047F000C8570000D0570000787701100C5800000F
:1048000014580000386000003C600000F0570000C1
:10481000F85700007C7701103458000084770110AD
:104820003C580000286000002C6000001858000070
:10483000205800005C580000645800001860000018
:104840001C600000405800004858000084580000D8
:104850008C580000086000000C60000068580000E0
:1048600070580000FBF7FCFE01004046FDF704FD18
:10487000FCF7F4FB804608220399200008F0AAFC0C
:104880008C4E0EAB9C4666443300260024CE24C3D7
:10489000894E664452463260884E66443100884EE6
:1048A00066443300834A624460CA60C3824E6644F1
:1048B0003668CE60834E6644834A62441300804A61
:1048C000624421CA21C3C86830614A467261B26835
:1048D0009146FBF7C5FE01004846FDF7CDFC814639
:1048E0007069FBF7BDFE01004846FDF7C5FCFCF70B
:1048F000B5FB060007901C2008F072FC814642467A
:1049000000920A9B089A714903F090FFBB00DB19E3
:10491000DB006F4A49469950300008F036FB061C10
:104920000B9808F032FB8046099808F02EFB011C1A
:10493000331C4246484603F08BFF082203992000AF
:1049400008F048FC634B0EAA9446634406CC06C3A9
:10495000614B63445A461A6060496144604B63444A
:104960005C4A624411CA11C35B4B63441B68CB6051
:104970005C4D65445C4B6344594A624411CA11C39F
:10498000CB682B61594B6B61594C6444594E66445A
:10499000082255496144300008F01CFC2B69236152
:1049A0006B69636113AB06CE06C32069159063691A
:1049B0000393169300231793139CFBF751FE0100FA
:1049C0002000FDF759FC0400169B03931800FBF729
:1049D00047FE01002000FDF74FFC179B002801D186
:1049E000FEF72AF9027A520601D4FEF724F90028CC
:1049F00001D1FEF721F90068002801D1FEF71CF96A
:104A00005A1E002B01D1FEF717F90A21435E002B35
:104A100001D1FEF70EF91B01C0181300F0E7D023F7
:104A20001B0640225A6140329A61334806F028FA48
:104A300041680068FCF728F8F6E441680068FCF774
:104A40002EF8F1E40498EFE42C4B0EAA944663444C
:104A50001C682B4B63441868FBF702FE0100200022
:104A6000FDF70AFC002802D0FCF7A8FBE0E40020D8
:104A7000DEE441680068FCF707F808E54168006873
:104A8000FCF70DF803E5049801E51E4B0EAA9446C9
:104A900063441C681C4B63441868FBF7E1FD01008C
:104AA0002000FDF7E9FB002802D0FCF787FBF2E4C9
:104AB0000020F0E4AC580000B4580000F85F00009B
:104AC000FC5F000090580000985800002C2A00203D
:104AD000401D0020D4580000DC580000E85F0000B2
:104AE000EC5F0000B8580000C05800008C7701103F
:104AF000D05F0000D85F0000B8770110145D00009F
:104B00001C5D0000245D00002C5D0000AA4B0EAA75
:104B10009446634440AA1A60A848A94B63441860AD
:104B2000FBF79EFD010046A8FDF7A6FBC321C901C6
:104B30000EAB9C466144086040AB4B60082220A845
:104B400008F048FB209B219A002B03D0197A890694
:104B500000D402E1289329929A4B0EAA944663440A
:104B600040AA1A609848994B63441860FBF778FD97
:104B7000010046A8FDF780FB95490EAB9C466144B9
:104B8000086040AB4B60082220A808F023FB209B64
:104B9000219A002B03D0197A890600D4DFE02A93EA
:104BA0002B928C4B0EAA9446634440AA1A608A4802
:104BB0008A4B63441860FBF753FD010046A8FDF7DC
:104BC0005BFB87490EAB9C466144086040AB4B6081
:104BD000082220A808F0FEFA209B219A002B03D07F
:104BE000197A890600D4BCE02C932D927D4B0EAA35
:104BF0009446634440AA1A607B487C4B6344186027
:104C0000FBF72EFD010046A8FDF736FB78490EABF9
:104C10009C466144086040AB4B60082220A808F025
:104C2000D9FA209B219A002B03D0197A890600D447
:104C300099E02E932F926F4B0EAA9446634440AA9C
:104C40001A606D486D4B63441860FBF709FD010065
:104C500046A8FDF711FB6A490EAB9C46614408600B
:104C600040AB4B60082220A808F0B4FA209B219AA0
:104C7000002B02D0197A890677D530933192614B97
:104C80000EAA9446634440AA1A605F485F4B63448F
:104C90001860FBF7E5FC010046A8FDF7EDFA5C495A
:104CA0000EAB9C466144086040AB4B60082220A8D4
:104CB00008F090FA209B219A002B02D0197A8906DD
:104CC00055D532933392534B0EAA9446634440AA6F
:104CD0001A605148514B63441860FBF7C1FC010056
:104CE00046A8FDF7C9FA4E490EAB9C4661440860E0
:104CF00040AB4B60082220A808F06CFA209B219A58
:104D0000002B02D0197A890633D534933592454B5E
:104D10000EAA9446634440AA1A604348434B634436
:104D20001860FBF79DFC010046A8FDF7A5FA404975
:104D30000EAB9C466144086040AB4B60082220A843
:104D400008F048FA209B219A002B02D0197A890694
:104D500011D53693379200249CE00023FAE6002315
:104D60001DE7002340E7002363E7002385E70023D6
:104D7000A7E70023C9E70023EBE700785BE0416881
:104D80000068FCF7C6F856E041680068FCF7DAF8FE
:104D900051E0006820AB00221A721900FBF766FC94
:104DA00020A8FCF703F946E041680068FCF7EEF83C
:104DB00041E002983FE0C046305D0000E07701101E
:104DC000345D0000385D0000E87701103C5D0000B4
:104DD00078610000405D0000F0770110445D000044
:104DE00070610000485D0000F87701104C5D000024
:104DF00068610000505D000000780110545D000003
:104E000060610000585D0000087801105C5D0000E2
:104E100058610000605D000010780110645D0000C2
:104E200050610000685D0000187801106C5D0000A2
:104E30004861000002982201A44B9B18587020ADD5
:104E4000E10028AB9C4661440822280008F0C2F922
:104E50009F4B0EAA9446634406CD06C39D489E4BC5
:104E6000634418609A4B63441D68FBF7F9FB01002B
:104E70002800FDF701FA002803D0037A5B0600D072
:104E8000049E002E63D02201904B9B1800225A7181
:104E90001A710134072C00DD0FE1E30028AA9B58AA
:104EA000002BF6D020ADE100944661440822280092
:104EB00008F090F9894B0EAA9446634406CD06C3C8
:104EC0008748884B63441860874B2093834B634427
:104ED0001D68FBF7C5FB01002800FDF7CDF920A9EF
:104EE000FBF786FE013843425841C6B2002873D012
:104EF0002301764A0121995420ADE10028AB9C465C
:104F000061440822280008F065F9784B0EAA9446FF
:104F1000634406CD06C37648764B63441860734BF2
:104F200063441D68FBF79CFB01002800FDF7A4F912
:104F3000002800D17EE7027A7F231340043BDAB2D7
:104F4000082A00D935E793006B4AD3589F465F4B38
:104F50009846260102234246B35420ADE70028AB11
:104F60009C46674408223900280008F033F9634B57
:104F70000EAA944663442A0003CA03C35548604BF3
:104F8000634418605D4B63441B689946FBF768FBFC
:104F900001004846FDF770F9FCF760F84644B07030
:104FA00008223900280008F015F9564B0EAA94463D
:104FB000634406CD06C35448544B63441860514BB8
:104FC00063441D68FBF74CFB01002800FDF754F912
:104FD000FCF744F8F07056E720ADE10028AB9C46A2
:104FE00061440822280008F0F5F8494B0EAA9446BF
:104FF000634406CD06C33A48464B63441860464BAB
:105000002093434B63441D68FBF72AFB01002800F3
:10501000FDF732F920A9FBF7EBFD012824D12B4E37
:1050200027010323BB5520ADE10028AB9C4661441A
:105030000822280008F0CEF8384B0EAA94466344A4
:1050400006CD06C33648374B63441860334B634480
:105050001D68FBF705FB01002800FDF70DF9FBF7C4
:10506000FDFFF61970700EE720ADE10028AB9C46FD
:1050700061440822280008F0ADF82B4B0EAA944694
:10508000634406CD06C31648284B634418601E4B84
:105090002093254B63441D68FBF7E2FA01002800CA
:1050A000FDF7EAF820A9FBF7A3FD012800D0EAE606
:1050B0002301064A04219954E5E61D4B9D44F0BCAA
:1050C000BB46B246A946A046F0BDC046E01D002042
:1050D000945D00005C7701109C5D0000745D000031
:1050E000207801107C5D000028780110845D0000AC
:1050F000547701108C5D000088780110A45D0000D9
:10510000AC5D0000B45D000030780110BC5D0000B3
:10511000C45D0000CC5D0000D8770110D45D0000B4
:1051200038780110DC5D0000E45D0000EC5D0000FB
:10513000C4610000F0B5D6464F464646C0B586B0BD
:1051400003F0FEFB08F018FA032003F029FDD02439
:1051500024060823A36200220121032003F028FC77
:105160000F2003F01DFD80231B02A362062003F025
:1051700017FD40236362A361072003F011FD802324
:1051800063626361192003F00BFD80239B0463625B
:10519000636104A8FBF700F9E04B0499059A1960D4
:1051A0005A60DF4B01221A700BF0A2F81F211A205F
:1051B00003F0E6FB002200211A2003F0F9FB002196
:1051C0001A2003F0D5FCD74B1B68E022D201134014
:1051D000D54A1360D54B012208210F2003F06CFC47
:1051E000D34804F065FE04A8FBF7D6F8D14A0023A3
:1051F0000498059906F0A8FF1000190007F096FA28
:105200000022CD4B07F0AFF902000B00CB4808F0AD
:10521000A7F904220121CA4808F0A2F9C94B0422C7
:105220001A60C04B1B68DB05FBD5BE4B5C68FBF707
:10523000F9F9C54D286004A8FBF7AEF8BD4A002374
:105240000498059906F080FF1000190007F06EFA27
:105250000022B94B07F087F902000B00B74E30006F
:1052600008F07EF92104090CB84808F079F904A87F
:10527000FBF792F8AF4A00230498059906F064FF03
:105280001000190007F052FA0022AB4B07F06BF93F
:1052900002000B00300008F063F9286807F0A4FE54
:1052A00002000B00AA4808F05BF92C688221C905AE
:1052B000201C07F04FFE002814D08121C905201CB6
:1052C00007F05EFE00280DD0D0231B0640225A6155
:1052D00040329A61201C07F087FE02000B009D48B7
:1052E00005F0CEFDFBF7B4F8FBF7CEF8FF219A48A6
:1052F00001F056FC00240CE0E6B2984D002231008B
:10530000280001F049FD00223100280001F08EFD47
:1053100001340F2CF0DDFDF7ADF904A8FBF73CF8E4
:10532000844A00230498059906F00EFF1000190026
:1053300007F0FCF90022804B07F015F902000B0082
:105340007E4808F00DF9864B1978864808F008F970
:10535000002406E0844B854A3F21854805F0F6FC91
:105360000134032C32DCA3001B19DB00814A9B585B
:10537000002BF5D00025A3001B19DB007D4AD318B4
:105380001B79AB42ECDD04F063FE0029E2DB694AE5
:10539000002306F0D9FE1000190007F0C7F900221B
:1053A000654B07F0E0F802000B00644808F0D8F8FD
:1053B000A3001B19DA006F4B9B185B195B792A005D
:1053C00021006D4808F0CCF80135D4E7002513E042
:1053D0000134032C0BDCA3001B19DB00654A985831
:1053E0000028F5D003681B68E9B29847F0E7FA2077
:1053F000800004F05DFD0135032D01DC0024E8E7A9
:105400005E4C200002F0FCFB09220821200002F083
:10541000A9FC534B1978200001F048FF0821200017
:1054200001F0D4FF5649200001F0E6FF14212000CE
:1054300002F058F85349200002F026FB0521200015
:1054400002F096F80921200002F08EFB01212000D5
:1054500001F034FF200002F0DAF8002400E001340B
:10546000032C0BDCA3001B19DB00424A98580028D0
:10547000F5D003681B6802219847F0E7002300E09D
:105480000133072B0ADC1A013F49525C032AF7D18A
:1054900019013D4A521801211171F1E704A8FAF7E8
:1054A0007BFF244A00230498059906F04DFE100066
:1054B000190007F03BF900221F4B07F054F80200D7
:1054C0000B001E4808F04CF8304B1B78304A12781D
:1054D00030490978304800780090304808F040F8AA
:1054E00001F045F90132032A09DC93009B18DB0027
:1054F0002049CB189B7C002BF4D01D00F2E704F070
:10550000A7FD002903DB264B18605960EFE0164B1E
:10551000164A3F21164805F019FCC046701E0020AF
:10552000D730002000C0044000D004400503001024
:105530008813000040420F0000408F40545E01106D
:10554000AC78011000E0044040240020C078011035
:10555000CC780110E0780110042A00202C2A0020C9
:10556000C5300020F4780110B85D0110D45D011041
:105570000C5E0110401D002000790110582A002007
:1055800000C0644420A10700E01D0020BD0F0020E2
:10559000C90F0020C80F0020CA0F00201879011081
:1055A000681E002001308B005B18DB00CA4AD3184C
:1055B0001B7983420FDD002F0DD18B005B18DA00C1
:1055C000C54B9B181B185A79C44B1B789A42E9D1DA
:1055D000CEB22700E6E70131032903DC002F01D119
:1055E0000020E0E7BE4B1A78BE4B1B789A4200D1F0
:1055F00097E0BB4BDB78412B05D0612B03D0522BBE
:1056000001D0722B11D1B84B1B78002B00D1B5E221
:10561000B64B1B78002B00D0DEE204F019FD002908
:1056200000DAEEE2B24B1860596004F011FD002977
:1056300000DAECE2AF4A002306F086FD1000190004
:1056400007F074F80022AC4B06F08DFF02000B004F
:10565000AA4807F085FFAA4B1C78AA4B1E789F4BDF
:105660001F78A94801F024FE00903B003200210081
:10567000A64807F075FF04F0EBFC002900DACCE245
:105680009C4A002306F060FD1000190007F04EF858
:105690000022994B06F067FF02000B00974807F0C5
:1056A0005FFF8F480178C2784378807800909848EF
:1056B00007F056FF002D00D1D9E204F0C9FC02002A
:1056C0000B1E00DAAFE2934908684968121A8B4151
:1056D00010001900FA229200002306F01DFD8E4BE7
:1056E0001A780023994200DDC1E200D1BCE286486D
:1056F00001F0B2FF041EDDD0824A00211170774B09
:1057000019707F4E043131700092320074497E4826
:1057100001F0C0FF3378042B87D100210026002739
:105720005AE76F4A9478002C00D062E7002F00D12E
:105730005FE76A4A1078834200D15AE7684AD27814
:10574000672A0BD8412A00D253E7413AD1B2262921
:1057500000D94EE78A0071498A589746722A00D0CC
:1057600047E7834200D270E13700282373435A4A47
:10577000985803685B689847012800D193E1002C92
:1057800000D19AE1554B1878002301225221FAF7F3
:10579000A9FE2EE7524B5F78002F3AD10023012259
:1057A0004721FAF79FFE3C004C4B1978032230004A
:1057B000FAF7C4FEB04628235E43474BF05803680F
:1057C0005B689847012838D0282342465343424A11
:1057D000985803681B6800219847514B01221A70A2
:1057E000414B1B78002B72D0404B1B78002B00D014
:1057F000CEE0282243465A43374B9B1800229A7426
:1058000004A8FAF7C9FD3A4B0499059A19605A6041
:10581000EFE6002300E00133072BC5DC1901414A04
:1058200052185278B242F6D10A003E49525C032A1D
:10583000F1D11B01CB181C79B6E7002CC4D1264B43
:105840009B1920331B78002BCAD1374B1B78FA22C7
:1058500092005A439246282443465C431E4BE41868
:1058600004F034F9814604F0F3FB06000F1E1EDB42
:10587000FA22920000235046002107F0FDFA320080
:105880003B0012184B41002B17DB002B19DB0126C4
:105890000296019425490091484604F02DF92822EA
:1058A00043465A430C4B9B1820331E7098E7204BFD
:1058B000204A3F21204805F049FA012252421F4B5D
:1058C000E3E71B4B1B4A3F211B4805F03FFA1C48EE
:1058D00001F072FC002436E0401D0020CD30002095
:1058E000A0300020C5300020BE0F0020CE300020A8
:1058F000381D002040420F0000408F40545E0110D0
:10590000D3300020D9300020582A002058790110C7
:1059100080790110681E0020C90F00203C7A011018
:10592000CA300020E01D0020BC0F0020C50300107D
:10593000B85D0110D45D01100C5E0110FFFFFF7F08
:105940002C2A00200134032C1BDC28236343B94A92
:1059500098580028F6D00368DB68B7499847282391
:105960006343B44A985803685B6898470428E9D1B0
:1059700028236343AF4A985803681B68002198475F
:10598000E0E7AE4B01221A70AD4B00221A7030E7EF
:10599000002400E00134032C0ADC28236343A54AD9
:1059A00098580028F6D00368DB68A3499847F1E7C8
:1059B000A34B00221A701CE7A24B5B78002B3FD050
:1059C0003700282373439B4A985803685B689847BD
:1059D000002812D028237343964A985803685B68BE
:1059E0009847012809D028237343924A985803689E
:1059F0005B689847042800D0FBE58E4C28235F4362
:105A0000385903681B680121984701228E4B1A7090
:105A10008E4B19783000FAF791FDE4190023A37436
:105A200004A8FAF7B9FC8A4B0499059A19605A60E0
:105A300004A8FAF7B1FC049A059BA261E361D8E5DA
:105A400001225221FAF74EFDBAE7002307E01A01BE
:105A50008049525C013AD2B2012A17D90133072B8F
:105A600000DD81E619017B4A52185278B242EED02D
:105A7000784A52189278B242F0D1764A5118C978D1
:105A8000090152181279002AE8D0E0E71901714A99
:105A9000521810790028E1D06E4A52185279002A23
:105AA000DCD10400DAE728227243624B9B182033D2
:105AB0001B78002B00D165E661E6624B5B78002B1A
:105AC0000CD028237B435B4A985803681B6802214B
:105AD00098475D4B01221A7000231AE05B4B18783F
